:10000000D8C10000F7C10000F5C10000F3C1000035
:10001000F1C10000EFC10000EDC10000EBC1000024
:10002000E9C10000E7C10000E5C10000E3C1000034
:10003000E1C100000C947C0BDDC10000DBC10000BD
:10004000D9C100000C945E09D5C10000D3C10000E5
:10005000D1C100000C944A0BCDC10000CBC10000FF
:10006000C9C100000C94BF170C9412180C94E91726
:10007000C1C10000BFC10000BDC10000BBC1000084
:10008000B9C10000B7C10000B5C10000B3C1000094
:100090000C943B180C948E180C946518ABC100009E
:1000A000A9C10000A7C100000C94B00BA3C10000BF
:1000B000A1C100009FC100009DC100009BC10000C4
:1000C00099C1000097C1000095C10000BB0FBB0F94
:1000D0008B108B1080121F118012801280128012E0
:1000E000801280128012801267110F12F313F31323
:1000F000A914A914AA152D15AA15AA15AA15AA1589
:10010000AA15AA15AA15AA157515751539354535F7
:10011000843593359E35A235B435E635F935093643
:100120002C362C362C3621362C36263600C0C10112
:10013000C30302C2C60607C705C5C404CC0C0DCD57
:100140000FCFCE0E0ACACB0BC90908C8D81819D9C7
:100150001BDBDA1A1EDEDF1FDD1D1CDC14D4D515F7
:10016000D71716D6D21213D311D1D010F03031F1E7
:1001700033F3F23236F6F737F53534F43CFCFD3D17
:10018000FF3F3EFEFA3A3BFB39F9F83828E8E92907
:10019000EB2B2AEAEE2E2FEF2DEDEC2CE42425E5B7
:1001A00027E7E62622E2E323E12120E0A06061A127
:1001B00063A3A26266A6A767A56564A46CACAD6DD7
:1001C000AF6F6EAEAA6A6BAB69A9A86878B8B97947
:1001D000BB7B7ABABE7E7FBF7DBDBC7CB47475B577
:1001E00077B7B67672B2B373B17170B05090915167
:1001F0009353529296565797559594549C5C5D9D97
:100200005F9F9E5E5A9A9B5B995958988848498986
:100210004B8B8A4A4E8E8F4F8D4D4C8C4484854536
:1002200087474686824243834181804000C18140A6
:1002300001C0804101C0804100C1814001C08041B6
:1002400000C1814000C1814001C0804101C08041A6
:1002500000C1814000C1814001C0804100C1814096
:1002600001C0804101C0804100C1814001C0804186
:1002700000C1814000C1814001C0804100C1814076
:1002800001C0804101C0804100C1814000C1814066
:1002900001C0804101C0804100C1814001C0804156
:1002A00000C1814000C1814001C0804101C0804146
:1002B00000C1814000C1814001C0804100C1814036
:1002C00001C0804101C0804100C1814000C1814026
:1002D00001C0804101C0804100C1814001C0804116
:1002E00000C1814000C1814001C0804100C1814006
:1002F00001C0804101C0804100C1814001C08041F6
:1003000000C1814000C1814001C0804101C08041E5
:1003100000C1814000C1814001C0804100C18140D5
:1003200001C0804101C0804100C181402F03020112
:1003300045030202370302020000080000000F0814
:10034000000800000004090008000000100100047B
:10035000000000460047000602B200B3001002A4ED
:1003600000A8001C02C600C000C100C200C500C435
:1003700000FE010302040205024203FFA001FBCFBD
:10038000007D67003F44002A33001F22001B190034
:100390001B10001B650B20007A1220008E123A0001
:1003A000A60C5000016364696E6F70737578585BBA
:1003B000000011241FBECFEFD1E2DEBFCDBF00E0B1
:1003C0000CBF16E0A0E0B2E0E6EBF8E700E00BBF00
:1003D00002C007900D92A63AB107D9F725E1A6EA27
:1003E000B6E001C01D92A230B207E1F70E9471375A
:1003F0000C94593C05CEFC018081089592B184E0B3
:10040000892782B9089508950895089582E084BDEA
:1004100085EF85BDEEE6F0E08081826080830895FF
:1004200082E08093B00087EF8093B100E0E7F0E0D6
:1004300080818260808308951092A0008DE0809377
:10044000A100E2E7F0E080818260808308950C944F
:10045000B83B0895282F30E0F901EE0FFF1FE20F9F
:10046000F31FE45DFC4F25913491E82FF0E0EA5250
:10047000F64F8081A90164E0869F400D511D112433
:10048000CA010895282F30E044E1849FF00111242F
:10049000E959FC4FA591B4919C91F901ED5CF54FA0
:1004A000408151E0540F508354E1529FF001539F1B
:1004B000F00D1124EB59FC4FA591B4915C91F22FF2
:1004C000EE27E40FF11DEB5FFC4E508393FF0FC04E
:1004D000F901E295F295F07FFE27E07FFE27EA59C9
:1004E000FD4E268537852F5F3F4F378726879C71C6
:1004F00071F021E030E0A90102C0440F551F8A9538
:10050000E2F7CA019091DA06892B8093DA06089502
:100510000F931F93CF93DF93C82FD0E0FE01E851D4
:10052000F64F9081923009F1FE01E295F295F07F4D
:10053000FE27E07FFE27E456FC4F059114918ADFE9
:100540000196FC0185919491C552D64F2881FC01FA
:1005500037E0239FE00DF11D11243596859194918C
:10056000880F991F800F911F0AC0CC0FDD1FCC0F81
:10057000DD1FCC0FDD1FCE52D94F8E819F81DF91C1
:10058000CF911F910F910895E3E5F3E02591349108
:100590008217930799F060E06F5F262F30E0F90132
:1005A000EE0FFF1FE20FF31FEE0FFF1FED5AFC4F80
:1005B000459154918417950779F703C020E030E006
:1005C00060E0E62FF0E0EC55FC4FE491EE2319F0EB
:1005D000E13079F10895F22FEE27EB5FFC4E908128
:1005E000F901ED53F64F808198130FC040915512D9
:1005F00081E090E0BC0102C0660F771F2A95E2F708
:100600009B01242B209355120895F901EF53F74FC6
:1006100081E08083F901E295F295F07FFE27E07F8B
:10062000FE27EA59FD4E8081918101969183808356
:1006300008954091551281E090E0BC0102C0660F20
:10064000771F2A95E2F79B01242B209355120895DA
:100650008EBD00000DB407FEFDCF8EB50895CF937B
:10066000DF93C82FD92F28988FE0F2DF8D2FF0DF8E
:100670008C2FEEDF80E0ECDF289ADF91CF91089598
:10068000CF92DF92EF92FF920F931F93CF93DF935E
:10069000EC016A0141155105B1F0062F172F7C01BD
:1006A000E40EF51E28988FE0D3DF8D2FD1DF8C2F3D
:1006B000CFDF219680E0CCDFF80181938F01289A6B
:1006C000CE15DF0579F7C601DF91CF911F910F910C
:1006D000FF90EF90DF90CF900895CF92DF92EF924E
:1006E000FF920F931F93CF93DF93EC016A014115A3
:1006F0005105A9F0062F172F7C01E40EF51E28984E
:1007000080EFA6DF8D2FA4DF8C2FA2DF2196F801CA
:1007100081918F019DDF289ACE15DF0581F7C601F3
:10072000DF91CF911F910F91FF90EF90DF90CF90CD
:100730000895EF92FF920F931F93259A2D9A2D986B
:100740002FEF83EC99E0215080409040E1F700C00A
:1007500000006C9A74982FEF83EC99E02150804050
:100760009040E1F700C000006C982FEF83EC99E017
:10077000215080409040E1F700C0000080E090E40C
:100780009093480E8093470E80E090E69093B509D1
:100790008093B40980E098E490934A0E8093490EC8
:1007A00080E098E69093B7098093B60980E090E5E1
:1007B00090934C0E80934B0E80E090E79093B90994
:1007C0008093B80980E098E590934E0E80934D0E8B
:1007D00080E098E79093BB098093BA0960E880E0D5
:1007E00090E037D065E58BE190E033D065E58AE1B4
:1007F00090E02FD06894EE24E1F8F12C0EED10E09B
:100800002CEC30E04BEB50E06AEA70E080E090E0E6
:1008100051D02CE430E040E050E060E070E08AE04D
:1008200090E06FD02EEF30E040E050E060E070E00C
:100830008AE090E081D020E030E04FEF50E06FEFB1
:1008400070E08FEF90E093D01F910F91FF90EF90A9
:1008500008951F93CF93DF93D82F192FC62F289871
:1008600080EFF6DE812FF4DE8D2FF2DE8C2FF0DEAE
:10087000833011F0289A5DDF289A81E0DF91CF91D3
:100880001F9108951F93CF93DF93C82FD0E0DC2FE3
:10089000CC27CF5FDB4FCE01DCDF10E001C01F5F54
:1008A000CE01DDDE882311F01F3FC9F7DF91CF9124
:1008B0001F910895EF920F931F93CF93DF93162FFD
:1008C000D42FC22F682F89E090E0C3DF612F8AE028
:1008D00090E0BFDF6D2F8BE090E0BBDF6C2F8CE0F2
:1008E00090E0B7DF602F8DE090E0B3DF6E2D8EE0FB
:1008F00090E0AFDF81E0DF91CF911F910F91EF90FA
:1009000008951F93CF93DF93162FD42FC22F682FF4
:100910008FE090E09EDF612F80E190E09ADF6D2F05
:1009200081E190E096DF6C2F82E190E092DF81E040
:10093000DF91CF911F9108951F93CF93DF93162FCF
:10094000D42FC22F682F81E090E083DF612F82E0F7
:1009500090E07FDF6D2F83E090E07BDF6C2F84E001
:1009600090E077DF81E0DF91CF911F9108951F9391
:10097000CF93DF93162FD42FC22F682F85E090E0FE
:1009800068DF612F86E090E064DF6D2F87E090E004
:1009900060DF6C2F88E090E05CDF81E0DF91CF9139
:1009A0001F91089590E00496982F8827860F971F2F
:1009B00056CE08951F93CF93DF93182F60E270E017
:1009C000F1DFC82FD0E061E270E0812FEBDFDC2F98
:1009D000CC279E01282BC901DF91CF911F9108954B
:1009E0001F93CF93DF93182F66E270E0DBDFC82FF1
:1009F000D0E067E270E0812FD5DFDC2FCC279E01AD
:100A0000282BC901DF91CF911F9108959B0190E0A0
:100A10000496982F8827642F820F931F1ACF08956A
:100A2000882341F08091BF06813041F018F0823078
:100A3000C1F024C081E08093BF0620C0462F61E052
:100A400070E080E0E3DF61E070E080E0ABDF88230E
:100A500021F082E08093BF0611C08FEF8093BF0624
:100A60000DC061E070E080E09DDF882321F082E02E
:100A70008093BF0603C08FEF8093BF068091BF06AF
:100A80000895882341F08091BE06813041F018F02E
:100A90008230C1F024C081E08093BE0620C0462F82
:100AA00061E070E081E0B2DF61E070E081E07ADF78
:100AB000882321F082E08093BE0611C08FEF8093DF
:100AC000BE060DC061E070E081E06CDF882321F09C
:100AD00082E08093BE0603C08FEF8093BE068091B4
:100AE000BE060895882341F08091BD06813041F013
:100AF00018F08230C1F024C081E08093BD0620C090
:100B0000462F61E070E082E081DF61E070E082E02A
:100B100049DF882321F082E08093BD0611C08FEF6A
:100B20008093BD060DC061E070E082E03BDF88236A
:100B300021F082E08093BD0603C08FEF8093BD0655
:100B40008091BD060895CF93C82F692F80E194E06E
:100B500080DE6C2F81E194E07CDECF910895CF930D
:100B6000DF93EC0168818CE094E073DE69818DE0B5
:100B700094E06FDE6A818EE094E06BDE6B818FE043
:100B800094E067DEDF91CF910895CF93C82F692F4E
:100B900080E195E05EDE6C2F81E195E05ADECF9139
:100BA0000895CF93DF93EC0168818CE095E051DEEE
:100BB00069818DE095E04DDE6A818EE095E049DE49
:100BC0006B818FE095E045DEDF91CF910895CF9363
:100BD000C82F692F80E196E03CDE6C2F81E196E022
:100BE00038DECF910895CF93DF93EC0168818CE0DC
:100BF00096E02FDE69818DE096E02BDE6A818EE043
:100C000096E027DE6B818FE096E023DEDF91CF91C7
:100C100008959F92AF92BF92CF92DF92EF92FF9290
:100C20000F931F93CF93DF93982E5B017A01E90115
:100C300064E270E0B7DEC82ED12C65E270E0892D49
:100C4000B1DE1C2D0027082B0A0D1B1D98013770E3
:100C5000C92CD12CF601EE0FFF1FE95BF14F80810B
:100C60009181820F931FA9014C0F5D1F41305840A5
:100C7000B8F040E058E05A01A21AB30AA501B70142
:100C80002CDDAE014A195B09B7016A0D7B1DF60127
:100C9000EE0FFF1FE95BF14F808191811EDD03C0E4
:100CA000AE01B7011ADDC00FD11F4D2F64E270E015
:100CB000892DACDE4C2F65E270E0892DA7DEDF9137
:100CC000CF911F910F91FF90EF90DF90CF90BF9049
:100CD000AF909F900895DF92EF92FF920F931F9332
:100CE000CF93DF93D82E0FEF1FEFE12CF12C8D2D3A
:100CF00061DEEC01009719F08D2D5CDE7C01EC16B5
:100D0000FD0629F0015011090115110581F7C701F0
:100D1000DF91CF911F910F91FF90EF90DF90089599
:100D2000DF92EF92FF920F931F93CF93DF93D82E12
:100D30008B017A01E901CFDF8C179D0718F48D2D07
:100D4000CADFEC019E01A701B8018D2D62DFCE0143
:100D5000DF91CF911F910F91FF90EF90DF90089559
:100D600020E3FC0120833296862F82958F7090E1DC
:100D7000899F601911246A3010F4605D01C0695CBC
:100D80006293882311F0682FEFCF08958FB7807892
:100D90008093BE08F8948091BE0808958091BE08A3
:100DA000882309F078948091BE080895A8952FE0D3
:100DB00088E190E00FB6F894A895809360000FBE8C
:100DC00020936000089580916B0391E0980F9093B9
:100DD0006B03089580916A0391E0980F90936A03E2
:100DE0000895CF93DF93C82FD62FD0DFEC2FF0E0FC
:100DF000E25AF74FD083DD23A9F0EC2FE695E69574
:100E0000E695F0E0E051F94F4081C77021E030E015
:100E1000C90102C0880F991FCA95E2F78095842303
:100E2000808313C0EC2FE695E695E695F0E0E0515F
:100E3000F94F4081C77021E030E0C90102C0880F3E
:100E4000991FCA95E2F7842B8083A8DFDF91CF91A9
:100E500008951F93CF93DF93182FEB0197DFE12FB6
:100E6000F0E0EE0FFF1FE256F84FD183C083CD2B89
:100E7000A9F0E12FE695E695E695F0E0ED51F94F02
:100E80004081177021E030E0C90102C0880F991F2E
:100E90001A95E2F780958423808313C0E12FE695AD
:100EA000E695E695F0E0ED51F94F4081177021E0AD
:100EB00030E0C90102C0880F991F1A95E2F7842B10
:100EC00080836CDFDF91CF911F910895282F30E050
:100ED000F901EE0FFF1FEE0FFF1FE453F94F1082D1
:100EE000118212821382F901ED54F64F608194E66B
:100EF000699FB00111249091CB069F5F890FA9CF04
:100F000008952F923F924F925F926F927F928F92AD
:100F10009F92AF92BF92CF92DF92EF92FF920F9388
:100F20001F93CF93DF93382E90E0FC01EE0FFF1F4D
:100F30008E0F9F1FFC01E25DFC4F4490512CB12CA1
:100F4000032D10E0E801CA52D64FC801880F991F3F
:100F50009C012E59344F3901FC01E550F64F6F01C9
:100F6000C801880F991F880F991F9C012453394F7E
:100F70004901780188818F5F8883841123C018829A
:100F80002090CB0623942394230C00DFE22DF0E085
:100F9000EE0FFF1FE256F84FA080B180FFDEA09455
:100FA000B094F301B182A082F601808191818A150B
:100FB0009B0510F4B182A0826FEF7FEF822D49DF95
:100FC000BB24B394F40180819181A281B381088014
:100FD00004C0B695A795979587950A94D2F780FF98
:100FE00003C05394541428F2541012C0832D6EDFA2
:100FF000F701EA52F64F80818F5F581629F0F7010A
:10100000EA52F64F808304C0F701EA52F64F10828D
:10101000F701E552F64F10828B2DDF91CF911F9192
:101020000F91FF90EF90DF90CF90BF90AF909F9087
:101030008F907F906F905F904F903F902F9008958A
:101040000F931F93CF93DF93E82FF0E0DF01A851B8
:10105000B64F9C91923021F4FD01108280E058C07F
:10106000DF01A295B295B07FBA27A07FBA27AA590F
:10107000BD4E18962D913C9119972F5F3F4F1996B1
:101080003C932E931897DF01A053B94F9C919F5F1B
:101090009C93DF01A25DB54F2C91921338C0DF0104
:1010A000AA52B64F41E050E060E070E00C9004C0FE
:1010B000440F551F661F771F0A94D2F7DF01AA0F4E
:1010C000BB1FAA0FBB1FED01CA5ADD4E0881198153
:1010D0002A813B81042B152B262B372B0883198360
:1010E0002A833B83A453B94F0D911D912D913C91BF
:1010F0001397402B512B622B732B4D935D936D9364
:101100007C931397E053F94F1082FBDE01C080E01F
:10111000DF91CF911F910F910895CF92DF92EF92BF
:10112000FF92CF93C82F6A017B0130DEEC2FF0E0F5
:10113000EE0FFF1FEE0FFF1FE250F94FC082D1826A
:10114000E282F382CD28CE28CF28A9F0EC2FE695B5
:10115000E695E695F0E0E352F94F4081C77021E053
:1011600030E0C90102C0880F991FCA95E2F7809547
:101170008423808313C0EC2FE695E695E695F0E096
:10118000E352F94F4081C77021E030E0C90102C04D
:10119000880F991FCA95E2F7842B8083FFDDCF91DA
:1011A000FF90EF90DF90CF900895CF93C82FEEDDA2
:1011B000EC2FE695E695E695F0E0ED51F94F2081AC
:1011C00030E08C2F877002C0359527958A95E2F71D
:1011D00020FF0DC0EC2FF0E0EE0FFF1FE256F84F9E
:1011E00020813181C1E0232B19F0C0E001C0C0E0B3
:1011F000D5DD8C2FCF910895CF93C82FC7DDEC2F6D
:10120000E695E695E695F0E0E352F94F208130E06F
:101210008C2F877002C0359527958A95E2F720FFBD
:1012200013C0EC2FF0E0EE0FFF1FEE0FFF1FE25098
:10123000F94F4081518162817381C1E0452B462B7A
:10124000472B19F0C0E001C0C0E0A8DD8C2FCF9182
:101250000895ACDD109280008AEE8093810080E2D8
:101260009EE49093890080938800EFE6F0E080810F
:101270008260808380E090E02FEFFC01E051F94F25
:10128000208301968C309105C1F780E090E02FEF2C
:10129000FC01ED51F94F208301968D309105C1F786
:1012A0008FEF8093DD068093DE068093DF068093C8
:1012B000E0068093E1068093E20608951F920F9264
:1012C0000FB60F9211240BB60F922F933F934F93AB
:1012D0005F936F937F938F939F93AF93BF93EF939E
:1012E000FF938091DB068F5F8093DB0680E090E0C8
:1012F00061E070E0282F26952695269530E0F901CB
:10130000E450F94F4081A82FA77050E00A2E02C088
:10131000559547950A94E2F740FD14C0FC01EA5444
:10132000F74F40814150408341110CC0F901E45016
:10133000F94F40819B0102C0220F331FAA95E2F7AB
:10134000242B2083019688309105A1F68091C00658
:101350009091C106A091C206B091C3060196A11D4D
:10136000B11D8093C0069093C106A093C206B093AE
:10137000C306FF91EF91BF91AF919F918F917F91A4
:101380006F915F914F913F912F910F900BBE0F90F6
:101390000FBE0F901F901895FF920F931F93CF933E
:1013A000DF93F894F090DB061092DB067894FF2030
:1013B00009F4D2C010E040E050E021E030E080913C
:1013C0006B0B90916C0BA0916D0BB0916E0B019615
:1013D000A11DB11D80936B0B90936C0BA0936D0BB3
:1013E000B0936E0BCA01F894682F66956695669562
:1013F00070E0FB01E051F94FE081A82FA770F0E009
:101400000A2E02C0F595E7950A94E2F7E0FD14C0B4
:10141000FC01E25AF74FB081B150B083B1110CC05A
:10142000FB01E051F94FB081B90102C0660F771F8F
:10143000AA95E2F76B2B6083789401968835910525
:1014400091F6CA01F894682F66956695669570E0E6
:10145000FB01ED51F94FE081C82FC770F0E00C2E71
:1014600002C0F595E7950A94E2F7E0FD1AC0DC01A9
:10147000AA0FBB1FA256B84FED91FC91119731975F
:101480001196FC93EE93EF2B61F4FB01ED51F94FB4
:10149000A081B90102C0660F771FCA95E2F76A2BD7
:1014A0006083789401968036910561F6BA01F894CC
:1014B000E62FE695E695E695F0E0DF01A352B94FF9
:1014C0008C91062F077090E0002E02C095958795AD
:1014D0000A94E2F780FD21C0EB01CC0FDD1FCC0F99
:1014E000DD1FC250D94F88819981AA81BB810197A4
:1014F000A109B10988839983AA83BB83892B8A2B8D
:101500008B2B59F4E352F94FA081C90102C0880F17
:10151000991F0A95E2F78A2B808378946F5F7F4F3B
:101520006832710521F68091BC068F5F843619F010
:101530008093BC060EC01092BC0680915E0B909109
:101540005F0B9093710B8093700B50935F0B4093E4
:101550005E0B1F5F1F1133CFDF91CF911F910F9152
:10156000FF900895A89580915E0B90915F0B019676
:1015700090935F0B80935E0B8091DC06E82FF0E088
:10158000E25AF74F908190959093340A2091EA099E
:10159000291710F49093EA096FEF23CC08954F9226
:1015A0005F926F927F92AF92BF92CF92DF92EF9253
:1015B000FF920F931F93CF93DF93EC015B012901FF
:1015C0003A012115310541055105F1F0C12CD12C0D
:1015D0007601C5018C0D9D1DFE0119958027282FD0
:1015E00030E0F901E45DFD4F04910127F901E45D6C
:1015F000FE4F1491FFEFCF1ADF0AEF0AFF0AC4145F
:10160000D504E604F70429F7802F90E0912BDF91B1
:10161000CF911F910F91FF90EF90DF90CF90BF90EF
:10162000AF907F906F905F904F9008950F931F93AE
:101630000FEF1FEFB4DF1F910F9108950F931F93CA
:101640002CE030E040E050E060E070E087E292E0C3
:10165000EDDF2BEF3FE02C50304040E050E08C01BC
:1016600061E170E087E292E09ADF1F910F910895A7
:101670008091460E81FD06C0E1DFBC018EE090E066
:101680000C94D33B08950E94C53BF2CF08950A9A6B
:10169000129808951F920F920FB60F9211240BB655
:1016A0000F922F933F934F935F936F937F938F93FB
:1016B0009F93AF93BF93EF93FF9385B5887F85BDCD
:1016C000EEE6F0E080818D7F808386E490E00E94EA
:1016D000C402FF91EF91BF91AF919F918F917F9144
:1016E0006F915F914F913F912F910F900BBE0F9093
:1016F0000FBE0F901F9018951F920F920FB60F926A
:1017000011240BB60F922F933F934F935F936F93D8
:101710007F938F939F93AF93BF93EF93FF93E1EBEF
:10172000F0E08081887F8083E0E7F0E080818D7F3A
:10173000808382EB90E00E94C402FF91EF91BF9101
:10174000AF919F918F917F916F915F914F913F9159
:101750002F910F900BBE0F900FBE0F901F901895FA
:101760001F920F920FB60F9211240BB60F922F9368
:101770003F934F935F936F937F938F939F93AF9319
:10178000BF93EF93FF93E1EAF0E08081887F80834D
:10179000E2E7F0E080818D7F808384EA90E00E9420
:1017A000C402FF91EF91BF91AF919F918F917F9173
:1017B0006F915F914F913F912F910F900BBE0F90C2
:1017C0000FBE0F901F901895FF920F931F93CF930A
:1017D000DF93C82FD0E08E01000F111F0C0F1D1FCB
:1017E000C8018B5F9F4F0E94B83BF82E0A5F1F4FC6
:1017F000C8010E94B83BF11004C0813039F09EE866
:1018000008C091E0F91621F096EB03C096E801C0FC
:1018100096EA24E12C9FF0012D9FF00D1124E5594B
:10182000FC4FA591B4919F779C93FF2029F08130C4
:1018300019F061E0C80127DFDF91CF911F910F916F
:10184000FF900895CF93DF93C82FD0E0CE01880F8B
:10185000991F8C0F9D1F895F9F4F0E94B83BFE010F
:10186000E159F44F808390E09C01220F331F820FD7
:10187000931F87589C4F24E12C9FF0012D9FF00D62
:101880001124E159FC4FA591B491FC0124912C93B2
:1018900024E12C9FF0012D9FF00D1124E359FC4F02
:1018A000A591B491FC013196E491EC93FE01EE0F09
:1018B000FF1FCE0FDF1FFE01EE0FFF1FEB5AFC4F85
:1018C000A591B491FC01329684918C93DF91CF91D4
:1018D0000895CF93DF93C82FD0E0FE01EF53F74F69
:1018E00083E0808384E18C9FF0018D9FF00D1124B3
:1018F000EF58FC4F85919491FC01199584E18C9FE0
:10190000F0018D9FF00D1124EB59FC4FA591B4917E
:10191000FC2FEE27EB5FFC4E80818C9384E18C9F43
:10192000F0018D9FF00D1124E959FC4FA591B49160
:101930008C9180648C9384E18C9FF0018D9FF00DDD
:101940001124E759FC4FA591B4918C9180628C933E
:10195000DF91CF910895CF93DF93E5E6F3E02591F2
:1019600034918217930791F040E054E14F5FC42F08
:10197000D0E05C9FF0015D9FF00D1124EB59FC4F0E
:10198000259134918217930789F703C0C0E0D0E016
:1019900040E0FE01EF53F74F2081223009F449C0A7
:1019A00028F4222339F02130D1F056C0263008F433
:1019B00051C052C0FC018081FC2FEE27EB5FFC4E32
:1019C0008083FE01EE0FFF1FCE0FDF1FFE01EE0F23
:1019D000FF1FED5AFC4FA591B4911C923DC0FE0132
:1019E000EF53F74F82E0808321E030E00C2E02C0FD
:1019F000220F331F0A94E2F720958091DA062823FC
:101A00002093DA06FE01ED5CF54F1082842F0E94D0
:101A10004202CE01880F991FC80FD91FCE01880F2F
:101A2000991F895A9C4FFC0125913491F901199510
:101A300013C0842F0E944202FE01EE0FFF1FCE0F43
:101A4000DF1FFE01EE0FFF1FED5AFC4FA591B49171
:101A50001C9202C0FC018081DF91CF910895EF922A
:101A6000FF921F93CF93DF93C82FD0E0FE01ED5C70
:101A7000F54F20814091DA0650E0BA0102C0759519
:101A800067958A95E2F760FD1AC02330D0F02250A6
:101A90007C2F66276B5F7C4EFB01E20FF11DE0801F
:101AA000F18030E040E050E08BEF91E0BFDD11E0ED
:101AB000E816F90609F410E01123F9F003C011E06B
:101AC00001C011E0FE01E295F295F07FFE27E07F74
:101AD000FE27EA59FD4E828193810196938382838A
:101AE00084E18C9FF0018D9FF00D1124EB58FC4F89
:101AF00085919491FC0119951BC0FE01E295F29528
:101B0000F07FFE27E07FFE27EA59FD4E20813181DC
:101B10002F5F3F4F3183208384E18C9FF0018D9FA5
:101B2000F00D1124E958FC4F25913491F9011995D4
:101B3000812FDF91CF911F91FF90EF900895CF9368
:101B4000DF93682F70E0FB01ED5CF54F20812250A0
:101B5000762F66276B5F7C4EEB01C20FD11D30E004
:101B600040E050E08BEF91E061DD99838883DF9165
:101B7000CF910895282F30E070E0322F2227F9010D
:101B8000EB5FFC4EE60FF71F8181620F731FFB01B5
:101B9000EB5FFC4E208190E0922B0895CF92DF9274
:101BA000EF92FF920F931F93CF93DF93F82EC82FDE
:101BB000D0E0FC2FEE27EB5FFC4E8181863081F078
:101BC00020F48150843038F0E7C08F30D9F0803174
:101BD00009F4B3C0E1C0CD5CD54F88E08883DCC098
:101BE000FE01ED5CF54F88E080838F2D0E94880216
:101BF000DC2FCC27CB5FDC4EFC0121812C83808144
:101C00008D83CAC064E08F2DB5DF8C0196958795D2
:101C1000969587959695879598012770332741E08B
:101C2000232B09F440E0242F280FFC2FEE27EB5F35
:101C3000FC4E2683DE01AD5CB54F275F2C93E80F89
:101C4000F91F1782FE01E851F64F8081823009F1B9
:101C5000FE01E295F295F07FFE27E07FFE27EC562D
:101C6000FC4FC590D4908F2D0E942A020196FC0152
:101C700085919491FE01E552F64F2081FC0137E0F9
:101C8000239FE00DF11D1124359685919491B82F75
:101C90000CC0FE01EE0FFF1FEE0FFF1FEE0FFF1F28
:101CA000EE52F94FC680D780B0E00115110509F456
:101CB00073C0A0E061E070E0DC2FCC278A2F8B0F8F
:101CC0009A2F9695969596950F2EF7E0EF2EF02D7C
:101CD000E90E2A2F2770AB0102C0440F551F2A9529
:101CE000E2F79A01982F969596959695F601E90F49
:101CF000F11D408150E08770FA0102C0F595E7952B
:101D00008A95E2F7E0FF09C0FE01EE0DF11DEB5FE1
:101D1000FC4E8081282B208309C0FE01EE0DF11DB1
:101D2000EB5FFC4E2095808128232083AF5F2A2F14
:101D300030E02017310710F22FC01C2F00270B5F57
:101D40001C4EF8018581880F8683FE01ED5CF54FFE
:101D5000875F80838F2D0E948802F80125812223CE
:101D6000D9F040E0E80198012B5F3F4F542F550F09
:101D7000A42FB0E0AA0FBB1FA80FB91FFE01E50FEB
:101D8000F11D11965C91119757835C9150874F5FBD
:101D9000F9015081451750F38F2DD1DEDF91CF919E
:101DA0001F910F91FF90EF90DF90CF900895CF9308
:101DB000C82F0E942A02BC01FC0131964591549122
:101DC0002C2F30E0F901E552F64F808197E0899F92
:101DD000400D511D1124FB016491F22FEE27EB5FA2
:101DE000FC4E6083FA018491F22FEE27EB5FFC4EEC
:101DF0008183FA013296E491B22FAA27AB5FBC4EE1
:101E00001296EC93FA013196E491B22FAA27AB5FB8
:101E1000BC4E1396EC93FA013496E491B22FAA27A4
:101E2000AB5FBC4E1496EC93FA0133964491B22FFB
:101E3000AA27AB5FBC4E15964C938C2FAFDECF918B
:101E40000895282F30E0F22FEE27EB5FFC4ED901EA
:101E5000AA0FBB1FAA0FBB1FAA0FBB1FAE52B94FC1
:101E60009C91908311969C911197918312969C91CD
:101E7000129713964C9113974283938314969C91D7
:101E8000149715964C9144839583F901E851F64FC8
:101E900092E0908383CE08956F927F928F929F926B
:101EA000AF92BF92CF92DF92EF92FF920F931F9368
:101EB000CF93DF93D82EC82FD0E0FE01EF53F74F1A
:101EC0008081882319F0823031F06FC3CF53D74F10
:101ED00081E088836AC384E0FE01EF53F74F80837B
:101EE0008D2DBDDD882329F0CF53D74F81E0888326
:101EF0005CC3FC2FEE27EB5FFC4E8081882359F0FA
:101F0000FE01ED53F64F9081891729F0CF53D74F3B
:101F100081E088834AC384E18C9F80018D9F100DEE
:101F200011240D581C4FF80125913491F901199590
:101F3000FE01E295F295F07FFE27E07FFE27EA5949
:101F4000FD4E8681978101969783868362E08D2D71
:101F500011DE7C01FC2FEE27EB5FFC4EC1808C2D47
:101F600090E0FC013197E031F10508F0C9C2EA596F
:101F7000FF4F0C949D37FC2FEE27EB5FFC4E8081CA
:101F8000882309F4C1C0FE01ED5CF54F80818830E3
:101F900059F0FC2FEE27EB5FFC4E83E082830F2E7F
:101FA000F3E0FF2EF02DB6C264E08D2DE3DDAC0131
:101FB0008E0D9F1DF1E0CF120FC0FE01E295F2954C
:101FC000F07FFE27E07FFE27EA56FC4F25913491F3
:101FD0002817390778F018C0FE01E295F295F07FD6
:101FE000FE27E07FFE27E656FC4F25913491281707
:101FF0003907B0F4FC2FEE27EB5FFC4E82E08283C2
:102000006894FF24F1F886C2FE01E295F295F07F14
:10201000FE27E07FFE27EC56FC4FA591B4910BC044
:10202000FE01E295F295F07FFE27E07FFE27E8565D
:10203000FC4FA591B49121E0CA0187709927892BA3
:1020400009F420E0CA01969587959695879596950F
:102050008795820FFC2FEE27EB5FFC4E8283FE01FB
:10206000ED5CF54F8B5F80834115510509F44FC03E
:10207000C12C20E030E081E090E0BC2EAA242E0D9F
:102080003F1D6C2D6695669566950F2EF3E09F2E8D
:10209000F02D960EEC2DE7703C0102C0660C771C0B
:1020A000EA95E2F7B9017695679576956795769505
:1020B00067956A0F7B1FFB01608170E027703327F3
:1020C000FB0102C0F595E7952A95E2F7E0FF0AC00B
:1020D0009501290D311D2B5F3C4EF9016081662968
:1020E00060830AC09501290D311D2B5F3C4E609421
:1020F000F901608166216083C3942C2D30E02417A0
:10210000350708F4BCCF05C0FF24FA9403C2F12CB4
:1021100001C2F12CFFC1FC2FEE27EB5FFC4E80814A
:10212000882309F485C0FE01ED5CF54F808188307D
:1021300059F0FC2FEE27EB5FFC4E83E082830F2EDD
:10214000F3E0FF2EF02DE6C1FC2FEE27EB5FFC4EF7
:102150004581C701840F911DF3E0CF120FC0FE012E
:10216000E295F295F07FFE27E07FFE27E256FC4FD6
:10217000259134912817390778F018C0FE01E295AF
:10218000F295F07FFE27E07FFE27EE55FC4F25916C
:10219000349128173907B0F4FC2FEE27EB5FFC4E83
:1021A00082E082836894FF24F1F8B4C1FE01E295D5
:1021B000F295F07FFE27E07FFE27E456FC4F8591E5
:1021C00094910BC0FE01E295F295F07FFE27E07F2F
:1021D000FE27E056FC4F85919491EE0CFF1C8E0D6E
:1021E0009F1D440FBC2FAA27AB5FBC4E12964C9389
:1021F0001297FE01ED5CF54F4B5F408315966C9195
:1022000015976623C1F0FC0140E09D01542F550F46
:102210007901E50EF11C5181D70113965C93808101
:102220003296D70114968C934F5F4613EFCF05C0BB
:10223000FF24FA946FC1F12C6DC1F12C6BC1FE012A
:10224000ED5CF54F8081883059F0FC2FEE27EB5F75
:10225000FC4E83E082830F2EF3E0FF2EF02D5AC157
:10226000FE01E295F295F07FFE27E07FFE27E25621
:10227000FC4F8591949197012F5F3F4F82179307F1
:1022800050F4FC2FEE27EB5FFC4E82E082836894D3
:10229000FF24F1F83FC188E0FE01ED5CF54F80833B
:1022A000FE01E295F295F07FFE27E07FFE27E456DF
:1022B000FC4F85919491EE0CFF1CE80EF91E64E032
:1022C0008D2D58DCF70191838083F12C23C164E0CC
:1022D0008D2D50DCFC2FEE27EB5FFC4EA681FE011E
:1022E000ED5CF54F408150E02A2F30E0275F3F4FF3
:1022F00042175307B9F421E030E0BC01677077273B
:10230000672B11F420E030E0BC0176956795769557
:10231000679576956795260F371F4A2F50E024174B
:10232000350759F0FC2FEE27EB5FFC4E83E08283EC
:102330000F2EF3E0FF2EF02DEDC0FE01E295F29599
:10234000F07FFE27E07FFE27EA56FC4F259134916F
:10235000AC014E0D5F1D2417350750F4FC2FEE27FE
:10236000EB5FFC4E82E082836894FF24F1F8D2C0D8
:10237000FE01E295F295F07FFE27E07FFE27EC5606
:10238000FC4F2591349148E0FE01ED5CF54F408310
:10239000C12CE1E0F0E07C2F6627AB014B5F5C4E87
:1023A0003A0136C0DA01AE0DBF1DAD015695479515
:1023B0005695479556954795A770BB275F0102C074
:1023C000AA0CBB1CAA95E2F7AC2DA695A695A695DE
:1023D000B3016A0F711DDB011796AC91B0E07C2D43
:1023E0007770072E02C0B595A7950A94E2F7A0FF73
:1023F00007C0D901A40FB51F4C91A42AAC9207C005
:10240000D901A40FB51FA0944C914A214C93C394B9
:102410004C2D50E04817590728F2F12C7BC0FC2FB7
:10242000EE27EB5FFC4E868190E0FE01ED5CF54F00
:10243000408150E09C01275F3F4F4217530761F4F2
:10244000FC2FEE27EB5FFC4E4581242F30E0220F5E
:10245000331F8217930759F0FC2FEE27EB5FFC4EDA
:1024600083E082830F2EF3E0FF2EF02D53C0FE0198
:10247000E295F295F07FFE27E07FFE27E256FC4FC3
:10248000859194919701240F311D8217930750F481
:10249000FC2FEE27EB5FFC4E82E082836894FF24E2
:1024A000F1F838C088E0FE01ED5CF54F8083FE0155
:1024B000E295F295F07FFE27E07FFE27E456FC4F81
:1024C00085909490C12C9C2F8827DC01A65FBC4E80
:1024D0003D0110C05701AC0CB11CAA0CBB1CA80CD0
:1024E000B91C6C2D660F695F8D2D44DBF50191835E
:1024F0008083C394D3018C91C81660F3F12C0AC079
:10250000FC2FEE27EB5FFC4E81E0828380818111FE
:102510000BC01CC0FC2FEE27EB5FFC4E8081882394
:1025200099F0FF2079F002C0FF24F394FC2FEE27EE
:10253000EB5FFC4E81818068818385E0FE01ED5C6C
:10254000F54F80838D2DFBDAFF2071F0FE01E295BF
:10255000F295F07FFE27E07FFE27EA59FD4E848149
:102560009581019695838483FC2FEE27EB5FFC4ECB
:102570008081882319F08D2DACD917C0FE01E2951A
:10258000F295F07FFE27E07FFE27EA59FD4E808519
:102590009185019691878087CF53D74F81E08883BB
:1025A000F80185919491FC011995DF91CF911F91CC
:1025B0000F91FF90EF90DF90CF90BF90AF909F90E2
:1025C0008F907F906F90089524E1829FC001112425
:1025D000FC01ED58FC4F85919491FC0119950895EB
:1025E000CF93DF93C82FD0E0CE01885F9F4F0E942A
:1025F000B83BCD53D64F8883DF91CF9108950F9389
:102600001F93CF93DF93C82FD0E08E01000F111FCF
:10261000000F111F0C0F1D1FC801805090400E9419
:10262000C03BFE01EE0FFF1FEA51F64F91838083FE
:10263000C8018E5F9F4F0E94B83BFE01EC5AFD4ED1
:102640008083C8018D5F9F4F0E94B83BFE01E25D11
:10265000F54F8083C8018C5F9F4F0E94B83BCD54DB
:10266000D64F88838091690393E0980F9093690314
:102670008093CB06DF91CF911F910F91089507D8DA
:102680001092C108E7E6F3E0A591B4918CEF8C932A
:10269000E9E6F3E0A591B49188E98C9380E094D8C1
:1026A00080E0D0D8E4EAF3E0E491EE2319F0E130E1
:1026B00021F005C080E094DF02C080E0A0DFE7E504
:1026C000F3E025913491F901199508956F927F9265
:1026D0009F92AF92BF92CF92DF92EF92FF920F93B1
:1026E0001F93CF93DF93D82EC82FD0E0FE01EF5376
:1026F000F74F8081882319F0823071F097C2809162
:10270000CB068E5F6FEF7FEF8D0D0E9429078D2D19
:102710004EDB8D2DDED88AC284E0FE01EF53F74FE9
:102720008083FE01E851F64F908181E0923009F0FC
:1027300080E08093D1068D2D92D9882321F08D2DB4
:102740000E94200863C284E18C9FF0018D9FF00DF0
:102750001124ED58FC4F85919491FC0119958091BD
:10276000D106882381F0FE01EE0FFF1FEE0FFF1F41
:10277000EE0FFF1FEE52F94F8081418120E030E0E3
:1027800000E010E015C08D2D0E942A028C01FC0192
:10279000319625913491FE01E552F64F8081F7E0A4
:1027A0008F9F200D311D1124F8018491F90144916E
:1027B000BC2FAA27AB5FBC4E9C91981304C0FD01AF
:1027C0006181641721F08D2D0E9420081FC2862F81
:1027D00090E0FC013197E031F10508F0BBC1EA5807
:1027E000FF4F0C949D378091D106882359F0FE014C
:1027F000EE0FFF1FEE0FFF1FEE0FFF1FEE52F94F00
:10280000748103C0F90133967491FC2FEE27EB5FBE
:10281000FC4E828190E0FE01ED5CF54FE081F0E03E
:10282000AC014B5F5F4FE417F50709F08AC0E72F53
:10283000E695E695E695F0E041E050E0A72FA77019
:1028400011F440E050E04E0F5F1F8417950709F028
:102850007AC08091D106882369F0FE01EE0FFF1F38
:10286000EE0FFF1FEE0FFF1FEE52F94FA681B7814B
:10287000C12C1FC0613061F4FE01E295F295F07F3A
:10288000FE27E07FFE27EC56FC4FA591B4910BC0CC
:10289000FE01E295F295F07FFE27E07FFE27E856E5
:1028A000FC4FA591B4912B5F3F4FF9018591949115
:1028B000C82EA72EB12CA114B10409F446C020E003
:1028C00030E081E090E05C2F4427BA016B5F7C4EE2
:1028D0007B014C2D420F942E9694969496944770BB
:1028E000FC0102C0EE0FFF1F4A95E2F7AF01F901AC
:1028F000F695E795F695E795F695E795EE0DFF1DAC
:10290000E381F0E0B901677077273F0102C0759459
:1029100067946A95E2F760FE07C0FD01E90DF11DBD
:102920005081452B408307C0FD01E90DF11D409505
:102930005081452340832F5F3F4F2A153B0548F2C6
:1029400006C081E008C181E006C180E004C180E0EA
:1029500002C1FC2FEE27EB5FFC4E7281FE01ED5CA5
:10296000F54F408150E0872F90E0059648175907B2
:1029700009F06BC08091D106882371F0FE01EE0F43
:10298000FF1FEE0FFF1FEE0FFF1FEE52F94F848166
:102990009581880F991F06C0F9013396859194910E
:1029A000880F991F472F50E04817590709F04FC06B
:1029B0008091D106882361F0FE01EE0FFF1FEE0F1C
:1029C000FF1FEE0FFF1FEE52F94FA680B78023C006
:1029D000633061F4FE01E295F295F07FFE27E07F1F
:1029E000FE27E456FC4F859194910BC0FE01E295C1
:1029F000F295F07FFE27E07FFE27E056FC4F8591A1
:102A000094912B5F3F4FF90125913491220F331F91
:102A10005C01A20EB31E7695CC24CA94C70ECAF0F0
:102A2000770F99249394970EEC2CEE0CFF08EA0C88
:102A3000FB1C692D8D2D9ED8F70191838083CA944C
:102A40009A949A94CC2084F706C081E084C081E0F7
:102A500082C080E080C080E07EC08091D106882363
:102A600071F0FE01EE0FFF1FEE0FFF1FEE0FFF1FB5
:102A7000EE52F94FE280F380A680B78019C0F901C9
:102A80003196E590F490FE01E295F295F07FFE27F5
:102A9000E07FFE27E456FC4F859194912B5F3F4FDA
:102AA000F90125913491220F331F5C01A20EB31E50
:102AB000FE01ED5CF54F8081883099F462E08D2D48
:102AC00059D88E159F0579F464E08D2D53D841E0D7
:102AD000F501208131818217930709F440E0842FAA
:102AE0003AC081E038C081E036C08091D1068823A9
:102AF00071F0FE01EE0FFF1FEE0FFF1FEE0FFF1F25
:102B0000EE52F94FE280F380A480B58009C0F9014C
:102B10003196E590F4902D5F3F4FF901A590B49068
:102B2000FE01ED5CF54F8081883081F462E08D2DEF
:102B300021D88E159F0561F464E08D2D1BD821E00E
:102B40008A159B0509F420E0822F05C081E003C0AF
:102B500081E001C080E0882391F0FE01E295F295CA
:102B6000F07FFE27E07FFE27EA59FD4E84819581A4
:102B70000196958384838D2D0E94200847C0809103
:102B8000D106882331F0C851D64F188265E070E035
:102B900048C0FE01EE0FFF1FEE0FFF1FBF016A5A74
:102BA0007D4E81E090E0A0E0B0E09E012A52364FD9
:102BB000F901008004C0880F991FAA1FBB1F0A9447
:102BC000D2F780959095A095B095FB0140815181F9
:102BD0006281738184239523A623B7238083918305
:102BE000A283B383FE01E552F64F80818F5F80831D
:102BF000F8013396E4918E1304C08D2D0E94810755
:102C000001C080E0FE01E053F94F1082882339F0C3
:102C1000CC0FDD1FCA51D64F6881798102C065E0B3
:102C200070E08091CB068D0D0E942907DF91CF9136
:102C30001F910F91FF90EF90DF90CF90BF90AF90DA
:102C40009F907F906F900895E82FF0E0EC5AFD4E32
:102C5000608170E09091CB06890F0C94290708954C
:102C60001F93CF93DF93E5E6F3E02591349182172C
:102C7000930791F010E044E11F5FC12FD0E04C9F1B
:102C8000F0014D9FF00D1124EB59FC4F259134912B
:102C90008217930789F703C0C0E0D0E010E0FE017F
:102CA000E554F94F6081462F50E0FE01ED5CF54F91
:102CB000208130E0225031094217530709F544E1E1
:102CC0004C9F90014D9F300D112427593C4FF90125
:102CD000A591B4914C914F7D4C93F901A591B4917C
:102CE0002C9120642C9324E12C9FF0012D9FF00D5A
:102CF0001124E959FC4FA591B4912C9120642C9397
:102D00006F5FFE01E554F94F6083FE01ED5CF54F06
:102D10002081621750F4DC2FCC27C60FD11DCB5F6A
:102D2000DC4E2881FC01208330C084E18C9FF001BF
:102D30008D9FF00D1124E759FC4FA591B4918C9112
:102D40008F798C9384E18C9FF0018D9FF00D11247D
:102D5000EF58FC4F85919491FC011995FE01E554C3
:102D6000F94F1082CF53D74F81E08883E12FF0E0F5
:102D7000EC55FC4FE491EE2319F0E13021F005C051
:102D8000812F22DC02C0812F5FDFDF91CF911F9165
:102D900008951F93CF93DF93182FC091CB06C80FD0
:102DA00081E08C0F0E94D508882319F0812F0E94A2
:102DB00066078C2F0E94D508882309F46DC0F8940B
:102DC000C12FD0E0FE01EF53F74F8081813029F40D
:102DD00085E0FE01EF53F74F80837894FE01EF53B7
:102DE000F74F8081843039F1853009F055C0812F4B
:102DF0000E942008FE01E851F64F8081882319F0D7
:102E0000813029F00BC0812F0E94D70E07C0C0531C
:102E1000D94F8881811102C0812F13D88091CB06B0
:102E20006FEF7FEF810F0E942907F894812F0E9496
:102E3000690C789431C0F89484E18C9FF0018D9FE7
:102E4000F00D1124ED58FC4F25913491F90119959D
:102E50007894C851D64F8881882319F0813029F0A1
:102E60000FC0812F0E94D70E0BC08091D1068823FE
:102E700021F0812F0E94D70E03C0812F0E94210FC5
:102E80008091CB066FEF7FEF810F0E942907F894A6
:102E9000812F0E94690C7894DF91CF911F91089542
:102EA0008091551280FF15C0F894809155128E7F45
:102EB000809355127894E4EAF3E0E491EE2319F05C
:102EC000E13029F006C080E00E944C0F02C080E093
:102ED000FDDBE4EAF3E0E491E13011F480E059CF66
:102EE00008956091650BE0E0F9E080E090E041E05A
:102EF00050E021913191232B49F09A01082E02C014
:102F0000220F331F0A94E2F7622B09C09A01082EA0
:102F100002C0220F331F0A94E2F720956223019624
:102F20008830910531F76093650B0895CF93DF9357
:102F3000A0917A12B0E0EEE1FAE080E090E041E0AA
:102F400050E0D0E0C0E0BA01082E02C0660F771F43
:102F50000A94E2F76A237B239A011616170614F0E7
:102F60002D2F3C2F2193319301968830910559F7ED
:102F7000DF91CF910895B5DF93DFD8CF08951F92E9
:102F80000F920FB60F9211240BB60F922F933F930F
:102F90004F935F936F937F938F939F93AF93BF9361
:102FA000EF93FF9386EC90E00E94AB0CFF91EF91C2
:102FB000BF91AF919F918F917F916F915F914F9151
:102FC0003F912F910F900BBE0F900FBE0F901F904F
:102FD00018951F920F920FB60F9211240BB60F92F5
:102FE0002F933F934F935F936F937F938F939F9311
:102FF000AF93BF93EF93FF9386EC90E031DEFF91A8
:10300000EF91BF91AF919F918F917F916F915F9160
:103010004F913F912F910F900BBE0F900FBE0F90CD
:103020001F9018951F920F920FB60F9211240BB696
:103030000F922F933F934F935F936F937F938F9351
:103040009F93AF93BF93EF93FF9386EC90E008DEDE
:10305000FF91EF91BF91AF919F918F917F916F9170
:103060005F914F913F912F910F900BBE0F900FBE2C
:103070000F901F9018951F920F920FB60F92112468
:103080000BB60F922F933F934F935F936F937F9362
:103090008F939F93AF93BF93EF93FF938EEC90E04A
:1030A0000E94AB0CFF91EF91BF91AF919F918F91D7
:1030B0007F916F915F914F913F912F910F900BBE38
:1030C0000F900FBE0F901F9018951F920F920FB682
:1030D0000F9211240BB60F922F933F934F935F9350
:1030E0006F937F938F939F93AF93BF93EF93FF93D0
:1030F0008EEC90E0B5DDFF91EF91BF91AF919F9184
:103100008F917F916F915F914F913F912F910F9090
:103110000BBE0F900FBE0F901F9018951F920F922D
:103120000FB60F9211240BB60F922F933F934F932C
:103130005F936F937F938F939F93AF93BF93EF931F
:10314000FF938EEC90E08CDDFF91EF91BF91AF91FA
:103150009F918F917F916F915F914F913F912F91AF
:103160000F900BBE0F900FBE0F901F9018951F93DE
:10317000CF93DF93D62F172FC091BA06882331F053
:10318000C13051F018F0C23029F12DC081E0809398
:10319000BA06C13089F539C060E181E00E941005AE
:1031A0008F3F09F56FEF82E094E00E94290462E00E
:1031B00080E094E00E942904612F84E094E00E9462
:1031C00029046D2F85E094E00E94290482E0809319
:1031D000BA0617C061E081E00E9410058F3F19F424
:1031E0008093BA0612C08091BA068C1771F08130B4
:1031F00019F0823031F009C060E080E00E941005D3
:1032000004C060E080E00E9410058091BA06DF9162
:10321000CF911F9108951F93CF93DF93D62F172F30
:10322000C091B906882331F0C13051F018F0C23096
:1032300029F12DC081E08093B906C13089F539C0EC
:1032400060E181E00E9441058F3F09F56FEF82E068
:1032500095E00E94290462E080E095E00E94290444
:10326000612F84E095E00E9429046D2F85E095E0B0
:103270000E94290482E08093B90617C061E081E0D2
:103280000E9441058F3F19F48093B90612C08091C6
:10329000B9068C1771F0813019F0823031F009C015
:1032A00060E080E00E94410504C060E080E00E9490
:1032B00041058091B906DF91CF911F910895CF9379
:1032C000DF93EA01FB019081911109C09181911175
:1032D00006C09281911103C09381992319F120971F
:1032E00021F1811109C0CB010E94AF05CE010E94DE
:1032F000A30581E090E01EC0813049F4CB010E941B
:10330000D105CE010E94C50581E090E013C0823056
:1033100079F4CB010E94F305CE010E94E70581E01C
:1033200090E008C080E090E005C080E090E002C03E
:1033300081E090E0DF91CF910895AB0110928D1262
:1033400010928C12BC0180E0BACF0895AB011092AC
:10335000BD091092BC09BC0181E0B1CF08959B0169
:1033600060918C1270918D12AC0180E00E949006E9
:1033700020918C1230918D12280F391F30938D12AD
:1033800020938C1208959B016091BC097091BD0936
:10339000AC0181E00E9490062091BC093091BD09EA
:1033A000280F391F3093BD092093BC090895CF938E
:1033B000C091B806882331F0C13051F018F0C23006
:1033C00089F02EC081E08093B806C13079F532C013
:1033D00060E281E00E9441058F3F11F582E0809319
:1033E000B80628C062E070E081E00E94D20484FD4B
:1033F0000DC062E070E081E00E94D20483FF10C043
:1034000048E162E070E081E00E94060540E162E090
:1034100070E081E00E9406058FEF8093B8060AC035
:103420008091B8068C1731F0813021F460E280E0A1
:103430000E9441058091B806CF910895CF93C09125
:10344000B706882331F0C13051F018F0C23089F04E
:103450002EC081E08093B706C13079F532C060E2BA
:1034600081E00E9410058F3F11F582E08093B7063E
:1034700028C062E070E080E00E94D20484FD0DC0AC
:1034800062E070E080E00E94D20483FF10C048E157
:1034900062E070E080E00E94060540E162E070E0DA
:1034A00080E00E9406058FEF8093B7060AC08091E6
:1034B000B7068C1731F0813021F460E280E00E9481
:1034C00010058091B706CF9108951F93CF93DF9396
:1034D000D62F172FC091B606882331F0C13051F096
:1034E00018F0C23029F12DC081E08093B606C130BA
:1034F00089F539C060E181E00E9472058F3F09F5CE
:103500006FEF82E096E00E94290462E080E096E09E
:103510000E942904612F84E096E00E9429046D2F07
:1035200085E096E00E94290482E08093B60617C0E9
:1035300061E081E00E9472058F3F19F48093B60626
:1035400012C08091B6068C1771F0813019F082306C
:1035500031F009C060E180E00E94720504C061E0C2
:1035600080E00E9472058091B606DF91CF911F9195
:103570000895AB011092610B1092600BBC0182E0C8
:103580009ECE08959B016091600B7091610BAC0120
:1035900082E00E9490062091600B3091610B280F11
:1035A000391F3093610B2093600B0895AF92BF9247
:1035B000CF92DF92EF92FF920F931F93CF93DF93FF
:1035C0001F921F92CDB7DEB77A8369837A01890192
:1035D000E981FA81F770C82ED12CD601AA0FBB1F42
:1035E000AC54B64F8D919C918E0F9F1F2E0F3F1F95
:1035F00021303840C8F020E038E05901AE1ABF0A47
:10360000A501B7010E944003A8014A195B09B7014F
:103610006A0D7B1DF601EE0FFF1FEC54F64F808103
:1036200091810E94400304C0A801B7010E94400399
:103630000F900F90DF91CF911F910F91FF90EF901E
:10364000DF90CF90BF90AF900895DF92EF92FF92FE
:103650000F931F93CF93DF93D82E7B018A0168E2EB
:1036600070E00E94D204C82FD0E069E270E08D2D96
:103670000E94D204DC2FCC27C82B9801A701BE01E1
:103680008D2D94DFC00FD11F4D2F68E270E08D2D7E
:103690000E9406054C2F69E270E08D2D0E94060500
:1036A000DF91CF911F910F91FF90EF90DF900895E0
:1036B000DF92EF92FF920F931F93CF93DF93D82E59
:1036C0000FEF1FEFE12CF12C8D2D0E94F004EC0187
:1036D000009721F08D2D0E94F0047C01EC16FD0670
:1036E00029F0015011090115110571F7C701DF918A
:1036F000CF911F910F91FF90EF90DF900895DF928F
:10370000EF92FF920F931F93CF93DF93D82E7B01FD
:103710008A01CEDFEC01009799F463E070E08D2D13
:103720000E94D2048431D9F08823C9F0C1E0D0E0EE
:103730008C3111F4C0E0D0E0D195C195D10904C01D
:10374000081719070CF4E8011C161D0644F4AE0115
:10375000B7018D2D7ADF60E48D2D0E944204CE01E9
:10376000DF91CF911F910F91FF90EF90DF9008951F
:103770000F931F93CF93DF931F92CDB7DEB7082F20
:1037800010E0F801EE0FFF1FE250F64F208131816B
:10379000232BB1F041E050E0BE016F5F7F4FAFDF00
:1037A0001816190684F4F801EE0FFF1FE250F64FC9
:1037B00080819181019791838083898190E005C008
:1037C0008FEF9FEF02C08FEF9FEF0F90DF91CF91B0
:1037D0001F910F910895DF92EF92FF920F931F9325
:1037E000CF93DF93CDB7DEB728970FB6F894DEBF3F
:1037F0000FBECDBFD82EE82EF12CF701EE0FFF1F24
:10380000E250F64F20813181232B41F08F018D2D25
:10381000AFDFF80120813181232BC9F78D2D48DFDF
:1038200018161906ACF548E050E0BE016F5F7F4FF7
:103830008D2D65DF9C01181619063CF58981809352
:1038400062128A81809363128B81809364128C81CF
:1038500080936512C701880F991FFC01E65AFD4E3F
:103860002D8130E0322F22274E81240F311D3183EC
:1038700020832F8130E0322F22274885240F311DED
:10388000FC01E250F64F31832083822F932F02C038
:1038900080E090E028960FB6F894DEBF0FBECDBF53
:1038A000DF91CF911F910F91FF90EF90DF900895DE
:1038B00080E091CF089581E08ECF08954091FE0978
:1038C0005091FF0941155105D9F06417750728F08B
:1038D000BC0180E014DF9C0105C0AB01BC0180E0AD
:1038E0000EDF9C011216130674F4EEEFF9E08081EE
:1038F0009181821B930B91838083822F932F089554
:103900008FEF9FEF08958FEF9FEF08954091000A8A
:103910005091010A41155105D9F06417750728F037
:10392000BC0181E0ECDE9C0105C0AB01BC0181E083
:10393000E6DE9C011216130674F4E0E0FAE08081E2
:103940009181821B930B91838083822F932F089503
:103950008FEF9FEF08958FEF9FEF089580E008CFDE
:1039600008958091C7069091C806A091C906B091AC
:10397000CA060196A11DB11D8093C7069093C80683
:10398000A093C906B093CA0680E0A3C00895CF9360
:10399000C091B506811103C01092B50606C0C130B2
:1039A00099F018F0C23001F149C08091B40681113C
:1039B00004C00E94E3068093B40681E08093B506BC
:1039C000C13009F041C044C060E281E00E9472054C
:1039D0008F3FA1F568EE73E08091B4060E9429073D
:1039E00082E08093B50634C062E070E082E00E941D
:1039F000D20484FD19C062E070E082E00E94D2042B
:103A000083FF07C048E162E070E082E00E940605A3
:103A100015C08091B4060E94D508882379F0A1DFF3
:103A20008FEF8093B50614C040E162E070E082E061
:103A30000E9406058FEF8093B5060AC08091B506F7
:103A40008C1731F0813021F460E280E00E94720531
:103A50008091B506CF910895BF92CF92DF92EF92F9
:103A6000FF920F931F93CF93DF937B016A01E901CC
:103A7000B090B306882331F0BB2021F081E0B81666
:103A800039F00DC081E08093B306B8120EC015C0A6
:103A900081E07DDF8F3F19F48093B3060EC08091E3
:103AA000B3068B1551F0813041F4B601C70161DDD9
:103AB000B801CE0167DD80E06ADF8091B306DF9157
:103AC000CF911F910F91FF90EF90DF90CF90BF901B
:103AD00008950F931F93CF93C091B206811103C035
:103AE0001092B20608C0C130A9F028F0C23011F11E
:103AF000C43051F14BC08091B106811104C00E94C5
:103B0000E3068093B10681E08093B206C13009F0EC
:103B100047C0E9C069EE77E081E0D7DC8F3FB1F5BF
:103B200068EE73E08091B1060E94290782E08093DD
:103B3000B206D9C08091B1060E94D508882331F120
:103B400084E08093B20631C063E070E082E00E94BE
:103B5000D204823219F01092B206C5C040916203BD
:103B6000509163030EE310E022EC38E064E673E06A
:103B700081E072DF8F3F51F468EE73E08091B1060F
:103B80000E94290782E08093B206ADC08091B20600
:103B90008C1709F4A8C0813019F0843031F0A3C02B
:103BA00069EE77E080E091DC9EC0E2ECF8E085E031
:103BB000808381E08093C30890916003209161032A
:103BC0002093C4089093C5088093C60882E0809330
:103BD000C70883E18093C80886E38093C908809171
:103BE000BE098093CA088091BF098093CB08809159
:103BF000C0098093CC088091C1098093CD0887E5E6
:103C00008093CE0885E38093CF0881E38093D0082A
:103C100080E38093D1088093D20880E28093D30818
:103C200084E58093D40895E49093D50893E5909328
:103C3000D6088093D7088DED98E09093EC09809397
:103C4000EB0910A2178E12A211A214A213A216A29F
:103C500015A28BE790E090A787A388E097E092A752
:103C600081A788E998E094A783A78FEE98E09093C6
:103C7000C0088093BF088091C0069091C106A091B2
:103C8000C206B091C306880F991FAA1FBB1FAC01C3
:103C9000BD01440F551F661F771F440F551F661F38
:103CA000771F840F951FA61FB71F85A796A7A7A7E5
:103CB000B0AB8091D7099091D809A091D909B09162
:103CC000DA0981AF92AFA3AFB4AF8AE18093FF0866
:103CD00040916203509163030EE310E09F0164E69C
:103CE00073E080E0B9DE8091B206CF911F910F9111
:103CF00008958F929F92AF92BF92CF92DF92EF92F0
:103D0000FF920F931F93CF93DF93CDB7DEB7A497A6
:103D10000FB6F894DEBF0FBECDBFE82ED62EC72E4D
:103D20006894FF24F5F88E010F5F1F4FF8018F2D67
:103D300011928A95E9F78FEF89A38AA38BA38CA3AD
:103D400063E470E0CE018196F8DA81E089838A83AA
:103D500086E08B831C824091E2095091E3096091D7
:103D6000E4097091E509872E9924AA24BB24B42F75
:103D7000AA279927882788299929AA29BB2988242D
:103D8000942EA52EB62E88249924BB2488299929FF
:103D9000AA29BB29452F562F672F77274427662747
:103DA0007727482B592B6A2B7B2B4D835E836F83A0
:103DB0007887C986DA8680E890E09C878B876CE1FB
:103DC00070E0C801CCDAF8018F2D11928A95E9F7DD
:103DD00086E0E4ECF9E0D80101900D928A95E1F7D4
:103DE00060E170E0C801BBDAF8011192FA94E9F7DA
:103DF00006E010E060E270E0CE010196B0DA01501A
:103E0000110901151105B1F783E6898392E89A83B8
:103E100093E59B838C8385E38D8381E08E83EF82A2
:103E20009DE3988797E099878A8786E0E4ECF9E03C
:103E3000DE011B9601900D928A95E1F78CE0898B4B
:103E40008A8B87E0ECE6F3E0DE01539601900D9259
:103E50008A95E1F76091C709CE0149960E94B006A4
:103E60006091C809CE014B960E94B0066091C909C5
:103E7000CE014D960E94B0066EE170E0CE01019633
:103E80006EDAF3E0EF1224C082E3898384E08A8350
:103E90009091BE099B839091BF099C839091C0092A
:103EA0009D839091C1099E8396E39F83888780912B
:103EB00014098987809115098A87809116098B8753
:103EC000809117098C876CE070E0CE01019647DA8B
:103ED00087E3898386E08A8391E09B8393E09C83D8
:103EE0008D838FE08E838AE38F838BE388878FEFC8
:103EF000898769E070E0CE01019631DAA4960FB6A9
:103F0000F894DEBF0FBECDBFDF91CF911F910F910F
:103F1000FF90EF90DF90CF90BF90AF909F908F90E9
:103F200008950F931F93CF93DF93062FEA0110910B
:103F3000B006882329F0112319F0113039F00DC093
:103F400081E08093B006113071F412C081E076DA1E
:103F50008F3F19F48093B0060BC09091B006911773
:103F600039F0913029F4BE01802FC3DE80E066DA9B
:103F70008091B006DF91CF911F910F9108952F92FC
:103F80003F924F925F927F928F929F92AF92BF9299
:103F9000CF92DF92EF92FF920F931F93CF93DF9315
:103FA000CDB7DEB7A2970FB6F894DEBF0FBECDBF78
:103FB0008A017EDC181619060CF0F1C162E270E08D
:103FC000CE0101967BDC8981823009F0EAC18091C3
:103FD0005A1290915B128334910509F0E4C18D81EE
:103FE0009E81AF81B885CB2EDD24EE24FF24782F6F
:103FF000662755274427C42AD52AE62AF72A4427C4
:10400000582F692F7A2F442755277727C42AD52A76
:10401000E62AF72A892F9A2FAB2FBB278827AA27B2
:10402000BB27C82AD92AEA2AFB2AF801C082D182F2
:10403000E282F38246E050E064EC79E0CE014D96F6
:104040000E947738892B09F0B0C18091420E90917F
:10405000430EA091440EB091450EC816D906EA064B
:10406000FB0608F4A4C18091E2099091E309A091B4
:10407000E409B091E5098C159D05AE05BF0508F46E
:1040800098C189899A89AB89BC898093BE0990932C
:10409000BF09A093C009B093C1090EEC10E05EDC2B
:1040A0000150110901151105D1F7712C0F2EFEEFEA
:1040B000CF2EF9E0DF2EF02D812C912C0F2EF4E184
:1040C000AF2EF9E0BF2EF02D0F2EFAE54F2EF2E1C4
:1040D0005F2EF02D0F2EF5E12F2EF9E03F2EF02D63
:1040E00056C13CDC8333910509F405C17CF4813071
:1040F000910529F124F4892B09F449C13DC183308C
:10410000910521F1069709F439C036C18A3391052A
:1041100009F47FC03CF48533910569F0C69709F432
:1041200045C02AC18B33910509F4ACC08F3F91057E
:1041300009F42DC121C112DC11DC782E28C10EDC5E
:1041400064E070E080E592E1B9DB21C107DC7C012D
:1041500064E070E082ED99E0B1DBFF24F4E0EF1A57
:10416000F1081E141F040CF012C1082D192DF6DBE6
:104170000F5F1F4F0E151F05D4F309C1EFDB7C0144
:1041800064E070E08EE792E199DBFF2484E0E81AB6
:10419000F1081E141F040CF0FAC0082D192DDEDBE7
:1041A0000F5F1F4F0E151F05D4F3F1C0D7DBF501CC
:1041B000908191110EC0F101908191110AC0E6E148
:1041C000F9E09081911105C0E7E1F9E09081992330
:1041D00099F0F5010081118122813381F201408142
:1041E000518162817381041715072607370721F073
:1041F000F82E811106C0CBC064E070E0C5015EDB23
:10420000C6C0082D192DAADB0F5F1F4FF012FBCF80
:10421000BEC0A4DB64E070E08DEE99E04FDB8091DE
:10422000ED099091EE09A091EF09B091F0090B2FE3
:10423000112722273327782F662755274427042B59
:10424000152B262B372B4427582F692F7A2F4427DD
:1042500055277727042B152B262B372B492F5A2F21
:104260006B2F7727442766277727402B512B622B0C
:10427000732B4093ED095093EE096093EF0970930F
:10428000F00985C06BDB64E070E08FE29AE016DB3A
:1042900080912F0A9091300AA091310AB091320A90
:1042A0000B2F112722273327782F662755274427DE
:1042B000042B152B262B372B4427582F692F7A2FA9
:1042C000442755277727042B152B262B372B492FCF
:1042D0005A2F6B2F7727442766277727402B512BA0
:1042E000622B732B40932F0A5093300A6093310A4C
:1042F0007093320A4CC032DB64E070E087ED99E0E5
:10430000DDDA8091D7099091D809A091D909B091AF
:10431000DA090B2F112722273327782F66275527F5
:104320004427042B152B262B372B4427582F692F76
:104330007A2F442755277727042B152B262B372B2D
:10434000492F5A2F6B2F7727442766277727402B33
:10435000512B622B732B4093D7095093D80960934C
:10436000D9097093DA0940938412509385126093AF
:104370008612709387120BC0F1DAF82E882339F079
:10438000082D192DEBDA0F5F1F4FF012FBCFF6014E
:1043900080819181892B09F0A4CE872D0BC08FEFEE
:1043A00009C080E007C080E005C080E003C080E075
:1043B00001C080E0A2960FB6F894DEBF0FBECDBF5D
:1043C000DF91CF911F910F91FF90EF90DF90CF90F1
:1043D000BF90AF909F908F907F905F904F903F9055
:1043E0002F900895CF92DF92EF92FF926B017C01A4
:1043F000611571058105910539F00E942838A701E2
:1044000096010E94813703C060E070E0CB01FF900D
:10441000EF90DF90CF900895CF93C091AF068111B8
:1044200010C08091C606811121C0809168038093DD
:10443000C60692E0980F909368038F5F8093C5063D
:1044400015C0C430E1F130F4C130B1F078F0C330C0
:10445000F9F0FEC0C63009F478C008F447C0C73090
:1044600009F48AC0CF3F09F4E9C0F2C081E080932B
:10447000AF068C1300C172C164E470E081E00E9459
:10448000B7188F3F09F0E4C083E08093AF0641C1C5
:104490004AE050E061E081E044DD8F3F09F0D8C0A0
:1044A00081E08093831248EE53E060E070E08091F9
:1044B000C6060E948D0885E08093AF064FC14AE092
:1044C00050E063E081E02DDD8F3F09F0C1C081E065
:1044D0008093831248EE53E060E070E08091C6065E
:1044E0000E948D0887E08093AF0638C16091CC09A7
:1044F0007091CD098091CE099091CF0946E752E1A4
:104500003EDD8230A1F48091761290917712A091D5
:104510007812B09179128093E2099093E309A09305
:10452000E409B093E50986E08093AF06F8C0809176
:10453000C6060E94FC08882321F081E08093AF0624
:104540009AC085E08093AF0609C144E650E063E07D
:1045500081E0E7DC8F3F09F07BC082E0809383122B
:1045600044EF51E060E070E08091C6060E948D0843
:1045700087E08093AF06F2C06091CC097091CD09BD
:104580008091CE099091CF0946E752E1F8DC853061
:1045900009F040C02091C10930E04091C00950E0CD
:1045A0006091BF0970E08091BE0990E00E94810493
:1045B0002091D50930E04091D40950E06091D309B1
:1045C00070E08091D20990E00E949C0420915312E7
:1045D00030E04091521250E06091511270E08091B1
:1045E000501290E00E94B7042091841230918512FD
:1045F0004091861250918712A4E6B0E00E94A33742
:10460000AB01BC018091C5060E948D088FEF80939D
:10461000AF06A4C0863021F483E08093AF0679C052
:104620008091C6060E94FC08882321F081E08093D7
:10463000AF0621C087E08093AF0690C08091C50689
:104640000E94FC08882321F084E08093AF065BC0C1
:104650008091AF068C1709F481C0833009F459C0EA
:1046600018F4813041F07AC0843009F44CC08630AF
:1046700009F455C073C06FEC77E080E090E0B2DEE3
:10468000DC01CB010196A11DB11D8093E20990933D
:10469000E309A093E409B093E5098093420E909357
:1046A000430EA093440EB093450E1092BE09109293
:1046B000BF091092C0091092C109109250121092B5
:1046C000511210925212109253121092D20910925B
:1046D000D3091092D4091092D5091092140910929E
:1046E0001509109216091092170910927E12109255
:1046F0007F12109280121092811264E470E080E0C8
:104700000E94B7182BC04AE050E063E080E009DC6B
:1047100025C04AE050E061E080E003DC1FC06FECA0
:1047200077E080E090E05EDEDC01CB010196A11D28
:10473000B11D8093E2099093E309A093E409B0933B
:10474000E5098093420E9093430EA093440EB093DC
:10475000450E4AE050E063E080E0E3DB8091AF0685
:10476000CF910895AF92BF92CF92DF92EF92FF92D6
:104770000F931F93CF93DF93CDB7DEB760970FB63C
:10478000F894DEBF0FBECDBFA2960EAD1FADA297AF
:1047900081E3F80180838EE2818383E38283138245
:1047A0006F96DFAC6F97DA9409F44EC021E0A12C2C
:1047B000B12C0F2EFEE2EF2EF12CF02D8A2D9B2D29
:1047C000CC24C394C20EEEE1F0E0EC0FFD1FE20F2B
:1047D000F11D20819695982F882797958795322FE0
:1047E0003F77830F911DDA9421F02223C4F42C2DFE
:1047F000E7CF4AE0BE016F5F7F4F0E94B538F801F6
:1048000001900020E9F731978EE290E09183808358
:10481000BE016F5F7F4FC8010E94843815C04AE017
:10482000BE016F5F7F4F0E94B538F80101900020F4
:10483000E9F73197F182E082BE016F5F7F4FC801D7
:104840000E9484382C2DBACF60960FB6F894DEBF44
:104850000FBECDBFDF91CF911F910F91FF90EF90D1
:10486000DF90CF90BF90AF9008953F924F925F92AC
:104870006F927F928F929F92AF92BF92CF92DF9270
:10488000EF92FF920F931F93CF93DF9300D01F926D
:104890001F92CDB7DEB78C01DB018C91813309F01B
:1048A000E5C011968C9111978E3209F0DFC01296F7
:1048B0008C911297833309F0D9C013968C918E3264
:1048C00009F0D4C080E4F80111928A95E9F78BE2EF
:1048D000D8018C93FB0101900020E9F731973F014B
:1048E000661A770AFE01319685E0DF011D928A95EE
:1048F000E9F7B5E06B1671040CF471C06B01E4E0EC
:10490000CE0ED11C6894EE24E2F8F12CAA24A394D4
:10491000B12C80E090E09E012F5F3F4F49010F2EA8
:10492000F5E03F2EF02D412C512CD6012D916D013B
:104930002E3209F047C0C4010E945138272F862F1C
:10494000922F8038910528F4F801EA0DFB1D608351
:104950002EC08115B0E49B0788F4F801EA0DFB1D19
:10496000880F991F892F80688083EFEFAE1ABE0AE7
:10497000F801EA0DFB1D6F77608319C0F801EA0D9D
:10498000FB1D9C0124E0329F212D3327112423702D
:1049900020682083880F991F892F80688183F2E027
:1049A000AF0EB11CF801EA0DFB1D6F776083D401D7
:1049B000E32D1D92EA95E9F7FFEFAF1ABF0A842DA8
:1049C000952D05C0F401E80FF91F208301962FEF04
:1049D000E21AF20A6E147F0409F0A7CF03C0AA24DA
:1049E000A394B12CCE0101960E943438282F392F80
:1049F0002038310528F4F801EA0DFB1D80832EC014
:104A0000211590E4390788F4F801EA0DFB1D220F07
:104A1000331F932F90689083AFEFAA1ABA0AF80158
:104A2000EA0DFB1D8F77808319C0F801EA0DFB1D8D
:104A3000A90144E0549F412D55271124437040683B
:104A40004083220F331F932F90689183B2E0AB0E07
:104A5000B11CF801EA0DFB1D8F778083F801E05C43
:104A6000FF4F2FEFA21AB20AB182A0820F900F90CF
:104A70000F900F900F90DF91CF911F910F91FF90AA
:104A8000EF90DF90CF90BF90AF909F908F907F90EE
:104A90006F905F904F903F90089520E4FC01119239
:104AA0002A95E9F7FC01E05CFF4F1182108208951E
:104AB0008F929F92AF92BF92CF92DF92EF92FF922E
:104AC0000F931F93CF93DF93CDB7DEB760970FB6E9
:104AD000F894DEBF0FBECDBF8C017B01FC01EE5B05
:104AE000FF4F8081843009F47DC0863009F46DC0A9
:104AF000843409F066C076C081E3D7018C938EE2DE
:104B000011968C93119783E312968C9312971396B8
:104B10001C92F801E05CFF4FB080BA9411F181E083
:104B2000812C912C0F2EFEE2CF2ED12CF02D282D92
:104B3000392DAA24A394A80EF801E80FF11D808155
:104B40003695322F222737952795982F9F77290F53
:104B5000311DBA9409F453C088230CF067C08A2D24
:104B6000E8CF80E079C0F801ED5BFF4F108233970A
:104B70002081318121153105D1F080E090E060E0A5
:104B80003396A801405C5F4FD801A60FB11D2C9150
:104B9000D701A80FB91F2C9360816F5F6083862FA8
:104BA00090E0DA012D913C918217930768F3F701A9
:104BB000E20FF31F108280E04FC0C8016EDF81E07A
:104BC0004BC0C8016ADF87E047C0FB0101900020AD
:104BD000E9F7CF01861B970B02978417950708F416
:104BE0008BCFEBCFF70101900020E9F7CF018E19B1
:104BF0009F0902978417950708F4B5CFDECF4AE0E6
:104C0000BE016F5F7F4FC9010E94B538F701019067
:104C10000020E9F731978EE290E091838083BE0116
:104C20006F5F7F4FC7010E9484389BCF4AE0BE016F
:104C30006F5F7F4FC9010E94B538F70101900020D6
:104C4000E9F73197D182C082BE016F5F7F4FC70104
:104C50000E9484388A2D6BCF60960FB6F894DEBF21
:104C60000FBECDBFDF91CF911F910F91FF90EF90BD
:104C7000DF90CF90BF90AF909F908F9008951F933B
:104C8000CF93DF93FC01EE5BFF4F2081223059F57B
:104C90003297208131812330310540F5FB011182AB
:104CA0001082FC01E05CFF4F20813181211531052C
:104CB000F9F0162FE62FF72F40E050E0EC01C05C32
:104CC000DF4F40955095280F391FD901A40FB51F0C
:104CD0002C9121934E2F411B50E02881398142179E
:104CE000530778F307C0D9DE87E005C081E003C031
:104CF00080E001C080E0DF91CF911F910895CF93B4
:104D000020E4FC0111922A95E9F7262F2F7B24300D
:104D1000C9F5FA0101900020E9F79F01241B350B2A
:104D2000225031092034310550F5FC01EE5BFF4F74
:104D30006083FA0101900020E9F73197BF01641BFD
:104D4000750BFC01E05CFF4F71836083339610822A
:104D500061157105D1F020E030E0C0E0DF01FA011B
:104D6000E20FF31F2081FC01EC0FF11D2083CF5FC8
:104D7000CC932C2F30E02617370788F308C08DDE40
:104D800081E006C08ADE87E003C080E001C080E0E9
:104D9000CF91089520E4FC0111922A95E9F7623041
:104DA00011F0643471F4FC01E05CFF4F22E030E06C
:104DB0003183208332966083FC015083418380E0FD
:104DC00008956BDE87E0089570E4FC0111927A95F6
:104DD000E9F7623011F0643481F4FC01E05CFF4FCC
:104DE000A4E0B0E0B183A08332966083FC015083DD
:104DF00041833283238380E008954FDE87E0089566
:104E0000FC0180E4DF011D928A95E9F78FEB860FA4
:104E1000843010F0673481F4DF01A05CBF4F84E080
:104E200090E011969C938E9312966C9350834183DD
:104E30003283238380E00895CF012FDE87E0089539
:104E4000DC010D900020E9F7FC019D0121503109A2
:104E500080E090E004C041914E3209F40196E217DF
:104E6000F307C9F701960895CF92DF92EF92FF9270
:104E70000F931F93CF93DF93CDB7DEB728970FB66D
:104E8000F894DEBF0FBECDBF6C01DB01E12CF12C2D
:104E900040E050E020E030E08C010150110916C0E4
:104EA0000417150761F48E3251F0E1E0F0E0EC0FE9
:104EB000FD1FEE0DFF1D80838FEFE81AF80A2F5FAC
:104EC0003F4FEC91EE3211F44F5F5F4F8D918E3278
:104ED00019F44C155D0550F4FB0101900020E9F731
:104EE0003197E61BF70B2E173F07D0F2FE01EE0DB0
:104EF000FF1D1282CE0107969F938F938AE793E05E
:104F00009F938F93CE0101969F938F930E94CE38EB
:104F10000F900F900F900F900F900F908F819885AA
:104F200028960FB6F894DEBF0FBECDBFDF91CF91AC
:104F30001F910F91FF90EF90DF90CF900895AF9267
:104F4000BF92CF92DF92EF92FF920F931F93CF9376
:104F5000DF937C018B0174DFEC01C80171DF8C17DA
:104F60009D0738F5C1E0D0E019C0B701CE017CDF64
:104F70006C01B801CE0178DF8C159D0508F46BC07B
:104F8000B7018A2D9B2D70DF6C01B8018A2D9B2DF6
:104F90006BDFC816D90608F461C02196AC2EBD2E71
:104FA000C8014EDF0196C817D907F8F281E090E0FA
:104FB00066C0C817D90738F5C1E0D0E019C0B701FD
:104FC000CE0152DF6C01B801CE014EDF8C159D057C
:104FD00008F447C0B7018A2D9B2D46DF6C01B8014C
:104FE0008A2D9B2D41DFC816D90608F43DC02196B5
:104FF000AC2EBD2EC70124DF0196C817D907F8F2E1
:105000008FEF9FEF3CC0C817D90789F5C1E0D0E00A
:1050100017C0B701CE0128DF6C01B801CE0124DF33
:105020008C159D0538F1B7018A2D9B2D1DDF6C0174
:10503000B8018A2D9B2D18DFC816D906F0F02196ED
:10504000AC2EBD2EC701FCDE0196C817D90708F3A8
:105050008FEF9FEF14C081E090E011C08FEF9FEFC2
:105060000EC081E090E00BC08FEF9FEF08C08FEF84
:105070009FEF05C081E090E002C08FEF9FEFDF91CE
:10508000CF911F910F91FF90EF90DF90CF90BF9045
:10509000AF900895EF92FF920F931F93CF93DF93FA
:1050A0007C0109E012E0C0E0D0E0F801608171818C
:1050B000C70145DF019639F02196095F1F4FC332C2
:1050C000D10599F703C08C2F9D2F02C08FEF9FEF62
:1050D000DF91CF911F910F91FF90EF900895FA010A
:1050E000223049F46130E9F4DC014D915C9162E0D9
:1050F000CF0150CE0895243039F46230F9F4AC0178
:1051000064E0CF01FCCD0895233459F46330C1F439
:10511000DC012D913D914D915C9163E4CF0170CE06
:105120000895223079F4643079F4DC012D913D91B9
:105130004D915C9162E0CF0147CE089580E00895E3
:1051400080E0089580E0089580E00895223079F4A9
:105150006430A1F4EAE2F3E001900020E9F731972E
:10516000AF014A5253406AE273E0A2CC0895213065
:1051700039F4623039F4BA0182CD089580E008959F
:1051800080E0089580E008952F923F924F925F92C1
:105190006F927F928F929F92AF92BF92CF92DF9247
:1051A000EF92FF920F931F93CF93DF93CDB7DEB7AC
:1051B000C257D1090FB6F894DEBF0FBECDBF8C0128
:1051C0006091000A7091010A7093CB096093CA093B
:1051D00089E9E8E1F9E0DF011D928A95E9F76A398A
:1051E000710508F094C2CF010E94861C80911809B5
:1051F000803309F08EC2B0911B09A296BFAFA2976F
:105200008B2F8D5FE82FF0E0AA96FFAFEEAFAA9745
:10521000E85EF64F2281A6962FAFA6978E5F820F8B
:10522000E82FF0E0DF01A85EB64F11963C91119790
:10523000A3963FAFA39714962C9194E0980F920FEA
:10524000A7969FAFA797492F50E0AF965FAF4EAF9D
:10525000AF97DA01A85EB64F12969C91AB969FAFBE
:10526000AB97A7969FADA7979E5FAB96AFADAB9759
:10527000A90FA896AFAFA8974A2F50E0E1965FAF6D
:105280004EAFE197DA01A85EB64F12969C91AC96AC
:105290009FAFAC97392FA896AFADA8973A0FB2E061
:1052A000B30FE296BFAFE2974B2E512CD201A85E0E
:1052B000B64F1296AC90D80115961D921D921D9274
:1052C0001C9218972223F1F0E35EF64F90E0825E85
:1052D000964F2150820F911D219115964D915D9110
:1052E0006D917C911897762F652F542F4427422B70
:1052F00015964D935D936D937C931897E817F90776
:1053000059F78D01C2010696FC01E85EF64FB081A7
:10531000A496BFAFA49728E0230FB20FA596BFAF06
:10532000A597EB2FF0E0E85EF64F4181E3964FAF93
:10533000E3975281AD965FAFAD97A396EFADA3977C
:10534000D801EC93E53AC1F0FC01E85EF64F3081FC
:10535000A4963FAFA497320FA5963FAFA597E32F32
:10536000F0E0E85EF64F4181E3964FAFE39752815C
:10537000AD965FAFAD976BC01092C209B12CA1146E
:10538000B10409F464C0E12CF12C3C5F632E712C54
:10539000812C312C6E0183E4C80ED11C0F2EF2E457
:1053A0002F2EF02DB701660D771DFB01E85EF64F3D
:1053B0009280448150E04115510599F0FE013196EB
:1053C000282D332D882D932D685E764FDB01A20F9B
:1053D000B31F15962C91219301969C018417950774
:1053E000A8F323965FAF4EAF2397DF92CF92ADB76E
:1053F000BEB7A254B1090FB6F894BEBF0FBEADBF81
:105400001196FE013196822D01900D928A95E1F759
:10541000A9D90FB6F894DEBF0FBECDBFC6013ADEE4
:10542000E091C20921E02E0F2093C209F0E0EE0FB7
:10543000FF1FE85FF54F992791838083892D90E0C6
:105440000296E80EF91EEA14FB0408F4ABCFD8016B
:1054500011961D921D921D921C921497A296BFAD9B
:10546000A297BB23F1F0EDE1F9E08B2F815090E0A2
:10547000825E964FD801219111964D915D916D916B
:105480007C911497762F652F542F4427422B119629
:105490004D935D936D937C931497E817F90759F733
:1054A0008D01A3962FADA397F80120832093640B61
:1054B000A6963FADA697353120F081E0818782E046
:1054C00056C18081833AD9F5A696BFADA6978B2F9A
:1054D00090E02091060A3091070A8217930709F09D
:1054E0006AC0009709F476C0AA962EAD3FADAA9780
:1054F0002D5F3F4FE091460DF091470DD901A85E19
:10550000B64F5C914081541781F00AC04E0F5F1F67
:10551000D901A60FB11D7C91DA014C91741741F0AD
:1055200082E0F801818787E022C160E0285E364F83
:105530006F5F462F50E04817590740F34BC0805A21
:105540008230C8F5A696FFADA6978F2F90E02091E8
:10555000D0093091D1098217930769F50097D1F1ED
:10556000AA962EAD3FADAA972D5F3F4FE09110094F
:10557000F0911109D901A85EB64F5C914081541792
:1055800081F00AC04E0F5F1FD901A60FB11D7C919B
:10559000DA014C91741741F082E0F801818787E0CD
:1055A000E6C060E0285E364F6F5F462F50E0481738
:1055B000590740F30FC0F801E057FF4F11821082E6
:1055C000E254F1091182108282E0D80119968C937D
:1055D00087E0CDC0F8011186AB96FFADAB97FF23F6
:1055E00001F1AF96EEADFFADAF97E55EF64FA79632
:1055F0002FADA797822F90E0845E964FAB962FAD8C
:10560000AB972150820F911D40E050E0BA01762FF8
:10561000652F542F44272191422BE817F907B9F73A
:1056200003C040E050E0BA01D80119964C93199795
:10563000F8011286138614861586AC96FFADAC97DA
:10564000FF2349F1E196EEADFFADE197E55EF64F40
:10565000A8962FADA897822F90E0845E964FAC96C7
:105660002FADAC972150820F911D21911A964D912B
:105670005D916D917C911D97762F652F542F442756
:10568000422B1A964D935D936D937C931D97E8176B
:10569000F90759F78D01A4963FADA497313430F046
:1056A00081E0D80119968C9383E061C080E4F80111
:1056B0003E96DF011D928A95E9F7E05CFF4FA496C4
:1056C000BFADA4978B2F90E091838083BB2329F1FA
:1056D000F201E15EF64FD8011E96E2962FADE297F9
:1056E000822F90E0805E964FA4962FADA497215014
:1056F000820F911D21912D93E817F907D9F70DC05D
:1057000021912D93E817F907D9F780E030C086E0A2
:105710002EC085E02CC080E02AC0F801EE56FF4F75
:10572000E3963FADE39730833297AD964FADAD979B
:10573000842F90E09183808380E4E054F109DF01BD
:105740001D928A95E9F7442331F3A596BFADA5973D
:105750008B2F90E0FC01E55EF64FD801A05BBF4FB8
:10576000845E964F242F2150820F911DC9CFCE58B1
:10577000DF4F0FB6F894DEBF0FBECDBFDF91CF91E4
:105780001F910F91FF90EF90DF90CF90BF90AF905F
:105790009F908F907F906F905F904F903F902F9051
:1057A0000895CF92DF92EF92FF920F931F93CF93C2
:1057B000DF93DC011092B2091092B109EC01C25BD7
:1057C000DF4FFC01E057FF4F2881398180819181B3
:1057D000280F391F2B5D3F4F89E9E8E1F9E0EF0120
:1057E00019928A95E9F78091640B833A29F58091A3
:1057F000060A9091070A280F391F3093CB0920938E
:10580000CA0930E33093180922502093190922E085
:1058100020931A0921E020931B0924E020931D09FD
:1058200027E030E03093B2092093B109BC018093A6
:105830001E09009731F566C08091D0099091D10979
:10584000280F391F3093CB092093CA0930E33093D6
:10585000180922502093190922E020931A0921E007
:1058600020931B0924E020931D0927E030E03093AA
:10587000B2092093B109BC0180931E09009711F56C
:1058800041C00091460D1091470D80E090E0C0E0CE
:105890002091B1093091B209A9014F5F5F4F509338
:1058A000B2094093B109800F911FFC018081285EED
:1058B000364FF9018083CF5F8C2F90E086179707D2
:1058C00038F320C0009110091091110980E090E098
:1058D000C0E02091B1093091B209A9014F5F5F4F3B
:1058E0005093B2094093B109800F911FFC01808150
:1058F000285E364FF9018083CF5F8C2F90E08617AA
:10590000970738F38091B1099091B2099C012F5FFC
:105910003F4F3093B2092093B1094C91FC01E85EEE
:10592000F64F4083A901485E564F7D012EE4E20EFA
:10593000F11CE70178819D0120573F4FE901688103
:10594000670F665EEA01688302E0028314E0138356
:1059500015964C91159716965C91169717966C9123
:10596000179718967C91189774836583568347839D
:105970000087118719964C91199712861386148601
:105980004587068717871A964C911A971B965C9144
:105990001B971C966C911C971D967C911D97708B84
:1059A000618B528B438B40E3448BE7016881E901B3
:1059B0005881560F5A5F558B468BE7014881E901A4
:1059C0002881240F2C5F278B26E0208F4A96909306
:1059D000B2098093B109E7018881818F888199811B
:1059E000892B49F18091B1099091B209FD013E9650
:1059F0009C01285E364F69017C013DE0E31AF10805
:105A0000EA1AFB0A02EF1FEF0A1B1B0BBE01A701DC
:105A10004E0F5F1F8191E60189936E0198012E0F51
:105A20003F1FEB01888199812817390780F3509334
:105A3000B2094093B1098091B1099091B209FD0179
:105A4000EE56FF4F2081EC01C85ED64F28830296A8
:105A50009093B2098093B1093297808189838081C4
:105A60009181892B29F10091B1091091B209E0547B
:105A7000F109E801C85ED64F0F5411090A1B1B0B30
:105A800060EB7FEF6A1B7B0BA057BF4FA8014E0F47
:105A90005F1F819189939B012E0F3F1F8D919C91D8
:105AA00011972817390790F35093B2094093B10921
:105AB00060915C1270915D1282E692E10E94A619DB
:105AC0006091CA097091CB0988E199E00E94C319DD
:105AD00080E0DF91CF911F910F91FF90EF90DF90C9
