:1000000065C000006DC000006BC0000069C000004A
:1000100067C0000065C0000063C0000061C0000050
:100020005FC000005DC000005BC0000059C0000060
:1000300057C0000055C0000053C0000051C0000070
:100040004FC000004DC000004BC0000049C0000080
:1000500047C0000045C0000043C0000041C0000090
:100060003FC000003DC000003BC0000039C00000A0
:1000700037C0000035C0000033C0000031C00000B0
:100080002FC000002DC000002BC0000029C00000C0
:1000900027C0000025C0000023C0000021C00000D0
:1000A0001FC000001DC000001BC0000019C00000E0
:1000B00017C0000015C0000013C0000011C00000F0
:1000C0000FC000000DC000000BC0000011241FBEB7
:1000D000CFEFD1E2DEBFCDBF00E00CBFACD0C3C0DC
:1000E0008FCF8EBD00000DB407FEFDCF8EB50895F5
:1000F0001F93CF93DF93D82F192FC62F289880EF07
:10010000F0DF812FEEDF8D2FECDF8C2FEADF289AD6
:1001100081E0DF91CF911F910895EF920F931F938C
:10012000CF93DF93162FD42FC22F682F89E090E052
:10013000DFDF612F8AE090E0DBDF6D2F8BE090E066
:10014000D7DF6C2F8CE090E0D3DF602F8DE090E064
:10015000CFDF6E2D8EE090E0CBDF81E0DF91CF919D
:100160001F910F91EF9008951F93CF93DF93162F58
:10017000D42FC22F682F8FE090E0BADF612F80E18B
:1001800090E0B6DF6D2F81E190E0B2DF6C2F82E16D
:1001900090E0AEDF81E0DF91CF911F910895EF9263
:1001A000FF920F931F93279A9B9A8CB580658CBD05
:1001B0001DBC219A229A2398209A289A259A2D9834
:1001C0006C9A74988FE79EE30197F1F700C00000E6
:1001D0006C989FEF27E98AE3915020408040E1F737
:1001E00000C0000060E880E090E082DF65E58BE120
:1001F00090E07EDF65E58AE190E07ADF6894EE24A6
:10020000E1F8F12C0EED10E02CEC30E04BEB50E07F
:100210006AEA70E080E090E080DF2CE430E040E0CB
:1002200050E060E070E08AE090E09EDF1F910F9167
:10023000FF90EF900895B3DF2F9AA3982FEF83EDEF
:1002400090E3215080409040E1F700C000002F98DB
:10025000A39A2FEF83ED90E3215080409040E1F787
:0A02600000C00000E9CFF894FFCFC2
:00000001FF
