S01A000045746865726E65745F746F5F53657269616C2E73726563CA
S113000095C20000B4C20000B2C20000B0C2000039
S1130010AEC20000ACC20000AAC20000A8C2000028
S1130020A6C20000A4C20000A2C20000A0C2000038
S11300309EC200000C94390C9AC2000098C20000C1
S113004096C200000C941B0A92C2000090C20000E9
S11300508EC200000C94070C8AC2000088C2000003
S113006086C200000C94C1170C9414180C94EB175E
S11300707EC200007CC200007AC2000078C2000088
S113008076C2000074C2000072C2000070C2000098
S11300900C943D180C9490180C94671868C20000D6
S11300A066C2000064C200000C946D0C60C20000C3
S11300B05EC200005CC200005AC2000058C20000C8
S11300C056C2000054C2000052C2000078107810DA
S11300D0481148113D13DC113D133D133D133D13ED
S11300E03D133D133D133D132412CC124814481400
S11300F0FF14FF14001684150016001600160016CF
S11301000016001600160016CC15CC15EF2B302B5C
S1130110272CEC2A272C272C272C272C272C272C80
S1130120272C272C272C272C272C272C272C272C33
S1130130272C272C272C272C272C272C272C272C23
S1130140272C272C272C272C272C272C272C272C13
S1130150272C272C272C272C272C272C272C272C03
S1130160272C272C272C272C272C272C272C272CF3
S1130170272C272C272C272C272C272C272C272CE3
S1130180272C272C272C272C272CB62B7B2B7B2B9F
S11301907B2BEC2AB62B272C7B2B1C3028305B3096
S11301A06A30753079308B30B730C630D530EA30AC
S11301B0B8317031AD31B831B23100C0C101C303BF
S11301C002C2C60607C705C5C404CC0C0DCD0FCFAB
S11301D0CE0E0ACACB0BC90908C8D81819D91BDB1B
S11301E0DA1A1EDEDF1FDD1D1CDC14D4D515D7176B
S11301F016D6D21213D311D1D010F03031F133F31B
S1130200F23236F6F737F53534F43CFCFD3DFF3F6A
S11302103EFEFA3A3BFB39F9F83828E8E929EB2B9A
S11302202AEAEE2E2FEF2DEDEC2CE42425E527E72A
S1130230E62622E2E323E12120E0A06061A163A39A
S1130240A26266A6A767A56564A46CACAD6DAF6F2A
S11302506EAEAA6A6BAB69A9A86878B8B979BB7B9A
S11302607ABABE7E7FBF7DBDBC7CB47475B577B7EA
S1130270B67672B2B373B17170B05090915193531A
S1130280529296565797559594549C5C5D9D5F9FEA
S11302909E5E5A9A9B5B99595898884849894B8B1A
S11302A08A4A4E8E8F4F8D4D4C8C448485458747AA
S11302B04686824243834181804000C1814001C01F
S11302C0804101C0804100C1814001C0804100C122
S11302D0814000C1814001C0804101C0804100C112
S11302E0814000C1814001C0804100C1814001C002
S11302F0804101C0804100C1814001C0804100C1F2
S1130300814000C1814001C0804100C1814001C0E1
S1130310804101C0804100C1814000C1814001C0D1
S1130320804101C0804100C1814001C0804100C1C1
S1130330814000C1814001C0804101C0804100C1B1
S1130340814000C1814001C0804100C1814001C0A1
S1130350804101C0804100C1814000C1814001C091
S1130360804101C0804100C1814001C0804100C181
S1130370814000C1814001C0804100C1814001C071
S1130380804101C0804100C1814001C0804100C161
S1130390814000C1814001C0804101C0804100C151
S11303A0814000C1814001C0804100C1814001C041
S11303B0804101C0804100C18140312E332E362E50
S11303C0312E342E312E323031372E31312E352E1E
S11303D03000312E332E362E312E342E312E323043
S11303E031372E31312E342E3000312E332E362E2D
S11303F0312E342E312E323031372E31312E332EF0
S11304003000312E332E362E312E342E312E323012
S113041031372E31312E322E3000312E332E362EFE
S1130420312E342E312E323031372E31312E312EC1
S11304303000312E332E362E312E332E32303137DA
S11304402E302E332E3000312E332E362E312E32D6
S11304502E312E312E372E3000312E332E362E31C2
S11304602E322E312E312E362E3000312E332E36B2
S11304702E312E322E312E312E352E3000312E33A8
S11304802E362E312E322E312E312E342E30003196
S11304902E332E362E312E322E312E312E332E3057
S11304A000312E332E362E312E322E312E312E3275
S11304B02E3000312E332E362E312E322E312E3167
S11304C02E312E3000C8040101CC040204000019AE
S11304D00000001001000400000046004700C302B1
S11304E0B200B300CD02A400A800D902C600C00027
S11304F0C100C200C500C400BB02C002C102C202E6
S11305004203FFA001FBCF007D67003F44002A3374
S1130510001F22001B19001B10001B6E09200089FC
S11305200F20009D0F3A00AF0A50000111241FBE96
S1130530CFEFD1E2DEBFCDBF00E00CBF15E0A0E0FD
S1130540B2E0E2E0FFE600E00BBF02C007900D92CC
S1130550A236B107D9F721E1A2E6B5E001C01D92A8
S1130560A731B207E1F70E946A330C947F3748CD74
S1130570FC018081089592B184E0892782B90895AD
S113058008950895089582E084BD85EF85BDEEE663
S1130590F0E0808182608083089582E08093B000DF
S11305A087EF8093B100E0E7F0E080818260808390
S11305B008951092A0008DE08093A100E2E7F0E09E
S11305C080818260808308950C948C360895282F4E
S11305D030E0F901EE0FFF1FE20FF31FEB53FB4F67
S11305E025913491E82FF0E0ED57F74F8081A90170
S11305F064E0869F400D511D1124CA010895282FDF
S113060030E044E1849FF0011124E251FB4FA591B5
S1130610B4919C91F901E454F74F408151E0540F97
S1130620508354E1529FF001539FF00D1124E45183
S1130630FB4FA591B4915C91F22FEE27E40FF11DCD
S1130640EC5EFF4E508393FF0FC0F901E295F295E3
S1130650F07FFE27E07FFE27EB58F04F2685378595
S11306602F5F3F4F378726879C7171F021E030E080
S1130670A90102C0440F551F8A95E2F7CA0190915F
S11306809805892B8093980508950F931F93CF9312
S1130690DF93C82FD0E0FE01EB56F74F90819230E4
S11306A009F1FE01E295F295F07FFE27E07FFE2737
S11306B0ED5DFA4F059114918ADF0196FC01859155
S11306C09491C857D74F2881FC0137E0239FE00D50
S11306D0F11D1124359685919491880F991F800FEF
S11306E0911F0AC0CC0FDD1FCC0FDD1FCC0FDD1F07
S11306F0C057DA4F8E819F81DF91CF911F910F9167
S11307000895EAEDF4E0259134918217930799F066
S113071060E06F5F262F30E0F901EE0FFF1FE20F5C
S1130720F31FEE0FFF1FE652FB4F459154918417C0
S1130730950779F703C020E030E060E0E62FF0E0B1
S1130740E55DFA4FE491EE2319F0E13079F1089573
S1130750F22FEE27EC5EFF4E9081F901E059F74F3E
S1130760808198130FC04091640F81E090E0BC0138
S113077002C0660F771F2A95E2F79B01242B209372
S1130780640F0895F901E158F84F81E08083F9017D
S1130790E295F295F07FFE27E07FFE27EB58F04FBD
S11307A08081918101969183808308954091640FA3
S11307B081E090E0BC0102C0660F771F2A95E2F742
S11307C09B01242B2093640F08958EBD00000DB46B
S11307D007FEFDCF8EB50895CF93DF93C82FD92F91
S11307E028988FE0F2DF8D2FF0DF8C2FEEDF80E092
S11307F0ECDF289ADF91CF910895CF92DF92EF92A8
S1130800FF920F931F93CF93DF93EC016A0141157D
S11308105105B1F0062F172F7C01E40EF51E289820
S11308208FE0D3DF8D2FD1DF8C2FCFDF219680E0B7
S1130830CCDFF80181938F01289ACE15DF0579F773
S1130840C601DF91CF911F910F91FF90EF90DF9040
S1130850CF900895CF92DF92EF92FF920F931F9360
S1130860CF93DF93EC016A0141155105A9F0062FDE
S1130870172F7C01E40EF51E289880EFA6DF8D2F3C
S1130880A4DF8C2FA2DF2196F80181918F019DDFD7
S1130890289ACE15DF0581F7C601DF91CF911F910C
S11308A00F91FF90EF90DF90CF900895EF92FF9219
S11308B00F931F93259A2D9A2D982FEF83EC99E08F
S11308C0215080409040E1F700C000006C9A749879
S11308D02FEF83EC99E0215080409040E1F700C075
S11308E000006C982FEF83EC99E0215080409040F9
S11308F0E1F700C0000080E090E49093570B8093F0
S1130900560B80E090E6909363088093620880E041
S113091098E49093590B8093580B80E098E6909359
S113092065088093640880E090E590935B0B809366
S11309305A0B80E090E7909367088093660880E004
S113094098E590935D0B80935C0B80E098E790931F
S113095069088093680860E880E090E037D065E536
S11309608BE190E033D065E58AE190E02FD0689484
S1130970EE24E1F8F12C0EED10E02CEC30E04BEB22
S113098050E06AEA70E080E090E051D02CE430E07E
S113099040E050E060E070E08AE090E06FD02EEF3D
S11309A030E040E050E060E070E08AE090E081D028
S11309B020E030E04FEF50E06FEF70E08FEF90E019
S11309C093D01F910F91FF90EF9008951F93CF93B1
S11309D0DF93D82F192FC62F289880EFF6DE812FAA
S11309E0F4DE8D2FF2DE8C2FF0DE833011F0289AA6
S11309F05DDF289A81E0DF91CF911F9108951F93C5
S1130A00CF93DF93C82FD0E0DC2FCC27CF5FDB4F11
S1130A10CE01DCDF10E001C01F5FCE01DDDE8823E4
S1130A2011F01F3FC9F7DF91CF911F910895EF9205
S1130A300F931F93CF93DF93162FD42FC22F682FBA
S1130A4089E090E0C3DF612F8AE090E0BFDF6D2F83
S1130A508BE090E0BBDF6C2F8CE090E0B7DF602F81
S1130A608DE090E0B3DF6E2D8EE090E0AFDF81E0AB
S1130A70DF91CF911F910F91EF9008951F93CF9322
S1130A80DF93162FD42FC22F682F8FE090E09EDFC4
S1130A90612F80E190E09ADF6D2F81E190E096DF95
S1130AA06C2F82E190E092DF81E0DF91CF911F9182
S1130AB008951F93CF93DF93162FD42FC22F682F3F
S1130AC081E090E083DF612F82E090E07FDF6D2F93
S1130AD083E090E07BDF6C2F84E090E077DF81E0BF
S1130AE0DF91CF911F9108951F93CF93DF93162F1A
S1130AF0D42FC22F682F85E090E068DF612F86E055
S1130B0090E064DF6D2F87E090E060DF6C2F88E079
S1130B1090E05CDF81E0DF91CF911F91089590E038
S1130B200496982F8827860F971F56CE08951F93F3
S1130B30CF93DF93182F60E270E0F1DFC82FD0E08D
S1130B4061E270E0812FEBDFDC2FCC279E01282BA4
S1130B50C901DF91CF911F9108951F93CF93DF9324
S1130B60182F66E270E0DBDFC82FD0E067E270E0A8
S1130B70812FD5DFDC2FCC279E01282BC901DF91E3
S1130B80CF911F9108959B0190E00496982F882798
S1130B90642F820F931F1ACF0895882341F0809108
S1130BA07905813041F018F08230C1F024C081E031
S1130BB08093790520C0462F61E070E080E0E3DF98
S1130BC061E070E080E0ABDF882321F082E0809375
S1130BD0790511C08FEF809379050DC061E070E055
S1130BE080E09DDF882321F082E08093790503C0B3
S1130BF08FEF80937905809179050895882341F0DA
S1130C0080917805813041F018F08230C1F024C021
S1130C1081E08093780520C0462F61E070E081E098
S1130C20B2DF61E070E081E07ADF882321F082E0C6
S1130C308093780511C08FEF809378050DC061E033
S1130C4070E081E06CDF882321F082E080937805F6
S1130C5003C08FEF809378058091780508958823E9
S1130C6041F080917705813041F018F08230C1F075
S1130C7024C081E08093770520C0462F61E070E0B6
S1130C8082E081DF61E070E082E049DF882321F0C7
S1130C9082E08093770511C08FEF809377050DC0B4
S1130CA061E070E082E03BDF882321F082E0809302
S1130CB0770503C08FEF80937705809177050895BA
S1130CC0CF93C82F692F80E194E080DE6C2F81E1FF
S1130CD094E07CDECF910895CF93DF93EC0168819B
S1130CE08CE094E073DE69818DE094E06FDE6A81CC
S1130CF08EE094E06BDE6B818FE094E067DEDF9141
S1130D00CF910895CF93C82F692F80E195E05EDEDF
S1130D106C2F81E195E05ADECF910895CF93DF9354
S1130D20EC0168818CE095E051DE69818DE095E00D
S1130D304DDE6A818EE095E049DE6B818FE095E0BF
S1130D4045DEDF91CF910895CF93C82F692F80E1BD
S1130D5096E03CDE6C2F81E196E038DECF91089579
S1130D60CF93DF93EC0168818CE096E02FDE6981FC
S1130D708DE096E02BDE6A818EE096E027DE6B81C3
S1130D808FE096E023DEDF91CF9108959F92AF929A
S1130D90BF92CF92DF92EF92FF920F931F93CF9364
S1130DA0DF93982E5B017A01E90164E270E0B7DE1B
S1130DB0C82ED12C65E270E0892DB1DE1C2D0027F0
S1130DC0082B0A0D1B1D98013770C92CD12CF60174
S1130DD0EE0FFF1FEA5AF44F80819181820F931F17
S1130DE0A9014C0F5D1F41305840B8F040E058E075
S1130DF05A01A21AB30AA501B7012CDDAE014A19A2
S1130E005B09B7016A0D7B1DF601EE0FFF1FEA5A5D
S1130E10F44F808191811EDD03C0AE01B7011ADD5C
S1130E20C00FD11F4D2F64E270E0892DACDE4C2F32
S1130E3065E270E0892DA7DEDF91CF911F910F91BC
S1130E40FF90EF90DF90CF90BF90AF909F90089568
S1130E50DF92EF92FF920F931F93CF93DF93D82EDD
S1130E600FEF1FEFE12CF12C8D2D61DEEC010097CB
S1130E7019F08D2D5CDE7C01EC16FD0629F0015085
S1130E8011090115110581F7C701DF91CF911F9158
S1130E900F91FF90EF90DF900895DF92EF92FF9211
S1130EA00F931F93CF93DF93D82E8B017A01E9011F
S1130EB0CFDF8C179D0718F48D2DCADFEC019E013E
S1130EC0A701B8018D2D62DFCE01DF91CF911F9173
S1130ED00F91FF90EF90DF90089520E3FC012083B1
S1130EE03296862F82958F7090E1899F6019112424
S1130EF06A3010F4605D01C0695C6293882311F06C
S1130F00682FEFCF08958FB7807880937C07F8948B
S1130F1080917C07089580917C07882309F0789458
S1130F2080917C070895A8952FE088E190E00FB6A2
S1130F30F894A895809360000FBE209360000895F4
S1130F408091CA0291E0980F9093CA02089580910B
S1130F50C90291E0980F9093C9020895CF93DF934B
S1130F60C82FD62FD0DFEC2FF0E0E45EF84FD0830B
S1130F70DD23A9F0EC2FE695E695E695F0E0E25541
S1130F80FA4F4081C77021E030E0C90102C0880FE8
S1130F90991FCA95E2F780958423808313C0EC2FB0
S1130FA0E695E695E695F0E0E255FA4F4081C77084
S1130FB021E030E0C90102C0880F991FCA95E2F709
S1130FC0842B8083A8DFDF91CF9108951F93CF9363
S1130FD0DF93182FEB0197DFE12FF0E0EE0FFF1FF7
S1130FE0E45AF94FD183C083CD2BA9F0E12FE695C4
S1130FF0E695E695F0E0EF55FA4F4081177021E051
S113100030E0C90102C0880F991F1A95E2F7809554
S11310108423808313C0E12FE695E695E695F0E0FE
S1131020EF55FA4F4081177021E030E0C90102C04A
S1131030880F991F1A95E2F7842B80836CDFDF9168
S1131040CF911F910895282F30E0F901EE0FFF1F73
S1131050EE0FFF1FE657FA4F10821182128213829D
S1131060F901EF59F74F608194E6699FB0011124AB
S1131070909189059F5F890FA9CF08952F923F9280
S11310804F925F926F927F928F929F92AF92BF9294
S1131090CF92DF92EF92FF920F931F93CF93DF9340
S11310A0382E90E0FC01EE0FFF1F8E0F9F1FFC01F6
S11310B0E953FB4F4490512CB12C032D10E0E8016F
S11310C0CD57D74FC801880F991F9C012559364F1A
S11310D03901FC01E855F74F6F01C801880F991FCA
S11310E0880F991F9C0126573A4F4901780188813E
S11310F08F5F8883841123C01882209089052394EC
S11311002394230C00DFE22DF0E0EE0FFF1FE45ADE
S1131110F94FA080B180FFDEA094B094F301B182B6
S1131120A082F601808191818A159B0510F4B18219
S1131130A0826FEF7FEF822D49DFBB24B394F401CB
S113114080819181A281B381088004C0B695A7955E
S1131150979587950A94D2F780FF03C0539454144B
S113116028F2541012C0832D6EDFF701ED57F74FAC
S113117080818F5F581629F0F701ED57F74F808370
S113118004C0F701ED57F74F1082F701E857F74F06
S113119010828B2DDF91CF911F910F91FF90EF90D3
S11311A0DF90CF90BF90AF909F908F907F906F9083
S11311B05F904F903F902F9008950F931F93CF937C
S11311C0DF93E82FF0E0DF01AB56B74F9C919230EC
S11311D021F4FD01108280E058C0DF01A295B29590
S11311E0B07FBA27A07FBA27AB58B04F18962D917D
S11311F03C9119972F5F3F4F19963C932E93189764
S1131200DF01A257BA4F9C919F5F9C93DF01A954C1
S1131210B74F2C91921338C0DF01AD57B74F41E05F
S113122050E060E070E00C9004C0440F551F661F4E
S1131230771F0A94D2F7DF01AA0FBB1FAA0FBB1FA7
S1131240ED01CB59D04F088119812A813B81042BB0
S1131250152B262B372B088319832A833B83A65708
S1131260BA4F0D911D912D913C911397402B512B09
S1131270622B732B4D935D936D937C931397E2577D
S1131280FA4F1082FBDE01C080E0DF91CF911F9105
S11312900F910895CF92DF92EF92FF92CF93C82FD0
S11312A06A017B0130DEEC2FF0E0EE0FFF1FEE0F42
S11312B0FF1FE454FA4FC082D182E282F382CD2828
S11312C0CE28CF28A9F0EC2FE695E695E695F0E038
S11312D0E556FA4F4081C77021E030E0C90102C0F1
S11312E0880F991FCA95E2F780958423808313C0E1
S11312F0EC2FE695E695E695F0E0E556FA4F408149
S1131300C77021E030E0C90102C0880F991FCA9557
S1131310E2F7842B8083FFDDCF91FF90EF90DF9085
S1131320CF900895CF93C82FEEDDEC2FE695E69588
S1131330E695F0E0EF55FA4F208130E08C2F87706E
S113134002C0359527958A95E2F720FF0DC0EC2F52
S1131350F0E0EE0FFF1FE45AF94F20813181C1E024
S1131360232B19F0C0E001C0C0E0D5DD8C2FCF9154
S11313700895CF93C82FC7DDEC2FE695E695E69543
S1131380F0E0E556FA4F208130E08C2F877002C0E0
S1131390359527958A95E2F720FF13C0EC2FF0E0EE
S11313A0EE0FFF1FEE0FFF1FE454FA4F40815181EF
S11313B062817381C1E0452B462B472B19F0C0E0B5
S11313C001C0C0E0A8DD8C2FCF910895ACDD109250
S11313D080008AEE8093810080E29EE490938900ED
S11313E080938800EFE6F0E080818260808380E073
S11313F090E02FEFFC01E255FA4F208301968C30E8
S11314009105C1F780E090E02FEFFC01EF55FA4F12
S1131410208301968D309105C1F78FEF80939B0552
S113142080939C0580939D0580939E0580939F05E2
S11314308093A00508951F920F920FB60F92112466
S11314400BB60F922F933F934F935F936F937F93BA
S11314508F939F93AF93BF93EF93FF9380919905DD
S11314608F5F8093990580E090E061E070E0282F21
S113147026952695269530E0F901E654FA4F4081E9
S1131480A82FA77050E00A2E02C0559547950A94DC
S1131490E2F740FD14C0FC01EC58F84F4081415084
S11314A0408341110CC0F901E654FA4F40819B017D
S11314B002C0220F331FAA95E2F7242B2083019642
S11314C088309105A1F680917A0590917B05A091D1
S11314D07C05B0917D050196A11DB11D80937A050F
S11314E090937B05A0937C05B0937D05FF91EF91CC
S11314F0BF91AF919F918F917F916F915F914F9128
S11315003F912F910F900BBE0F900FBE0F901F9025
S11315101895FF920F931F93CF93DF93F894F09055
S11315209905109299057894FF2009F4D2C010E02F
S113153040E050E021E030E0809174099091750919
S1131540A0917609B09177090196A11DB11D8093F0
S1131550740990937509A0937609B0937709CA0129
S1131560F894682F66956695669570E0FB01E255E0
S1131570FA4FE081A82FA770F0E00A2E02C0F5957B
S1131580E7950A94E2F7E0FD14C0FC01E45EF84F2D
S1131590B081B150B083B1110CC0FB01E255FA4FD8
S11315A0B081B90102C0660F771FAA95E2F76B2BD1
S11315B06083789401968835910591F6CA01F89470
S11315C0682F66956695669570E0FB01EF55FA4FB6
S11315D0E081C82FC770F0E00C2E02C0F595E795A6
S11315E00A94E2F7E0FD1AC0DC01AA0FBB1FA45A5B
S11315F0B94FED91FC91119731971196FC93EE93AD
S1131600EF2B61F4FB01EF55FA4FA081B90102C041
S1131610660F771FCA95E2F76A2B60837894019668
S11316208036910561F6BA01F894E62FE695E695C1
S1131630E695F0E0DF01A556BA4F8C91062F0770AE
S113164090E0002E02C0959587950A94E2F780FDFC
S113165021C0EB01CC0FDD1FCC0FDD1FC454DA4FCA
S113166088819981AA81BB810197A109B1098883E5
S11316709983AA83BB83892B8A2B8B2B59F4E55638
S1131680FA4FA081C90102C0880F991F0A95E2F799
S11316908A2B808378946F5F7F4F6832710521F6BF
S11316A0809176058F5F843619F0809376050EC09D
S11316B010927605809167099091680990937A0950
S11316C08093790950936809409367091F5F1F113C
S11316D033CFDF91CF911F910F91FF900895A8957B
S11316E080916709909168090196909368098093A5
S11316F0670980919A05E82FF0E0E45EF84F908145
S113170090959093BD0820919708291710F4909311
S113171097086FEF23CC08954F925F926F927F9258
S1131720AF92BF92CF92DF92EF92FF920F931F93EB
S1131730CF93DF93EC015B0129013A0121153105B7
S113174041055105F1F0C12CD12C7601C5018C0D58
S11317509D1DFE0119958027282F30E0F901E654DC
S1131760FD4F04910127F901E654FE4F1491FFEF58
S1131770CF1ADF0AEF0AFF0AC414D504E604F704FB
S113178029F7802F90E0912BDF91CF911F910F913A
S1131790FF90EF90DF90CF90BF90AF907F906F90CD
S11317A05F904F9008950F931F930FEF1FEFB4DFD7
S11317B01F910F9108950F931F932CE030E040E0A8
S11317C050E060E070E084EE92E0EDDF2BEF3FE06C
S11317D02C50304040E050E08C0161E170E084EE38
S11317E092E09ADF1F910F9108958091550B81FD2E
S11317F006C0E1DFBC018EE090E00C94A7360895AA
S11318000E949936F2CF08950A9A129808951F9269
S11318100F920FB60F9211240BB60F922F933F9392
S11318204F935F936F937F938F939F93AF93BF93E4
S1131830EF93FF9385B5887F85BDEEE6F0E0808168
S11318408D7F808386E490E00E948103FF91EF9175
S1131850BF91AF919F918F917F916F915F914F91C4
S11318603F912F910F900BBE0F900FBE0F901F90C2
S113187018951F920F920FB60F9211240BB60F9268
S11318802F933F934F935F936F937F938F939F9384
S1131890AF93BF93EF93FF93E1EBF0E08081887FF8
S11318A08083E0E7F0E080818D7F808382EB90E0AD
S11318B00E948103FF91EF91BF91AF919F918F910E
S11318C07F916F915F914F913F912F910F900BBE3C
S11318D00F900FBE0F901F9018951F920F920FB686
S11318E00F9211240BB60F922F933F934F935F9354
S11318F06F937F938F939F93AF93BF93EF93FF93D4
S1131900E1EAF0E08081887F8083E2E7F0E0808193
S11319108D7F808384EA90E00E948103FF91EF91A0
S1131920BF91AF919F918F917F916F915F914F91F3
S11319303F912F910F900BBE0F900FBE0F901F90F1
S11319401895FF920F931F93CF93DF93C82FD0E086
S11319508E01000F111F0C0F1D1FC8018B5F9F4FBD
S11319600E948C36F82E0A5F1F4FC8010E948C36E5
S1131970F11004C0813039F09EE808C091E0F916F6
S113198021F096EB03C096E801C096EA24E12C9F6F
S1131990F0012D9FF00D1124EE50FB4FA591B49151
S11319A09F779C93FF2029F0813019F061E0C801F2
S11319B027DFDF91CF911F910F91FF900895CF936F
S11319C0DF93C82FD0E0CE01880F991F8C0F9D1F85
S11319D0895F9F4F0E948C36FE01E858F64F808342
S11319E090E09C01220F331F820F931F80509B4F66
S11319F024E12C9FF0012D9FF00D1124EA50FB4FA0
S1131A00A591B491FC0124912C9324E12C9FF00125
S1131A102D9FF00D1124EC50FB4FA591B491FC01C6
S1131A203196E491EC93FE01EE0FFF1FCE0FDF1F02
S1131A30FE01EE0FFF1FE452FB4FA591B491FC0190
S1131A40329684918C93DF91CF910895CF93DF9355
S1131A50C82FD0E0FE01E158F84F83E0808384E191
S1131A608C9FF0018D9FF00D1124E850FB4F859160
S1131A709491FC01199584E18C9FF0018D9FF00DE8
S1131A801124E451FB4FA591B491FC2FEE27EC5E99
S1131A90FF4E80818C9384E18C9FF0018D9FF00D2B
S1131AA01124E251FB4FA591B4918C9180648C93E5
S1131AB084E18C9FF0018D9FF00D1124E051FB4FC8
S1131AC0A591B4918C9180628C93DF91CF9108950C
S1131AD0CF93DF93ECEEF4E02591349182179307D2
S1131AE091F040E054E14F5FC42FD0E05C9FF001DF
S1131AF05D9FF00D1124E451FB4F25913491821721
S1131B00930789F703C0C0E0D0E040E0FE01E1584C
S1131B10F84F2081223009F449C028F4222339F0F7
S1131B202130D1F056C0263008F451C052C0FC0117
S1131B308081FC2FEE27EC5EFF4E8083FE01EE0FCA
S1131B40FF1FCE0FDF1FFE01EE0FFF1FE652FB4FFC
S1131B50A591B4911C923DC0FE01E158F84F82E07A
S1131B60808321E030E00C2E02C0220F331F0A9440
S1131B70E2F7209580919805282320939805FE018B
S1131B80E454F74F1082842F0E94FF02CE01880F85
S1131B90991FC80FD91FCE01880F991F82529B4FDE
S1131BA0FC0125913491F901199513C0842F0E94E9
S1131BB0FF02FE01EE0FFF1FCE0FDF1FFE01EE0F2F
S1131BC0FF1FE652FB4FA591B4911C9202C0FC0189
S1131BD08081DF91CF910895EF92FF921F93CF936D
S1131BE0DF93C82FD0E0FE01E454F74F20814091E9
S1131BF0980550E0BA0102C0759567958A95E2F799
S1131C0060FD1AC02330D0F022507C2F66276C5E12
S1131C107F4EFB01E20FF11DE080F18030E040E0F7
S1131C2050E088EB92E0BFDD11E0E816F90609F414
S1131C3010E01123F9F003C011E001C011E0FE012E
S1131C40E295F295F07FFE27E07FFE27EB58F04FF8
S1131C508281938101969383828384E18C9FF00136
S1131C608D9FF00D1124E450FB4F85919491FC015C
S1131C7019951BC0FE01E295F295F07FFE27E07FE7
S1131C80FE27EB58F04F208131812F5F3F4F318386
S1131C90208384E18C9FF0018D9FF00D1124E2508C
S1131CA0FB4F25913491F9011995812FDF91CF9143
S1131CB01F91FF90EF900895CF93DF93682F70E00A
S1131CC0FB01E454F74F20812250762F66276C5E87
S1131CD07F4EEB01C20FD11D30E040E050E088EBB5
S1131CE092E061DD99838883DF91CF910895282F55
S1131CF030E070E0322F2227F901EC5EFF4EE60F50
S1131D00F71F8181620F731FFB01EC5EFF4E208180
S1131D1090E0922B0895CF92DF92EF92FF920F936F
S1131D201F93CF93DF93F82EC82FD0E0FC2FEE271C
S1131D30EC5EFF4E8181863081F020F48150843046
S1131D4038F0E7C08F30D9F0803109F4B3C0E1C076
S1131D50C454D74F88E08883DCC0FE01E454F74FB5
S1131D6088E080838F2D0E944503DC2FCC27CC5E36
S1131D70DF4EFC0121812C8380818D83CAC064E005
S1131D808F2DB5DF8C0196958795969587959695B9
S1131D90879598012770332741E0232B09F440E00D
S1131DA0242F280FFC2FEE27EC5EFF4E2683DE0146
S1131DB0A454B74F275F2C93E80FF91F1782FE0135
S1131DC0EB56F74F8081823009F1FE01E295F295DE
S1131DD0F07FFE27E07FFE27E55EFA4FC590D490A2
S1131DE08F2D0E94E7020196FC0185919491FE01DA
S1131DF0E857F74F2081FC0137E0239FE00DF11DE8
S1131E001124359685919491B82F0CC0FE01EE0FE4
S1131E10FF1FEE0FFF1FEE0FFF1FE057FA4FC680A4
S1131E20D780B0E00115110509F473C0A0E061E0AA
S1131E3070E0DC2FCC278A2F8B0F9A2F96959695DE
S1131E4096950F2EF7E0EF2EF02DE90E2A2F27702E
S1131E50AB0102C0440F551F2A95E2F79A01982F4F
S1131E60969596959695F601E90FF11D408150E0FF
S1131E708770FA0102C0F595E7958A95E2F7E0FFCD
S1131E8009C0FE01EE0DF11DEC5EFF4E8081282B92
S1131E90208309C0FE01EE0DF11DEC5EFF4E20957E
S1131EA0808128232083AF5F2A2F30E02017310759
S1131EB010F22FC01C2F00270C5E1F4EF8018581E5
S1131EC0880F8683FE01E454F74F875F80838F2D4C
S1131ED00E944503F80125812223D9F040E0E8015E
S1131EE098012B5F3F4F542F550FA42FB0E0AA0F3A
S1131EF0BB1FA80FB91FFE01E50FF11D11965C91E0
S1131F00119757835C9150874F5FF90150814517B2
S1131F1050F38F2DD1DEDF91CF911F910F91FF9060
S1131F20EF90DF90CF900895CF93C82F0E94E702DF
S1131F30BC01FC013196459154912C2F30E0F901FC
S1131F40E857F74F808197E0899F400D511D112478
S1131F50FB016491F22FEE27EC5EFF4E6083FA01E1
S1131F608491F22FEE27EC5EFF4E8183FA013296C4
S1131F70E491B22FAA27AC5EBF4E1296EC93FA01FD
S1131F803196E491B22FAA27AC5EBF4E1396EC9320
S1131F90FA013496E491B22FAA27AC5EBF4E149690
S1131FA0EC93FA0133964491B22FAA27AC5EBF4E4C
S1131FB015964C938C2FAFDECF910895282F30E0E7
S1131FC0F22FEE27EC5EFF4ED901AA0FBB1FAA0F1A
S1131FD0BB1FAA0FBB1FA057BA4F9C9190831196A9
S1131FE09C911197918312969C91129713964C9100
S1131FF013974283938314969C91149715964C914E
S113200044839583F901EB56F74F92E0908383CE96
S113201008956F927F928F929F92AF92BF92CF92C8
S1132020DF92EF92FF920F931F93CF93DF93D82EFB
S1132030C82FD0E0FE01E158F84F8081882319F0C1
S1132040823031F06FC3C158D84F81E088836AC3AE
S113205084E0FE01E158F84F80838D2DBDDD882397
S113206029F0C158D84F81E088835CC3FC2FEE2748
S1132070EC5EFF4E8081882359F0FE01E059F74F52
S11320809081891729F0C158D84F81E088834AC3C9
S113209084E18C9F80018D9F100D112406501B4FED
S11320A0F80125913491F9011995FE01E295F29513
S11320B0F07FFE27E07FFE27EB58F04F8681978163
S11320C001969783868362E08D2D11DE7C01FC2FBF
S11320D0EE27EC5EFF4EC1808C2D90E0FC01319721
S11320E0E031F10508F0C9C2EA59FF4F0C94C1333D
S11320F0FC2FEE27EC5EFF4E8081882309F4C1C0DB
S1132100FE01E454F74F8081883059F0FC2FEE270C
S1132110EC5EFF4E83E082830F2EF3E0FF2EF02D62
S1132120B6C264E08D2DE3DDAC018E0D9F1DF1E0A0
S1132130CF120FC0FE01E295F295F07FFE27E07FFB
S1132140FE27E35EFA4F259134912817390778F07A
S113215018C0FE01E295F295F07FFE27E07FFE278E
S1132160EF5DFA4F2591349128173907B0F4FC2F0D
S1132170EE27EC5EFF4E82E082836894FF24F1F840
S113218086C2FE01E295F295F07FFE27E07FFE27EE
S1132190E55EFA4FA591B4910BC0FE01E295F2956C
S11321A0F07FFE27E07FFE27E15EFA4FA591B49110
S11321B021E0CA0187709927892B09F420E0CA011C
S11321C0969587959695879596958795820FFC2F7A
S11321D0EE27EC5EFF4E8283FE01E454F74F8B5FE3
S11321E080834115510509F44FC0C12C20E030E033
S11321F081E090E0BC2EAA242E0D3F1D6C2D669527
S1132200669566950F2EF3E09F2EF02D960EEC2D1D
S1132210E7703C0102C0660C771CEA95E2F7B9014D
S11322207695679576956795769567956A0F7B1F82
S1132230FB01608170E027703327FB0102C0F59534
S1132240E7952A95E2F7E0FF0AC09501290D311DB3
S11322502C5E3F4EF9016081662960830AC09501B6
S1132260290D311D2C5E3F4E6094F9016081662179
S11322706083C3942C2D30E02417350708F4BCCFB9
S113228005C0FF24FA9403C2F12C01C2F12CFFC152
S1132290FC2FEE27EC5EFF4E8081882309F485C075
S11322A0FE01E454F74F8081883059F0FC2FEE276B
S11322B0EC5EFF4E83E082830F2EF3E0FF2EF02DC1
S11322C0E6C1FC2FEE27EC5EFF4E4581C701840F6B
S11322D0911DF3E0CF120FC0FE01E295F295F07F5D
S11322E0FE27E07FFE27EB5DFA4F259134912817F6
S11322F0390778F018C0FE01E295F295F07FFE27C9
S1132300E07FFE27E75DFA4F2591349128173907BE
S1132310B0F4FC2FEE27EC5EFF4E82E082836894DB
S1132320FF24F1F8B4C1FE01E295F295F07FFE2797
S1132330E07FFE27ED5DFA4F859194910BC0FE017D
S1132340E295F295F07FFE27E07FFE27E95DFA4FE4
S113235085919491EE0CFF1C8E0D9F1D440FBC2F94
S1132360AA27AC5EBF4E12964C931297FE01E4541A
S1132370F74F4B5F408315966C9115976623C1F018
S1132380FC0140E09D01542F550F7901E50EF11C2D
S11323905181D70113965C9380813296D7011496AC
S11323A08C934F5F4613EFCF05C0FF24FA946FC19F
S11323B0F12C6DC1F12C6BC1FE01E454F74F808107
S11323C0883059F0FC2FEE27EC5EFF4E83E08283C9
S11323D00F2EF3E0FF2EF02D5AC1FE01E295F29587
S11323E0F07FFE27E07FFE27EB5DFA4F8591949105
S11323F097012F5F3F4F8217930750F4FC2FEE276E
S1132400EC5EFF4E82E082836894FF24F1F83FC1C2
S113241088E0FE01E454F74F8083FE01E295F295D3
S1132420F07FFE27E07FFE27ED5DFA4F85919491C2
S1132430EE0CFF1CE80EF91E64E08D2D58DCF7014C
S113244091838083F12C23C164E08D2D50DCFC2F1B
S1132450EE27EC5EFF4EA681FE01E454F74F408167
S113246050E02A2F30E0275F3F4F42175307B9F45B
S113247021E030E0BC0167707727672B11F420E07E
S113248030E0BC0176956795769567957695679566
S1132490260F371F4A2F50E02417350759F0FC2F19
S11324A0EE27EC5EFF4E83E082830F2EF3E0FF2ED7
S11324B0F02DEDC0FE01E295F295F07FFE27E07F5E
S11324C0FE27E35EFA4F25913491AC014E0D5F1D5A
S11324D02417350750F4FC2FEE27EC5EFF4E82E004
S11324E082836894FF24F1F8D2C0FE01E295F2954C
S11324F0F07FFE27E07FFE27E55EFA4F25913491B9
S113250048E0FE01E454F74F4083C12CE1E0F0E0E1
S11325107C2F6627AB014C5E5F4E3A0136C0DA0170
S1132520AE0DBF1DAD0156954795569547955695E9
S11325304795A770BB275F0102C0AA0CBB1CAA95D4
S1132540E2F7AC2DA695A695A695B3016A0F711D69
S1132550DB011796AC91B0E07C2D7770072E02C09A
S1132560B595A7950A94E2F7A0FF07C0D901A40F77
S1132570B51F4C91A42AAC9207C0D901A40FB51F72
S1132580A0944C914A214C93C3944C2D50E048178D
S1132590590728F2F12C7BC0FC2FEE27EC5EFF4E8E
S11325A0868190E0FE01E454F74F408150E09C01A5
S11325B0275F3F4F4217530761F4FC2FEE27EC5E71
S11325C0FF4E4581242F30E0220F331F82179307DB
S11325D059F0FC2FEE27EC5EFF4E83E082830F2E32
S11325E0F3E0FF2EF02D53C0FE01E295F295F07F4B
S11325F0FE27E07FFE27EB5DFA4F859194919701CA
S1132600240F311D8217930750F4FC2FEE27EC5E44
S1132610FF4E82E082836894FF24F1F838C088E09A
S1132620FE01E454F74F8083FE01E295F295F07FBA
S1132630FE27E07FFE27ED5DFA4F85909490C12C34
S11326409C2F8827DC01A75EBF4E3D0110C05701B7
S1132650AC0CB11CAA0CBB1CA80CB91C6C2D660FCD
S1132660695F8D2D44DBF50191838083C394D3018D
S11326708C91C81660F3F12C0AC0FC2FEE27EC5E97
S1132680FF4E81E08283808181110BC01CC0FC2F2E
S1132690EE27EC5EFF4E8081882399F0FF2079F0CD
S11326A002C0FF24F394FC2FEE27EC5EFF4E8181E1
S11326B08068818385E0FE01E454F74F80838D2D8B
S11326C0FBDAFF2071F0FE01E295F295F07FFE2720
S11326D0E07FFE27EB58F04F848195810196958326
S11326E08483FC2FEE27EC5EFF4E8081882319F053
S11326F08D2DACD917C0FE01E295F295F07FFE272F
S1132700E07FFE27EB58F04F8085918501969187F5
S11327108087C158D84F81E08883F80185919491CE
S1132720FC011995DF91CF911F910F91FF90EF90CC
S1132730DF90CF90BF90AF909F908F907F906F90DD
S1132740089524E1829FC0011124FC01E650FB4F4F
S113275085919491FC0119950895CF93DF93C82F27
S1132760D0E0CE01885F9F4F0E948C36C059D74F6E
S11327708883DF91CF9108956F927F929F92AF9259
S1132780BF92CF92DF92EF92FF920F931F93CF935A
S1132790DF93D82EC82FD0E0FE01E158F84F808196
S11327A0882319F0823071F096C2809189058E5F7A
S11327B06FEF7FEF8D0D0E94E6078D2DB5DB8D2D1C
S11327C045D989C284E0FE01E158F84F8083FE01B7
S11327D0EB56F74F908181E0923009F080E08093CE
S11327E08F058D2DF9D9882321F08D2D0E94DD08C8
S11327F062C284E18C9FF0018D9FF00D1124E6509C
S1132800FB4F85919491FC01199580918F05882344
S113281061F0FE01EE0FFF1FEE0FFF1FEE0FFF1F13
S1132820E057FA4F8081218115C08D2D0E94E70267
S11328308C01FC013196E590F490FE01E857F74FC6
S11328408081F7E08F9FE00CF11C1124F801849142
S1132850F7012491FC2FEE27EC5EFF4E9081981334
S113286007C0FC2FEE27EC5EFF4E4181421721F09A
S11328708D2D0E94DD081FC2842F90E0FC0131974A
S1132880E031F10508F0BCC1EA58FF4F0C94C133A4
S113289080918F05882359F0FE01EE0FFF1FEE0F84
S11328A0FF1FEE0FFF1FE057FA4F548103C0F701DB
S11328B033965491FC2FEE27EC5EFF4E828190E01C
S11328C0FE01E454F74F608170E09C012B5F3F4FA1
S11328D06217730709F089C0652F6695669566953A
S11328E070E021E030E0E52FE77011F420E030E003
S11328F0260F371F8217930709F07AC080918F053E
S1132900882369F0FE01EE0FFF1FEE0FFF1FEE0F8D
S1132910FF1FE057FA4FA681B781C12C1EC041307A
S113292061F4FE01E295F295F07FFE27E07FFE2739
S1132930E55EFA4FA591B4910BC0FE01E295F295C4
S1132940F07FFE27E07FFE27E15EFA4FA591B49168
S1132950F701359685919491C82EA52EB12CA1141A
S1132960B10409F448C020E030E081E090E05C2F3D
S11329704427BA016C5E7F4E7B014C2D420F942E8E
S11329809694969496944770FC0102C0EE0FFF1F34
S11329904A95E2F7AF01F901F695E795F695E795C3
S11329A0F695E795EE0DFF1DE381F0E0B901677040
S11329B077273F0102C0759467946A95E2F760FE39
S11329C007C0FD01E90DF11D5081452B408307C06F
S11329D0FD01E90DF11D40955081452340832F5F92
S11329E03F4F2A153B0548F208C0BB24B39408C1E5
S11329F0BB24B39405C1B12C03C1B12C01C1FC2F7C
S1132A00EE27EC5EFF4E5281FE01E454F74F208125
S1132A1030E0852F90E005962817390709F06AC041
S1132A2080918F05882371F0FE01EE0FFF1FEE0FDA
S1132A30FF1FEE0FFF1FE057FA4F84819581880F27
S1132A40991F06C0F701339685919491880F991FB9
S1132A50252F30E02817390709F04FC080918F05E2
S1132A60882361F0FE01EE0FFF1FEE0FFF1FEE0F34
S1132A70FF1FE057FA4FA680B78022C0433061F4AD
S1132A80FE01E295F295F07FFE27E07FFE27ED5DE3
S1132A90FA4F859194910BC0FE01E295F295F07F77
S1132AA0FE27E07FFE27E95DFA4F85919491F701B7
S1132AB0359625913491220F331F5C01A20EB31E6B
S1132AC05695CC24CA94C50EDAF0550F99249394E4
S1132AD0950EEC2CEE0CFF08EA0CFB1C692D8D2DD9
S1132AE006D9F70191838083CA949A949A94CC204E
S1132AF084F708C0BB24B39483C0BB24B39480C0C0
S1132B00B12C7EC0B12C7CC080918F05882371F0DC
S1132B10FE01EE0FFF1FEE0FFF1FEE0FFF1FE0572A
S1132B20FA4FA280B380E680F78018C0F70131968F
S1132B30A590B490FE01E295F295F07FFE27E07F28
S1132B40FE27ED5DFA4F85919491F7013596259115
S1132B503491220F331F7C01E20EF31EFE01E45474
S1132B60F74F8081883099F462E08D2DC0D88A15A2
S1132B709B0579F464E08D2DBAD841E0F7012081FA
S1132B8031818217930709F440E0842F03C081E068
S1132B9001C081E0B82E34C080918F05882371F084
S1132BA0FE01EE0FFF1FEE0FFF1FEE0FFF1FE0579A
S1132BB0FA4FA280B380E480F58008C0F701319613
S1132BC0A590B490F7013396E590F490FE01E45497
S1132BD0F74F8081883081F462E08D2D88D88A1582
S1132BE09B0561F464E08D2D82D821E08E159F054C
S1132BF009F420E0822F03C081E001C081E0B82EF7
S1132C00BB2091F0FE01E295F295F07FFE27E07F74
S1132C10FE27EB58F04F8481958101969583848338
S1132C208D2D0E94DD0847C080918F05882331F0E7
S1132C30CB56D74F188265E070E048C0FE01EE0F16
S1132C40FF1FEE0FFF1FBF016B59704F81E090E033
S1132C50A0E0B0E09E012D57374FF901008004C079
S1132C60880F991FAA1FBB1F0A94D2F780959095CD
S1132C70A095B095FB0140815181628173818423C9
S1132C809523A623B72380839183A283B383FE0174
S1132C90E857F74F80818F5F8083F8013396E49182
S1132CA08E1304C08D2D0E943E0801C080E0FE01F9
S1132CB0E257FA4F1082882339F0CC0FDD1FCD562E
S1132CC0D74F6881798102C065E070E08091890501
S1132CD08D0D0E94E607DF91CF911F910F91FF9018
S1132CE0EF90DF90CF90BF90AF909F907F906F90C8
S1132CF00895E82FF0E0ED59F04F608170E0909175
S1132D008905890F0C94E60708951F93CF93DF93E9
S1132D10ECEEF4E0259134918217930791F010E0E2
S1132D2044E11F5FC12FD0E04C9FF0014D9FF00D97
S1132D301124E451FB4F259134918217930789F7AD
S1132D4003C0C0E0D0E010E0FE01EB58FA4F608110
S1132D50462F50E0FE01E454F74F208130E022502A
S1132D6031094217530709F544E14C9F90014D9FE7
S1132D70300D112420513B4FF901A591B4914C9190
S1132D804F7D4C93F901A591B4912C9120642C931F
S1132D9024E12C9FF0012D9FF00D1124E251FB4FF3
S1132DA0A591B4912C9120642C936F5FFE01EB5894
S1132DB0FA4F6083FE01E454F74F2081621750F408
S1132DC0DC2FCC27C60FD11DCC5EDF4E2881FC0141
S1132DD0208330C084E18C9FF0018D9FF00D11247D
S1132DE0E051FB4FA591B4918C918F798C9384E140
S1132DF08C9FF0018D9FF00D1124E850FB4F8591BD
S1132E009491FC011995FE01EB58FA4F1082C158B8
S1132E10D84F81E08883E12FF0E0E55DFA4FE4913B
S1132E20EE2319F0E13021F005C0812F8ADC02C0C5
S1132E30812F5FDFDF91CF911F9108951F93CF936F
S1132E40DF93182FC0918905C80F81E08C0F0E9471
S1132E509209882319F0812F0E9423088C2F0E9445
S1132E609209882309F469C0F894C12FD0E0FE01C7
S1132E70E158F84F8081813029F485E0FE01E15862
S1132E80F84F80837894FE01E158F84F80818430B4
S1132E9031F1853009F051C0812F0E94DD08FE0117
S1132EA0EB56F74F8081882319F0813021F00AC056
S1132EB0812F3AD807C0C257DA4F8881811102C0E6
S1132EC0812F7CD8809189056FEF7FEF810F0E945D
S1132ED0E607F894812F0E94260D78942EC0F8946A
S1132EE084E18C9FF0018D9FF00D1124E650FB4F7F
S1132EF025913491F90119957894CB56D74F88814F
S1132F00882319F0813021F00CC0812F0DD809C01D
S1132F1080918F05882319F0812F06D802C0812F54
S1132F204DD8809189056FEF7FEF810F0E94E607EE
S1132F30F894812F0E94260D7894DF91CF911F91F0
S1132F4008958091640F80FF14C0F8948091640FF9
S1132F508E7F8093640F7894EBE2F5E0E491EE23A6
S1132F6019F0E13021F005C080E053D802C080E0C0
S1132F7003DCEBE2F5E0E491E13011F480E05ECFB4
S1132F8008951F920F920FB60F9211240BB60F9251
S1132F902F933F934F935F936F937F938F939F935D
S1132FA0AF93BF93EF93FF9386EC90E00E94680D7C
S1132FB0FF91EF91BF91AF919F918F917F916F910D
S1132FC05F914F913F912F910F900BBE0F900FBEC9
S1132FD00F901F9018951F920F920FB60F92112405
S1132FE00BB60F922F933F934F935F936F937F93FF
S1132FF08F939F93AF93BF93EF93FF9386EC90E0EF
S113300084DEFF91EF91BF91AF919F918F917F915A
S11330106F915F914F913F912F910F900BBE0F9045
S11330200FBE0F901F9018951F920F920FB60F921C
S113303011240BB60F922F933F934F935F936F938B
S11330407F938F939F93AF93BF93EF93FF9386ECFC
S113305090E05BDEFF91EF91BF91AF919F918F91D3
S11330607F916F915F914F913F912F910F900BBE84
S11330700F900FBE0F901F9018951F920F920FB6CE
S11330800F9211240BB60F922F933F934F935F939C
S11330906F937F938F939F93AF93BF93EF93FF931C
S11330A08EEC90E00E94680DFF91EF91BF91AF917B
S11330B09F918F917F916F915F914F913F912F914C
S11330C00F900BBE0F900FBE0F901F9018951F927C
S11330D00F920FB60F9211240BB60F922F933F93BA
S11330E04F935F936F937F938F939F93AF93BF930C
S11330F0EF93FF938EEC90E008DEFF91EF91BF9188
S1133100AF919F918F917F916F915F914F913F917B
S11331102F910F900BBE0F900FBE0F901F9018951C
S11331201F920F920FB60F9211240BB60F922F938A
S11331303F934F935F936F937F938F939F93AF933B
S1133140BF93EF93FF938EEC90E0DFDDFF91EF915F
S1133150BF91AF919F918F917F916F915F914F91AB
S11331603F912F910F900BBE0F900FBE0F901F90A9
S113317018951F93CF93DF93D62F172FC091740503
S1133180882331F0C13051F018F0C23029F12DC03C
S113319081E080937405C13089F539C060E181E034
S11331A00E94CD058F3F09F56FEF82E094E00E9405
S11331B0E60462E080E094E00E94E604612F84E08B
S11331C094E00E94E6046D2F85E094E00E94E604FA
S11331D082E08093740517C061E081E00E94CD0510
S11331E08F3F19F48093740512C0809174058C1775
S11331F071F0813019F0823031F009C060E080E074
S11332000E94CD0504C060E080E00E94CD0580915D
S11332107405DF91CF911F9108951F93CF93DF938E
S1133220D62F172FC0917305882331F0C13051F088
S113323018F0C23029F12DC081E080937305C130AC
S113324089F539C060E181E00E94FE058F3F09F5F0
S11332506FEF82E095E00E94E60462E080E095E092
S11332600E94E604612F84E095E00E94E6046D2F3D
S113327085E095E00E94E60482E08093730517C020
S113328061E081E00E94FE058F3F19F4809373058D
S113329012C0809173058C1771F0813019F082305F
S11332A031F009C060E080E00E94FE0504C060E0E7
S11332B080E00E94FE0580917305DF91CF911F91FC
S11332C00895CF93DF93EA01FB019081911109C026
S11332D09181911106C09281911103C09381992328
S11332E019F1209721F1811109C0CB010E946C06CC
S11332F0CE010E94600681E090E01EC0813049F456
S1133300CB010E948E06CE010E94820681E090E0ED
S113331013C0823079F4CB010E94B006CE010E9422
S1133320A40681E090E008C080E090E005C080E061
S113333090E002C081E090E0DF91CF910895AB016D
S113334010929C0F10929B0FBC0180E0BACF08959D
S1133350AB0110926B0810926A08BC0181E0B1CFF6
S113336008959B0160919B0F70919C0FAC0180E0CC
S11333700E944D0720919B0F30919C0F280F391FFD
S113338030939C0F20939B0F08959B0160916A08D2
S113339070916B08AC0181E00E944D0720916A088E
S11333A030916B08280F391F30936B0820936A08FB
S11333B00895CF93C0917205882331F0C13051F044
S11333C018F0C23089F02EC081E080937205C130BC
S11333D079F532C060E281E00E94FE058F3F11F56D
S11333E082E08093720528C062E070E081E00E9470
S11333F08F0584FD0DC062E070E081E00E948F05BE
S113340083FF10C048E162E070E081E00E94C305E0
S113341040E162E070E081E00E94C3058FEF809399
S113342072050AC0809172058C1731F0813021F445
S113343060E280E00E94FE0580917205CF910895BC
S1133440CF93C0917105882331F0C13051F018F049
S1133450C23089F02EC081E080937105C13079F5C6
S113346032C060E281E00E94CD058F3F11F582E019
S11334708093710528C062E070E080E00E948F05AF
S113348084FD0DC062E070E080E00E948F0583FF40
S113349010C048E162E070E080E00E94C30540E1B2
S11334A062E070E080E00E94C3058FEF80937105B5
S11334B00AC0809171058C1731F0813021F460E2EB
S11334C080E00E94CD0580917105CF9108951F93EE
S11334D0CF93DF93D62F172FC0917005882331F037
S11334E0C13051F018F0C23029F12DC081E0809331
S11334F07005C13089F539C060E181E00E942F0672
S11335008F3F09F56FEF82E096E00E94E60462E0E7
S113351080E096E00E94E604612F84E096E00E9439
S1133520E6046D2F85E096E00E94E60482E0809335
S1133530700517C061E081E00E942F068F3F19F4E7
S11335408093700512C0809170058C1771F08130E2
S113355019F0823031F009C060E180E00E942F064A
S113356004C061E080E00E942F0680917005DF9125
S1133570CF911F910895AB0110926A0910926909C5
S1133580BC0182E09ECE08959B016091690970910F
S11335906A09AC0182E00E944D07209169093091CB
S11335A06A09280F391F30936A092093690908951D
S11335B0AF92BF92CF92DF92EF92FF920F931F933D
S11335C0CF93DF931F921F92CDB7DEB77A836983BF
S11335D07A018901E981FA81F770C82ED12CD601CC
S11335E0AA0FBB1FAE59B74F8D919C918E0F9F1F91
S11335F02E0F3F1F21303840C8F020E038E0590139
S1133600AE1ABF0AA501B7010E94FD03A8014A1919
S11336105B09B7016A0D7B1DF601EE0FFF1FEE5922
S1133620F74F808191810E94FD0304C0A801B70176
S11336300E94FD030F900F90DF91CF911F910F9186
S1133640FF90EF90DF90CF90BF90AF900895DF92FE
S1133650EF92FF920F931F93CF93DF93D82E7B01AA
S11336608A0168E270E00E948F05C82FD0E069E209
S113367070E08D2D0E948F05DC2FCC27C82B98017C
S1133680A701BE018D2D94DFC00FD11F4D2F68E21D
S113369070E08D2D0E94C3054C2F69E270E08D2DE2
S11336A00E94C305DF91CF911F910F91FF90EF907E
S11336B0DF900895DF92EF92FF920F931F93CF93C1
S11336C0DF93D82E0FEF1FEFE12CF12C8D2D0E94EC
S11336D0AD05EC01009721F08D2D0E94AD057C0114
S11336E0EC16FD0629F0015011090115110571F7B9
S11336F0C701DF91CF911F910F91FF90EF90DF9061
S11337000895DF92EF92FF920F931F93CF93DF936D
S1133710D82E7B018A01CEDFEC01009799F463E097
S113372070E08D2D0E948F058431D9F08823C9F073
S1133730C1E0D0E08C3111F4C0E0D0E0D195C19566
S1133740D10904C0081719070CF4E8011C161D065A
S113375044F4AE01B7018D2D7ADF60E48D2D0E9413
S1133760FF04CE01DF91CF911F910F91FF90EF9055
S1133770DF9008950F931F93CF93DF931F92CDB7DC
S1133780DEB7082F10E0F801EE0FFF1FE555F74FE5
S113379020813181232BB1F041E050E0BE016F5F05
S11337A07F4FAFDF1816190684F4F801EE0FFF1FE0
S11337B0E555F74F808191810197918380838981B9
S11337C090E005C08FEF9FEF02C08FEF9FEF0F9047
S11337D0DF91CF911F910F910895DF92EF92FF92A5
S11337E00F931F93CF93DF93CDB7DEB728970FB610
S11337F0F894DEBF0FBECDBFD82EE82EF12CF70112
S1133800EE0FFF1FE555F74F20813181232B41F047
S11338108F018D2DAFDFF80120813181232BC9F772
S11338208D2D48DF18161906ACF548E050E0BE01AE
S11338306F5F7F4F8D2D65DF9C01181619063CF5CF
S113384089818093710F8A818093720F8B81809319
S1133850730F8C818093740FC701880F991FFC012B
S1133860E759F04F2D8130E0322F22274E81240F6B
S1133870311D318320832F8130E0322F2227488568
S1133880240F311DFC01E555F74F31832083822F2E
S1133890932F02C080E090E028960FB6F894DEBF24
S11338A00FBECDBFDF91CF911F910F91FF90EF908D
S11338B0DF90089580E091CF089581E08ECF089540
S11338C04091AB085091AC0841155105D9F06417EB
S11338D0750728F0BC0180E014DF9C0105C0AB0132
S11338E0BC0180E00EDF9C011216130674F4EBEAAF
S11338F0F8E080819181821B930B91838083822FD6
S1133900932F08958FEF9FEF08958FEF9FEF089502
S11339104091AD085091AE0841155105D9F0641796
S1133920750728F0BC0181E0ECDE9C0105C0AB0109
S1133930BC0181E0E6DE9C011216130674F4EDEA84
S1133940F8E080819181821B930B91838083822F85
S1133950932F08958FEF9FEF08958FEF9FEF0895B2
S113396080E008CF08958091850590918605A09107
S11339708705B09188050196A11DB11D8093850529
S113398090938605A0938705B093880580E0A3C033
S11339900895CF93C0916F05811103C010926F05F4
S11339A006C0C13099F018F0C23001F149C08091CD
S11339B06E05811104C00E94A00780936E0581E00A
S11339C080936F05C13009F041C044C060E281E0DA
S11339D00E942F068F3FA1F568EE73E080916E057B
S11339E00E94E60782E080936F0534C062E070E0D5
S11339F082E00E948F0584FD19C062E070E082E0DD
S1133A000E948F0583FF07C048E162E070E082E016
S1133A100E94C30515C080916E050E9492098823F7
S1133A2079F0A1DF8FEF80936F0514C040E162E06D
S1133A3070E082E00E94C3058FEF80936F050AC097
S1133A4080916F058C1731F0813021F460E280E0C1
S1133A500E942F0680916F05CF910895BF92CF9257
S1133A60DF92EF92FF920F931F93CF93DF937B012B
S1133A706A01E901B0906D05882331F0BB2021F083
S1133A8081E0B81639F00DC081E080936D05B8125D
S1133A900EC015C081E07DDF8F3F19F480936D0562
S1133AA00EC080916D058B1551F0813041F4B60143
S1133AB0C70161DDB801CE0167DD80E06ADF809176
S1133AC06D05DF91CF911F910F91FF90EF90DF90E3
S1133AD0CF90BF9008950F931F93CF93C0916C051F
S1133AE0811103C010926C0508C0C130A9F028F000
S1133AF0C23011F1C43051F14BC080916B0581117A
S1133B0004C00E94A00780936B0581E080936C053C
S1133B10C13009F047C0E5C069EE77E081E0D7DC49
S1133B208F3FB1F568EE73E080916B050E94E60764
S1133B3082E080936C05D5C080916B050E94920948
S1133B40882331F184E080936C0531C063E070E038
S1133B5082E00E948F05823219F010926C05C1C078
S1133B604091C1025091C2020EE310E020E837E018
S1133B7063EC72E081E072DF8F3F51F468EE73E032
S1133B8080916B050E94E60782E080936C05A9C0D2
S1133B9080916C058C1709F4A4C0813019F084302D
S1133BA031F09FC069EE77E080E091DC9AC0E0E8F4
S1133BB0F7E085E0808381E0809381079091BF02E4
S1133BC02091C002209382079093830780938407F7
S1133BD082E08093850783E18093860786E3809360
S1133BE0870780916C088093880780916D08809383
S1133BF0890780916E0880938A0780916F0880936B
S1133C008B0787E580938C0785E380938D0781E399
S1133C1080938E0780E380938F078093900780E2E0
S1133C208093910784E58093920795E4909393079A
S1133C3093E590939407809395078BE997E090938D
S1133C4099088093980810A2178E12A211A280914D
S1133C50AF029091B00294A383A38091BB02909190
S1133C60BC0296A385A38BE790E090A787A388E086
S1133C7097E092A781A788E998E094A783A78DEAA3
S1133C8097E090937E0780937D0780917A059091C9
S1133C907B05A0917C05B0917D05880F991FAA1F13
S1133CA0BB1FAC01BD01440F551F661F771F440F96
S1133CB0551F661F771F840F951FA61FB71F85A763
S1133CC096A7A7A7B0AB8AE18093BD074091C10234
S1133CD05091C2020EE310E09F0163EC72E080E0B9
S1133CE0BDDE80916C05CF911F910F9108958F9245
S1133CF09F92AF92BF92CF92DF92EF92FF920F9377
S1133D001F93CF93DF93CDB7DEB7A4970FB6F89484
S1133D10DEBF0FBECDBFE82ED62EC72E6894FF247B
S1133D20F5F88E010F5F1F4FF8018F2D11928A95C0
S1133D30E9F78FEF89A38AA38BA38CA363E470E0D4
S1133D40CE018196FCDA81E089838A8386E08B83C5
S1133D501C8240918F085091900860919108709155
S1133D609208872E9924AA24BB24B42FAA27992722
S1133D70882788299929AA29BB298824942EA52E25
S1133D80B62E88249924BB2488299929AA29BB29D9
S1133D90452F562F672F7727442766277727482BE9
S1133DA0592B6A2B7B2B4D835E836F837887C9865F
S1133DB0DA8680E890E09C878B876CE170E0C8012C
S1133DC0D0DAF8018F2D11928A95E9F786E0E1E7C0
S1133DD0F8E0D80101900D928A95E1F760E170E076
S1133DE0C801BFDAF8011192FA94E9F706E010E08D
S1133DF060E270E0CE010196B4DA015011090115B8
S1133E001105B1F783E6898392E89A8393E59B834E
S1133E108C8385E38D8381E08E83EF829DE3988795
S1133E2097E099878A8786E0E1E7F8E0DE011B9650
S1133E3001900D928A95E1F78CE0898B8A8B87E05B
S1133E40EBECF2E0DE01539601900D928A95E1F7D6
S1133E5060917408CE0149960E946D0760917508BF
S1133E60CE014B960E946D0760917608CE014D9667
S1133E700E946D076EE170E0CE01019672DAF3E004
S1133E80EF1224C082E3898384E08A8390916C08D2
S1133E909B8390916D089C8390916E089D83909173
S1133EA06F089E8396E39F8388878091C2078987E2
S1133EB08091C3078A878091C4078B878091C50747
S1133EC08C876CE070E0CE0101964BDA87E389833E
S1133ED086E08A8391E09B8393E09C838D838FE0CB
S1133EE08E838AE38F838BE388878FEF898769E0EA
S1133EF070E0CE01019635DAA4960FB6F894DEBFD1
S1133F000FBECDBFDF91CF911F910F91FF90EF9026
S1133F10DF90CF90BF90AF909F908F9008950F93B4
S1133F201F93CF93DF93062FEA0110916A0588232C
S1133F3029F0112319F0113039F00DC081E080937C
S1133F406A05113071F412C081E07ADA8F3F19F4F6
S1133F5080936A050BC090916A05911739F09130EE
S1133F6029F4BE01802FC3DE80E06ADA80916A05FD
S1133F70DF91CF911F910F9108952F923F924F920D
S1133F805F927F928F929F92AF92BF92CF92DF9275
S1133F90EF92FF920F931F93CF93DF93CDB7DEB7CA
S1133FA0A2970FB6F894DEBF0FBECDBF8A0182DCA4
S1133FB0181619060CF0F1C162E270E0CE01019608
S1133FC07FDC8981823009F0EAC18091690F909188
S1133FD06A0F8334910509F0E4C18D819E81AF811C
S1133FE0B885CB2EDD24EE24FF24782F66275527B1
S1133FF04427C42AD52AE62AF72A4427582F692FAA
S11340007A2F442755277727C42AD52AE62AF72A60
S1134010892F9A2FAB2FBB278827AA27BB27C82A0B
S1134020D92AEA2AFB2AF801C082D182E282F382E9
S113403046E050E061E778E0CE014D960E942634D8
S1134040892B09F0B0C18091510B9091520BA09132
S1134050530BB091540BC816D906EA06FB0608F4B4
S1134060A4C180918F0890919008A0919108B0917B
S113407092088C159D05AE05BF0508F498C1898981
S11340809A89AB89BC8980936C0890936D08A0933E
S11340906E08B0936F080EEC10E062DC0150110959
S11340A001151105D1F7712C0F2EFBEACF2EF8E084
S11340B0DF2EF02D812C912C0F2EF2ECAF2EF7E099
S11340C0BF2EF02D0F2EF9E64F2EFFE05F2EF02DC0
S11340D00F2EF3EC2F2EF7E03F2EF02D56C140DCCF
S11340E08333910509F405C17CF48130910529F1EC
S11340F024F4892B09F449C13DC18330910521F190
S1134100069709F439C036C18A33910509F47FC092
S11341103CF48533910569F0C69709F445C02AC17A
S11341208B33910509F4ACC08F3F910509F42DC17F
S113413021C116DC15DC782E28C112DC64E070E0A5
S11341408FE59FE00DDC21C10BDC7C0164E070E0B5
S11341508FE798E005DCFF24F4E0EF1AF1081E1461
S11341601F040CF012C1082D192DFADB0F5F1F4F2D
S11341700E151F05D4F309C1F3DB7C0164E070E084
S11341808DE89FE0EDDBFF2484E0E81AF1081E14BB
S11341901F040CF0FAC0082D192DE2DB0F5F1F4F2E
S11341A00E151F05D4F3F1C0DBDBF50190819111ED
S11341B00EC0F101908191110AC0E4ECF7E0908106
S11341C0911105C0E5ECF7E09081992399F0F50190
S11341D00081118122813381F20140815181628108
S11341E07381041715072607370721F0F82E81116C
S11341F006C0CBC064E070E0C501B2DBC6C0082DC8
S1134200192DAEDB0F5F1F4FF012FBCFBEC0A8DB32
S113421064E070E08AE998E0A3DB80919A089091C9
S11342209B08A0919C08B0919D080B2F1127222771
S11342303327782F662755274427042B152B262B45
S1134240372B4427582F692F7A2F44275527772750
S1134250042B152B262B372B492F5A2F6B2F7727FF
S1134260442766277727402B512B622B732B4093CF
S11342709A0850939B0860939C0870939D0885C08E
S11342806FDB64E070E088EB98E06ADB8091B8084B
S11342909091B908A091BA08B091BB080B2F1127CF
S11342A022273327782F662755274427042B152BDD
S11342B0262B372B4427582F692F7A2F442755272D
S11342C07727042B152B262B372B492F5A2F6B2F8F
S11342D07727442766277727402B512B622B732B94
S11342E04093B8085093B9086093BA087093BB0818
S11342F04CC036DB64E070E084E898E031DB809108
S1134300840890918508A0918608B09187080B2FA6
S1134310112722273327782F662755274427042B74
S1134320152B262B372B4427582F692F7A2F4427F8
S113433055277727042B152B262B372B492F5A2F3C
S11343406B2F7727442766277727402B512B622B27
S1134350732B409384085093850860938608709368
S113436087084093930F5093940F6093950F709325
S1134370960F0BC0F5DAF82E882339F0082D192D85
S1134380EFDA0F5F1F4FF012FBCFF60180819181AE
S1134390892B09F0A4CE872D0BC08FEF09C080E0D4
S11343A007C080E005C080E003C080E001C080E079
S11343B0A2960FB6F894DEBF0FBECDBFDF91CF91AA
S11343C01F910F91FF90EF90DF90CF90BF90AF902F
S11343D09F908F907F905F904F903F902F90089583
S11343E0CF92DF92EF92FF926B017C016115710510
S11343F08105910539F00E941134A70196010E94AC
S1134400A53303C060E070E0CB01FF90EF90DF9034
S1134410CF900895CF93C0916905811110C0809108
S1134420840581111EC08091C7028093840592E0A7
S1134430980F9093C7028F5F8093830512C0C53095
S1134440C9F130F4C13099F060F0C330E1F0D9C063
S1134450C73009F475C008F45CC0CF3F09F4C7C085
S1134460D0C081E0809369058C13D9C02BC164E46A
S113447070E081E00E94B9188F3F09F0C2C083E068
S11344808093690514C14AE050E061E081E047DDB2
S11344908F3F09F0B6C081E08093920F48EE53E05D
S11344A060E070E0809184050E944A0985E0809371
S11344B0690508C16091790870917A0880917B0838
S11344C090917C0845E85FE058DD8230A1F480914A
S11344D0850F9091860FA091870FB091880F8093DC
S11344E08F0890939008A0939108B093920886E067
S11344F080936905E2C0809184050E94B9098823EC
S113450021F081E0809369058AC085E08093690584
S1134510D9C044E650E063E081E001DD8F3F09F05B
S113452070C082E08093920F44EF51E060E070E04D
S1134530809184050E944A0987E080936905C2C07E
S11345406091790870917A0880917B0890917C0839
S113455045E85FE012DD8530B1F520916F0830E069
S113456040916E0850E060916D0870E080916C0895
S113457090E00E943E052091820830E0409181083D
S113458050E06091800870E080917F0890E00E9484
S113459059052091620F30E04091610F50E0609125
S11345A0600F70E080915F0F90E00E94740548EB0B
S11345B05BE060E070E0809183050E944A098FEF20
S11345C0809369057FC0863021F483E08093690578
S11345D06EC0809184050E94B909882321F081E08E
S11345E0809369051CC087E0809369056BC0809146
S11345F083050E94B909882321F086E08093690528
S11346005CC0809169058C1709F45CC0833009F49F
S11346104EC0863009F451C0813009F053C06FECAC
S113462077E080E090E0DCDEDC01CB010196A11DA7
S1134630B11D80938F0890939008A0939108B09334
S113464092088093510B9093520BA093530BB09309
S1134650540B10926C0810926D0810926E08109210
S11346606F0810925F0F1092600F1092610F1092FA
S1134670620F10927F0810928008109281081092A5
S113468082081092C2071092C3071092C4071092B6
S1134690C50710928D0F10928E0F10928F0F1092EB
S11346A0900F64E470E080E00E94B9180BC04AE007
S11346B050E061E080E033DC05C04AE050E063E0B4
S11346C080E02DDC80916905CF910895AF92BF926F
S11346D0CF92DF92EF92FF920F931F93CF93DF93CA
S11346E0CDB7DEB760970FB6F894DEBF0FBECDBF6F
S11346F0A2960EAD1FADA29781E3F80180838EE2EE
S1134700818383E3828313826F96DFAC6F97DA949D
S113471009F44EC021E0A12CB12C0F2EFEE2EF2EA5
S1134720F12CF02D8A2D9B2DCC24C394C20EEEE1E6
S1134730F0E0EC0FFD1FE20FF11D20819695982FFC
S1134740882797958795322F3F77830F911DDA94A9
S113475021F02223C4F42C2DE7CF4AE0BE016F5F81
S11347607F4F0E944734F80101900020E9F7319708
S11347708EE290E091838083BE016F5F7F4FC8011A
S11347800E94333415C04AE0BE016F5F7F4F0E9420
S11347904734F80101900020E9F73197F182E08273
S11347A0BE016F5F7F4FC8010E9433342C2DBACFF6
S11347B060960FB6F894DEBF0FBECDBFDF91CF91E8
S11347C01F910F91FF90EF90DF90CF90BF90AF902B
S11347D0089520E4FC0111922A95E9F7FC01E05CBC
S11347E0FF4F1182108208958F929F92AF92BF92D1
S11347F0CF92DF92EF92FF920F931F93CF93DF93A9
S1134800CDB7DEB760970FB6F894DEBF0FBECDBF4D
S11348108C017B01FC01EE5BFF4F8081843009F445
S11348207DC0863009F46DC0843409F066C076C05A
S113483081E3D7018C938EE211968C93119783E3D5
S113484012968C93129713961C92F801E05CFF4F1A
S1134850B080BA9411F181E0812C912C0F2EFEE2EC
S1134860CF2ED12CF02D282D392DAA24A394A80EB7
S1134870F801E80FF11D80813695322F22273795F4
S11348802795982F9F77290F311DBA9409F453C0A7
S113489088230CF067C08A2DE8CF80E079C0F80146
S11348A0ED5BFF4F10823397208131812115310553
S11348B0D1F080E090E060E03396A801405C5F4F67
S11348C0D801A60FB11D2C91D701A80FB91F2C93A5
S11348D060816F5F6083862F90E0DA012D913C91B7
S11348E08217930768F3F701E20FF31F108280E049
S11348F04FC0C8016EDF81E04BC0C8016ADF87E0AA
S113490047C0FB0101900020E9F7CF01861B970BFC
S113491002978417950708F48BCFEBCFF70101902A
S11349200020E9F7CF018E199F0902978417950794
S113493008F4B5CFDECF4AE0BE016F5F7F4FC901F7
S11349400E944734F70101900020E9F731978EE285
S113495090E091838083BE016F5F7F4FC7010E9407
S113496033349BCF4AE0BE016F5F7F4FC9010E9481
S11349704734F70101900020E9F73197D182C082D2
S1134980BE016F5F7F4FC7010E9433348A2D6BCF06
S113499060960FB6F894DEBF0FBECDBFDF91CF9106
S11349A01F910F91FF90EF90DF90CF90BF90AF9049
S11349B09F908F9008951F93CF93DF93FC01EE5B3C
S11349C0FF4F2081223059F53297208131812330E5
S11349D0310540F5FB0111821082FC01E05CFF4FC0
S11349E02081318121153105F9F0162FE62FF72F9B
S11349F040E050E0EC01C05CDF4F40955095280F3B
S1134A00391FD901A40FB51F2C9121934E2F411B9F
S1134A1050E0288139814217530778F307C0D9DE63
S1134A2087E005C081E003C080E001C080E0DF9141
S1134A30CF911F9108951F93CF93DF93FC01EE5BF9
S1134A40FF4F2081223039F5FB011082118212823E
S1134A501382FC01E05CFF4F208131812115310577
S1134A60E9F0162FE62FF72F40E050E0EC01C05C90
S1134A70DF4F40955095280F391FD901A40FB51F5A
S1134A802C9121934E2F411B50E0288139814217EC
S1134A90530778F305C09DDE87E003C080E001C0C2
S1134AA080E0DF91CF911F9108951F93CF93DF93FF
S1134AB0FC01EE5BFF4F20813FEB320F333010F0EF
S1134AC0273439F5FB011082118212821382FC0112
S1134AD0E05CFF4F2081318121153105E9F0162F6B
S1134AE0E62FF72F40E050E0EC01C05CDF4F40952B
S1134AF05095280F391FD901A40FB51F2C9121936C
S1134B004E2F411B50E0288139814217530778F317
S1134B1005C05FDE87E003C080E001C080E0DF9174
S1134B20CF911F9108951F93CF93DF9320E4DC016D
S1134B301D922A95E9F7FC01EE5BFF4F208120349A
S1134B4011F0253459F5FB0110821182128213826F
S1134B50FC01E05CFF4F208131812115310509F111
S1134B60162FE62FF72F40E050E06CEF7FEFEC01BB
S1134B70C05CDF4FDB01A41BB50BAD01280F391F4F
S1134B80D901A40FB51F2C9121934E2F411B50E046
S1134B90288139814217530768F305C01ADE87E07C
S1134BA003C080E001C080E0DF91CF911F910895A0
S1134BB0FC01EE5BFF4F2081213049F4FC01808130
S1134BC0811101C020E0FB01208380E0089501DE13
S1134BD087E00895CF9320E4FC0111922A95E9F728
S1134BE0262F2F7B2430C9F5FA0101900020E9F724
S1134BF09F01241B350B225031092034310550F517
S1134C00FC01EE5BFF4F6083FA0101900020E9F79D
S1134C103197BF01641B750BFC01E05CFF4F71838E
S1134C2060833396108261157105D1F020E030E085
S1134C30C0E0DF01FA01E20FF31F2081FC01EC0F59
S1134C40F11D2083CF5FCC932C2F30E0261737073C
S1134C5088F308C0BEDD81E006C0BBDD87E003C089
S1134C6080E001C080E0CF91089520E4FC0111921E
S1134C702A95E9F7623011F0643471F4FC01E05CC8
S1134C80FF4F22E030E03183208332966083FC01C1
S1134C905083418380E008959CDD87E0089570E4AB
S1134CA0FC0111927A95E9F7623011F0643481F4D1
S1134CB0FC01E05CFF4FA4E0B0E0B183A083329636
S1134CC06083FC01508341833283238380E0089511
S1134CD080DD87E00895FC0180E4DF011D928A9560
S1134CE0E9F78FEB860F843010F0673481F4DF012D
S1134CF0A05CBF4F84E090E011969C938E93129633
S1134D006C93508341833283238380E00895CF01E1
S1134D1060DD87E00895CF93DF93FC01DA0180E43E
S1134D20EF0119928A95E9F7603421F08CEB860F34
S1134D308230C8F4EF01C05CDF4F84E090E09983D7
S1134D4088832296688313968C9113978083129696
S1134D508C911297818311968C91119782838C91F7
S1134D60838380E003C0CF0134DD87E0DF91CF91FE
S1134D70089520E4FC0111922A95E9F7613011F0BD
S1134D80643499F421E030E0FC01E05CFF4F3183AE
S1134D90208332966083442321F0FC01208380E049
S1134DA00895FC01108280E0089513DD87E00895E2
S1134DB02F923F924F925F926F927F928F929F9227
S1134DC0AF92BF92CF92DF92EF92FF920F931F9315
S1134DD0CF93DF93CDB7DEB72B970FB6F894DEBF32
S1134DE00FBECDBF998788876091AD087091AE08DA
S1134DF0709378086093770889E9E6ECF7E0DF01BF
S1134E001D928A95E9F76A39710508F0C7C1CF0187
S1134E100E94881C8091C607803309F0C1C180912B
S1134E20C90723E0280F30E0F901EA53F84FD28094
S1134E3095E0980F792E7D0CE72CF12CF701EA53BD
S1134E40F84F8180B481B98394E0970DAB2EA90EFD
S1134E500A2D10E0F801EA53F84F92819C8368947C
S1134E60BB24B1F8BA0CB90EAB2DB0E0FD01EA5386
S1134E70F84F92806894CC24C1F8CB0CC90C4C2C0C
S1134E80512CF201EA53F84F668096E09C0D960D82
S1134E909D83292E312CA1014A53584FFA01F181E7
S1134EA0FF83FA01F281FE83E885F985118212827B
S1134EB013821482882331F14BEC57E0815090E047
S1134EC08453984F3B832A83BB87AA87FA01219195
S1134ED0A885B98511964D915D916D917C9114973A
S1134EE0762F652F542F4427422B11964D935D93B3
S1134EF06D937C931497E817F90749F72A813B814E
S1134F00AA85BB85E885F985808280926D09F4E1E4
S1134F10FD1538F481E0A885B98519968C9382E053
S1134F206FC1E885F9858081833A09F03FC06D2D12
S1134F3070E08091B3089091B4086817790709F07C
S1134F406EC06115710509F471C0C90103964091E1
S1134F504F0B5091500BFC01EA53F84F3081FA018A
S1134F602081321791F00AC0E40FF51FC401820FAB
S1134F70911DDC019C918081981771F082E0A885D5
S1134F80B98519968C9387E03BC120E08A53984FEA
S1134F90BB83AA83392D4C012F5FE22FF0E0E61783
S1134FA0F70710F3AA81BB81932E40C0803AB9F56C
S1134FB04D2D50E080917D0890917E084817590747
S1134FC071F54115510591F1B9016D5F7F4F209144
S1134FD0BE073091BF07FB01EA53F84F9081F901F6
S1134FE08081981791F00AC0820F931FFB01ED0D89
S1134FF0F11D8080FC018081881651F082E0A88533
S1135000B98519968C9387E0FBC0D12C6A53784FED
S1135010D3948D2D90E08417950730F307C082E078
S1135020A885B98519968C9387E0EAC0E885F98547
S11350301582168217821086F981FF2351F1A70188
S11350404553584F872D90E08453984F2F2F21506C
S1135050820F911DBB83AA83FA01E884F98421910C
S1135060D70115964D915D916D917C911897762F8E
S1135070652F542F4427422B15964D935D936D93C2
S11350807C931897E817F90751F7AA81BB81F98631
S1135090E886E885F9851186FC81FF23E1F0075352
S11350A0184F8A2D90E08653984F2F2F2150820F4E
S11350B0911D40E050E0BA01F80108851985762F6A
S11350C0652F542F44272191422BE817F907B9F78C
S11350D01987088703C040E050E0BA01E885F985E4
S11350E0418712861386148615869920E9F0A75302
S11350F0B84F8B2D90E08653984F2FEF290D820FD8
S1135100911D2D914285538564857585762F652F74
S1135110542F4427422B4287538764877587A817E7
S1135120B90779F7F987E887F0E4F61538F481E0F0
S1135130A885B98519968C9383E062C080E4E885DC
S1135140F9853E96DF011D928A95E9F7E885F98590
S1135150E25BFF4F862D90E091838083662021F1EE
S1135160F201E353F84FA885B9851E968C2D90E083
S11351708253984F6A94860D911D488559852191D3
S11351802D93E817F907D9F7598748870DC021915E
S11351902D93E817F907D9F780E032C086E030C0D4
S11351A085E02EC080E02CC0E885F985EE56FF4FDF
S11351B0BF81B083E885F985E057FF4F2E81822FA8
S11351C090E09183808380E4E885F985E05BFF4F7C
S11351D0DF011D928A95E9F7222321F3F101E753B8
S11351E0F84F48855985405B5F4FBD818B2F90E018
S11351F08653984F2E812150820F911DDA01C7CF1B
S11352002B960FB6F894DEBF0FBECDBFDF91CF91C2
S11352101F910F91FF90EF90DF90CF90BF90AF90D0
S11352209F908F907F906F905F904F903F902F90C2
S11352300895CF92DF92EF92FF920F931F93CF9333
S1135240DF93DC011092600810925F08EC01C25BEE
S1135250DF4FFC01E057FF4F288139818081918124
S1135260280F391F2B5D3F4F89E9E6ECF7E0EF018A
S113527019928A95E9F780916D09833A29F580910D
S1135280B3089091B408280F391F309378082093FD
S1135290770830E33093C60722502093C70722E0F3
S11352A02093C80721E02093C90724E02093CB076B
S11352B027E030E03093600820935F08BC018093BE
S11352C0CC07009731F566C080917D0890917E08E7
S11352D0280F391F309378082093770830E33093F0
S11352E0C60722502093C70722E02093C80721E075
S11352F02093C90724E02093CB0727E030E03093C4
S1135300600820935F08BC018093CC07009711F5D7
S113531041C000914F0B1091500B80E090E0C0E031
S113532020915F0830916008A9014F5F5F4F50934F
S1135330600840935F08800F911FFC0180812A530D
S1135340384FF9018083CF5F8C2F90E08617970741
S113535038F320C00091BE071091BF0780E090E0B1
S1135360C0E020915F0830916008A9014F5F5F4F52
S11353705093600840935F08800F911FFC01808167
S11353802A53384FF9018083CF5F8C2F90E0861722
S1135390970738F380915F08909160089C012F5F14
S11353A03F4F3093600820935F084C91FC01EA530F
S11353B0F84F4083A9014A53584F7D012EE4E20E71
S11353C0F11CE70178819D0120573F4FE901688175
S11353D0670F665EEA01688302E0028314E01383C8
S11353E015964C91159716965C91169717966C9195
S11353F0179718967C91189774836583568347830F
S11354000087118719964C91199712861386148672
S11354104587068717871A964C911A971B965C91B5
S11354201B971C966C911C971D967C911D97708BF5
S1135430618B528B438B40E3448BE7016881E90124
S11354405881560F5A5F558B468BE7014881E90115
S11354502881240F2C5F278B26E0208F4A96909377
S1135460600880935F08E7018881818F8881998132
S1135470892B49F180915F0890916008FD013E9667
S11354809C012A53384F69017C013DE0E31AF1087D
S1135490EA1AFB0A02EF1FEF0A1B1B0BBE01A7014E
S11354A04E0F5F1F8191E60189936E0198012E0FC3
S11354B03F1FEB01888199812817390780F35093A6
S11354C0600840935F0880915F0890916008FD0137
S11354D0EE56FF4F2081EC01CA53D84F2883029621
S11354E09093600880935F083297808189838081DC
S11354F09181892B29F100915F0810916008E05493
S1135500F109E801CA53D84F0F5411090A1B1B0BA8
S113551060EB7FEF6A1B7B0BA057BF4FA8014E0FB8
S11355205F1F819189939B012E0F3F1F8D919C9149
S113553011972817390790F35093600840935F0838
S113554060916B0F70916C0F81E79FE00E94A81926
S1135550609177087091780886EC97E00E94C519ED
S113556080E0DF91CF911F910F91FF90EF90DF903A
S1135570CF900895DF92EF92FF920F931F93CF93F2
S1135580DF937C01EB01D12C0D2D10E0F801EE0F1F
S1135590FF1FE00FF11FEE0FFF1FE75FFD4F60815C
S11355A07181C7010E943E34892B09F050C1F80172
S11355B0EE0FFF1FE00FF11FEE0FFF1FE75FFD4F20
S11355C0428150E0FA013197E734F10508F03FC118
S11355D0EA57FF4F0C94C1338881833A21F5F801CF
S11355E0EE0FFF1F0E0F1F1FF801EE0FFF1FE75FE7
S11355F0FD4F0380F481E02DDF010D900020E9F7D9
S11356001197AD014E1B5F0B608170E0CE01805B92
S11356109F4FEAD88093111082EA888380911110F9
S1135620898781E019C1F801EE0FFF1F0E0F1F1FBC
S1135630F801EE0FFF1FE75FFD4F0380F481E02DBB
S1135640408150E064E0CE01805B9F4FC3DA8093D9
S1135650111082EA888380911110898781E0FCC04F
S11356608881833A59F5F801EE0FFF1FE00FF11F0F
S1135670EE0FFF1FE75FFD4F85818130C9F4F8010C
S1135680EE0FFF1F0E0F1F1FF801EE0FFF1FE75F46
S1135690FD4F63817481CE01805B9F4F8CD98093D1
S11356A0111082EA888380911110898781E0D4C027
S11356B082EA888384E0898781E0CEC0F801EE0F16
S11356C0FF1F0E0F1F1FF801EE0FFF1FE75FFD4FB7
S11356D00380F481E02D4081518162E0CE01805B42
S11356E09F4FC3DA8093111082EA8883809111104E
S11356F0898781E0B1C08881833AC9F4F801EE0F4B
S1135700FF1F0E0F1F1FF801EE0FFF1FE75FFD4F76
S113571063817481CE01805B9F4FC7D98093111040
S113572082EA888380911110898781E095C0F8010D
S1135730EE0FFF1F0E0F1F1FF801EE0FFF1FE75F95
S1135740FD4F0380F481E02D20813181428153811A
S113575067E4CE01805B9F4FBEDA8093111082EA2A
S1135760888380911110898781E076C08881833A8B
S1135770C9F4F801EE0FFF1F0E0F1F1FF801EE0F03
S1135780FF1FE75FFD4F63817481CE01805B9F4FF4
S1135790CAD98093111082EA888380911110898775
S11357A081E05AC0F801EE0FFF1F0E0F1F1FF80112
S11357B0EE0FFF1FE75FFD4F0380F481E02D408172
S11357C050E060E4CE01805B9F4FA5DA8093111016
S11357D082EA888380911110898781E03DC08881A5
S11357E0833AC9F4F801EE0FFF1F0E0F1F1FF801D3
S11357F0EE0FFF1FE75FFD4F63817481CE01805B75
S11358009F4FD6D98093111082EA8883809111101A
S1135810898781E021C0F801EE0FFF1F0E0F1F1FC3
S1135820F801EE0FFF1FE75FFD4F0380F481E02DC9
S1135830408160E4CE01805B9F4F9BDA809311101E
S113584082EA888380911110898781E005C0D3940E
S11358508CE0D81299CE80E0DF91CF911F910F9107
S1135860FF90EF90DF900895CF93DF93CDB7DEB72D
S1135870C459D1090FB6F894DEBF0FBECDBFCE0117
S1135880019696DA80931611998120E6290F223029
S113589018F0933A09F01EC29A8591111BC2811126
S11358A019C287E299E09F938F938DB79EB7825474
S11358B091090FB6F8949EBF0FBE8DBFADB7BEB7AA
S11358C0119682E4FE013F9601900D928A95E1F7CC
S11358D00E9466230FB6F894DEBF0FBECDBF63EB04
S11358E074E087E299E0A9D7892B31F58981833A5D
S11358F0B1F4CE018F5A9F4F0E94E923CF56DF4F58
S113590019821882C159D04085E0CD56DF4F888373
S1135910C359D04082EA898384E08A87D2C14EE9A0
S113592052E064E0CE018F5A9F4F54D980931110F6
S113593092EA99838A87C5C161EA74E087E299E0B3
S11359407CD7892BA9F48981833A29F482EA898353
S113595084E08A87B6C14DE852E064E0CE018F5AF4
S11359609F4F38D98093111092EA99838A87A9C1ED
S11359706FE874E087E299E060D7892BD9F48981D4
S1135980833A29F482EA898384E08A879AC1209140
S11359907A0530917B0540917C0550917D0563E447
S11359A0CE018F5A9F4F97D98093111092EA998311
S11359B08A8787C16BE674E087E299E03ED7892B3A
S11359C031F58981833AB1F4E5E6F2E001900020F3
S11359D0E9F73197AF014556524065E672E0CE01D2
S11359E08F5A9F4F0E94F4238093111092EA998357
S11359F08A8767C145E652E064E0CE018F5A9F4F23
S1135A00E9D88093111092EA99838A875AC16DE785
S1135A1074E087E299E011D7892B31F58981833AC3
S1135A20B1F4E9E7F2E001900020E9F73197AF0122
S1135A304957524069E772E0CE018F5A9F4F0E9446
S1135A40F4238093111092EA99838A873AC149E733
S1135A5052E064E0CE018F5A9F4FBCD8809311105E
S1135A6092EA99838A872DC169E574E087E299E017
S1135A70E4D6892B31F58981833AB1F4E1E5F2E08A
S1135A8001900020E9F73197AF014155524061E59B
S1135A9072E0CE018F5A9F4F0E94F423809311101D
S1135AA092EA99838A870DC141E552E064E0CE0110
S1135AB08F5A9F4F8FD88093111092EA99838A87C7
S1135AC000C167E474E087E299E0B7D6892BA9F4B2
S1135AD08981833A29F482EA898384E08A87F1C040
S1135AE047E050E062E0CE018F5A9F4FBED88093CA
S1135AF0111092EA99838A87E4C062E374E087E232
S1135B0099E09BD6892BB9F48981833A29F482EAF6
S1135B10898384E08A87D5C029E033E040E050E0FF
S1135B2062E0CE018F5A9F4FBAD88093111092EA47
S1135B3099838A87C6C06AE174E087E299E07DD6DA
S1135B40892B19F58981833A69F46EE775E0CE01F2
S1135B508F5A9F4F0E941B258093111092EA9983BC
S1135B608A87AFC020917E0530917F0540918005E2
S1135B705091810562E0CE018F5A9F4F90D8809357
S1135B80111092EA99838A879CC062E074E087E2EC
S1135B9099E053D6892B19F58981833A69F46BEB23
S1135BA072E0CE018F5A9F4F0E941B2580931110E3
S1135BB092EA99838A8785C02091BB023091BC0206
S1135BC04091BD025091BE0262E0CE018F5A9F4FB8
S1135BD066D88093111092EA99838A8772C062ED25
S1135BE073E087E299E029D6892BD9F48981833A35
S1135BF029F482EA898384E08A8763C02091B3020E
S1135C003091B4024091B5025091B60262E0CE01E7
S1135C108F5A9F4F44D88093111092EA99838A87B0
S1135C2050C06AEE73E087E299E007D6892BD9F475
S1135C308981833A29F482EA898384E08A8741C08E
S1135C402091B7023091B8024091B9025091BA0242
S1135C5062E0CE018F5A9F4F22D88093111092EAAE
S1135C6099838A872EC06AEB73E087E299E0E5D5D1
S1135C70892BD9F48981833A29F482EA898384E0DF
S1135C808A871FC02091B7023091B8024091B902AF
S1135C905091BA0262E0CE018F5A9F4F00D8809390
S1135CA0111092EA99838A870CC0BE016F5F7F4FFF
S1135CB087E299E05FDC813021F082EA898382E027
S1135CC08A87CE010196B5DA809182058F5F809331
S1135CD0820507C082EA898385E08A87CE0101961E
S1135CE0A8DACC56DF4F0FB6F894DEBF0FBECDBF97
