:1000000073C6000092C6000090C600008EC60000B5
:100010008CC600008AC6000088C6000086C60000A4
:1000200084C6000082C6000080C600007EC60000B4
:100030007CC600007AC6000078C6000076C60000C4
:1000400074C600000C94A50B70C600006EC60000BC
:100050006CC600006AC6000068C6000066C60000E4
:1000600064C6000062C600000C94270D5EC6000046
:100070005CC600005AC6000058C6000056C6000004
:1000800054C6000052C6000050C600004EC6000014
:100090004CC600004AC6000048C6000046C6000024
:1000A00044C6000042C6000040C600003EC6000034
:1000B0003CC600003AC6000038C6000036C6000044
:1000C00034C6000032C6000030C600006E237A231A
:1000D000B923C823D323D723EC2318242724362479
:1000E00063248325E924612383257D253C48544DE1
:1000F0004C3E0D0A3C484541443E0D0A3C5449548F
:100100004C453E4B494520465352205452503C2FBB
:100110005449544C453E0D0A3C7374796C65207407
:100120007970653D22746578742F637373223E0D78
:100130000A2376656761207B77696474683A333295
:100140003070783B20626F726465723A327078204A
:10015000736F6C696420626C61636B3B20626163E6
:100160006B67726F756E642D636F6C6F723A736933
:100170006C7665723B20626F726465722D72616489
:100180006975733A3570783B2070616464696E6795
:100190003A323070782032307078203070782032E7
:1001A0003070783B746578742D616C69676E3A6362
:1001B000656E7465723B6D617267696E3A3020617D
:1001C00075746F3B7D2377726170207B64697370F7
:1001D0006C61793A206E6F6E653B6F706163697414
:1001E000793A20302E383B706F736974696F6E3ABC
:1001F00066697865643B6C6566743A303B72696722
:1002000068743A20303B746F703A20303B626F74F0
:10021000746F6D3A20303B70616464696E673A2098
:10022000313670783B20637572736F723A7761690B
:10023000743B0D0A6261636B67726F756E642D6348
:100240006F6C6F723A207267626128312C20312CFA
:1002500020312C20302E373235293B7A2D696E64BF
:1002600065783A203130303B6F766572666C6F7717
:100270003A206175746F3B7D0D0A2377696E646F58
:1002800077207B77696474683A2032303070783B2D
:100290006865696768743A20373070783B6D6172C1
:1002A00067696E3A2035307078206175746F3B64F1
:1002B0006973706C61793A206E6F6E653B62616341
:1002C0006B67726F756E643A20236666663B0D0A33
:1002D0007A2D696E6465783A203230303B706F73E6
:1002E0006974696F6E3A2066697865643B6C65660F
:1002F000743A20303B72696768743A20303B746FFF
:10030000703A20303B626F74746F6D3A20303B70EE
:10031000616464696E673A20313670783B0D0A7DFE
:100320000D0A2E636C6F7365207B6D617267696E59
:100330002D6C6566743A2033363470783B6D61728B
:1003400067696E2D746F703A203470783B637572F4
:10035000736F723A20706F696E7465723B7D0D0A1F
:10036000696E7075747B77696474683A3435707837
:100370003B206865696768743A323070783B7D74F9
:10038000647B77696474683A323070783B206865C2
:10039000696768743A323070783B20746578742DE0
:1003A000616C69676E3A63656E7465723B7D3C2F64
:1003B0007374796C653E0D0A3C2F484541443E0DEF
:1003C0000A3C424F44593E0D0A3C73637269707493
:1003D00020747970653D22746578742F6A61766146
:1003E000736372697074223E0D0A66756E63746978
:1003F0006F6E2073686F77287374617465297B0D45
:100400000A646F63756D656E742E676574456C65FF
:100410006D656E7442794964282777696E646F77D9
:1004200027292E7374796C652E646973706C6179F9
:10043000203D2073746174653B0D0A646F63756DB4
:10044000656E742E676574456C656D656E74427972
:10045000496428277772617027292E7374796C6537
:100460002E646973706C6179203D207374617465CA
:100470003B0D0A7D0D0A3C2F7363726970743E0D4B
:100480000A3C6469762069643D2277726170223E7D
:100490003C2F6469763E3C6469762069643D22772E
:1004A000696E646F77223ED09ED0B6D0B8D0B4D0FB
:1004B000B0D0BDD0B8D0B52E2E2E3C2F6469763E7C
:1004C0003C6120687265663D22696E6465782E68BD
:1004D000746D6C223E3C68333ED09DD0B020D0B3CA
:1004E000D0BBD0B0D0B2D0BDD183D18E3C2F683339
:1004F0003E3C2F613E0D0A3C6469762069643D22D2
:1005000076656761223E3C5354524F4E473E0D0A7A
:100510003C5052453E0D0A3C5350414E2069643DCB
:1005200022646973706C617922205354594C453DA3
:10053000224241434B47524F554E442D434F4C4F5F
:10054000523A2059454C4C4F57475245454E3B2057
:10055000464F4E542D53495A453A203230302522C9
:100560003E5E5E5E5E5E5E5E5E5E5E5E5E5E5E5ECB
:100570005E5E5E5E5E0D0A5E5E5E5E5E5E5E5E5E40
:100580005E5E5E5E5E5E5E5E5E5E5E0D0A5E5E5E30
:100590005E5E5E5E5E5E5E5E5E5E5E5E5E5E5E5E7B
:1005A0005E0D0A5E5E5E5E5E5E5E5E5E5E5E5E5E10
:1005B0005E5E5E5E5E5E5E3C2F5350414E3E0D0AB7
:1005C0003C2F5052453E0D0A3C2F5354524F4E473C
:1005D0003E0D0A3C464F524D20616374696F6E3D7B
:1005E000272F27206D6574686F643D274745542782
:1005F0003E0D0A3C696E70757420747970653D27F4
:100600007375626D697427206E616D653D27526553
:100610006672657368272076616C75653D27526543
:10062000667265736827207374796C653D227769FB
:100630006474683A373070783B20666C6F61743A46
:1006400072696768743B20636C6561723A20626FFF
:10065000746822206F6E636C69636B3D2273686FF0
:10066000772827626C6F636B2729223E3C6469768A
:10067000207374796C653D22636C6561723A626FB8
:1006800074683B206865696768743A323070782214
:10069000203E3C2F6469763E3C7461626C653E3C52
:1006A00074723E3C74643E3C2F74643E3C74643E01
:1006B0003C696E70757420747970653D277375623E
:1006C0006D697427206E616D653D27537461727486
:1006D000272076616C75653D2753746172742720FD
:1006E0006F6E636C69636B3D2273686F7728276256
:1006F0006C6F636B2729223E3C2F74643E3C74640C
:100700003E3C2F74643E3C74643E3C2F74643E3C1B
:1007100074643E3C2F74643E3C74643E3C696E706D
:10072000757420747970653D277375626D697427DF
:10073000206E616D653D275570272076616C75656B
:100740003D2726233936353027206F6E636C696369
:100750006B3D2273686F772827626C6F636B272964
:10076000223E3C2F74643E3C74643E3C2F74643ED5
:100770003C2F74723E3C74723E3C74643E3C2F7459
:10078000643E3C74643E3C2F74643E3C74643E3C66
:100790002F74643E3C74643E3C2F74643E3C74642D
:1007A0003E3C696E70757420747970653D27737571
:1007B000626D697427206E616D653D2745736327FF
:1007C0002076616C75653D2726233936363827201B
:1007D0006F6E636C69636B3D2273686F7728276265
:1007E0006C6F636B2729223E3C2F74643E3C74641B
:1007F0003E3C2F74643E3C74643E3C696E7075747C
:1008000020747970653D277375626D697427206E59
:10081000616D653D27456E746572272076616C7544
:10082000653D2726233936353827206F6E636C697E
:10083000636B3D2273686F772827626C6F636B2749
:1008400029223E3C2F74643E3C2F74723E3C7472ED
:100850003E3C74643E3C2F74643E3C74643E3C6990
:100860006E70757420747970653D277375626D695B
:100870007427206E616D653D2753746F7027207655
:10088000616C75653D2753746F7027206F6E636CC4
:1008900069636B3D2273686F772827626C6F636BA7
:1008A0002729223E3C2F74643E3C74643E3C2F74E6
:1008B000643E3C74643E3C2F74643E3C74643E3C35
:1008C0002F74643E3C74643E3C696E707574207491
:1008D0007970653D277375626D697427206E616D4F
:1008E000653D27446F776E272076616C75653D27DF
:1008F00026233936363027206F6E636C69636B3D73
:100900002273686F772827626C6F636B2729223EFA
:100910003C2F74643E3C74643E3C2F74643E3C2F18
:1009200074723E3C2F7461626C653E3C2F464F52A0
:100930004D3E0D0A3C42523E0D0A3C2F6469763E04
:100940003C5343524950543E0D0A092076617220AF
:1009500074657874203D20646F63756D656E742EC8
:10096000676574456C656D656E74427949642822CB
:10097000646973706C617922292E6669727374439D
:1009800068696C642E646174613B0D0A09207661AC
:10099000722043757258203D5E5E5E3B0D0A092051
:1009A0007661722043757259203D5E5E5E3B0D0A92
:1009B0000920766172204375724669656C64203D3A
:1009C0005E5E5E3B0D0A09207661722043757250AF
:1009D0006F73203D5E5E5E3B0D0A092076617220DA
:1009E00053747253697A65203D5E5E5E3B0D0A0961
:1009F00020696628437572506F73213D3235352961
:100A00007B53747253697A653D313B7D0D0A092031
:100A100076617220537461727453796D203D204366
:100A2000757259202A203231202B20437572583B91
:100A30000D0A0920206966284375724669656C6451
:100A4000213D323535297B0D0A09207661722073EC
:100A500074617274737472696E67203D2074657876
:100A6000742E737562737472696E6728302C20530C
:100A70007461727453796D293B0D0A092076617295
:100A800020616464737472696E6731203D20223C7A
:100A90007370616E207374796C653D5C2262616372
:100AA0006B67726F756E643A7265645C223E223BBE
:100AB0000D0A09207661722073796D203D207465DE
:100AC00078742E737562737472696E6728537461DB
:100AD000727453796D2C20537461727453796D2044
:100AE0002B2053747253697A65293B0D0A092076CD
:100AF000617220616464737472696E6732203D2094
:100B0000223C2F7370616E3E223B0D0A09207661F4
:100B10007220656E64737472696E67203D2074651F
:100B200078742E737562737472696E67285374617A
:100B3000727453796D202B2053747253697A652C2B
:100B4000746578742E6C656E677468293B0D0A09AC
:100B500020646F63756D656E742E676574456C6592
:100B60006D656E74427949642822646973706C61A2
:100B70007922292E696E6E657248544D4C203D20B5
:100B80007374617274737472696E67202B20616470
:100B900064737472696E6731202B2073796D202B1A
:100BA00020616464737472696E6732202B20656EF5
:100BB00064737472696E673B0D0A09207D0D0A3CEF
:100BC0002F5343524950543E0D0A3C2F424F445933
:100BD0003E0D0A3C2F48544D4C3E0D0A00312E3339
:100BE0002E362E312E342E312E323031372E3131F9
:100BF0002E352E3000312E332E362E312E342E311E
:100C00002E323031372E31312E342E3000312E330A
:100C10002E362E312E342E312E323031372E3131C8
:100C20002E332E3000312E332E362E312E342E31EF
:100C30002E323031372E31312E322E3000312E33DC
:100C40002E362E312E342E312E323031372E313198
:100C50002E312E3000312E332E362E312E332E32C1
:100C60003031372E302E332E3000312E332E362EAB
:100C7000312E322E312E312E372E3000312E332EA2
:100C8000362E312E322E312E312E362E3000312E90
:100C9000332E362E312E322E312E312E352E30007F
:100CA000312E332E362E312E322E312E312E342E41
:100CB0003000312E332E362E312E322E312E312E63
:100CC000332E3000312E332E362E312E322E312E51
:100CD000312E322E3000312E332E362E312E322E42
:100CE000312E312E312E300011241FBECFEFD1E234
:100CF000DEBFCDBF00E00CBF15E0A0E0B2E0E2E354
:100D0000F6E500E00BBF02C007900D92A432B107D8
:100D1000D9F720E1A4E2B5E001C01D92A132B207EB
:100D2000E1F70E94EC260C94172B6AC98EBD0000D7
:100D30000DB407FEFDCF8EB50895CF93DF93C82F76
:100D4000D92F28988FE0F2DF8D2FF0DF8C2FEEDF88
:100D500080E0ECDF289ADF91CF910895CF92DF9267
:100D6000EF92FF920F931F93CF93DF93EC016A01F1
:100D700041155105B1F0062F172F7C01E40EF51E29
:100D800028988FE0D3DF8D2FD1DF8C2FCFDF2196F6
:100D900080E0CCDFF80181938F01289ACE15DF0522
:100DA00079F7C601DF91CF911F910F91FF90EF90DE
:100DB000DF90CF900895CF92DF92EF92FF920F9342
:100DC0001F93CF93DF93EC016A0141155105A9F000
:100DD000062F172F7C01E40EF51E289880EFA6DF62
:100DE0008D2FA4DF8C2FA2DF2196F80181918F0136
:100DF0009DDF289ACE15DF0581F7C601DF91CF91DF
:100E00001F910F91FF90EF90DF90CF900895EF9298
:100E1000FF920F931F93259A2D9A2D982FEF83EC15
:100E200099E0215080409040E1F700C000006C9AAA
:100E300074982FEF83EC99E0215080409040E1F7C7
:100E400000C000006C982FEF83EC99E021508040A7
:100E50009040E1F700C0000080E090E49093EF0B39
:100E60008093EE0B80E090E690931A088093190827
:100E700080E098E49093F10B8093F00B80E098E68B
:100E800090931C0880931B0880E090E59093F30BEF
:100E90008093F20B80E090E790931E0880931D08EA
:100EA00080E098E59093F50B8093F40B80E098E751
:100EB0009093200880931F0860E880E090E037D08E
:100EC00065E58BE190E033D065E58AE190E02FD0D5
:100ED0006894EE24E1F8F12C0EED10E02CEC30E0FB
:100EE0004BEB50E06AEA70E080E090E051D02CE4F7
:100EF00030E040E050E060E070E08AE090E06FD0E9
:100F00002EEF30E040E050E060E070E08AE090E0FA
:100F100081D020E030E04FEF50E06FEF70E08FEFD6
:100F200090E093D01F910F91FF90EF9008951F9341
:100F3000CF93DF93D82F192FC62F289880EFF6DE96
:100F4000812FF4DE8D2FF2DE8C2FF0DE833011F056
:100F5000289A5DDF289A81E0DF91CF911F91089553
:100F60001F93CF93DF93C82FD0E0DC2FCC27CF5F28
:100F7000DB4FCE01DCDF10E001C01F5FCE01DDDE04
:100F8000882311F01F3FC9F7DF91CF911F9108957A
:100F9000EF920F931F93CF93DF93162FD42FC22F6F
:100FA000682F89E090E0C3DF612F8AE090E0BFDF27
:100FB0006D2F8BE090E0BBDF6C2F8CE090E0B7DF13
:100FC000602F8DE090E0B3DF6E2D8EE090E0AFDF1C
:100FD00081E0DF91CF911F910F91EF9008951F93C2
:100FE000CF93DF93162FD42FC22F682F8FE090E07E
:100FF0009EDF612F80E190E09ADF6D2F81E190E02C
:1010000096DF6C2F82E190E092DF81E0DF91CF915B
:101010001F9108951F93CF93DF93162FD42FC22FC4
:10102000682F81E090E083DF612F82E090E07FDF36
:101030006D2F83E090E07BDF6C2F84E090E077DF22
:1010400081E0DF91CF911F9108951F93CF93DF939C
:10105000162FD42FC22F682F85E090E068DF612F14
:1010600086E090E064DF6D2F87E090E060DF6C2F1A
:1010700088E090E05CDF81E0DF91CF911F910895DF
:1010800090E00496982F8827860F971F56CE0895D4
:101090001F93CF93DF93182F60E270E0F1DFC82F2A
:1010A000D0E061E270E0812FEBDFDC2FCC279E01E6
:1010B000282BC901DF91CF911F9108951F93CF93E2
:1010C000DF93182F66E270E0DBDFC82FD0E067E225
:1010D00070E0812FD5DFDC2FCC279E01282BC901A2
:1010E000DF91CF911F9108959B0190E00496982F76
:1010F0008827642F820F931F1ACF0895882341F009
:1011000080913A05813041F018F08230C1F024C05E
:1011100081E080933A0520C0462F61E070E080E0D6
:10112000E3DF61E070E080E0ABDF882321F082E064
:1011300080933A0511C08FEF80933A050DC061E0AE
:1011400070E080E09DDF882321F082E080933A0503
:1011500003C08FEF80933A0580913A050895882364
:1011600041F080913905813041F018F08230C1F0B2
:1011700024C081E08093390520C0462F61E070E0F3
:1011800081E0B2DF61E070E081E07ADF882321F066
:1011900082E08093390511C08FEF809339050DC02F
:1011A00061E070E081E06CDF882321F082E08093D1
:1011B000390503C08FEF8093390580913905089573
:1011C000882341F080913805813041F018F0823059
:1011D000C1F024C081E08093380520C0462F61E033
:1011E00070E082E081DF61E070E082E049DF882327
:1011F00021F082E08093380511C08FEF809338058D
:101200000DC061E070E082E03BDF882321F082E0E6
:101210008093380503C08FEF80933805809138059F
:101220000895CF93C82F692F80E194E080DE6C2F62
:1012300081E194E07CDECF910895CF93DF93EC01C0
:1012400068818CE094E073DE69818DE094E06FDE6C
:101250006A818EE094E06BDE6B818FE094E067DE64
:10126000DF91CF910895CF93C82F692F80E195E04A
:101270005EDE6C2F81E195E05ADECF910895CF9329
:10128000DF93EC0168818CE095E051DE69818DE0AF
:1012900095E04DDE6A818EE095E049DE6B818FE05E
:1012A00095E045DEDF91CF910895CF93C82F692F48
:1012B00080E196E03CDE6C2F81E196E038DECF9154
:1012C0000895CF93DF93EC0168818CE096E02FDEE8
:1012D00069818DE096E02BDE6A818EE096E027DE64
:1012E0006B818FE096E023DEDF91CF9108959F928E
:1012F000AF92BF92CF92DF92EF92FF920F931F9324
:10130000CF93DF93982E5B017A01E90164E270E0EC
:10131000B7DEC82ED12C65E270E0892DB1DE1C2D20
:101320000027082B0A0D1B1D98013770C92CD12CE2
:10133000F601EE0FFF1FE251F44F80819181820F81
:10134000931FA9014C0F5D1F41305840B8F040E099
:1013500058E05A01A21AB30AA501B7012CDDAE016B
:101360004A195B09B7016A0D7B1DF601EE0FFF1FDD
:10137000E251F44F808191811EDD03C0AE01B701BF
:101380001ADDC00FD11F4D2F64E270E0892DACDE55
:101390004C2F65E270E0892DA7DEDF91CF911F9180
:1013A0000F91FF90EF90DF90CF90BF90AF909F9004
:1013B0000895DF92EF92FF920F931F93CF93DF93E5
:1013C000D82E0FEF1FEFE12CF12C8D2D61DEEC01FB
:1013D000009719F08D2D5CDE7C01EC16FD0629F0DE
:1013E000015011090115110581F7C701DF91CF9156
:1013F0001F910F91FF90EF90DF900895DF92EF9291
:10140000FF920F931F93CF93DF93D82E8B017A0116
:10141000E901CFDF8C179D0718F48D2DCADFEC0191
:101420009E01A701B8018D2D62DFCE01DF91CF9122
:101430001F910F91FF90EF90DF90089520E3FC0142
:1014400020833296862F82958F7090E1899F601954
:1014500011246A3010F4605D01C0695C62938823D6
:1014600011F0682FEFCF08958FB7807880933507FC
:10147000F89480913507089580913507882309F005
:101480007894809135070895A8952FE088E190E041
:101490000FB6F894A895809360000FBE209360006B
:1014A00008958091810291E0980F909381020895B0
:1014B0008091800291E0980F909380020895CF93DD
:1014C000DF93C82FD62FD0DFEC2FF0E0EB52F94F8F
:1014D000D083DD23A9F0EC2FE695E695E695F0E0C4
:1014E000E959FA4F4081C77021E030E0C90102C0DC
:1014F000880F991FCA95E2F780958423808313C0D3
:10150000EC2FE695E695E695F0E0E959FA4F408133
:10151000C77021E030E0C90102C0880F991FCA9549
:10152000E2F7842B8083A8DFDF91CF9108951F938A
:10153000CF93DF93182FEB0197DFE12FF0E0EE0F51
:10154000FF1FEB5EF94FD183C083CD2BA9F0E12FB4
:10155000E695E695E695F0E0E65AFA4F4081177079
:1015600021E030E0C90102C0880F991F1A95E2F707
:1015700080958423808313C0E12FE695E695E69558
:10158000F0E0E65AFA4F4081177021E030E0C901DF
:1015900002C0880F991F1A95E2F7842B80836CDFB5
:1015A000DF91CF911F910895CF92DF92EF92FF923A
:1015B000CF93C82F6A017B0157DFEC2FF0E0EE0FCD
:1015C000FF1FEE0FFF1FEB58FA4FC082D182E2825D
:1015D000F382CD28CE28CF28A9F0EC2FE695E6950A
:1015E000E695F0E0EC5AFA4F4081C77021E030E018
:1015F000C90102C0880F991FCA95E2F7809584231C
:10160000808313C0EC2FE695E695E695F0E0EC5A62
:10161000FA4F4081C77021E030E0C90102C0880F55
:10162000991FCA95E2F7842B808326DFCF91FF9024
:10163000EF90DF90CF900895CF93C82F15DFEC2F58
:10164000E695E695E695F0E0E65AFA4F208130E01F
:101650008C2F877002C0359527958A95E2F720FF79
:101660000DC0EC2FF0E0EE0FFF1FEB5EF94F208175
:101670003181C1E0232B19F0C0E001C0C0E0FCDEE5
:101680008C2FCF910895CF93C82FEEDEEC2FE695E7
:10169000E695E695F0E0EC5AFA4F208130E08C2F89
:1016A000877002C0359527958A95E2F720FF13C011
:1016B000EC2FF0E0EE0FFF1FEE0FFF1FEB58FA4F7D
:1016C0004081518162817381C1E0452B462B472BBC
:1016D00019F0C0E001C0C0E0CFDE8C2FCF9108959B
:1016E000D3DE109280008AEE8093810080E29EE437
:1016F0009093890080938800EFE6F0E0808182601B
:10170000808380E090E02FEFFC01E959FA4F2083BD
:1017100001968C309105C1F780E090E02FEFFC013D
:10172000E65AFA4F208301968D309105C1F78FEF6D
:1017300080935405809355058093560580935705F3
:10174000809358058093590508951F920F920FB604
:101750000F9211240BB60F922F933F934F935F93E9
:101760006F937F938F939F93AF93BF93EF93FF9369
:10177000809152058F5F8093520580E090E061E098
:1017800070E0282F26952695269530E0F901ED5832
:10179000FA4F4081A82FA77050E00A2E02C055953D
:1017A00047950A94E2F740FD14C0FC01E35DF84F51
:1017B00040814150408341110CC0F901ED58FA4F6E
:1017C00040819B0102C0220F331FAA95E2F7242B10
:1017D0002083019688309105A1F680914305909170
:1017E0004405A0914505B09146050196A11DB11D86
:1017F0008093430590934405A0934505B093460517
:10180000FF91EF91BF91AF919F918F917F916F91D8
:101810005F914F913F912F910F900BBE0F900FBE94
:101820000F901F901895FF920F931F93CF93DF9304
:10183000F894F0905205109252057894FF2009F424
:10184000D2C010E040E050E021E030E08091AD0AED
:101850009091AE0AA091AF0AB091B00A0196A11D75
:10186000B11D8093AD0A9093AE0AA093AF0AB093D6
:10187000B00ACA01F894682F66956695669570E07F
:10188000FB01E959FA4FE081A82FA770F0E00A2E7A
:1018900002C0F595E7950A94E2F7E0FD14C0FC015B
:1018A000EB52F94FB081B150B083B1110CC0FB01C4
:1018B000E959FA4FB081B90102C0660F771FAA95A6
:1018C000E2F76B2B6083789401968835910591F649
:1018D000CA01F894682F66956695669570E0FB01DD
:1018E000E65AFA4FE081C82FC770F0E00C2E02C014
:1018F000F595E7950A94E2F7E0FD1AC0DC01AA0F1E
:10190000BB1FAB5EB94FED91FC91119731971196CA
:10191000FC93EE93EF2B61F4FB01E65AFA4FA081A2
:10192000B90102C0660F771FCA95E2F76A2B608380
:10193000789401968036910561F6BA01F894E62F05
:10194000E695E695E695F0E0DF01AC5ABA4F8C914A
:10195000062F077090E0002E02C0959587950A9497
:10196000E2F780FD21C0EB01CC0FDD1FCC0FDD1FA6
:10197000CB58DA4F88819981AA81BB810197A1094F
:10198000B10988839983AA83BB83892B8A2B8B2BEC
:1019900059F4EC5AFA4FA081C90102C0880F991F6F
:1019A0000A95E2F78A2B808378946F5F7F4F6832C5
:1019B000710521F6809137058F5F843619F0809389
:1019C00037050EC0109237058091A60A9091A70A9C
:1019D0009093B20A8093B10A5093A70A4093A60A43
:1019E0001F5F1F1133CFDF91CF911F910F91FF9098
:1019F0000895A8958091A60A9091A70A01969093C0
:101A0000A70A8093A60A80915305E82FF0E0EB52D5
:101A1000F94F908190959093FB09209149082917DF
:101A200010F4909349086FEF4ACD08953ADD809302
:101A3000FC09E1ECF0E080818860808387E690E03B
:101A40009093C5008093C4000A9A129A08951F9239
:101A50000F920FB60F9211240BB60F922F935F9334
:101A60006F937F938F939F93AF93BF93EF93FF9366
:101A7000E0914308F0E0E65AF74F20818091430857
:101A800090E0019660E971E00E940327809343088B
:101A90002093C600E0ECF0E0808180648083909128
:101AA000DF0B80914308981305C0E1ECF0E08081E2
:101AB0008F7D8083FF91EF91BF91AF919F918F9127
:101AC0007F916F915F912F910F900BBE0F900FBE82
:101AD0000F901F901895482F2091DF0B30E0C9011F
:101AE000019660E971E00E940327E091DF0BF0E0CE
:101AF000E65AF74F40838093DF0BE1ECF0E0808102
:101B00008062808381E008950F931F93CF93DF93CA
:101B1000062F662341F0C82FD92F10E08991DBDF13
:101B20001F5F1013FBCF802FDF91CF911F910F917B
:101B30000895CF93DF93CDB7DEB729970FB6F8940A
:101B4000DEBF0FBECDBF198660E0FE0139964DECB9
:101B5000849F212D1124922F969596959695990FF5
:101B6000392F330F330F930F891B982F822F8695B0
:101B7000869586956F5F905D92938111E9CFCF0135
:101B8000C3DF29960FB6F894DEBF0FBECDBFDF913D
:101B9000CF910895FF920F931F93CF93DF93CDB70B
:101BA000DEB761970FB6F894DEBF0FBECDBFAC01B4
:101BB000198AF12CFE0171969A01ADECBCEC0E94E1
:101BC0005A279C0136952795369527953695279562
:101BD000C901880F991F220F331F220F331F220FB5
:101BE000331F280F391F8A01021B130B9A010E9411
:101BF0005A27AC0156954795569547955695479562
:101C0000F394005D029341155105B1F66F2DCF019C
:101C10007BDF61960FB6F894DEBF0FBECDBFDF91BC
:101C2000CF911F910F91FF9008951F93CF93DF9352
:101C3000EC0110E006C0FE01E20FF31F80814BDFD4
:101C40001F5F212F30E0FE0101900020E9F731975E
:101C5000CF018C1B9D0B2817390768F3DF91CF91BB
:101C60001F9108951F93CF93DF93EC0110E006C0FE
:101C7000FE01E80FF91F80812EDF1F5F812F90E0AA
:101C8000FE0101900020E9F73197EC1BFD0B8E1748
:101C90009F0770F38DE01FDF8AE01DDFFE010190DA
:101CA0000020E9F7CF0101978C1BDF91CF911F91A5
:101CB00008958DE010DF8AE00EDF82E008951F9323
:101CC000CF93DF93D62F172FC0913605882331F09D
:101CD000C13051F018F0C23001F127C081E080938B
:101CE0003605C13059F531C060E181E007DA8F3F38
:101CF000E1F46FEF82E094E01AD962E080E094E0D2
:101D000016D9612F84E094E012D96D2F85E094E01C
:101D10000ED982E08093360515C061E081E0EED9EE
:101D20008F3F19F48093360510C0809136058C17CB
:101D300061F0813019F0823029F007C060E080E066
:101D4000DDD903C060E080E0D9D980913605DF910C
:101D5000CF911F9108951F93CF93DF93D62F172F05
:101D6000C0913505882331F0C13051F018F0C230F0
:101D700001F127C081E080933505C13059F531C0AC
:101D800060E181E0ECD98F3FE1F46FEF82E095E014
:101D9000CED862E080E095E0CAD8612F84E095E07B
:101DA000C6D86D2F85E095E0C2D882E080933505D6
:101DB00015C061E081E0D3D98F3F19F480933505D8
:101DC00010C0809135058C1761F0813019F0823098
:101DD00029F007C060E080E0C2D903C060E080E085
:101DE000BED980913505DF91CF911F910895CF9392
:101DF000DF93EA01FB019081911109C0918191115A
:101E000006C09281911103C093819923E9F0209734
:101E1000F1F0811107C0CB0110DACE0102DA81E0C6
:101E200090E01AC0813039F4CB0129DACE011BDAF7
:101E300081E090E011C0823069F4CB0142DACE013A
:101E400034DA81E090E008C080E090E005C080E0F6
:101E500090E002C081E090E0DF91CF910895AB0166
:101E600010921A1010921910BC0180E0C0CF089592
:101E7000AB011092220810922108BC0181E0B7CF7B
:101E800008959B016091191070911A10AC0180E0C7
:101E9000B5DA2091191030911A10280F391F30939C
:101EA0001A102093191008959B01609121087091D8
:101EB0002208AC0181E0A2DA2091210830912208A9
:101EC000280F391F30932208209321080895CF93BB
:101ED000C0913405882331F0C13051F018F0C23080
:101EE00081F029C081E080933405C13051F52CC0C8
:101EF00060E281E034D98F3FF1F482E080933405D1
:101F000023C062E070E081E0BBD884FD0BC062E0DA
:101F100070E081E0B5D883FF0EC048E162E070E078
:101F200081E0E2D840E162E070E081E0DDD88FEF4F
:101F30008093340509C0809134058C1729F08130D5
:101F400019F460E280E00BD980913405CF910895B7
:101F5000CF93C0913305882331F0C13051F018F090
:101F6000C23081F029C081E080933305C13051F542
:101F70002CC060E281E0C2D88F3FF1F482E0809310
:101F8000330523C062E070E080E07AD884FD0BC0A6
:101F900062E070E080E074D883FF0EC048E162E048
:101FA00070E080E0A1D840E162E070E080E09CD881
:101FB0008FEF8093330509C0809133058C1729F08A
:101FC000813019F460E280E099D880913305CF9197
:101FD00008951F93CF93DF93D62F172FC09132050B
:101FE000882331F0C13051F018F0C23021F12BC0FC
:101FF00081E080933205C13079F535C060E181E040
:10200000DFD88F3F01F56FEF82E096E00E949707DF
:1020100062E080E096E00E949707612F84E096E0FE
:102020000E9497076D2F85E096E00E94970782E057
:102030008093320515C061E081E0C2D88F3F19F46A
:102040008093320510C0809132058C1761F0813089
:1020500019F0823029F007C060E180E0B1D803C0F8
:1020600061E080E0ADD880913205DF91CF911F9182
:102070000895AB011092A90A1092A80ABC0182E04F
:10208000B6CE08959B016091A80A7091A90AAC018F
:1020900082E0B4D92091A80A3091A90A280F391FEB
:1020A0003093A90A2093A80A0895AF92BF92CF92C5
:1020B000DF92EF92FF920F931F93CF93DF931F92C4
:1020C0001F92CDB7DEB77A8369837A018901E981EE
:1020D000FA81F770C82ED12CD601AA0FBB1FA75EBC
:1020E000B74F8D919C918E0F9F1F2E0F3F1F213058
:1020F0003840C8F020E038E05901AE1ABF0AA50107
:10210000B7010E94AE06A8014A195B09B7016A0D22
:102110007B1DF601EE0FFF1FE75EF74F8081918177
:102120000E94AE0604C0A801B7010E94AE060F903F
:102130000F90DF91CF911F910F91FF90EF90DF9063
:10214000CF90BF90AF900895DF92EF92FF920F93E0
:102150001F93CF93DF93D82E7B018A0168E270E052
:102160000E944008C82FD0E069E270E08D2D0E94E7
:102170004008DC2FCC27C82B9801A701BE018D2D6C
:1021800094DFC00FD11F4D2F68E270E08D2D0E94AB
:1021900074084C2F69E270E08D2D0E947408DF9165
:1021A000CF911F910F91FF90EF90DF900895DF92F4
:1021B000EF92FF920F931F93CF93DF93D82E0FEFE1
:1021C0001FEFE12CF12C8D2D0E945E08EC01009791
:1021D00021F08D2D0E945E087C01EC16FD0629F091
:1021E000015011090115110571F7C701DF91CF9158
:1021F0001F910F91FF90EF90DF900895DF92EF9283
:10220000FF920F931F93CF93DF93D82E7B018A0108
:10221000CEDFEC01009799F463E070E08D2D0E9411
:1022200040088431D9F08823C9F0C1E0D0E08C3176
:1022300011F4C0E0D0E0D195C195D10904C00817D0
:1022400019070CF4E8011C161D0644F4AE01B70191
:102250008D2D7ADF60E48D2D0E94B007CE01DF91D5
:10226000CF911F910F91FF90EF90DF9008950F9302
:102270001F93CF93DF931F92CDB7DEB7082F10E0E7
:10228000F801EE0FFF1FE551F64F20813181232B1E
:10229000B1F041E050E0BE016F5F7F4FAFDF181635
:1022A000190684F4F801EE0FFF1FE551F64F808107
:1022B0009181019791838083898190E005C08FEFA0
:1022C0009FEF02C08FEF9FEF0F90DF91CF911F9193
:1022D0000F910895DF92EF92FF920F931F93CF9388
:1022E000DF93CDB7DEB728970FB6F894DEBF0FBEE9
:1022F000CDBFD82EE82EF12CF701EE0FFF1FE551D0
:10230000F64F20813181232B41F08F018D2DAFDFDE
:10231000F80120813181232BC9F78D2D48DF181654
:102320001906ACF548E050E0BE016F5F7F4F8D2D80
:1023300065DF9C01181619063CF58981809303100E
:102340008A81809304108B81809305108C81809307
:102350000610C701880F991FFC01E550F04F2D8131
:1023600030E0322F22274E81240F311D318320830C
:102370002F8130E0322F22274885240F311DFC01A8
:10238000E551F64F31832083822F932F02C080E0E6
:1023900090E028960FB6F894DEBF0FBECDBFDF9158
:1023A000CF911F910F91FF90EF90DF90089580E003
:1023B00091CF089581E08ECF08954091EB0950911F
:1023C000EC0941155105D9F06417750728F0BC01D7
:1023D00080E014DF9C0105C0AB01BC0180E00EDF92
:1023E0009C011216130674F4EBEEF9E080819181E2
:1023F000821B930B91838083822F932F08958FEFFD
:102400009FEF08958FEF9FEF08954091ED09509150
:10241000EE0941155105D9F06417750728F0BC0184
:1024200081E0ECDE9C0105C0AB01BC0181E0E6DE91
:102430009C011216130674F4EDEEF9E0808191818F
:10244000821B930B91838083822F932F08958FEFAC
:102450009FEF08958FEF9FEF089580E008CF0895D4
:1024600080914E0590914F05A0915005B091510576
:102470000196A11DB11D80934E0590934F05A09329
:102480005005B093510580E0A1C00895CF93C0914D
:102490003105811103C01092310506C0C13099F099
:1024A00018F0C230F9F047C080913005811104C0A6
:1024B0000E94510A8093300581E080933105C1303C
:1024C00009F03FC042C060E281E00E94E0088F3F17
:1024D00091F568EE73E08091300529D882E0809311
:1024E000310533C062E070E082E00E94400884FD64
:1024F00018C062E070E082E00E94400883FF07C0DD
:1025000048E162E070E082E00E94740814C08091AB
:10251000300592D8882379F0A3DF8FEF80933105BF
:1025200014C040E162E070E082E00E9474088FEF26
:10253000809331050AC0809131058C1731F08130CC
:1025400021F460E280E00E94E00880913105CF91A3
:102550000895BF92CF92DF92EF92FF920F931F9355
:10256000CF93DF937B016A01E901B0902F058823A7
:1025700031F0BB2021F081E0B81639F00DC081E0C8
:1025800080932F05B8120EC015C081E07FDF8F3F0A
:1025900019F480932F050EC080912F058B1551F0F3
:1025A000813041F4B601C70164DDB801CE016ADDB6
:1025B00080E06CDF80912F05DF91CF911F910F910B
:1025C000FF90EF90DF90CF90BF9008950F931F93EF
:1025D000CF93C0912E05811103C010922E0508C023
:1025E000C130A9F028F0C23011F1C43049F14AC01D
:1025F00080912D05811104C00E94510A80932D0500
:1026000081E080932E05C13009F046C0ECC069EE30
:1026100077E081E0DEDC8F3FA9F568EE73E0809122
:102620002D050E94970A82E080932E05DCC08091E0
:102630002D0502D8882331F184E080932E0531C026
:1026400063E070E082E00E944008823219F010924C
:102650002E05C9C04091790250917A020EE310E034
:1026600028E337E06BE772E081E073DF8F3F51F4DE
:1026700068EE73E080912D050E94970A82E08093B6
:102680002E05B1C080912E058C1709F4ACC08130A5
:1026900019F0843031F0A7C069EE77E080E099DC72
:1026A000A2C0E8E3F7E085E0808381E0809339070A
:1026B000909177022091780220933A0790933B07FC
:1026C00080933C0782E080933D0783E180933E073F
:1026D00086E380933F078091230880934007809191
:1026E00024088093410780912508809342078091B8
:1026F00026088093430787E58093440785E380930A
:10270000450781E38093460780E3809347078093E2
:10271000480780E28093490784E580934A0795E45F
:1027200090934B0793E590934C0780934D0783E577
:1027300097E090934B0880934A0880916B029091A8
:102740006C0290A3878F80916F029091700292A388
:1027500081A3809167029091680294A383A38091E2
:1027600073029091740296A385A38BE790E090A7E3
:1027700087A388E097E092A781A788E998E094A7CB
:1027800083A785E697E0909337078093360780917B
:10279000430590914405A0914505B0914605880FE9
:1027A000991FAA1FBB1FAC01BD01440F551F661F17
:1027B000771F440F551F661F771F840F951FA61F95
:1027C000B71F85A796A7A7A7B0AB8AE18093750727
:1027D0004091790250917A020EE310E09F016BE77D
:1027E00072E080E0B6DE80912E05CF911F910F91AF
:1027F00008958F929F92AF92BF92CF92DF92EF9205
:10280000FF920F931F93CF93DF93CDB7DEB7A497BB
:102810000FB6F894DEBF0FBECDBFE82ED62EC72E62
:102820006894FF24F5F88E010F5F1F4FF8018F2D7C
:1028300011928A95E9F78FEF89A38AA38BA38CA3C2
:1028400063E470E0CE0181960ADB81E089838A83AC
:1028500086E08B831C82409144085091450860912A
:10286000460870914708872E9924AA24BB24B42FC8
:10287000AA279927882788299929AA29BB29882442
:10288000942EA52EB62E88249924BB248829992914
:10289000AA29BB29452F562F672F7727442766275C
:1028A0007727482B592B6A2B7B2B4D835E836F83B5
:1028B0007887C986DA8680E890E09C878B876CE110
:1028C00070E0C801DEDAF8018F2D11928A95E9F7E0
:1028D00086E0E7E2F8E0D80101900D928A95E1F7F1
:1028E00060E170E0C801CDDAF8011192FA94E9F7DD
:1028F00006E010E060E270E0CE010196C2DA01501D
:10290000110901151105B1F783E6898392E89A83CD
:1029100093E59B838C8385E38D8381E08E83EF82B7
:102920009DE3988797E099878A8786E0E7E2F8E059
:10293000DE011B9601900D928A95E1F78CE0898B60
:102940008A8B87E0E2E8F2E0DE01539601900D9277
:102950008A95E1F760912A08CE0149960E941E0AE5
:1029600060912B08CE014B960E941E0A60912C08A4
:10297000CE014D960E941E0A6EE170E0CE010196D6
:1029800080DAF3E0EF1224C082E3898384E08A8353
:10299000909123089B83909124089C839091250813
:1029A0009D83909126089E8396E39F8388878091DC
:1029B0007A07898780917B078A8780917C078B873C
:1029C00080917D078C876CE070E0CE01019659DA2A
:1029D00087E3898386E08A8391E09B8393E09C83ED
:1029E0008D838FE08E838AE38F838BE388878FEFDD
:1029F000898769E070E0CE01019643DAA4960FB6AC
:102A0000F894DEBF0FBECDBFDF91CF911F910F9124
:102A1000FF90EF90DF90CF90BF90AF909F908F90FE
:102A200008950F931F93CF93DF93062FEA01109120
:102A30002C05882329F0112319F0113039F00DC02D
:102A400081E080932C05113071F412C081E080DAAE
:102A50008F3F19F480932C050BC090912C05911792
:102A600039F0913029F4BE01802FC3DE80E070DAA6
:102A700080912C05DF91CF911F910F9108952F9296
:102A80003F924F925F927F928F929F92AF92BF92AE
:102A9000CF92DF92EF92FF920F931F93CF93DF932A
:102AA000CDB7DEB7A2970FB6F894DEBF0FBECDBF8D
:102AB0008A017DDC181619060CF0F7C162E270E09D
:102AC000CE0101967ADC89E892E0CCD8898131D8B0
:102AD000F0D88981823009F0EAC18091FB0F909192
:102AE000FC0F8334910509F0E4C18D819E81AF8193
:102AF000B885CB2EDD24EE24FF24782F66275527BA
:102B00004427C42AD52AE62AF72A4427582F692FB2
:102B10007A2F442755277727C42AD52AE62AF72A69
:102B2000892F9A2FAB2FBB278827AA27BB27C82A14
:102B3000D92AEA2AFB2AF801C082D182E282F382F2
:102B400046E050E067E278E0CE014D960E94DC2737
:102B5000892B09F0B0C18091EA0B9091EB0BA09109
:102B6000EC0BB091ED0BC816D906EA06FB0608F48B
:102B7000A4C18091440890914508A0914608B09165
:102B800047088C159D05AE05BF0508F498C18989D5
:102B90009A89AB89BC898093230890932408A093D9
:102BA0002508B09326080EEC10E057DC01501109FF
:102BB00001151105D1F7712C0F2EFBEECF2EF9E088
:102BC000DF2EF02D812C912C0F2EFAE7AF2EF7E09F
:102BD000BF2EF02D0F2EFBEF4F2EFFE05F2EF02DBE
:102BE0000F2EFBE72F2EF7E03F2EF02D56C135DCE0
:102BF0008333910509F405C17CF48130910529F1F5
:102C000024F4892B09F449C13DC18330910521F198
:102C1000069709F439C036C18A33910509F47FC09B
:102C20003CF48533910569F0C69709F445C02AC183
:102C30008B33910509F4ACC08F3F910509F42DC188
:102C400021C10BDC0ADC782E28C107DC64E070E0CF
:102C500087EF9FE002DC21C100DC7C0164E070E0D2
:102C600085E398E0FADBFF24F4E0EF1AF1081E1484
:102C70001F040CF012C1082D192DEFDB0F5F1F4F41
:102C80000E151F05D4F309C1E8DB7C0164E070E098
:102C90008BE090E1E2DBFF2484E0E81AF1081E14E7
:102CA0001F040CF0FAC0082D192DD7DB0F5F1F4F42
:102CB0000E151F05D4F3F1C0D0DBF5019081911101
:102CC0000EC0F101908191110AC0ECE7F7E090810C
:102CD000911105C0EDE7F7E09081992399F0F50196
:102CE0000081118122813381F20140815181628111
:102CF0007381041715072607370721F0F82E811175
:102D000006C0CBC064E070E0C501A7DBC6C0082DDB
:102D1000192DA3DB0F5F1F4FF012FBCFBEC09DDB51
:102D200064E070E08CE498E098DB80914C0890912E
:102D30004D08A0914E08B0914F080B2F1127222764
:102D40003327782F662755274427042B152B262B4E
:102D5000372B4427582F692F7A2F44275527772759
:102D6000042B152B262B372B492F5A2F6B2F772708
:102D7000442766277727402B512B622B732B4093D8
:102D80004C0850934D0860934E0870934F0885C0CF
:102D900064DB64E070E087EF99E05FDB8091F70926
:102DA0009091F809A091F909B091FA090B2F112718
:102DB00022273327782F662755274427042B152BE6
:102DC000262B372B4427582F692F7A2F4427552736
:102DD0007727042B152B262B372B492F5A2F6B2F98
:102DE0007727442766277727402B512B622B732B9D
:102DF0004093F7095093F8096093F9097093FA0921
:102E00004CC02BDB64E070E089E398E026DB809126
:102E1000390890913A08A0913B08B0913C080B2FDB
:102E2000112722273327782F662755274427042B7D
:102E3000152B262B372B4427582F692F7A2F442701
:102E400055277727042B152B262B372B492F5A2F45
:102E50006B2F7727442766277727402B512B622B30
:102E6000732B4093390850933A0860933B08709352
:102E70003C084093111050931210609313107093FC
:102E800014100BC0EADAF82E882339F0082D192D1A
:102E9000E4DA0F5F1F4FF012FBCFF60180819181C2
:102EA000892B09F0A4CE872D0BC08FEF09C080E0DD
:102EB00007C080E005C080E003C080E001C080E082
:102EC000A2960FB6F894DEBF0FBECDBFDF91CF91B3
:102ED0001F910F91FF90EF90DF90CF90BF90AF9038
:102EE0009F908F907F905F904F903F902F9008958C
:102EF000CF92DF92EF92FF926B017C016115710519
:102F00008105910539F00E94C727A70196010E940B
:102F1000382703C060E070E0CB01FF90EF90DF90B6
:102F2000CF900895CF93C0912B05811110C080914F
:102F30004D0581111EC080917F0280934D0592E066
:102F4000980F90937F028F5F80934C0512C0C5301D
:102F5000C9F130F4C13099F060F0C330E1F0D9C06C
:102F6000C73009F475C008F45CC0CF3F09F4C7C08E
:102F7000D0C081E080932B058C13D9C02BC164E4B1
:102F800070E081E00E945F0E8F3F09F0C2C083E0D5
:102F900080932B0514C14AE050E061E081E041DDFF
:102FA0008F3F09F0B6C081E08093101048EE53E0E7
:102FB00060E070E080914D050E94D40A85E0809326
:102FC0002B0508C160912F0870913008809131085D
:102FD0009091320847E050E152DD8230A1F48091B7
:102FE000071090910810A0910910B0910A108093D9
:102FF000440890934508A0934608B093470886E09C
:1030000080932B05E2C080914D050E94430B8823DD
:1030100021F081E080932B058AC085E080932B0509
:10302000D9C044E650E063E081E0FBDC8F3F09F06B
:1030300070C082E08093101044EF51E060E070E0D7
:1030400080914D050E94D40A87E080932B05C2C071
:1030500060912F087091300880913108909132086A
:1030600047E050E10CDD8530B1F52091260830E0D5
:103070004091250850E06091240870E08091230879
:1030800090E00E94EF072091380830E04091370827
:1030900050E06091360870E08091350890E00E9421
:1030A0000A082091FA0F30E04091F90F50E060914A
:1030B000F80F70E08091F70F90E00E94250840E340
:1030C00055E760E070E080914C050E94D40A8FEFD4
:1030D00080932B057FC0863021F483E080932B05FD
:1030E0006EC080914D050E94430B882321F081E042
:1030F00080932B051CC087E080932B056BC08091CB
:103100004C050E94430B882321F081E080932B051E
:103110000EC080912B058C1709F45CC0833009F434
:103120004EC0863009F451C0813009F053C06FECB5
:1031300077E080E090E0DCDEDC01CB010196A11DB0
:10314000B11D8093440890934508A0934608B0931E
:1031500047088093EA0B9093EB0BA093EC0BB09392
:10316000ED0B10922308109224081092250810925B
:1031700026081092F70F1092F80F1092F90F109284
:10318000FA0F1092350810923608109237081092F4
:10319000380810927A0710927B0710927C071092E1
:1031A0007D0710920B1010920C1010920D101092BF
:1031B0000E1064E470E080E00E945F0E0BC04AE0F5
:1031C00050E061E080E02DDC05C04AE050E063E0C3
:1031D00080E027DC80912B05CF910895AF92BF92BC
:1031E000CF92DF92EF92FF920F931F93CF93DF93D3
:1031F000CDB7DEB760970FB6F894DEBF0FBECDBF78
:10320000A2960EAD1FADA29781E3F80180838EE2F6
:10321000818383E3828313826F96DFAC6F97DA94A6
:1032200009F44EC021E0A12CB12C0F2EFEE2EF2EAE
:10323000F12CF02D8A2D9B2DCC24C394C20EEEE1EF
:10324000F0E0EC0FFD1FE20FF11D20819695982F05
:10325000882797958795322F3F77830F911DDA94B2
:1032600021F02223C4F42C2DE7CF4AE0BE016F5F8A
:103270007F4F0E941C28F80101900020E9F7319748
:103280008EE290E091838083BE016F5F7F4FC80123
:103290000E94E92715C04AE0BE016F5F7F4F0E9480
:1032A0001C28F80101900020E9F73197F182E082B3
:1032B000BE016F5F7F4FC8010E94E9272C2DBACF56
:1032C00060960FB6F894DEBF0FBECDBFDF91CF91F1
:1032D0001F910F91FF90EF90DF90CF90BF90AF9034
:1032E000089520E4FC0111922A95E9F7FC01E05CC5
:1032F000FF4F1182108208958F929F92AF92BF92DA
:10330000CF92DF92EF92FF920F931F93CF93DF93B1
:10331000CDB7DEB760970FB6F894DEBF0FBECDBF56
:103320008C017B01FC01EE5BFF4F8081843009F44E
:103330007DC0863009F46DC0843409F066C076C063
:1033400081E3D7018C938EE211968C93119783E3DE
:1033500012968C93129713961C92F801E05CFF4F23
:10336000B080BA9411F181E0812C912C0F2EFEE2F5
:10337000CF2ED12CF02D282D392DAA24A394A80EC0
:10338000F801E80FF11D80813695322F22273795FD
:103390002795982F9F77290F311DBA9409F453C0B0
:1033A00088230CF067C08A2DE8CF80E079C0F8014F
:1033B000ED5BFF4F1082339720813181211531055C
:1033C000D1F080E090E060E03396A801405C5F4F70
:1033D000D801A60FB11D2C91D701A80FB91F2C93AE
:1033E00060816F5F6083862F90E0DA012D913C91C0
:1033F0008217930768F3F701E20FF31F108280E052
:103400004FC0C8016EDF81E04BC0C8016ADF87E0B2
:1034100047C0FB0101900020E9F7CF01861B970B05
:1034200002978417950708F48BCFEBCFF701019033
:103430000020E9F7CF018E199F090297841795079D
:1034400008F4B5CFDECF4AE0BE016F5F7F4FC90100
:103450000E941C28F70101900020E9F731978EE2C5
:1034600090E091838083BE016F5F7F4FC7010E9410
:10347000E9279BCF4AE0BE016F5F7F4FC9010E94E1
:103480001C28F70101900020E9F73197D182C08212
:10349000BE016F5F7F4FC7010E94E9278A2D6BCF66
:1034A00060960FB6F894DEBF0FBECDBFDF91CF910F
:1034B0001F910F91FF90EF90DF90CF90BF90AF9052
:1034C0009F908F9008951F93CF93DF93FC01EE5B45
:1034D000FF4F2081223039F5FB01108211821282C8
:1034E0001382FC01E05CFF4F208131812115310501
:1034F000E9F0162FE62FF72F40E050E0EC01C05C1A
:10350000DF4F40955095280F391FD901A40FB51FE3
:103510002C9121934E2F411B50E028813981421775
:10352000530778F305C0DDDE87E003C080E001C00B
:1035300080E0DF91CF911F910895CF9320E4FC01AB
:1035400011922A95E9F7262F2F7B2430C9F5FA012D
:1035500001900020E9F79F01241B350B225031090F
:103560002034310550F5FC01EE5BFF4F6083FA011A
:1035700001900020E9F73197BF01641B750BFC0136
:10358000E05CFF4F71836083339610826115710593
:10359000D1F020E030E0C0E0DF01FA01E20FF31FDC
:1035A0002081FC01EC0FF11D2083CF5FCC932C2FE9
:1035B00030E02617370788F308C093DE81E006C0A5
:1035C00090DE87E003C080E001C080E0CF910895E5
:1035D00020E4FC0111922A95E9F7623011F064347D
:1035E00071F4FC01E05CFF4F22E030E03183208386
:1035F00032966083FC015083418380E0089571DE40
:1036000087E0089570E4FC0111927A95E9F7623041
:1036100011F0643481F4FC01E05CFF4FA4E0B0E001
:10362000B183A08332966083FC015083418332834F
:10363000238380E0089555DE87E00895FC0180E44F
:10364000DF011D928A95E9F78FEB860F843010F029
:10365000673481F4DF01A05CBF4F84E090E01196F5
:103660009C938E9312966C93508341833283238371
:1036700080E00895CF0135DE87E008952F923F92D4
:103680004F925F926F927F928F929F92AF92BF9272
:10369000CF92DF92EF92FF920F931F93CF93DF931E
:1036A000CDB7DEB72B970FB6F894DEBF0FBECDBFF8
:1036B000998788878091ED099091EE0990932E0863
:1036C00080932D088CE992E00E94150E80912D08C0
:1036D00090912E080E94CA0D89E9EEE7F7E0DF011C
:1036E0001D928A95E9F760912D0870912E086A392C
:1036F000710508F0C7C1CF010E94051280917E07B5
:10370000803309F0C1C18091810723E0280F30E0A8
:10371000F901E258F84FD28095E0980F792E7D0C90
:10372000E72CF12CF701E258F84F8180B481B9837E
:1037300094E0970DAB2EA90E0A2D10E0F801E25887
:10374000F84F92819C836894BB24B1F8BA0CB90EEF
:10375000AB2DB0E0FD01E258F84F92806894CC2484
:10376000C1F8CB0CC90C4C2C512CF201E258F84F8B
:10377000668096E09C0D960D9D83292E312CA1012B
:103780004258584FFA01F181FF83FA01F281FE831A
:10379000E885F9851182128213821482882331F11F
:1037A00043E857E0815090E08C57984F3B832A8341
:1037B000BB87AA87FA012191A885B98511964D91F9
:1037C0005D916D917C911497762F652F542F44272E
:1037D000422B11964D935D936D937C931497E8174C
:1037E000F90749F72A813B81AA85BB85E885F985D8
:1037F00080828092AA0AF4E1FD1538F481E0A88560
:10380000B98519968C9382E06FC1E885F98580812E
:10381000833A09F03FC06D2D70E08091F3099091DB
:10382000F4096817790709F06EC06115710509F48C
:1038300071C0C90103964091E80B5091E90BFC015E
:10384000E258F84F3081FA012081321791F00AC016
:10385000E40FF51FC401820F911DDC019C91808152
:10386000981771F082E0A885B98519968C9387E046
:103870003BC120E08258984FBB83AA83392D4C016D
:103880002F5FE22FF0E0E617F70710F3AA81BB8164
:10389000932E40C0803AB9F54D2D50E08091330809
:1038A000909134084817590771F54115510591F168
:1038B000B9016D5F7F4F2091760730917707FB014B
:1038C000E258F84F9081F9018081981791F00AC071
:1038D000820F931FFB01ED0DF11D8080FC018081A3
:1038E000881651F082E0A885B98519968C9387E0F7
:1038F000FBC0D12C6258784FD3948D2D90E0841763
:10390000950730F307C082E0A885B98519968C9396
:1039100087E0EAC0E885F98515821682178210864D
:10392000F981FF2351F1A7014D57584F872D90E0A2
:103930008C57984F2F2F2150820F911DBB83AA8344
:10394000FA01E884F9842191D70115964D915D9192
:103950006D917C911897762F652F542F4427422B19
:1039600015964D935D936D937C931897E817F9071F
:1039700051F7AA81BB81F986E886E885F985118629
:10398000FC81FF23E1F00F57184F8A2D90E08E57EE
:10399000984F2F2F2150820F911D40E050E0BA0127
:1039A000F80108851985762F652F542F442721911A
:1039B000422BE817F907B9F71987088703C040E0D9
:1039C00050E0BA01E885F98541871286138614868E
:1039D00015869920E9F0AF57B84F8B2D90E08E57A0
:1039E000984F2FEF290D820F911D2D914285538500
:1039F00064857585762F652F542F4427422B428787
:103A0000538764877587A817B90779F7F987E88717
:103A1000F0E4F61538F481E0A885B98519968C9301
:103A200083E062C080E4E885F9853E96DF011D925F
:103A30008A95E9F7E885F985E25BFF4F862D90E0EE
:103A400091838083662021F1F201EB57F84FA8851E
:103A5000B9851E968C2D90E08A57984F6A94860DF2
:103A6000911D4885598521912D93E817F907D9F7BC
:103A7000598748870DC021912D93E817F907D9F789
:103A800080E032C086E030C085E02EC080E02CC0EF
:103A9000E885F985EE56FF4FBF81B083E885F9854B
:103AA000E057FF4F2E81822F90E09183808380E446
:103AB000E885F985E05BFF4FDF011D928A95E9F704
:103AC000222321F3F101EF57F84F48855985405BD8
:103AD0005F4FBD818B2F90E08E57984F2E812150E4
:103AE000820F911DDA01C7CF2B960FB6F894DEBF77
:103AF0000FBECDBFDF91CF911F910F91FF90EF903F
:103B0000DF90CF90BF90AF909F908F907F906F90FD
:103B10005F904F903F902F900895CF92DF92EF9259
:103B2000FF920F931F93CF93DF93DC01109218083D
:103B300010921708EC01C25BDF4FFC01E057FF4F0A
:103B40002881398180819181280F391F2B5D3F4F5A
:103B500089E9EEE7F7E0EF0119928A95E9F780919C
:103B6000AA0A833A29F58091F3099091F409280F64
:103B7000391F30932E0820932D0830E330937E07B1
:103B8000225020937F0722E02093800721E020939A
:103B9000810724E02093830727E030E03093180862
:103BA00020931708BC0180938407009731F566C005
:103BB0008091330890913408280F391F30932E08D4
:103BC00020932D0830E330937E07225020937F0707
:103BD00022E02093800721E02093810724E02093B6
:103BE000830727E030E03093180820931708BC01C2
:103BF00080938407009711F541C00091E80B109164
:103C0000E90B80E090E0C0E020911708309118089F
:103C1000A9014F5F5F4F5093180840931708800F1A
:103C2000911FFC0180812258384FF9018083CF5FBA
:103C30008C2F90E08617970738F320C00091760705
:103C40001091770780E090E0C0E020911708309154
:103C50001808A9014F5F5F4F509318084093170849
:103C6000800F911FFC0180812258384FF901808319
:103C7000CF5F8C2F90E08617970738F38091170855
:103C8000909118089C012F5F3F4F309318082093A4
:103C900017084C91FC01E258F84F4083A9014258A3
:103CA000584F7D012EE4E20EF11CE70178819D0161
:103CB00020573F4FE9016881670F665EEA0168831C
:103CC00002E0028314E0138315964C911597169623
:103CD0005C91169717966C91179718967C91189788
:103CE00074836583568347830087118719964C91A7
:103CF00019971286138614864587068717871A96A2
:103D00004C911A971B965C911B971C966C911C9773
:103D10001D967C911D97708B618B528B438B40E37A
:103D2000448BE7016881E9015881560F5A5F558B32
:103D3000468BE7014881E9012881240F2C5F278BFE
:103D400026E0208F4A969093180880931708E70181
:103D50008881818F88819981892B49F18091170809
:103D600090911808FD013E969C012258384F690138
:103D70007C013DE0E31AF108EA1AFB0A02EF1FEFAB
:103D80000A1B1B0BBE01A7014E0F5F1F8191E601AD
:103D900089936E0198012E0F3F1FEB018881998155
:103DA0002817390780F3509318084093170880911B
:103DB000170890911808FD01EE56FF4F2081EC0185
:103DC000C258D84F288302969093180880931708FA
:103DD00032978081898380819181892B29F100919B
:103DE000170810911808E054F109E801C258D84F9B
:103DF0000F5411090A1B1B0B60EB7FEF6A1B7B0B37
:103E0000A057BF4FA8014E0F5F1F819189939B015F
:103E10002E0F3F1F8D919C9111972817390790F312
:103E200050931808409317086091FD0F7091FE0F92
:103E300083E090E10E94380F60912D0870912E0868
:103E40008EE797E00E94540F80E0DF91CF911F91A1
:103E50000F91FF90EF90DF90CF900895CF93DF9375
:103E6000CDB7DEB7C459D1090FB6F894DEBF0FBE87
:103E7000CDBFCE01019602DC80932010998120E60F
:103E8000290F223018F0933A09F02DC29A8591112A
:103E90002AC2811128C286E69AE09F938F938DB73C
:103EA0009EB7825491090FB6F8949EBF0FBE8DBF86
:103EB000ADB7BEB7119682E4FE013F9601900D9218
:103EC0008A95E1F78BD90FB6F894DEBF0FBECDBF50
:103ED00066ED7CE086E69AE00E94D327892B29F5DF
:103EE0008981833AA9F4CE018F5A9F4FFAD9CF56D0
:103EF000DF4F19821882C159D04085E0CD56DF4F7F
:103F00008883C359D04082EA898384E08A87DFC1ED
:103F100046E552E064E0CE018F5A9F4F0EDB80935E
:103F20001B1092EA99838A87D2C164EC7CE086E612
:103F30009AE00E94D327892BA9F48981833A29F436
:103F400082EA898384E08A87C2C145E452E064E062
:103F5000CE018F5A9F4FF1DA80931B1092EA99831A
:103F60008A87B5C162EB7CE086E69AE00E94D3279F
:103F7000892BD9F48981833A29F482EA898384E000
:103F80008A87A5C12091430530914405409145059C
:103F90005091460563E4CE018F5A9F4F4FDB8093CB
:103FA0001B1092EA99838A8792C16EE87CE086E6CC
:103FB0009AE0F9D7892B29F58981833AA9F4EDE1B3
:103FC000F2E001900020E9F73197AF014D515240E6
:103FD0006DE172E0CE018F5A9F4F8ED980931B10F6
:103FE00092EA99838A8773C14DE152E064E0CE0181
:103FF0008F5A9F4FA2DA80931B1092EA99838A8787
:1040000066C160EA7CE086E69AE0CDD7892B29F587
:104010008981833AA9F4E1E3F2E001900020E9F715
:104020003197AF014153524061E372E0CE018F5AA4
:104030009F4F62D980931B1092EA99838A8747C168
:1040400041E352E064E0CE018F5A9F4F76DA8093CD
:104050001B1092EA99838A873AC16CE77CE086E676
:104060009AE0A1D7892B29F58981833AA9F4E9E05F
:10407000F2E001900020E9F73197AF01495052403A
:1040800069E072E0CE018F5A9F4F36D980931B10A2
:1040900092EA99838A871BC149E052E064E0CE012D
:1040A0008F5A9F4F4ADA80931B1092EA99838A872E
:1040B0000EC16AE67CE086E69AE075D7892BA9F402
:1040C0008981833A29F482EA898384E08A87FFC060
:1040D00047E050E062E0CE018F5A9F4F79DA80933B
:1040E0001B1092EA99838A87F2C065E57CE086E638
:1040F0009AE059D7892BB9F48981833A29F482EA65
:10410000898384E08A87E3C029E033E040E050E01F
:1041100062E0CE018F5A9F4F75DA80931B1092EAAE
:1041200099838A87D4C06DE37CE086E69AE03BD72A
:10413000892B31F58AEA92E00E94320E8981833A16
:1041400061F467E475E0CE018F5A9F4FBCD980932C
:104150001B1092EA99838A87BAC020914705309153
:1041600048054091490550914A0562E0CE018F5AB9
:104170009F4F48DA80931B1092EA99838A87A7C0E1
:1041800065E27CE086E69AE00ED7892B31F582EB7A
:1041900092E00E94320E8981833A61F463E772E013
:1041A000CE018F5A9F4F8FD980931B1092EA99832B
:1041B0008A878DC0209173023091740240917502FC
:1041C0005091760262E0CE018F5A9F4F1BDA8093A6
:1041D0001B1092EA99838A877AC065EF7BE086E6B6
:1041E0009AE0E1D6892BF9F48DEB92E00E94320E31
:1041F0008981833A29F482EA898384E08A8767C0C7
:1042000020916B0230916C0240916D0250916E02D0
:1042100062E0CE018F5A9F4FF5D980931B1092EA2E
:1042200099838A8754C06DE07CE086E69AE0BBD62D
:10423000892BF9F483EC92E00E94320E8981833A53
:1042400029F482EA898384E08A8741C020916F0241
:1042500030917002409171025091720262E0CE0181
:104260008F5A9F4FCFD980931B1092EA99838A87E8
:104270002EC06DED7BE086E69AE095D6892BF9F4A9
:1042800088EC92E00E94320E8981833A29F482EA16
:10429000898384E08A871BC020916F02309170026D
:1042A000409171025091720262E0CE018F5A9F4F8D
:1042B000A9D980931B1092EA99838A8708C082EA61
:1042C000898382E08A878EEC92E00E94320E8AED2A
:1042D00092E00E94320ECE0101961FDC80914B05C8
:1042E0008F5F80934B05CC56DF4F0FB6F894DEBF3F
:1042F0000FBECDBFDF91CF910895CF9386E297E0B7
:104300000E949D06C82F87E297E00E949D062C2FF1
:1043100030E0322F2227A901480F511DCA01CF9149
:10432000089560E181E097E00E94970781E097E0BF
:104330000E949D068111FACF08951F93CF93DF93BA
:10434000162FC42FD52F83E097E00E949D06811180
:1043500001C0E7DF612F80E097E00E9497076D2F93
:1043600084E097E00E9497076C2F85E097E00E9419
:10437000970761E081E097E00E94970781E097E06E
:104380000E949D068111FACF83E097E00E949D066E
:10439000833119F0C6DF80E001C081E0DF91CF9169
:1043A0001F91089583E097E00E949D068331A1F458
:1043B00062E081E097E00E94970781E097E00E9429
:1043C0009D068111FACF83E097E00E949D0684311B
:1043D00029F0A7DF80E0089580E0089581E0089546
:1043E0008F929F92AF92BF92CF92DF92EF92FF9205
:1043F0000F931F93CF93DF936C017B0161157105C0
:1044000009F445C0613084E0780748F52EC0219753
:10441000C401977098580E949D06F80181938F01FE
:10442000FFEF8F1A9F0A209791F7AE0CBF1CF60181
:10443000EE0DFF1D10826B2D88E297E00E9497071A
:104440006A2D89E297E00E94970760E481E097E097
:104450000E9497078AE18A95F1F700C018C00F2ED5
:10446000FEEFEF2EF3E0FF2EF02D88E297E00E94A2
:104470009D06A82E89E297E00E949D06B12CBA2CD9
:10448000AA24A80EB11C4501E7018601C0CF81E036
:1044900090E0DF91CF911F910F91FF90EF90DF900F
:1044A000CF90BF90AF909F908F90089568E081E08B
:1044B00097E00E94970781E097E00E949D06811196
:1044C000FACF0895AF92BF92CF92DF92EF92FF9210
:1044D0000F931F93CF93DF936C017B0161157105DF
:1044E00009F456C080E297E00E949D06C82FD0E0F4
:1044F000DC2FCC2781E297E00E949D06C80FD11DDA
:10450000CE15DF0508F45BC049C08FE99FE0019735
:10451000F1F700C0000080E297E00E949D06082F9E
:1045200010E0102F002781E297E00E949D0698017D
:10453000280F311D2197209711F4B8DF58C02E1590
:104540003F0518F32BC02197C8019770F6016191C0
:104550006F01985A0E9497070F5F1F4F209799F796
:10456000EA0CFB1C6F2D84E297E00E9497076E2DEA
:1045700085E297E00E94970760E281E097E00E9461
:10458000970781E097E00E949D068111FACF03C052
:10459000C0E0D0E02CC0C1E0D0E029C084E297E0C8
:1045A0000E949D06A82E85E297E00E949D06B12CF0
:1045B000BA2CAA24A80EB11C8501E701C4CF8FE94B
:1045C0009FE00197F1F700C0000080E297E00E94B1
:1045D0009D06C82FD0E0DC2FCC2781E297E00E9417
:1045E0009D069E01280F311DC9EED3E0A8CFCE0154
:1045F000DF91CF911F910F91FF90EF90DF90CF90BF
:10460000BF90AF900895CF92DF92EF92FF920F93F9
:104610001F93CF93DF937B01FB0101900020E9F70B
:1046200031976F01C61AD70AFC0120812223A9F015
:10463000EC01219600E010E0A601B701D5D4892B4A
:1046400019F4802F912F0EC00F5F1F4FCE012196BE
:10465000FC0120812111F0CF03C08FEF9FEF02C03A
:104660008FEF9FEFDF91CF911F910F91FF90EF9010
:10467000DF90CF9008958F929F92AF92BF92CF928A
:10468000DF92EF92FF92CF93DF93D82FC09129054D
:104690008EEE92E00E94150E8C2F0E94990D0E94C2
:1046A000590ED11103C01092290518C04091290557
:1046B00050E04031510508F026C2FA01EA59FF4F97
:1046C000F3C3E0913F05F091400580913B05909147
:1046D0003C05E817F9070CF4B9C1F0C18091280531
:1046E000811104C00E94510A8093280581E08093C3
:1046F000290536C283E097E00E949D0680930F1043
:104700008FE093E00E94150E80910F100E94990D8A
:104710000E94590E80910F10883149F128F48823A6
:1047200041F0873151F0EFC18A51843008F0EBC17C
:104730001EC082E08093290513C2809126059091C6
:104740002705892B51F485E08093290562E070E00C
:10475000809128050E94970AD6C186E0809329059A
:1047600065E070E0809128050E94970ACCC1D9DDF0
:10477000CAC140E550E061E083E0DFDD882321F03D
:1047800083E080932905ECC181E080932905E8C18D
:1047900009DE811104C084E080932905E1C181E034
:1047A00080932905DDC181E080932905D9C1D0918D
:1047B00028058D2F0E941C0B882309F4A4C165E0F5
:1047C00070E08D2F0E94970A86E080932905C630FD
:1047D00009F0A2C1D6E0C6C1D09128058D2F0E9454
:1047E0001C0B882309F48FC12091260530912705E1
:1047F000253031057CF02091780730917907232B03
:1048000079F462E370E08D2F0E94970A87E080932D
:104810002905A6C18091780790917907892B21F00D
:1048200089E0809329059CC181E08093290598C186
:10483000809128050E941C0B882309F464C1109202
:1048400027051092260588E08093290589C180916B
:10485000780790917907892B21F089E080932905C9
:104860007FC124DE81E0809329057AC1109227055B
:1048700010922605609178077091790786EF9BE08A
:10488000AFDD1092F50F6DE173E086EF9BE0BAD3D8
:10489000892B19F08AE08093290563E273E086EFA3
:1048A0009BE0B1DE99231CF08AE08093290564E344
:1048B00073E086EF9BE0A7DE99230CF424C18CE023
:1048C000809329054DC1C6EFDBE08AE3EFE3F3E017
:1048D000DE0101900D928A95E1F7DE010D90002036
:1048E000E9F711978BE3E9E7F3E001900D928A95E0
:1048F000E1F7DE010D900020E9F7119785E2E4EB86
:10490000F3E001900D928A95E1F7DE010D90002011
:10491000E9F7119789E1E9EDF3E001900D928A95AD
:10492000E1F7C0904305D0904405E0904505F09034
:104930004605C701B60124E630E040E050E076D2FB
:104940000F2EFCE38F2E912CA12CB12CF02DCA013F
:10495000B901A50194016AD21F926F93C701B601F4
:1049600020E737E140E050E061D2CA01B901A5017A
:1049700094015CD21F926F93C701B60120E43EE719
:1049800045E050E053D23F932F9382EF93E09F9303
:104990008F9382E09AE09F938F9367D362E07AE0EF
:1049A000CE0117D309900020E9F72197BE01665F79
:1049B0007B4086EF9BE086DD79DD81E080932905F1
:1049C0008DB79EB70A960FB6F8949EBF0FBE8DBFE7
:1049D000C7C0C6EFDBE088E3E8E3F4E0DE01019066
:1049E0000D928A95E1F7DE010D900020E9F711970D
:1049F0008BE3E9E7F3E001900D928A95E1F7DE01A0
:104A00000D900020E9F7119788E3E0E7F4E00190CA
:104A10000D928A95E1F7DE010D900020E9F71197DC
:104A20008CE2E8EAF4E001900D928A95E1F70990B2
:104A30000020E9F72197BE01665F7B4086EF9BE08F
:104A400041DD34DD81E0809329058AC0E451FF4FC8
:104A5000E4912091410530914205D901AA50B44F0B
:104A6000EC932F5F3F4F3093420520934105211572
:104A70003440A4F060E074E086EF9BE023DD892BF6
:104A8000E9F0109242051092410580913D05909108
:104A90003E05019690933E0580933D05E0913F05CC
:104AA000F09140053196F0934005E0933F058091E9
:104AB0003B0590913C05E817F90744F280914105C8
:104AC00090914205181619069CF480913D05F82E28
:104AD000FF0CFF0CE12C60913B0570913C056E19B9
:104AE0007F096150710986EF9BE0ECDC892B59F05E
:104AF000DDDC81E08093290533C0D8DC12DC81E065
:104B0000809329052DC0D0912905DC1759F1D630A5
:104B100021F0DD3091F026C0D6E0EFDB90937907ED
:104B20008093780720912605309127052F5F3F4F0E
:104B3000309327052093260515C010924205109248
:104B400041051092400510923F0510923E051092CB
:104B50003D0521EF3AE030933C0520933B0502C030
:104B6000D091290584ED94E00E94150E8D2F0E94AE
:104B7000990D0E94590E8D2FDF91CF91FF90EF90EC
:104B8000DF90CF90BF90AF909F908F900895EF925D
:104B9000FF920F931F93CF93C0912505882339F07F
:104BA000C13049F020F0C23009F447C050C081E064
:104BB000809325055CC06894EE24E1F8F12C0EED9D
:104BC00010E02CEC30E04BEB50E06AEA70E080E063
:104BD00090E00E94C807109227088AEA809328086C
:104BE0008BEB809329088CEC80932A088EED8093C0
:104BF0002B0882E080932C088091080281110FC05D
:104C00002091070230E04091060250E060910502D9
:104C100070E08091040290E00E94EF070AC020E05B
:104C200030E040E050E060E070E080E090E00E9422
:104C3000EF0782E08093250510C081E00E94921763
:104C400081E024D081E00E94E61281E014DD8091B1
:104C500025058C1761F0823051F480E00E94921794
:104C600080E014D080E00E94E61280E004DD8091B4
:104C70002505CF911F910F91FF90EF90089580E04F
:104C800086DF83EF94E00C94320E0895CF93C091A9
:104C90002A05882341F0C13061F028F0C230A1F02C
:104CA000C33069F135C081E080932A05C130C9F570
:104CB00055C061EA70E081E00E94AB0E8F3F41F584
:104CC00082E080932A054AC063E070E081E00E94A0
:104CD0004008823229F085E095E00E94320ECFDF55
:104CE0000E94DA11892BA1F08091ED099091EE09D3
:104CF000892B71F0B3D883E080932A052CC081E022
:104D00000E94670F8F3F21F482E080932A0526C01E
:104D100080912A058C1711F1813019F08330D9F078
:104D20001DC061EA70E080E00E94AB0E85E992E070
:104D300090937707809376079093E90B8093E80B25
:104D400086E090E09093F4098093F30990933408FF
:104D50008093330803C080E00E94670F80912A058A
:104D6000CF9108958091010A0E941C0B882391F035
:104D700064E670E08091010A0E94970A8091240500
:104D8000811105C02F9A81E08093240508952F9802
:104D9000109224050895279A9B9A8CB580658CBD46
:104DA0001DBC219A229A2398209A289A0E94700B5F
:104DB0000E94580A8093EA0940E452E46FE070E0F0
:104DC0000E94D40A0E94130C0C94160D08950E94A0
:104DD000130C0C94F90C0895DEDF0E94F90C0E946C
:104DE00007070E94F90C80E0D2DE2FEF81EE94E0FD
:104DF000215080409040E1F700C00000E8DFB2DFC2
:104E000081E0C5DEF2CF97FB072E16F4009406D0A2
:104E100077FD08D05ED007FC05D03EF490958195D3
:104E20009F4F0895709561957F4F0895A1E21A2EC6
:104E3000AA1BBB1BFD010DC0AA1FBB1FEE1FFF1F3E
:104E4000A217B307E407F50720F0A21BB30BE40B8E
:104E5000F50B661F771F881F991F1A9469F76095D5
:104E60007095809590959B01AC01BD01CF0108958F
:104E7000052E97FB16F400940FD057FD05D0D6DF12
:104E800007FC02D046F408C0509540953095219516
:104E90003F4F4F4F5F4F0895909580957095619566
:104EA0007F4F8F4F9F4F0895EE0FFF1F0590F49196
:104EB000E02D1994A29FB001B39FC001A39F700D74
:104EC000811D1124911DB29F700D811D1124911D12
:104ED0000895AA1BBB1B51E107C0AA1FBB1FA61741
:104EE000B70710F0A61BB70B881F991F5A95A9F793
:104EF00080959095BC01CD0108958F929F92AF92BD
:104F0000BF92CF92DF92EF92FF92CF93DF93EC01AB
:104F1000688179818A819B8161157105810591057F
:104F200021F464E279ED8BE597E02DE133EF41E088
:104F300050E09EDF49015A019B01AC01A7EAB1E4B0
:104F400066D36B017C01ACEEB4EFA50194016BD389
:104F5000C60ED71EE81EF91EF7FE06C081E0C81A6D
:104F6000D108E10880E8F80AC882D982EA82FB8287
:104F7000C701B6019F77DF91CF91FF90EF90DF904F
:104F8000CF90BF90AF909F908F900895B6CF80E064
:104F900092E0B3CF6093000270930102809302020B
:104FA000909303020895FB01DC018D910590801917
:104FB0000110D9F3990B0895FB01DC0104C08D9118
:104FC0000190801921F441505040C8F7881B990B7B
:104FD0000895FB01DC010D900020E9F71197019085
:104FE0000D920020E1F70895FB01DC014150504093
:104FF00030F08D910190801919F40020B9F7881BC9
:10500000990B0895FB0151915523A9F0BF01DC01D3
:105010004D9145174111E1F759F4CD010190002060
:1050200049F04D9140154111C9F3FB014111EFCFFA
:1050300081E090E001970895BB27FB015527AA273F
:10504000880F991FAA1FA41710F0A41B8395505115
:10505000B9F7A05DAA3308F0A95DA193009779F78D
:10506000B111B1931192CB0132C20F931F93CF9321
:10507000DF93CDB7DEB72E970FB6F894DEBF0FBE25
:10508000CDBF0E891F8986E08C831A8309838FEF39
:105090009FE79E838D83AE01465E5F4F688D798D5D
:1050A000CE01019610D0EF81F885E00FF11F10823C
:1050B0002E960FB6F894DEBF0FBECDBFDF91CF9115
:1050C0001F910F9108952F923F924F925F926F928E
:1050D0007F928F929F92AF92BF92CF92DF92EF9288
:1050E000FF920F931F93CF93DF93CDB7DEB72C972B
:1050F0000FB6F894DEBF0FBECDBF7C016B018A01F5
:10510000FC0117821682838181FFB0C1CE01019616
:105110004C01F7019381F60193FD859193FF8191F5
:105120006F01882309F49EC1853239F493FD85917E
:1051300093FF81916F01853221F4B70190E0D7D1BF
:10514000E8CF512C312C20E02032A0F48B3269F0D2
:1051500030F4803259F0833269F420612CC08D32F2
:1051600039F0803339F4216026C02260246023C0E6
:10517000286021C027FD27C030ED380F3A3078F481
:1051800026FF06C0FAE05F9E300D1124532E13C097
:105190008AE0389E300D1124332E20620CC08E32EE
:1051A00021F426FD5FC1206406C08C3611F420680E
:1051B00002C0883641F4F60193FD859193FF8191F9
:1051C0006F018111C1CF982F9F7D9554933028F4A2
:1051D0000C5F1F4FFFE3F9830DC0833631F0833737
:1051E00071F0833509F057C021C0F80180818983AF
:1051F0000E5F1F4F44244394512C540114C03801B6
:10520000F2E06F0E711CF801A080B18026FF03C090
:10521000652D70E002C06FEF7FEFC5012C874CD188
:105220002C0183012C852F77222E16C03801F2E045
:105230006F0E711CF801A080B18026FF03C0652DA0
:1052400070E002C06FEF7FEFC5012C872AD12C01DF
:105250002C852068222E830123FC19C0832D90E029
:1052600048165906A0F4B70180E290E040D13A9484
:10527000F5CFF50127FC859127FE81915F01B701EC
:1052800090E035D131103A94F1E04F1A51084114B1
:10529000510479F7DEC0843611F0893631F5F80112
:1052A00027FF07C060817181828193810C5F1F4F4E
:1052B00008C060817181882777FD8095982F0E5FE7
:1052C0001F4F2F76B22E97FF09C09095809570954D
:1052D00061957F4F8F4F9F4F2068B22E2AE030E0BC
:1052E000A40137D1A82EA81843C0853729F42F7EF2
:1052F000B22E2AE030E025C0F22FF97FBF2E8F3684
:10530000C1F018F4883579F0ADC0803719F08837CE
:1053100021F0A8C02F2F2061B22EB4FE0DC08B2D1E
:105320008460B82E09C024FF0AC09F2F9660B92E52
:1053300006C028E030E005C020E130E002C020E1F6
:1053400032E0F801B7FE07C06081718182819381EC
:105350000C5F1F4F06C06081718180E090E00E5F9E
:105360001F4FA401F6D0A82EA818FB2DFF77BF2E43
:10537000B6FE0BC02B2D2E7FA51450F4B4FE0AC030
:10538000B2FC08C02B2D2E7E05C07A2C2B2D03C01D
:105390007A2C01C0752C24FF0DC0FE01EA0DF11D11
:1053A0008081803311F4297E09C022FF06C07394E6
:1053B000739404C0822F867809F0739423FD12C081
:1053C00020FF06C05A2C731418F4530C5718732C72
:1053D000731460F4B70180E290E02C8788D0739456
:1053E0002C85F6CF731410F4371801C0312C24FF2C
:1053F00011C0B70180E390E02C8779D02C8522FF83
:1054000016C021FF03C088E590E002C088E790E065
:10541000B7010CC0822F867851F021FD02C080E2D6
:1054200001C08BE227FD8DE2B70190E060D0A514AA
:1054300030F4B70180E390E05AD05A94F8CFAA94A0
:10544000F401EA0DF11D8081B70190E050D0A11068
:10545000F6CF332009F45DCEB70180E290E047D06B
:105460003A94F7CFF7018681978102C08FEF9FEFC3
:105470002C960FB6F894DEBF0FBECDBFDF91CF9153
:105480001F910F91FF90EF90DF90CF90BF90AF9062
:105490009F908F907F906F905F904F903F902F9054
:1054A0000895FC010590615070400110D8F7809577
:1054B00090958E0F9F1F0895FC01615070400190E0
:1054C0000110D8F7809590958E0F9F1F0895DC01ED
:1054D000FC01672F71917723E1F7329704C07C912B
:1054E0006D9370836291AE17BF07C8F308950F9351
:1054F0001F93CF93DF93182F092FEB018B8181FD31
:1055000003C08FEF9FEF20C082FF10C04E815F81EC
:105510002C813D81421753077CF4E881F9819F017A
:105520002F5F3F4F39832883108306C0E885F985B4
:10553000812F1995892B29F72E813F812F5F3F4FAE
:105540003F832E83812F902FDF91CF911F910F9159
:105550000895FA01AA27283051F1203181F1E89409
:105560006F936E7F6E5F7F4F8F4F9F4FAF4FB1E056
:105570003ED0B4E03CD0670F781F891F9A1FA11D51
:10558000680F791F8A1F911DA11D6A0F711D811D52
:10559000911DA11D20D009F468943F912AE0269F17
:1055A00011243019305D3193DEF6CF010895462F76
:1055B0004770405D4193B3E00FD0C9F7F6CF462F57
:1055C0004F70405D4A3318F0495D31FD40524193C0
:1055D00002D0A9F7EACFB4E0A6959795879577957D
:1055E0006795BA95C9F700976105710508959B0104
:1055F000AC010A2E06945795479537952795BA958D
:10560000C9F7620F731F841F951FA01D089552DCF8
:10561000A59F900DB49F900DA49F800D911D112406
:105620000895B7FFF4CFF3DF821B930B0895F8942E
:02563000FFCFAA
:10563200010000000A00004C014661737469762C77
:1056420020554B52000000000000000000454C4174
:1056520053204F4646494345000000000000000029
:10566200007777772E656C61732E636F6D2E75618F
:105672000000000000312E332E362E312E332E3212
:105682003030392E3000454C415320465245454377
:105692004F4F4C494E4700C8000000DE0000006A30
:1056A200000000CC00000054C3EA07C2B0617620BB
:1056B200103057495A6E6574004D45535341474562
:1056C200204F503A007075626C6963005061636BE1
:1056D20065745F53697A653A20004C454446554EDD
:1056E2004300546672656532636F6E640054726F74
:1056F2006F6D00546169720054636F6E6400556E81
:105702006B6E6F776E204F49440053656E64696E0D
:105712006720726573706F6E73652E2E2E002020C7
:105722005765627365727665725F6175746F6D61DC
:10573200745F53746172745F73746174653A005379
:105742004F434B45545F53544154453A00474554E7
:10575200202F00474554202F66617669636F6E2EB5
:1057620069636F00474554202F742E68746D00489A
:105772005454502F312E3020323030204F4B0A43B8
:105782006F6E74656E742D547970653A2074657805
:10579200742F68746D6C3B2063686172736574204A
:1057A2003D20757466380A0A003C21444F4354591F
:1057B20050452048544D4C3E0A3C68746D6C3E3C4A
:1057C2007469746C653E525320746F204574686529
:1057D200726E65743C2F7469746C653E3C626F64D2
:1057E200793E0A003C68313ED0A8D0BBD18ED0B7FA
:1057F2002045746865726E6574202D2052533438CA
:10580200353C2F68313E0D0A00D092D180D0B5D000
:10581200BCD18F20D180D0B0D0B1D0BED182D18BBB
:1058220020003D20256920D187D0B0D181D0BED0C3
:10583200B22C20256920D0BCD0B8D0BDD183D18272
:105842002C20256920D181D0B5D0BAD183D0BDD04A
:10585200B43C62723E3C62723E3C2F626F64793E9F
:105862003C2F68746D6C3E00485454502F312E30DA
:1058720020323030204F4B0A436F6E74656E742DA8
:10588200547970653A20746578742F68746D6C3B36
:1058920020636861727365743D757466380A0A0024
:1058A2003C68313ED0A2D0B5D0BCD0BFD0B5D180FB
:1058B200D0B0D182D183D180D0B020D0B220D0BF9D
:1058C200D0BED0BCD0B5D189D0B5D0BDD0B8D0B8BB
:1058D2003C2F68313E0D0A003C4120687265663DEE
:1058E20027696E6465782E68746D273ED09DD0B0AE
:1058F20020D0B3D0BBD0B0D0B2D0BDD183D18E3CFA
:105902002F613E0020205765627365727665725F73
:105912006175746F6D61745F456E645F73746174F9
:10592200653A0052455345542045544845524E4528
:10593200542121210052455345542046524F4D20B7
:10594200534E4D502100524553455420534E4D5015
:0459520021212100EE
:00000001FF
