S01A000045746865726E65745F746F5F53657269616C2E73726563CA
S1130000D8C10000F7C10000F5C10000F3C1000031
S1130010F1C10000EFC10000EDC10000EBC1000020
S1130020E9C10000E7C10000E5C10000E3C1000030
S1130030E1C100000C94750BDDC10000DBC10000C0
S1130040D9C100000C945709D5C10000D3C10000E8
S1130050D1C100000C94430BCDC10000CBC1000002
S1130060C9C100000C94B8170C940B180C94E21737
S1130070C1C10000BFC10000BDC10000BBC1000080
S1130080B9C10000B7C10000B5C10000B3C1000090
S11300900C9434180C9487180C945E18ABC10000AF
S11300A0A9C10000A7C100000C94A90BA3C10000C2
S11300B0A1C100009FC100009DC100009BC10000C0
S11300C099C1000097C1000095C10000B40FB40F9E
S11300D08410841079121811791279127912791214
S11300E0791279127912791260110812EC13EC1357
S11300F0A214A214A3152615A315A315A315A315BD
S1130100A315A315A315A3156E156E15B535C13525
S113011000360F361A361E36303662367536853658
S1130120A836A836A8369D36A836A23600C0C10126
S1130130C30302C2C60607C705C5C404CC0C0DCD53
S11301400FCFCE0E0ACACB0BC90908C8D81819D9C3
S11301501BDBDA1A1EDEDF1FDD1D1CDC14D4D515F3
S1130160D71716D6D21213D311D1D010F03031F1E3
S113017033F3F23236F6F737F53534F43CFCFD3D13
S1130180FF3F3EFEFA3A3BFB39F9F83828E8E92903
S1130190EB2B2AEAEE2E2FEF2DEDEC2CE42425E5B3
S11301A027E7E62622E2E323E12120E0A06061A123
S11301B063A3A26266A6A767A56564A46CACAD6DD3
S11301C0AF6F6EAEAA6A6BAB69A9A86878B8B97943
S11301D0BB7B7ABABE7E7FBF7DBDBC7CB47475B573
S11301E077B7B67672B2B373B17170B05090915163
S11301F09353529296565797559594549C5C5D9D93
S11302005F9F9E5E5A9A9B5B995958988848498982
S11302104B8B8A4A4E8E8F4F8D4D4C8C4484854532
S113022087474686824243834181804000C18140A2
S113023001C0804101C0804100C1814001C08041B2
S113024000C1814000C1814001C0804101C08041A2
S113025000C1814000C1814001C0804100C1814092
S113026001C0804101C0804100C1814001C0804182
S113027000C1814000C1814001C0804100C1814072
S113028001C0804101C0804100C1814000C1814062
S113029001C0804101C0804100C1814001C0804152
S11302A000C1814000C1814001C0804101C0804142
S11302B000C1814000C1814001C0804100C1814032
S11302C001C0804101C0804100C1814000C1814022
S11302D001C0804101C0804100C1814001C0804112
S11302E000C1814000C1814001C0804100C1814002
S11302F001C0804101C0804100C1814001C08041F2
S113030000C1814000C1814001C0804101C08041E1
S113031000C1814000C1814001C0804100C18140D1
S113032001C0804101C0804100C181402F0302010E
S113033045030202370302020000080000000F0810
S11303400008000000040900080000001001000477
S1130350000000460047000602B200B3001002A4E9
S113036000A8001C02C600C000C100C200C500C431
S113037000FE010302040205024203FFA001FBCFB9
S1130380007D67003F44002A33001F22001B190030
S11303901B10001B620B0800F2100800031104007C
S11303A0A00C0800016364696E6F70737578585B04
S11303B0000011241FBECFEFD1E2DEBFCDBF00E0AD
S11303C00CBF16E0A0E0B2E0EAE9F9E700E00BBFF9
S11303D002C007900D92A43AB107D9F722E1A4EA2A
S11303E0B6E001C01D92A132B207E1F70E94E337E3
S11303F00C94CB3C05CEFC018081089592B184E03D
S1130400892782B9089508950895089582E084BDE6
S113041085EF85BDEEE6F0E08081826080830895FB
S113042082E08093B00087EF8093B100E0E7F0E0D2
S113043080818260808308951092A0008DE0809373
S1130440A100E2E7F0E080818260808308950C944B
S11304502A3C0895282F30E0F901EE0FFF1FE20F28
S1130460F31FE45DFC4F25913491E82FF0E0EC524A
S1130470F64F8081A90164E0869F400D511D11242F
S1130480CA010895282F30E044E1849FF00111242B
S1130490E959FC4FA591B4919C91F901E05DF54FA8
S11304A0408151E0540F508354E1529FF001539F17
S11304B0F00D1124EB59FC4FA591B4915C91F22FEE
S11304C0EE27E40FF11DE25FFE4E508393FF0FC051
S11304D0F901E295F295F07FFE27E07FFE27E252D4
S11304E0FF4E268537852F5F3F4F378726879C71C0
S11304F071F021E030E0A90102C0440F551F8A9534
S1130500E2F7CA019091D806892B8093D806089502
S11305100F931F93CF93DF93C82FD0E0FE01EA51CE
S1130520F64F9081923009F1FE01E295F295F07F49
S1130530FE27E07FFE27E456FC4F059114918ADFE5
S11305400196FC0185919491C752D64F2881FC01F4
S113055037E0239FE00DF11D112435968591949188
S1130560880F991F800F911F0AC0CC0FDD1FCC0F7D
S1130570DD1FCC0FDD1FC053D94F8E819F81DF91CA
S1130580CF911F910F910895E3E5F3E02591349104
S11305908217930799F060E06F5F262F30E0F9012E
S11305A0EE0FFF1FE20FF31FEE0FFF1FED5AFC4F7C
S11305B0459154918417950779F703C020E030E002
S11305C060E0E62FF0E0EC55FC4FE491EE2319F0E7
S11305D0E13079F10895F22FEE27E25FFE4E90812B
S11305E0F901EF53F64F808198130FC04091CD105D
S11305F081E090E0BC0102C0660F771F2A95E2F704
S11306009B01242B2093CD100895F901E154F74F59
S113061081E08083F901E295F295F07FFE27E07F87
S1130620FE27E252FF4E808191810196918380835F
S113063008954091CD1081E090E0BC0102C0660FA6
S1130640771F2A95E2F79B01242B2093CD10089560
S11306508EBD00000DB407FEFDCF8EB50895CF9377
S1130660DF93C82FD92F28988FE0F2DF8D2FF0DF8A
S11306708C2FEEDF80E0ECDF289ADF91CF91089594
S1130680CF92DF92EF92FF920F931F93CF93DF935A
S1130690EC016A0141155105B1F0062F172F7C01B9
S11306A0E40EF51E28988FE0D3DF8D2FD1DF8C2F39
S11306B0CFDF219680E0CCDFF80181938F01289A67
S11306C0CE15DF0579F7C601DF91CF911F910F9108
S11306D0FF90EF90DF90CF900895CF92DF92EF924A
S11306E0FF920F931F93CF93DF93EC016A0141159F
S11306F05105A9F0062F172F7C01E40EF51E28984A
S113070080EFA6DF8D2FA4DF8C2FA2DF2196F801C6
S113071081918F019DDF289ACE15DF0581F7C601EF
S1130720DF91CF911F910F91FF90EF90DF90CF90C9
S11307300895EF92FF920F931F93259A2D9A2D9867
S11307402FEF83EC99E0215080409040E1F700C006
S113075000006C9A74982FEF83EC99E0215080404C
S11307609040E1F700C000006C982FEF83EC99E013
S1130770215080409040E1F700C0000080E090E408
S11307809093C00C8093BF0C80E090E69093B309E3
S11307908093B20980E098E49093C20C8093C10CDA
S11307A080E098E69093B5098093B40980E090E5E1
S11307B09093C40C8093C30C80E090E79093B709A6
S11307C08093B60980E098E59093C60C8093C50C9D
S11307D080E098E79093B9098093B80960E880E0D5
S11307E090E037D065E58BE190E033D065E58AE1B0
S11307F090E02FD06894EE24E1F8F12C0EED10E097
S11308002CEC30E04BEB50E06AEA70E080E090E0E2
S113081051D02CE430E040E050E060E070E08AE049
S113082090E06FD02EEF30E040E050E060E070E008
S11308308AE090E081D020E030E04FEF50E06FEFAD
S113084070E08FEF90E093D01F910F91FF90EF90A5
S113085008951F93CF93DF93D82F192FC62F28986D
S113086080EFF6DE812FF4DE8D2FF2DE8C2FF0DEAA
S1130870833011F0289A5DDF289A81E0DF91CF91CF
S11308801F9108951F93CF93DF93C82FD0E0DC2FDF
S1130890CC27CF5FDB4FCE01DCDF10E001C01F5F50
S11308A0CE01DDDE882311F01F3FC9F7DF91CF9120
S11308B01F910895EF920F931F93CF93DF93162FF9
S11308C0D42FC22F682F89E090E0C3DF612F8AE024
S11308D090E0BFDF6D2F8BE090E0BBDF6C2F8CE0EE
S11308E090E0B7DF602F8DE090E0B3DF6E2D8EE0F7
S11308F090E0AFDF81E0DF91CF911F910F91EF90F6
S113090008951F93CF93DF93162FD42FC22F682FF0
S11309108FE090E09EDF612F80E190E09ADF6D2F01
S113092081E190E096DF6C2F82E190E092DF81E03C
S1130930DF91CF911F9108951F93CF93DF93162FCB
S1130940D42FC22F682F81E090E083DF612F82E0F3
S113095090E07FDF6D2F83E090E07BDF6C2F84E0FD
S113096090E077DF81E0DF91CF911F9108951F938D
S1130970CF93DF93162FD42FC22F682F85E090E0FA
S113098068DF612F86E090E064DF6D2F87E090E000
S113099060DF6C2F88E090E05CDF81E0DF91CF9135
S11309A01F91089590E00496982F8827860F971F2B
S11309B056CE08951F93CF93DF93182F60E270E013
S11309C0F1DFC82FD0E061E270E0812FEBDFDC2F94
S11309D0CC279E01282BC901DF91CF911F91089547
S11309E01F93CF93DF93182F66E270E0DBDFC82FED
S11309F0D0E067E270E0812FD5DFDC2FCC279E01A9
S1130A00282BC901DF91CF911F9108959B0190E09C
S1130A100496982F8827642F820F931F1ACF089566
S1130A20882341F08091BD06813041F018F0823076
S1130A30C1F024C081E08093BD0620C0462F61E050
S1130A4070E080E0E3DF61E070E080E0ABDF88230A
S1130A5021F082E08093BD0611C08FEF8093BD0624
S1130A600DC061E070E080E09DDF882321F082E02A
S1130A708093BD0603C08FEF8093BD068091BD06B1
S1130A800895882341F08091BC06813041F018F02C
S1130A908230C1F024C081E08093BC0620C0462F80
S1130AA061E070E081E0B2DF61E070E081E07ADF74
S1130AB0882321F082E08093BC0611C08FEF8093DD
S1130AC0BC060DC061E070E081E06CDF882321F09A
S1130AD082E08093BC0603C08FEF8093BC068091B4
S1130AE0BC060895882341F08091BB06813041F013
S1130AF018F08230C1F024C081E08093BB0620C08E
S1130B00462F61E070E082E081DF61E070E082E026
S1130B1049DF882321F082E08093BB0611C08FEF68
S1130B208093BB060DC061E070E082E03BDF882368
S1130B3021F082E08093BB0603C08FEF8093BB0655
S1130B408091BB060895CF93C82F692F80E194E06C
S1130B5080DE6C2F81E194E07CDECF910895CF9309
S1130B60DF93EC0168818CE094E073DE69818DE0B1
S1130B7094E06FDE6A818EE094E06BDE6B818FE03F
S1130B8094E067DEDF91CF910895CF93C82F692F4A
S1130B9080E195E05EDE6C2F81E195E05ADECF9135
S1130BA00895CF93DF93EC0168818CE095E051DEEA
S1130BB069818DE095E04DDE6A818EE095E049DE45
S1130BC06B818FE095E045DEDF91CF910895CF935F
S1130BD0C82F692F80E196E03CDE6C2F81E196E01E
S1130BE038DECF910895CF93DF93EC0168818CE0D8
S1130BF096E02FDE69818DE096E02BDE6A818EE03F
S1130C0096E027DE6B818FE096E023DEDF91CF91C3
S1130C1008959F92AF92BF92CF92DF92EF92FF928C
S1130C200F931F93CF93DF93982E5B017A01E90111
S1130C3064E270E0B7DEC82ED12C65E270E0892D45
S1130C40B1DE1C2D0027082B0A0D1B1D98013770DF
S1130C50C92CD12CF601EE0FFF1FE154F34F808114
S1130C609181820F931FA9014C0F5D1F41305840A1
S1130C70B8F040E058E05A01A21AB30AA501B7013E
S1130C802CDDAE014A195B09B7016A0D7B1DF60123
S1130C90EE0FFF1FE154F34F808191811EDD03C0ED
S1130CA0AE01B7011ADDC00FD11F4D2F64E270E011
S1130CB0892DACDE4C2F65E270E0892DA7DEDF9133
S1130CC0CF911F910F91FF90EF90DF90CF90BF9045
S1130CD0AF909F900895DF92EF92FF920F931F932E
S1130CE0CF93DF93D82E0FEF1FEFE12CF12C8D2D36
S1130CF061DEEC01009719F08D2D5CDE7C01EC16B1
S1130D00FD0629F0015011090115110581F7C701EC
S1130D10DF91CF911F910F91FF90EF90DF90089595
S1130D20DF92EF92FF920F931F93CF93DF93D82E0E
S1130D308B017A01E901CFDF8C179D0718F48D2D03
S1130D40CADFEC019E01A701B8018D2D62DFCE013F
S1130D50DF91CF911F910F91FF90EF90DF90089555
S1130D6020E3FC0120833296862F82958F7090E1D8
S1130D70899F601911246A3010F4605D01C0695CB8
S1130D806293882311F0682FEFCF08958FB780788E
S1130D908093BC08F8948091BC0808958091BC08A5
S1130DA0882309F078948091BC080895A8952FE0D1
S1130DB088E190E00FB6F894A895809360000FBE88
S1130DC020936000089580916A0391E0980F9093B6
S1130DD06A030895CF93DF93C82FD62FD7DFEC2F64
S1130DE0F0E0E45AF74FD083DD23A9F0EC2FE69529
S1130DF0E695E695F0E0E251F94F4081C77021E0B5
S1130E0030E0C90102C0880F991FCA95E2F78095A6
S1130E108423808313C0EC2FE695E695E695F0E0F5
S1130E20E251F94F4081C77021E030E0C90102C0AE
S1130E30880F991FCA95E2F7842B8083AFDFDF9177
S1130E40CF9108951F93CF93DF93182FEB019EDF6B
S1130E50E12FF0E0EE0FFF1FE456F84FD183C0837B
S1130E60CD2BA9F0E12FE695E695E695F0E0EF515C
S1130E70F94F4081177021E030E0C90102C0880FAA
S1130E80991F1A95E2F780958423808313C0E12F7C
S1130E90E695E695E695F0E0EF51F94F408117703D
S1130EA021E030E0C90102C0880F991F1A95E2F7CA
S1130EB0842B808373DFDF91CF911F910895282FB6
S1130EC030E0F901EE0FFF1FEE0FFF1FE653F94F5D
S1130ED01082118212821382F901EF54F64F60815D
S1130EE094E6699FB00111249091C9069F5F890F10
S1130EF0A9CF08952F923F924F925F926F927F9263
S1130F008F929F92AF92BF92CF92DF92EF92FF9215
S1130F100F931F93CF93DF93382E90E0FC01EE0FD5
S1130F20FF1F8E0F9F1FFC01E25DFC4F4490512C6C
S1130F30B12C032D10E0E801CC52D64FC801880F24
S1130F40991F9C01215A344F3901FC01E750F64F97
S1130F506F01C801880F991F880F991F9C012653A0
S1130F60394F4901780188818F5F8883841123C0B8
S1130F7018822090C90623942394230C07DFE22DC2
S1130F80F0E0EE0FFF1FE456F84FA080B18006DFBB
S1130F90A094B094F301B182A082F6018081918182
S1130FA08A159B0510F4B182A0826FEF7FEF822D2A
S1130FB049DFBB24B394F40180819181A281B38180
S1130FC0088004C0B695A795979587950A94D2F79B
S1130FD080FF03C05394541428F2541012C0832D7C
S1130FE06EDFF701EC52F64F80818F5F581629F0BF
S1130FF0F701EC52F64F808304C0F701EC52F64F30
S11310001082F701E752F64F10828B2DDF91CF91BA
S11310101F910F91FF90EF90DF90CF90BF90AF9012
S11310209F908F907F906F905F904F903F902F9004
S113103008950F931F93CF93DF93E82FF0E0DF0120
S1131040AA51B64F9C91923021F4FD01108280E0A8
S113105058C0DF01A295B295B07FBA27A07FBA2706
S1131060A252BF4E18962D913C9119972F5F3F4F76
S113107019963C932E931897DF01A253B94F9C9174
S11310809F5F9C93DF01A55DB54F2C91921338C0EF
S1131090DF01AC52B64F41E050E060E070E00C90EC
S11310A004C0440F551F661F771F0A94D2F7DF014F
S11310B0AA0FBB1FAA0FBB1FED01C253DF4E08814D
S11310C019812A813B81042B152B262B372B08836E
S11310D019832A833B83A653B94F0D911D912D91FA
S11310E03C911397402B512B622B732B4D935D93A3
S11310F06D937C931397E253F94F1082FBDE01C08A
S113110080E0DF91CF911F910F910895CF92DF92EC
S1131110EF92FF92CF93C82F6A017B0137DEEC2F49
S1131120F0E0EE0FFF1FEE0FFF1FE450F94FC082F7
S1131130D182E282F382CD28CE28CF28A9F0EC2FE9
S1131140E695E695E695F0E0E552F94F4081C770E3
S113115021E030E0C90102C0880F991FCA95E2F767
S113116080958423808313C0EC2FE695E695E6955D
S1131170F0E0E552F94F4081C77021E030E0C90149
S113118002C0880F991FCA95E2F7842B808306DE7C
S1131190CF91FF90EF90DF90CF900895CF93C82F19
S11311A0F5DDEC2FE695E695E695F0E0EF51F94F85
S11311B0208130E08C2F877002C0359527958A9561
S11311C0E2F720FF0DC0EC2FF0E0EE0FFF1FE45616
S11311D0F84F20813181C1E0232B19F0C0E001C018
S11311E0C0E0DCDD8C2FCF910895CF93C82FCEDDE6
S11311F0EC2FE695E695E695F0E0E552F94F20816F
S113120030E08C2F877002C0359527958A95E2F7D8
S113121020FF13C0EC2FF0E0EE0FFF1FEE0FFF1FB7
S1131220E450F94F4081518162817381C1E0452BC3
S1131230462B472B19F0C0E001C0C0E0AFDD8C2F76
S1131240CF910895B3DD109280008AEE80938100DF
S113125080E29EE49093890080938800EFE6F0E0BA
S113126080818260808380E090E02FEFFC01E25176
S1131270F94F208301968C309105C1F780E090E00E
S11312802FEFFC01EF51F94F208301968D3091052A
S1131290C1F78FEF8093DB068093DC068093DD0635
S11312A08093DE068093DF068093E00608951F9204
S11312B00F920FB60F9211240BB60F922F933F93F8
S11312C04F935F936F937F938F939F93AF93BF934A
S11312D0EF93FF938091D9068F5F8093D90680E0C6
S11312E090E061E070E0282F26952695269530E061
S11312F0F901E650F94F4081A82FA77050E00A2E5B
S113130002C0559547950A94E2F740FD14C0FC01CC
S1131310EC54F74F40814150408341110CC0F90116
S1131320E650F94F40819B0102C0220F331FAA955A
S1131330E2F7242B2083019688309105A1F6809151
S1131340BE069091BF06A091C006B091C106019659
S1131350A11DB11D8093BE069093BF06A093C00645
S1131360B093C106FF91EF91BF91AF919F918F917F
S11313707F916F915F914F913F912F910F900BBE91
S11313800F900FBE0F901F901895FF920F931F930D
S1131390CF93DF93F894F090D9061092D9067894FD
S11313A0FF2009F4D2C010E040E050E021E030E03A
S11313B08091650B9091660BA091670BB091680BBF
S11313C00196A11DB11D8093650B9093660BA093AC
S11313D0670BB093680BCA01F894682F66956695FD
S11313E0669570E0FB01E251F94FE081A82FA770E8
S11313F0F0E00A2E02C0F595E7950A94E2F7E0FDC5
S113140014C0FC01E45AF74FB081B150B083B1115C
S11314100CC0FB01E251F94FB081B90102C0660F63
S1131420771FAA95E2F76B2B608378940196883531
S1131430910591F6CA01F894682F669566956695AC
S113144070E0FB01EF51F94FE081C82FC770F0E065
S11314500C2E02C0F595E7950A94E2F7E0FD1AC058
S1131460DC01AA0FBB1FA456B84FED91FC91119754
S113147031971196FC93EE93EF2B61F4FB01EF513E
S1131480F94FA081B90102C0660F771FCA95E2F730
S11314906A2B6083789401968036910561F6BA01CF
S11314A0F894E62FE695E695E695F0E0DF01A5527F
S11314B0B94F8C91062F077090E0002E02C09595CD
S11314C087950A94E2F780FD21C0EB01CC0FDD1F64
S11314D0CC0FDD1FC450D94F88819981AA81BB816B
S11314E00197A109B10988839983AA83BB83892BB6
S11314F08A2B8B2B59F4E552F94FA081C90102C004
S1131500880F991F0A95E2F78A2B808378946F5F7E
S11315107F4F6832710521F68091BA068F5F843659
S113152019F08093BA060EC01092BA0680915B0B34
S113153090915C0B90936B0B80936A0B50935C0BB4
S113154040935B0B1F5F1F1133CFDF91CF911F912E
S11315500F91FF900895A89580915B0B90915C0B7F
S1131560019690935C0B80935B0B8091DA06E82FD5
S1131570F0E0E45AF74F908190959093310A2091CE
S1131580E809291710F49093E8096FEF23CC089524
S11315904F925F926F927F92AF92BF92CF92DF92FF
S11315A0EF92FF920F931F93CF93DF93EC015B01B4
S11315B029013A012115310541055105F1F0C12CEC
S11315C0D12C7601C5018C0D9D1DFE011995802736
S11315D0282F30E0F901E45DFD4F04910127F90162
S11315E0E45DFE4F1491FFEFCF1ADF0AEF0AFF0A02
S11315F0C414D504E604F70429F7802F90E0912B56
S1131600DF91CF911F910F91FF90EF90DF90CF90DA
S1131610BF90AF907F906F905F904F9008950F931D
S11316201F930FEF1FEFB4DF1F910F9108950F93D6
S11316301F932CE030E040E050E060E070E087E28F
S113164092E0EDDF2BEF3FE02C50304040E050E0E3
S11316508C0161E170E087E292E09ADF1F910F91C3
S113166008958091BE0C81FD06C0E1DFBC018EE0CF
S113167090E00C94453C08950E94373CF2CF0895C5
S11316800A9A129808951F920F920FB60F9211247E
S11316900BB60F922F933F934F935F936F937F9368
S11316A08F939F93AF93BF93EF93FF9385B5887FF9
S11316B085BDEEE6F0E080818D7F808386E490E056
S11316C00E94C402FF91EF91BF91AF919F918F91BE
S11316D07F916F915F914F913F912F910F900BBE2E
S11316E00F900FBE0F901F9018951F920F920FB678
S11316F00F9211240BB60F922F933F934F935F9346
S11317006F937F938F939F93AF93BF93EF93FF93C5
S1131710E1EBF0E08081887F8083E0E7F0E0808186
S11317208D7F808382EB90E00E94C402FF91EF9151
S1131730BF91AF919F918F917F916F915F914F91E5
S11317403F912F910F900BBE0F900FBE0F901F90E3
S113175018951F920F920FB60F9211240BB60F9289
S11317602F933F934F935F936F937F938F939F93A5
S1131770AF93BF93EF93FF93E1EAF0E08081887F1A
S11317808083E2E7F0E080818D7F808384EA90E0CB
S11317900E94C402FF91EF91BF91AF919F918F91ED
S11317A07F916F915F914F913F912F910F900BBE5D
S11317B00F900FBE0F901F901895FF920F931F93D9
S11317C0CF93DF93C82FD0E08E01000F111F0C0FB1
S11317D01D1FC8018B5F9F4F0E942A3CF82E0A5F91
S11317E01F4FC8010E942A3CF11004C0813039F017
S11317F09EE808C091E0F91621F096EB03C096E844
S113180001C096EA24E12C9FF0012D9FF00D1124D4
S1131810E559FC4FA591B4919F779C93FF2029F043
S1131820813019F061E0C80127DFDF91CF911F916A
S11318300F91FF900895CF93DF93C82FD0E0CE018E
S1131840880F991F8C0F9D1F895F9F4F0E942A3C10
S1131850FE01E759F44F808390E09C01220F331F6F
S1131860820F931F87589C4F24E12C9FF0012D9FDA
S1131870F00D1124E159FC4FA591B491FC01249180
S11318802C9324E12C9FF0012D9FF00D1124E3599A
S1131890FC4FA591B491FC013196E491EC93FE01C7
S11318A0EE0FFF1FCE0FDF1FFE01EE0FFF1FEB5ADF
S11318B0FC4FA591B491FC01329684918C93DF91F5
S11318C0CF910895CF93DF93C82FD0E0FE01E15468
S11318D0F74F83E0808384E18C9FF0018D9FF00DAE
S11318E01124EF58FC4F85919491FC01199584E1E2
S11318F08C9FF0018D9FF00D1124EB59FC4FA591A5
S1131900B491FC2FEE27E25FFE4E80818C9384E13C
S11319108C9FF0018D9FF00D1124E959FC4FA59186
S1131920B4918C9180648C9384E18C9FF0018D9FA1
S1131930F00D1124E759FC4FA591B4918C9180626C
S11319408C93DF91CF910895CF93DF93E5E6F3E095
S1131950259134918217930791F040E054E14F5F51
S1131960C42FD0E05C9FF0015D9FF00D1124EB5972
S1131970FC4F259134918217930789F703C0C0E087
S1131980D0E040E0FE01E154F74F2081223009F419
S113199049C028F4222339F02130D1F056C0263032
S11319A008F451C052C0FC018081FC2FEE27E25F95
S11319B0FE4E8083FE01EE0FFF1FCE0FDF1FFE01E0
S11319C0EE0FFF1FED5AFC4FA591B4911C923DC040
S11319D0FE01E154F74F82E0808321E030E00C2ED9
S11319E002C0220F331F0A94E2F720958091D80693
S11319F028232093D806FE01E05DF54F1082842F42
S1131A000E944202CE01880F991FC80FD91FCE0130
S1131A10880F991F895A9C4FFC0125913491F90133
S1131A20199513C0842F0E944202FE01EE0FFF1F7E
S1131A30CE0FDF1FFE01EE0FFF1FED5AFC4FA591E5
S1131A40B4911C9202C0FC018081DF91CF91089572
S1131A50EF92FF921F93CF93DF93C82FD0E0FE0144
S1131A60E05DF54F20814091D80650E0BA0102C0F4
S1131A70759567958A95E2F760FD1AC02330D0F01A
S1131A8022507C2F6627625F7E4EFB01E20FF11D20
S1131A90E080F18030E040E050E08BEF91E0BFDD8A
S1131AA011E0E816F90609F410E01123F9F003C077
S1131AB011E001C011E0FE01E295F295F07FFE27EE
S1131AC0E07FFE27E252FF4E828193810196938349
S1131AD0828384E18C9FF0018D9FF00D1124EB58DB
S1131AE0FC4F85919491FC0119951BC0FE01E29570
S1131AF0F295F07FFE27E07FFE27E252FF4E208121
S1131B0031812F5F3F4F3183208384E18C9FF0012B
S1131B108D9FF00D1124E958FC4F25913491F90162
S1131B201995812FDF91CF911F91FF90EF90089528
S1131B30CF93DF93682F70E0FB01E05DF54F2081C8
S1131B402250762F6627625F7E4EEB01C20FD11DB5
S1131B5030E040E050E08BEF91E061DD99838883D1
S1131B60DF91CF910895282F30E070E0322F2227A3
S1131B70F901E25FFE4EE60FF71F8181620F731FCA
S1131B80FB01E25FFE4E208190E0922B0895CF92FC
S1131B90DF92EF92FF920F931F93CF93DF93F82E70
S1131BA0C82FD0E0FC2FEE27E25FFE4E8181863005
S1131BB081F020F48150843038F0E7C08F30D9F0C0
S1131BC0803109F4B3C0E1C0C05DD54F88E088839B
S1131BD0DCC0FE01E05DF54F88E080838F2D0E941C
S1131BE08802DC2FCC27C25FDE4EFC0121812C83CE
S1131BF080818D83CAC064E08F2DB5DF8C019695FA
S1131C00879596958795969587959801277033279C
S1131C1041E0232B09F440E0242F280FFC2FEE276A
S1131C20E25FFE4E2683DE01A05DB54F275F2C9355
S1131C30E80FF91F1782FE01EA51F64F80818230C6
S1131C4009F1FE01E295F295F07FFE27E07FFE2781
S1131C50EC56FC4FC590D4908F2D0E942A02019619
S1131C60FC0185919491FE01E752F64F2081FC011D
S1131C7037E0239FE00DF11D112435968591949151
S1131C80B82F0CC0FE01EE0FFF1FEE0FFF1FEE0F6B
S1131C90FF1FE053F94FC680D780B0E0011511054E
S1131CA009F473C0A0E061E070E0DC2FCC278A2F38
S1131CB08B0F9A2F9695969596950F2EF7E0EF2E0B
S1131CC0F02DE90E2A2F2770AB0102C0440F551FD7
S1131CD02A95E2F79A01982F969596959695F6018E
S1131CE0E90FF11D408150E08770FA0102C0F595BB
S1131CF0E7958A95E2F7E0FF09C0FE01EE0DF11DBC
S1131D00E25FFE4E8081282B208309C0FE01EE0D88
S1131D10F11DE25FFE4E2095808128232083AF5F72
S1131D202A2F30E02017310710F22FC01C2F002774
S1131D30025F1E4EF8018581880F8683FE01E05DF7
S1131D40F54F875F80838F2D0E948802F8012581DB
S1131D502223D9F040E0E80198012B5F3F4F542F34
S1131D60550FA42FB0E0AA0FBB1FA80FB91FFE0187
S1131D70E50FF11D11965C91119757835C91508783
S1131D804F5FF9015081451750F38F2DD1DEDF915C
S1131D90CF911F910F91FF90EF90DF90CF90089516
S1131DA0CF93C82F0E942A02BC01FC0131964591B1
S1131DB054912C2F30E0F901E752F64F808197E0DF
S1131DC0899F400D511D1124FB016491F22FEE27D0
S1131DD0E25FFE4E6083FA018491F22FEE27E25F08
S1131DE0FE4E8183FA013296E491B22FAA27A25FB4
S1131DF0BE4E1296EC93FA013196E491B22FAA27C3
S1131E00A25FBE4E1396EC93FA013496E491B22F7E
S1131E10AA27A25FBE4E1496EC93FA01339644911E
S1131E20B22FAA27A25FBE4E15964C938C2FAFDE1D
S1131E30CF910895282F30E0F22FEE27E25FFE4E77
S1131E40D901AA0FBB1FAA0FBB1FAA0FBB1FA05308
S1131E50B94F9C91908311969C91119791831296FE
S1131E609C91129713964C911397428393831496E3
S1131E709C91149715964C9144839583F901EA51EA
S1131E80F64F92E0908383CE08956F927F928F9263
S1131E909F92AF92BF92CF92DF92EF92FF920F93F5
S1131EA01F93CF93DF93D82EC82FD0E0FE01E154C7
S1131EB0F74F8081882319F0823031F06FC3C15409
S1131EC0D74F81E088836AC384E0FE01E154F74F71
S1131ED080838D2DBDDD882329F0C154D74F81E047
S1131EE088835CC3FC2FEE27E25FFE4E808188234B
S1131EF059F0FE01EF53F64F9081891729F0C15430
S1131F00D74F81E088834AC384E18C9F80018D9FF1
S1131F10100D11240D581C4FF80125913491F9012D
S1131F201995FE01E295F295F07FFE27E07FFE27EA
S1131F30E252FF4E8681978101969783868362E001
S1131F408D2D11DE7C01FC2FEE27E25FFE4EC18059
S1131F508C2D90E0FC013197E031F10508F0C9C205
S1131F60EA59FF4F0C940F38FC2FEE27E25FFE4E28
S1131F708081882309F4C1C0FE01E05DF54F8081B2
S1131F80883059F0FC2FEE27E25FFE4E83E0828317
S1131F900F2EF3E0FF2EF02DB6C264E08D2DE3DDAD
S1131FA0AC018E0D9F1DF1E0CF120FC0FE01E29532
S1131FB0F295F07FFE27E07FFE27EA56FC4F25913D
S1131FC034912817390778F018C0FE01E295F2958C
S1131FD0F07FFE27E07FFE27E656FC4F25913491E3
S1131FE028173907B0F4FC2FEE27E25FFE4E82E09B
S1131FF082836894FF24F1F886C2FE01E295F2958B
S1132000F07FFE27E07FFE27EC56FC4FA591B491AC
S11320100BC0FE01E295F295F07FFE27E07FFE27DC
S1132020E856FC4FA591B49121E0CA018770992725
S1132030892B09F420E0CA01969587959695879592
S113204096958795820FFC2FEE27E25FFE4E8283E2
S1132050FE01E05DF54F8B5F80834115510509F466
S11320604FC0C12C20E030E081E090E0BC2EAA24D7
S11320702E0D3F1D6C2D6695669566950F2EF3E02B
S11320809F2EF02D960EEC2DE7703C0102C0660CDD
S1132090771CEA95E2F7B901769567957695679589
S11320A0769567956A0F7B1FFB01608170E027704E
S11320B03327FB0102C0F595E7952A95E2F7E0FF87
S11320C00AC09501290D311D225F3E4EF901608140
S11320D0662960830AC09501290D311D225F3E4E99
S11320E06094F901608166216083C3942C2D30E0F3
S11320F02417350708F4BCCF05C0FF24FA9403C2A3
S1132100F12C01C2F12CFFC1FC2FEE27E25FFE4E41
S11321108081882309F485C0FE01E05DF54F80814C
S1132120883059F0FC2FEE27E25FFE4E83E0828375
S11321300F2EF3E0FF2EF02DE6C1FC2FEE27E25F19
S1132140FE4E4581C701840F911DF3E0CF120FC0ED
S1132150FE01E295F295F07FFE27E07FFE27E2562E
S1132160FC4F259134912817390778F018C0FE01E7
S1132170E295F295F07FFE27E07FFE27EE55FC4FB7
S11321802591349128173907B0F4FC2FEE27E25F2C
S1132190FE4E82E082836894FF24F1F8B4C1FE010C
S11321A0E295F295F07FFE27E07FFE27E456FC4F90
S11321B0859194910BC0FE01E295F295F07FFE2784
S11321C0E07FFE27E056FC4F85919491EE0CFF1CB6
S11321D08E0D9F1D440FBC2FAA27A25FBE4E1296E0
S11321E04C931297FE01E05DF54F4B5F40831596CB
S11321F06C9115976623C1F0FC0140E09D01542FBA
S1132200550F7901E50EF11C5181D70113965C93AA
S113221080813296D70114968C934F5F4613EFCF8B
S113222005C0FF24FA946FC1F12C6DC1F12C6BC170
S1132230FE01E05DF54F8081883059F0FC2FEE27D8
S1132240E25FFE4E83E082830F2EF3E0FF2EF02D3B
S11322505AC1FE01E295F295F07FFE27E07FFE274A
S1132260E256FC4F8591949197012F5F3F4F82175F
S1132270930750F4FC2FEE27E25FFE4E82E0828348
S11322806894FF24F1F83FC188E0FE01E05DF54F5A
S11322908083FE01E295F295F07FFE27E07FFE2722
S11322A0E456FC4F85919491EE0CFF1CE80EF91E48
S11322B064E08D2D58DCF70191838083F12C23C1D8
S11322C064E08D2D50DCFC2FEE27E25FFE4EA681EC
S11322D0FE01E05DF54F408150E02A2F30E0275F9A
S11322E03F4F42175307B9F421E030E0BC01677057
S11322F07727672B11F420E030E0BC0176956795D1
S11323007695679576956795260F371F4A2F50E087
S11323102417350759F0FC2FEE27E25FFE4E83E0C9
S113232082830F2EF3E0FF2EF02DEDC0FE01E29527
S1132330F295F07FFE27E07FFE27EA56FC4F2591B9
S11323403491AC014E0D5F1D2417350750F4FC2F5A
S1132350EE27E25FFE4E82E082836894FF24F1F868
S1132360D2C0FE01E295F295F07FFE27E07FFE27C2
S1132370EC56FC4F2591349148E0FE01E05DF54FA9
S11323804083C12CE1E0F0E07C2F6627AB01425F83
S11323905E4E3A0136C0DA01AE0DBF1DAD01569551
S11323A047955695479556954795A770BB275F0166
S11323B002C0AA0CBB1CAA95E2F7AC2DA695A69563
S11323C0A695B3016A0F711DDB011796AC91B0E0BD
S11323D07C2D7770072E02C0B595A7950A94E2F775
S11323E0A0FF07C0D901A40FB51F4C91A42AAC9239
S11323F007C0D901A40FB51FA0944C914A214C9356
S1132400C3944C2D50E04817590728F2F12C7BC097
S1132410FC2FEE27E25FFE4E868190E0FE01E05D38
S1132420F54F408150E09C01275F3F4F421753070F
S113243061F4FC2FEE27E25FFE4E4581242F30E04D
S1132440220F331F8217930759F0FC2FEE27E25F08
S1132450FE4E83E082830F2EF3E0FF2EF02D53C057
S1132460FE01E295F295F07FFE27E07FFE27E2561B
S1132470FC4F859194919701240F311D8217930786
S113248050F4FC2FEE27E25FFE4E82E082836894D4
S1132490FF24F1F838C088E0FE01E05DF54F808349
S11324A0FE01E295F295F07FFE27E07FFE27E456D9
S11324B0FC4F85909490C12C9C2F8827DC01AD5E45
S11324C0BE4E3D0110C05701AC0CB11CAA0CBB1C84
S11324D0A80CB91C6C2D660F695F8D2D44DBF501CA
S11324E091838083C394D3018C91C81660F3F12C3B
S11324F00AC0FC2FEE27E25FFE4E81E082838081DA
S113250081110BC01CC0FC2FEE27E25FFE4E8081C0
S1132510882399F0FF2079F002C0FF24F394FC2F64
S1132520EE27E25FFE4E81818068818385E0FE01B3
S1132530E05DF54F80838D2DFBDAFF2071F0FE0105
S1132540E295F295F07FFE27E07FFE27E252FF4EF0
S113255084819581019695838483FC2FEE27E25F25
S1132560FE4E8081882319F08D2DACD917C0FE0151
S1132570E295F295F07FFE27E07FFE27E252FF4EC0
S113258080859185019691878087C154D74F81E0DA
S11325908883F80185919491FC011995DF91CF917D
S11325A01F910F91FF90EF90DF90CF90BF90AF906D
S11325B09F908F907F906F90089524E1829FC00137
S11325C01124FC01ED58FC4F85919491FC0119955F
S11325D00895CF93DF93C82FD0E0CE01885F9F4F3B
S11325E00E942A3CCF53D64F8883DF91CF91089520
S11325F00F931F93CF93DF93C82FD0E08E01000F6A
S1132600111F000F111F0C0F1D1FC8018050904097
S11326100E94323CFE01EE0FFF1FEC51F64F9183F6
S11326208083C8018E5F9F4F0E942A3CFE01E453C1
S1132630FF4E8083C8018D5F9F4F0E942A3CFE019C
S1132640E55DF54F8083C8018C5F9F4F0E942A3C53
S1132650CF54D64F88838091690393E0980F909369
S113266069038093C906DF91CF911F910F9108955B
S113267007D81092BF08E7E6F3E0A591B4918CEF78
S11326808C93E9E6F3E0A591B49188E98C9380E01A
S113269094D880E0D0D8E4EAF3E0E491EE2319F092
S11326A0E13021F005C080E094DF02C080E0A0DFCB
S11326B0E7E5F3E025913491F901199508956F92B6
S11326C07F929F92AF92BF92CF92DF92EF92FF924E
S11326D00F931F93CF93DF93D82EC82FD0E0FE0122
S11326E0E154F74F8081882319F0823071F097C24A
S11326F08091C9068E5F6FEF7FEF8D0D0E942207D8
S11327008D2D4EDB8D2DDED88AC284E0FE01E1548E
S1132710F74F8083FE01EA51F64F908181E09230B9
S113272009F080E08093CF068D2D92D9882321F083
S11327308D2D0E94190863C284E18C9FF0018D9F46
S1132740F00D1124ED58FC4F85919491FC011995DD
S11327508091CF06882381F0FE01EE0FFF1FEE0F5C
S1132760FF1FEE0FFF1FE053F94F8081418120E0EE
S113277030E000E010E015C08D2D0E942A028C018B
S1132780FC01319625913491FE01E752F64F808188
S1132790F7E08F9F200D311D1124F8018491F90178
S11327A04491BC2FAA27A25FBE4E9C91981304C0EB
S11327B0FD016181641721F08D2D0E9419081FC24B
S11327C0862F90E0FC013197E031F10508F0BBC1A0
S11327D0EA58FF4F0C940F388091CF06882359F0A4
S11327E0FE01EE0FFF1FEE0FFF1FEE0FFF1FE05362
S11327F0F94F748103C0F90133967491FC2FEE27CD
S1132800E25FFE4E828190E0FE01E05DF54FE081E3
S1132810F0E0AC014B5F5F4FE417F50709F08AC0A5
S1132820E72FE695E695E695F0E041E050E0A72F26
S1132830A77011F440E050E04E0F5F1F8417950716
S113284009F07AC08091CF06882369F0FE01EE0F6B
S1132850FF1FEE0FFF1FEE0FFF1FE053F94FA6817E
S1132860B781C12C1FC0613061F4FE01E295F2957D
S1132870F07FFE27E07FFE27EC56FC4FA591B49134
S11328800BC0FE01E295F295F07FFE27E07FFE2764
S1132890E856FC4FA591B4912B5F3F4FF901859108
S11328A09491C82EA72EB12CA114B10409F446C0EA
S11328B020E030E081E090E05C2F4427BA01625FC1
S11328C07E4E7B014C2D420F942E969496949694B2
S11328D04770FC0102C0EE0FFF1F4A95E2F7AF01FB
S11328E0F901F695E795F695E795F695E795EE0DDA
S11328F0FF1DE381F0E0B901677077273F0102C053
S1132900759467946A95E2F760FE07C0FD01E90DCE
S1132910F11D5081452B408307C0FD01E90DF11DD8
S113292040955081452340832F5F3F4F2A153B0537
S113293048F206C081E008C181E006C180E004C11C
S113294080E002C1FC2FEE27E25FFE4E7281FE01A1
S1132950E05DF54F408150E0872F90E005964817E1
S1132960590709F06BC08091CF06882371F0FE01EE
S1132970EE0FFF1FEE0FFF1FEE0FFF1FE053F94F87
S113298084819581880F991F06C0F901339685913A
S11329909491880F991F472F50E04817590709F061
S11329A04FC08091CF06882361F0FE01EE0FFF1F18
S11329B0EE0FFF1FEE0FFF1FE053F94FA680B78005
S11329C023C0633061F4FE01E295F295F07FFE27A7
S11329D0E07FFE27E456FC4F859194910BC0FE01E5
S11329E0E295F295F07FFE27E07FFE27E056FC4F4C
S11329F0859194912B5F3F4FF90125913491220FDA
S1132A00331F5C01A20EB31E7695CC24CA94C70E64
S1132A10CAF0770F99249394970EEC2CEE0CFF08D0
S1132A20EA0CFB1C692D8D2D9ED8F70191838083C0
S1132A30CA949A949A94CC2084F706C081E084C006
S1132A4081E082C080E080C080E07EC08091CF06BB
S1132A50882371F0FE01EE0FFF1FEE0FFF1FEE0F34
S1132A60FF1FE053F94FE280F380A680B78019C0BE
S1132A70F9013196E590F490FE01E295F295F07F2C
S1132A80FE27E07FFE27E456FC4F859194912B5F4F
S1132A903F4FF90125913491220F331F5C01A20E9F
S1132AA0B31EFE01E05DF54F8081883099F462E049
S1132AB08D2D59D88E159F0579F464E08D2D53D84A
S1132AC041E0F501208131818217930709F440E048
S1132AD0842F3AC081E038C081E036C08091CF06AF
S1132AE0882371F0FE01EE0FFF1FEE0FFF1FEE0FA4
S1132AF0FF1FE053F94FE280F380A480B58009C042
S1132B00F9013196E590F4902D5F3F4FF901A590BE
S1132B10B490FE01E05DF54F8081883081F462E07D
S1132B208D2D21D88E159F0561F464E08D2D1BD861
S1132B3021E08A159B0509F420E0822F05C081E07D
S1132B4003C081E001C080E0882391F0FE01E2959A
S1132B50F295F07FFE27E07FFE27E252FF4E84814C
S1132B6095810196958384838D2D0E94190847C011
S1132B708091CF06882331F0CA51D64F188265E080
S1132B8070E048C0FE01EE0FFF1FEE0FFF1FBF01F4
S1132B9062537F4E81E090E0A0E0B0E09E012C52B1
S1132BA0364FF901008004C0880F991FAA1FBB1F6C
S1132BB00A94D2F780959095A095B095FB01408139
S1132BC051816281738184239523A623B723808353
S1132BD09183A283B383FE01E752F64F80818F5F16
S1132BE08083F8013396E4918E1304C08D2D0E94E6
S1132BF07A0701C080E0FE01E253F94F1082882376
S1132C0039F0CC0FDD1FCC51D64F6881798102C0D9
S1132C1065E070E08091C9068D0D0E942207DF9166
S1132C20CF911F910F91FF90EF90DF90CF90BF90C5
S1132C30AF909F907F906F900895E82FF0E0E45359
S1132C40FF4E608170E09091C906890F0C942207B1
S1132C5008951F93CF93DF93E5E6F3E02591349134
S1132C608217930791F010E044E11F5FC12FD0E079
S1132C704C9FF0014D9FF00D1124EB59FC4F259111
S1132C8034918217930789F703C0C0E0D0E010E0C5
S1132C90FE01E754F94F6081462F50E0FE01E05DEC
S1132CA0F54F208130E0225031094217530709F5CE
S1132CB044E14C9F90014D9F300D112427593C4F06
S1132CC0F901A591B4914C914F7D4C93F901A591D3
S1132CD0B4912C9120642C9324E12C9FF0012D9F1E
S1132CE0F00D1124E959FC4FA591B4912C91206465
S1132CF02C936F5FFE01E754F94F6083FE01E05DA2
S1132D00F54F2081621750F4DC2FCC27C60FD11D5C
S1132D10C25FDE4E2881FC01208330C084E18C9F99
S1132D20F0018D9FF00D1124E759FC4FA591B4914A
S1132D308C918F798C9384E18C9FF0018D9FF00DA1
S1132D401124EF58FC4F85919491FC011995FE01D3
S1132D50E754F94F1082C154D74F81E08883E12FA3
S1132D60F0E0EC55FC4FE491EE2319F0E13021F052
S1132D7005C0812F22DC02C0812F5FDFDF91CF915C
S1132D801F9108951F93CF93DF93182FC091C90605
S1132D90C80F81E08C0F0E94CE08882319F0812F80
S1132DA00E945F078C2F0E94CE08882309F46DC00F
S1132DB0F894C12FD0E0FE01E154F74F80818130B7
S1132DC029F485E0FE01E154F74F80837894FE01F5
S1132DD0E154F74F8081843039F1853009F055C0D2
S1132DE0812F0E941908FE01EA51F64F8081882341
S1132DF019F0813029F00BC0812F0E94D00E07C03A
S1132E00C253D94F8881811102C0812F13D8809178
S1132E10C9066FEF7FEF810F0E942207F894812F7C
S1132E200E94620C789431C0F89484E18C9FF00184
S1132E308D9FF00D1124ED58FC4F25913491F9012B
S1132E4019957894CA51D64F8881882319F0813016
S1132E5029F00FC0812F0E94D00E0BC08091CF06A5
S1132E60882321F0812F0E94D00E03C0812F0E945D
S1132E701A0F8091C9066FEF7FEF810F0E9422071E
S1132E80F894812F0E94620C7894DF91CF911F9166
S1132E9008958091CD1080FF15C0F8948091CD10D5
S1132EA08E7F8093CD107894E4EAF3E0E491EE23EE
S1132EB019F0E13029F006C080E00E94450F02C0FD
S1132EC080E0FDDBE4EAF3E0E491E13011F480E03A
S1132ED059CF08956091620BEEEFF8E080E090E046
S1132EE041E050E021913191232B49F09A01082EC1
S1132EF002C0220F331F0A94E2F7622B09C09A0121
S1132F00082E02C0220F331F0A94E2F72095622391
S1132F1001968830910531F76093620B0895CF9341
S1132F20DF93A091F210B0E0EBE1FAE080E090E0F2
S1132F3041E050E0D0E0C0E0BA01082E02C0660FC4
S1132F40771F0A94E2F76A237B239A011616170661
S1132F5014F02D2F3C2F2193319301968830910545
S1132F6059F7DF91CF910895B5DF93DFD8CF089556
S1132F701F920F920FB60F9211240BB60F922F933C
S1132F803F934F935F936F937F938F939F93AF93ED
S1132F90BF93EF93FF9386EC90E00E94A40CFF9103
S1132FA0EF91BF91AF919F918F917F916F915F91BD
S1132FB04F913F912F910F900BBE0F900FBE0F902A
S1132FC01F9018951F920F920FB60F9211240BB6F3
S1132FD00F922F933F934F935F936F937F938F93AE
S1132FE09F93AF93BF93EF93FF9386EC90E031DE12
S1132FF0FF91EF91BF91AF919F918F917F916F91CD
S11330005F914F913F912F910F900BBE0F900FBE88
S11330100F901F9018951F920F920FB60F921124C4
S11330200BB60F922F933F934F935F936F937F93BE
S11330308F939F93AF93BF93EF93FF9386EC90E0AE
S113304008DEFF91EF91BF91AF919F918F917F9196
S11330506F915F914F913F912F910F900BBE0F9005
S11330600FBE0F901F9018951F920F920FB60F92DC
S113307011240BB60F922F933F934F935F936F934B
S11330807F938F939F93AF93BF93EF93FF938EECB4
S113309090E00E94A40CFF91EF91BF91AF919F919A
S11330A08F917F916F915F914F913F912F910F90ED
S11330B00BBE0F900FBE0F901F9018951F920F928A
S11330C00FB60F9211240BB60F922F933F934F9389
S11330D05F936F937F938F939F93AF93BF93EF937C
S11330E0FF938EEC90E0B5DDFF91EF91BF91AF912E
S11330F09F918F917F916F915F914F913F912F910C
S11331000F900BBE0F900FBE0F901F9018951F923B
S11331100F920FB60F9211240BB60F922F933F9379
S11331204F935F936F937F938F939F93AF93BF93CB
S1133130EF93FF938EEC90E08CDDFF91EF91BF91C4
S1133140AF919F918F917F916F915F914F913F913B
S11331502F910F900BBE0F900FBE0F901F901895DC
S11331601F93CF93DF93D62F172FC091B8068823D0
S113317031F0C13051F018F0C23029F12DC081E096
S11331808093B806C13089F539C060E181E00E94BE
S113319010058F3F09F56FEF82E094E00E94290447
S11331A062E080E094E00E942904612F84E094E0CE
S11331B00E9429046D2F85E094E00E94290482E096
S11331C08093B80617C061E081E00E9410058F3F2C
S11331D019F48093B80612C08091B8068C1771F068
S11331E0813019F0823031F009C060E080E00E9443
S11331F0100504C060E080E00E9410058091B806CC
S1133200DF91CF911F9108951F93CF93DF93D62F12
S1133210172FC091B706882331F0C13051F018F050
S1133220C23029F12DC081E08093B706C13089F501
S113323039C060E181E00E9441058F3F09F56FEFDD
S113324082E095E00E94290462E080E095E00E941B
S11332502904612F84E095E00E9429046D2F85E004
S113326095E00E94290482E08093B70617C061E0CC
S113327081E00E9441058F3F19F48093B70612C084
S11332808091B7068C1771F0813019F0823031F0DB
S113329009C060E080E00E94410504C060E080E075
S11332A00E9441058091B706DF91CF911F91089547
S11332B0CF93DF93EA01FB019081911109C09181C1
S11332C0911106C09281911103C09381992319F140
S11332D0209721F1811109C0CB010E94AF05CE01D5
S11332E00E94A30581E090E01EC0813049F4CB0127
S11332F00E94D105CE010E94C50581E090E013C073
S1133300823079F4CB010E94F305CE010E94E705D7
S113331081E090E008C080E090E005C080E090E0AB
S113332002C081E090E0DF91CF910895AB0110924B
S1133330021110920111BC0180E0BACF0895AB01D3
S11333401092BB091092BA09BC0181E0B1CF089573
S11333509B016091011170910211AC0180E00E9407
S113336090062091011130910211280F391F3093DA
S113337002112093011108959B016091BA09709183
S1133380BB09AC0181E00E9490062091BA093091FA
S1133390BB09280F391F3093BB092093BA0908953C
S11333A0CF93C091B606882331F0C13051F018F0A4
S11333B0C23089F02EC081E08093B606C13079F521
S11333C032C060E281E00E9441058F3F11F582E046
S11333D08093B60628C062E070E081E00E94D204C7
S11333E084FD0DC062E070E081E00E94D20483FF9E
S11333F010C048E162E070E081E00E94060540E10F
S113340062E070E081E00E9406058FEF8093B606CB
S11334100AC08091B6068C1731F0813021F460E245
S113342080E00E9441058091B606CF910895CF9324
S1133430C091B506882331F0C13051F018F0C23084
S113344089F02EC081E08093B506C13079F532C091
S113345060E281E00E9410058F3F11F582E08093C5
S1133460B50628C062E070E080E00E94D20484FDCA
S11334700DC062E070E080E00E94D20483FF10C0BF
S113348048E162E070E080E00E94060540E162E00D
S113349070E080E00E9406058FEF8093B5060AC0B5
S11334A08091B5068C1731F0813021F460E280E020
S11334B00E9410058091B506CF9108951F93CF9374
S11334C0DF93D62F172FC091B406882331F0C13073
S11334D051F018F0C23029F12DC081E08093B40678
S11334E0C13089F539C060E181E00E9472058F3FE7
S11334F009F56FEF82E096E00E94290462E080E023
S113350096E00E942904612F84E096E00E94290439
S11335106D2F85E096E00E94290482E08093B40632
S113352017C061E081E00E9472058F3F19F4809317
S1133530B40612C08091B4068C1771F0813019F072
S1133540823031F009C060E180E00E94720504C05D
S113355061E080E00E9472058091B406DF91CF9112
S11335601F910895AB0110925E0B10925D0BBC018C
S113357082E09ECE08959B0160915D0B70915E0B7D
S1133580AC0182E00E94900620915D0B30915E0BAD
S1133590280F391F30935E0B20935D0B0895AF9273
S11335A0BF92CF92DF92EF92FF920F931F93CF932C
S11335B0DF931F921F92CDB7DEB77A8369837A01B6
S11335C08901E981FA81F770C82ED12CD601AA0F9E
S11335D0BB1FAE54B64F8D919C918E0F9F1F2E0F23
S11335E03F1F21303840C8F020E038E05901AE1ABE
S11335F0BF0AA501B7010E944003A8014A195B094B
S1133600B7016A0D7B1DF601EE0FFF1FEE54F64F56
S1133610808191810E94400304C0A801B7010E94E7
S113362040030F900F90DF91CF911F910F91FF9066
S1133630EF90DF90CF90BF90AF900895DF92EF921C
S1133640FF920F931F93CF93DF93D82E7B018A01B0
S113365068E270E00E94D204C82FD0E069E270E012
S11336608D2D0E94D204DC2FCC27C82B9801A701F2
S1133670BE018D2D94DFC00FD11F4D2F68E270E085
S11336808D2D0E9406054C2F69E270E08D2D0E945D
S11336900605DF91CF911F910F91FF90EF90DF907E
S11336A00895DF92EF92FF920F931F93CF93DF93CE
S11336B0D82E0FEF1FEFE12CF12C8D2D0E94F0047A
S11336C0EC01009721F08D2D0E94F0047C01EC1692
S11336D0FD0629F0015011090115110571F7C70103
S11336E0DF91CF911F910F91FF90EF90DF9008959C
S11336F0DF92EF92FF920F931F93CF93DF93D82E15
S11337007B018A01CEDFEC01009799F463E070E05D
S11337108D2D0E94D2048431D9F08823C9F0C1E0F0
S1133720D0E08C3111F4C0E0D0E0D195C195D1093D
S113373004C0081719070CF4E8011C161D0644F40C
S1133740AE01B7018D2D7ADF60E48D2D0E94420415
S1133750CE01DF91CF911F910F91FF90EF90DF90F9
S113376008950F931F93CF93DF931F92CDB7DEB7C6
S1133770082F10E0F801EE0FFF1FE550F64F2081EF
S11337803181232BB1F041E050E0BE016F5F7F4FE8
S1133790AFDF1816190684F4F801EE0FFF1FE55089
S11337A0F64F80819181019791838083898190E094
S11337B005C08FEF9FEF02C08FEF9FEF0F90DF9157
S11337C0CF911F910F910895DF92EF92FF920F9383
S11337D01F93CF93DF93CDB7DEB728970FB6F89436
S11337E0DEBF0FBECDBFD82EE82EF12CF701EE0FB1
S11337F0FF1FE550F64F20813181232B41F08F01CB
S11338008D2DAFDFF80120813181232BC9F78D2D58
S113381048DF18161906ACF548E050E0BE016F5FAA
S11338207F4F8D2D65DF9C01181619063CF58981A3
S11338308093DA108A818093DB108B818093DC1073
S11338408C818093DD10C701880F991FFC01EE5213
S1133850FF4E2D8130E0322F22274E81240F311D5F
S1133860318320832F8130E0322F22274885240F93
S1133870311DFC01E550F64F31832083822F932FB5
S113388002C080E090E028960FB6F894DEBF0FBE29
S1133890CDBFDF91CF911F910F91FF90EF90DF90FB
S11338A0089580E091CF089581E08ECF08954091EE
S11338B0FB095091FC0941155105D9F064177507AE
S11338C028F0BC0180E014DF9C0105C0AB01BC0101
S11338D080E00EDF9C011216130674F4EBEFF9E09E
S11338E080819181821B930B91838083822F932FFC
S11338F008958FEF9FEF08958FEF9FEF0895409104
S1133900FD095091FE0941155105D9F06417750759
S113391028F0BC0181E0ECDE9C0105C0AB01BC01D8
S113392081E0E6DE9C011216130674F4EDEFF9E073
S113393080819181821B930B91838083822F932FAB
S113394008958FEF9FEF08958FEF9FEF089580E024
S113395008CF08958091C5069091C606A091C70628
S1133960B091C8060196A11DB11D8093C506909320
S1133970C606A093C706B093C80680E0A3C0089506
S1133980CF93C091B306811103C01092B30606C051
S1133990C13099F018F0C23001F149C08091B206EB
S11339A0811104C00E94E3068093B20681E08093F3
S11339B0B306C13009F041C044C060E281E00E9416
S11339C072058F3FA1F568EE73E08091B2060E9404
S11339D0220782E08093B30634C062E070E082E0A4
S11339E00E94D20484FD19C062E070E082E00E946B
S11339F0D20483FF07C048E162E070E082E00E94E5
S1133A00060515C08091B2060E94CE08882379F07D
S1133A10A1DF8FEF8093B30614C040E162E070E051
S1133A2082E00E9406058FEF8093B3060AC080915E
S1133A30B3068C1731F0813021F460E280E00E94FB
S1133A4072058091B306CF910895BF92CF92DF9211
S1133A50EF92FF920F931F93CF93DF937B016A0141
S1133A60E901B090B106882331F0BB2021F081E058
S1133A70B81639F00DC081E08093B106B8120EC0BB
S1133A8015C081E07DDF8F3F19F48093B1060EC02D
S1133A908091B1068B1551F0813041F4B601C70114
S1133AA061DDB801CE0167DD80E06ADF8091B10697
S1133AB0DF91CF911F910F91FF90EF90DF90CF9006
S1133AC0BF9008950F931F93CF93C091B0068111B7
S1133AD003C01092B00608C0C130A9F028F0C2306B
S1133AE011F1C43051F14BC08091AF06811104C073
S1133AF00E94E3068093AF0681E08093B006C13054
S1133B0009F047C0E9C069EE77E081E0D7DC8F3F78
S1133B10B1F568EE73E08091AF060E94220782E05F
S1133B208093B006D9C08091AF060E94CE08882346
S1133B3031F184E08093B00631C063E070E082E04C
S1133B400E94D204823219F01092B006C5C040918E
S1133B506203509163030EE310E020EC38E064E666
S1133B6073E081E072DF8F3F51F468EE73E080917F
S1133B70AF060E94220782E08093B006ADC0809118
S1133B80B0068C1709F4A8C0813019F0843031F0E4
S1133B90A3C069EE77E080E091DC9EC0E0ECF8E041
S1133BA085E0808381E08093C10890916003209137
S1133BB061032093C2089093C3088093C40882E0F1
S1133BC08093C50883E18093C60886E38093C70881
S1133BD08091BC098093C8088091BD098093C9086D
S1133BE08091BE098093CA088091BF098093CB0855
S1133BF087E58093CC0885E38093CD0881E38093A7
S1133C00CE0880E38093CF088093D00880E280932D
S1133C10D10884E58093D20895E49093D30893E582
S1133C209093D4088093D5088BED98E09093EA099B
S1133C308093E90910A2178E12A211A214A213A252
S1133C4016A215A28BE790E090A787A388E097E0DF
S1133C5092A781A788E998E094A783A78DEE98E0BE
S1133C609093BE088093BD088091BE069091BF06D4
S1133C70A091C006B091C106880F991FAA1FBB1F4F
S1133C80AC01BD01440F551F661F771F440F551F1C
S1133C90661F771F840F951FA61FB71F85A796A7BA
S1133CA0A7A7B0AB8091D5099091D609A091D70967
S1133CB0B091D80981AF92AFA3AFB4AF8AE180933A
S1133CC0FD0840916203509163030EE310E09F01ED
S1133CD064E673E080E0B9DE8091B006CF911F9175
S1133CE00F9108958F929F92AF92BF92CF92DF92DD
S1133CF0EF92FF920F931F93CF93DF93CDB7DEB76D
S1133D00A4970FB6F894DEBF0FBECDBFE82ED62E13
S1133D10C72E6894FF24F5F88E010F5F1F4FF8013A
S1133D208F2D11928A95E9F78FEF89A38AA38BA32C
S1133D308CA363E470E0CE018196F8DA81E0898394
S1133D408A8386E08B831C824091E0095091E109CB
S1133D506091E2097091E309872E9924AA24BB2477
S1133D60B42FAA279927882788299929AA29BB2902
S1133D708824942EA52EB62E88249924BB24882921
S1133D809929AA29BB29452F562F672F772744271E
S1133D9066277727482B592B6A2B7B2B4D835E8311
S1133DA06F837887C986DA8680E890E09C878B8762
S1133DB06CE170E0C801CCDAF8018F2D11928A957C
S1133DC0E9F786E0E2ECF9E0D80101900D928A95DA
S1133DD0E1F760E170E0C801BBDAF8011192FA94EE
S1133DE0E9F706E010E060E270E0CE010196B0DA97
S1133DF00150110901151105B1F783E6898392E891
S1133E009A8393E59B838C8385E38D8381E08E8302
S1133E10EF829DE3988797E099878A8786E0E2ECB2
S1133E20F9E0DE011B9601900D928A95E1F78CE092
S1133E30898B8A8B87E0EBE6F3E0DE0153960190F1
S1133E400D928A95E1F76091C509CE0149960E94C9
S1133E50B0066091C609CE014B960E94B0066091EF
S1133E60C709CE014D960E94B0066EE170E0CE0106
S1133E7001966EDAF3E0EF1224C082E3898384E0D2
S1133E808A839091BC099B839091BD099C839091F6
S1133E90BE099D839091BF099E8396E39F83888783
S1133EA0809112098987809113098A878091140966
S1133EB08B87809115098C876CE070E0CE010196A8
S1133EC047DA87E3898386E08A8391E09B8393E0E2
S1133ED09C838D838FE08E838AE38F838BE3888733
S1133EE08FEF898769E070E0CE01019631DAA496FC
S1133EF00FB6F894DEBF0FBECDBFDF91CF911F91F7
S1133F000F91FF90EF90DF90CF90BF90AF909F9074
S1133F108F9008950F931F93CF93DF93062FEA0199
S1133F201091AE06882329F0112319F0113039F0CD
S1133F300DC081E08093AE06113071F412C081E0AF
S1133F4076DA8F3F19F48093AE060BC09091AE06DB
S1133F50911739F0913029F4BE01802FC3DE80E03F
S1133F6066DA8091AE06DF91CF911F910F9108958B
S1133F702F923F924F925F927F928F929F92AF9235
S1133F80BF92CF92DF92EF92FF920F931F93CF9342
S1133F90DF93CDB7DEB7A2970FB6F894DEBF0FBE9E
S1133FA0CDBF8A017EDC181619060CF0F1C162E25D
S1133FB070E0CE0101967BDC8981823009F0EAC190
S1133FC08091D2109091D3108334910509F0E4C10B
S1133FD08D819E81AF81B885CB2EDD24EE24FF2414
S1133FE0782F662755274427C42AD52AE62AF72A94
S1133FF04427582F692F7A2F442755277727C42A17
S1134000D52AE62AF72A892F9A2FAB2FBB27882790
S1134010AA27BB27C82AD92AEA2AFB2AF801C08280
S1134020D182E282F38246E050E062EC79E0CE0194
S11340304D960E94E938892B09F0B0C18091BA0CE1
S11340409091BB0CA091BC0CB091BD0CC816D906C4
S1134050EA06FB0608F4A4C18091E0099091E10905
S1134060A091E209B091E3098C159D05AE05BF0549
S113407008F498C189899A89AB89BC898093BC0961
S11340809093BD09A093BE09B093BF090EEC10E054
S11340905EDC0150110901151105D1F7712C0F2EA9
S11340A0FBEFCF2EF9E0DF2EF02D812C912C0F2E7B
S11340B0F2E1AF2EF9E0BF2EF02D0F2EF2ED4F2ED0
S11340C0F0E15F2EF02D0F2EF3E12F2EF9E03F2EBD
S11340D0F02D56C13CDC8333910509F405C17CF411
S11340E08130910529F124F4892B09F449C13DC19A
S11340F08330910521F1069709F439C036C18A331A
S1134100910509F47FC03CF48533910569F0C697A5
S113411009F445C02AC18B33910509F4ACC08F3F23
S1134120910509F42DC121C112DC11DC782E28C1BE
S11341300EDC64E070E088EC90E1B9DB21C107DCBF
S11341407C0164E070E080ED99E0B1DBFF24F4E0F1
S1134150EF1AF1081E141F040CF012C1082D192DBA
S1134160F6DB0F5F1F4F0E151F05D4F309C1EFDBFC
S11341707C0164E070E083EF90E199DBFF2484E04C
S1134180E81AF1081E141F040CF0FAC0082D192DAA
S1134190DEDB0F5F1F4F0E151F05D4F3F1C0D7DB15
S11341A0F501908191110EC0F101908191110AC025
S11341B0E4E1F9E09081911105C0E5E1F9E0908135
S11341C0992399F0F5010081118122813381F20153
S11341D040815181628173810417150726073707CF
S11341E021F0F82E811106C0CBC064E070E0C50157
S11341F05EDBC6C0082D192DAADB0F5F1F4FF0121E
S1134200FBCFBEC0A4DB64E070E08BEE99E04FDB33
S11342108091EB099091EC09A091ED09B091EE0920
S11342200B2F112722273327782F6627552744275A
S1134230042B152B262B372B4427582F692F7A2F25
S1134240442755277727042B152B262B372B492F4B
S11342505A2F6B2F7727442766277727402B512B1C
S1134260622B732B4093EB095093EC096093ED0997
S11342707093EE0985C06BDB64E070E08CE29AE039
S113428016DB80912C0A90912D0AA0912E0AB091F0
S11342902F0A0B2F112722273327782F662755271C
S11342A04427042B152B262B372B4427582F692FF3
S11342B07A2F442755277727042B152B262B372BAA
S11342C0492F5A2F6B2F7727442766277727402BB0
S11342D0512B622B732B40932C0A50932D0A60931D
S11342E02E0A70932F0A4CC032DB64E070E085ED37
S11342F099E0DDDA8091D5099091D609A091D7098A
S1134300B091D8090B2F112722273327782F66273E
S113431055274427042B152B262B372B4427582F9E
S1134320692F7A2F442755277727042B152B262B03
S1134330372B492F5A2F6B2F772744276627772748
S1134340402B512B622B732B4093D5095093D609E4
S11343506093D7097093D8094093F9105093FA10D9
S11343606093FB107093FC100BC0F1DAF82E8823D5
S113437039F0082D192DEBDA0F5F1F4FF012FBCF28
S1134380F60180819181892B09F0A4CE872D0BC081
S11343908FEF09C080E007C080E005C080E003C063
S11343A080E001C080E0A2960FB6F894DEBF0FBE95
S11343B0CDBFDF91CF911F910F91FF90EF90DF90D0
S11343C0CF90BF90AF909F908F907F905F904F90D1
S11343D03F902F900895CF92DF92EF92FF926B015E
S11343E07C01611571058105910539F00E949A38A7
S11343F0A70196010E94F33703C060E070E0CB018F
S1134400FF90EF90DF90CF900895CF93C091AD06C9
S1134410811110C08091C406811121C0809168036C
S11344208093C40692E0980F909368038F5F809303
S1134430C30615C0C430E1F130F4C130B1F078F0F6
S1134440C330F9F0FEC0C63009F478C008F447C0A0
S1134450C73009F48AC0CF3F09F4E9C0F2C081E053
S11344608093AD068C1300C172C164E470E081E0F6
S11344700E94B0188F3F09F0E4C083E08093AD063A
S113448041C14AE050E061E081E044DD8F3F09F042
S1134490D8C081E08093F81048EE53E060E070E00B
S11344A08091C4060E94860885E08093AD064FC1C2
S11344B04AE050E063E081E02DDD8F3F09F0C1C0A8
S11344C081E08093F81048EE53E060E070E0809162
S11344D0C4060E94860887E08093AD0638C16091C7
S11344E0CA097091CB098091CC099091CD094EEE07
S11344F050E13EDD8230A1F48091EE109091EF10F6
S1134500A091F010B091F1108093E0099093E1092B
S1134510A093E209B093E30986E08093AD06F8C066
S11345208091C4060E94F508882321F081E08093DD
S1134530AD069AC085E08093AD0609C144E650E01B
S113454063E081E0E7DC8F3F09F07BC082E0809389
S1134550F81044EF51E060E070E08091C4060E94DE
S1134560860887E08093AD06F2C06091CA09709115
S1134570CB098091CC099091CD094EEE50E1F8DC45
S1134580853009F040C02091BF0930E04091BE0958
S113459050E06091BD0970E08091BC0990E00E94F8
S11345A081042091D30930E04091D20950E0609118
S11345B0D10970E08091D00990E00E949C04209180
S11345C0CB1030E04091CA1050E06091C91070E007
S11345D08091C81090E00E94B7042091F9103091A6
S11345E0FA104091FB105091FC10A4E6B0E00E9438
S11345F01538AB01BC018091C3060E9486088FEF79
S11346008093AD06A4C0863021F483E08093AD0688
S113461079C08091C4060E94F508882321F081E0C6
S11346208093AD0621C087E08093AD0690C0809151
S1134630C3060E94F508882321F084E08093AD0628
S11346405BC08091AD068C1709F481C0833009F4F6
S113465059C018F4813041F07AC0843009F44CC058
S1134660863009F455C073C06FEC77E080E090E0C9
S1134670B2DEDC01CB010196A11DB11D8093E009DE
S11346809093E109A093E209B093E3098093BA0CF3
S11346909093BB0CA093BC0CB093BD0C1092BC09BE
S11346A01092BD091092BE091092BF091092C81051
S11346B01092C9101092CA101092CB101092D00907
S11346C01092D1091092D2091092D30910921209B2
S11346D01092130910921409109215091092F310F4
S11346E01092F4101092F5101092F61064E470E039
S11346F080E00E94B0182BC04AE050E063E080E004
S113470009DC25C04AE050E061E080E003DC1FC022
S11347106FEC77E080E090E05EDEDC01CB01019697
S1134720A11DB11D8093E0099093E109A093E209D2
S1134730B093E3098093BA0C9093BB0CA093BC0C88
S1134740B093BD0C4AE050E063E080E0E3DB80918D
S1134750AD06CF910895AF92BF92CF92DF92EF92C0
S1134760FF920F931F93CF93DF93CDB7DEB760977C
S11347700FB6F894DEBF0FBECDBFA2960EAD1FAD2F
S1134780A29781E3F80180838EE2818383E38283AD
S113479013826F96DFAC6F97DA9409F44EC021E070
S11347A0A12CB12C0F2EFEE2EF2EF12CF02D8A2D30
S11347B09B2DCC24C394C20EEEE1F0E0EC0FFD1F60
S11347C0E20FF11D20819695982F8827979587955C
S11347D0322F3F77830F911DDA9421F02223C4F402
S11347E02C2DE7CF4AE0BE016F5F7F4F0E9427392F
S11347F0F80101900020E9F731978EE290E091836F
S11348008083BE016F5F7F4FC8010E94F63815C0D8
S11348104AE0BE016F5F7F4F0E942739F801019083
S11348200020E9F73197F182E082BE016F5F7F4F8C
S1134830C8010E94F6382C2DBACF60960FB6F894B2
S1134840DEBF0FBECDBFDF91CF911F910F91FF90BF
S1134850EF90DF90CF90BF90AF9008953F924F922A
S11348605F926F927F928F929F92AF92BF92CF92FC
S1134870DF92EF92FF920F931F93CF93DF9300D0B9
S11348801F921F92CDB7DEB78C01DB018C9181336F
S113489009F0E5C011968C9111978E3209F0DFC0B2
S11348A012968C911297833309F0D9C013968C9188
S11348B08E3209F0D4C080E4F80111928A95E9F7A8
S11348C08BE2D8018C93FB0101900020E9F731972A
S11348D03F01661A770AFE01319685E0DF011D92D9
S11348E08A95E9F7B5E06B1671040CF471C06B019D
S11348F0E4E0CE0ED11C6894EE24E2F8F12CAA2454
S1134900A394B12C80E090E09E012F5F3F4F4901BA
S11349100F2EF5E03F2EF02D412C512CD6012D9178
S11349206D012E3209F047C0C4010E94C338272FFD
S1134930862F922F8038910528F4F801EA0DFB1D8B
S113494060832EC08115B0E49B0788F4F801EA0D5A
S1134950FB1D880F991F892F80688083EFEFAE1AA3
S1134960BE0AF801EA0DFB1D6F77608319C0F801D8
S1134970EA0DFB1D9C0124E0329F212D33271124D5
S1134980237020682083880F991F892F8068818372
S1134990F2E0AF0EB11CF801EA0DFB1D6F776083E6
S11349A0D401E32D1D92EA95E9F7FFEFAF1ABF0A90
S11349B0842D952D05C0F401E80FF91F208301967D
S11349C02FEFE21AF20A6E147F0409F0A7CF03C096
S11349D0AA24A394B12CCE0101960E94A638282FB4
S11349E0392F2038310528F4F801EA0DFB1D8083A6
S11349F02EC0211590E4390788F4F801EA0DFB1D57
S1134A00220F331F932F90689083AFEFAA1ABA0A2C
S1134A10F801EA0DFB1D8F77808319C0F801EA0DB8
S1134A20FB1DA90144E0549F412D552711244370D7
S1134A3040684083220F331F932F90689183B2E024
S1134A40AB0EB11CF801EA0DFB1D8F778083F801D2
S1134A50E05CFF4F2FEFA21AB20AB182A0820F903E
S1134A600F900F900F900F90DF91CF911F910F91A6
S1134A70FF90EF90DF90CF90BF90AF909F908F907A
S1134A807F906F905F904F903F90089520E4FC01D9
S1134A9011922A95E9F7FC01E05CFF4F1182108224
S1134AA008958F929F92AF92BF92CF92DF92EF922E
S1134AB0FF920F931F93CF93DF93CDB7DEB7609729
S1134AC00FB6F894DEBF0FBECDBF8C017B01FC0195
S1134AD0EE5BFF4F8081843009F47DC0863009F499
S1134AE06DC0843409F066C076C081E3D7018C932D
S1134AF08EE211968C93119783E312968C931297FE
S1134B0013961C92F801E05CFF4FB080BA9411F147
S1134B1081E0812C912C0F2EFEE2CF2ED12CF02D92
S1134B20282D392DAA24A394A80EF801E80FF11D0D
S1134B3080813695322F222737952795982F9F7796
S1134B40290F311DBA9409F453C088230CF067C0AF
S1134B508A2DE8CF80E079C0F801ED5BFF4F108229
S1134B6033972081318121153105D1F080E090E027
S1134B7060E03396A801405C5F4FD801A60FB11DD9
S1134B802C91D701A80FB91F2C9360816F5F6083AC
S1134B90862F90E0DA012D913C918217930768F3F8
S1134BA0F701E20FF31F108280E04FC0C8016EDFEF
S1134BB081E04BC0C8016ADF87E047C0FB01019078
S1134BC00020E9F7CF01861B970B029784179507FE
S1134BD008F48BCFEBCFF70101900020E9F7CF0168
S1134BE08E199F0902978417950708F4B5CFDECF75
S1134BF04AE0BE016F5F7F4FC9010E942739F70168
S1134C0001900020E9F731978EE290E09183808350
S1134C10BE016F5F7F4FC7010E94F6389BCF4AE009
S1134C20BE016F5F7F4FC9010E942739F7010190D0
S1134C300020E9F73197D182C082BE016F5F7F4FB8
S1134C40C7010E94F6388A2D6BCF60960FB6F89490
S1134C50DEBF0FBECDBFDF91CF911F910F91FF90AB
S1134C60EF90DF90CF90BF90AF909F908F9008957A
S1134C701F93CF93DF93FC01EE5BFF4F2081223023
S1134C8059F53297208131812330310540F5FB01FC
S1134C9011821082FC01E05CFF4F208131812115DB
S1134CA03105F9F0162FE62FF72F40E050E0EC0124
S1134CB0C05CDF4F40955095280F391FD901A40FD0
S1134CC0B51F2C9121934E2F411B50E0288139812F
S1134CD04217530778F307C0D9DE87E005C081E0A7
S1134CE003C080E001C080E0DF91CF911F9108955F
S1134CF0CF9320E4FC0111922A95E9F7262F2F7B0C
S1134D002430C9F5FA0101900020E9F79F01241B22
S1134D10350B225031092034310550F5FC01EE5B8E
S1134D20FF4F6083FA0101900020E9F73197BF013A
S1134D30641B750BFC01E05CFF4F71836083339649
S1134D40108261157105D1F020E030E0C0E0DF0190
S1134D50FA01E20FF31F2081FC01EC0FF11D208307
S1134D60CF5FCC932C2F30E02617370788F308C089
S1134D708DDE81E006C08ADE87E003C080E001C0EA
S1134D8080E0CF91089520E4FC0111922A95E9F77F
S1134D90623011F0643471F4FC01E05CFF4F22E0F6
S1134DA030E03183208332966083FC015083418359
S1134DB080E008956BDE87E0089570E4FC011192B1
S1134DC07A95E9F7623011F0643481F4FC01E05C17
S1134DD0FF4FA4E0B0E0B183A08332966083FC016E
S1134DE0508341833283238380E008954FDE87E03C
S1134DF00895FC0180E4DF011D928A95E9F78FEBA9
S1134E00860F843010F0673481F4DF01A05CBF4F5B
S1134E1084E090E011969C938E9312966C93508349
S1134E2041833283238380E00895CF012FDE87E01E
S1134E300895DC010D900020E9F7FC019D0121504B
S1134E40310980E090E004C041914E3209F40196AA
S1134E50E217F307C9F701960895CF92DF92EF9214
S1134E60FF920F931F93CF93DF93CDB7DEB72897AD
S1134E700FB6F894DEBF0FBECDBF6C01DB01E12C91
S1134E80F12C40E050E020E030E08C0101501109A9
S1134E9016C00417150761F48E3251F0E1E0F0E01A
S1134EA0EC0FFD1FEE0DFF1D80838FEFE81AF80A4B
S1134EB02F5F3F4FEC91EE3211F44F5F5F4F8D91B6
S1134EC08E3219F44C155D0550F4FB01019000205D
S1134ED0E9F73197E61BF70B2E173F07D0F2FE01D7
S1134EE0EE0DFF1D1282CE0107969F938F9389E7E3
S1134EF093E09F938F93CE0101969F938F930E948B
S1134F0040390F900F900F900F900F900F908F815A
S1134F10988528960FB6F894DEBF0FBECDBFDF91FB
S1134F20CF911F910F91FF90EF90DF90CF90089554
S1134F30AF92BF92CF92DF92EF92FF920F931F93A3
S1134F40CF93DF937C018B0174DFEC01C80171DF27
S1134F508C179D0738F5C1E0D0E019C0B701CE0128
S1134F607CDF6C01B801CE0178DF8C159D0508F457
S1134F706BC0B7018A2D9B2D70DF6C01B8018A2D9F
S1134F809B2D6BDFC816D90608F461C02196AC2EA0
S1134F90BD2EC8014EDF0196C817D907F8F281E08B
S1134FA090E066C0C817D90738F5C1E0D0E019C051
S1134FB0B701CE0152DF6C01B801CE014EDF8C1572
S1134FC09D0508F447C0B7018A2D9B2D46DF6C016F
S1134FD0B8018A2D9B2D41DFC816D90608F43DC0BF
S1134FE02196AC2EBD2EC70124DF0196C817D90720
S1134FF0F8F28FEF9FEF3CC0C817D90789F5C1E0DD
S1135000D0E017C0B701CE0128DF6C01B801CE0192
S113501024DF8C159D0538F1B7018A2D9B2D1DDFEA
S11350206C01B8018A2D9B2D18DFC816D906F0F043
S11350302196AC2EBD2EC701FCDE0196C817D907F8
S113504008F38FEF9FEF14C081E090E011C08FEF61
S11350509FEF0EC081E090E00BC08FEF9FEF08C080
S11350608FEF9FEF05C081E090E002C08FEF9FEFCC
S1135070DF91CF911F910F91FF90EF90DF90CF9030
S1135080BF90AF900895EF92FF920F931F93CF9329
S1135090DF937C0109E012E0C0E0D0E0F801608118
S11350A07181C70145DF019639F02196095F1F4FD1
S11350B0C332D10599F703C08C2F9D2F02C08FEF07
S11350C09FEFDF91CF911F910F91FF90EF90089583
S11350D0FA01223049F46130E9F4DC014D915C912C
S11350E062E0CF0150CE0895243039F46230F9F4EF
S11350F0AC0164E0CF01FCCD0895233459F463304E
S1135100C1F4DC012D913D914D915C9163E4CF019B
S113511070CE0895223079F4643079F4DC012D9155
S11351203D914D915C9162E0CF0147CE089580E0BE
S1135130089580E0089580E0089580E00895223085
S113514079F46430A1F4EAE2F3E001900020E9F795
S11351503197AF014A5253406AE273E0A2CC0895FA
S1135160213039F4623039F4BA0182CD089580E0F7
S1135170089580E0089580E008952F923F924F9221
S11351805F926F927F928F929F92AF92BF92CF92D3
S1135190DF92EF92FF920F931F93CF93DF93CDB7DC
S11351A0DEB7C257D1090FB6F894DEBF0FBECDBF2C
S11351B08C016091FD097091FE097093C909609397
S11351C0C80989E9E6E1F9E0DF011D928A95E9F76A
S11351D06A39710508F094C2CF010E947F1C809146
S11351E01609803309F08EC2B0911909A296BFAF97
S11351F0A2978B2F8D5FE82FF0E0AA96FFAFEEAF5A
S1135200AA97EA5EF64F2281A6962FAFA6978E5FE5
S1135210820FE82FF0E0DF01AA5EB64F11963C91B1
S11352201197A3963FAFA39714962C9194E0980FEF
S1135230920FA7969FAFA797492F50E0AF965FAF05
S11352404EAFAF97DA01AA5EB64F12969C91AB9619
S11352509FAFAB97A7969FADA7979E5FAB96AFAD59
S1135260AB97A90FA896AFAFA8974A2F50E0E19645
S11352705FAF4EAFE197DA01AA5EB64F12969C91EA
S1135280AC969FAFAC97392FA896AFADA8973A0FBD
S1135290B2E0B30FE296BFAFE2974B2E512CD2018E
S11352A0AA5EB64F1296AC90D80115961D921D9227
S11352B01D921C9218972223F1F0E55EF64F90E0C0
S11352C0845E964F2150820F911D219115964D9128
S11352D05D916D917C911897762F652F542F4427FB
S11352E0422B15964D935D936D937C931897E81715
S11352F0F90759F78D01C2010696FC01EA5EF64FE3
S1135300B081A496BFAFA49728E0230FB20FA5964F
S1135310BFAFA597EB2FF0E0EA5EF64F4181E3962D
S11353204FAFE3975281AD965FAFAD97A396EFADC4
S1135330A397D801EC93E53AC1F0FC01EA5EF64F7D
S11353403081A4963FAFA497320FA5963FAFA5979F
S1135350E32FF0E0EA5EF64F4181E3964FAFE39727
S11353605281AD965FAFAD976BC01092C009B12C5E
S1135370A114B10409F464C0E12CF12C3C5F632E48
S1135380712C812C312C6E0183E4C80ED11C0F2E9C
S1135390F2E42F2EF02DB701660D771DFB01EA5EB6
S11353A0F64F9280448150E04115510599F0FE0179
S11353B03196282D332D882D932D6A5E764FDB018F
S11353C0A20FB31F15962C91219301969C0184176B
S11353D09507A8F323965FAF4EAF2397DF92CF9242
S11353E0ADB7BEB7A254B1090FB6F894BEBF0FBE95
S11353F0ADBF1196FE013196822D01900D928A95D2
S1135400E1F7A9D90FB6F894DEBF0FBECDBFC60130
S11354103ADEE091C00921E02E0F2093C009F0E0AC
S1135420EE0FFF1FEB5FF54F992791838083892D42
S113543090E00296E80EF91EEA14FB0408F4ABCFE0
S1135440D80111961D921D921D921C921497A2963A
S1135450BFADA297BB23F1F0EBE1F9E08B2F8150B4
S113546090E0845E964FD801219111964D915D9103
S11354706D917C911497762F652F542F4427422BDE
S113548011964D935D936D937C931497E817F907E8
S113549059F78D01A3962FADA397F801208320938C
S11354A0610BA6963FADA697353120F081E0818748
S11354B082E056C18081833AD9F5A696BFADA697FE
S11354C08B2F90E02091030A3091040A82179307EE
S11354D009F06AC0009709F476C0AA962EAD3FADD4
S11354E0AA972D5F3F4FE091B00CF091B10CD90118
S11354F0AA5EB64F5C914081541781F00AC04E0FEA
S11355005F1FD901A60FB11D7C91DA014C9174176C
S113551041F082E0F801818787E022C160E02A5EE1
S1135520364F6F5F462F50E04817590740F34BC082
S1135530805A8230C8F5A696FFADA6978F2F90E0CB
S11355402091CE093091CF098217930769F500970E
S1135550D1F1AA962EAD3FADAA972D5F3F4FE091B2
S11355600E09F0910F09D901AA5EB64F5C914081F2
S1135570541781F00AC04E0F5F1FD901A60FB11D49
S11355807C91DA014C91741741F082E0F801818733
S113559087E0E6C060E02A5E364F6F5F462F50E03A
S11355A04817590740F30FC0F801E057FF4F118225
S11355B01082E254F1091182108282E0D801199616
S11355C08C9387E0CDC0F8011186AB96FFADAB9705
S11355D0FF2301F1AF96EEADFFADAF97E75EF64F57
S11355E0A7962FADA797822F90E0865E964FAB9635
S11355F02FADAB972150820F911D40E050E0BA01CE
S1135600762F652F542F44272191422BE817F90751
S1135610B9F703C040E050E0BA01D80119964C93A1
S11356201997F8011286138614861586AC96FFAD79
S1135630AC97FF2349F1E196EEADFFADE197E75E4C
S1135640F64FA8962FADA897822F90E0865E964FCE
S1135650AC962FADAC972150820F911D21911A96D3
S11356604D915D916D917C911D97762F652F542FEF
S11356704427422B1A964D935D936D937C931D970B
S1135680E817F90759F78D01A4963FADA497313473
S113569030F081E0D80119968C9383E061C080E4F6
S11356A0F8013E96DF011D928A95E9F7E05CFF4F11
S11356B0A496BFADA4978B2F90E091838083BB23E6
S11356C029F1F201E35EF64FD8011E96E2962FAD62
S11356D0E297822F90E0825E964FA4962FADA49716
S11356E02150820F911D21912D93E817F907D9F7C5
S11356F00DC021912D93E817F907D9F780E030C048
S113570086E02EC085E02CC080E02AC0F801EE5669
S1135710FF4FE3963FADE39730833297AD964FAD9D
S1135720AD97842F90E09183808380E4E054F10965
S1135730DF011D928A95E9F7442331F3A596BFADA5
S1135740A5978B2F90E0FC01E75EF64FD801A05B94
S1135750BF4F865E964F242F2150820F911DC9CFD3
S1135760CE58DF4F0FB6F894DEBF0FBECDBFDF912A
S1135770CF911F910F91FF90EF90DF90CF90BF904A
S1135780AF909F908F907F906F905F904F903F90DD
S11357902F900895CF92DF92EF92FF920F931F9371
S11357A0CF93DF93DC011092B0091092AF09EC01A2
S11357B0C25BDF4FFC01E057FF4F288139818081B4
S11357C09181280F391F2B5D3F4F89E9E6E1F9E00C
S11357D0EF0119928A95E9F78091610B833A29F5D3
S11357E08091030A9091040A280F391F3093C90944
S11357F02093C80930E330931609225020931709E7
S113580022E02093180921E02093190924E0209331
S11358101B0927E030E03093B0092093AF09BC01A5
S113582080931C09009731F566C08091CE09909150
S1135830CF09280F391F3093C9092093C80930E3D1
S11358403093160922502093170922E02093180957
S113585021E02093190924E020931B0927E030E07C
S11358603093B0092093AF09BC0180931C090097C1
S113587011F541C00091B00C1091B10C80E090E0A2
S1135880C0E02091AF093091B009A9014F5F5F4F8B
S11358905093B0094093AF09800F911FFC018081A0
S11358A02A5E364FF9018083CF5F8C2F90E08617F4
S11358B0970738F320C000910E0910910F0980E07A
S11358C090E0C0E02091AF093091B009A9014F5F89
S11358D05F4F5093B0094093AF09800F911FFC01B3
S11358E080812A5E364FF9018083CF5F8C2F90E050
S11358F08617970738F38091AF099091B0099C01FE
S11359002F5F3F4F3093B0092093AF094C91FC01B6
S1135910EA5EF64F4083A9014A5E564F7D012EE4AC
S1135920E20EF11CE70178819D0120573F4FE90108
S11359306881670F665EEA01688302E0028314E00F
S1135940138315964C91159716965C911697179696
S11359506C91179718967C91189774836583568376
S113596047830087118719964C91199712861386DD
S113597014864587068717871A964C911A971B96A3
S11359805C911B971C966C911C971D967C911D979E
S1135990708B618B528B438B40E3448BE7016881AE
S11359A0E9015881560F5A5F558B468BE7014881B0
S11359B0E9012881240F2C5F278B26E0208F4A964B
S11359C09093B0098093AF09E7018881818F888122
S11359D09981892B49F18091AF099091B009FD011A
S11359E03E969C012A5E364F69017C013DE0E31A34
S11359F0F108EA1AFB0A02EF1FEF0A1B1B0BBE0198
S1135A00A7014E0F5F1F8191E60189936E019801F2
S1135A102E0F3F1FEB01888199812817390780F3E6
S1135A205093B0094093AF098091AF099091B009A8
S1135A30FD01EE56FF4F2081EC01CA5ED64F28834C
S1135A4002969093B0098093AF093297808189833D
S1135A5080819181892B29F10091AF091091B009BE
S1135A60E054F109E801CA5ED64F0F5411090A1B2C
S1135A701B0B60EB7FEF6A1B7B0BA057BF4FA8018A
S1135A804E0F5F1F819189939B012E0F3F1F8D91B4
S1135A909C9111972817390790F35093B0094093BC
S1135AA0AF096091D4107091D5108AED90E10E94F5
S1135AB09F196091C8097091C90986E199E00E9413
S1135AC0BC1980E0DF91CF911F910F91FF90EF906F
S1135AD0DF90CF900895BF92CF92DF92EF92FF9222
S1135AE00F931F93CF93DF93CDB7DEB7C459D1097A
S1135AF00FB6F894DEBF0FBECDBF7C01DC01199652
S1135B001C92FC0112861386148615861092B00925
S1135B101092AF098FE190E09093C9098093C8096E
S1135B208091C009882309F449C0B12CC12CD12C1F
S1135B300B2D10E0000F111F0B5F154FD8018D9135
S1135B409C91FC01EE0FFF1FEE0FFF1FEE0FFF1FD6
S1135B50E81BF90BE75FFD4F2281AE014F5A5F4FFF
S1135B60658183819481B4DAF80120813181F9015E
S1135B70EE0FFF1FEE0FFF1FEE0FFF1FE21BF30BD5
S1135B80E75FFD4F60817181CE010F960E942E2444
S1135B9060962FAD6097CF56DF4F88819981C159A8
S1135BA0D0409927820F911D0696C80ED91EB39432
S1135BB08091C009B81608F4BBCF02C0C12CD12C07
S1135BC08091C8099091C9098C0D9D1D29E9E6E1D0
S1135BD0F9E0DF011D922A95E9F76091610B633AC0
S1135BE059F42091030A3091040A820F931F909371
S1135BF0C9098093C8090AC02091CE093091CF0900
S1135C00820F931F9093C9098093C8098091AF09AB
S1135C109091B009FC01EA5EF64F20E3208322E86C
S1135C2021832091C8093091C909A901445051091F
S1135C3052832450238322E0248321E02583168287
S1135C409C01285F3F4F44E04783633A91F50996EE
S1135C509093B0098093AF096091030A7091040A8C
S1135C60F901EA5EF64F60836115710509F451C0CC
S1135C700091B00C1091B10C80E090E0A0E0209174
S1135C80AF093091B009A9014F5F5F4F5093B0093C
S1135C904093AF09800F911FFC0180812A5E364F2B
S1135CA0F9018083AF5F8A2F90E08617970738F356
S1135CB030C009969093B0098093AF096091CE09E2
S1135CC07091CF09F901EA5EF64F608361157105A1
S1135CD001F100910E0910910F0980E090E0A0E01D
S1135CE02091AF093091B009A9014F5F5F4F5093E4
