:1000000065C0000084C0000082C0000080C0000005
:100010007EC000007CC000007AC0000078C00000F4
:1000200076C0000074C0000072C0000070C0000004
:100030006EC000006CC000006AC0000068C0000014
:1000400066C0000043C5000062C0000060C0000040
:100050005EC000005CC000005AC0000058C0000034
:1000600056C0000054C000009EC6000050C00000F2
:100070004EC000004CC000004AC0000048C0000054
:1000800046C0000044C0000042C0000040C0000064
:100090003EC000003CC000003AC0000038C0000074
:1000A00036C0000034C0000032C0000030C0000084
:1000B0002EC000002CC000002AC0000028C0000094
:1000C00026C0000024C0000022C0000011241FBE72
:1000D000CFEFD1E2DEBFCDBF00E00CBF12E0A0E069
:1000E000B2E0E2E2F6E200E00BBF02C007900D9240
:1000F000A833B107D9F726E0A8E3B2E001C01D920A
:10010000A938B207E1F70E9411120C940F1378CFAF
:100110008EBD00000DB407FEFDCF8EB50895CF93C0
:10012000DF93C82FD92F28988FE0F2DF8D2FF0DFD3
:100130008C2FEEDF80E0ECDF289ADF91CF910895DD
:10014000CF92DF92EF92FF920F931F93CF93DF93A3
:10015000EC016A0141155105B1F0062F172F7C0102
:10016000E40EF51E28988FE0D3DF8D2FD1DF8C2F82
:10017000CFDF219680E0CCDFF80181938F01289AB0
:10018000CE15DF0579F7C601DF91CF911F910F9151
:10019000FF90EF90DF90CF900895CF92DF92EF9293
:1001A000FF920F931F93CF93DF93EC016A014115E8
:1001B0005105A9F0062F172F7C01E40EF51E289893
:1001C00080EFA6DF8D2FA4DF8C2FA2DF2196F80110
:1001D00081918F019DDF289ACE15DF0581F7C60139
:1001E000DF91CF911F910F91FF90EF90DF90CF9013
:1001F0000895EF92FF920F931F93259A2D9A2D98B1
:100200002FEF83EC99E0215080409040E1F700C04F
:1002100000006C9A74982FEF83EC99E02150804095
:100220009040E1F700C000006C982FEF83EC99E05C
:10023000215080409040E1F700C0000080E090E451
:100240009093600680935F0680E090E6909376043A
:100250008093750480E098E4909362068093610631
:1002600080E098E6909378048093770480E090E5AE
:10027000909364068093630680E090E790937A04FD
:100280008093790480E098E59093660680936506F4
:1002900080E098E790937C0480937B0460E880E0A2
:1002A00090E037D065E58BE190E033D065E58AE1F9
:1002B00090E02FD06894EE24E1F8F12C0EED10E0E0
:1002C0002CEC30E04BEB50E06AEA70E080E090E02C
:1002D00051D02CE430E040E050E060E070E08AE093
:1002E00090E06FD02EEF30E040E050E060E070E052
:1002F0008AE090E081D020E030E04FEF50E06FEFF7
:1003000070E08FEF90E093D01F910F91FF90EF90EE
:1003100008951F93CF93DF93D82F192FC62F2898B6
:1003200080EFF6DE812FF4DE8D2FF2DE8C2FF0DEF3
:10033000833011F0289A5DDF289A81E0DF91CF9118
:100340001F9108951F93CF93DF93C82FD0E0DC2F28
:10035000CC27CF5FDB4FCE01DCDF10E001C01F5F99
:10036000CE01DDDE882311F01F3FC9F7DF91CF9169
:100370001F910895EF920F931F93CF93DF93162F42
:10038000D42FC22F682F89E090E0C3DF612F8AE06D
:1003900090E0BFDF6D2F8BE090E0BBDF6C2F8CE037
:1003A00090E0B7DF602F8DE090E0B3DF6E2D8EE040
:1003B00090E0AFDF81E0DF91CF911F910F91EF903F
:1003C00008951F93CF93DF93162FD42FC22F682F3A
:1003D0008FE090E09EDF612F80E190E09ADF6D2F4B
:1003E00081E190E096DF6C2F82E190E092DF81E086
:1003F000DF91CF911F9108951F93CF93DF93162F15
:10040000D42FC22F682F81E090E083DF612F82E03C
:1004100090E07FDF6D2F83E090E07BDF6C2F84E046
:1004200090E077DF81E0DF91CF911F9108951F93D6
:10043000CF93DF93162FD42FC22F682F85E090E043
:1004400068DF612F86E090E064DF6D2F87E090E049
:1004500060DF6C2F88E090E05CDF81E0DF91CF917E
:100460001F91089590E00496982F8827860F971F74
:1004700056CE08951F93CF93DF93182F60E270E05C
:10048000F1DFC82FD0E061E270E0812FEBDFDC2FDD
:10049000CC279E01282BC901DF91CF911F91089590
:1004A0001F93CF93DF93182F66E270E0DBDFC82F36
:1004B000D0E067E270E0812FD5DFDC2FCC279E01F2
:1004C000282BC901DF91CF911F9108959B0190E0E6
:1004D0000496982F8827642F820F931F1ACF0895B0
:1004E000882341F080914602813041F018F082303B
:1004F000C1F024C081E08093460220C0462F61E015
:1005000070E080E0E3DF61E070E080E0ABDF882353
:1005100021F082E08093460211C08FEF8093460263
:100520000DC061E070E080E09DDF882321F082E073
:100530008093460203C08FEF80934602809146026B
:100540000895882341F080914502813041F018F0F0
:100550008230C1F024C081E08093450220C0462F44
:1005600061E070E082E0B2DF61E070E082E07ADFBB
:10057000882321F082E08093450211C08FEF8093A1
:1005800045020DC061E070E082E06CDF882321F05D
:1005900082E08093450203C08FEF809345028091F3
:1005A00045020895CF93C82F692F80E194E0B1DE12
:1005B0006C2F81E194E0ADDECF910895CF93DF936E
:1005C000EC0168818CE094E0A4DE69818DE094E028
:1005D000A0DE6A818EE094E09CDE6B818FE094E087
:1005E00098DEDF91CF910895CF93C82F692F80E1D6
:1005F00095E08FDE6C2F81E195E08BDECF91089541
:10060000CF93DF93EC0168818CE095E082DE698115
:100610008DE095E07EDE6A818EE095E07ADE6B818A
:100620008FE095E076DEDF91CF910895CF93C82FCC
:10063000692F80E196E06DDE6C2F81E196E069DE46
:10064000CF910895CF93DF93EC0168818CE096E021
:1006500060DE69818DE096E05CDE6A818EE096E086
:1006600058DE6B818FE096E054DEDF91CF910895E4
:100670009F92AF92BF92CF92DF92EF92FF920F9331
:100680001F93CF93DF93982E5B017A01E90164E217
:1006900070E0E8DEC82ED12C65E270E0892DE2DE44
:1006A0001C2D0027082B0A0D1B1D98013770C92C23
:1006B000D12CF601EE0FFF1FE15AF94F8081918195
:1006C000820F931FA9014C0F5D1F41305840B8F0B5
:1006D00040E058E05A01A21AB30AA501B7015DDD56
:1006E000AE014A195B09B7016A0D7B1DF601EE0FD9
:1006F000FF1FE15AF94F808191814FDD03C0AE01A8
:10070000B7014BDDC00FD11F4D2F64E270E0892D82
:10071000DDDE4C2F65E270E0892DD8DEDF91CF91D0
:100720001F910F91FF90EF90DF90CF90BF90AF900F
:100730009F900895DF92EF92FF920F931F93CF93B4
:10074000DF93D82E0FEF1FEFE12CF12C8D2D92DED1
:10075000EC01009719F08D2D8DDE7C01EC16FD0665
:1007600029F0015011090115110581F7C701DF9129
:10077000CF911F910F91FF90EF90DF900895DF923E
:10078000EF92FF920F931F93CF93DF93D82E8B019D
:100790007A01E901CFDF8C179D0718F48D2DCADF90
:1007A000EC019E01A701B8018D2D62DFCE01DF9122
:1007B000CF911F910F91FF90EF90DF90089520E36C
:1007C000FC0120833296862F82958F7090E1899F5D
:1007D000601911246A3010F4605D01C0695C629395
:1007E000882311F0682FEFCF08958FB7807880931A
:1007F0003004F89480913004089580913004882367
:1008000009F07894809130040895A8952FE088E14C
:1008100090E00FB6F894A895809360000FBE2093E7
:10082000600008958091230291E0980F9093230235
:1008300008958091220291E0980F909322020895EA
:10084000CF93DF93C82FD62FD0DFEC2FF0E0E0530B
:10085000FC4FD083DD23A9F0EC2FE695E695E695D5
:10086000F0E0EE59FD4F4081C77021E030E0C90152
:1008700002C0880F991FCA95E2F780958423808370
:1008800013C0EC2FE695E695E695F0E0EE59FD4FA6
:100890004081C77021E030E0C90102C0880F991F74
:1008A000CA95E2F7842B8083A8DFDF91CF9108956A
:1008B0001F93CF93DF93182FEB0197DFE12FF0E029
:1008C000EE0FFF1FE05FFC4FD183C083CD2BA9F05B
:1008D000E12FE695E695E695F0E0EB5AFD4F408175
:1008E000177021E030E0C90102C0880F991F1A95E6
:1008F000E2F780958423808313C0E12FE695E69587
:10090000E695F0E0EB5AFD4F4081177021E030E0B2
:10091000C90102C0880F991F1A95E2F7842B8083C2
:100920006CDFDF91CF911F910895CF92DF92EF920C
:10093000FF92CF93C82F6A017B0157DFEC2FF0E0C5
:10094000EE0FFF1FEE0FFF1FE059FD4FC082D18257
:10095000E282F382CD28CE28CF28A9F0EC2FE695AD
:10096000E695E695F0E0E15BFD4F4081C77021E040
:1009700030E0C90102C0880F991FCA95E2F780953F
:100980008423808313C0EC2FE695E695E695F0E08E
:10099000E15BFD4F4081C77021E030E0C90102C03A
:1009A000880F991FCA95E2F7842B808326DFCF91A9
:1009B000FF90EF90DF90CF900895CF93C82F15DF71
:1009C000EC2FE695E695E695F0E0EB5AFD4F208199
:1009D00030E08C2F877002C0359527958A95E2F715
:1009E00020FF0DC0EC2FF0E0EE0FFF1FE05FFC4F8B
:1009F00020813181C1E0232B19F0C0E001C0C0E0AB
:100A0000FCDE8C2FCF910895CF93C82FEEDEEC2F14
:100A1000E695E695E695F0E0E15BFD4F208130E05C
:100A20008C2F877002C0359527958A95E2F720FFB5
:100A300013C0EC2FF0E0EE0FFF1FEE0FFF1FE05989
:100A4000FD4F4081518162817381C1E0452B462B6E
:100A5000472B19F0C0E001C0C0E0CFDE8C2FCF9152
:100A60000895D3DE109280008AEE8093810080E2A8
:100A70009EE49093890080938800EFE6F0E0808107
:100A80008260808380E090E02FEFFC01EE59FD4F03
:100A9000208301968C309105C1F780E090E02FEF24
:100AA000FC01EB5AFD4F208301968D309105C1F773
:100AB0008FEF80934F028093500280935102809376
:100AC0005202809353028093540208951F920F9212
:100AD0000FB60F9211240BB60F922F933F934F93A3
:100AE0005F936F937F938F939F93AF93EF93FF9356
:100AF00080914D028F5F80934D0280E090E061E035
:100B000070E0282F26952695269530E0F901E259C8
:100B1000FD4F4081A82FA77050E00A2E02C05595C6
:100B200047950A94E2F740FD14C0FC01E85DFB4FD5
:100B300040814150408341110CC0F901E259FD4F01
:100B400040819B0102C0220F331FAA95E2F7242B9C
:100B50002083019688309105A1F6FF91EF91AF9126
:100B60009F918F917F916F915F914F913F912F91C5
:100B70000F900BBE0F900FBE0F901F901895FF9215
:100B80000F931F93CF93DF93F894F0904D02109240
:100B90004D027894FF2009F4D2C010E040E050E00C
:100BA00021E030E08091500690915106A0915206CC
:100BB000B09153060196A11DB11D809350069093EC
:100BC0005106A0935206B0935306CA01F894682FB9
:100BD00066956695669570E0FB01EE59FD4FE081E4
:100BE000A82FA770F0E00A2E02C0F595E7950A94A9
:100BF000E2F7E0FD14C0FC01E053FC4FB081B150BE
:100C0000B083B1110CC0FB01EE59FD4FB081B901A9
:100C100002C0660F771FAA95E2F76B2B608378946A
:100C200001968835910591F6CA01F894682F66956A
:100C30006695669570E0FB01EB5AFD4FE081C82F89
:100C4000C770F0E00C2E02C0F595E7950A94E2F724
:100C5000E0FD1AC0DC01AA0FBB1FA05FBC4FED91E5
:100C6000FC91119731971196FC93EE93EF2B61F461
:100C7000FB01EB5AFD4FA081B90102C0660F771F3F
:100C8000CA95E2F76A2B60837894019680369105C5
:100C900061F6BA01F894E62FE695E695E695F0E060
:100CA000DF01A15BBD4F8C91062F077090E0002EF5
:100CB00002C0959587950A94E2F780FD21C0EB016B
:100CC000CC0FDD1FCC0FDD1FC059DD4F888199810E
:100CD000AA81BB810197A109B10988839983AA835D
:100CE000BB83892B8A2B8B2B59F4E15BFD4FA081B1
:100CF000C90102C0880F991F0A95E2F78A2B8083E9
:100D000078946F5F7F4F6832710521F680914402BD
:100D10008F5F843619F0809344020EC01092440213
:100D200080914C0690914D06909355068093540601
:100D300050934D0640934C061F5F1F1133CFDF9138
:100D4000CF911F910F91FF900895A89580914C0627
:100D500090914D06019690934D0680934C0680919C
:100D60004E02E82FF0E0E053FC4F90819095909375
:100D7000450620919D04291710F490939D046FEF70
:100D80005FCD08954FDD80934606E1ECF0E0808171
:100D90008860808387E690E09093C5008093C400CC
:100DA0000A9A129A08951F920F920FB60F92112469
:100DB0000BB60F922F935F936F937F938F939F93B5
:100DC000AF93BF93EF93FF93E0919704F0E0E85562
:100DD000FB4F20818091970490E0019660E971E0DB
:100DE0000E942812809397042093C600E0ECF0E064
:100DF0008081806480839091560680919704981337
:100E000005C0E1ECF0E080818F7D8083FF91EF9160
:100E1000BF91AF919F918F917F916F915F912F9132
:100E20000F900BBE0F900FBE0F901F901895482F7C
:100E30002091560630E0C901019660E971E00E94F8
:100E40002812E0915606F0E0E855FB4F408380936E
:100E50005606E1ECF0E080818062808381E00895B5
:100E60000F931F93CF93DF93062F662341F0C82F74
:100E7000D92F10E08991DBDF1F5F1013FBCF802F8C
:100E8000DF91CF911F910F910895CF93DF93CDB74D
:100E9000DEB729970FB6F894DEBF0FBECDBF198617
:100EA00060E0FE0139964DEC849F212D1124922F94
:100EB000969596959695990F392F330F330F930F7B
:100EC000891B982F822F8695869586956F5F905DFA
:100ED00092938111E9CFCF01C3DF29960FB6F89421
:100EE000DEBF0FBECDBFDF91CF9108951F93CF938B
:100EF000DF93EC0110E006C0FE01E80FF91F8081CE
:100F000096DF1F5F812F90E0FE0101900020E9F73E
:100F10003197EC1BFD0B8E179F0770F38DE087DF79
:100F20008AE085DFFE0101900020E9F7CF010197FB
:100F30008C1BDF91CF911F9108958DE078DF8AE0BF
:100F400076DF82E008951F93CF93DF93D62F172F7C
:100F5000C0914302882331F0C13051F018F0C23003
:100F600001F127C081E080934302C13059F531C0BF
:100F700060E181E0B5DA8F3FE1F46FEF82E094E069
:100F8000C8D962E080E094E0C4D9612F84E094E0A5
:100F9000C0D96D2F85E094E0BCD982E080934302F4
:100FA00015C061E081E09CDA8F3F19F48093430221
:100FB00010C0809143028C1761F0813019F08230AB
:100FC00029F007C060E080E08BDA03C060E080E0D9
:100FD00087DA80914302DF91CF911F910895CF93DB
:100FE000DF93EA01FB019081911109C09181911178
:100FF00006C09281911103C093819923E9F0209753
:10100000F1F0811107C0CB01D9DACE01CBDA81E052
:1010100090E01AC0813039F4CB01F2DACE01E4DA83
:1010200081E090E011C0823069F4CB010BDBCE018E
:10103000FDDA81E090E008C080E090E005C080E04B
:1010400090E002C081E090E0DF91CF910895AB0184
:101050001092860610928506BC0180E0C0CF0895EC
:101060009B016091850670918606AC0180E087DB6C
:101070002091850630918606280F391F3093860609
:10108000209385060895CF93C0914202882331F0C2
:10109000C13051F018F0C23081F029C081E0809356
:1010A0004202C13051F52CC060E281E019DA8F3F75
:1010B000F1F482E08093420223C062E070E080E0BD
:1010C000D1D984FD0BC062E070E080E0CBD983FF12
:1010D0000EC048E162E070E080E0F8D940E162E0F3
:1010E00070E080E0F3D98FEF8093420209C08091D5
:1010F00042028C1729F0813019F460E280E0F0D9C7
:1011000080914202CF9108951F93CF93DF93D62F02
:10111000172FC0914102882331F0C13051F018F0EF
:10112000C23001F127C081E080934102C13059F5FE
:1011300031C060E181E005DA8F3FE1F46FEF82E0DA
:1011400096E0E7D862E080E096E0E3D8612F84E0A3
:1011500096E0DFD86D2F85E096E0DBD882E08093C3
:10116000410215C061E081E0ECD98F3F19F4809312
:10117000410210C0809141028C1761F0813019F05A
:10118000823029F007C060E180E0DBD903C061E074
:1011900080E0D7D980914102DF91CF911F910895CE
:1011A000AB0110924F0610924E06BC0182E017CFA1
:1011B00008959B0160914E0670914F06AC0182E04C
:1011C000DEDA20914E0630914F06280F391F3093FA
:1011D0004F0620934E060895AF92BF92CF92DF92B2
:1011E000EF92FF920F931F93CF93DF931F921F9263
:1011F000CDB7DEB77A8369837A018901E981FA8103
:10120000F770C82ED12CD601AA0FBB1FAB58BB4F0D
:101210008D919C918E0F9F1F2E0F3F1F21303840C4
:10122000C8F020E038E05901AE1ABF0AA501B701A5
:101230000E94A000A8014A195B09B7016A0D7B1D35
:10124000F601EE0FFF1FEB58FB4F808191810E944A
:10125000A00004C0A801B7010E94A0000F900F9049
:10126000DF91CF911F910F91FF90EF90DF90CF9082
:10127000BF90AF900895DF92EF92FF920F931F936C
:10128000CF93DF93D82E7B018A0168E270E0EAD821
:10129000C82FD0E069E270E08D2DE4D8DC2FCC2798
:1012A000C82B9801A701BE018D2D96DFC00FD11F5D
:1012B0004D2F68E270E08D2D09D94C2F69E270E066
:1012C0008D2D04D9DF91CF911F910F91FF90EF9059
:1012D000DF900895DF92EF92FF920F931F93CF93C9
:1012E000DF93D82E0FEF1FEFE12CF12C8D2DD8D8E6
:1012F000EC01009719F08D2DD3D87C01EC16FD067A
:1013000029F0015011090115110581F7C701DF917D
:10131000CF911F910F91FF90EF90DF900895DF9292
:10132000EF92FF920F931F93CF93DF93D82E7B0101
:101330008A01D0DFEC01009791F463E070E08D2D1D
:1013400091D88431D9F08823C9F0C1E0D0E08C3144
:1013500011F4C0E0D0E0D195C195D10904C00817BF
:1013600019070CF4E8011C161D0644F4AE01B70180
:101370008D2D81DF60E48D2D0E94A201CE01DF91D1
:10138000CF911F910F91FF90EF90DF9008950F93F1
:101390001F93CF93DF931F92CDB7DEB7082F10E0D6
:1013A000F801EE0FFF1FE75CF94F20813181232BFD
:1013B000B1F041E050E0BE016F5F7F4FB0DF181623
:1013C000190684F4F801EE0FFF1FE75CF94F8081E6
:1013D0009181019791838083898190E005C08FEF8F
:1013E0009FEF02C08FEF9FEF0F90DF91CF911F9182
:1013F0000F910895DF92EF92FF920F931F93CF9377
:10140000DF93CDB7DEB728970FB6F894DEBF0FBED7
:10141000CDBFD82EE82EF12CF701EE0FFF1FE75CB1
:10142000F94F20813181232B41F08F018D2DAFDFCA
:10143000F80120813181232BC9F78D2D4BDF181640
:101440001906ACF548E050E0BE016F5F7F4F8D2D6F
:1014500066DF9C01181619063CF589818093740695
:101460008A81809375068B81809376068C81809328
:101470007706C701880F991FFC01E459F94F2D81A8
:1014800030E0322F22274E81240F311D31832083FB
:101490002F8130E0322F22274885240F311DFC0197
:1014A000E75CF94F31832083822F932F02C080E0C5
:1014B00090E028960FB6F894DEBF0FBECDBFDF9147
:1014C000CF911F910F91FF90EF90DF90089580E0F2
:1014D00091CF08954091390650913A064115510532
:1014E000D9F06417750728F0BC0180E018DF9C0173
:1014F00005C0AB01BC0180E012DF9C01121613068F
:1015000074F4E9E3F6E080819181821B930B91836F
:101510008083822F932F08958FEF9FEF08958FEF91
:101520009FEF089580E033CF0895CF92DF92EF923E
:10153000FF92F090380659D9EF2DF0E0EE0FFF1F23
:10154000EE0FFF1FE059FD4FC080D180E280F38095
:1015500054D980E090E0DC018C199D09AE09BF09E7
:10156000880F991FAA1FBB1F880F991FAA1FBB1F97
:101570008C199D09AE09BF09880F991FAA1FBB1FAF
:10158000BC01CD016058794687469F4FFF90EF9090
:10159000DF90CF9008958091490290914A02A091E6
:1015A0004B02B0914C020196A11DB11D80934902DE
:1015B00090934A02A0934B02B0934C0280E0A0C0EB
:1015C0000895CF93C0914002811103C01092400250
:1015D00006C0C13091F018F0C230F1F046C08091E1
:1015E0003F02811103C01ED980933F0281E08093A6
:1015F0004002C13009F03FC042C060E281E00E9479
:10160000A1028F3F91F568EE73E080913F0250D9BF
:1016100082E08093400233C062E070E082E00E948A
:10162000320284FD18C062E070E082E00E94320263
:1016300083FF07C048E162E070E082E00E9466023A
:1016400014C080913F02B9D9882379F0A4DF8FEFCD
:101650008093400214C040E162E070E082E00E94AA
:1016600066028FEF809340020AC0809140028C177F
:1016700031F0813021F460E280E00E94A10280918B
:101680004002CF910895BF92CF92DF92EF92FF92E6
:101690000F931F93CF93DF937B016A01E901B09011
:1016A0003E02882331F0BB2021F081E0B81639F0EA
:1016B0000DC081E080933E02B8120EC015C081E0DB
:1016C00080DF8F3F19F480933E020EC080913E026E
:1016D0008B1551F0813041F4B601C70161DDB801CD
:1016E000CE0167DD80E06DDF80913E02DF91CF911A
:1016F0001F910F91FF90EF90DF90CF90BF900895D2
:101700000F931F93CF93DF93C0913D02811103C0CC
:1017100010923D0208C0C130A1F028F0C23001F1A2
:10172000C43039F147C080913C02811103C07AD89E
:1017300080933C0281E080933D02C13009F044C0B7
:10174000D1C069EE77E081E0DFDC8F3F99F568EE8C
:1017500073E080913C02ACD882E080933D02C2C02D
:1017600080913C022AD9882329F184E080933D02AC
:1017700030C063E070E082E00E943202823219F0F1
:1017800010923D02AFC040911B0250911C020EE32B
:1017900010E023E334E06DE172E081E074DF8F3F1D
:1017A00049F468EE73E080913C0282D882E0809335
:1017B0003D0298C080913D028C1709F493C081309E
:1017C00019F0843031F08EC069EE77E080E09CDC67
:1017D00089C0C3E3D4E085E0888381E0809334044A
:1017E0009091190220911A022093350490933604A7
:1017F0008093370482E08093380483E18093390436
:1018000086E380933A0480917F0480933B04809127
:10181000800480933C048091810480933D048091F6
:10182000820480933E0487E580933F0485E38093A0
:10183000400481E38093410480E3809342048093D9
:10184000430480E28093440484E58093450495E456
:101850009093460493E590934704809348048EE464
:1018600094E090939F0480939E0480910D02909148
:101870000E0298A38F8F80911102909112029AA369
:1018800089A38091090290910A029CA38BA3809165
:101890001502909116029EA38DA38BE790E098A766
:1018A0008FA388E097E09AA789A788E998E09CA78A
:1018B0008BA780E694E0909332048093310435DE68
:1018C0006DA77EA78FA798AB8AE1809370044091A3
:1018D0001B0250911C020EE310E09E016DE172E0CC
:1018E00080E0D1DE80913D02DF91CF911F910F9179
:1018F00008958F929F92AF92BF92CF92DF92EF9214
:10190000FF920F931F93CF93DF93CDB7DEB7A497CA
:101910000FB6F894DEBF0FBECDBFE82ED62EC72E71
:101920006894FF24F5F88E010F5F1F4FF8018F2D8B
:1019300011928A95E9F78FEF89A38AA38BA38CA3D1
:1019400063E470E0CE01819682DB81E089838A8343
:1019500086E08B831C824091980450919904609199
:101960009A0470919B04872E9924AA24BB24B42F37
:10197000AA279927882788299929AA29BB29882451
:10198000942EA52EB62E88249924BB248829992923
:10199000AA29BB29452F562F672F7727442766276B
:1019A0007727482B592B6A2B7B2B4D835E836F83C4
:1019B0007887C986DA8680E890E09C878B876CE11F
:1019C00070E0C8014DDBF8018F2D11928A95E9F77F
:1019D00086E0E3E8F4E0D80101900D928A95E1F702
:1019E00060E170E0C8013CDBF8011192FA94E9F77C
:1019F00006E010E060E270E0CE01019631DB0150BC
:101A0000110901151105B1F783E6898392E89A83DC
:101A100093E59B838C8385E38D8381E08E83EF82C6
:101A20009DE3988797E099878A8786E0E3E8F4E06A
:101A3000DE011B9601900D928A95E1F78CE0898B6F
:101A40008A8B87E0E4E2F2E0DE01539601900D928A
:101A50008A95E1F760918604CE0149960E94DF03E2
:101A600060918704CE014B960E94DF036091880449
:101A7000CE014D960E94DF036EE170E0CE0101962B
:101A8000EFDAF3E0EF1224C082E3898384E08A83F3
:101A900090917F049B83909180049C83909181041A
:101AA0009D83909182049E8396E39F838887809193
:101AB00071048987809172048A87809173048B876F
:101AC000809174048C876CE070E0CE010196C8DAD6
:101AD00087E3898386E08A8391E09B8393E09C83FC
:101AE0008D838FE08E838AE38F838BE388878FEFEC
:101AF000898769E070E0CE010196B2DAA4960FB64C
:101B0000F894DEBF0FBECDBFDF91CF911F910F9133
:101B1000FF90EF90DF90CF90BF90AF909F908F900D
:101B200008950F931F93CF93DF93062FEA0110912F
:101B30003B02882329F0112319F0113039F00DC030
:101B400081E080933B02113071F412C081E09BDA96
:101B50008F3F19F480933B020BC090913B02911789
:101B600039F0913029F4BE01802FC3DE80E08BDA9A
:101B700080913B02DF91CF911F910F9108952F9299
:101B80003F924F925F927F928F929F92AF92BF92BD
:101B9000CF92DF92EF92FF920F931F93CF93DF9339
:101BA000CDB7DEB7A2970FB6F894DEBF0FBECDBF9C
:101BB0008A018DDC181619060CF0F6C162E270E09D
:101BC000CE01019687DC8BE292E090D989815DD9C4
:101BD000B4D98981823009F0E9C180916C06909175
:101BE0006D068334910509F0E3C18D819E81AF813B
:101BF000B885CB2EDD24EE24FF24782F66275527C9
:101C00004427C42AD52AE62AF72A4427582F692FC1
:101C10007A2F442755277727C42AD52AE62AF72A78
:101C2000892F9A2FAB2FBB278827AA27BB27C82A23
:101C3000D92AEA2AFB2AF801C082D182E282F38201
:101C400046E050E063E874E0CE014D96CBD4892B9A
:101C500009F0B0C180915B0690915C06A0915D0691
:101C6000B0915E06C816D906EA06FB0608F4A4C1C0
:101C70008091980490919904A0919A04B0919B044A
:101C80008C159D05AE05BF0508F498C189899A8910
:101C9000AB89BC8980937F0490938004A0938104D6
:101CA000B09382040EEC10E03DDC015011090115E7
:101CB0001105D1F7712C0F2EF9E3CF2EF6E0DF2EB0
:101CC000F02D812C912C0F2EF1E7AF2EF4E0BF2EDA
:101CD000F02D0F2EFCE64F2EF6E05F2EF02D0F2E8E
:101CE000F2E72F2EF4E03F2EF02D56C11BDC83339C
:101CF000910509F405C17CF48130910529F124F4A2
:101D0000892B09F449C13DC18330910521F1069722
:101D100009F439C036C18A33910509F47FC03CF417
:101D20008533910569F0C69709F445C02AC18B3304
:101D3000910509F4ACC08F3F910509F42DC121C173
:101D4000F1DBF0DB782E28C1EDDB64E070E088E6A3
:101D500096E0E8DB21C1E6DB7C0164E070E08DE821
:101D600094E0E0DBFF24F4E0EF1AF1081E141F04F6
:101D70000CF012C1082D192DD5DB0F5F1F4F0E156A
:101D80001F05D4F309C1CEDB7C0164E070E08CE771
:101D900096E0C8DBFF2484E0E81AF1081E141F0453
:101DA0000CF0FAC0082D192DBDDB0F5F1F4F0E156B
:101DB0001F05D4F3F1C0B6DBF501908191110EC07F
:101DC000F101908191110AC0E3E7F4E09081911153
:101DD00005C0E4E7F4E09081992399F0F5010081D2
:101DE000118122813381F2014081518162817381AD
:101DF000041715072607370721F0F82E811106C0B2
:101E0000CBC064E070E0C5018DDBC6C0082D192D84
:101E100089DB0F5F1F4FF012FBCFBEC083DB64E096
:101E200070E080EA94E07EDB8091A0049091A104B0
:101E3000A091A204B091A3040B2F112722273327CE
:101E4000782F662755274427042B152B262B372B55
:101E50004427582F692F7A2F442755277727042B9B
:101E6000152B262B372B492F5A2F6B2F77274427DB
:101E700066277727402B512B622B732B4093A004AE
:101E80005093A1046093A2047093A30485C04ADB1D
:101E900064E070E081E496E045DB8091410690913A
:101EA0004206A0914306B09144060B2F112722272A
:101EB0003327782F662755274427042B152B262BED
:101EC000372B4427582F692F7A2F442755277727F8
:101ED000042B152B262B372B492F5A2F6B2F7727A7
:101EE000442766277727402B512B622B732B409377
:101EF00041065093420660934306709344064CC0DB
:101F000011DB64E070E081E994E00CDB80919104E6
:101F100090919204A0919304B09194040B2F1127F7
:101F200022273327782F662755274427042B152B84
:101F3000262B372B4427582F692F7A2F44275527D4
:101F40007727042B152B262B372B492F5A2F6B2F36
:101F50007727442766277727402B512B622B732B3B
:101F6000409391045093920460939304709394046B
:101F70004093810650938206609383067093840693
:101F80000BC0D0DAF82E882339F0082D192DCADAC3
:101F90000F5F1F4FF012FBCFF60180819181892BDB
:101FA00009F0A4CE872D0BC08FEF09C080E007C0D9
:101FB00080E005C080E003C080E001C080E0A29620
:101FC0000FB6F894DEBF0FBECDBFDF91CF911F914A
:101FD0000F91FF90EF90DF90CF90BF90AF909F90C8
:101FE0008F907F905F904F903F902F900895CF9269
:101FF000DF92EF92FF926B017C0161157105810503
:10200000910529F0E3D2A701960135D203C060E023
:1020100070E0CB01FF90EF90DF90CF900895CF93C9
:10202000C0913A02811110C08091480281111EC0F6
:10203000809121028093480292E0980F90932102B0
:102040008F5F8093470212C0C530C9F130F4C130B0
:1020500099F060F0C330E1F0D9C0C73009F475C021
:1020600008F45CC0CF3F09F4C7C0D0C081E08093C2
:102070003A028C13D9C02BC164E470E081E00E9465
:10208000A3078F3F09F0C2C083E080933A0214C1D6
:102090004AE050E061E081E044DD8F3F09F0B6C0E6
:1020A00081E08093800648EE53E060E070E080912C
:1020B00048020E94950485E080933A0208C160912D
:1020C000890470918A0480918B0490918C0448E774
:1020D00056E055DD8230A1F4809178069091790622
:1020E000A0917A06B0917B0680939804909399040E
:1020F000A0939A04B0939B0486E080933A02E2C0D6
:10210000809148020E940405882321F081E0809399
:102110003A028AC085E080933A02D9C044E650E092
:1021200063E081E0FEDC8F3F09F070C082E08093C5
:10213000800644EF51E060E070E0809148020E9428
:10214000950487E080933A02C2C06091890470913F
:102150008A0480918B0490918C0448E756E00FDD4F
:102160008530B1F52091820430E04091810450E047
:102170006091800470E080917F0490E00E94E10112
:102180002091900430E040918F0450E060918E04E3
:1021900070E080918D0490E00E94FC0120916B061C
:1021A00030E040916A0650E06091690670E08091ED
:1021B000680690E00E94170240E355E760E070E097
:1021C000809147020E9495048FEF80933A027FC06E
:1021D000863021F483E080933A026EC080914802F9
:1021E0000E940405882321F081E080933A021CC0FC
:1021F00087E080933A026BC0809147020E940405F9
:10220000882321F081E080933A020EC080913A0247
:102210008C1709F45CC0833009F44EC0863009F491
:1022200051C0813009F053C06FEC77E080E090E05E
:10223000DEDEDC01CB010196A11DB11D8093980467
:1022400090939904A0939A04B0939B0480935B06A7
:1022500090935C06A0935D06B0935E0610927F0497
:1022600010928004109281041092820410926806E9
:102270001092690610926A0610926B0610928D04F5
:1022800010928E0410928F04109290041092710498
:1022900010927204109273041092740410927C06CF
:1022A00010927D0610927E0610927F0664E470E024
:1022B00080E00E94A3070BC04AE050E061E080E0AC
:1022C00030DC05C04AE050E063E080E02ADC809129
:1022D0003A02CF910895EF92FF920F931F93CF93FD
:1022E000C0913902882339F0C13049F020F0C23062
:1022F00009F447C04AC081E08093390250C0689415
:10230000EE24E1F8F12C0EED10E02CEC30E04BEB7C
:1023100050E06AEA70E080E090E00E94BA0110921A
:1023200083048AEA809384048BEB809385048CEC8D
:10233000809386048EED8093870482E080938804E6
:102340008091080281110FC02091070230E0409176
:10235000060250E06091050270E08091040290E076
:102360000E94E1010AC020E030E040E050E060E07F
:1023700070E080E090E00E94E10182E08093390209
:102380000AC081E04CDE81E0BBD9809139028C1714
:1023900031F0823021F480E042DE80E0B1D98091DA
:1023A0003902CF911F910F91FF90EF900895809186
:1023B0004B060E94DD04882391F064E670E0809172
:1023C0004B060E94580480913802811105C02F9A53
:1023D00081E08093380208952F9810923802089572
:1023E000279A9B9A8CB580658CBD1DBC219A229A38
:1023F0002398209A289A0E9431050E9419048093FC
:10240000380640E452E46FE070E00E9495040E94B8
:10241000BF050C94C20608950E94BF050C94A50642
:102420000895DEDF0E94A5060E94F9000E94A5061D
:1024300080E051DF2FEF81EE94E02150804090400A
:10244000E1F700C00000E8DFB2DF81E044DFF2CF57
:1024500097FB072E16F4009406D077FD08D036D0EF
:1024600007FC05D03EF4909581959F4F0895709597
:1024700061957F4F0895052E97FB16F400940FD0B9
:1024800057FD05D037D007FC02D046F408C0509560
:102490004095309521953F4F4F4F5F4F0895909550
:1024A0008095709561957F4F8F4F9F4F0895A29FA4
:1024B000B001B39FC001A39F700D811D1124911D18
:1024C000B29F700D811D1124911D0895AA1BBB1B85
:1024D00051E107C0AA1FBB1FA617B70710F0A61B24
:1024E000B70B881F991F5A95A9F780959095BC0145
:1024F000CD010895A1E21A2EAA1BBB1BFD010DC040
:10250000AA1FBB1FEE1FFF1FA217B307E407F507A3
:1025100020F0A21BB30BE40BF50B661F771F881F7F
:10252000991F1A9469F760957095809590959B0115
:10253000AC01BD01CF0108958F929F92AF92BF92DF
:10254000CF92DF92EF92FF92CF93DF93EC016881FD
:1025500079818A819B81611571058105910521F43D
:1025600064E279ED8BE597E02DE133EF41E050E057
:1025700082DF49015A019B01AC01A7EAB1E43FD0D7
:102580006B017C01ACEEB4EFA501940144D0C60E02
:10259000D71EE81EF91EF7FE06C081E0C81AD10852
:1025A000E10880E8F80AC882D982EA82FB82C70182
:1025B000B6019F77DF91CF91FF90EF90DF90CF90A2
:1025C000BF90AF909F908F900895B6CF80E092E03B
:1025D000B3CF609300027093010280930202909344
:1025E00003020895FB01DC0104C08D910190801964
:1025F00021F441505040C8F7881B990B089557DFCC
:10260000A59F900DB49F900DA49F800D911D112446
:102610000895B7FFF4CFF3DF821B930B0895F8946E
:02262000FFCFEA
:10262200010000000A00004C01C8000000DE0000AA
:10263200006A000000CC00000054C3EA07C2B06187
:102642007620103057495A6E6574004D45535341F8
:082652004745204F503A0000FB
:00000001FF
