:10000000D8C10000F7C10000F5C10000F3C1000035
:10001000F1C10000EFC10000EDC10000EBC1000024
:10002000E9C10000E7C10000E5C10000E3C1000034
:10003000E1C100000C942B0BDDC10000DBC100000E
:10004000D9C100000C940D09D5C10000D3C1000036
:10005000D1C100000C94F90ACDC10000CBC1000051
:10006000C9C100000C946E170C94C1170C9498171A
:10007000C1C10000BFC10000BDC10000BBC1000084
:10008000B9C10000B7C10000B5C10000B3C1000094
:100090000C94EA170C943D180C941418ABC1000092
:1000A000A9C10000A7C100000C945F0BA3C1000010
:1000B000A1C100009FC100009DC100009BC10000C4
:1000C00099C1000097C1000095C100006A0F6A0F36
:1000D0003A103A102F12CE102F122F122F122F1269
:1000E0002F122F122F122F121611BE11A213A213AC
:1000F000581458145915DC14591559155915591512
:10010000591559155915591524152415B72CC32CF3
:10011000022D112D1C2D202D322D642D772D872D94
:10012000AA2DAA2DAA2D9F2DAA2DA42D00C0C10154
:10013000C30302C2C60607C705C5C404CC0C0DCD57
:100140000FCFCE0E0ACACB0BC90908C8D81819D9C7
:100150001BDBDA1A1EDEDF1FDD1D1CDC14D4D515F7
:10016000D71716D6D21213D311D1D010F03031F1E7
:1001700033F3F23236F6F737F53534F43CFCFD3D17
:10018000FF3F3EFEFA3A3BFB39F9F83828E8E92907
:10019000EB2B2AEAEE2E2FEF2DEDEC2CE42425E5B7
:1001A00027E7E62622E2E323E12120E0A06061A127
:1001B00063A3A26266A6A767A56564A46CACAD6DD7
:1001C000AF6F6EAEAA6A6BAB69A9A86878B8B97947
:1001D000BB7B7ABABE7E7FBF7DBDBC7CB47475B577
:1001E00077B7B67672B2B373B17170B05090915167
:1001F0009353529296565797559594549C5C5D9D97
:100200005F9F9E5E5A9A9B5B995958988848498986
:100210004B8B8A4A4E8E8F4F8D4D4C8C4484854536
:1002200087474686824243834181804000C18140A6
:1002300001C0804101C0804100C1814001C08041B6
:1002400000C1814000C1814001C0804101C08041A6
:1002500000C1814000C1814001C0804100C1814096
:1002600001C0804101C0804100C1814001C0804186
:1002700000C1814000C1814001C0804100C1814076
:1002800001C0804101C0804100C1814000C1814066
:1002900001C0804101C0804100C1814001C0804156
:1002A00000C1814000C1814001C0804101C0804146
:1002B00000C1814000C1814001C0804100C1814036
:1002C00001C0804101C0804100C1814000C1814026
:1002D00001C0804101C0804100C1814001C0804116
:1002E00000C1814000C1814001C0804100C1814006
:1002F00001C0804101C0804100C1814001C08041F6
:1003000000C1814000C1814001C0804101C08041E5
:1003100000C1814000C1814001C0804100C18140D5
:1003200001C0804101C0804100C181402F03020112
:1003300045030202370302020000080000000F0814
:10034000000800000004090008000000100100047B
:10035000000000460047000602B200B3001002A4ED
:1003600000A8001C02C600C000C100C200C500C435
:1003700000FE010302040205024203FFA001FBCFBD
:10038000007D67003F44002A33001F22001B190034
:100390001B10001B6A0B0800FA1008000B11040068
:1003A000A80C0800016364696E6F70737578585B00
:1003B000000011241FBECFEFD1E2DEBFCDBF00E0B1
:1003C0000CBF16E0A0E0B2E0E0EBF9E700E00BBF05
:1003D00002C007900D92AC3AB107D9F722E1ACEA1E
:1003E000B6E001C01D92A932B207E1F70E94EC37D6
:1003F0000C94D63C05CEFC018081089592B184E036
:10040000892782B9089508950895089582E084BDEA
:1004100085EF85BDEEE6F0E08081826080830895FF
:1004200082E08093B00087EF8093B100E0E7F0E0D6
:1004300080818260808308951092A0008DE0809377
:10044000A100E2E7F0E080818260808308950C944F
:10045000353C0895282F30E0F901EE0FFF1FE20F21
:10046000F31FE45DFC4F25913491E82FF0E0E45256
:10047000F64F8081A90164E0869F400D511D112433
:10048000CA010895282F30E044E1849FF00111242F
:10049000E959FC4FA591B4919C91F901E85CF54FA5
:1004A000408151E0540F508354E1529FF001539F1B
:1004B000F00D1124EB59FC4FA591B4915C91F22FF2
:1004C000EE27E40FF11DEA5EFE4E508393FF0FC04E
:1004D000F901E295F295F07FFE27E07FFE27EA51D1
:1004E000FF4E268537852F5F3F4F378726879C71C4
:1004F00071F021E030E0A90102C0440F551F8A9538
:10050000E2F7CA019091E006892B8093E0060895F6
:100510000F931F93CF93DF93C82FD0E0FE01E251DA
:10052000F64F9081923009F1FE01E295F295F07F4D
:10053000FE27E07FFE27E456FC4F059114918ADFE9
:100540000196FC0185919491CF51D64F2881FC01F1
:1005500037E0239FE00DF11D11243596859194918C
:10056000880F991F800F911F0AC0CC0FDD1FCC0F81
:10057000DD1FCC0FDD1FC852D94F8E819F81DF91C7
:10058000CF911F910F910895E3E5F3E02591349108
:100590008217930799F060E06F5F262F30E0F90132
:1005A000EE0FFF1FE20FF31FEE0FFF1FED5AFC4F80
:1005B000459154918417950779F703C020E030E006
:1005C00060E0E62FF0E0EC55FC4FE491EE2319F0EB
:1005D000E13079F10895F22FEE27EA5EFE4E908128
:1005E000F901E753F64F808198130FC04091D51061
:1005F00081E090E0BC0102C0660F771F2A95E2F708
:100600009B01242B2093D5100895F901E953F74F4E
:1006100081E08083F901E295F295F07FFE27E07F8B
:10062000FE27EA51FF4E808191810196918380835C
:1006300008954091D51081E090E0BC0102C0660FA2
:10064000771F2A95E2F79B01242B2093D51008955C
:100650008EBD00000DB407FEFDCF8EB50895CF937B
:10066000DF93C82FD92F28988FE0F2DF8D2FF0DF8E
:100670008C2FEEDF80E0ECDF289ADF91CF91089598
:10068000CF92DF92EF92FF920F931F93CF93DF935E
:10069000EC016A0141155105B1F0062F172F7C01BD
:1006A000E40EF51E28988FE0D3DF8D2FD1DF8C2F3D
:1006B000CFDF219680E0CCDFF80181938F01289A6B
:1006C000CE15DF0579F7C601DF91CF911F910F910C
:1006D000FF90EF90DF90CF900895CF92DF92EF924E
:1006E000FF920F931F93CF93DF93EC016A014115A3
:1006F0005105A9F0062F172F7C01E40EF51E28984E
:1007000080EFA6DF8D2FA4DF8C2FA2DF2196F801CA
:1007100081918F019DDF289ACE15DF0581F7C601F3
:10072000DF91CF911F910F91FF90EF90DF90CF90CD
:100730000895259A2D9A2D982FEF83EC99E021505A
:1007400080409040E1F700C000006C9A74982FEF51
:1007500083EC99E0215080409040E1F700C0000018
:100760006C982FEF83EC99E0215080409040E1F7A6
:1007700000C0000080E090E49093C80C8093C70C08
:1007800080E090E69093BB098093BA0980E098E4FA
:100790009093CA0C8093C90C80E098E69093BD09B1
:1007A0008093BC0980E090E59093CC0C8093CB0CB7
:1007B00080E090E79093BF098093BE0980E098E5C0
:1007C0009093CE0C8093CD0C80E098E79093C10974
:1007D0008093C00960E880E090E009D065E58BE196
:1007E00090E005D065E58AE190E001C008951F938F
:1007F000CF93DF93D82F192FC62F289880EF28DFAB
:10080000812F26DF8D2F24DF8C2F22DF833011F004
:10081000289A8FDF289A81E0DF91CF911F91089568
:10082000EF920F931F93CF93DF93162FD42FC22FE6
:10083000682F89E090E0DBDF612F8AE090E0D7DF6E
:100840006D2F8BE090E0D3DF6C2F8CE090E0CFDF5A
:10085000602F8DE090E0CBDF6E2D8EE090E0C7DF63
:1008600081E0DF91CF911F910F91EF9008951F9339
:10087000CF93DF93162FD42FC22F682F8FE090E0F5
:10088000B6DF612F80E190E0B2DF6D2F81E190E073
:10089000AEDF6C2F82E190E0AADF81E0DF91CF91A3
:1008A0001F9108951F93CF93DF93162FD42FC22F3C
:1008B000682F81E090E09BDF612F82E090E097DF7E
:1008C0006D2F83E090E093DF6C2F84E090E08FDF6A
:1008D00081E0DF91CF911F9108951F93CF93DF9314
:1008E000162FD42FC22F682F85E090E080DF612F74
:1008F00086E090E07CDF6D2F87E090E078DF6C2F62
:1009000088E090E074DF81E0DF91CF911F9108953E
:1009100090E00496982F8827860F971FA0CE089501
:100920001F93CF93DF93182F60E270E0F1DFC82FA1
:10093000D0E061E270E0812FEBDFDC2FCC279E015D
:10094000282BC901DF91CF911F9108951F93CF9359
:10095000DF93182F66E270E0DBDFC82FD0E067E29C
:1009600070E0812FD5DFDC2FCC279E01282BC90119
:10097000DF91CF911F9108959B0190E00496982FED
:100980008827642F820F931F32CF0895882341F068
:100990008091C506813041F018F08230C1F024C04A
:1009A00081E08093C50620C0462F61E070E080E0C2
:1009B000E3DF61E070E080E0ABDF882321F082E0DC
:1009C0008093C50611C08FEF8093C5060DC061E00E
:1009D00070E080E09DDF882321F082E08093C506EF
:1009E00003C08FEF8093C5068091C50608958823C4
:1009F00041F08091C406813041F018F08230C1F09E
:100A000024C081E08093C40620C0462F61E070E0DE
:100A100081E0B2DF61E070E081E07ADF882321F0DD
:100A200082E08093C40611C08FEF8093C4060DC08E
:100A300061E070E081E06CDF882321F082E0809348
:100A4000C40603C08FEF8093C4068091C406089546
:100A5000882341F08091C306813041F018F0823044
:100A6000C1F024C081E08093C30620C0462F61E01E
:100A700070E082E081DF61E070E082E049DF88239E
:100A800021F082E08093C30611C08FEF8093C306EC
:100A90000DC061E070E082E03BDF882321F082E05E
:100AA0008093C30603C08FEF8093C3068091C30673
:100AB0000895CF93C82F692F80E194E098DE6C2FC2
:100AC00081E194E094DECF910895CF93DF93EC0120
:100AD00068818CE094E08BDE69818DE094E087DEB4
:100AE0006A818EE094E083DE6B818FE094E07FDEAC
:100AF000DF91CF910895CF93C82F692F80E195E0C2
:100B000076DE6C2F81E195E072DECF910895CF9370
:100B1000DF93EC0168818CE095E069DE69818DE00E
:100B200095E065DE6A818EE095E061DE6B818FE0A5
:100B300095E05DDEDF91CF910895CF93C82F692FA7
:100B400080E196E054DE6C2F81E196E050DECF919B
:100B50000895CF93DF93EC0168818CE096E047DE47
:100B600069818DE096E043DE6A818EE096E03FDEAB
:100B70006B818FE096E03BDEDF91CF9108959F92ED
:100B8000AF92BF92CF92DF92EF92FF920F931F939B
:100B9000CF93DF93982E5B017A01E90164E270E064
:100BA000B7DEC82ED12C65E270E0892DB1DE1C2D98
:100BB0000027082B0A0D1B1D98013770C92CD12C5A
:100BC000F601EE0FFF1FE953F34F80819181820FF1
:100BD000931FA9014C0F5D1F41305840B8F040E011
:100BE00058E05A01A21AB30AA501B70176DDAE0199
:100BF0004A195B09B7016A0D7B1DF601EE0FFF1F55
:100C0000E953F34F8081918168DD03C0AE01B701E4
:100C100064DDC00FD11F4D2F64E270E0892DACDE82
:100C20004C2F65E270E0892DA7DEDF91CF911F91F7
:100C30000F91FF90EF90DF90CF90BF90AF909F907B
:100C40000895DF92EF92FF920F931F93CF93DF935C
:100C5000D82E09E919E1E12CF12C8D2D61DEEC0192
:100C6000009719F08D2D5CDE7C01EC16FD0629F055
:100C7000015011090115110581F7C701DF91CF91CD
:100C80001F910F91FF90EF90DF900895DF92EF9208
:100C9000FF920F931F93CF93DF93D82E8B017A018E
:100CA000E901CFDF8C179D0718F48D2DCADFEC0109
:100CB0009E01A701B8018D2D62DFCE01DF91CF919A
:100CC0001F910F91FF90EF90DF90089520E3FC01BA
:100CD00020833296862F82958F7090E1899F6019CC
:100CE00011246A3010F4605D01C0695C629388234E
:100CF00011F0682FEFCF08958FB780788093C408E4
:100D0000F8948091C40808958091C408882309F05C
:100D100078948091C4080895A8952FE088E190E028
:100D20000FB6F894A895809360000FBE20936000E2
:100D300008958091720391E0980F90937203089543
:100D4000CF93DF93C82FD62FD7DFEC2FF0E0EC59ED
:100D5000F74FD083DD23A9F0EC2FE695E695E695D5
:100D6000F0E0EA50F94F4081C77021E030E0C9015E
:100D700002C0880F991FCA95E2F78095842380836B
:100D800013C0EC2FE695E695E695F0E0EA50F94FB2
:100D90004081C77021E030E0C90102C0880F991F6F
:100DA000CA95E2F7842B8083AFDFDF91CF9108955E
:100DB0001F93CF93DF93182FEB019EDFE12FF0E01D
:100DC000EE0FFF1FEC55F84FD183C083CD2BA9F058
:100DD000E12FE695E695E695F0E0E751F94F408181
:100DE000177021E030E0C90102C0880F991F1A95E1
:100DF000E2F780958423808313C0E12FE695E69582
:100E0000E695F0E0E751F94F4081177021E030E0BE
:100E1000C90102C0880F991F1A95E2F7842B8083BD
:100E200073DFDF91CF911F910895282F30E0F901F2
:100E3000EE0FFF1FEE0FFF1FEE52F94F10821182CF
:100E400012821382F901E754F64F608194E6699F9C
:100E5000B00111249091D1069F5F890FA9CF089509
:100E60002F923F924F925F926F927F928F929F92BA
:100E7000AF92BF92CF92DF92EF92FF920F931F93A8
:100E8000CF93DF93382E90E0FC01EE0FFF1F8E0F03
:100E90009F1FFC01E25DFC4F4490512CB12C032DAF
:100EA00010E0E801C452D64FC801880F991F9C0179
:100EB0002959344F3901FC01EF5FF54F6F01C8012B
:100EC000880F991F880F991F9C012E52394F490195
:100ED000780188818F5F8883841123C018822090D5
:100EE000D10623942394230C07DFE22DF0E0EE0FCC
:100EF000FF1FEC55F84FA080B18006DFA094B0949E
:100F0000F301B182A082F601808191818A159B054F
:100F100010F4B182A0826FEF7FEF822D49DFBB24F6
:100F2000B394F40180819181A281B381088004C0CF
:100F3000B695A795979587950A94D2F780FF03C039
:100F40005394541428F2541012C0832D6EDFF7010D
:100F5000E452F64F80818F5F581629F0F701E45272
:100F6000F64F808304C0F701E452F64F1082F70178
:100F7000EF51F64F10828B2DDF91CF911F910F9182
:100F8000FF90EF90DF90CF90BF90AF909F908F90A9
:100F90007F906F905F904F903F902F9008950F93A8
:100FA0001F93CF93DF93E82FF0E0DF01A251B64FFC
:100FB0009C91923021F4FD01108280E058C0DF0145
:100FC000A295B295B07FBA27A07FBA27AA51BF4E8B
:100FD00018962D913C9119972F5F3F4F19963C938E
:100FE0002E931897DF01AA52B94F9C919F5F9C9353
:100FF000DF01AD5CB54F2C91921338C0DF01A452D4
:10100000B64F41E050E060E070E00C9004C0440F47
:10101000551F661F771F0A94D2F7DF01AA0FBB1F67
:10102000AA0FBB1FED01CA52DF4E088119812A8128
:101030003B81042B152B262B372B088319832A83FE
:101040003B83AE52B94F0D911D912D913C91139759
:10105000402B512B622B732B4D935D936D937C939F
:101060001397EA52F94F1082FBDE01C080E0DF9156
:10107000CF911F910F910895CF92DF92EF92FF923F
:10108000CF93C82F6A017B0137DEEC2FF0E0EE0F23
:10109000FF1FEE0FFF1FEC5FF84FC082D182E2828C
:1010A000F382CD28CE28CF28A9F0EC2FE695E6953F
:1010B000E695F0E0ED51F94F4081C77021E030E056
:1010C000C90102C0880F991FCA95E2F78095842351
:1010D000808313C0EC2FE695E695E695F0E0ED51A0
:1010E000F94F4081C77021E030E0C90102C0880F8C
:1010F000991FCA95E2F7842B808306DECF91FF907B
:10110000EF90DF90CF900895CF93C82FF5DDEC2FAF
:10111000E695E695E695F0E0E751F94F208130E05D
:101120008C2F877002C0359527958A95E2F720FFAE
:101130000DC0EC2FF0E0EE0FFF1FEC55F84F2081B3
:101140003181C1E0232B19F0C0E001C0C0E0DCDD3B
:101150008C2FCF910895CF93C82FCEDDEC2FE6953D
:10116000E695E695F0E0ED51F94F208130E08C2FC7
:10117000877002C0359527958A95E2F720FF13C046
:10118000EC2FF0E0EE0FFF1FEE0FFF1FEC5FF84FAC
:101190004081518162817381C1E0452B462B472BF1
:1011A00019F0C0E001C0C0E0AFDD8C2FCF910895F1
:1011B000B3DD109280008AEE8093810080E29EE48D
:1011C0009093890080938800EFE6F0E08081826050
:1011D000808380E090E02FEFFC01EA50F94F2083FC
:1011E00001968C309105C1F780E090E02FEFFC0173
:1011F000E751F94F208301968D309105C1F78FEFAC
:101200008093E3068093E4068093E5068093E606E8
:101210008093E7068093E80608951F920F920FB619
:101220000F9211240BB60F922F933F934F935F931E
:101230006F937F938F939F93AF93BF93EF93FF939E
:101240008091E1068F5F8093E10680E090E061E0AD
:1012500070E0282F26952695269530E0F901EE5F5F
:10126000F84F4081A82FA77050E00A2E02C0559574
:1012700047950A94E2F740FD14C0FC01E454F74F8F
:1012800040814150408341110CC0F901EE5FF84F9D
:1012900040819B0102C0220F331FAA95E2F7242B45
:1012A0002083019688309105A1F68091C606909121
:1012B000C706A091C806B091C9060196A11DB11D2F
:1012C0008093C6069093C706A093C806B093C9063C
:1012D000FF91EF91BF91AF919F918F917F916F910E
:1012E0005F914F913F912F910F900BBE0F900FBECA
:1012F0000F901F901895FF920F931F93CF93DF933A
:10130000F894F090E1061092E1067894FF2009F439
:10131000D2C010E040E050E021E030E080916D0B61
:1013200090916E0BA0916F0BB091700B0196A11D67
:10133000B11D80936D0B90936E0BA0936F0BB093C8
:10134000700BCA01F894682F66956695669570E0F3
:10135000FB01EA50F94FE081A82FA770F0E00A2EB8
:1013600002C0F595E7950A94E2F7E0FD14C0FC0190
:10137000EC59F74FB081B150B083B1110CC0FB01F3
:10138000EA50F94FB081B90102C0660F771FAA95E4
:10139000E2F76B2B6083789401968835910591F67E
:1013A000CA01F894682F66956695669570E0FB0112
:1013B000E751F94FE081C82FC770F0E00C2E02C052
:1013C000F595E7950A94E2F7E0FD1AC0DC01AA0F53
:1013D000BB1FAC55B84FED91FC9111973197119609
:1013E000FC93EE93EF2B61F4FB01E751F94FA081E1
:1013F000B90102C0660F771FCA95E2F76A2B6083B6
:10140000789401968036910561F6BA01F894E62F3A
:10141000E695E695E695F0E0DF01AD51B94F8C9188
:10142000062F077090E0002E02C0959587950A94CC
:10143000E2F780FD21C0EB01CC0FDD1FCC0FDD1FDB
:10144000CC5FD84F88819981AA81BB810197A1097E
:10145000B10988839983AA83BB83892B8A2B8B2B21
:1014600059F4ED51F94FA081C90102C0880F991FAD
:101470000A95E2F78A2B808378946F5F7F4F6832FA
:10148000710521F68091C2068F5F843619F0809332
:10149000C2060EC01092C2068091630B9091640B3D
:1014A0009093730B8093720B5093640B4093630B78
:1014B0001F5F1F1133CFDF91CF911F910F91FF90CD
:1014C0000895A8958091630B9091640B0196909379
:1014D000640B8093630B8091E206E82FF0E0EC59F7
:1014E000F74F908190959093390A2091F009291730
:1014F00010F49093F0096FEF23CC08954F925F9210
:101500006F927F92AF92BF92CF92DF92EF92FF9253
:101510000F931F93CF93DF93EC015B0129013A01F5
:101520002115310541055105F1F0C12CD12C760171
:10153000C5018C0D9D1DFE0119958027282F30E0D7
:10154000F901E45DFD4F04910127F901E45DFE4FCF
:101550001491FFEFCF1ADF0AEF0AFF0AC414D50473
:10156000E604F70429F7802F90E0912BDF91CF91CB
:101570001F910F91FF90EF90DF90CF90BF90AF90B1
:101580007F906F905F904F9008950F931F930FEF90
:101590001FEFB4DF1F910F9108950F931F932CE05D
:1015A00030E040E050E060E070E087E292E0EDDFA4
:1015B0002BEF3FE02C50304040E050E08C0161E1E7
:1015C00070E087E292E09ADF1F910F910895809179
:1015D000C60C81FD06C0E1DFBC018EE090E00C94FA
:1015E000503C08950E94423CF2CF08950A9A129806
:1015F00008951F920F920FB60F9211240BB60F92FF
:101600002F933F934F935F936F937F938F939F930A
:10161000AF93BF93EF93FF9385B5887F85BDEEE6CB
:10162000F0E080818D7F808386E490E00E94C40298
:10163000FF91EF91BF91AF919F918F917F916F91AA
:101640005F914F913F912F910F900BBE0F900FBE66
:101650000F901F9018951F920F920FB60F921124A2
:101660000BB60F922F933F934F935F936F937F939C
:101670008F939F93AF93BF93EF93FF93E1EBF0E0D2
:101680008081887F8083E0E7F0E080818D7F8083A8
:1016900082EB90E00E94C402FF91EF91BF91AF9165
:1016A0009F918F917F916F915F914F913F912F917A
:1016B0000F900BBE0F900FBE0F901F9018951F92AA
:1016C0000F920FB60F9211240BB60F922F933F93E8
:1016D0004F935F936F937F938F939F93AF93BF933A
:1016E000EF93FF93E1EAF0E08081887F8083E2E777
:1016F000F0E080818D7F808384EA90E00E94C402C4
:10170000FF91EF91BF91AF919F918F917F916F91D9
:101710005F914F913F912F910F900BBE0F900FBE95
:101720000F901F901895FF920F931F93CF93DF9305
:10173000C82FD0E08E01000F111F0C0F1D1FC80114
:101740008B5F9F4F0E94353CF82E0A5F1F4FC801E8
:101750000E94353CF11004C0813039F09EE808C089
:1017600091E0F91621F096EB03C096E801C096EAE5
:1017700024E12C9FF0012D9FF00D1124E559FC4F21
:10178000A591B4919F779C93FF2029F0813019F0A7
:1017900061E0C80127DFDF91CF911F910F91FF908A
:1017A0000895CF93DF93C82FD0E0CE01880F991F03
:1017B0008C0F9D1F895F9F4F0E94353CFE01EF58A3
:1017C000F44F808390E09C01220F331F820F931F00
:1017D00087589C4F24E12C9FF0012D9FF00D112480
:1017E000E159FC4FA591B491FC0124912C9324E183
:1017F0002C9FF0012D9FF00D1124E359FC4FA59172
:10180000B491FC013196E491EC93FE01EE0FFF1FC1
:10181000CE0FDF1FFE01EE0FFF1FEB5AFC4FA5910D
:10182000B491FC01329684918C93DF91CF9108950D
:10183000CF93DF93C82FD0E0FE01E953F74F83E049
:10184000808384E18C9FF0018D9FF00D1124EF586F
:10185000FC4F85919491FC01199584E18C9FF001D6
:101860008D9FF00D1124EB59FC4FA591B491FC2FE5
:10187000EE27EA5EFE4E80818C9384E18C9FF0011E
:101880008D9FF00D1124E959FC4FA591B4918C91D5
:1018900080648C9384E18C9FF0018D9FF00D112466
:1018A000E759FC4FA591B4918C9180628C93DF91A4
:1018B000CF910895CF93DF93E5E6F3E0259134913E
:1018C0008217930791F040E054E14F5FC42FD0E0BE
:1018D0005C9FF0015D9FF00D1124EB59FC4F2591A9
:1018E00034918217930789F703C0C0E0D0E040E04D
:1018F000FE01E953F74F2081223009F449C028F452
:10190000222339F02130D1F056C0263008F451C0DE
:1019100052C0FC018081FC2FEE27EA5EFE4E8083E0
:10192000FE01EE0FFF1FCE0FDF1FFE01EE0FFF1FA8
:10193000ED5AFC4FA591B4911C923DC0FE01E953B4
:10194000F74F82E0808321E030E00C2E02C0220FAE
:10195000331F0A94E2F720958091E0062823209314
:10196000E006FE01E85CF54F1082842F0E944202DF
:10197000CE01880F991FC80FD91FCE01880F991F5C
:10198000895A9C4FFC0125913491F901199513C096
:10199000842F0E944202FE01EE0FFF1FCE0FDF1FB9
:1019A000FE01EE0FFF1FED5AFC4FA591B4911C9262
:1019B00002C0FC018081DF91CF910895EF92FF92E8
:1019C0001F93CF93DF93C82FD0E0FE01E85CF54F63
:1019D00020814091E00650E0BA0102C075956795FC
:1019E0008A95E2F760FD1AC02330D0F022507C2F98
:1019F00066276A5E7E4EFB01E20FF11DE080F180FA
:101A000030E040E050E08BEF91E0BFDD11E0E81600
:101A1000F90609F410E01123F9F003C011E001C048
:101A200011E0FE01E295F295F07FFE27E07FFE27B0
:101A3000EA51FF4E8281938101969383828384E1F0
:101A40008C9FF0018D9FF00D1124EB58FC4F859178
:101A50009491FC0119951BC0FE01E295F295F07F6F
:101A6000FE27E07FFE27EA51FF4E208131812F5F64
:101A70003F4F3183208384E18C9FF0018D9FF00DD7
:101A80001124E958FC4F25913491F9011995812FC2
:101A9000DF91CF911F91FF90EF900895CF93DF9347
:101AA000682F70E0FB01E85CF54F20812250762F13
:101AB00066276A5E7E4EEB01C20FD11D30E040E02A
:101AC00050E08BEF91E061DD99838883DF91CF91C6
:101AD0000895282F30E070E0322F2227F901EA5EC6
:101AE000FE4EE60FF71F8181620F731FFB01EA5E56
:101AF000FE4E208190E0922B0895CF92DF92EF92DC
:101B0000FF920F931F93CF93DF93F82EC82FD0E04F
:101B1000FC2FEE27EA5EFE4E8181863081F020F4B4
:101B20008150843038F0E7C08F30D9F0803109F42B
:101B3000B3C0E1C0C85CD54F88E08883DCC0FE013B
:101B4000E85CF54F88E080838F2D0E948802DC2FAF
:101B5000CC27CA5EDE4EFC0121812C8380818D83DF
:101B6000CAC064E08F2DB5DF8C0196958795969558
:101B700087959695879598012770332741E0232B09
:101B800009F440E0242F280FFC2FEE27EA5EFE4EDA
:101B90002683DE01A85CB54F275F2C93E80FF91F61
:101BA0001782FE01E251F64F8081823009F1FE0179
:101BB000E295F295F07FFE27E07FFE27EC56FC4F82
:101BC000C590D4908F2D0E942A020196FC01859128
:101BD0009491FE01EF51F64F2081FC0137E0239FE5
:101BE000E00DF11D1124359685919491B82F0CC00C
:101BF000FE01EE0FFF1FEE0FFF1FEE0FFF1FE8525B
:101C0000F94FC680D780B0E00115110509F473C003
:101C1000A0E061E070E0DC2FCC278A2F8B0F9A2F99
:101C20009695969596950F2EF7E0EF2EF02DE90EEE
:101C30002A2F2770AB0102C0440F551F2A95E2F7E7
:101C40009A01982F969596959695F601E90FF11DB4
:101C5000408150E08770FA0102C0F595E7958A95BA
:101C6000E2F7E0FF09C0FE01EE0DF11DEA5EFE4E57
:101C70008081282B208309C0FE01EE0DF11DEA5E54
:101C8000FE4E2095808128232083AF5F2A2F30E0ED
:101C90002017310710F22FC01C2F00270A5E1E4E9E
:101CA000F8018581880F8683FE01E85CF54F875F28
:101CB00080838F2D0E948802F80125812223D9F08C
:101CC00040E0E80198012B5F3F4F542F550FA42FA0
:101CD000B0E0AA0FBB1FA80FB91FFE01E50FF11D51
:101CE00011965C91119757835C9150874F5FF90172
:101CF0005081451750F38F2DD1DEDF91CF911F9189
:101D00000F91FF90EF90DF90CF900895CF93C82F61
:101D10000E942A02BC01FC013196459154912C2F5E
:101D200030E0F901EF51F64F808197E0899F400D37
:101D3000511D1124FB016491F22FEE27EA5EFE4E45
:101D40006083FA018491F22FEE27EA5EFE4E8183D2
:101D5000FA013296E491B22FAA27AA5EBE4E1296DD
:101D6000EC93FA013196E491B22FAA27AA5EBE4EF7
:101D70001396EC93FA013496E491B22FAA27AA5E47
:101D8000BE4E1496EC93FA0133964491B22FAA27D3
:101D9000AA5EBE4E15964C938C2FAFDECF91089560
:101DA000282F30E0F22FEE27EA5EFE4ED901AA0F6F
:101DB000BB1FAA0FBB1FAA0FBB1FA852B94F9C91F4
:101DC000908311969C911197918312969C911297F2
:101DD00013964C9113974283938314969C91149776
:101DE00015964C9144839583F901E251F64F92E0A8
:101DF000908383CE08956F927F928F929F92AF923D
:101E0000BF92CF92DF92EF92FF920F931F93CF93E7
:101E1000DF93D82EC82FD0E0FE01E953F74F808121
:101E2000882319F0823031F06FC3C953D74F81E056
:101E300088836AC384E0FE01E953F74F80838D2DC8
:101E4000BDDD882329F0C953D74F81E088835CC367
:101E5000FC2FEE27EA5EFE4E8081882359F0FE01BA
:101E6000E753F64F9081891729F0C953D74F81E086
:101E700088834AC384E18C9F80018D9F100D1124BB
:101E80000D581C4FF80125913491F9011995FE0167
:101E9000E295F295F07FFE27E07FFE27EA51FF4EA4
:101EA0008681978101969783868362E08D2D11DE6E
:101EB0007C01FC2FEE27EA5EFE4EC1808C2D90E067
:101EC000FC013197E031F10508F0C9C2EA59FF4F32
:101ED0000C941A38FC2FEE27EA5EFE4E8081882390
:101EE00009F4C1C0FE01E85CF54F8081883059F0EB
:101EF000FC2FEE27EA5EFE4E83E082830F2EF3E096
:101F0000FF2EF02DB6C264E08D2DE3DDAC018E0D09
:101F10009F1DF1E0CF120FC0FE01E295F295F07F18
:101F2000FE27E07FFE27EA56FC4F259134912817C3
:101F3000390778F018C0FE01E295F295F07FFE2790
:101F4000E07FFE27E656FC4F25913491281739078C
:101F5000B0F4FC2FEE27EA5EFE4E82E082836894A6
:101F6000FF24F1F886C2FE01E295F295F07FFE278C
:101F7000E07FFE27EC56FC4FA591B4910BC0FE010B
:101F8000E295F295F07FFE27E07FFE27E856FC4FB2
:101F9000A591B49121E0CA0187709927892B09F492
:101FA00020E0CA0196958795969587959695879591
:101FB000820FFC2FEE27EA5EFE4E8283FE01E85C74
:101FC000F54F8B5F80834115510509F44FC0C12C3B
:101FD00020E030E081E090E0BC2EAA242E0D3F1DD1
:101FE0006C2D6695669566950F2EF3E09F2EF02D6D
:101FF000960EEC2DE7703C0102C0660C771CEA954A
:10200000E2F7B90176956795769567957695679528
:102010006A0F7B1FFB01608170E027703327FB0193
:1020200002C0F595E7952A95E2F7E0FF0AC0950111
:10203000290D311D2A5E3E4EF901608166296083BB
:102040000AC09501290D311D2A5E3E4E6094F901AA
:10205000608166216083C3942C2D30E024173507FE
:1020600008F4BCCF05C0FF24FA9403C2F12C01C2CE
:10207000F12CFFC1FC2FEE27EA5EFE4E8081882303
:1020800009F485C0FE01E85CF54F8081883059F085
:10209000FC2FEE27EA5EFE4E83E082830F2EF3E0F4
:1020A000FF2EF02DE6C1FC2FEE27EA5EFE4E4581A5
:1020B000C701840F911DF3E0CF120FC0FE01E2951E
:1020C000F295F07FFE27E07FFE27E256FC4F259138
:1020D00034912817390778F018C0FE01E295F2957F
:1020E000F07FFE27E07FFE27EE55FC4F25913491CF
:1020F00028173907B0F4FC2FEE27EA5EFE4E82E087
:1021000082836894FF24F1F8B4C1FE01E295F29550
:10211000F07FFE27E07FFE27E456FC4F85919491E7
:102120000BC0FE01E295F295F07FFE27E07FFE27CF
:10213000E056FC4F85919491EE0CFF1C8E0D9F1D77
:10214000440FBC2FAA27AA5EBE4E12964C9312973C
:10215000FE01E85CF54F4B5F408315966C91159737
:102160006623C1F0FC0140E09D01542F550F790119
:10217000E50EF11C5181D70113965C938081329654
:10218000D70114968C934F5F4613EFCF05C0FF2401
:10219000FA946FC1F12C6DC1F12C6BC1FE01E85CAA
:1021A000F54F8081883059F0FC2FEE27EA5EFE4E15
:1021B00083E082830F2EF3E0FF2EF02D5AC1FE0143
:1021C000E295F295F07FFE27E07FFE27E256FC4F76
:1021D0008591949197012F5F3F4F8217930750F499
:1021E000FC2FEE27EA5EFE4E82E082836894FF2495
:1021F000F1F83FC188E0FE01E85CF54F8083FE0105
:10220000E295F295F07FFE27E07FFE27E456FC4F33
:1022100085919491EE0CFF1CE80EF91E64E08D2D63
:1022200058DCF70191838083F12C23C164E08D2D6C
:1022300050DCFC2FEE27EA5EFE4EA681FE01E85C34
:10224000F54F408150E02A2F30E0275F3F4F421783
:102250005307B9F421E030E0BC0167707727672BA2
:1022600011F420E030E0BC0176956795769567958E
:1022700076956795260F371F4A2F50E024173507AC
:1022800059F0FC2FEE27EA5EFE4E83E082830F2E8C
:10229000F3E0FF2EF02DEDC0FE01E295F295F07F08
:1022A000FE27E07FFE27EA56FC4F25913491AC01D2
:1022B0004E0D5F1D2417350750F4FC2FEE27EA5E04
:1022C000FE4E82E082836894FF24F1F8D2C0FE01C2
:1022D000E295F295F07FFE27E07FFE27EC56FC4F5B
:1022E0002591349148E0FE01E85CF54F4083C12C14
:1022F000E1E0F0E07C2F6627AB014A5E5E4E3A01DA
:1023000036C0DA01AE0DBF1DAD0156954795569505
:10231000479556954795A770BB275F0102C0AA0C49
:10232000BB1CAA95E2F7AC2DA695A695A695B30180
:102330006A0F711DDB011796AC91B0E07C2D7770B0
:10234000072E02C0B595A7950A94E2F7A0FF07C033
:10235000D901A40FB51F4C91A42AAC9207C0D90192
:10236000A40FB51FA0944C914A214C93C3944C2DBB
:1023700050E04817590728F2F12C7BC0FC2FEE27BC
:10238000EA5EFE4E868190E0FE01E85CF54F4081FA
:1023900050E09C01275F3F4F4217530761F4FC2F29
:1023A000EE27EA5EFE4E4581242F30E0220F331FD8
:1023B0008217930759F0FC2FEE27EA5EFE4E83E06A
:1023C00082830F2EF3E0FF2EF02D53C0FE01E29525
:1023D000F295F07FFE27E07FFE27E256FC4F8591C5
:1023E00094919701240F311D8217930750F4FC2F0D
:1023F000EE27EA5EFE4E82E082836894FF24F1F8C5
:1024000038C088E0FE01E85CF54F8083FE01E2956C
:10241000F295F07FFE27E07FFE27E456FC4F859083
:102420009490C12C9C2F8827DC01A55EBE4E3D01F7
:1024300010C05701AC0CB11CAA0CBB1CA80CB91CD9
:102440006C2D660F695F8D2D44DBF50191838083D0
:10245000C394D3018C91C81660F3F12C0AC0FC2FF1
:10246000EE27EA5EFE4E81E08283808181110BC0FF
:102470001CC0FC2FEE27EA5EFE4E8081882399F077
:10248000FF2079F002C0FF24F394FC2FEE27EA5ED0
:10249000FE4E81818068818385E0FE01E85CF54F16
:1024A00080838D2DFBDAFF2071F0FE01E295F2951D
:1024B000F07FFE27E07FFE27EA51FF4E8481958161
:1024C000019695838483FC2FEE27EA5EFE4E808181
:1024D000882319F08D2DACD917C0FE01E295F29535
:1024E000F07FFE27E07FFE27EA51FF4E8085918531
:1024F000019691878087C953D74F81E08883F8017F
:1025000085919491FC011995DF91CF911F910F91C5
:10251000FF90EF90DF90CF90BF90AF909F908F9003
:102520007F906F90089524E1829FC0011124FC01E7
:10253000ED58FC4F85919491FC0119950895CF9326
:10254000DF93C82FD0E0CE01885F9F4F0E94353CBB
:10255000C753D64F8883DF91CF9108950F931F9370
:10256000CF93DF93C82FD0E08E01000F111F000F13
:10257000111F0C0F1D1FC801805090400E943D3C50
:10258000FE01EE0FFF1FE451F64F91838083C801D7
:102590008E5F9F4F0E94353CFE01EC52FF4E8083C0
:1025A000C8018D5F9F4F0E94353CFE01ED5CF54FE9
:1025B0008083C8018C5F9F4F0E94353CC754D64F23
:1025C00088838091710393E0980F909371038093B7
:1025D000D106DF91CF911F910F91089507D81092E6
:1025E000C708E7E6F3E0A591B4918CEF8C93E9E698
:1025F000F3E0A591B49188E98C9380E094D880E0D1
:10260000D0D8E4EAF3E0E491EE2319F0E13021F0D0
:1026100005C080E094DF02C080E0A0DFE7E5F3E0E2
:1026200025913491F901199508956F927F929F92A7
:10263000AF92BF92CF92DF92EF92FF920F931F93D0
:10264000CF93DF93D82EC82FD0E0FE01E953F74F88
:102650008081882319F0823071F097C28091D10671
:102660008E5F6FEF7FEF8D0D0E94D8068D2D4EDBB4
:102670008D2DDED88AC284E0FE01E953F74F8083B6
:10268000FE01E251F64F908181E0923009F080E046
:102690008093D7068D2D92D9882321F08D2D0E940D
:1026A000CF0763C284E18C9FF0018D9FF00D112450
:1026B000ED58FC4F85919491FC0119958091D706B6
:1026C000882381F0FE01EE0FFF1FEE0FFF1FEE0FBC
:1026D000FF1FE852F94F8081418120E030E000E0A7
:1026E00010E015C08D2D0E942A028C01FC0131964C
:1026F00025913491FE01EF51F64F8081F7E08F9FD5
:10270000200D311D1124F8018491F9014491BC2F51
:10271000AA27AA5EBE4E9C91981304C0FD01618158
:10272000641721F08D2D0E94CF071FC2862F90E0E5
:10273000FC013197E031F10508F0BBC1EA58FF4FC9
:102740000C941A388091D706882359F0FE01EE0FB9
:10275000FF1FEE0FFF1FEE0FFF1FE852F94F7481AE
:1027600003C0F90133967491FC2FEE27EA5EFE4E0A
:10277000828190E0FE01E85CF54FE081F0E0AC0181
:102780004B5F5F4FE417F50709F08AC0E72FE69526
:10279000E695E695F0E041E050E0A72FA77011F430
:1027A00040E050E04E0F5F1F8417950709F07AC094
:1027B0008091D706882369F0FE01EE0FFF1FEE0F10
:1027C000FF1FEE0FFF1FE852F94FA681B781C12C02
:1027D0001FC0613061F4FE01E295F295F07FFE27A3
:1027E000E07FFE27EC56FC4FA591B4910BC0FE0193
:1027F000E295F295F07FFE27E07FFE27E856FC4F3A
:10280000A591B4912B5F3F4FF90185919491C82E0A
:10281000A72EB12CA114B10409F446C020E030E089
:1028200081E090E05C2F4427BA016A5E7E4E7B0116
:102830004C2D420F942E9694969496944770FC01DA
:1028400002C0EE0FFF1F4A95E2F7AF01F901F695BE
:10285000E795F695E795F695E795EE0DFF1DE38173
:10286000F0E0B901677077273F0102C07594679463
:102870006A95E2F760FE07C0FD01E90DF11D508188
:10288000452B408307C0FD01E90DF11D40955081A6
:10289000452340832F5F3F4F2A153B0548F206C072
:1028A00081E008C181E006C180E004C180E002C18E
:1028B000FC2FEE27EA5EFE4E7281FE01E85CF54FCA
:1028C000408150E0872F90E005964817590709F09E
:1028D0006BC08091D706882371F0FE01EE0FFF1FB9
:1028E000EE0FFF1FEE0FFF1FE852F94F8481958115
:1028F000880F991F06C0F901339685919491880F2E
:10290000991F472F50E04817590709F04FC0809191
:10291000D706882361F0FE01EE0FFF1FEE0FFF1FA9
:10292000EE0FFF1FE852F94FA680B78023C0633037
:1029300061F4FE01E295F295F07FFE27E07FFE272D
:10294000E456FC4F859194910BC0FE01E295F295FF
:10295000F07FFE27E07FFE27E056FC4F85919491A3
:102960002B5F3F4FF90125913491220F331F5C01FA
:10297000A20EB31E7695CC24CA94C70ECAF0770F68
:1029800099249394970EEC2CEE0CFF08EA0CFB1C98
:10299000692D8D2D9ED8F70191838083CA949A94D6
:1029A0009A94CC2084F706C081E084C081E082C084
:1029B00080E080C080E07EC08091D706882371F0DF
:1029C000FE01EE0FFF1FEE0FFF1FEE0FFF1FE8527D
:1029D000F94FE280F380A680B78019C0F9013196E3
:1029E000E590F490FE01E295F295F07FFE27E07FFE
:1029F000FE27E456FC4F859194912B5F3F4FF901E0
:102A000025913491220F331F5C01A20EB31EFE01EB
:102A1000E85CF54F8081883099F462E08D2D59D8BB
:102A20008E159F0579F464E08D2D53D841E0F501B2
:102A3000208131818217930709F440E0842F3AC046
:102A400081E038C081E036C08091D706882371F0DC
:102A5000FE01EE0FFF1FEE0FFF1FEE0FFF1FE852EC
:102A6000F94FE280F380A480B58009C0F901319666
:102A7000E590F4902D5F3F4FF901A590B490FE01D1
:102A8000E85CF54F8081883081F462E08D2D21D89B
:102A90008E159F0561F464E08D2D1BD821E08A1509
:102AA0009B0509F420E0822F05C081E003C081E08E
:102AB00001C080E0882391F0FE01E295F295F07F5D
:102AC000FE27E07FFE27EA51FF4E84819581019623
:102AD000958384838D2D0E94CF0747C08091D706B0
:102AE000882331F0C251D64F188265E070E048C0AB
:102AF000FE01EE0FFF1FEE0FFF1FBF016A527F4E58
:102B000081E090E0A0E0B0E09E012452364FF90150
:102B1000008004C0880F991FAA1FBB1F0A94D2F718
:102B200080959095A095B095FB014081518162817F
:102B3000738184239523A623B72380839183A28363
:102B4000B383FE01EF51F64F80818F5F8083F801E0
:102B50003396E4918E1304C08D2D0E94300701C07E
:102B600080E0FE01EA52F94F1082882339F0CC0F41
:102B7000DD1FC451D64F6881798102C065E070E0E5
:102B80008091D1068D0D0E94D806DF91CF911F91C3
:102B90000F91FF90EF90DF90CF90BF90AF909F90FC
:102BA0007F906F900895E82FF0E0EC52FF4E608127
:102BB00070E09091D106890F0C94D80608951F9368
:102BC000CF93DF93E5E6F3E02591349182179307E5
:102BD00091F010E044E11F5FC12FD0E04C9FF00165
:102BE0004D9FF00D1124EB59FC4F25913491821724
:102BF000930789F703C0C0E0D0E010E0FE01EF5377
:102C0000F94F6081462F50E0FE01E85CF54F2081CE
:102C100030E0225031094217530709F544E14C9F37
:102C200090014D9F300D112427593C4FF901A5917A
:102C3000B4914C914F7D4C93F901A591B4912C9195
:102C400020642C9324E12C9FF0012D9FF00D112482
:102C5000E959FC4FA591B4912C9120642C936F5F9E
:102C6000FE01EF53F94F6083FE01E85CF54F2081D0
:102C7000621750F4DC2FCC27C60FD11DCA5EDE4E82
:102C80002881FC01208330C084E18C9FF0018D9F5E
:102C9000F00D1124E759FC4FA591B4918C918F79D7
:102CA0008C9384E18C9FF0018D9FF00D1124EF58DF
:102CB000FC4F85919491FC011995FE01EF53F94F5A
:102CC0001082C953D74F81E08883E12FF0E0EC55A3
:102CD000FC4FE491EE2319F0E13021F005C0812F83
:102CE00022DC02C0812F5FDFDF91CF911F91089519
:102CF0001F93CF93DF93182FC091D106C80F81E0A7
:102D00008C0F0E948408882319F0812F0E941507D8
:102D10008C2F0E948408882309F46DC0F894C12F79
:102D2000D0E0FE01E953F74F8081813029F485E03E
:102D3000FE01E953F74F80837894FE01E953F74F82
:102D40008081843039F1853009F055C0812F0E948F
:102D5000CF07FE01E251F64F8081882319F08130C0
:102D600029F00BC0812F0E94860E07C0CA52D94F8E
:102D70008881811102C0812F13D88091D1066FEF15
:102D80007FEF810F0E94D806F894812F0E94180CC3
:102D9000789431C0F89484E18C9FF0018D9FF00D00
:102DA0001124ED58FC4F25913491F901199578942F
:102DB000C251D64F8881882319F0813029F00FC085
:102DC000812F0E94860E0BC08091D706882321F0A8
:102DD000812F0E94860E03C0812F0E94D00E809109
:102DE000D1066FEF7FEF810F0E94D806F894812FF4
:102DF0000E94180C7894DF91CF911F9108958091D3
:102E0000D51080FF15C0F8948091D5108E7F8093E7
:102E1000D5107894E4EAF3E0E491EE2319F0E13080
:102E200029F006C080E00E94FB0E02C080E0FDDBBE
:102E3000E4EAF3E0E491E13011F480E059CF089541
:102E400060916A0BE6E0F9E080E090E041E050E05C
:102E500021913191232B49F09A01082E02C0220FB3
:102E6000331F0A94E2F7622B09C09A01082E02C0B0
:102E7000220F331F0A94E2F72095622301968830CF
:102E8000910531F760936A0B0895CF93DF93A0917A
:102E9000FA10B0E0E3E2FAE080E090E041E050E0D8
:102EA000D0E0C0E0BA01082E02C0660F771F0A9476
:102EB000E2F76A237B239A011616170614F02D2FCA
:102EC0003C2F2193319301968830910559F7DF917A
:102ED000CF910895B5DF93DFD8CF08951F920F9259
:102EE0000FB60F9211240BB60F922F933F934F936F
:102EF0005F936F937F938F939F93AF93BF93EF9362
:102F0000FF9386EC90E00E945A0CFF91EF91BF91E5
:102F1000AF919F918F917F916F915F914F913F9171
:102F20002F910F900BBE0F900FBE0F901F90189512
:102F30001F920F920FB60F9211240BB60F922F9380
:102F40003F934F935F936F937F938F939F93AF9331
:102F5000BF93EF93FF9386EC90E031DEFF91EF910A
:102F6000BF91AF919F918F917F916F915F914F91A1
:102F70003F912F910F900BBE0F900FBE0F901F909F
:102F800018951F920F920FB60F9211240BB60F9245
:102F90002F933F934F935F936F937F938F939F9361
:102FA000AF93BF93EF93FF9386EC90E008DEFF9121
:102FB000EF91BF91AF919F918F917F916F915F91B1
:102FC0004F913F912F910F900BBE0F900FBE0F901E
:102FD0001F9018951F920F920FB60F9211240BB6E7
:102FE0000F922F933F934F935F936F937F938F93A2
:102FF0009F93AF93BF93EF93FF938EEC90E00E946B
:103000005A0CFF91EF91BF91AF919F918F917F915A
:103010006F915F914F913F912F910F900BBE0F9049
:103020000FBE0F901F9018951F920F920FB60F9220
:1030300011240BB60F922F933F934F935F936F938F
:103040007F938F939F93AF93BF93EF93FF938EECF8
:1030500090E0B5DDFF91EF91BF91AF919F918F917E
:103060007F916F915F914F913F912F910F900BBE88
:103070000F900FBE0F901F9018951F920F920FB6D2
:103080000F9211240BB60F922F933F934F935F93A0
:103090006F937F938F939F93AF93BF93EF93FF9320
:1030A0008EEC90E08CDDFF91EF91BF91AF919F91FD
:1030B0008F917F916F915F914F913F912F910F90E1
:1030C0000BBE0F900FBE0F901F9018951F93CF93BC
:1030D000DF93D62F172FC091C006882331F0C1305F
:1030E00051F018F0C23029F12DC081E08093C00664
:1030F000C13089F539C060E181E00E94C6048F3F8C
:1031000009F56FEF82E094E00E94F70362E080E04F
:1031100094E00E94F703612F84E094E00E94F7039B
:103120006D2F85E094E00E94F70382E08093C00653
:1031300017C061E081E00E94C6048F3F19F48093BC
:10314000C00612C08091C0068C1771F0813019F052
:10315000823031F009C060E080E00E94C60404C003
:1031600060E080E00E94C6048091C006DF91CF91AC
:103170001F9108951F93CF93DF93D62F172FC091E0
:10318000BF06882331F0C13051F018F0C23029F168
:103190002DC081E08093BF06C13089F539C060E160
:1031A00081E00E94F7048F3F09F56FEF82E095E020
:1031B0000E94F70362E080E095E00E94F703612F30
:1031C00084E095E00E94F7036D2F85E095E00E9472
:1031D000F70382E08093BF0617C061E081E00E94A0
:1031E000F7048F3F19F48093BF0612C08091BF0689
:1031F0008C1771F0813019F0823031F009C060E035
:1032000080E00E94F70404C060E080E00E94F704C0
:103210008091BF06DF91CF911F910895CF93DF93E7
:10322000EA01FB019081911109C09181911106C0C1
:103230009281911103C09381992319F1209721F173
:10324000811109C0CB010E946505CE010E9459057C
:1032500081E090E01EC0813049F4CB010E948705D7
:10326000CE010E947B0581E090E013C0823079F4AA
:10327000CB010E94A905CE010E949D0581E090E04E
:1032800008C080E090E005C080E090E002C081E0EE
:1032900090E0DF91CF910895AB0110920A11109246
:1032A0000911BC0180E0BACF0895AB011092C309A7
:1032B0001092C209BC0181E0B1CF08959B016091D9
:1032C000091170910A11AC0180E00E94460620911C
:1032D000091130910A11280F391F30930A112093D8
:1032E000091108959B016091C2097091C309AC0155
:1032F00081E00E9446062091C2093091C309280F3F
:10330000391F3093C3092093C2090895CF93C09108
:10331000BE06882331F0C13051F018F0C23089F078
:103320002EC081E08093BE06C13079F532C060E2E4
:1033300081E00E94F7048F3F11F582E08093BE0682
:1033400028C062E070E081E00E94880484FD0DC026
:1033500062E070E081E00E94880483FF10C048E1D1
:1033600062E070E081E00E94BC0440E162E070E055
:1033700081E00E94BC048FEF8093BE060AC080915A
:10338000BE068C1731F0813021F460E280E00E94AB
:10339000F7048091BE06CF910895CF93C091BD06EA
:1033A000882331F0C13051F018F0C23089F02EC0BE
:1033B00081E08093BD06C13079F532C060E281E0E2
:1033C0000E94C6048F3F11F582E08093BD0628C09D
:1033D00062E070E080E00E94880484FD0DC062E03D
:1033E00070E080E00E94880483FF10C048E162E042
:1033F00070E080E00E94BC0440E162E070E080E0A8
:103400000E94BC048FEF8093BD060AC08091BD0668
:103410008C1731F0813021F460E280E00E94C60414
:103420008091BD06CF9108951F93CF93DF93D62F40
:10343000172FC091BC06882331F0C13051F018F02D
:10344000C23029F12DC081E08093BC06C13089F5DE
:1034500039C060E181E00E9428058F3F09F56FEFD8
:1034600082E096E00E94F70362E080E096E00E942E
:10347000F703612F84E096E00E94F7036D2F85E04B
:1034800096E00E94F70382E08093BC0617C061E0DB
:1034900081E00E9428058F3F19F48093BC0612C07A
:1034A0008091BC068C1771F0813019F0823031F0B8
:1034B00009C060E180E00E94280504C061E080E06E
:1034C0000E9428058091BC06DF91CF911F9108953D
:1034D000AB011092660B1092650BBC0182E09ECE90
:1034E00008959B016091650B7091660BAC0182E0C1
:1034F0000E9446062091650B3091660B280F391FFC
:103500003093660B2093650B0895AF92BF92CF92D4
:10351000DF92EF92FF920F931F93CF93DF931F924F
:103520001F92CDB7DEB77A8369837A018901E98179
:10353000FA81F770C82ED12CD601AA0FBB1FA65452
:10354000B64F8D919C918E0F9F1F2E0F3F1F2130E4
:103550003840C8F020E038E05901AE1ABF0AA50192
:10356000B7010E944003A8014A195B09B7016A0D1F
:103570007B1DF601EE0FFF1FE654F64F808191810F
:103580000E94400304C0A801B7010E9440030F90AD
:103590000F90DF91CF911F910F91FF90EF90DF90EF
:1035A000CF90BF90AF900895DF92EF92FF920F936C
:1035B0001F93CF93DF93D82E7B018A0168E270E0DE
:1035C0000E948804C82FD0E069E270E08D2D0E942F
:1035D0008804DC2FCC27C82B9801A701BE018D2DB4
:1035E00094DFC00FD11F4D2F68E270E08D2D0E9437
:1035F000BC044C2F69E270E08D2D0E94BC04DF9169
:10360000CF911F910F91FF90EF90DF900895DF927F
:10361000EF92FF920F931F93CF93DF93D82E0FEF6C
:103620001FEFE12CF12C8D2D0E94A604EC010097D8
:1036300021F08D2D0E94A6047C01EC16FD0629F0D8
:10364000015011090115110571F7C701DF91CF91E3
:103650001F910F91FF90EF90DF9008958091CD061C
:103660009091CE06A091CF06B091D0060196A11DF3
:10367000B11D8093CD069093CE06A093CF06B09354
:10368000D00680E0A3C00895CF93C091BB068111FE
:1036900003C01092BB0606C0C13099F018F0C230CA
:1036A00001F149C08091BA06811104C00E949906B7
:1036B0008093BA0681E08093BB06C13009F041C017
:1036C00044C060E281E00E9428058F3FA1F568EECA
:1036D00073E08091BA060E94D80682E08093BB0610
:1036E00034C062E070E082E00E94880484FD19C06A
:1036F00062E070E082E00E94880483FF07C048E136
:1037000062E070E082E00E94BC0415C08091BA06BD
:103710000E948408882379F0A1DF8FEF8093BB0695
:1037200014C040E162E070E082E00E94BC048FEFD0
:103730008093BB060AC08091BB068C1731F08130A4
:1037400021F460E280E00E9428058091BB06CF91C1
:103750000895BF92CF92DF92EF92FF920F931F9343
:10376000CF93DF937B016A01E901B090B90688230A
:1037700031F0BB2021F081E0B81639F00DC081E0B6
:103780008093B906B8120EC015C081E07DDF8F3F6F
:1037900019F48093B9060EC08091B9068B1551F0CB
:1037A000813041F4B601C70193DEB801CE0199DE44
:1037B00080E06ADF8091B906DF91CF911F910F9170
:1037C000FF90EF90DF90CF90BF9008950F931F93DD
:1037D000CF93C091B806811103C01092B80608C0FB
:1037E000C130A9F028F0C23011F1C43051F14BC002
:1037F0008091B706811104C00E9499068093B70694
:1038000081E08093B806C13009F047C0E9C069EE95
:1038100077E081E009DE8F3FB1F568EE73E08091DB
:10382000B7060E94D80682E08093B806D9C080917E
:10383000B7060E948408882331F184E08093B8069B
:1038400031C063E070E082E00E948804823219F0A7
:103850001092B806C5C040916A0350916B030EE305
:1038600010E028EC38E06CE673E081E072DF8F3F17
:1038700051F468EE73E08091B7060E94D80682E0AA
:103880008093B806ADC08091B8068C1709F4A8C023
:10389000813019F0843031F0A3C069EE77E080E028
:1038A000C3DD9EC0E8ECF8E085E0808381E0809392
:1038B000C90890916803209169032093CA089093E6
:1038C000CB088093CC0882E08093CD0883E180937D
:1038D000CE0886E38093CF088091C4098093D008F6
:1038E0008091C5098093D1088091C6098093D20840
:1038F0008091C7098093D30887E58093D40885E336
:103900008093D50881E38093D60880E38093D7081D
:103910008093D80880E28093D90884E58093DA0800
:1039200095E49093DB0893E59093DC088093DD08A1
:1039300083EE98E09093F2098093F10910A2178E1C
:1039400012A211A214A213A216A215A28BE790E054
:1039500090A787A388E097E092A781A788E998E0DD
:1039600094A783A785EF98E09093C6088093C50835
:103970008091C6069091C706A091C806B091C9066D
:10398000880F991FAA1FBB1FAC01BD01440F551F13
:10399000661F771F440F551F661F771F840F951FE3
:1039A000A61FB71F85A796A7A7A7B0AB8091DD0973
:1039B0009091DE09A091DF09B091E00981AF92AF4B
:1039C000A3AFB4AF8AE18093050940916A03509197
:1039D0006B030EE310E09F016CE673E080E0B9DE5C
:1039E0008091B806CF911F910F9108958F929F9269
:1039F000AF92BF92CF92DF92EF92FF920F931F93FD
:103A0000CF93DF93CDB7DEB7A4970FB6F894DEBFA0
:103A10000FBECDBFE82ED62EC72E6894FF24F5F832
:103A20008E010F5F1F4FF8018F2D11928A95E9F7D4
:103A30008FEF89A38AA38BA38CA363E470E0CE01EC
:103A400081962ADC81E089838A8386E08B831C82CD
:103A50004091E8095091E9096091EA097091EB09F8
:103A6000872E9924AA24BB24B42FAA279927882714
:103A700088299929AA29BB298824942EA52EB62EF7
:103A800088249924BB2488299929AA29BB29452F50
:103A9000562F672F7727442766277727482B592BE0
:103AA0006A2B7B2B4D835E836F837887C986DA868A
:103AB00080E890E09C878B876CE170E0C801FEDBBA
:103AC000F8018F2D11928A95E9F786E0EAECF9E08A
:103AD000D80101900D928A95E1F760E170E0C8018C
:103AE000EDDBF8011192FA94E9F706E010E060E2EC
:103AF00070E0CE010196E2DB0150110901151105BC
:103B0000B1F783E6898392E89A8393E59B838C835C
:103B100085E38D8381E08E83EF829DE3988797E034
:103B200099878A8786E0EAECF9E0DE011B9601902E
:103B30000D928A95E1F78CE0898B8A8B87E0E3E729
:103B4000F3E0DE01539601900D928A95E1F76091C2
:103B5000CD09CE0149960E9466066091CE09CE013C
:103B60004B960E9466066091CF09CE014D960E9449
:103B700066066EE170E0CE010196A0DBF3E0EF1285
:103B800024C082E3898384E08A839091C4099B8363
:103B90009091C5099C839091C6099D839091C70916
:103BA0009E8396E39F83888780911A0989878091F5
:103BB0001B098A8780911C098B8780911D098C873E
:103BC0006CE070E0CE01019679DB87E3898386E0C3
:103BD0008A8391E09B8393E09C838D838FE08E8327
:103BE0008AE38F838BE388878FEF898769E070E0B2
:103BF000CE01019663DBA4960FB6F894DEBF0FBE2C
:103C0000CDBFDF91CF911F910F91FF90EF90DF908B
:103C1000CF90BF90AF909F908F9008950F931F9378
:103C2000CF93DF93062FEA011091B606882329F07F
:103C3000112319F0113039F00DC081E08093B606E0
:103C4000113071F412C081E0A8DB8F3F19F480932A
:103C5000B6060BC09091B606911739F0913029F451
:103C6000BE01802FC3DE80E098DB8091B606DF9135
:103C7000CF911F910F910895CF92DF92EF92FF9213
:103C80006B017C01611571058105910539F00E9478
:103C9000A538A70196010E94FE3703C060E070E0DE
:103CA000CB01FF90EF90DF90CF900895AF92BF923D
:103CB000CF92DF92EF92FF920F931F93CF93DF93F8
:103CC000CDB7DEB760970FB6F894DEBF0FBECDBF9D
:103CD000A2960EAD1FADA29781E3F80180838EE21C
:103CE000818383E3828313826F96DFAC6F97DA94CC
:103CF00009F44EC021E0A12CB12C0F2EFEE2EF2ED4
:103D0000F12CF02D8A2D9B2DCC24C394C20EEEE114
:103D1000F0E0EC0FFD1FE20FF11D20819695982F2A
:103D2000882797958795322F3F77830F911DDA94D7
:103D300021F02223C4F42C2DE7CF4AE0BE016F5FAF
:103D40007F4F0E943239F80101900020E9F7319746
:103D50008EE290E091838083BE016F5F7F4FC80148
:103D60000E94013915C04AE0BE016F5F7F4F0E947B
:103D70003239F80101900020E9F73197F182E082B1
:103D8000BE016F5F7F4FC8010E9401392C2DBACF51
:103D900060960FB6F894DEBF0FBECDBFDF91CF9116
:103DA0001F910F91FF90EF90DF90CF90BF90AF9059
:103DB00008953F924F925F926F927F928F929F925F
:103DC000AF92BF92CF92DF92EF92FF920F931F9329
:103DD000CF93DF9300D01F921F92CDB7DEB78C0137
:103DE000DB018C91813309F0E5C011968C9111971C
:103DF0008E3209F0DFC012968C911297833309F04E
:103E0000D9C013968C918E3209F0D4C080E4F801A9
:103E100011928A95E9F78BE2D8018C93FB0101900E
:103E20000020E9F731973F01661A770AFE013196C3
:103E300085E0DF011D928A95E9F7B5E06B16710404
:103E40000CF471C06B01E4E0CE0ED11C6894EE243A
:103E5000E2F8F12CAA24A394B12C80E090E09E011A
:103E60002F5F3F4F49010F2EF5E03F2EF02D412CE3
:103E7000512CD6012D916D012E3209F047C0C4019D
:103E80000E94CE38272F862F922F8038910528F454
:103E9000F801EA0DFB1D60832EC08115B0E49B077D
:103EA00088F4F801EA0DFB1D880F991F892F80689F
:103EB0008083EFEFAE1ABE0AF801EA0DFB1D6F77A3
:103EC000608319C0F801EA0DFB1D9C0124E0329FBC
:103ED000212D33271124237020682083880F991FF8
:103EE000892F80688183F2E0AF0EB11CF801EA0DE2
:103EF000FB1D6F776083D401E32D1D92EA95E9F7EE
:103F0000FFEFAF1ABF0A842D952D05C0F401E80F0D
:103F1000F91F208301962FEFE21AF20A6E147F0434
:103F200009F0A7CF03C0AA24A394B12CCE01019617
:103F30000E94B138282F392F2038310528F4F80194
:103F4000EA0DFB1D80832EC0211590E4390788F40B
:103F5000F801EA0DFB1D220F331F932F9068908309
:103F6000AFEFAA1ABA0AF801EA0DFB1D8F7780831A
:103F700019C0F801EA0DFB1DA90144E0549F412D31
:103F800055271124437040684083220F331F932F1D
:103F900090689183B2E0AB0EB11CF801EA0DFB1DF5
:103FA0008F778083F801E05CFF4F2FEFA21AB20AEF
:103FB000B182A0820F900F900F900F900F90DF9121
:103FC000CF911F910F91FF90EF90DF90CF90BF9016
:103FD000AF909F908F907F906F905F904F903F90A9
:103FE000089520E4FC0111922A95E9F7FC01E05CB8
:103FF000FF4F1182108208958F929F92AF92BF92CD
:10400000CF92DF92EF92FF920F931F93CF93DF93A4
:10401000CDB7DEB760970FB6F894DEBF0FBECDBF49
:104020008C017B01FC01EE5BFF4F8081843009F441
:104030007DC0863009F46DC0843409F066C076C056
:1040400081E3D7018C938EE211968C93119783E3D1
:1040500012968C93129713961C92F801E05CFF4F16
:10406000B080BA9411F181E0812C912C0F2EFEE2E8
:10407000CF2ED12CF02D282D392DAA24A394A80EB3
:10408000F801E80FF11D80813695322F22273795F0
:104090002795982F9F77290F311DBA9409F453C0A3
:1040A00088230CF067C08A2DE8CF80E079C0F80142
:1040B000ED5BFF4F1082339720813181211531054F
:1040C000D1F080E090E060E03396A801405C5F4F63
:1040D000D801A60FB11D2C91D701A80FB91F2C93A1
:1040E00060816F5F6083862F90E0DA012D913C91B3
:1040F0008217930768F3F701E20FF31F108280E045
:104100004FC0C8016EDF81E04BC0C8016ADF87E0A5
:1041100047C0FB0101900020E9F7CF01861B970BF8
:1041200002978417950708F48BCFEBCFF701019026
:104130000020E9F7CF018E199F0902978417950790
:1041400008F4B5CFDECF4AE0BE016F5F7F4FC901F3
:104150000E943239F70101900020E9F731978EE291
:1041600090E091838083BE016F5F7F4FC7010E9403
:1041700001399BCF4AE0BE016F5F7F4FC9010E94AA
:104180003239F70101900020E9F73197D182C082DE
:10419000BE016F5F7F4FC7010E9401398A2D6BCF2F
:1041A00060960FB6F894DEBF0FBECDBFDF91CF9102
:1041B0001F910F91FF90EF90DF90CF90BF90AF9045
:1041C0009F908F9008951F93CF93DF93FC01EE5B38
:1041D000FF4F2081223059F53297208131812330E1
:1041E000310540F5FB0111821082FC01E05CFF4FBC
:1041F0002081318121153105F9F0162FE62FF72F97
:1042000040E050E0EC01C05CDF4F40955095280F36
:10421000391FD901A40FB51F2C9121934E2F411B9B
:1042200050E0288139814217530778F307C0D9DE5F
:1042300087E005C081E003C080E001C080E0DF913D
:10424000CF911F910895CF9320E4FC0111922A95FC
:10425000E9F7262F2F7B2430C9F5FA0101900020C1
:10426000E9F79F01241B350B225031092034310519
:1042700050F5FC01EE5BFF4F6083FA0101900020D6
:10428000E9F73197BF01641B750BFC01E05CFF4F40
:10429000718360833396108261157105D1F020E03F
:1042A00030E0C0E0DF01FA01E20FF31F2081FC01E2
:1042B000EC0FF11D2083CF5FCC932C2F30E026171D
:1042C000370788F308C08DDE81E006C08ADE87E00C
:1042D00003C080E001C080E0CF91089520E4FC019C
:1042E00011922A95E9F7623011F0643471F4FC01FF
:1042F000E05CFF4F22E030E0318320833296608320
:10430000FC015083418380E008956BDE87E00895CF
:1043100070E4FC0111927A95E9F7623011F064348F
:1043200081F4FC01E05CFF4FA4E0B0E0B183A08326
:1043300032966083FC01508341833283238380E083
:1043400008954FDE87E00895FC0180E4DF011D92AF
:104350008A95E9F78FEB860F843010F0673481F48B
:10436000DF01A05CBF4F84E090E011969C938E9398
:1043700012966C93508341833283238380E00895A7
:10438000CF012FDE87E00895DC010D900020E9F7D2
:10439000FC019D012150310980E090E004C0419171
:1043A0004E3209F40196E217F307C9F70196089512
:1043B000CF92DF92EF92FF920F931F93CF93DF93F1
:1043C000CDB7DEB728970FB6F894DEBF0FBECDBFCE
:1043D0006C01DB01E12CF12C40E050E020E030E00A
:1043E0008C010150110916C00417150761F48E32B3
:1043F00051F0E1E0F0E0EC0FFD1FEE0DFF1D8083BA
:104400008FEFE81AF80A2F5F3F4FEC91EE3211F46C
:104410004F5F5F4F8D918E3219F44C155D0550F44E
:10442000FB0101900020E9F73197E61BF70B2E17EF
:104430003F07D0F2FE01EE0DFF1D1282CE0107965E
:104440009F938F9381E893E09F938F93CE01019682
:104450009F938F930E944B390F900F900F900F9066
:104460000F900F908F81988528960FB6F894DEBF35
:104470000FBECDBFDF91CF911F910F91FF90EF90B5
:10448000DF90CF900895AF92BF92CF92DF92EF92DC
:10449000FF920F931F93CF93DF937C018B0174DF07
:1044A000EC01C80171DF8C179D0738F5C1E0D0E041
:1044B00019C0B701CE017CDF6C01B801CE0178DFF5
:1044C0008C159D0508F46BC0B7018A2D9B2D70DFFC
:1044D0006C01B8018A2D9B2D6BDFC816D90608F434
:1044E00061C02196AC2EBD2EC8014EDF0196C817C3
:1044F000D907F8F281E090E066C0C817D90738F50F
:10450000C1E0D0E019C0B701CE0152DF6C01B801A3
:10451000CE014EDF8C159D0508F447C0B7018A2DEA
:104520009B2D46DF6C01B8018A2D9B2D41DFC816FB
:10453000D90608F43DC02196AC2EBD2EC70124DF5C
:104540000196C817D907F8F28FEF9FEF3CC0C81744
:10455000D90789F5C1E0D0E017C0B701CE0128DF47
:104560006C01B801CE0124DF8C159D0538F1B7012F
:104570008A2D9B2D1DDF6C01B8018A2D9B2D18DF24
:10458000C816D906F0F02196AC2EBD2EC701FCDE70
:104590000196C817D90708F38FEF9FEF14C081E089
:1045A00090E011C08FEF9FEF0EC081E090E00BC054
:1045B0008FEF9FEF08C08FEF9FEF05C081E090E085
:1045C00002C08FEF9FEFDF91CF911F910F91FF906E
:1045D000EF90DF90CF90BF90AF900895EF92FF9251
:1045E0000F931F93CF93DF937C0101E112E0C0E0B2
:1045F000D0E0F80160817181C70145DF019639F093
:104600002196095F1F4FC332D10599F703C08C2F44
:104610009D2F02C08FEF9FEFDF91CF911F910F91E0
:10462000FF90EF900895FA01223049F46130E9F4E7
:10463000DC014D915C9162E0CF0150CE08952430B1
:1046400039F46230F9F4AC0164E0CF01FCCD089597
:10465000233459F46330C1F4DC012D913D914D9127
:104660005C9163E4CF0170CE0895223079F4643018
:1046700079F4DC012D913D914D915C9162E0CF0187
:1046800047CE089580E0089580E0089580E0089581
:1046900080E00895223079F46430A1F4E2E3F3E09D
:1046A00001900020E9F73197AF014253534062E394
:1046B00073E0A2CC0895213039F4623039F4BA01A4
:1046C00082CD089580E0089580E0089580E0089507
:1046D000CF92DF92EF92FF920F931F93CF93DF93CE
:1046E000DC011092B8091092B709EC01C25BDF4FF0
:1046F000FC01E057FF4F2881398180819181280F8B
:10470000391F2B5D3F4F89E9EEE1F9E0EF01199286
:104710008A95E9F78091690B833A29F580910B0A14
:1047200090910C0A280F391F3093D1092093D0099A
:1047300030E330931E09225020931F0922E020937A
:10474000200921E02093210924E02093230927E078
:1047500030E03093B8092093B709BC018093240955
:10476000009731F566C08091D6099091D709280F3E
:10477000391F3093D1092093D00930E330931E09BB
:10478000225020931F0922E02093200921E020934A
:10479000210924E02093230927E030E03093B80971
:1047A0002093B709BC0180932409009711F541C0FB
:1047B0000091B80C1091B90C80E090E0C0E020911D
:1047C000B7093091B809A9014F5F5F4F5093B809FD
:1047D0004093B709800F911FFC018081225E364F04
:1047E000F9018083CF5F8C2F90E08617970738F30D
:1047F00020C0009116091091170980E090E0C0E0F8
:104800002091B7093091B809A9014F5F5F4F5093CC
:10481000B8094093B709800F911FFC018081225E87
:10482000364FF9018083CF5F8C2F90E08617970772
:1048300038F38091B7099091B8099C012F5F3F4FE1
:104840003093B8092093B7094C91FC01E25EF64F12
:104850004083A901425E564F7D012EE4E20EF11C19
:10486000E70178819D0120573F4FE9016881670F7B
:10487000665EEA01688302E0028314E01383159602
:104880004C91159716965C91169717966C91179701
:1048900018967C91189774836583568347830087A5
:1048A000118719964C91199712861386148645879D
:1048B000068717871A964C911A971B965C911B973F
:1048C0001C966C911C971D967C911D97708B618B2B
:1048D000528B438B40E3448BE7016881E9015881A7
:1048E000560F5A5F558B468BE7014881E9012881B5
:1048F000240F2C5F278B26E0208F4A969093B809CF
:104900008093B709E7018881818F88819981892BFC
:1049100049F18091B7099091B809FD013E969C013B
:10492000225E364F69017C013DE0E31AF108EA1A84
:10493000FB0A02EF1FEF0A1B1B0BBE01A7014E0F64
:104940005F1F8191E60189936E0198012E0F3F1F31
:10495000EB01888199812817390780F35093B809B2
:104960004093B7098091B7099091B809FD01EE56BF
:10497000FF4F2081EC01C25ED64F288302969093B0
:10498000B8098093B70932978081898380819181AA
:10499000892B29F10091B7091091B809E054F10968
:1049A000E801C25ED64F0F5411090A1B1B0B60EBC6
:1049B0007FEF6A1B7B0BA057BF4FA8014E0F5F1FF5
:1049C000819189939B012E0F3F1F8D919C9111978F
:1049D0002817390790F35093B8094093B7096091AD
:1049E000DC107091DD1082EE90E10E94551960910B
:1049F000D0097091D1098EE199E00E94721980E08E
:104A0000DF91CF911F910F91FF90EF90DF90CF90AA
:104A10000895BF92CF92DF92EF92FF920F931F9370
:104A2000CF93DF93CDB7DEB7C459D1090FB6F89451
:104A3000DEBF0FBECDBF7C01DC0119961C92FC01CC
:104A400012861386148615861092B8091092B7093B
:104A50008FE190E09093D1098093D0098091C809AB
:104A6000882309F448C0B12CC12CD12C0B2D10E0A7
:104A7000000F111F035F154FD8018D919C91FC0110
:104A8000EE0FFF1FEE0FFF1FEE0FFF1FE81BF90BCE
:104A9000EF5EFD4F2281AE014F5A5F4F65818381EA
:104AA0009481C1DDF80120813181F901EE0FFF1FF2
:104AB000EE0FFF1FEE0FFF1FE21BF30BEF5EFD4F2C
:104AC00060817181CE010F9674D960962FAD609789
:104AD000CF56DF4F88819981C159D0409927820FE5
:104AE000911D0696C80ED91EB3948091C809B816B8
:104AF00008F4BCCF02C0C12CD12C8091D009909178
:104B0000D1098C0D9D1D29E9EEE1F9E0DF011D922F
:104B10002A95E9F76091690B633A59F420910B0AE1
:104B200030910C0A820F931F9093D1098093D00982
:104B30000AC02091D6093091D709820F931F909314
:104B4000D1098093D0098091B7099091B809FC01EF
:104B5000E25EF64F20E3208322E821832091D009F2
:104B60003091D109A9014450510952832450238323
:104B700022E0248321E0258316829C01285F3F4F99
:104B800044E04783633A91F509969093B80980937E
:104B9000B70960910B0A70910C0AF901E25EF64FB9
:104BA00060836115710509F451C00091B80C109132
:104BB000B90C80E090E0A0E02091B7093091B809ED
:104BC000A9014F5F5F4F5093B8094093B709800F19
:104BD000911FFC018081225E364FF9018083AF5F17
:104BE0008A2F90E08617970738F330C00996909384
:104BF000B8098093B7096091D6097091D709F90176
:104C0000E25EF64F60836115710501F100911609AE
:104C10001091170980E090E0A0E02091B709309151
:104C2000B809A9014F5F5F4F5093B8094093B70986
:104C3000800F911FFC018081225E364FF901808335
:104C4000AF5F8A2F90E08617970738F382EAD70183
:104C50008C938091B7099091B8099C012F5F3F4FC9
:104C60003093B8092093B7094C91FC01E25EF64FEE
:104C70004083D901A25EB64F44E14C0D4C9372E0E3
:104C8000728364E06383D70115962C91159716966D
:104C90003C91169717964C91179718965C91189718
:104CA00054834583368327837087618719962C91B7
:104CB00019971286138614862587768767871A9632
:104CC0002C911A971B963C911B971C964C911C9704
:104CD0001D965C91508B418B328B238B20E3248B70
:104CE00046969093B8098093B709C58A8091C80900
:104CF000882309F4A4C010E00F2EF0E3FF2EF02D5E
:104D000006E0812F90E0880F991FFC01E35FF54FCB
:104D10006F0180819181FC01EE0FFF1FEE0FFF1FDD
:104D2000EE0FFF1FE81BF90BEF5EFD4F2281AE0176
:104D30004F5A5F4F65818381948175DCD6018D91D7
:104D40009C91FC01EE0FFF1FEE0FFF1FEE0FFF1FE8
:104D5000E81BF90BEF5EFD4F60817181CE010F966C
:104D600028D88091B7099091B809FC01E25EF64F0E
:104D7000F08261964EAD5FAD6197CF56DF4F2881CF
:104D80003981C159D040622F640F6C5F6183028307
:104D900004969093B8098093B70943834115510550
:104DA000C1F0BC01FE013F96DC01A25EB64F81E07E
:104DB00090E08C0F9D1F840F951F0E96E190ED9251
:104DC000E817F907D9F7460F571F5093B8094093D2
:104DD000B7098091B7099091B809FC01E25EF64FDE
:104DE000CD56DF4F4881C359D040408302969093FF
:104DF000B8098093B709218321153105D1F0AC01A1
:104E0000FE01EF5AFF4FDC01A25EB64F81E090E059
:104E10008C0F9D1F820F931F805B9F4F61916D933D
:104E2000E817F907D9F7240F351F3093B8092093F5
:104E3000B7091F5F8091C809181708F462CF609105
:104E4000DC107091DD1082EE90E10E9455196091A6
:104E5000D0097091D1098EE199E00E94721980E029
:104E6000CC56DF4F0FB6F894DEBF0FBECDBFDF913B
:104E7000CF911F910F91FF90EF90DF90CF90BF9057
:104E800008959F92AF92BF92CF92DF92EF92FF92DE
:104E90000F931F93CF93DF937C015B0101E112E03D
:104EA000C0E0D0E06E01F80160817181C7010E940D
:104EB0000C39892B09F087C0F5018081833A91F57F
:104EC000F601EE0FFF1FEE0FFF1FEE0FFF1FEC1995
:104ED000FD09EF5EFD4F8681811107C082EAF50171
:104EE000808384E0818781E079C0F601EE0FFF1FA7
:104EF000EE0FFF1FEE0FFF1FEC19FD09EF5EFD4FD8
:104F00004381548125816281C501805B9F4FC2DB53
:104F10008093131182EAF5018083809113118187B8
:104F200081E05CC0803AE9F4F601EE0FFF1FEE0F5E
:104F3000FF1FEE0FFF1FEC19FD09EF5EFD4FA501EE
:104F4000405B5F4F22816581838194816CDB80931C
:104F5000131182EAF501808380911311818781E02A
:104F60003DC0813AC1F5F1E2FC1730F18FEFC81A6C
:104F7000D80AE601CC0FDD1FCC0FDD1FCC0FDD1FE3
:104F8000CC19DD09CF5EDD4F68817981C5010E96B0
:104F90000E94D91EA501405B5F4F2A816D818B81E4
:104FA0009C8141DB8093131182EAF501808380911B
:104FB0001311818781E012C082EAF501808382E0CB
:104FC000818781E00BC02196095F1F4FC332D10555
:104FD00009F068CF02C081E001C080E0DF91CF918D
:104FE0001F910F91FF90EF90DF90CF90BF90AF9007
:104FF0009F900895CF9386E297E00E942F03C82FD9
:1050000087E297E00E942F032C2F30E0322F2227D7
:10501000A901480F511DCA01CF91089560E181E0B7
:1050200097E00E94F70381E097E00E942F0381112F
:10503000FACF08951F93CF93DF93162FC42FD52F48
:1050400083E097E00E942F03811101C0E7DF612F09
:1050500080E097E00E94F7036D2F84E097E00E94C4
:10506000F7036C2F85E097E00E94F70361E081E091
:1050700097E00E94F70381E097E00E942F038111DF
:10508000FACF83E097E00E942F03833119F0C6DF47
:1050900080E001C081E0DF91CF911F91089583E00E
:1050A00097E00E942F038331A1F462E081E097E052
:1050B0000E94F70381E097E00E942F038111FACF4D
:1050C00083E097E00E942F03843129F0A7DF80E07E
:1050D000089580E0089581E008958F929F92AF92A5
:1050E000BF92CF92DF92EF92FF920F931F93CF93D5
:1050F000DF936C017B016115710509F445C06130D6
:1051000084E0780748F52EC02197C401977098581D
:105110000E942F03F80181938F01FFEF8F1A9F0ADE
:10512000209791F7AE0CBF1CF601EE0DFF1D10820B
:105130006B2D88E297E00E94F7036A2D89E297E0E1
:105140000E94F70360E481E097E00E94F7038AE1A0
:105150008A95F1F700C018C00F2EFEEFEF2EF3E096
:10516000FF2EF02D88E297E00E942F03A82E89E2FF
:1051700097E00E942F03B12CBA2CAA24A80EB11CD0
:105180004501E7018601C0CF81E090E0DF91CF913A
:105190001F910F91FF90EF90DF90CF90BF90AF9055
:1051A0009F908F90089568E081E097E00E94F70358
:1051B00081E097E00E942F038111FACF0895AF920A
:1051C000BF92CF92DF92EF92FF920F931F93CF93F4
:1051D000DF936C017B016115710509F456C080E213
:1051E00097E00E942F03C82FD0E0DC2FCC2781E26C
:1051F00097E00E942F03C80FD11DCE15DF0508F4DC
:105200005BC049C08FE99FE00197F1F700C0000043
:1052100080E297E00E942F03082F10E0102F002754
:1052200081E297E00E942F039801280F311D2197FA
:10523000209711F4B8DF58C02E153F0518F32BC086
:105240002197C8019770F60161916F01985A0E94E9
:10525000F7030F5F1F4F209799F7EA0CFB1C6F2D88
:1052600084E297E00E94F7036E2D85E297E00E94AA
:10527000F70360E281E097E00E94F70381E097E0A6
:105280000E942F038111FACF03C0C0E0D0E02CC0F0
:10529000C1E0D0E029C084E297E00E942F03A82E4D
:1052A00085E297E00E942F03B12CBA2CAA24A80E05
:1052B000B11C8501E701C4CF8FE99FE00197F1F7A9
:1052C00000C0000080E297E00E942F03C82FD0E0CA
:1052D000DC2FCC2781E297E00E942F039E01280F4C
:1052E000311DC9EED3E0A8CFCE01DF91CF911F9140
:1052F0000F91FF90EF90DF90CF90BF90AF90089507
:10530000FC0127812068278320852260208769E0AF
:1053100070E055CF08954F925F926F927F928F9277
:105320009F92AF92BF92CF92DF92EF92FF920F9334
:105330001F93CF93DF93813009F093C02091D70C56
:1053400030E0322F22278091D80C280F311D809118
:10535000D90C90E0982F88274091DA0C840F911D8A
:10536000AC01420F531F4930510520F08FEC9CE0F7
:10537000C7DFAFC27C01F694E794F694E794F69405
:10538000E794A701440F551F440F551F440F551FA5
:105390004817590718F48FEFE81AF80AE701CC0FFD
:1053A000DD1FCC0FDD1FCC0FDD1F83E08E0D809342
:1053B000D40CE092D70CE114F10409F44AC089013D
:1053C000000F111F0A5F164FA8EDBCE0B70168522D
:1053D000734F40E050E0C12CD12C812C912C540112
:1053E000839433C09A01280F391F2C173D0700F50D
:1053F00020813181232B71F02C9124013501082E5D
:1054000004C0440C551C661C771C0A94D2F7422A2F
:105410004C920EC024013501082E04C0440C551CCA
:10542000661C771C0A94D2F740942C9124212C936B
:105430000196329688309105A9F6005F1F4F485FAC
:105440005F4F1196A617B70721F0F8018C2D9D2DFF
:10545000C9CFB701675F7F4F8FEC9CE0B0DE80E083
:10546000C6C0823009F074C0E091D70CF0E0FE2F86
:10547000EE278091D80CE80FF11D8091D90C90E0B7
:10548000982F88272091DA0C820F911D9C012E0FF6
:105490003F1F2930310520F08FEC9CE031DF19C22D
:1054A0008C01169507951695079516950795980101
:1054B000220F331F220F331F220F331F28173907E4
:1054C00010F40F5F1F4F83E0800F8093D40C009384
:1054D000D70C0115110539F533C041915191452B78
:1054E00071F0F880AC01BD01022E04C0440F551FBD
:1054F000661F771F0A94D2F74F2948830EC0AC016C
:10550000BD01022E04C0440F551F661F771F0A9469
:10551000D2F740955881542358832F5F3F4F28304E
:105520003105D9F60DC0EE0FFF1FED5DF54F20E000
:1055300030E0C8EDDCE081E090E0A0E0B0E0CDCF6D
:10554000B801675F7F4F8FEC9CE039DE80E0A6C03A
:10555000833009F04CC02091D70C30E0322F222745
:105560008091D80C280F311D4091D90C50E0542F58
:1055700044278091DA0C480F511DCA01820F931FF6
:10558000059720F08FEC9CE0BBDEA3C1BA01660F4B
:10559000771F83E0860F8093D40C6093D70C41155E
:1055A0005105F1F0E9EDFCE0A0E0B0E080E090E032
:1055B000A20FB31FAA0FBB1FED01C55FDE4E1881FE
:1055C000C981A654B34F1C931196CC93DF01119758
:1055D000CC9310830196DC0132968417950741F72E
:1055E000675F7F4F8FEC9CE0EADD80E089C084300C
:1055F00009F054C02091D70C30E0322F222780913F
:10560000D80C280F311D4091D90C50E0542F44275D
:105610008091DA0C480F511DCA01820F931F099720
:1056200020F08FEC9CE06CDE54C1BA01660F771F4E
:10563000C901880F991FFC01E75EFD4EDC01A855EA
:10564000B34F8D919C919183808383E0860F8093EB
:10565000D40C6093D70C41155105C9F0A8EDBCE0FE
:10566000E9EDFCE0C0E0D0E080E090E0C20FD31FA5
:10567000CC0FDD1FC855D34F1881C981CC9310833F
:105680000196EC01129632968417950779F7675FB9
:105690007F4F8FEC9CE093DD80E062C0853081F528
:1056A0008091D70C90E0982F88272091D80C820FFA
:1056B000911D8930910520F08FEC9CE021DE09C11D
:1056C000FC01EE0FFF1FEA5FF64F8091D90C90E0CE
:1056D000982F88272091DA0C820F911D21E030E06D
:1056E000892B11F420E030E03183208386E0809321
:1056F000D40C6CE070E08FEC9CE061DD80E09EC03B
:10570000863071F58091D70C90E0982F88272091F2
:10571000D80C820F911D8530910520F08FEC9CE014
:10572000EFDDD7C02091D90C30E0322F22274091F5
:10573000DA0C240F311D880F991FFC01E654F34F3A
:1057400031832083FC01E55FFE4E3183208386E0B8
:105750008093D40C6CE070E08FEC9CE030DDB9C03D
:105760008F3009F06BC08091D70C90E0982F88277C
:105770002091D80C820F911D6091D90C70E0762F8A
:1057800066272091DA0C620F711D9B01280F391FCB
:105790002930310520F08FEC9CE0B2DD9AC08B01FE
:1057A0001695079516950795169507959801220F5A
:1057B000331F220F331F220F331F2617370710F412
:1057C0000F5F1F4F26E02093D40C0115110581F1C6
:1057D000EC01CC0FDD1FCA5FD64FACEDBCE004522C
:1057E000134F40E050E0E12CF12C1EC09C01240F2F
:1057F000351F2617370760F42C9130E0082E02C0C1
:10580000359527950A94E2F7217033273183208359
:10581000019632968830910549F76096485F5F4F50
:105820001196A017B10721F0FE018E2D9F2DDECF1E
:105830006CE070E08FEC9CE0C2DC4BC0803109F082
:1058400048C06091D70C70E0762F66278091D80C05
:10585000680F711DC091D90CD0E0DC2FCC2780914E
:10586000DA0CC80FD11DCE01860F971F059720F0C7
:105870008FEC9CE045DD2DC086E08093D40C209712
:1058800019F1EDEDFCE040E050E080E090E0460FE3
:10589000571FDF0111972C9130E0322F2227A08172
:1058A0002A0F311D440F551FDA01A654B34F2D9313
:1058B0003C93DA01A55FBE4E2D933C930196AC015B
:1058C00032968C179D0719F76CE070E08FEC9CE026
:1058D00076DCDF91CF911F910F91FF90EF90DF90D9
:1058E000CF90BF90AF909F908F907F906F905F9080
:1058F0004F9008958230910561F08330910571F0E9
:1059000021E08130910509F020E08430910559F0C3
:1059100001C022E08530910559F001C023E08630B6
:10592000910551F001C024E08F30910539F001C09C
:1059300025E0409729F005C026E003C02FE001C014
:1059400020E1822F0895CF93DF93D091B306811188
:1059500003C01092B3060BC08D2F90E080319105EB
:1059600008F0F8C0FC01EA57FF4F0C941A388091F8
:10597000B206811104C00E9499068093B20681E0AC
:105980008093B30607C183E097E00E942F038093C2
:10599000FF10873189F028F4882351F0833161F1B9
:1059A000D9C0883169F18A51843008F0D3C028C049
:1059B00082E08093B306EEC08091AE069091AF0670
:1059C000A091B006B091B106892B8A2B8B2B51F494
:1059D00085E08093B30661E070E08091B2060E949A
:1059E000D806B8C086E08093B30661E070E080918D
:1059F000B2060E94D806AEC083E08093B306CAC048
:105A00000DDBA8C046EF51E061E083E013DB8823A3
:105A100021F083E08093B306BDC081E08093B3069C
:105A2000B9C03DDB811104C084E08093B306B2C0ED
:105A300081E08093B306AEC081E08093B306AAC034
:105A4000C091B2068C2F0E948408882309F482C07A
:105A500061E070E08C2F0E94D80686E08093B30648
:105A6000C6E07EC0C091B2068C2F0E9484088823B5
:105A700009F470C04091AE065091AF066091B00637
:105A80007091B106483E53406105710578F0209150
:105A9000180930911909232B79F462E370E08C2FF7
:105AA0000E94D80687E08093B30674C080911809DD
:105AB00090911909892B21F089E08093B3066AC07F
:105AC00081E08093B30666C08091B2060E9484088C
:105AD000882309F43FC01092AE061092AF061092D0
