:10000000C7C70000E6C70000E4C70000E2C7000061
:10001000E0C70000DEC70000DCC70000DAC7000050
:10002000D8C70000D6C70000D4C70000D2C7000060
:10003000D0C700000C946B11CCC70000CAC70000E9
:10004000C8C700000C944D0FC4C70000C2C7000011
:10005000C0C700000C943911BCC70000BAC700002B
:10006000B8C700000C94F31C0C94461D0C941D1D85
:10007000B0C70000AEC70000ACC70000AAC70000B0
:10008000A8C70000A6C70000A4C70000A2C70000C0
:100090000C946F1D0C94C21D0C94991D9AC70000FE
:1000A00098C7000096C700000C949F1192C70000EB
:1000B00090C700008EC700008CC700008AC70000F0
:1000C00088C7000086C7000084C70000AA15AA15CB
:1000D0007A167A166F180E176F186F186F186F1838
:1000E0006F186F186F186F185617FE177A197A194C
:1000F000311A311A321BB61A321B321B321B321B19
:10010000321B321B321B321BFE1AFE1AE233EE3355
:10011000213430343B343F3451347D348C349B347F
:10012000C834E7354E35D533E735E13500C0C10178
:10013000C30302C2C60607C705C5C404CC0C0DCD57
:100140000FCFCE0E0ACACB0BC90908C8D81819D9C7
:100150001BDBDA1A1EDEDF1FDD1D1CDC14D4D515F7
:10016000D71716D6D21213D311D1D010F03031F1E7
:1001700033F3F23236F6F737F53534F43CFCFD3D17
:10018000FF3F3EFEFA3A3BFB39F9F83828E8E92907
:10019000EB2B2AEAEE2E2FEF2DEDEC2CE42425E5B7
:1001A00027E7E62622E2E323E12120E0A06061A127
:1001B00063A3A26266A6A767A56564A46CACAD6DD7
:1001C000AF6F6EAEAA6A6BAB69A9A86878B8B97947
:1001D000BB7B7ABABE7E7FBF7DBDBC7CB47475B577
:1001E00077B7B67672B2B373B17170B05090915167
:1001F0009353529296565797559594549C5C5D9D97
:100200005F9F9E5E5A9A9B5B995958988848498986
:100210004B8B8A4A4E8E8F4F8D4D4C8C4484854536
:1002200087474686824243834181804000C18140A6
:1002300001C0804101C0804100C1814001C08041B6
:1002400000C1814000C1814001C0804101C08041A6
:1002500000C1814000C1814001C0804100C1814096
:1002600001C0804101C0804100C1814001C0804186
:1002700000C1814000C1814001C0804100C1814076
:1002800001C0804101C0804100C1814000C1814066
:1002900001C0804101C0804100C1814001C0804156
:1002A00000C1814000C1814001C0804101C0804146
:1002B00000C1814000C1814001C0804100C1814036
:1002C00001C0804101C0804100C1814000C1814026
:1002D00001C0804101C0804100C1814001C0804116
:1002E00000C1814000C1814001C0804100C1814006
:1002F00001C0804101C0804100C1814001C08041F6
:1003000000C1814000C1814001C0804101C08041E5
:1003100000C1814000C1814001C0804100C18140D5
:1003200001C0804101C0804100C181403C48544D22
:100330004C3E0D0A3C484541443E0D0A3C5449544C
:100340004C453E4B494520465352205452503C2F79
:100350005449544C453E0D0A3C7374796C652074C5
:100360007970653D22746578742F637373223E0D36
:100370000A2376656761207B77696474683A333253
:100380003070783B20626F726465723A3270782008
:10039000736F6C696420626C61636B3B20626163A4
:1003A0006B67726F756E642D636F6C6F723A7369F1
:1003B0006C7665723B20626F726465722D72616447
:1003C0006975733A3570783B2070616464696E6753
:1003D0003A323070782032307078203070782032A5
:1003E0003070783B746578742D616C69676E3A6320
:1003F000656E7465723B6D617267696E3A3020613B
:1004000075746F3B7D2377726170207B64697370B4
:100410006C61793A206E6F6E653B6F7061636974D1
:10042000793A20302E383B706F736974696F6E3A79
:1004300066697865643B6C6566743A303B726967DF
:1004400068743A20303B746F703A20303B626F74AE
:10045000746F6D3A20303B70616464696E673A2056
:10046000313670783B20637572736F723A776169C9
:10047000743B0D0A6261636B67726F756E642D6306
:100480006F6C6F723A207267626128312C20312CB8
:1004900020312C20302E373235293B7A2D696E647D
:1004A00065783A203130303B6F766572666C6F77D5
:1004B0003A206175746F3B7D0D0A2377696E646F16
:1004C00077207B77696474683A2032303070783BEB
:1004D0006865696768743A20373070783B6D61727F
:1004E00067696E3A2035307078206175746F3B64AF
:1004F0006973706C61793A206E6F6E653B626163FF
:100500006B67726F756E643A20236666663B0D0AF0
:100510007A2D696E6465783A203230303B706F73A3
:100520006974696F6E3A2066697865643B6C6566CC
:10053000743A20303B72696768743A20303B746FBC
:10054000703A20303B626F74746F6D3A20303B70AC
:10055000616464696E673A20313670783B0D0A7DBC
:100560000D0A2E636C6F7365207B6D617267696E17
:100570002D6C6566743A2033363470783B6D617249
:1005800067696E2D746F703A203470783B637572B2
:10059000736F723A20706F696E7465723B7D0D0ADD
:1005A000696E7075747B77696474683A34357078F5
:1005B0003B206865696768743A323070783B7D74B7
:1005C000647B77696474683A323070783B20686580
:1005D000696768743A323070783B20746578742D9E
:1005E000616C69676E3A63656E7465723B7D3C2F22
:1005F0007374796C653E0D0A3C2F484541443E0DAD
:100600000A3C424F44593E0D0A3C73637269707450
:1006100020747970653D22746578742F6A61766103
:10062000736372697074223E0D0A66756E63746935
:100630006F6E2073686F77287374617465297B0D02
:100640000A646F63756D656E742E676574456C65BD
:100650006D656E7442794964282777696E646F7797
:1006600027292E7374796C652E646973706C6179B7
:10067000203D2073746174653B0D0A646F63756D72
:10068000656E742E676574456C656D656E74427930
:10069000496428277772617027292E7374796C65F5
:1006A0002E646973706C6179203D20737461746588
:1006B0003B0D0A7D0D0A3C2F7363726970743E0D09
:1006C0000A3C6469762069643D2277726170223E3B
:1006D0003C2F6469763E3C6469762069643D2277EC
:1006E000696E646F77223ED09ED0B6D0B8D0B4D0B9
:1006F000B0D0BDD0B8D0B52E2E2E3C2F6469763E3A
:100700003C6120687265663D22696E6465782E687A
:10071000746D6C223E3C68333ED09DD0B020D0B387
:10072000D0BBD0B0D0B2D0BDD183D18E3C2F6833F6
:100730003E3C2F613E0D0A3C6469762069643D228F
:1007400076656761223E3C5354524F4E473E0D0A38
:100750003C5052453E0D0A3C5350414E2069643D89
:1007600022646973706C617922205354594C453D61
:10077000224241434B47524F554E442D434F4C4F1D
:10078000523A2059454C4C4F57475245454E3B2015
:10079000464F4E542D53495A453A20323030252287
:1007A0003E5E5E5E5E5E5E5E5E5E5E5E5E5E5E5E89
:1007B0005E5E5E5E5E0D0A5E5E5E5E5E5E5E5E5EFE
:1007C0005E5E5E5E5E5E5E5E5E5E5E0D0A5E5E5EEE
:1007D0005E5E5E5E5E5E5E5E5E5E5E5E5E5E5E5E39
:1007E0005E0D0A5E5E5E5E5E5E5E5E5E5E5E5E5ECE
:1007F0005E5E5E5E5E5E5E3C2F5350414E3E0D0A75
:100800003C2F5052453E0D0A3C2F5354524F4E47F9
:100810003E0D0A3C464F524D20616374696F6E3D38
:10082000272F27206D6574686F643D27474554273F
:100830003E0D0A3C696E70757420747970653D27B1
:100840007375626D697427206E616D653D27526511
:100850006672657368272076616C75653D27526501
:10086000667265736827207374796C653D227769B9
:100870006474683A373070783B20666C6F61743A04
:1008800072696768743B20636C6561723A20626FBD
:10089000746822206F6E636C69636B3D2273686FAE
:1008A000772827626C6F636B2729223E3C64697648
:1008B000207374796C653D22636C6561723A626F76
:1008C00074683B206865696768743A3230707822D2
:1008D000203E3C2F6469763E3C7461626C653E3C10
:1008E00074723E3C74643E3C2F74643E3C74643EBF
:1008F0003C696E70757420747970653D27737562FC
:100900006D697427206E616D653D27537461727443
:10091000272076616C75653D2753746172742720BA
:100920006F6E636C69636B3D2273686F7728276213
:100930006C6F636B2729223E3C2F74643E3C7464C9
:100940003E3C2F74643E3C74643E3C2F74643E3CD9
:1009500074643E3C2F74643E3C74643E3C696E702B
:10096000757420747970653D277375626D6974279D
:10097000206E616D653D275570272076616C756529
:100980003D2726233936353027206F6E636C696327
:100990006B3D2273686F772827626C6F636B272922
:1009A000223E3C2F74643E3C74643E3C2F74643E93
:1009B0003C2F74723E3C74723E3C74643E3C2F7417
:1009C000643E3C74643E3C2F74643E3C74643E3C24
:1009D0002F74643E3C74643E3C2F74643E3C7464EB
:1009E0003E3C696E70757420747970653D2773752F
:1009F000626D697427206E616D653D2745736327BD
:100A00002076616C75653D272623393636382720D8
:100A10006F6E636C69636B3D2273686F7728276222
:100A20006C6F636B2729223E3C2F74643E3C7464D8
:100A30003E3C2F74643E3C74643E3C696E70757439
:100A400020747970653D277375626D697427206E17
:100A5000616D653D27456E746572272076616C7502
:100A6000653D2726233936353827206F6E636C693C
:100A7000636B3D2273686F772827626C6F636B2707
:100A800029223E3C2F74643E3C2F74723E3C7472AB
:100A90003E3C74643E3C2F74643E3C74643E3C694E
:100AA0006E70757420747970653D277375626D6919
:100AB0007427206E616D653D2753746F7027207613
:100AC000616C75653D2753746F7027206F6E636C82
:100AD00069636B3D2273686F772827626C6F636B65
:100AE0002729223E3C2F74643E3C74643E3C2F74A4
:100AF000643E3C74643E3C2F74643E3C74643E3CF3
:100B00002F74643E3C74643E3C696E70757420744E
:100B10007970653D277375626D697427206E616D0C
:100B2000653D27446F776E272076616C75653D279C
:100B300026233936363027206F6E636C69636B3D30
:100B40002273686F772827626C6F636B2729223EB8
:100B50003C2F74643E3C74643E3C2F74643E3C2FD6
:100B600074723E3C2F7461626C653E3C2F464F525E
:100B70004D3E0D0A3C42523E0D0A3C2F6469763EC2
:100B80003C5343524950543E0D0A0920766172206D
:100B900074657874203D20646F63756D656E742E86
:100BA000676574456C656D656E7442794964282289
:100BB000646973706C617922292E6669727374435B
:100BC00068696C642E646174613B0D0A092076616A
:100BD000722043757258203D5E5E5E3B0D0A09200F
:100BE0007661722043757259203D5E5E5E3B0D0A50
:100BF0000920766172204375724669656C64203DF8
:100C00005E5E5E3B0D0A092076617220437572506C
:100C10006F73203D5E5E5E3B0D0A09207661722097
:100C200053747253697A65203D5E5E5E3B0D0A091E
:100C300020696628437572506F73213D323535291E
:100C40007B53747253697A653D313B7D0D0A0920EF
:100C500076617220537461727453796D203D204324
:100C6000757259202A203231202B20437572583B4F
:100C70000D0A0920206966284375724669656C640F
:100C8000213D323535297B0D0A09207661722073AA
:100C900074617274737472696E67203D2074657834
:100CA000742E737562737472696E6728302C2053CA
:100CB0007461727453796D293B0D0A092076617253
:100CC00020616464737472696E6731203D20223C38
:100CD0007370616E207374796C653D5C2262616330
:100CE0006B67726F756E643A7265645C223E223B7C
:100CF0000D0A09207661722073796D203D2074659C
:100D000078742E737562737472696E672853746198
:100D1000727453796D2C20537461727453796D2001
:100D20002B2053747253697A65293B0D0A0920768A
:100D3000617220616464737472696E6732203D2051
:100D4000223C2F7370616E3E223B0D0A09207661B2
:100D50007220656E64737472696E67203D207465DD
:100D600078742E737562737472696E672853746138
:100D7000727453796D202B2053747253697A652CE9
:100D8000746578742E6C656E677468293B0D0A096A
:100D900020646F63756D656E742E676574456C6550
:100DA0006D656E74427949642822646973706C6160
:100DB0007922292E696E6E657248544D4C203D2073
:100DC0007374617274737472696E67202B2061642E
:100DD00064737472696E6731202B2073796D202BD8
:100DE00020616464737472696E6732202B20656EB3
:100DF00064737472696E673B0D0A09207D0D0A3CAD
:100E00002F5343524950543E0D0A3C2F424F4459F0
:100E10003E0D0A3C2F48544D4C3E0D0A00312E33F6
:100E20002E362E312E342E312E323031372E3131B6
:100E30002E352E3000312E332E362E312E342E31DB
:100E40002E323031372E31312E342E3000312E33C8
:100E50002E362E312E342E312E323031372E313186
:100E60002E332E3000312E332E362E312E342E31AD
:100E70002E323031372E31312E322E3000312E339A
:100E80002E362E312E342E312E323031372E313156
:100E90002E312E3000312E332E362E312E332E327F
:100EA0003031372E302E332E3000312E332E362E69
:100EB000312E322E312E312E372E3000312E332E60
:100EC000362E312E322E312E312E362E3000312E4E
:100ED000332E362E312E322E312E312E352E30003D
:100EE000312E332E362E312E322E312E312E342EFF
:100EF0003000312E332E362E312E322E312E312E21
:100F0000332E3000312E332E362E312E322E312E0E
:100F1000312E322E3000312E332E362E312E322EFF
:100F2000312E312E312E30002B0F01012F0F0204F4
:100F300000001900000010010004000000460047F6
:100F400000F507B200B300FF07A400A8000B08C615
:100F500000C000C100C200C500C400ED07F207F3E5
:100F600007F4074203FFA001FBCF007D67003F4469
:100F7000002A33001F22001B19001B10001BCA0986
:100F80002000E50F2000F90F3A000B0B5000010084
:100F900011241FBECFEFD1E2DEBFCDBF00E00CBFFA
:100FA00015E0A0E0B2E0ECEDF7E700E00BBF02C017
:100FB00007900D92A63BB107D9F721E1A6EBB5E06A
:100FC00001C01D92A337B207E1F70E94AF370C941E
:100FD000EC3B16C8FC018081089592B184E089271A
:100FE00082B9089508950895089582E084BD85EF3B
:100FF00085BDEEE6F0E0808182608083089582E026
:101000008093B00087EF8093B100E0E7F0E080814B
:101010008260808308951092A0008DE08093A100EB
:10102000E2E7F0E080818260808308950C94F93AD1
:101030000895282F30E0F901EE0FFF1FE20FF31F94
:10104000E85DF04F25913491E82FF0E0E152F74F41
:101050008081A90164E0869F400D511D1124CA01C1
:101060000895282F30E044E1849FF0011124EF5AC5
:10107000F04FA591B4919C91F901E85EF64F408143
:1010800051E0540F508354E1529FF001539FF00DF3
:101090001124E15BF04FA591B4915C91F22FEE2702
:1010A000E40FF11DE059FF4E508393FF0FC0F9018B
:1010B000E295F295F07FFE27E07FFE27EF52F04F9A
:1010C000268537852F5F3F4F378726879C7171F0C4
:1010D00021E030E0A90102C0440F551F8A95E2F7D4
:1010E000CA019091F405892B8093F40508950F931C
:1010F0001F93CF93DF93C82FD0E0FE01EF50F74F3F
:101100009081923009F1FE01E295F295F07FFE2781
:10111000E07FFE27EA57F04F059114918ADF019690
:10112000FC0185919491CC51D74F2881FC0137E087
:10113000239FE00DF11D1124359685919491880F20
:10114000991F800F911F0AC0CC0FDD1FCC0FDD1F30
:10115000CC0FDD1FC451DA4F8E819F81DF91CF917B
:101160001F910F910895EDE3FFE0259134918217CF
:10117000930799F060E06F5F262F30E0F901EE0FE2
:10118000FF1FE20FF31FEE0FFF1FE35CF04F4591CF
:1011900054918417950779F703C020E030E060E0B0
:1011A000E62FF0E0E257F04FE491EE2319F0E13042
:1011B00079F10895F22FEE27E059FF4E9081F90161
:1011C000E453F74F808198130FC04091C00F81E026
:1011D00090E0BC0102C0660F771F2A95E2F79B01E1
:1011E000242B2093C00F0895F901E552F84F81E0B8
:1011F0008083F901E295F295F07FFE27E07FFE27DC
:10120000EF52F04F80819181019691838083089500
:101210004091C00F81E090E0BC0102C0660F771FD3
:101220002A95E2F79B01242B2093C00F08958EBDD1
:1012300000000DB407FEFDCF8EB50895CF93DF9368
:10124000C82FD92F28988FE0F2DF8D2FF0DF8C2F59
:10125000EEDF80E0ECDF289ADF91CF910895CF9206
:10126000DF92EF92FF920F931F93CF93DF93EC01E6
:101270006A0141155105B1F0062F172F7C01E40ECC
:10128000F51E28988FE0D3DF8D2FD1DF8C2FCFDF95
:10129000219680E0CCDFF80181938F01289ACE154A
:1012A000DF0579F7C601DF91CF911F910F91FF9074
:1012B000EF90DF90CF900895CF92DF92EF92FF9260
:1012C0000F931F93CF93DF93EC016A0141155105F2
:1012D000A9F0062F172F7C01E40EF51E289880EF49
:1012E000A6DF8D2FA4DF8C2FA2DF2196F80181913C
:1012F0008F019DDF289ACE15DF0581F7C601DF91AA
:10130000CF911F910F91FF90EF90DF90CF900895B4
:10131000EF92FF920F931F93259A2D9A2D982FEFFE
:1013200083EC99E0215080409040E1F700C000003C
:101330006C9A74982FEF83EC99E021508040904094
:10134000E1F700C000006C982FEF83EC99E021508A
:1013500080409040E1F700C0000080E090E490936E
:10136000B30B8093B20B80E090E69093BF0880931C
:10137000BE0880E098E49093B50B8093B40B80E0B6
:1013800098E69093C1088093C00880E090E5909320
:10139000B70B8093B60B80E090E79093C3088093DF
:1013A000C20880E098E59093B90B8093B80B80E079
:1013B00098E79093C5088093C40860E880E090E0C7
:1013C00037D065E58BE190E033D065E58AE190E0C8
:1013D0002FD06894EE24E1F8F12C0EED10E02CEC07
:1013E00030E04BEB50E06AEA70E080E090E051D0F2
:1013F0002CE430E040E050E060E070E08AE090E013
:101400006FD02EEF30E040E050E060E070E08AE026
:1014100090E081D020E030E04FEF50E06FEF70E0DF
:101420008FEF90E093D01F910F91FF90EF90089570
:101430001F93CF93DF93D82F192FC62F289880EFB3
:10144000F6DE812FF4DE8D2FF2DE8C2FF0DE83307E
:1014500011F0289A5DDF289A81E0DF91CF911F91EA
:1014600008951F93CF93DF93C82FD0E0DC2FCC27B4
:10147000CF5FDB4FCE01DCDF10E001C01F5FCE018C
:10148000DDDE882311F01F3FC9F7DF91CF911F9157
:101490000895EF920F931F93CF93DF93162FD42FBE
:1014A000C22F682F89E090E0C3DF612F8AE090E0CF
:1014B000BFDF6D2F8BE090E0BBDF6C2F8CE090E006
:1014C000B7DF602F8DE090E0B3DF6E2D8EE090E00F
:1014D000AFDF81E0DF91CF911F910F91EF900895E1
:1014E0001F93CF93DF93162FD42FC22F682F8FE037
:1014F00090E09EDF612F80E190E09ADF6D2F81E127
:1015000090E096DF6C2F82E190E092DF81E0DF9146
:10151000CF911F9108951F93CF93DF93162FD42F50
:10152000C22F682F81E090E083DF612F82E090E09E
:101530007FDF6D2F83E090E07BDF6C2F84E090E015
:1015400077DF81E0DF91CF911F9108951F93CF93B3
:10155000DF93162FD42FC22F682F85E090E068DF2D
:10156000612F86E090E064DF6D2F87E090E060DF20
:101570006C2F88E090E05CDF81E0DF91CF911F91DC
:10158000089590E00496982F8827860F971F56CECF
:1015900008951F93CF93DF93182F60E270E0F1DF7F
:1015A000C82FD0E061E270E0812FEBDFDC2FCC2789
:1015B0009E01282BC901DF91CF911F9108951F93A0
:1015C000CF93DF93182F66E270E0DBDFC82FD0E007
:1015D00067E270E0812FD5DFDC2FCC279E01282B1E
:1015E000C901DF91CF911F9108959B0190E004966E
:1015F000982F8827642F820F931F1ACF089588236E
:1016000041F08091CD05813041F018F08230C1F079
:1016100024C081E08093CD0520C0462F61E070E0BA
:1016200080E0E3DF61E070E080E0ABDF882321F061
:1016300082E08093CD0511C08FEF8093CD050DC062
:1016400061E070E080E09DDF882321F082E08093FC
:10165000CD0503C08FEF8093CD058091CD05089512
:10166000882341F08091CC05813041F018F0823020
:10167000C1F024C081E08093CC0520C0462F61E0FA
:1016800070E081E0B2DF61E070E081E07ADF882322
:1016900021F082E08093CC0511C08FEF8093CC05C0
:1016A0000DC061E070E081E06CDF882321F082E012
:1016B0008093CC0503C08FEF8093CC058091CC053F
:1016C0000895882341F08091CB05813041F018F0D6
:1016D0008230C1F024C081E08093CB0520C0462F2A
:1016E00061E070E082E081DF61E070E082E049DF8C
:1016F000882321F082E08093CB0511C08FEF809387
:10170000CB050DC061E070E082E03BDF882321F073
:1017100082E08093CB0503C08FEF8093CB0580914F
:10172000CB050895CF93C82F692F80E194E080DE28
:101730006C2F81E194E07CDECF910895CF93DF930D
:10174000EC0168818CE094E073DE69818DE094E0C7
:101750006FDE6A818EE094E06BDE6B818FE094E057
:1017600067DEDF91CF910895CF93C82F692F80E175
:1017700095E05EDE6C2F81E195E05ADECF91089511
:10178000CF93DF93EC0168818CE095E051DE6981B5
:101790008DE095E04DDE6A818EE095E049DE6B815B
:1017A0008FE095E045DEDF91CF910895CF93C82F6C
:1017B000692F80E196E03CDE6C2F81E196E038DE17
:1017C000CF910895CF93DF93EC0168818CE096E090
:1017D0002FDE69818DE096E02BDE6A818EE096E057
:1017E00027DE6B818FE096E023DEDF91CF910895B5
:1017F0009F92AF92BF92CF92DF92EF92FF920F93A0
:101800001F93CF93DF93982E5B017A01E90164E285
:1018100070E0B7DEC82ED12C65E270E0892DB1DE14
:101820001C2D0027082B0A0D1B1D98013770C92C91
:10183000D12CF601EE0FFF1FEE54F44F8081918101
:10184000820F931FA9014C0F5D1F41305840B8F023
:1018500040E058E05A01A21AB30AA501B7012CDDF5
:10186000AE014A195B09B7016A0D7B1DF601EE0F47
:10187000FF1FEE54F44F808191811EDD03C0AE0145
:10188000B7011ADDC00FD11F4D2F64E270E0892D22
:10189000ACDE4C2F65E270E0892DA7DEDF91CF91A1
:1018A0001F910F91FF90EF90DF90CF90BF90AF907E
:1018B0009F900895DF92EF92FF920F931F93CF9323
:1018C000DF93D82E0FEF1FEFE12CF12C8D2D61DE71
:1018D000EC01009719F08D2D5CDE7C01EC16FD0605
:1018E00029F0015011090115110581F7C701DF9198
:1018F000CF911F910F91FF90EF90DF900895DF92AD
:10190000EF92FF920F931F93CF93DF93D82E8B010B
:101910007A01E901CFDF8C179D0718F48D2DCADFFE
:10192000EC019E01A701B8018D2D62DFCE01DF9190
:10193000CF911F910F91FF90EF90DF90089520E3DA
:10194000FC0120833296862F82958F7090E1899FCB
:10195000601911246A3010F4605D01C0695C629303
:10196000882311F0682FEFCF08958FB78078809388
:10197000D807F8948091D80708958091D8078823D4
:1019800009F078948091D8070895A8952FE088E110
:1019900090E00FB6F894A895809360000FBE209356
:1019A000600008958091BE0291E0980F9093BE026E
:1019B00008958091BD0291E0980F9093BD02089523
:1019C000CF93DF93C82FD62FD0DFEC2FF0E0E8586D
:1019D000F84FD083DD23A9F0EC2FE695E695E69548
:1019E000F0E0E65FF94F4081C77021E030E0C901C7
:1019F00002C0880F991FCA95E2F7809584238083DF
:101A000013C0EC2FE695E695E695F0E0E65FF94F1A
:101A10004081C77021E030E0C90102C0880F991FE2
:101A2000CA95E2F7842B8083A8DFDF91CF910895D8
:101A30001F93CF93DF93182FEB0197DFE12FF0E097
:101A4000EE0FFF1FE854F94FD183C083CD2BA9F0CF
:101A5000E12FE695E695E695F0E0E350FA4F4081F8
:101A6000177021E030E0C90102C0880F991F1A9554
:101A7000E2F780958423808313C0E12FE695E695F5
:101A8000E695F0E0E350FA4F4081177021E030E036
:101A9000C90102C0880F991F1A95E2F7842B808331
:101AA0006CDFDF91CF911F910895282F30E0F9016D
:101AB000EE0FFF1FEE0FFF1FEA51FA4F1082118247
:101AC00012821382F901E354F74F608194E6699F13
:101AD000B00111249091E5059F5F890FA9CF08956A
:101AE0002F923F924F925F926F927F928F929F922E
:101AF000AF92BF92CF92DF92EF92FF920F931F931C
:101B0000CF93DF93382E90E0FC01EE0FFF1F8E0F76
:101B10009F1FFC01E65DF04F4490512CB12C032D2A
:101B200010E0E801C152D74FC801880F991F9C01EE
:101B30002953364F3901FC01EC5FF64F6F01C801A4
:101B4000880F991F880F991F9C012A513A4F49010C
:101B5000780188818F5F8883841123C01882209048
:101B6000E50523942394230C00DFE22DF0E0EE0F33
:101B7000FF1FE854F94FA080B180FFDEA094B0941D
:101B8000F301B182A082F601808191818A159B05C3
:101B900010F4B182A0826FEF7FEF822D49DFBB246A
:101BA000B394F40180819181A281B381088004C043
:101BB000B695A795979587950A94D2F780FF03C0AD
:101BC0005394541428F2541012C0832D6EDFF70181
:101BD000E152F74F80818F5F581629F0F701E152EB
:101BE000F74F808304C0F701E152F74F1082F701ED
:101BF000EC51F74F10828B2DDF91CF911F910F91F8
:101C0000FF90EF90DF90CF90BF90AF909F908F901C
:101C10007F906F905F904F903F902F9008950F931B
:101C20001F93CF93DF93E82FF0E0DF01AF50B74F62
:101C30009C91923021F4FD01108280E058C0DF01B8
:101C4000A295B295B07FBA27A07FBA27AF52B04F06
:101C500018962D913C9119972F5F3F4F19963C9301
:101C60002E931897DF01A651BA4F9C919F5F9C93CA
:101C7000DF01AD5EB64F2C91921338C0DF01A15247
:101C8000B74F41E050E060E070E00C9004C0440FBA
:101C9000551F661F771F0A94D2F7DF01AA0FBB1FDB
:101CA000AA0FBB1FED01CF53D04F088119812A81A4
:101CB0003B81042B152B262B372B088319832A8372
:101CC0003B83AA51BA4F0D911D912D913C911397D1
:101CD000402B512B622B732B4D935D936D937C9313
:101CE0001397E651FA4F1082FBDE01C080E0DF91CE
:101CF000CF911F910F910895CF92DF92EF92FF92B3
:101D0000CF93C82F6A017B0130DEEC2FF0E0EE0F9D
:101D1000FF1FEE0FFF1FE85EF94FC082D182E28203
:101D2000F382CD28CE28CF28A9F0EC2FE695E695B2
:101D3000E695F0E0E950FA4F4081C77021E030E0CD
:101D4000C90102C0880F991FCA95E2F780958423C4
:101D5000808313C0EC2FE695E695E695F0E0E95018
:101D6000FA4F4081C77021E030E0C90102C0880FFE
:101D7000991FCA95E2F7842B8083FFDDCF91FF90F6
:101D8000EF90DF90CF900895CF93C82FEEDDEC2F2A
:101D9000E695E695E695F0E0E350FA4F208130E0D5
:101DA0008C2F877002C0359527958A95E2F720FF22
:101DB0000DC0EC2FF0E0EE0FFF1FE854F94F20812B
:101DC0003181C1E0232B19F0C0E001C0C0E0D5DDB6
:101DD0008C2FCF910895CF93C82FC7DDEC2FE695B8
:101DE000E695E695F0E0E950FA4F208130E08C2F3F
:101DF000877002C0359527958A95E2F720FF13C0BA
:101E0000EC2FF0E0EE0FFF1FEE0FFF1FE85EF94F23
:101E10004081518162817381C1E0452B462B472B64
:101E200019F0C0E001C0C0E0A8DD8C2FCF9108956B
:101E3000ACDD109280008AEE8093810080E29EE407
:101E40009093890080938800EFE6F0E080818260C3
:101E5000808380E090E02FEFFC01E65FF94F208364
:101E600001968C309105C1F780E090E02FEFFC01E6
:101E7000E350FA4F208301968D309105C1F78FEF23
:101E80008093F7058093F8058093F9058093FA0510
:101E90008093FB058093FC0508951F920F920FB667
:101EA0000F9211240BB60F922F933F934F935F9392
:101EB0006F937F938F939F93AF93BF93EF93FF9312
:101EC0008091F5058F5F8093F50580E090E061E0FB
:101ED00070E0282F26952695269530E0F901EA5ED8
:101EE000F94F4081A82FA77050E00A2E02C05595E7
:101EF00047950A94E2F740FD14C0FC01E053F84F07
:101F000040814150408341110CC0F901EA5EF94F14
:101F100040819B0102C0220F331FAA95E2F7242BB8
:101F20002083019688309105A1F68091D605909185
:101F3000D705A091D805B091D9050196A11DB11D75
:101F40008093D6059093D705A093D805B093D90573
:101F5000FF91EF91BF91AF919F918F917F916F9181
:101F60005F914F913F912F910F900BBE0F900FBE3D
:101F70000F901F901895FF920F931F93CF93DF93AD
:101F8000F894F090F5051092F5057894FF2009F487
:101F9000D2C010E040E050E021E030E08091D00974
:101FA0009091D109A091D209B091D3090196A11DB8
:101FB000B11D8093D0099093D109A093D209B09319
:101FC000D309CA01F894682F66956695669570E006
:101FD000FB01E65FF94FE081A82FA770F0E00A2E21
:101FE00002C0F595E7950A94E2F7E0FD14C0FC0104
:101FF000E858F84FB081B150B083B1110CC0FB016B
:10200000E65FF94FB081B90102C0660F771FAA954C
:10201000E2F76B2B6083789401968835910591F6F1
:10202000CA01F894682F66956695669570E0FB0185
:10203000E350FA4FE081C82FC770F0E00C2E02C0C9
:10204000F595E7950A94E2F7E0FD1AC0DC01AA0FC6
:10205000BB1FA854B94FED91FC9111973197119680
:10206000FC93EE93EF2B61F4FB01E350FA4FA08158
:10207000B90102C0660F771FCA95E2F76A2B608329
:10208000789401968036910561F6BA01F894E62FAE
:10209000E695E695E695F0E0DF01A950BA4F8C9100
:1020A000062F077090E0002E02C0959587950A9440
:1020B000E2F780FD21C0EB01CC0FDD1FCC0FDD1F4F
:1020C000C85ED94F88819981AA81BB810197A109F6
:1020D000B10988839983AA83BB83892B8A2B8B2B95
:1020E00059F4E950FA4FA081C90102C0880F991F25
:1020F0000A95E2F78A2B808378946F5F7F4F68326E
:10210000710521F68091CA058F5F843619F080939E
:10211000CA050EC01092CA058091C3099091C409E6
:102120009093D6098093D5095093C4094093C3096D
:102130001F5F1F1133CFDF91CF911F910F91FF9040
:102140000895A8958091C3099091C4090196909330
:10215000C4098093C3098091F605E82FF0E0E858A0
:10216000F84F90819095909319092091F3082917C1
:1021700010F49093F3086FEF23CC08954F925F9281
:102180006F927F92AF92BF92CF92DF92EF92FF92C7
:102190000F931F93CF93DF93EC015B0129013A0169
:1021A0002115310541055105F1F0C12CD12C7601E5
:1021B000C5018C0D9D1DFE0119958027282F30E04B
:1021C000F901E45DFD4F04910127F901E45DFE4F43
:1021D0001491FFEFCF1ADF0AEF0AFF0AC414D504E7
:1021E000E604F70429F7802F90E0912BDF91CF913F
:1021F0001F910F91FF90EF90DF90CF90BF90AF9025
:102200007F906F905F904F9008950F931F930FEF03
:102210001FEFB4DF1F910F9108950F931F932CE0D0
:1022200030E040E050E060E070E086E198E0EDDF13
:102230002BEF3FE02C50304040E050E08C0161E15A
:1022400070E086E198E09ADF1F910F9108958091E8
:10225000B10B81FD06C0E1DFBC018EE090E00C9483
:10226000143B08950E94063BF2CF08950A9A1298F3
:1022700008951F920F920FB60F9211240BB60F9272
:102280002F933F934F935F936F937F938F939F937E
:10229000AF93BF93EF93FF9385B5887F85BDEEE63F
:1022A000F0E080818D7F808386E490E00E94B30817
:1022B000FF91EF91BF91AF919F918F917F916F911E
:1022C0005F914F913F912F910F900BBE0F900FBEDA
:1022D0000F901F9018951F920F920FB60F92112416
:1022E0000BB60F922F933F934F935F936F937F9310
:1022F0008F939F93AF93BF93EF93FF93E1EBF0E046
:102300008081887F8083E0E7F0E080818D7F80831B
:1023100082EB90E00E94B308FF91EF91BF91AF91E3
:102320009F918F917F916F915F914F913F912F91ED
:102330000F900BBE0F900FBE0F901F9018951F921D
:102340000F920FB60F9211240BB60F922F933F935B
:102350004F935F936F937F938F939F93AF93BF93AD
:10236000EF93FF93E1EAF0E08081887F8083E2E7EA
:10237000F0E080818D7F808384EA90E00E94B30842
:10238000FF91EF91BF91AF919F918F917F916F914D
:102390005F914F913F912F910F900BBE0F900FBE09
:1023A0000F901F901895FF920F931F93CF93DF9379
:1023B000C82FD0E08E01000F111F0C0F1D1FC80188
:1023C0008B5F9F4F0E94F93AF82E0A5F1F4FC8019A
:1023D0000E94F93AF11004C0813039F09EE808C03B
:1023E00091E0F91621F096EB03C096E801C096EA59
:1023F00024E12C9FF0012D9FF00D1124EB5AF04F9A
:10240000A591B4919F779C93FF2029F0813019F01A
:1024100061E0C80127DFDF91CF911F910F91FF90FD
:102420000895CF93DF93C82FD0E0CE01880F991F76
:102430008C0F9D1F895F9F4F0E94F93AFE01EC525D
:10244000F64F808390E09C01220F331F820F931F71
:102450008D59904F24E12C9FF0012D9FF00D1124F8
:10246000E75AF04FA591B491FC0124912C9324E1FB
:102470002C9FF0012D9FF00D1124E95AF04FA591EA
:10248000B491FC013196E491EC93FE01EE0FFF1F35
:10249000CE0FDF1FFE01EE0FFF1FE15CF04FA59195
:1024A000B491FC01329684918C93DF91CF91089581
:1024B000CF93DF93C82FD0E0FE01E552F84F83E0C1
:1024C000808384E18C9FF0018D9FF00D1124E55AEB
:1024D000F04F85919491FC01199584E18C9FF00156
:1024E0008D9FF00D1124E15BF04FA591B491FC2F6D
:1024F000EE27E059FF4E80818C9384E18C9FF001A0
:102500008D9FF00D1124EF5AF04FA591B4918C914D
:1025100080648C9384E18C9FF0018D9FF00D1124D9
:10252000ED5AF04FA591B4918C9180628C93DF911C
:10253000CF910895CF93DF93EFE4FFE0259134919D
:102540008217930791F040E054E14F5FC42FD0E031
:102550005C9FF0015D9FF00D1124E15BF04F259130
:1025600034918217930789F703C0C0E0D0E040E0C0
:10257000FE01E552F84F2081223009F449C028F4C9
:10258000222339F02130D1F056C0263008F451C052
:1025900052C0FC018081FC2FEE27E059FF4E808362
:1025A000FE01EE0FFF1FCE0FDF1FFE01EE0FFF1F1C
:1025B000E35CF04FA591B4911C923DC0FE01E55241
:1025C000F84F82E0808321E030E00C2E02C0220F21
:1025D000331F0A94E2F720958091F4052823209375
:1025E000F405FE01E85EF64F1082842F0E94310848
:1025F000CE01880F991FC80FD91FCE01880F991FD0
:102600008F5B904FFC0125913491F901199513C00E
:10261000842F0E943108FE01EE0FFF1FCE0FDF1F37
:10262000FE01EE0FFF1FE35CF04FA591B4911C92E9
:1026300002C0FC018081DF91CF910895EF92FF925B
:102640001F93CF93DF93C82FD0E0FE01E85EF64FD3
:1026500020814091F40550E0BA0102C0759567955C
:102660008A95E2F760FD1AC02330D0F022507C2F0B
:10267000662760597F4EFB01E20FF11DE080F1807B
:1026800030E040E050E08AEE97E0BFDD11E0E81670
:10269000F90609F410E01123F9F003C011E001C0BC
:1026A00011E0FE01E295F295F07FFE27E07FFE2724
:1026B000EF52F04F8281938101969383828384E16C
:1026C0008C9FF0018D9FF00D1124E15AF04F859100
:1026D0009491FC0119951BC0FE01E295F295F07FE3
:1026E000FE27E07FFE27EF52F04F208131812F5FE0
:1026F0003F4F3183208384E18C9FF0018D9FF00D4B
:102700001124EF59F04F25913491F9011995812F3A
:10271000DF91CF911F91FF90EF900895CF93DF93BA
:10272000682F70E0FB01E85EF64F20812250762F83
:10273000662760597F4EEB01C20FD11D30E040E0AB
:1027400050E08AEE97E061DD99838883DF91CF9135
:102750000895282F30E070E0322F2227F901E05948
:10276000FF4EE60FF71F8181620F731FFB01E059D7
:10277000FF4E208190E0922B0895CF92DF92EF924E
:10278000FF920F931F93CF93DF93F82EC82FD0E0C3
:10279000FC2FEE27E059FF4E8181863081F020F436
:1027A0008150843038F0E7C08F30D9F0803109F49F
:1027B000B3C0E1C0C85ED64F88E08883DCC0FE01AC
:1027C000E85EF64F88E080838F2D0E947708DC2F2B
:1027D000CC27C059DF4EFC0121812C8380818D8361
:1027E000CAC064E08F2DB5DF8C01969587959695CC
:1027F00087959695879598012770332741E0232B7D
:1028000009F440E0242F280FFC2FEE27E059FF4E5B
:102810002683DE01A85EB64F275F2C93E80FF91FD1
:102820001782FE01EF50F74F8081823009F1FE01DF
:10283000E295F295F07FFE27E07FFE27E258F04F09
:10284000C590D4908F2D0E9419080196FC018591A6
:102850009491FE01EC51F74F2081FC0137E0239F5A
:10286000E00DF11D1124359685919491B82F0CC07F
:10287000FE01EE0FFF1FEE0FFF1FEE0FFF1FE451D3
:10288000FA4FC680D780B0E00115110509F473C076
:10289000A0E061E070E0DC2FCC278A2F8B0F9A2F0D
:1028A0009695969596950F2EF7E0EF2EF02DE90E62
:1028B0002A2F2770AB0102C0440F551F2A95E2F75B
:1028C0009A01982F969596959695F601E90FF11D28
:1028D000408150E08770FA0102C0F595E7958A952E
:1028E000E2F7E0FF09C0FE01EE0DF11DE059FF4ED9
:1028F0008081282B208309C0FE01EE0DF11DE059D7
:10290000FF4E2095808128232083AF5F2A2F30E05F
:102910002017310710F22FC01C2F002700591F4E1F
:10292000F8018581880F8683FE01E85EF64F875F98
:1029300080838F2D0E947708F80125812223D9F00A
:1029400040E0E80198012B5F3F4F542F550FA42F13
:10295000B0E0AA0FBB1FA80FB91FFE01E50FF11DC4
:1029600011965C91119757835C9150874F5FF901E5
:102970005081451750F38F2DD1DEDF91CF911F91FC
:102980000F91FF90EF90DF90CF900895CF93C82FD5
:102990000E941908BC01FC013196459154912C2FDD
:1029A00030E0F901EC51F74F808197E0899F400DAD
:1029B000511D1124FB016491F22FEE27E059FF4EC7
:1029C0006083FA018491F22FEE27E059FF4E818354
:1029D000FA013296E491B22FAA27A059BF4E12965F
:1029E000EC93FA013196E491B22FAA27A059BF4E79
:1029F0001396EC93FA013496E491B22FAA27A059CA
:102A0000BF4E1496EC93FA0133964491B22FAA2745
:102A1000A059BF4E15964C938C2FAFDECF910895E1
:102A2000282F30E0F22FEE27E059FF4ED901AA0FF0
:102A3000BB1FAA0FBB1FAA0FBB1FA451BA4F9C916B
:102A4000908311969C911197918312969C91129765
:102A500013964C9113974283938314969C911497E9
:102A600015964C9144839583F901EF50F74F92E00E
:102A7000908383CE08956F927F928F929F92AF92B0
:102A8000BF92CF92DF92EF92FF920F931F93CF935B
:102A9000DF93D82EC82FD0E0FE01E552F84F808199
:102AA000882319F0823031F06FC3C552D84F81E0CE
:102AB00088836AC384E0FE01E552F84F80838D2D40
:102AC000BDDD882329F0C552D84F81E088835CC3DF
:102AD000FC2FEE27E059FF4E8081882359F0FE013C
:102AE000E453F74F9081891729F0C552D84F81E000
:102AF00088834AC384E18C9F80018D9F100D11242F
:102B0000035A104FF80125913491F9011995FE01EE
:102B1000E295F295F07FFE27E07FFE27EF52F04F1F
:102B20008681978101969783868362E08D2D11DEE1
:102B30007C01FC2FEE27E059FF4EC1808C2D90E0E8
:102B4000FC013197E031F10508F0C9C2EA59FF4FA5
:102B50000C940638FC2FEE27E059FF4E8081882325
:102B600009F4C1C0FE01E85EF64F8081883059F05B
:102B7000FC2FEE27E059FF4E83E082830F2EF3E017
:102B8000FF2EF02DB6C264E08D2DE3DDAC018E0D7D
:102B90009F1DF1E0CF120FC0FE01E295F295F07F8C
:102BA000FE27E07FFE27E058F04F2591349128174B
:102BB000390778F018C0FE01E295F295F07FFE2704
:102BC000E07FFE27EC57F04F259134912817390705
:102BD000B0F4FC2FEE27E059FF4E82E08283689428
:102BE000FF24F1F886C2FE01E295F295F07FFE2700
:102BF000E07FFE27E258F04FA591B4910BC0FE0193
:102C0000E295F295F07FFE27E07FFE27EE57F04F2A
:102C1000A591B49121E0CA0187709927892B09F405
:102C200020E0CA0196958795969587959695879504
:102C3000820FFC2FEE27E059FF4E8283FE01E85EF3
:102C4000F64F8B5F80834115510509F44FC0C12CAD
:102C500020E030E081E090E0BC2EAA242E0D3F1D44
:102C60006C2D6695669566950F2EF3E09F2EF02DE0
:102C7000960EEC2DE7703C0102C0660C771CEA95BD
:102C8000E2F7B9017695679576956795769567959C
:102C90006A0F7B1FFB01608170E027703327FB0107
:102CA00002C0F595E7952A95E2F7E0FF0AC0950185
:102CB000290D311D20593F4EF9016081662960833D
:102CC0000AC09501290D311D20593F4E6094F9012C
:102CD000608166216083C3942C2D30E02417350772
:102CE00008F4BCCF05C0FF24FA9403C2F12C01C242
:102CF000F12CFFC1FC2FEE27E059FF4E8081882385
:102D000009F485C0FE01E85EF64F8081883059F0F5
:102D1000FC2FEE27E059FF4E83E082830F2EF3E075
:102D2000FF2EF02DE6C1FC2FEE27E059FF4E458126
:102D3000C701840F911DF3E0CF120FC0FE01E29591
:102D4000F295F07FFE27E07FFE27E857F04F2591B0
:102D500034912817390778F018C0FE01E295F295F2
:102D6000F07FFE27E07FFE27E457F04F2591349156
:102D700028173907B0F4FC2FEE27E059FF4E82E008
:102D800082836894FF24F1F8B4C1FE01E295F295C4
:102D9000F07FFE27E07FFE27EA57F04F8591949160
:102DA0000BC0FE01E295F295F07FFE27E07FFE2743
:102DB000E657F04F85919491EE0CFF1C8E0D9F1DF0
:102DC000440FBC2FAA27A059BF4E12964C931297BE
:102DD000FE01E85EF64F4B5F408315966C911597A8
:102DE0006623C1F0FC0140E09D01542F550F79018D
:102DF000E50EF11C5181D70113965C9380813296C8
:102E0000D70114968C934F5F4613EFCF05C0FF2474
:102E1000FA946FC1F12C6DC1F12C6BC1FE01E85E1B
:102E2000F64F8081883059F0FC2FEE27E059FF4E95
:102E300083E082830F2EF3E0FF2EF02D5AC1FE01B6
:102E4000E295F295F07FFE27E07FFE27E857F04FEE
:102E50008591949197012F5F3F4F8217930750F40C
:102E6000FC2FEE27E059FF4E82E082836894FF2416
:102E7000F1F83FC188E0FE01E85EF64F8083FE0175
:102E8000E295F295F07FFE27E07FFE27EA57F04FAC
:102E900085919491EE0CFF1CE80EF91E64E08D2DD7
:102EA00058DCF70191838083F12C23C164E08D2DE0
:102EB00050DCFC2FEE27E059FF4EA681FE01E85EB4
:102EC000F64F408150E02A2F30E0275F3F4F4217F6
:102ED0005307B9F421E030E0BC0167707727672B16
:102EE00011F420E030E0BC01769567957695679502
:102EF00076956795260F371F4A2F50E02417350720
:102F000059F0FC2FEE27E059FF4E83E082830F2E0D
:102F1000F3E0FF2EF02DEDC0FE01E295F295F07F7B
:102F2000FE27E07FFE27E058F04F25913491AC0159
:102F30004E0D5F1D2417350750F4FC2FEE27E05986
:102F4000FF4E82E082836894FF24F1F8D2C0FE0134
:102F5000E295F295F07FFE27E07FFE27E258F04FE2
:102F60002591349148E0FE01E85EF64F4083C12C84
:102F7000E1E0F0E07C2F6627AB0140595F4E3A015B
:102F800036C0DA01AE0DBF1DAD0156954795569579
:102F9000479556954795A770BB275F0102C0AA0CBD
:102FA000BB1CAA95E2F7AC2DA695A695A695B301F4
:102FB0006A0F711DDB011796AC91B0E07C2D777024
:102FC000072E02C0B595A7950A94E2F7A0FF07C0A7
:102FD000D901A40FB51F4C91A42AAC9207C0D90106
:102FE000A40FB51FA0944C914A214C93C3944C2D2F
:102FF00050E04817590728F2F12C7BC0FC2FEE2730
:10300000E059FF4E868190E0FE01E85EF64F408178
:1030100050E09C01275F3F4F4217530761F4FC2F9C
:10302000EE27E059FF4E4581242F30E0220F331F59
:103030008217930759F0FC2FEE27E059FF4E83E0EB
:1030400082830F2EF3E0FF2EF02D53C0FE01E29598
:10305000F295F07FFE27E07FFE27E857F04F85913D
:1030600094919701240F311D8217930750F4FC2F80
:10307000EE27E059FF4E82E082836894FF24F1F846
:1030800038C088E0FE01E85EF64F8083FE01E295DD
:10309000F295F07FFE27E07FFE27EA57F04F8590FC
:1030A0009490C12C9C2F8827DC01AB58BF4E3D016A
:1030B00010C05701AC0CB11CAA0CBB1CA80CB91C4D
:1030C0006C2D660F695F8D2D44DBF5019183808344
:1030D000C394D3018C91C81660F3F12C0AC0FC2F65
:1030E000EE27E059FF4E81E08283808181110BC081
:1030F0001CC0FC2FEE27E059FF4E8081882399F0F9
:10310000FF2079F002C0FF24F394FC2FEE27E05952
:10311000FF4E81818068818385E0FE01E85EF64F85
:1031200080838D2DFBDAFF2071F0FE01E295F29590
:10313000F07FFE27E07FFE27EF52F04F84819581DC
:10314000019695838483FC2FEE27E059FF4E808102
:10315000882319F08D2DACD917C0FE01E295F295A8
:10316000F07FFE27E07FFE27EF52F04F80859185AC
:10317000019691878087C552D84F81E08883F801F6
:1031800085919491FC011995DF91CF911F910F9139
:10319000FF90EF90DF90CF90BF90AF909F908F9077
:1031A0007F906F90089524E1829FC0011124FC015B
:1031B000E35AF04F85919491FC0119950895CF93AE
:1031C000DF93C82FD0E0CE01885F9F4F0E94F93A6D
:1031D000C453D74F8883DF91CF9108956F927F9228
:1031E0009F92AF92BF92CF92DF92EF92FF920F9396
:1031F0001F93CF93DF93D82EC82FD0E0FE01E55266
:10320000F84F8081882319F0823071F096C2809146
:10321000E5058E5F6FEF7FEF8D0D0E94180D8D2DF0
:10322000B5DB8D2D45D989C284E0FE01E552F84F0A
:103230008083FE01EF50F74F908181E0923009F0DA
:1032400080E08093EB058D2DF9D9882321F08D2D19
:103250000E940F0E62C284E18C9FF0018D9FF00DE1
:103260001124E35AF04F85919491FC0119958091B6
:10327000EB05882361F0FE01EE0FFF1FEE0FFF1F2D
:10328000EE0FFF1FE451FA4F8081218115C08D2D73
:103290000E9419088C01FC013196E590F490FE0122
:1032A000EC51F74F8081F7E08F9FE00CF11C112467
:1032B000F8018491F7012491FC2FEE27E059FF4E8D
:1032C0009081981307C0FC2FEE27E059FF4E4181F3
:1032D000421721F08D2D0E940F0E1FC2842F90E007
:1032E000FC013197E031F10508F0BCC1EA58FF4F0D
:1032F0000C9406388091EB05882359F0FE01EE0FFF
:10330000FF1FEE0FFF1FEE0FFF1FE451FA4F548116
:1033100003C0F70133965491FC2FEE27E059FF4E7E
:10332000828190E0FE01E85EF64F608170E09C01D2
:103330002B5F3F4F6217730709F089C0652F6695B1
:103340006695669570E021E030E0E52FE77011F4B6
:1033500020E030E0260F371F8217930709F07AC06C
:103360008091EB05882369F0FE01EE0FFF1FEE0F41
:10337000FF1FEE0FFF1FE451FA4FA681B781C12C4A
:103380001EC0413061F4FE01E295F295F07FFE2708
:10339000E07FFE27E258F04FA591B4910BC0FE01EB
:1033A000E295F295F07FFE27E07FFE27EE57F04F83
:1033B000A591B491F701359685919491C82EA52ECB
:1033C000B12CA114B10409F448C020E030E081E040
:1033D00090E05C2F4427BA0160597F4E7B014C2D51
:1033E000420F942E9694969496944770FC0102C0D6
:1033F000EE0FFF1F4A95E2F7AF01F901F695E79549
:10340000F695E795F695E795EE0DFF1DE381F0E063
:10341000B901677077273F0102C0759467946A9578
:10342000E2F760FE07C0FD01E90DF11D5081452B5B
:10343000408307C0FD01E90DF11D409550814523F2
:1034400040832F5F3F4F2A153B0548F208C0BB243D
:10345000B39408C1BB24B39405C1B12C03C1B12CF2
:1034600001C1FC2FEE27E059FF4E5281FE01E85EBC
:10347000F64F208130E0852F90E005962817390718
:1034800009F06AC08091EB05882371F0FE01EE0F10
:10349000FF1FEE0FFF1FEE0FFF1FE451FA4F848155
:1034A0009581880F991F06C0F701339685919491F5
:1034B000880F991F252F30E02817390709F04FC0D2
:1034C0008091EB05882361F0FE01EE0FFF1FEE0FE8
:1034D000FF1FEE0FFF1FE451FA4FA680B78022C0F6
:1034E000433061F4FE01E295F295F07FFE27E07F24
:1034F000FE27EA57F04F859194910BC0FE01E295AB
:10350000F295F07FFE27E07FFE27E657F04F85918A
:103510009491F701359625913491220F331F5C0168
:10352000A20EB31E5695CC24CA94C50EDAF0550FE0
:1035300099249394950EEC2CEE0CFF08EA0CFB1CDE
:10354000692D8D2D06D9F70191838083CA949A94B1
:103550009A94CC2084F708C0BB24B39483C0BB24C6
:10356000B39480C0B12C7EC0B12C7CC08091EB059F
:10357000882371F0FE01EE0FFF1FEE0FFF1FEE0F0D
:10358000FF1FE451FA4FA280B380E680F78018C095
:10359000F7013196A590B490FE01E295F295F07F87
:1035A000FE27E07FFE27EA57F04F85919491F701BF
:1035B000359625913491220F331F7C01E20EF31EC4
:1035C000FE01E85EF64F8081883099F462E08D2D2F
:1035D000C0D88A159B0579F464E08D2DBAD841E0F6
:1035E000F701208131818217930709F440E0842F8D
:1035F00003C081E001C081E0B82E34C08091EB05AA
:10360000882371F0FE01EE0FFF1FEE0FFF1FEE0F7C
:10361000FF1FE451FA4FA280B380E480F58008C018
:10362000F7013196A590B490F7013396E590F490A8
:10363000FE01E85EF64F8081883081F462E08D2DD6
:1036400088D88A159B0561F464E08D2D82D821E02D
:103650008E159F0509F420E0822F03C081E001C090
:1036600081E0B82EBB2091F0FE01E295F295F07F4B
:10367000FE27E07FFE27EF52F04F8481958101966F
:10368000958384838D2D0E940F0E47C08091EB059A
:10369000882331F0CF50D74F188265E070E048C0E2
:1036A000FE01EE0FFF1FEE0FFF1FBF016F53704FA4
:1036B00081E090E0A0E0B0E09E012152374FF90197
:1036C000008004C0880F991FAA1FBB1F0A94D2F75D
:1036D00080959095A095B095FB01408151816281C4
:1036E000738184239523A623B72380839183A283A8
:1036F000B383FE01EC51F74F80818F5F8083F80127
:103700003396E4918E1304C08D2D0E94700D01C07C
:1037100080E0FE01E651FA4F1082882339F0CC0F89
:10372000DD1FC151D74F6881798102C065E070E02B
:103730008091E5058D0D0E94180DDF91CF911F91AD
:103740000F91FF90EF90DF90CF90BF90AF909F9040
:103750007F906F900895E82FF0E0E154F04F608182
:1037600070E09091E505890F0C94180D08951F9352
:10377000CF93DF93EFE4FFE0259134918217930715
:1037800091F010E044E11F5FC12FD0E04C9FF001A9
:103790004D9FF00D1124E15BF04F2591349182177C
:1037A000930789F703C0C0E0D0E010E0FE01E753C3
:1037B000FA4F6081462F50E0FE01E85EF64F20810F
:1037C00030E0225031094217530709F544E14C9F7C
:1037D00090014D9F300D11242D5A304FF901A591C4
:1037E000B4914C914F7D4C93F901A591B4912C91DA
:1037F00020642C9324E12C9FF0012D9FF00D1124C7
:10380000EF5AF04FA591B4912C9120642C936F5FE7
:10381000FE01E753FA4F6083FE01E85EF64F208118
:10382000621750F4DC2FCC27C60FD11DC059DF4ED4
:103830002881FC01208330C084E18C9FF0018D9FA2
:10384000F00D1124ED5AF04FA591B4918C918F7920
:103850008C9384E18C9FF0018D9FF00D1124E55A2B
:10386000F04F85919491FC011995FE01E753FA4FB1
:103870001082C552D84F81E08883E12FF0E0E257F3
:10388000F04FE491EE2319F0E13021F005C0812FD3
:103890008ADC02C0812F5FDFDF91CF911F910895F5
:1038A0001F93CF93DF93182FC091E505C80F81E0D8
:1038B0008C0F0E94C40E882319F0812F0E94550D91
:1038C0008C2F0E94C40E882309F469C0F894C12F7C
:1038D000D0E0FE01E552F84F8081813029F485E087
:1038E000FE01E552F84F80837894FE01E552F84FCF
:1038F0008081843031F1853009F051C0812F0E94E0
:103900000F0EFE01EF50F74F8081882319F08130B0
:1039100021F00AC0812F3AD807C0C651DA4F8881FA
:10392000811102C0812F7CD88091E5056FEF7FEF78
:10393000810F0E94180DF894812F0E9458127894DC
:103940002EC0F89484E18C9FF0018D9FF00D11241E
:10395000E35AF04F25913491F90119957894CF509D
:10396000D74F8881882319F0813021F00CC0812F36
:103970000DD809C08091EB05882319F0812F06D856
:1039800002C0812F4DD88091E5056FEF7FEF810F49
:103990000E94180DF894812F0E9458127894DF919C
:1039A000CF911F9108958091C00F80FF14C0F894AB
:1039B0008091C00F8E7F8093C00F7894EEE8FFE077
:1039C000E491EE2319F0E13021F005C080E053D8F6
:1039D00002C080E003DCEEE8FFE0E491E13011F4A6
:1039E00080E05ECF08951F920F920FB60F921124C0
:1039F0000BB60F922F933F934F935F936F937F93E9
:103A00008F939F93AF93BF93EF93FF9386EC90E0D8
:103A10000E949A12FF91EF91BF91AF919F918F9168
:103A20007F916F915F914F913F912F910F900BBEBE
:103A30000F900FBE0F901F9018951F920F920FB608
:103A40000F9211240BB60F922F933F934F935F93D6
:103A50006F937F938F939F93AF93BF93EF93FF9356
:103A600086EC90E084DEFF91EF91BF91AF919F9142
:103A70008F917F916F915F914F913F912F910F9017
:103A80000BBE0F900FBE0F901F9018951F920F92B4
:103A90000FB60F9211240BB60F922F933F934F93B3
:103AA0005F936F937F938F939F93AF93BF93EF93A6
:103AB000FF9386EC90E05BDEFF91EF91BF91AF91B9
:103AC0009F918F917F916F915F914F913F912F9136
:103AD0000F900BBE0F900FBE0F901F9018951F9266
:103AE0000F920FB60F9211240BB60F922F933F93A4
:103AF0004F935F936F937F938F939F93AF93BF93F6
:103B0000EF93FF938EEC90E00E949A12FF91EF9159
:103B1000BF91AF919F918F917F916F915F914F91E5
:103B20003F912F910F900BBE0F900FBE0F901F90E3
:103B300018951F920F920FB60F9211240BB60F9289
:103B40002F933F934F935F936F937F938F939F93A5
:103B5000AF93BF93EF93FF938EEC90E008DEFF915D
:103B6000EF91BF91AF919F918F917F916F915F91F5
:103B70004F913F912F910F900BBE0F900FBE0F9062
:103B80001F9018951F920F920FB60F9211240BB62B
:103B90000F922F933F934F935F936F937F938F93E6
:103BA0009F93AF93BF93EF93FF938EEC90E0DFDD95
:103BB000FF91EF91BF91AF919F918F917F916F9105
:103BC0005F914F913F912F910F900BBE0F900FBEC1
:103BD0000F901F9018951F93CF93DF93D62F172F19
:103BE000C091C805882331F0C13051F018F0C230BF
:103BF00029F12DC081E08093C805C13089F539C015
:103C000060E181E00E94FF0A8F3F09F56FEF82E0DB
:103C100094E00E94180A62E080E094E00E94180A92
:103C2000612F84E094E00E94180A6D2F85E094E0F3
:103C30000E94180A82E08093C80517C061E081E005
:103C40000E94FF0A8F3F19F48093C80512C080912B
:103C5000C8058C1771F0813019F0823031F009C03D
:103C600060E080E00E94FF0A04C060E080E00E9403
:103C7000FF0A8091C805DF91CF911F9108951F938E
:103C8000CF93DF93D62F172FC091C705882331F02C
:103C9000C13051F018F0C23029F12DC081E080937D
:103CA000C705C13089F539C060E181E00E94300B61
:103CB0008F3F09F56FEF82E095E00E94180A62E0FD
:103CC00080E095E00E94180A612F84E095E00E9450
:103CD000180A6D2F85E095E00E94180A82E0809313
:103CE000C70517C061E081E00E94300B8F3F19F4D7
:103CF0008093C70512C08091C7058C1771F0813081
:103D000019F0823031F009C060E080E00E94300B91
:103D100004C060E080E00E94300B8091C705DF9115
:103D2000CF911F910895CF93DF93EA01FB0190811A
:103D3000911109C09181911106C09281911103C026
:103D40009381992319F1209721F1811109C0CB01A9
:103D50000E949E0BCE010E94920B81E090E01EC05B
:103D6000813049F4CB010E94C00BCE010E94B40BFC
:103D700081E090E013C0823079F4CB010E94E20B25
:103D8000CE010E94D60B81E090E008C080E090E078
:103D900005C080E090E002C081E090E0DF91CF912B
:103DA0000895AB011092F80F1092F70FBC0180E05C
:103DB000BACF0895AB011092C7081092C608BC0193
:103DC00081E0B1CF08959B016091F70F7091F80FDA
:103DD000AC0180E00E947F0C2091F70F3091F80F2A
:103DE000280F391F3093F80F2093F70F08959B0188
:103DF0006091C6087091C708AC0181E00E947F0CF9
:103E00002091C6083091C708280F391F3093C70882
:103E10002093C6080895CF93C091C605882331F03A
:103E2000C13051F018F0C23089F02EC081E080938B
:103E3000C605C13079F532C060E281E00E94300BE6
:103E40008F3F11F582E08093C60528C062E070E0E4
:103E500081E00E94C10A84FD0DC062E070E081E053
:103E60000E94C10A83FF10C048E162E070E081E077
:103E70000E94F50A40E162E070E081E00E94F50AEC
:103E80008FEF8093C6050AC08091C6058C1731F06C
:103E9000813021F460E280E00E94300B8091C60501
:103EA000CF910895CF93C091C505882331F0C130DB
:103EB00051F018F0C23089F02EC081E08093C50522
:103EC000C13079F532C060E281E00E94FF0A8F3F85
:103ED00011F582E08093C50528C062E070E080E0C3
:103EE0000E94C10A84FD0DC062E070E080E00E9483
:103EF000C10A83FF10C048E162E070E080E00E94E8
:103F0000F50A40E162E070E080E00E94F50A8FEF80
:103F10008093C5050AC08091C5058C1731F08130AA
:103F200021F460E280E00E94FF0A8091C505CF91F4
:103F300008951F93CF93DF93D62F172FC091C405F9
:103F4000882331F0C13051F018F0C23029F12DC072
:103F500081E08093C405C13089F539C060E181E01A
:103F60000E94610B8F3F09F56FEF82E096E00E949F
:103F7000180A62E080E096E00E94180A612F84E04F
:103F800096E00E94180A6D2F85E096E00E94180ABC
:103F900082E08093C40517C061E081E00E94610B5C
:103FA0008F3F19F48093C40512C08091C4058C170B
:103FB00071F0813019F0823031F009C060E180E0A9
:103FC0000E94610B04C061E080E00E94610B80915F
:103FD000C405DF91CF911F910895AB011092C609DE
:103FE0001092C509BC0182E09ECE08959B016091AC
:103FF000C5097091C609AC0182E00E947F0C209136
:10400000C5093091C609280F391F3093C60920937E
:10401000C5090895AF92BF92CF92DF92EF92FF92BF
:104020000F931F93CF93DF931F921F92CDB7DEB7ED
:104030007A8369837A018901E981FA81F770C82E50
:10404000D12CD601AA0FBB1FA254B74F8D919C91C2
:104050008E0F9F1F2E0F3F1F21303840C8F020E0E9
:1040600038E05901AE1ABF0AA501B7010E942F0915
:10407000A8014A195B09B7016A0D7B1DF601EE0F15
:10408000FF1FE254F74F808191810E942F0904C0E5
:10409000A801B7010E942F090F900F90DF91CF91D7
:1040A0001F910F91FF90EF90DF90CF90BF90AF9056
:1040B0000895DF92EF92FF920F931F93CF93DF93B8
:1040C000D82E7B018A0168E270E00E94C10AC82FE5
:1040D000D0E069E270E08D2D0E94C10ADC2FCC2770
:1040E000C82B9801A701BE018D2D94DFC00FD11FF1
:1040F0004D2F68E270E08D2D0E94F50A4C2F69E289
:1041000070E08D2D0E94F50ADF91CF911F910F91E4
:10411000FF90EF90DF900895DF92EF92FF920F9360
:104120001F93CF93DF93D82E0FEF1FEFE12CF12CCD
:104130008D2D0E94DF0AEC01009721F08D2D0E9449
:10414000DF0A7C01EC16FD0629F00150110901156A
:10415000110571F7C701DF91CF911F910F91FF906A
:10416000EF90DF900895DF92EF92FF920F931F93ED
:10417000CF93DF93D82E7B018A01CEDFEC0100972D
:1041800099F463E070E08D2D0E94C10A8431D9F06A
:104190008823C9F0C1E0D0E08C3111F4C0E0D0E058
:1041A000D195C195D10904C0081719070CF4E8018D
:1041B0001C161D0644F4AE01B7018D2D7ADF60E4B4
:1041C0008D2D0E94310ACE01DF91CF911F910F9169
:1041D000FF90EF90DF9008950F931F93CF93DF939D
:1041E0001F92CDB7DEB7082F10E0F801EE0FFF1FCA
:1041F000E95FF64F20813181232BB1F041E050E09F
:10420000BE016F5F7F4FAFDF1816190684F4F80107
:10421000EE0FFF1FE95FF64F808191810197918337
:104220008083898190E005C08FEF9FEF02C08FEF00
:104230009FEF0F90DF91CF911F910F910895DF9223
:10424000EF92FF920F931F93CF93DF93CDB7DEB71B
:1042500028970FB6F894DEBF0FBECDBFD82EE82E3C
:10426000F12CF701EE0FFF1FE95FF64F208131813E
:10427000232B41F08F018D2DAFDFF801208131819B
:10428000232BC9F78D2D48DF18161906ACF548E029
:1042900050E0BE016F5F7F4F8D2D65DF9C011816CA
:1042A00019063CF589818093CD0F8A818093CE0FCA
:1042B0008B818093CF0F8C818093D00FC701880FA3
:1042C000991FFC01EB53F04F2D8130E0322F222754
:1042D0004E81240F311D318320832F8130E0322F16
:1042E00022274885240F311DFC01E95FF64F3183F9
:1042F0002083822F932F02C080E090E028960FB693
:10430000F894DEBF0FBECDBFDF91CF911F910F910B
:10431000FF90EF90DF90089580E091CF089581E0C5
:104320008ECF089540910709509108094115510514
:10433000D9F06417750728F0BC0180E014DF9C01F8
:1043400005C0AB01BC0180E00EDF9C011216130614
:1043500074F4E7E0F9E080819181821B930B9183F3
:104360008083822F932F08958FEF9FEF08958FEF13
:104370009FEF08954091090950910A09411551058F
:10438000D9F06417750728F0BC0181E0ECDE9C01D0
:1043900005C0AB01BC0181E0E6DE9C0112161306EC
:1043A00074F4E9E0F9E080819181821B930B9183A1
:1043B0008083822F932F08958FEF9FEF08958FEFC3
:1043C0009FEF089580E008CF08958091E1059091D6
:1043D000E205A091E305B091E4050196A11DB11D90
:1043E0008093E1059093E205A093E305B093E40583
:1043F00080E0A3C00895CF93C091C305811103C08D
:104400001092C30506C0C13099F018F0C23001F116
:1044100049C08091C205811104C00E94D20C8093D2
:10442000C20581E08093C305C13009F041C044C09A
:1044300060E281E00E94610B8F3FA1F568EE73E0BE
:104440008091C2050E94180D82E08093C30534C09C
:1044500062E070E082E00E94C10A84FD19C062E05F
:1044600070E082E00E94C10A83FF07C048E162E079
:1044700070E082E00E94F50A15C08091C2050E949A
:10448000C40E882379F0A1DF8FEF8093C30514C099
:1044900040E162E070E082E00E94F50A8FEF8093D5
:1044A000C3050AC08091C3058C1731F0813021F417
:1044B00060E280E00E94610B8091C305CF91089576
:1044C000BF92CF92DF92EF92FF920F931F93CF9301
:1044D000DF937B016A01E901B090C105882331F0C7
:1044E000BB2021F081E0B81639F00DC081E0809347
:1044F000C105B8120EC015C081E07DDF8F3F19F4F1
:104500008093C1050EC08091C1058B1551F081309B
:1045100041F4B601C70161DDB801CE0167DD80E07D
:104520006ADF8091C105DF91CF911F910F91FF90BC
:10453000EF90DF90CF90BF9008950F931F93CF938C
:10454000C091C005811103C01092C00508C0C130E0
:10455000A9F028F0C23011F1C43051F14BC0809164
:10456000BF05811104C00E94D20C8093BF0581E079
:104570008093C005C13009F047C0ECC069EE77E018
:1045800081E0D7DC8F3FB1F568EE73E08091BF0525
:104590000E94180D82E08093C005DCC08091BF05A9
:1045A0000E94C40E882331F184E08093C00531C09D
:1045B00063E070E082E00E94C10A823219F010923A
:1045C000C005C8C04091B5025091B6020EE310E09C
:1045D0002CED37E067EB72E081E072DF8F3F51F442
:1045E00068EE73E08091BF050E94180D82E0809311
:1045F000C005B0C08091C0058C1709F4ABC08130F4
:1046000019F0843031F0A6C069EE77E080E091DCEB
:10461000A1C0ECEDF7E085E0808381E08093DD07C9
:104620009091B3022091B4022093DE079093DF07AC
:104630008093E00782E08093E10783E18093E207C3
:1046400086E38093E3078091C8088093E407809114
:10465000C9088093E5078091CA088093E607809196
:10466000CB088093E70787E58093E80785E380938D
:10467000E90781E38093EA0780E38093EB07809367
:10468000EC0780E28093ED0784E58093EE0795E4E4
:104690009093EF0793E59093F0078093F10787EFEE
:1046A00097E09093F5088093F4088091F90F90912A
:1046B000FA0F90A3878F8091060090E092A381A3C8
:1046C0008091A3029091A40294A383A38091AF024E
:1046D0009091B00296A385A38BE790E090A787A363
:1046E00088E097E092A781A788E998E094A783A73C
:1046F00089E098E09093DA078093D9078091D605F6
:104700009091D705A091D805B091D905880F991F30
:10471000AA1FBB1FAC01BD01440F551F661F771FA9
:10472000440F551F661F771F840F951FA61FB71FC5
:1047300085A796A7A7A7B0AB8AE1809319084091F7
:10474000B5025091B6020EE310E09F0167EB72E0F4
:1047500080E0B6DE8091C005CF911F910F91089542
:104760008F929F92AF92BF92CF92DF92EF92FF9281
:104770000F931F93CF93DF93CDB7DEB7A4970FB6F8
:10478000F894DEBF0FBECDBFE82ED62EC72E68949C
:10479000FF24F5F88E010F5F1F4FF8018F2D119246
:1047A0008A95E9F78FEF89A38AA38BA38CA363E48F
:1047B00070E0CE018196F5DA81E089838A8386E014
:1047C0008B831C824091EB085091EC086091ED08BE
:1047D0007091EE08872E9924AA24BB24B42FAA270F
:1047E0009927882788299929AA29BB298824942EC2
:1047F000A52EB62E88249924BB2488299929AA2974
:10480000BB29452F562F672F772744276627772701
:10481000482B592B6A2B7B2B4D835E836F837887C4
:10482000C986DA8680E890E09C878B876CE170E02F
:10483000C801C9DAF8018F2D11928A95E9F786E04F
:10484000EDECF8E0D80101900D928A95E1F760E176
:1048500070E0C801B8DAF8011192FA94E9F706E0BD
:1048600010E060E270E0CE010196ADDA015011096E
:1048700001151105B1F783E6898392E89A8393E5E0
:104880009B838C8385E38D8381E08E83EF829DE320
:10489000988797E099878A8786E0EDECF8E0DE015B
:1048A0001B9601900D928A95E1F78CE0898B8A8B9B
:1048B00087E0EFEBF2E0DE01539601900D928A95CE
:1048C000E1F76091D008CE0149960E949F0C60915B
:1048D000D108CE014B960E949F0C6091D208CE0168
:1048E0004D960E949F0C6EE170E0CE0101966BDA4E
:1048F000F3E0EF1224C082E3898384E08A839091FD
:10490000C8089B839091C9089C839091CA089D8395
:104910009091CB089E8396E39F83888780911E08A1
:10492000898780911F088A87809120088B878091D2
:1049300021088C876CE070E0CE01019644DA87E3B1
:10494000898386E08A8391E09B8393E09C838D83B7
:104950008FE08E838AE38F838BE388878FEF89874D
:1049600069E070E0CE0101962EDAA4960FB6F894B5
:10497000DEBF0FBECDBFDF91CF911F910F91FF9092
:10498000EF90DF90CF90BF90AF909F908F90089561
:104990000F931F93CF93DF93062FEA011091BE056B
:1049A000882329F0112319F0113039F00DC081E06E
:1049B0008093BE05113071F412C081E073DA8F3F2D
:1049C00019F48093BE050BC09091BE05911739F084
:1049D000913029F4BE01802FC3DE80E063DA80913C
:1049E000BE05DF91CF911F910F9108952F923F92B5
:1049F0004F925F927F928F929F92AF92BF92CF928F
:104A0000DF92EF92FF920F931F93CF93DF93CDB777
:104A1000DEB7A2970FB6F894DEBF0FBECDBF8A01F6
:104A20007BDC181619060CF0F1C162E270E0CE01D1
:104A3000019678DC8981823009F0EAC18091C50F46
:104A40009091C60F8334910509F0E4C18D819E8158
:104A5000AF81B885CB2EDD24EE24FF24782F662786
:104A600055274427C42AD52AE62AF72A4427582F4F
:104A7000692F7A2F442755277727C42AD52AE62A73
:104A8000F72A892F9A2FAB2FBB278827AA27BB2766
:104A9000C82AD92AEA2AFB2AF801C082D182E282F6
:104AA000F38246E050E06DEC78E0CE014D960E9436
:104AB0006B38892B09F0B0C18091AD0B9091AE0B92
:104AC000A091AF0BB091B00BC816D906EA06FB0651
:104AD00008F4A4C18091EB089091EC08A091ED0836
:104AE000B091EE088C159D05AE05BF0508F498C180
:104AF00089899A89AB89BC898093C8089093C90831
:104B0000A093CA08B093CB080EEC10E05BDC015018
:104B1000110901151105D1F7712C0F2EF7E0CF2ED9
:104B2000F9E0DF2EF02D812C912C0F2EFEE1AF2E1F
:104B3000F8E0BF2EF02D0F2EF5EC4F2EFFE05F2E8C
:104B4000F02D0F2EFFE12F2EF8E03F2EF02D56C155
:104B500039DC8333910509F405C17CF4813091057A
:104B600029F124F4892B09F449C13DC18330910511
:104B700021F1069709F439C036C18A33910509F449
:104B80007FC03CF48533910569F0C69709F445C0B0
:104B90002AC18B33910509F4ACC08F3F910509F40C
:104BA0002DC121C10FDC0EDC782E28C10BDC64E0A6
:104BB00070E08BEB9FE006DC21C104DC7C0164E04B
:104BC00070E08BED98E0FEDBFF24F4E0EF1AF108D3
:104BD0001E141F040CF012C1082D192DF3DB0F5FFA
:104BE0001F4F0E151F05D4F309C1ECDB7C0164E0F7
:104BF00070E089EE9FE0E6DBFF2484E0E81AF1082C
:104C00001E141F040CF0FAC0082D192DDBDB0F5FFA
:104C10001F4F0E151F05D4F3F1C0D4DBF5019081B1
:104C200091110EC0F101908191110AC0E0E2F8E00B
:104C30009081911105C0E1E2F8E09081992399F00B
:104C4000F5010081118122813381F201408151817E
:104C500062817381041715072607370721F0F82EA4
:104C6000811106C0CBC064E070E0C501ABDBC6C0FB
:104C7000082D192DA7DB0F5F1F4FF012FBCFBEC011
:104C8000A1DB64E070E086EF98E09CDB8091F608A1
:104C90009091F708A091F808B091F9080B2F11270F
:104CA00022273327782F662755274427042B152BD7
:104CB000262B372B4427582F692F7A2F4427552727
:104CC0007727042B152B262B372B492F5A2F6B2F89
:104CD0007727442766277727402B512B622B732B8E
:104CE0004093F6085093F7086093F8087093F9081A
:104CF00085C068DB64E070E084E199E063DB80916B
:104D0000140990911509A0911609B09117090B2F5C
:104D1000112722273327782F662755274427042B6E
:104D2000152B262B372B4427582F692F7A2F4427F2
:104D300055277727042B152B262B372B492F5A2F36
:104D40006B2F7727442766277727402B512B622B21
:104D5000732B4093140950931509609316097093AF
:104D600017094CC02FDB64E070E080EE98E02ADB8E
:104D70008091E0089091E108A091E208B091E308E9
:104D80000B2F112722273327782F662755274427F3
:104D9000042B152B262B372B4427582F692F7A2FBE
:104DA000442755277727042B152B262B372B492FE4
:104DB0005A2F6B2F7727442766277727402B512BB5
:104DC000622B732B4093E0085093E1086093E20854
:104DD0007093E3084093EF0F5093F00F6093F10F3F
:104DE0007093F20F0BC0EEDAF82E882339F0082DFD
:104DF000192DE8DA0F5F1F4FF012FBCFF60180810B
:104E00009181892B09F0A4CE872D0BC08FEF09C0AB
:104E100080E007C080E005C080E003C080E001C002
:104E200080E0A2960FB6F894DEBF0FBECDBFDF9133
:104E3000CF911F910F91FF90EF90DF90CF90BF9097
:104E4000AF909F908F907F905F904F903F902F906A
:104E50000895CF92DF92EF92FF926B017C01611572
:104E600071058105910539F00E945638A701960118
:104E70000E94EA3703C060E070E0CB01FF90EF9042
:104E8000DF90CF900895CF93C091BD05811110C0E0
:104E90008091E00581111EC08091BB028093E005E6
:104EA00092E0980F9093BB028F5F8093DF0512C052
:104EB000C530C9F130F4C13099F060F0C330E1F091
:104EC000D9C0C73009F475C008F45CC0CF3F09F4FD
:104ED000C7C0D0C081E08093BD058C13D9C02BC161
:104EE00064E470E081E00E94EB1D8F3F09F0C2C0D6
:104EF00083E08093BD0514C14AE050E061E081E0A9
:104F000047DD8F3F09F0B6C081E08093EE0F48EE99
:104F100053E060E070E08091E0050E947C0E85E047
:104F20008093BD0508C16091D5087091D608809125
:104F3000D7089091D80841EE5FE058DD8230A1F4A7
:104F40008091E10F9091E20FA091E30FB091E40FF7
:104F50008093EB089093EC08A093ED08B093EE08D3
:104F600086E08093BD05E2C08091E0050E94EB0ED3
:104F7000882321F081E08093BD058AC085E080937D
:104F8000BD05D9C044E650E063E081E001DD8F3F1C
:104F900009F070C082E08093EE0F44EF51E060E0D2
:104FA00070E08091E0050E947C0E87E08093BD0553
:104FB000C2C06091D5087091D6088091D7089091B1
:104FC000D80841EE5FE012DD8530B1F52091CB08C5
:104FD00030E04091CA0850E06091C90870E08091CB
:104FE000C80890E00E94700A2091DE0830E04091ED
:104FF000DD0850E06091DC0870E08091DB0890E013
:105000000E948B0A2091BE0F30E04091BD0F50E00E
:105010006091BC0F70E08091BB0F90E00E94A60AE7
:1050200048EB5BE060E070E08091DF050E947C0E61
:105030008FEF8093BD057FC0863021F483E080939D
:10504000BD056EC08091E0050E94EB0E882321F023
:1050500081E08093BD051CC087E08093BD056BC0D7
:105060008091DF050E94EB0E882321F086E080937B
:10507000BD055CC08091BD058C1709F45CC0833010
:1050800009F44EC0863009F451C0813009F053C094
:105090006FEC77E080E090E0DCDEDC01CB01019694
:1050A000A11DB11D8093EB089093EC08A093ED082F
:1050B000B093EE088093AD0B9093AE0BA093AF0B23
:1050C000B093B00B1092C8081092C9081092CA0889
:1050D0001092CB081092BB0F1092BC0F1092BD0F14
:1050E0001092BE0F1092DB081092DC081092DD08BF
:1050F0001092DE0810921E0810921F0810922008CD
:10510000109221081092E90F1092EA0F1092EB0F03
:105110001092EC0F64E470E080E00E94EB1D0BC085
:105120004AE050E061E080E033DC05C04AE050E056
:1051300063E080E02DDC8091BD05CF910895AF92B2
:10514000BF92CF92DF92EF92FF920F931F93CF9374
:10515000DF93CDB7DEB760970FB6F894DEBF0FBE12
:10516000CDBFA2960EAD1FADA29781E3F80180835B
:105170008EE2818383E3828313826F96DFAC6F9725
:10518000DA9409F44EC021E0A12CB12C0F2EFEE2DE
:10519000EF2EF12CF02D8A2D9B2DCC24C394C20E22
:1051A000EEE1F0E0EC0FFD1FE20FF11D208196957E
:1051B000982F882797958795322F3F77830F911DDA
:1051C000DA9421F02223C4F42C2DE7CF4AE0BE016B
:1051D0006F5F7F4F0E94B438F80101900020E9F71B
:1051E00031978EE290E091838083BE016F5F7F4FA5
:1051F000C8010E94783815C04AE0BE016F5F7F4F3A
:105200000E94B438F80101900020E9F73197F1824B
:10521000E082BE016F5F7F4FC8010E9478382C2D5D
:10522000BACF60960FB6F894DEBF0FBECDBFDF9148
:10523000CF911F910F91FF90EF90DF90CF90BF9093
:10524000AF90089520E4FC0111922A95E9F7FC0142
:10525000E05CFF4F1182108208958F929F92AF926F
:10526000BF92CF92DF92EF92FF920F931F93CF9353
:10527000DF93CDB7DEB760970FB6F894DEBF0FBEF1
:10528000CDBF8C017B01FC01EE5BFF4F8081843040
:1052900009F47DC0863009F46DC0843409F066C01D
:1052A00076C081E3D7018C938EE211968C9311978F
:1052B00083E312968C93129713961C92F801E05C8C
:1052C000FF4FB080BA9411F181E0812C912C0F2E08
:1052D000FEE2CF2ED12CF02D282D392DAA24A39417
:1052E000A80EF801E80FF11D80813695322F222794
:1052F00037952795982F9F77290F311DBA9409F478
:1053000053C088230CF067C08A2DE8CF80E079C0B5
:10531000F801ED5BFF4F1082339720813181211519
:105320003105D1F080E090E060E03396A801405C68
:105330005F4FD801A60FB11D2C91D701A80FB91F3F
:105340002C9360816F5F6083862F90E0DA012D914E
:105350003C918217930768F3F701E20FF31F108265
:1053600080E04FC0C8016EDF81E04BC0C8016ADF3A
:1053700087E047C0FB0101900020E9F7CF01861BC1
:10538000970B02978417950708F48BCFEBCFF701A3
:1053900001900020E9F7CF018E199F090297841729
:1053A000950708F4B5CFDECF4AE0BE016F5F7F4FAF
:1053B000C9010E94B438F70101900020E9F7319744
:1053C0008EE290E091838083BE016F5F7F4FC701C3
:1053D0000E9478389BCF4AE0BE016F5F7F4FC901C2
:1053E0000E94B438F70101900020E9F73197D1828B
:1053F000C082BE016F5F7F4FC7010E9478388A2D3F
:105400006BCF60960FB6F894DEBF0FBECDBFDF91B5
:10541000CF911F910F91FF90EF90DF90CF90BF90B1
:10542000AF909F908F9008951F93CF93DF93FC01CF
:10543000EE5BFF4F2081223029F5FB0111821082A3
:10544000FC01E05CFF4F2081318121153105E9F03D
:10545000162FE62FF72F40E050E0EC01C05CDF4F45
:1054600040955095280F391FD901A40FB51F2C91D5
:1054700021934E2F411B50E0288139814217530759
:1054800078F305C0DFDE87E003C080E001C080E084
:10549000DF91CF911F9108951F93CF93DF93FC016C
:1054A000EE5BFF4F2081223039F5FB011082118223
:1054B00012821382FC01E05CFF4F208131812115B3
:1054C0003105E9F0162FE62FF72F40E050E0EC0110
:1054D000C05CDF4F40955095280F391FD901A40FAC
:1054E000B51F2C9121934E2F411B50E0288139810B
:1054F0004217530778F305C0A5DE87E003C080E0BC
:1055000001C080E0DF91CF911F910895CF9320E4F7
:10551000FC0111922A95E9F7262F2F7B2430C9F53B
:10552000FA0101900020E9F79F01241B350B22505E
:1055300031092034310550F5FC01EE5BFF4F6083EB
:10554000FA0101900020E9F73197BF01641B750B48
:10555000FC01E05CFF4F718360833396108261151C
:105560007105D1F020E030E0C0E0DF01FA01E20F88
:10557000F31F2081FC01EC0FF11D2083CF5FCC9342
:105580002C2F30E02617370788F308C05BDE81E058
:1055900006C058DE87E003C080E001C080E0CF9104
:1055A000089520E4FC0111922A95E9F7623011F088
:1055B000643471F4FC01E05CFF4F22E030E03183A1
:1055C000208332966083FC015083418380E00895FC
:1055D00039DE87E0089570E4FC0111927A95E9F7CD
:1055E000623011F0643481F4FC01E05CFF4FA4E010
:1055F000B0E0B183A08332966083FC015083418385
:105600003283238380E008951DDE87E00895FC0146
:1056100080E4DF011D928A95E9F78FEB860F8430D5
:1056200010F0673481F4DF01A05CBF4F84E090E0AC
:1056300011969C938E9312966C9350834183328380
:10564000238380E00895CF01FDDD87E008952F9248
:105650003F924F925F926F927F928F929F92AF9202
:10566000BF92CF92DF92EF92FF920F931F93CF934F
:10567000DF93CDB7DEB72B970FB6F894DEBF0FBE22
:10568000CDBF998788876091090970910A09709345
:10569000D4086093D30889E9E2E2F8E0DF011D92C3
:1056A0008A95E9F76A39710508F0C7C1CF010E94F0
:1056B000BA2180912208803309F0C1C18091250868
:1056C00023E0280F30E0F901EE5DF74FD28095E03E
:1056D000980F792E7D0CE72CF12CF701EE5DF74F3A
:1056E0008180B481B98394E0970DAB2EA90E0A2D69
:1056F00010E0F801EE5DF74F92819C836894BB2423
:10570000B1F8BA0CB90EAB2DB0E0FD01EE5DF74F6C
:1057100092806894CC24C1F8CB0CC90C4C2C512C31
:10572000F201EE5DF74F668096E09C0D960D9D832D
:10573000292E312CA1014E5D574FFA01F181FF83D3
:10574000FA01F281FE83E885F985118212821382C3
:105750001482882331F147E258E0815090E0885D5F
:10576000974F3B832A83BB87AA87FA012191A8859B
:10577000B98511964D915D916D917C911497762F1D
:10578000652F542F4427422B11964D935D936D93B3
:105790007C931497E817F90749F72A813B81AA857A
:1057A000BB85E885F98580828092C909F4E1FD1501
:1057B00038F481E0A885B98519968C9382E06FC191
:1057C000E885F9858081833A09F03FC06D2D70E04E
:1057D00080910F09909110096817790709F06EC040
:1057E0006115710509F471C0C90103964091AB0BB5
:1057F0005091AC0BFC01EE5DF74F3081FA01208136
:10580000321791F00AC0E40FF51FC401820F911DF9
:10581000DC019C918081981771F082E0A885B985A0
:1058200019968C9387E03BC120E08E5D974FBB8338
:10583000AA83392D4C012F5FE22FF0E0E617F7071E
:1058400010F3AA81BB81932E40C0803AB9F54D2D4B
:1058500050E08091D9089091DA084817590771F5FE
:105860004115510591F1B9016D5F7F4F20911A08E3
:1058700030911B08FB01EE5DF74F9081F9018081AB
:10588000981791F00AC0820F931FFB01ED0DF11DD7
:105890008080FC018081881651F082E0A885B9855E
:1058A00019968C9387E0FBC0D12C6E5D774FD39413
:1058B0008D2D90E08417950730F307C082E0A8850E
:1058C000B98519968C9387E0EAC0E885F985158239
:1058D000168217821086F981FF2351F1A701495DD5
:1058E000574F872D90E0885D974F2F2F2150820FC3
:1058F000911DBB83AA83FA01E884F9842191D70121
:1059000015964D915D916D917C911897762F652F2D
:10591000542F4427422B15964D935D936D937C93A2
:105920001897E817F90751F7AA81BB81F986E8862D
:10593000E885F9851186FC81FF23E1F00B5D174FA7
:105940008A2D90E08A5D974F2F2F2150820F911D55
:1059500040E050E0BA01F80108851985762F652FDF
:10596000542F44272191422BE817F907B9F71987DB
:10597000088703C040E050E0BA01E885F985418717
:1059800012861386148615869920E9F0AB5DB74F11
:105990008B2D90E08A5D974F2FEF290D820F911D7F
:1059A0002D914285538564857585762F652F542FFB
:1059B0004427422B4287538764877587A817B90706
:1059C00079F7F987E887F0E4F61538F481E0A885DF
:1059D000B98519968C9383E062C080E4E885F985E7
:1059E0003E96DF011D928A95E9F7E885F985E25B2D
:1059F000FF4F862D90E091838083662021F1F20194
:105A0000E75DF74FA885B9851E968C2D90E0865DE1
:105A1000974F6A94860D911D4885598521912D9344
:105A2000E817F907D9F7598748870DC021912D93B9
:105A3000E817F907D9F780E032C086E030C085E08A
:105A40002EC080E02CC0E885F985EE56FF4FBF815F
:105A5000B083E885F985E057FF4F2E81822F90E0D3
:105A60009183808380E4E885F985E05BFF4FDF0167
:105A70001D928A95E9F7222321F3F101EB5DF74F9F
:105A800048855985405B5F4FBD818B2F90E08A5DD3
:105A9000974F2E812150820F911DDA01C7CF2B968F
:105AA0000FB6F894DEBF0FBECDBFDF91CF911F912F
:105AB0000F91FF90EF90DF90CF90BF90AF909F90AD
:105AC0008F907F906F905F904F903F902F900895B0
:105AD000CF92DF92EF92FF920F931F93CF93DF93BA
