:10000000C9C10000E8C10000E6C10000E4C1000071
:10001000E2C10000E0C10000DEC10000DCC1000060
:10002000DAC10000D8C10000D6C10000D4C1000070
:10003000D2C100000C946D0BCEC10000CCC10000F9
:10004000CAC100000C944F09C6C10000C4C1000021
:10005000C2C100000C943B0BBEC10000BCC100003B
:10006000BAC100000C94F6160C9449170C94201792
:10007000B2C10000B0C10000AEC10000ACC10000C0
:10008000AAC10000A8C10000A6C10000A4C10000D0
:100090000C9472170C94C5170C949C179CC100000B
:1000A0009AC1000098C100000C94A10B94C10000FB
:1000B00092C1000090C100008EC100008CC1000000
:1000C0008AC1000088C1000086C10000AC0FAC0FDF
:1000D0007C107C1071121011711271127112711258
:1000E0007112711271127112581100127D137D1369
:1000F000331433143415B71434153415341534153A
:100100003415341534153415FF14FF14222F2E2FF7
:100110006D2F7C2F872F8B2F9D2FCF2FE22FF22F2C
:100120001B301B301B3010301B30153000C0C1019C
:10013000C30302C2C60607C705C5C404CC0C0DCD57
:100140000FCFCE0E0ACACB0BC90908C8D81819D9C7
:100150001BDBDA1A1EDEDF1FDD1D1CDC14D4D515F7
:10016000D71716D6D21213D311D1D010F03031F1E7
:1001700033F3F23236F6F737F53534F43CFCFD3D17
:10018000FF3F3EFEFA3A3BFB39F9F83828E8E92907
:10019000EB2B2AEAEE2E2FEF2DEDEC2CE42425E5B7
:1001A00027E7E62622E2E323E12120E0A06061A127
:1001B00063A3A26266A6A767A56564A46CACAD6DD7
:1001C000AF6F6EAEAA6A6BAB69A9A86878B8B97947
:1001D000BB7B7ABABE7E7FBF7DBDBC7CB47475B577
:1001E00077B7B67672B2B373B17170B05090915167
:1001F0009353529296565797559594549C5C5D9D97
:100200005F9F9E5E5A9A9B5B995958988848498986
:100210004B8B8A4A4E8E8F4F8D4D4C8C4484854536
:1002200087474686824243834181804000C18140A6
:1002300001C0804101C0804100C1814001C08041B6
:1002400000C1814000C1814001C0804101C08041A6
:1002500000C1814000C1814001C0804100C1814096
:1002600001C0804101C0804100C1814001C0804186
:1002700000C1814000C1814001C0804100C1814076
:1002800001C0804101C0804100C1814000C1814066
:1002900001C0804101C0804100C1814001C0804156
:1002A00000C1814000C1814001C0804101C0804146
:1002B00000C1814000C1814001C0804100C1814036
:1002C00001C0804101C0804100C1814000C1814026
:1002D00001C0804101C0804100C1814001C0804116
:1002E00000C1814000C1814001C0804100C1814006
:1002F00001C0804101C0804100C1814001C08041F6
:1003000000C1814000C1814001C0804101C08041E5
:1003100000C1814000C1814001C0804100C18140D5
:1003200001C0804101C0804100C181402F03010113
:100330003303020400001900000010010004000053
:100340000046004700F701B200B3000102A400A874
:10035000000D02C600C000C100C200C500C400EF0D
:1003600001F401F501F6014203FFA001FBCF007D7E
:1003700067003F44002A33001F22001B19001B1096
:10038000001B4C0920006110200075103A008D0AF6
:100390005000010011241FBECFEFD1E2DEBFCDBF60
:1003A00000E00CBF14E0A0E0B2E0E6EFF6E600E00B
:1003B0000BBF02C007900D92A23CB107D9F722E112
:1003C000A2ECB4E001C01D92A93EB207E1F70E9481
:1003D000CF310C94793314CEFC018081089592B111
:1003E00084E0892782B9089508950895089582E0E8
:1003F00084BD85EF85BDEEE6F0E08081826080837C
:10040000089582E08093B00087EF8093B100E0E729
:10041000F0E080818260808308951092A0008DE0DA
:100420008093A100E2E7F0E08081826080830895FC
:100430000C942C330895282F30E0F901EE0FFF1FA4
:10044000E20FF31FE45DFC4F25913491E82FF0E0BB
:10045000EF51F84F8081A90164E0869F400D511D46
:100460001124CA010895282F30E044E1849FF0014F
:100470001124EB5AFC4FA591B4919C91F901E65ED1
:10048000F74F408151E0540F508354E1529FF001E7
:10049000539FF00D1124ED5AFC4FA591B4915C913E
:1004A000F22FEE27E40FF11DE451FF4E508393FF2E
:1004B0000FC0F901E295F295F07FFE27E07FFE275D
:1004C000E35BFF4E268537852F5F3F4F37872687B3
:1004D0009C7171F021E030E0A90102C0440F551F6A
:1004E0008A95E2F7CA019091F604892B8093F6046D
:1004F00008950F931F93CF93DF93C82FD0E0FE0191
:10050000ED50F84F9081923009F1FE01E295F2959D
:10051000F07FFE27E07FFE27E657FC4F0591149100
:100520008ADF0196FC0185919491CA51D84F2881A8
:10053000FC0137E0239FE00DF11D112435968591D4
:100540009491880F991F800F911F0AC0CC0FDD1F57
:10055000CC0FDD1FCC0FDD1FC251DB4F8E819F8181
:10056000DF91CF911F910F910895E1E4F3E0259180
:1005700034918217930799F060E06F5F262F30E087
:10058000F901EE0FFF1FE20FF31FEE0FFF1FEF5BEE
:10059000FC4F459154918417950779F703C020E0EB
:1005A00030E060E0E62FF0E0EE56FC4FE491EE2301
:1005B00019F0E13079F10895F22FEE27E451FF4E62
:1005C0009081F901E253F84F808198130FC0409158
:1005D0003C1081E090E0BC0102C0660F771F2A95B5
:1005E000E2F79B01242B20933C100895F901E3527C
:1005F000F94F81E08083F901E295F295F07FFE27C3
:10060000E07FFE27E35BFF4E80819181019691831D
:100610008083089540913C1081E090E0BC0102C0CD
:10062000660F771F2A95E2F79B01242B20933C103D
:1006300008958EBD00000DB407FEFDCF8EB5089560
:10064000CF93DF93C82FD92F28988FE0F2DF8D2F1B
:10065000F0DF8C2FEEDF80E0ECDF289ADF91CF9186
:100660000895CF92DF92EF92FF920F931F93CF9353
:10067000DF93EC016A0141155105B1F0062F172FE8
:100680007C01E40EF51E28988FE0D3DF8D2FD1DF9B
:100690008C2FCFDF219680E0CCDFF80181938F0192
:1006A000289ACE15DF0579F7C601DF91CF911F910A
:1006B0000F91FF90EF90DF90CF900895CF92DF924F
:1006C000EF92FF920F931F93CF93DF93EC016A0198
:1006D00041155105A9F0062F172F7C01E40EF51ED8
:1006E000289880EFA6DF8D2FA4DF8C2FA2DF219624
:1006F000F80181918F019DDF289ACE15DF0581F7E2
:10070000C601DF91CF911F910F91FF90EF90DF9085
:10071000CF900895EF92FF920F931F93259A2D9AF1
:100720002D982FEF83EC99E0215080409040E1F725
:1007300000C000006C9A74982FEF83EC99E0215070
:1007400080409040E1F700C000006C982FEF83ECF0
:1007500099E0215080409040E1F700C0000080E027
:1007600090E490932F0C80932E0C80E090E6909371
:10077000C1078093C00780E098E49093310C809388
:10078000300C80E098E69093C3078093C20780E026
:1007900090E59093330C8093320C80E090E7909337
:1007A000C5078093C40780E098E59093350C80934B
:1007B000340C80E098E79093C7078093C60760E801
:1007C00080E090E037D065E58BE190E033D065E5DF
:1007D0008AE190E02FD06894EE24E1F8F12C0EED40
:1007E00010E02CEC30E04BEB50E06AEA70E080E087
:1007F00090E051D02CE430E040E050E060E070E068
:100800008AE090E06FD02EEF30E040E050E060E012
:1008100070E08AE090E081D020E030E04FEF50E0DF
:100820006FEF70E08FEF90E093D01F910F91FF90EA
:10083000EF9008951F93CF93DF93D82F192FC62FD2
:10084000289880EFF6DE812FF4DE8D2FF2DE8C2FDC
:10085000F0DE833011F0289A5DDF289A81E0DF9185
:10086000CF911F9108951F93CF93DF93C82FD0E0AE
:10087000DC2FCC27CF5FDB4FCE01DCDF10E001C0E7
:100880001F5FCE01DDDE882311F01F3FC9F7DF9126
:10089000CF911F910895EF920F931F93CF93DF9302
:1008A000162FD42FC22F682F89E090E0C3DF612F6D
:1008B0008AE090E0BFDF6D2F8BE090E0BBDF6C2F14
:1008C0008CE090E0B7DF602F8DE090E0B3DF6E2D1D
:1008D0008EE090E0AFDF81E0DF91CF911F910F912B
:1008E000EF9008951F93CF93DF93162FD42FC22F2D
:1008F000682F8FE090E09EDF612F80E190E09ADF2B
:100900006D2F81E190E096DF6C2F82E190E092DF25
:1009100081E0DF91CF911F9108951F93CF93DF93D3
:10092000162FD42FC22F682F81E090E083DF612F34
:1009300082E090E07FDF6D2F83E090E07BDF6C2F23
:1009400084E090E077DF81E0DF91CF911F910895FF
:100950001F93CF93DF93162FD42FC22F682F85E0DC
:1009600090E068DF612F86E090E064DF6D2F87E024
:1009700090E060DF6C2F88E090E05CDF81E0DF9149
:10098000CF911F91089590E00496982F8827860FA5
:10099000971F56CE08951F93CF93DF93182F60E2D1
:1009A00070E0F1DFC82FD0E061E270E0812FEBDF73
:1009B000DC2FCC279E01282BC901DF91CF911F91FD
:1009C00008951F93CF93DF93182F66E270E0DBDF6B
:1009D000C82FD0E067E270E0812FD5DFDC2FCC2775
:1009E0009E01282BC901DF91CF911F9108959B0192
:1009F00090E00496982F8827642F820F931F1ACFB8
:100A00000895882341F08091DB04813041F018F093
:100A10008230C1F024C081E08093DB0420C0462FE7
:100A200061E070E080E0E3DF61E070E080E0ABDF98
:100A3000882321F082E08093DB0411C08FEF809344
:100A4000DB040DC061E070E080E09DDF882321F0D1
:100A500082E08093DB0403C08FEF8093DB048091FE
:100A6000DB040895882341F08091DA04813041F05D
:100A700018F08230C1F024C081E08093DA0420C0F5
:100A8000462F61E070E081E0B2DF61E070E081E07C
:100A90007ADF882321F082E08093DA0411C08FEF9F
:100AA0008093DA040DC061E070E081E06CDF8823A0
:100AB00021F082E08093DA0403C08FEF8093DA04A0
:100AC0008091DA040895882341F08091D90481301F
:100AD00041F018F08230C1F024C081E08093D90445
:100AE00020C0462F61E070E082E081DF61E070E0CD
:100AF00082E049DF882321F082E08093D90411C08D
:100B00008FEF8093D9040DC061E070E082E03BDF9D
:100B1000882321F082E08093D90403C08FEF809373
:100B2000D9048091D9040895CF93C82F692F80E10B
:100B300094E080DE6C2F81E194E07CDECF9108951B
:100B4000CF93DF93EC0168818CE094E073DE6981E0
:100B50008DE094E06FDE6A818EE094E06BDE6B8165
:100B60008FE094E067DEDF91CF910895CF93C82F97
:100B7000692F80E195E05EDE6C2F81E195E05ADE21
:100B8000CF910895CF93DF93EC0168818CE095E0DD
:100B900051DE69818DE095E04DDE6A818EE095E061
:100BA00049DE6B818FE095E045DEDF91CF910895BE
:100BB000CF93C82F692F80E196E03CDE6C2F81E156
:100BC00096E038DECF910895CF93DF93EC016881F2
:100BD0008CE096E02FDE69818DE096E02BDE6A8165
:100BE0008EE096E027DE6B818FE096E023DEDF91DA
:100BF000CF9108959F92AF92BF92CF92DF92EF92E2
:100C0000FF920F931F93CF93DF93982E5B017A018E
:100C1000E90164E270E0B7DEC82ED12C65E270E035
:100C2000892DB1DE1C2D0027082B0A0D1B1D9801F4
:100C30003770C92CD12CF601EE0FFF1FE25DF34F88
:100C400080819181820F931FA9014C0F5D1F41305C
:100C50005840B8F040E058E05A01A21AB30AA50182
:100C6000B7012CDDAE014A195B09B7016A0D7B1D86
:100C7000F601EE0FFF1FE25DF34F808191811EDDD3
:100C800003C0AE01B7011ADDC00FD11F4D2F64E2C2
:100C900070E0892DACDE4C2F65E270E0892DA7DE77
:100CA000DF91CF911F910F91FF90EF90DF90CF9048
:100CB000BF90AF909F900895DF92EF92FF920F93B5
:100CC0001F93CF93DF93D82E0FEF1FEFE12CF12C62
:100CD0008D2D61DEEC01009719F08D2D5CDE7C011D
:100CE000EC16FD0629F0015011090115110581F7D7
:100CF000C701DF91CF911F910F91FF90EF90DF908F
:100D00000895DF92EF92FF920F931F93CF93DF939B
:100D1000D82E8B017A01E901CFDF8C179D0718F4DB
:100D20008D2DCADFEC019E01A701B8018D2D62DF78
:100D3000CE01DF91CF911F910F91FF90EF90DF9047
:100D4000089520E3FC0120833296862F82958F70D0
:100D500090E1899F601911246A3010F4605D01C030
:100D6000695C6293882311F0682FEFCF08958FB7E5
:100D700080788093DA06F8948091DA06089580915D
:100D8000DA06882309F078948091DA060895A89508
:100D90002FE088E190E00FB6F894A895809360006A
:100DA0000FBE2093600008958091030391E0980F97
:100DB0009093030308958091020391E0980F90931C
:100DC00002030895CF93DF93C82FD62FD0DFEC2FE7
:100DD000F0E0E658F94FD083DD23A9F0EC2FE6953B
:100DE000E695E695F0E0E45FFA4F4081C77021E0B8
:100DF00030E0C90102C0880F991FCA95E2F78095BB
:100E00008423808313C0EC2FE695E695E695F0E009
:100E1000E45FFA4F4081C77021E030E0C90102C0B1
:100E2000880F991FCA95E2F7842B8083A8DFDF9192
:100E3000CF9108951F93CF93DF93182FEB0197DF86
:100E4000E12FF0E0EE0FFF1FE654FA4FD183C0838D
:100E5000CD2BA9F0E12FE695E695E695F0E0E1507F
:100E6000FB4F4081177021E030E0C90102C0880FBC
:100E7000991F1A95E2F780958423808313C0E12F90
:100E8000E695E695E695F0E0E150FB4F408117705E
:100E900021E030E0C90102C0880F991F1A95E2F7DE
:100EA000842B80836CDFDF91CF911F910895282FD1
:100EB00030E0F901EE0FFF1FEE0FFF1FE851FB4F6F
:100EC0001082118212821382F901E154F84F60817D
:100ED00094E6699FB00111249091E7049F5F890F08
:100EE000A9CF08952F923F924F925F926F927F9277
:100EF0008F929F92AF92BF92CF92DF92EF92FF922A
:100F00000F931F93CF93DF93382E90E0FC01EE0FE9
:100F1000FF1F8E0F9F1FFC01E25DFC4F4490512C80
:100F2000B12C032D10E0E801CF51D84FC801880F34
:100F3000991F9C01275B364F3901FC01EA5FF74F8F
:100F40006F01C801880F991F880F991F9C012851B4
:100F50003B4F4901780188818F5F8883841123C0CA
:100F600018822090E70423942394230C00DFE22DC1
:100F7000F0E0EE0FFF1FE654FA4FA080B180FFDED5
:100F8000A094B094F301B182A082F6018081918196
:100F90008A159B0510F4B182A0826FEF7FEF822D3E
:100FA00049DFBB24B394F40180819181A281B38194
:100FB000088004C0B695A795979587950A94D2F7AF
:100FC00080FF03C05394541428F2541012C0832D90
:100FD0006EDFF701EF51F84F80818F5F581629F0CF
:100FE000F701EF51F84F808304C0F701EF51F84F3C
:100FF0001082F701EA51F84F10828B2DDF91CF91CB
:101000001F910F91FF90EF90DF90CF90BF90AF9026
:101010009F908F907F906F905F904F903F902F9018
:1010200008950F931F93CF93DF93E82FF0E0DF0134
:10103000AD50B84F9C91923021F4FD01108280E0B8
:1010400058C0DF01A295B295B07FBA27A07FBA271A
:10105000A35BBF4E18962D913C9119972F5F3F4F80
:1010600019963C932E931897DF01A451BB4F9C9186
:101070009F5F9C93DF01AB5EB74F2C91921338C0FA
:10108000DF01AF51B84F41E050E060E070E00C90FC
:1010900004C0440F551F661F771F0A94D2F7DF0163
:1010A000AA0FBB1FAA0FBB1FED01C35CDF4E088157
:1010B00019812A813B81042B152B262B372B088382
:1010C00019832A833B83A851BB4F0D911D912D910C
:1010D0003C911397402B512B622B732B4D935D93B7
:1010E0006D937C931397E451FB4F1082FBDE01C09C
:1010F00080E0DF91CF911F910F910895CF92DF9201
:10110000EF92FF92CF93C82F6A017B0130DEEC2F64
:10111000F0E0EE0FFF1FEE0FFF1FE65EFA4FC082FA
:10112000D182E282F382CD28CE28CF28A9F0EC2FFD
:10113000E695E695E695F0E0E750FB4F4081C770F5
:1011400021E030E0C90102C0880F991FCA95E2F77B
:1011500080958423808313C0EC2FE695E695E69571
:10116000F0E0E750FB4F4081C77021E030E0C9015B
:1011700002C0880F991FCA95E2F7842B8083FFDD98
:10118000CF91FF90EF90DF90CF900895CF93C82F2D
:10119000EEDDEC2FE695E695E695F0E0E150FB4FAD
:1011A000208130E08C2F877002C0359527958A9575
:1011B000E2F720FF0DC0EC2FF0E0EE0FFF1FE6542A
:1011C000FA4F20813181C1E0232B19F0C0E001C02A
:1011D000C0E0D5DD8C2FCF910895CF93C82FC7DD08
:1011E000EC2FE695E695E695F0E0E750FB4F208181
:1011F00030E08C2F877002C0359527958A95E2F7ED
:1012000020FF13C0EC2FF0E0EE0FFF1FEE0FFF1FCB
:10121000E65EFA4F4081518162817381C1E0452BC6
:10122000462B472B19F0C0E001C0C0E0A8DD8C2F91
:10123000CF910895ACDD109280008AEE80938100FA
:1012400080E29EE49093890080938800EFE6F0E0CE
:1012500080818260808380E090E02FEFFC01E45F7A
:10126000FA4F208301968C309105C1F780E090E021
:101270002FEFFC01E150FB4F208301968D3091054B
:10128000C1F78FEF8093F9048093FA048093FB04F5
:101290008093FC048093FD048093FE0408951F92C4
:1012A0000F920FB60F9211240BB60F922F933F930C
:1012B0004F935F936F937F938F939F93AF93BF935E
:1012C000EF93FF938091F7048F5F8093F70480E0A2
:1012D00090E061E070E0282F26952695269530E075
:1012E000F901E85EFA4F4081A82FA77050E00A2E5E
:1012F00002C0559547950A94E2F740FD14C0FC01E1
:10130000EE52F94F40814150408341110CC0F90128
:10131000E85EFA4F40819B0102C0220F331FAA955D
:10132000E2F7242B2083019688309105A1F6809165
:10133000DC049091DD04A091DE04B091DF040196FD
:10134000A11DB11D8093DC049093DD04A093DE0405
:10135000B093DF04FF91EF91BF91AF919F918F9177
:101360007F916F915F914F913F912F910F900BBEA5
:101370000F900FBE0F901F901895FF920F931F9321
:10138000CF93DF93F894F090F7041092F7047894D9
:10139000FF2009F4D2C010E040E050E021E030E04E
:1013A0008091520990915309A0915409B091550927
:1013B0000196A11DB11D8093520990935309A093EA
:1013C0005409B0935509CA01F894682F669566953B
:1013D000669570E0FB01E45FFA4FE081A82FA770EB
:1013E000F0E00A2E02C0F595E7950A94E2F7E0FDD9
:1013F00014C0FC01E658F94FB081B150B083B1116F
:101400000CC0FB01E45FFA4FB081B90102C0660F66
:10141000771FAA95E2F76B2B608378940196883545
:10142000910591F6CA01F894682F669566956695C0
:1014300070E0FB01E150FB4FE081C82FC770F0E086
:101440000C2E02C0F595E7950A94E2F7E0FD1AC06C
:10145000DC01AA0FBB1FA654BA4FED91FC91119766
:1014600031971196FC93EE93EF2B61F4FB01E15061
:10147000FB4FA081B90102C0660F771FCA95E2F742
:101480006A2B6083789401968036910561F6BA01E3
:10149000F894E62FE695E695E695F0E0DF01A75093
:1014A000BB4F8C91062F077090E0002E02C09595DF
:1014B00087950A94E2F780FD21C0EB01CC0FDD1F78
:1014C000CC0FDD1FC65EDA4F88819981AA81BB816E
:1014D0000197A109B10988839983AA83BB83892BCA
:1014E0008A2B8B2B59F4E750FB4FA081C90102C016
:1014F000880F991F0A95E2F78A2B808378946F5F93
:101500007F4F6832710521F68091D8048F5F843651
:1015100019F08093D8040EC01092D8048091450928
:101520009091460990935809809357095093460922
:10153000409345091F5F1F1133CFDF91CF911F915A
:101540000F91FF900895A8958091450990914609C3
:10155000019690934609809345098091F804E82FFD
:10156000F0E0E658F94F9081909590931B082091F8
:10157000F507291710F49093F5076FEF23CC089522
:101580004F925F926F927F92AF92BF92CF92DF9213
:10159000EF92FF920F931F93CF93DF93EC015B01C8
:1015A00029013A012115310541055105F1F0C12C00
:1015B000D12C7601C5018C0D9D1DFE01199580274A
:1015C000282F30E0F901E45DFD4F04910127F90176
:1015D000E45DFE4F1491FFEFCF1ADF0AEF0AFF0A16
:1015E000C414D504E604F70429F7802F90E0912B6A
:1015F000DF91CF911F910F91FF90EF90DF90CF90EF
:10160000BF90AF907F906F905F904F9008950F9331
:101610001F930FEF1FEFB4DF1F910F9108950F93EA
:101620001F932CE030E040E050E060E070E088E1A3
:1016300092E0EDDF2BEF3FE02C50304040E050E0F7
:101640008C0161E170E088E192E09ADF1F910F91D7
:10165000089580912D0C81FD06C0E1DFBC018EE074
:1016600090E00C94473308950E943933F2CF0895E7
:101670000A9A129808951F920F920FB60F92112492
:101680000BB60F922F933F934F935F936F937F937C
:101690008F939F93AF93BF93EF93FF9385B5887F0D
:1016A00085BDEEE6F0E080818D7F808386E490E06A
:1016B0000E94B502FF91EF91BF91AF919F918F91E1
:1016C0007F916F915F914F913F912F910F900BBE42
:1016D0000F900FBE0F901F9018951F920F920FB68C
:1016E0000F9211240BB60F922F933F934F935F935A
:1016F0006F937F938F939F93AF93BF93EF93FF93DA
:10170000E1EBF0E08081887F8083E0E7F0E080819A
:101710008D7F808382EB90E00E94B502FF91EF9174
:10172000BF91AF919F918F917F916F915F914F91F9
:101730003F912F910F900BBE0F900FBE0F901F90F7
:1017400018951F920F920FB60F9211240BB60F929D
:101750002F933F934F935F936F937F938F939F93B9
:10176000AF93BF93EF93FF93E1EAF0E08081887F2E
:101770008083E2E7F0E080818D7F808384EA90E0DF
:101780000E94B502FF91EF91BF91AF919F918F9110
:101790007F916F915F914F913F912F910F900BBE71
:1017A0000F900FBE0F901F901895FF920F931F93ED
:1017B000CF93DF93C82FD0E08E01000F111F0C0FC5
:1017C0001D1FC8018B5F9F4F0E942C33F82E0A5FAC
:1017D0001F4FC8010E942C33F11004C0813039F032
:1017E0009EE808C091E0F91621F096EB03C096E858
:1017F00001C096EA24E12C9FF0012D9FF00D1124E9
:10180000E75AFC4FA591B4919F779C93FF2029F054
:10181000813019F061E0C80127DFDF91CF911F917E
:101820000F91FF900895CF93DF93C82FD0E0CE01A2
:10183000880F991F8C0F9D1F895F9F4F0E942C332B
:10184000FE01EA5AF64F808390E09C01220F331F7D
:10185000820F931F89599C4F24E12C9FF0012D9FEB
:10186000F00D1124E35AFC4FA591B491FC01249191
:101870002C9324E12C9FF0012D9FF00D1124E55AAB
:10188000FC4FA591B491FC013196E491EC93FE01DB
:10189000EE0FFF1FCE0FDF1FFE01EE0FFF1FED5BF0
:1018A000FC4FA591B491FC01329684918C93DF9109
:1018B000CF910895CF93DF93C82FD0E0FE01E3527C
:1018C000F94F83E0808384E18C9FF0018D9FF00DC0
:1018D0001124E15AFC4F85919491FC01199584E102
:1018E0008C9FF0018D9FF00D1124ED5AFC4FA591B6
:1018F000B491FC2FEE27E451FF4E80818C9384E15C
:101900008C9FF0018D9FF00D1124EB5AFC4FA59197
:10191000B4918C9180648C9384E18C9FF0018D9FB5
:10192000F00D1124E95AFC4FA591B4918C9180627D
:101930008C93DF91CF910895CF93DF93E3E5F3E0AC
:10194000259134918217930791F040E054E14F5F65
:10195000C42FD0E05C9FF0015D9FF00D1124ED5A83
:10196000FC4F259134918217930789F703C0C0E09B
:10197000D0E040E0FE01E352F94F2081223009F42B
:1019800049C028F4222339F02130D1F056C0263046
:1019900008F451C052C0FC018081FC2FEE27E451B5
:1019A000FF4E8083FE01EE0FFF1FCE0FDF1FFE01F3
:1019B000EE0FFF1FEF5BFC4FA591B4911C923DC051
:1019C000FE01E352F94F82E0808321E030E00C2EEB
:1019D00002C0220F331F0A94E2F720958091F6048B
:1019E00028232093F604FE01E65EF74F1082842F31
:1019F0000E943302CE01880F991FC80FD91FCE0154
:101A0000880F991F8B5B9C4FFC0125913491F90144
:101A1000199513C0842F0E943302FE01EE0FFF1FA1
:101A2000CE0FDF1FFE01EE0FFF1FEF5BFC4FA591F6
:101A3000B4911C9202C0FC018081DF91CF91089586
:101A4000EF92FF921F93CF93DF93C82FD0E0FE0158
:101A5000E65EF74F20814091F60450E0BA0102C0E3
:101A6000759567958A95E2F760FD1AC02330D0F02E
:101A700022507C2F662764517F4EFB01E20FF11D3F
:101A8000E080F18030E040E050E08CEE91E0BFDD9E
:101A900011E0E816F90609F410E01123F9F003C08B
:101AA00011E001C011E0FE01E295F295F07FFE2702
:101AB000E07FFE27E35BFF4E828193810196938353
:101AC000828384E18C9FF0018D9FF00D1124ED59EC
:101AD000FC4F85919491FC0119951BC0FE01E29584
:101AE000F295F07FFE27E07FFE27E35BFF4E20812B
:101AF00031812F5F3F4F3183208384E18C9FF00140
:101B00008D9FF00D1124EB59FC4F25913491F90173
:101B10001995812FDF91CF911F91FF90EF9008953C
:101B2000CF93DF93682F70E0FB01E65EF74F2081D3
:101B30002250762F662764517F4EEB01C20FD11DD4
:101B400030E040E050E08CEE91E061DD99838883E5
:101B5000DF91CF910895282F30E070E0322F2227B7
:101B6000F901E451FF4EE60FF71F8181620F731FE9
:101B7000FB01E451FF4E208190E0922B0895CF921B
:101B8000DF92EF92FF920F931F93CF93DF93F82E84
:101B9000C82FD0E0FC2FEE27E451FF4E8181863024
:101BA00081F020F48150843038F0E7C08F30D9F0D4
:101BB000803109F4B3C0E1C0C65ED74F88E08883A6
:101BC000DCC0FE01E65EF74F88E080838F2D0E9427
:101BD0007902DC2FCC27C451DF4EFC0121812C83FC
:101BE00080818D83CAC064E08F2DB5DF8C0196950E
:101BF00087959695879596958795980127703327B1
:101C000041E0232B09F440E0242F280FFC2FEE277E
:101C1000E451FF4E2683DE01A65EB74F275F2C936B
:101C2000E80FF91F1782FE01ED50F84F80818230D6
:101C300009F1FE01E295F295F07FFE27E07FFE2795
:101C4000EE57FC4FC590D4908F2D0E941B02019639
:101C5000FC0185919491FE01EA51F84F2081FC012D
:101C600037E0239FE00DF11D112435968591949165
:101C7000B82F0CC0FE01EE0FFF1FEE0FFF1FEE0F7F
:101C8000FF1FE251FB4FC680D780B0E00115110560
:101C900009F473C0A0E061E070E0DC2FCC278A2F4C
:101CA0008B0F9A2F9695969596950F2EF7E0EF2E1F
:101CB000F02DE90E2A2F2770AB0102C0440F551FEB
:101CC0002A95E2F79A01982F969596959695F601A2
:101CD000E90FF11D408150E08770FA0102C0F595CF
:101CE000E7958A95E2F7E0FF09C0FE01EE0DF11DD0
:101CF000E451FF4E8081282B208309C0FE01EE0DA8
:101D0000F11DE451FF4E2095808128232083AF5F91
:101D10002A2F30E02017310710F22FC01C2F002788
:101D200004511F4EF8018581880F8683FE01E65E0F
:101D3000F74F875F80838F2D0E947902F8012581FC
:101D40002223D9F040E0E80198012B5F3F4F542F48
:101D5000550FA42FB0E0AA0FBB1FA80FB91FFE019B
:101D6000E50FF11D11965C91119757835C91508797
:101D70004F5FF9015081451750F38F2DD1DEDF9170
:101D8000CF911F910F91FF90EF90DF90CF9008952A
:101D9000CF93C82F0E941B02BC01FC0131964591D4
:101DA00054912C2F30E0F901EA51F84F808197E0EF
:101DB000899F400D511D1124FB016491F22FEE27E4
:101DC000E451FF4E6083FA018491F22FEE27E45133
:101DD000FF4E8183FA013296E491B22FAA27A451D3
:101DE000BF4E1296EC93FA013196E491B22FAA27D6
:101DF000A451BF4E1396EC93FA013496E491B22F9E
:101E0000AA27A451BF4E1496EC93FA01339644913D
:101E1000B22FAA27A451BF4E15964C938C2FAFDE3C
:101E2000CF910895282F30E0F22FEE27E451FF4E96
:101E3000D901AA0FBB1FAA0FBB1FAA0FBB1FA2511C
:101E4000BB4F9C91908311969C9111979183129610
:101E50009C91129713964C911397428393831496F7
:101E60009C91149715964C9144839583F901ED50FC
:101E7000F84F92E0908383CE08956F927F928F9275
:101E80009F92AF92BF92CF92DF92EF92FF920F9309
:101E90001F93CF93DF93D82EC82FD0E0FE01E352DB
:101EA000F94F8081882319F0823031F06FC3C3521B
:101EB000D94F81E088836AC384E0FE01E352F94F81
:101EC00080838D2DBDDD882329F0C352D94F81E059
:101ED00088835CC3FC2FEE27E451FF4E808188236A
:101EE00059F0FE01E253F84F9081891729F0C3524F
:101EF000D94F81E088834AC384E18C9F80018D9F04
:101F0000100D11240F591C4FF80125913491F9013E
:101F10001995FE01E295F295F07FFE27E07FFE27FE
:101F2000E35BFF4E8681978101969783868362E00B
:101F30008D2D11DE7C01FC2FEE27E451FF4EC18078
:101F40008C2D90E0FC013197E031F10508F0C9C219
:101F5000EA59FF4F0C940432FC2FEE27E451FF4E58
:101F60008081882309F4C1C0FE01E65EF74F8081BD
:101F7000883059F0FC2FEE27E451FF4E83E0828336
:101F80000F2EF3E0FF2EF02DB6C264E08D2DE3DDC1
:101F9000AC018E0D9F1DF1E0CF120FC0FE01E29546
:101FA000F295F07FFE27E07FFE27EC57FC4F25914E
:101FB00034912817390778F018C0FE01E295F295A0
:101FC000F07FFE27E07FFE27E857FC4F25913491F4
:101FD00028173907B0F4FC2FEE27E451FF4E82E0BA
:101FE00082836894FF24F1F886C2FE01E295F2959F
:101FF000F07FFE27E07FFE27EE57FC4FA591B491BE
:102000000BC0FE01E295F295F07FFE27E07FFE27F0
:10201000EA57FC4FA591B49121E0CA018770992736
:10202000892B09F420E0CA019695879596958795A6
:1020300096958795820FFC2FEE27E451FF4E828301
:10204000FE01E65EF74F8B5F80834115510509F471
:102050004FC0C12C20E030E081E090E0BC2EAA24EB
:102060002E0D3F1D6C2D6695669566950F2EF3E03F
:102070009F2EF02D960EEC2DE7703C0102C0660CF1
:10208000771CEA95E2F7B90176956795769567959D
:10209000769567956A0F7B1FFB01608170E0277062
:1020A0003327FB0102C0F595E7952A95E2F7E0FF9B
:1020B0000AC09501290D311D24513F4EF90160815F
:1020C000662960830AC09501290D311D24513F4EB8
:1020D0006094F901608166216083C3942C2D30E007
:1020E0002417350708F4BCCF05C0FF24FA9403C2B7
:1020F000F12C01C2F12CFFC1FC2FEE27E451FF4E61
:102100008081882309F485C0FE01E65EF74F808157
:10211000883059F0FC2FEE27E451FF4E83E0828394
:102120000F2EF3E0FF2EF02DE6C1FC2FEE27E45139
:10213000FF4E4581C701840F911DF3E0CF120FC000
:10214000FE01E295F295F07FFE27E07FFE27E4573F
:10215000FC4F259134912817390778F018C0FE01FB
:10216000E295F295F07FFE27E07FFE27E057FC4FD7
:102170002591349128173907B0F4FC2FEE27E4514C
:10218000FF4E82E082836894FF24F1F8B4C1FE011F
:10219000E295F295F07FFE27E07FFE27E657FC4FA1
:1021A000859194910BC0FE01E295F295F07FFE2798
:1021B000E07FFE27E257FC4F85919491EE0CFF1CC7
:1021C0008E0D9F1D440FBC2FAA27A451BF4E1296FF
:1021D0004C931297FE01E65EF74F4B5F40831596D6
:1021E0006C9115976623C1F0FC0140E09D01542FCE
:1021F000550F7901E50EF11C5181D70113965C93BF
:1022000080813296D70114968C934F5F4613EFCF9F
:1022100005C0FF24FA946FC1F12C6DC1F12C6BC184
:10222000FE01E65EF74F8081883059F0FC2FEE27E3
:10223000E451FF4E83E082830F2EF3E0FF2EF02D5A
:102240005AC1FE01E295F295F07FFE27E07FFE275E
:10225000E457FC4F8591949197012F5F3F4F821770
:10226000930750F4FC2FEE27E451FF4E82E0828367
:102270006894FF24F1F83FC188E0FE01E65EF74F65
:102280008083FE01E295F295F07FFE27E07FFE2736
:10229000E657FC4F85919491EE0CFF1CE80EF91E59
:1022A00064E08D2D58DCF70191838083F12C23C1EC
:1022B00064E08D2D50DCFC2FEE27E451FF4EA6810B
:1022C000FE01E65EF74F408150E02A2F30E0275FA5
:1022D0003F4F42175307B9F421E030E0BC0167706B
:1022E0007727672B11F420E030E0BC0176956795E5
:1022F0007695679576956795260F371F4A2F50E09C
:102300002417350759F0FC2FEE27E451FF4E83E0E8
:1023100082830F2EF3E0FF2EF02DEDC0FE01E2953B
:10232000F295F07FFE27E07FFE27EC57FC4F2591CA
:102330003491AC014E0D5F1D2417350750F4FC2F6E
:10234000EE27E451FF4E82E082836894FF24F1F887
:10235000D2C0FE01E295F295F07FFE27E07FFE27D6
:10236000EE57FC4F2591349148E0FE01E65EF74FB1
:102370004083C12CE1E0F0E07C2F6627AB014451A3
:102380005F4E3A0136C0DA01AE0DBF1DAD01569564
:1023900047955695479556954795A770BB275F017A
:1023A00002C0AA0CBB1CAA95E2F7AC2DA695A69577
:1023B000A695B3016A0F711DDB011796AC91B0E0D1
:1023C0007C2D7770072E02C0B595A7950A94E2F789
:1023D000A0FF07C0D901A40FB51F4C91A42AAC924D
:1023E00007C0D901A40FB51FA0944C914A214C936A
:1023F000C3944C2D50E04817590728F2F12C7BC0AC
:10240000FC2FEE27E451FF4E868190E0FE01E65E50
:10241000F74F408150E09C01275F3F4F4217530721
:1024200061F4FC2FEE27E451FF4E4581242F30E06C
:10243000220F331F8217930759F0FC2FEE27E45128
:10244000FF4E83E082830F2EF3E0FF2EF02D53C06A
:10245000FE01E295F295F07FFE27E07FFE27E4572C
:10246000FC4F859194919701240F311D821793079A
:1024700050F4FC2FEE27E451FF4E82E082836894F3
:10248000FF24F1F838C088E0FE01E65EF74F808354
:10249000FE01E295F295F07FFE27E07FFE27E657EA
:1024A000FC4F85909490C12C9C2F8827DC01AF5065
:1024B000BF4E3D0110C05701AC0CB11CAA0CBB1C97
:1024C000A80CB91C6C2D660F695F8D2D44DBF501DE
:1024D00091838083C394D3018C91C81660F3F12C4F
:1024E0000AC0FC2FEE27E451FF4E81E082838081F9
:1024F00081110BC01CC0FC2FEE27E451FF4E8081E0
:10250000882399F0FF2079F002C0FF24F394FC2F78
:10251000EE27E451FF4E81818068818385E0FE01D2
:10252000E65EF74F80838D2DFBDAFF2071F0FE0110
:10253000E295F295F07FFE27E07FFE27E35BFF4EFA
:1025400084819581019695838483FC2FEE27E45145
:10255000FF4E8081882319F08D2DACD917C0FE0164
:10256000E295F295F07FFE27E07FFE27E35BFF4ECA
:1025700080859185019691878087C352D94F81E0EC
:102580008883F80185919491FC011995DF91CF9191
:102590001F910F91FF90EF90DF90CF90BF90AF9081
:1025A0009F908F907F906F90089524E1829FC0014B
:1025B0001124FC01EF59FC4F85919491FC01199570
:1025C0000895CF93DF93C82FD0E0CE01885F9F4F4F
:1025D0000E942C33C253D84F8883DF91CF91089546
:1025E0006F927F929F92AF92BF92CF92DF92EF92C3
:1025F000FF920F931F93CF93DF93D82EC82FD0E075
:10260000FE01E352F94F8081882319F0823071F086
:1026100097C28091E7048E5F6FEF7FEF8D0D0E9470
:102620001A078D2DB5DB8D2D45D98AC284E0FE01B8
:10263000E352F94F8083FE01ED50F84F908181E025
:10264000923009F080E08093ED048D2DF9D9882334
:1026500021F08D2D0E94110863C284E18C9FF0014E
:102660008D9FF00D1124EF59FC4F85919491FC0141
:1026700019958091ED04882381F0FE01EE0FFF1F74
:10268000EE0FFF1FEE0FFF1FE251FB4F80814181D4
:1026900020E030E000E010E015C08D2D0E941B020C
:1026A0008C01FC01319625913491FE01EA51F84FDD
:1026B0008081F7E08F9F200D311D1124F801849156
:1026C000F9014491BC2FAA27A451BF4E9C919813A5
:1026D00004C0FD016181641721F08D2D0E94110855
:1026E0001FC2862F90E0FC013197E031F10508F020
:1026F000BBC1EA58FF4F0C9404328091ED0488234B
:1027000059F0FE01EE0FFF1FEE0FFF1FEE0FFF1F30
:10271000E251FB4F748103C0F90133967491FC2F91
:10272000EE27E451FF4E828190E0FE01E65EF74F16
:10273000E081F0E0AC014B5F5F4FE417F50709F073
:102740008AC0E72FE695E695E695F0E041E050E097
:10275000A72FA77011F440E050E04E0F5F1F8417C1
:10276000950709F07AC08091ED04882369F0FE0195
:10277000EE0FFF1FEE0FFF1FEE0FFF1FE251FB4F8B
:10278000A681B781C12C1FC0613061F4FE01E295C2
:10279000F295F07FFE27E07FFE27EE57FC4FA591D4
:1027A000B4910BC0FE01E295F295F07FFE27E07F29
:1027B000FE27EA57FC4FA591B4912B5F3F4FF901DB
:1027C00085919491C82EA72EB12CA114B10409F4BF
:1027D00046C020E030E081E090E05C2F4427BA0161
:1027E00064517F4E7B014C2D420F942E969496940B
:1027F00096944770FC0102C0EE0FFF1F4A95E2F766
:10280000AF01F901F695E795F695E795F695E79509
:10281000EE0DFF1DE381F0E0B901677077273F01FE
:1028200002C0759467946A95E2F760FE07C0FD01E7
:10283000E90DF11D5081452B408307C0FD01E90DD5
:10284000F11D40955081452340832F5F3F4F2A154E
:102850003B0548F206C081E008C181E006C180E086
:1028600004C180E002C1FC2FEE27E451FF4E7281CB
:10287000FE01E65EF74F408150E0872F90E005961D
:102880004817590709F06BC08091ED04882371F057
:10289000FE01EE0FFF1FEE0FFF1FEE0FFF1FE251B5
:1028A000FB4F84819581880F991F06C0F9013396EB
:1028B00085919491880F991F472F50E04817590729
:1028C00009F04FC08091ED04882361F0FE01EE0F06
:1028D000FF1FEE0FFF1FEE0FFF1FE251FB4FA68001
:1028E000B78023C0633061F4FE01E295F295F07F7A
:1028F000FE27E07FFE27E657FC4F859194910BC0A1
:10290000FE01E295F295F07FFE27E07FFE27E25779
:10291000FC4F859194912B5F3F4FF90125913491A4
:10292000220F331F5C01A20EB31E7695CC24CA94ED
:10293000C70ECAF0770F99249394970EEC2CEE0CE7
:10294000FF08EA0CFB1C692D8D2D05D9F701918339
:102950008083CA949A949A94CC2084F706C081E02C
:1029600084C081E082C080E080C080E07EC0809131
:10297000ED04882371F0FE01EE0FFF1FEE0FFF1F25
:10298000EE0FFF1FE251FB4FE280F380A680B7807D
:1029900019C0F9013196E590F490FE01E295F295A7
:1029A000F07FFE27E07FFE27E657FC4F859194914C
:1029B0002B5F3F4FF90125913491220F331F5C01AA
:1029C000A20EB31EFE01E65EF74F8081883099F4B7
:1029D00062E08D2DC0D88E159F0579F464E08D2DB1
:1029E000BAD841E0F501208131818217930709F4BB
:1029F00040E0842F3AC081E038C081E036C0809149
:102A0000ED04882371F0FE01EE0FFF1FEE0FFF1F94
:102A1000EE0FFF1FE251FB4FE280F380A480B580F0
:102A200009C0F9013196E590F4902D5F3F4FF9010F
:102A3000A590B490FE01E65EF74F8081883081F466
:102A400062E08D2D88D88E159F0561F464E08D2D90
:102A500082D821E08A159B0509F420E0822F05C069
:102A600081E003C081E001C080E0882391F0FE0195
:102A7000E295F295F07FFE27E07FFE27E35BFF4EB5
:102A8000848195810196958384838D2D0E94110800
:102A900047C08091ED04882331F0CD50D84F188283
:102AA00065E070E048C0FE01EE0FFF1FEE0FFF1F54
:102AB000BF01635C7F4E81E090E0A0E0B0E09E014A
:102AC0002F51384FF901008004C0880F991FAA1FA9
:102AD000BB1F0A94D2F780959095A095B095FB0105
:102AE000408151816281738184239523A623B7237A
:102AF00080839183A283B383FE01EA51F84F8081E2
:102B00008F5F8083F8013396E4918E1304C08D2D7E
:102B10000E94720701C080E0FE01E451FB4F108269
:102B2000882339F0CC0FDD1FCF50D84F68817981D1
:102B300002C065E070E08091E7048D0D0E941A07E5
:102B4000DF91CF911F910F91FF90EF90DF90CF9089
:102B5000BF90AF909F907F906F900895E82FF0E026
:102B6000E55CFF4E608170E09091E704890F0C9462
:102B70001A0708951F93CF93DF93E3E5F3E02591C0
:102B800034918217930791F010E044E11F5FC12F49
:102B9000D0E04C9FF0014D9FF00D1124ED5AFC4FF9
:102BA000259134918217930789F703C0C0E0D0E0E4
:102BB00010E0FE01E952FB4F6081462F50E0FE011C
:102BC000E65EF74F208130E022503109421753076B
:102BD00009F544E14C9F90014D9F300D1124295A75
:102BE0003C4FF901A591B4914C914F7D4C93F90163
:102BF000A591B4912C9120642C9324E12C9FF00199
:102C00002D9FF00D1124EB5AFC4FA591B4912C91FE
:102C100020642C936F5FFE01E952FB4F6083FE013D
:102C2000E65EF74F2081621750F4DC2FCC27C60FE9
:102C3000D11DC451DF4E2881FC01208330C084E1C6
:102C40008C9FF0018D9FF00D1124E95AFC4FA59146
:102C5000B4918C918F798C9384E18C9FF0018D9F3E
:102C6000F00D1124E15AFC4F85919491FC011995C6
:102C7000FE01E952FB4F1082C352D94F81E0888395
:102C8000E12FF0E0EE56FC4FE491EE2319F0E13035
:102C900021F005C0812F89DC02C0812F5FDFDF9129
:102CA000CF911F9108951F93CF93DF93182FC09159
:102CB000E704C80F81E08C0F0E94C608882319F032
:102CC000812F0E9457078C2F0E94C608882309F481
:102CD00069C0F894C12FD0E0FE01E352F94F808122
:102CE000813029F485E0FE01E352F94F8083789426
:102CF000FE01E352F94F8081843031F1853009F0D3
:102D000051C0812F0E941108FE01ED50F84F8081C3
:102D1000882319F0813021F00AC0812F39D807C0EB
:102D2000C451DB4F8881811102C0812F7BD88091F3
:102D3000E7046FEF7FEF810F0E941A07F894812F4D
:102D40000E945A0C78942EC0F89484E18C9FF00174
:102D50008D9FF00D1124EF59FC4F25913491F9010D
:102D600019957894CD50D84F8881882319F08130F7
:102D700021F00CC0812F0CD809C08091ED0488236C
:102D800019F0812F05D802C0812F4CD88091E7041B
:102D90006FEF7FEF810F0E941A07F894812F0E9436
:102DA0005A0C7894DF91CF911F91089580913C1037
:102DB00080FF14C0F89480913C108E7F80933C106B
:102DC0007894E2E9F3E0E491EE2319F0E13021F0A8
:102DD00005C080E052D802C080E002DCE2E9F3E006
:102DE000E491E13011F480E05ECF08951F920F92DC
:102DF0000FB60F9211240BB60F922F933F934F9360
:102E00005F936F937F938F939F93AF93BF93EF9352
:102E1000FF9386EC90E00E949C0CFF91EF91BF9194
:102E2000AF919F918F917F916F915F914F913F9162
:102E30002F910F900BBE0F900FBE0F901F90189503
:102E40001F920F920FB60F9211240BB60F922F9371
:102E50003F934F935F936F937F938F939F93AF9322
:102E6000BF93EF93FF9386EC90E084DEFF91EF91A8
:102E7000BF91AF919F918F917F916F915F914F9192
:102E80003F912F910F900BBE0F900FBE0F901F9090
:102E900018951F920F920FB60F9211240BB60F9236
:102EA0002F933F934F935F936F937F938F939F9352
:102EB000AF93BF93EF93FF9386EC90E05BDEFF91BF
:102EC000EF91BF91AF919F918F917F916F915F91A2
:102ED0004F913F912F910F900BBE0F900FBE0F900F
:102EE0001F9018951F920F920FB60F9211240BB6D8
:102EF0000F922F933F934F935F936F937F938F9393
:102F00009F93AF93BF93EF93FF938EEC90E00E945B
:102F10009C0CFF91EF91BF91AF919F918F917F9109
:102F20006F915F914F913F912F910F900BBE0F903A
:102F30000FBE0F901F9018951F920F920FB60F9211
:102F400011240BB60F922F933F934F935F936F9380
:102F50007F938F939F93AF93BF93EF93FF938EECE9
:102F600090E008DEFF91EF91BF91AF919F918F911B
:102F70007F916F915F914F913F912F910F900BBE79
:102F80000F900FBE0F901F9018951F920F920FB6C3
:102F90000F9211240BB60F922F933F934F935F9391
:102FA0006F937F938F939F93AF93BF93EF93FF9311
:102FB0008EEC90E0DFDDFF91EF91BF91AF919F919B
:102FC0008F917F916F915F914F913F912F910F90D2
:102FD0000BBE0F900FBE0F901F9018951F93CF93AD
:102FE000DF93D62F172FC091D604882331F0C1303C
:102FF00051F018F0C23029F12DC081E08093D60441
:10300000C13089F539C060E181E00E9401058F3F40
:1030100009F56FEF82E094E00E941A0462E080E01C
:1030200094E00E941A04612F84E094E00E941A0444
:103030006D2F85E094E00E941A0482E08093D6040C
:1030400017C061E081E00E9401058F3F19F4809371
:10305000D60412C08091D6048C1771F0813019F01B
:10306000823031F009C060E080E00E94010504C0B8
:1030700060E080E00E9401058091D604DF91CF914D
:103080001F9108951F93CF93DF93D62F172FC091D1
:10309000D504882331F0C13051F018F0C23029F145
:1030A0002DC081E08093D504C13089F539C060E13D
:1030B00081E00E9432058F3F09F56FEF82E095E0D5
:1030C0000E941A0462E080E095E00E941A04612FD9
:1030D00084E095E00E941A046D2F85E095E00E943F
:1030E0001A0482E08093D50417C061E081E00E9459
:1030F00032058F3F19F48093D50412C08091D50416
:103100008C1771F0813019F0823031F009C060E025
:1031100080E00E94320504C060E080E00E94320539
:103120008091D504DF91CF911F910895CF93DF93C4
:10313000EA01FB019081911109C09181911106C0B2
:103140009281911103C09381992319F1209721F164
:10315000811109C0CB010E94A005CE010E949405F7
:1031600081E090E01EC0813049F4CB010E94C2058D
:10317000CE010E94B60581E090E013C0823079F460
:10318000CB010E94E405CE010E94D80581E090E0C9
:1031900008C080E090E005C080E090E002C081E0DF
:1031A00090E0DF91CF910895AB01109274101092CE
:1031B0007310BC0180E0BACF0895AB011092C9072B
:1031C0001092C807BC0181E0B1CF08959B016091C6
:1031D000731070917410AC0180E00E948106209100
:1031E000731030917410280F391F3093741020938E
:1031F000731008959B016091C8077091C907AC01D5
:1032000081E00E9481062091C8073091C907280FEC
:10321000391F3093C9072093C8070895CF93C091F1
:10322000D404882331F0C13051F018F0C23089F055
:103230002EC081E08093D404C13079F532C060E2C1
:1032400081E00E9432058F3F11F582E08093D40423
:1032500028C062E070E081E00E94C30484FD0DC0DC
:1032600062E070E081E00E94C30483FF10C048E187
:1032700062E070E081E00E94F70440E162E070E00B
:1032800081E00E94F7048FEF8093D4040AC08091FC
:10329000D4048C1731F0813021F460E280E00E9488
:1032A00032058091D404CF910895CF93C091D30477
:1032B000882331F0C13051F018F0C23089F02EC0AF
:1032C00081E08093D304C13079F532C060E281E0BF
:1032D0000E9401058F3F11F582E08093D30428C03E
:1032E00062E070E080E00E94C30484FD0DC062E0F3
:1032F00070E080E00E94C30483FF10C048E162E0F8
:1033000070E080E00E94F70440E162E070E080E05D
:103310000E94F7048FEF8093D3040AC08091D304F6
:103320008C1731F0813021F460E280E00E940105C9
:103330008091D304CF9108951F93CF93DF93D62F1D
:10334000172FC091D204882331F0C13051F018F00A
:10335000C23029F12DC081E08093D204C13089F5BB
:1033600039C060E181E00E9463058F3F09F56FEF8E
:1033700082E096E00E941A0462E080E096E00E94FB
:103380001A04612F84E096E00E941A046D2F85E0F4
:1033900096E00E941A0482E08093D20417C061E094
:1033A00081E00E9463058F3F19F48093D20412C01C
:1033B0008091D2048C1771F0813019F0823031F095
:1033C00009C060E180E00E94630504C061E080E024
:1033D0000E9463058091D204DF91CF911F910895DF
:1033E000AB011092480910924709BC0182E09ECEC1
:1033F00008959B016091470970914809AC0182E0F2
:103400000E9481062091470930914809280F391FF1
:1034100030934809209347090895AF92BF92CF9205
:10342000DF92EF92FF920F931F93CF93DF931F9240
:103430001F92CDB7DEB77A8369837A018901E9816A
:10344000FA81F770C82ED12CD601AA0FBB1FA05449
:10345000B84F8D919C918E0F9F1F2E0F3F1F2130D3
:103460003840C8F020E038E05901AE1ABF0AA50183
:10347000B7010E943103A8014A195B09B7016A0D1F
:103480007B1DF601EE0FFF1FE054F84F8081918104
:103490000E94310304C0A801B7010E9431030F90BC
:1034A0000F90DF91CF911F910F91FF90EF90DF90E0
:1034B000CF90BF90AF900895DF92EF92FF920F935D
:1034C0001F93CF93DF93D82E7B018A0168E270E0CF
:1034D0000E94C304C82FD0E069E270E08D2D0E94E5
:1034E000C304DC2FCC27C82B9801A701BE018D2D6A
:1034F00094DFC00FD11F4D2F68E270E08D2D0E9428
:10350000F7044C2F69E270E08D2D0E94F704DF91E3
:10351000CF911F910F91FF90EF90DF900895DF9270
:10352000EF92FF920F931F93CF93DF93D82E0FEF5D
:103530001FEFE12CF12C8D2D0E94E104EC0100978E
:1035400021F08D2D0E94E1047C01EC16FD0629F08E
:10355000015011090115110571F7C701DF91CF91D4
:103560001F910F91FF90EF90DF900895DF92EF92FF
:10357000FF920F931F93CF93DF93D82E7B018A0185
:10358000CEDFEC01009799F463E070E08D2D0E948E
:10359000C3048431D9F08823C9F0C1E0D0E08C3174
:1035A00011F4C0E0D0E0D195C195D10904C008174D
:1035B00019070CF4E8011C161D0644F4AE01B7010E
:1035C0008D2D7ADF60E48D2D0E943304CE01DF91D2
:1035D000CF911F910F91FF90EF90DF9008950F937F
:1035E0001F93CF93DF931F92CDB7DEB7082F10E064
:1035F000F801EE0FFF1FE75FF74F20813181232B8A
:10360000B1F041E050E0BE016F5F7F4FAFDF1816B1
:10361000190684F4F801EE0FFF1FE75FF74F808172
:103620009181019791838083898190E005C08FEF1C
:103630009FEF02C08FEF9FEF0F90DF91CF911F910F
:103640000F910895DF92EF92FF920F931F93CF9304
:10365000DF93CDB7DEB728970FB6F894DEBF0FBE65
:10366000CDBFD82EE82EF12CF701EE0FFF1FE75F3C
:10367000F74F20813181232B41F08F018D2DAFDF5A
:10368000F80120813181232BC9F78D2D48DF1816D1
:103690001906ACF548E050E0BE016F5F7F4F8D2DFD
:1036A00065DF9C01181619063CF589818093491045
:1036B0008A8180934A108B8180934B108C818093F8
:1036C0004C10C701880F991FFC01EF5BFF4E2D8145
:1036D00030E0322F22274E81240F311D3183208389
:1036E0002F8130E0322F22274885240F311DFC0125
:1036F000E75FF74F31832083822F932F02C080E052
:1037000090E028960FB6F894DEBF0FBECDBFDF91D4
:10371000CF911F910F91FF90EF90DF90089580E07F
:1037200091CF089581E08ECF08954091090850917E
:103730000A0841155105D9F06417750728F0BC0136
:1037400080E014DF9C0105C0AB01BC0180E00EDF0E
:103750009C011216130674F4E9E0F8E0808191816F
:10376000821B930B91838083822F932F08958FEF79
:103770009FEF08958FEF9FEF089540910B085091B0
:103780000C0841155105D9F06417750728F0BC01E4
:1037900081E0ECDE9C0105C0AB01BC0181E0E6DE0E
:1037A0009C011216130674F4EBE0F8E0808191811D
:1037B000821B930B91838083822F932F08958FEF29
:1037C0009FEF08958FEF9FEF089580E008CF089551
:1037D0008091E3049091E404A091E504B091E604A3
:1037E0000196A11DB11D8093E3049093E404A0937E
:1037F000E504B093E60480E0A3C00895CF93C091A0
:10380000D104811103C01092D10406C0C13099F0D7
:1038100018F0C23001F149C08091D004811104C078
:103820000E94D4068093D00481E08093D104C130FB
:1038300009F041C044C060E281E00E9463058F3F0F
:10384000A1F568EE73E08091D0040E941A0782E02F
:103850008093D10434C062E070E082E00E94C3042F
:1038600084FD19C062E070E082E00E94C30483FF1F
:1038700007C048E162E070E082E00E94F70415C0F2
:103880008091D0040E94C608882379F0A1DF8FEFD1
:103890008093D10414C040E162E070E082E00E94B5
:1038A000F7048FEF8093D1040AC08091D1048C1764
:1038B00031F0813021F460E280E00E946305809164
:1038C000D104CF910895BF92CF92DF92EF92FF92F1
:1038D0000F931F93CF93DF937B016A01E901B090AF
:1038E000CF04882331F0BB2021F081E0B81639F0F5
:1038F0000DC081E08093CF04B8120EC015C081E0E6
:103900007DDF8F3F19F48093CF040EC08091CF04E8
:103910008B1551F0813041F4B601C70161DDB8016A
:10392000CE0167DD80E06ADF8091CF04DF91CF9127
:103930001F910F91FF90EF90DF90CF90BF9008956F
:103940000F931F93CF93C091CE04811103C01092A7
:10395000CE0408C0C130A9F028F0C23011F1C43043
:1039600051F14BC08091CD04811104C00E94D40656
:103970008093CD0481E08093CE04C13009F047C02C
:10398000E5C069EE77E081E0D7DC8F3FB1F568EE06
:1039900073E08091CD040E941A0782E08093CE04E8
:1039A000D5C08091CD040E94C608882331F184E0FF
:1039B0008093CE0431C063E070E082E00E94C304D3
:1039C000823219F01092CE04C1C04091FA02509197
:1039D000FB020EE310E02EED36E06CEF72E081E0CA
:1039E00072DF8F3F51F468EE73E08091CD040E9446
:1039F0001A0782E08093CE04A9C08091CE048C1770
:103A000009F4A4C0813019F0843031F09FC069EE10
:103A100077E080E091DC9AC0EEEDF6E085E080830F
:103A200081E08093DF069091F8022091F9022093C3
:103A3000E0069093E1068093E20682E08093E3063D
:103A400083E18093E40686E38093E5068091CA07CC
:103A50008093E6068091CB078093E7068091CC07A0
:103A60008093E8068091CD078093E90687E58093EF
:103A7000EA0685E38093EB0681E38093EC0680E31E
:103A80008093ED068093EE0680E28093EF0684E556
:103A90008093F00695E49093F10693E59093F206F7
:103AA0008093F30689EF96E09093F7078093F607EB
:103AB00010A2178E12A211A28091F0029091F10231
:103AC00094A383A38091F4029091F50296A385A319
:103AD0008BE790E090A787A388E097E092A781A763
:103AE00088E998E094A783A78BE097E09093DC06A1
:103AF0008093DB068091DC049091DD04A091DE04CC
:103B0000B091DF04880F991FAA1FBB1FAC01BD0134
:103B1000440F551F661F771F440F551F661F771FE1
:103B2000840F951FA61FB71F85A796A7A7A7B0ABA1
:103B30008AE180931B074091FA025091FB020EE349
:103B400010E09F016CEF72E080E0BDDE8091CE045A
:103B5000CF911F910F9108958F929F92AF92BF9234
:103B6000CF92DF92EF92FF920F931F93CF93DF9349
:103B7000CDB7DEB7A4970FB6F894DEBF0FBECDBFAA
:103B8000E82ED62EC72E6894FF24F5F88E010F5F1D
:103B90001F4FF8018F2D11928A95E9F78FEF89A3B6
:103BA0008AA38BA38CA363E470E0CE018196FCDA38
:103BB00081E089838A8386E08B831C824091ED07B4
:103BC0005091EE076091EF077091F007872E9924CE
:103BD000AA24BB24B42FAA279927882788299929A2
:103BE000AA29BB298824942EA52EB62E8824992490
:103BF000BB2488299929AA29BB29452F562F672F2D
:103C00007727442766277727482B592B6A2B7B2B4E
:103C10004D835E836F837887C986DA8680E890E07B
:103C20009C878B876CE170E0C801D0DAF8018F2D9A
:103C300011928A95E9F786E0EFECF7E0D801019060
:103C40000D928A95E1F760E170E0C801BFDAF801F2
:103C50001192FA94E9F706E010E060E270E0CE011C
:103C60000196B4DA0150110901151105B1F783E687
:103C7000898392E89A8393E59B838C8385E38D8384
:103C800081E08E83EF829DE3988797E099878A870A
:103C900086E0EFECF7E0DE011B9601900D928A952D
:103CA000E1F78CE0898B8A8B87E0E4E0F3E0DE01CA
:103CB000539601900D928A95E1F76091D207CE015B
:103CC00049960E94A1066091D307CE014B960E94AF
:103CD000A1066091D407CE014D960E94A1066EE127
:103CE00070E0CE01019672DAF3E0EF1224C082E3B5
:103CF000898384E08A839091CA079B839091CB0744
:103D00009C839091CC079D839091CD079E8396E3F1
:103D10009F838887809120078987809121078A87E0
:103D2000809122078B87809123078C876CE070E05D
:103D3000CE0101964BDA87E3898386E08A8391E09E
:103D40009B8393E09C838D838FE08E838AE38F83B4
:103D50008BE388878FEF898769E070E0CE01019659
:103D600035DAA4960FB6F894DEBF0FBECDBFDF9153
:103D7000CF911F910F91FF90EF90DF90CF90BF9068
:103D8000AF909F908F9008950F931F93CF93DF93E1
:103D9000062FEA011091CC04882329F0112319F091
:103DA000113039F00DC081E08093CC04113071F4F2
:103DB00012C081E07ADA8F3F19F48093CC040BC0F3
:103DC0009091CC04911739F0913029F4BE01802FE5
:103DD000C3DE80E06ADA8091CC04DF91CF911F913D
:103DE0000F9108952F923F924F925F927F928F9200
:103DF0009F92AF92BF92CF92DF92EF92FF920F937A
:103E00001F93CF93DF93CDB7DEB7A2970FB6F89489
:103E1000DEBF0FBECDBF8A0182DC181619060CF07A
:103E2000F1C162E270E0CE0101967FDC89818230CF
:103E300009F0EAC1809141109091421083349105BC
:103E400009F0E4C18D819E81AF81B885CB2EDD2440
:103E5000EE24FF24782F662755274427C42AD52A25
:103E6000E62AF72A4427582F692F7A2F4427552707
:103E70007727C42AD52AE62AF72A892F9A2FAB2F2B
:103E8000BB278827AA27BB27C82AD92AEA2AFB2AC0
:103E9000F801C082D182E282F38246E050E06FEC0A
:103EA00077E0CE014D960E94C532892B09F0B0C152
:103EB0008091290C90912A0CA0912B0CB0912C0C84
:103EC000C816D906EA06FB0608F4A4C18091ED07DE
:103ED0009091EE07A091EF07B091F0078C159D052A
:103EE000AE05BF0508F498C189899A89AB89BC8958
:103EF0008093CA079093CB07A093CC07B093CD07CC
:103F00000EEC10E062DC0150110901151105D1F72A
:103F1000712C0F2EF9E0CF2EF8E0DF2EF02D812C42
:103F2000912C0F2EF0E2AF2EF7E0BF2EF02D0F2ECA
:103F3000F1E44F2EF0E15F2EF02D0F2EF1E22F2E47
:103F4000F7E03F2EF02D56C140DC8333910509F494
:103F500005C17CF48130910529F124F4892B09F401
:103F600049C13DC18330910521F1069709F439C05B
:103F700036C18A33910509F47FC03CF4853391053D
:103F800069F0C69709F445C02AC18B33910509F43D
:103F9000ACC08F3F910509F42DC121C116DC15DCA1
:103FA000782E28C112DC64E070E087E390E10DDC3C
:103FB00021C10BDC7C0164E070E08DED97E005DC55
:103FC000FF24F4E0EF1AF1081E141F040CF012C1D4
:103FD000082D192DFADB0F5F1F4F0E151F05D4F3A7
:103FE00009C1F3DB7C0164E070E085E690E1EDDB84
:103FF000FF2484E0E81AF1081E141F040CF0FAC034
:10400000082D192DE2DB0F5F1F4F0E151F05D4F38E
:10401000F1C0DBDBF501908191110EC0F1019081BF
:1040200091110AC0E2E2F7E09081911105C0E3E24C
:10403000F7E09081992399F0F501008111812281A7
:104040003381F20140815181628173810417150728
:104050002607370721F0F82E811106C0CBC064E097
:1040600070E0C501B2DBC6C0082D192DAEDB0F5FB5
:104070001F4FF012FBCFBEC0A8DB64E070E088EFFA
:1040800097E0A3DB8091F8079091F907A091FA07D8
:10409000B091FB070B2F112722273327782F662794
:1040A00055274427042B152B262B372B4427582F15
:1040B000692F7A2F442755277727042B152B262B7A
:1040C000372B492F5A2F6B2F7727442766277727BF
:1040D000402B512B622B732B4093F8075093F90719
:1040E0006093FA077093FB0785C06FDB64E070E0B4
:1040F00086E198E06ADB8091160890911708A091FC
:104100001808B09119080B2F112722273327782F71
:10411000662755274427042B152B262B372B44279E
:10412000582F692F7A2F442755277727042B152BD3
:10413000262B372B492F5A2F6B2F7727442766279B
:104140007727402B512B622B732B409316085093EB
:10415000170860931808709319084CC036DB64E0A8
:1041600070E082EE97E031DB8091E2079091E30707
:10417000A091E407B091E5070B2F112722273327E1
:10418000782F662755274427042B152B262B372BF2
:104190004427582F692F7A2F442755277727042B38
:1041A000152B262B372B492F5A2F6B2F7727442778
:1041B00066277727402B512B622B732B4093E20706
:1041C0005093E3076093E4077093E50740936B1007
:1041D00050936C1060936D1070936E100BC0F5DAF5
:1041E000F82E882339F0082D192DEFDA0F5F1F4FB5
:1041F000F012FBCFF60180819181892B09F0A4CECA
:10420000872D0BC08FEF09C080E007C080E005C09C
:1042100080E003C080E001C080E0A2960FB6F89471
:10422000DEBF0FBECDBFDF91CF911F910F91FF90E9
:10423000EF90DF90CF90BF90AF909F908F907F9046
:104240005F904F903F902F900895CF92DF92EF9222
:10425000FF926B017C01611571058105910539F0B3
:104260000E947632A70196010E94E83103C060E007
:1042700070E0CB01FF90EF90DF90CF900895CF9347
:10428000C091CB04811110C08091E20481111EC045
:10429000809100038093E20492E0980F90930003D2
:1042A0008F5F8093E10412C0C530C9F130F4C13092
:1042B00099F060F0C330E1F0D9C0C73009F475C09F
:1042C00008F45CC0CF3F09F4C7C0D0C081E0809340
:1042D000CB048C13D9C02BC164E470E081E00E9450
:1042E000EE178F3F09F0C2C083E08093CB0414C166
:1042F0004AE050E061E081E047DD8F3F09F0B6C061
:1043000081E080936A1048EE53E060E070E08091B5
:10431000E2040E947E0885E08093CB0408C160918E
:10432000D7077091D8078091D9079091DA074DE5AA
:1043300050E158DD8230A1F480915D1090915E10C3
:10434000A0915F10B09160108093ED079093EE07FD
:10435000A093EF07B093F00786E08093CB04E2C010
:104360008091E2040E94ED08882321F081E080938F
:10437000CB048AC085E08093CB04D9C044E650E0EA
:1043800063E081E001DD8F3F09F070C082E080933F
:104390006A1044EF51E060E070E08091E2040E9416
:1043A0007E0887E08093CB04C2C06091D7077091EC
:1043B000D8078091D9079091DA074DE550E112DDD9
:1043C0008530B1F52091CD0730E04091CC0750E029
:1043D0006091CB0770E08091CA0790E00E94720460
:1043E0002091E00730E04091DF0750E06091DE0768
:1043F00070E08091DD0790E00E948D0420913A10DA
:1044000030E04091391050E06091381070E08091B8
:10441000371090E00E94A80448EB5BE060E070E099
:104420008091E1040E947E088FEF8093CB047FC0CF
:10443000863021F483E08093CB046EC08091E20447
:104440000E94ED08882321F081E08093CB041CC0FA
:1044500087E08093CB046BC08091E1040E94ED085B
:10446000882321F086E08093CB045CC08091CB044C
:104470008C1709F45CC0833009F44EC0863009F40F
:1044800051C0813009F053C06FEC77E080E090E0DC
:10449000DCDEDC01CB010196A11DB11D8093ED078F
:1044A0009093EE07A093EF07B093F0078093290C49
:1044B00090932A0CA0932B0CB0932C0C1092CA074B
:1044C0001092CB071092CC071092CD0710923710A4
:1044D000109238101092391010923A101092DD0795
:1044E0001092DE071092DF071092E007109220076B
:1044F0001092210710922207109223071092651044
:1045000010926610109267101092681064E470E0C8
:1045100080E00E94EE170BC04AE050E061E080E0CE
:1045200033DC05C04AE050E063E080E02DDC8091A0
:10453000CB04CF910895AF92BF92CF92DF92EF92CA
:10454000FF920F931F93CF93DF93CDB7DEB76097A2
:104550000FB6F894DEBF0FBECDBFA2960EAD1FAD55
:10456000A29781E3F80180838EE2818383E38283D3
:1045700013826F96DFAC6F97DA9409F44EC021E096
:10458000A12CB12C0F2EFEE2EF2EF12CF02D8A2D56
:104590009B2DCC24C394C20EEEE1F0E0EC0FFD1F86
:1045A000E20FF11D20819695982F88279795879582
:1045B000322F3F77830F911DDA9421F02223C4F428
:1045C0002C2DE7CF4AE0BE016F5F7F4F0E9403337F
:1045D000F80101900020E9F731978EE290E0918395
:1045E0008083BE016F5F7F4FC8010E94D23215C029
:1045F0004AE0BE016F5F7F4F0E940333F8010190D4
:104600000020E9F73197F182E082BE016F5F7F4FB2
:10461000C8010E94D2322C2DBACF60960FB6F89402
:10462000DEBF0FBECDBFDF91CF911F910F91FF90E5
:10463000EF90DF90CF90BF90AF9008953F924F9250
:104640005F926F927F928F929F92AF92BF92CF9222
:10465000DF92EF92FF920F931F93CF93DF9300D0DF
:104660001F921F92CDB7DEB78C01DB018C91813395
:1046700009F0E5C011968C9111978E3209F0DFC0D8
:1046800012968C911297833309F0D9C013968C91AE
:104690008E3209F0D4C080E4F80111928A95E9F7CE
:1046A0008BE2D8018C93FB0101900020E9F7319750
:1046B0003F01661A770AFE01319685E0DF011D92FF
:1046C0008A95E9F7B5E06B1671040CF471C06B01C3
:1046D000E4E0CE0ED11C6894EE24E2F8F12CAA247A
:1046E000A394B12C80E090E09E012F5F3F4F4901E1
:1046F0000F2EF5E03F2EF02D412C512CD6012D919F
:104700006D012E3209F047C0C4010E949F32272F4D
:10471000862F922F8038910528F4F801EA0DFB1DB1
:1047200060832EC08115B0E49B0788F4F801EA0D80
:10473000FB1D880F991F892F80688083EFEFAE1AC9
:10474000BE0AF801EA0DFB1D6F77608319C0F801FE
:10475000EA0DFB1D9C0124E0329F212D33271124FB
:10476000237020682083880F991F892F8068818398
:10477000F2E0AF0EB11CF801EA0DFB1D6F7760830C
:10478000D401E32D1D92EA95E9F7FFEFAF1ABF0AB6
:10479000842D952D05C0F401E80FF91F20830196A3
:1047A0002FEFE21AF20A6E147F0409F0A7CF03C0BC
:1047B000AA24A394B12CCE0101960E948232282F04
:1047C000392F2038310528F4F801EA0DFB1D8083CC
:1047D0002EC0211590E4390788F4F801EA0DFB1D7D
:1047E000220F331F932F90689083AFEFAA1ABA0A53
:1047F000F801EA0DFB1D8F77808319C0F801EA0DDF
:10480000FB1DA90144E0549F412D552711244370FD
:1048100040684083220F331F932F90689183B2E04A
:10482000AB0EB11CF801EA0DFB1D8F778083F801F8
:10483000E05CFF4F2FEFA21AB20AB182A0820F9064
:104840000F900F900F900F90DF91CF911F910F91CC
:10485000FF90EF90DF90CF90BF90AF909F908F90A0
:104860007F906F905F904F903F90089520E4FC01FF
:1048700011922A95E9F7FC01E05CFF4F118210824A
:1048800008958F929F92AF92BF92CF92DF92EF9254
:10489000FF920F931F93CF93DF93CDB7DEB760974F
:1048A0000FB6F894DEBF0FBECDBF8C017B01FC01BB
:1048B000EE5BFF4F8081843009F47DC0863009F4BF
:1048C0006DC0843409F066C076C081E3D7018C9353
:1048D0008EE211968C93119783E312968C93129724
:1048E00013961C92F801E05CFF4FB080BA9411F16E
:1048F00081E0812C912C0F2EFEE2CF2ED12CF02DB9
:10490000282D392DAA24A394A80EF801E80FF11D33
:1049100080813695322F222737952795982F9F77BC
:10492000290F311DBA9409F453C088230CF067C0D5
:104930008A2DE8CF80E079C0F801ED5BFF4F10824F
:1049400033972081318121153105D1F080E090E04D
:1049500060E03396A801405C5F4FD801A60FB11DFF
:104960002C91D701A80FB91F2C9360816F5F6083D2
:10497000862F90E0DA012D913C918217930768F31E
:10498000F701E20FF31F108280E04FC0C8016EDF15
:1049900081E04BC0C8016ADF87E047C0FB0101909E
:1049A0000020E9F7CF01861B970B02978417950724
:1049B00008F48BCFEBCFF70101900020E9F7CF018E
:1049C0008E199F0902978417950708F4B5CFDECF9B
:1049D0004AE0BE016F5F7F4FC9010E940333F701B8
:1049E00001900020E9F731978EE290E09183808377
:1049F000BE016F5F7F4FC7010E94D2329BCF4AE05A
:104A0000BE016F5F7F4FC9010E940333F701019020
:104A10000020E9F73197D182C082BE016F5F7F4FDE
:104A2000C7010E94D2328A2D6BCF60960FB6F894E0
:104A3000DEBF0FBECDBFDF91CF911F910F91FF90D1
:104A4000EF90DF90CF90BF90AF909F908F900895A0
:104A50001F93CF93DF93FC01EE5BFF4F2081223049
:104A600059F53297208131812330310540F5FB0122
:104A700011821082FC01E05CFF4F20813181211501
:104A80003105F9F0162FE62FF72F40E050E0EC014A
:104A9000C05CDF4F40955095280F391FD901A40FF6
:104AA000B51F2C9121934E2F411B50E02881398155
:104AB0004217530778F307C0D9DE87E005C081E0CD
:104AC00003C080E001C080E0DF91CF911F91089585
:104AD000CF9320E4FC0111922A95E9F7262F2F7B32
:104AE0002430C9F5FA0101900020E9F79F01241B49
:104AF000350B225031092034310550F5FC01EE5BB5
:104B0000FF4F6083FA0101900020E9F73197BF0160
:104B1000641B750BFC01E05CFF4F7183608333966F
:104B2000108261157105D1F020E030E0C0E0DF01B6
:104B3000FA01E20FF31F2081FC01EC0FF11D20832D
:104B4000CF5FCC932C2F30E02617370788F308C0AF
:104B50008DDE81E006C08ADE87E003C080E001C010
:104B600080E0CF91089520E4FC0111922A95E9F7A5
:104B7000623011F0643471F4FC01E05CFF4F22E01C
:104B800030E03183208332966083FC01508341837F
:104B900080E008956BDE87E0089570E4FC011192D7
:104BA0007A95E9F7623011F0643481F4FC01E05C3D
:104BB000FF4FA4E0B0E0B183A08332966083FC0194
:104BC000508341833283238380E008954FDE87E062
:104BD0000895FC0180E4DF011D928A95E9F78FEBCF
:104BE000860F843010F0673481F4DF01A05CBF4F82
:104BF00084E090E011969C938E9312966C93508370
:104C000041833283238380E00895CF012FDE87E044
:104C10000895FA01223049F46130E9F4DC014D9144
:104C20005C9162E0CF019FCF0895243039F4623067
:104C3000F9F4AC0164E0CF014BCF0895233459F46B
:104C40006330B1F4DC012D913D914D915C9163E4B1
:104C5000CF01BFCF0895223059F4643049F4DC010C
:104C60002D913D914D915C9162E0CF0196CF0895D9
:104C70000895223079F4643011F5EAEBF2E0019006
:104C80000020E9F73197AF014A5B52406AEB72E0CE
:104C9000F8CD0895213029F4623061F4BA01D8CEFC
:104CA0000895633419F4233029F405C0623011F4F7
:104CB000243019F0089580E0089580E00895633469
:104CC000A9F7F8CF2F923F924F925F926F927F9207
:104CD0008F929F92AF92BF92CF92DF92EF92FF920C
:104CE0000F931F93CF93DF93CDB7DEB72B970FB6FC
:104CF000F894DEBF0FBECDBF9987888760910B08FF
:104D000070910C087093D6076093D50789E9E4E2A7
:104D1000F7E0DF011D928A95E9F76A39710508F01D
:104D2000C8C1CF010E94BD1B80912407803309F0C8
:104D3000C2C18091270723E0280F30E0F901EC5D24
:104D4000F84FD28095E0980F792E7D0CE72CF12C4E
:104D5000F701EC5DF84F8180B481B98394E0970D41
:104D6000AB2EA90E0A2D10E0F801EC5DF84F9281F0
:104D70009C836894BB24B1F8BA0CB90EAB2DB0E09B
:104D8000FD01EC5DF84F92806894CC24C1F8CB0C07
:104D9000C90C4C2C512CF201EC5DF84F668096E06A
:104DA0009C0D960D9D83292E312CA1014C5D584FF1
:104DB000FA01F181FF83FA01F281FE83E885F9852A
:104DC0001182128213821482882331F149E257E062
:104DD000815090E0865D984F3B832A83BB87AA87EA
:104DE000FA012191A885B98511964D915D916D913A
:104DF0007C911497762F652F542F4427422B1196C0
:104E00004D935D936D937C931497E817F90749F7D9
:104E10002A813B81AA85BB85E885F98580828092BD
:104E20004B09F4E1FD1538F481E0A885B9851996A0
:104E30008C9382E070C1E885F9858081833A09F01E
:104E40003FC06D2D70E08091110890911208681795
:104E5000790709F06FC06115710509F472C0C901C5
:104E6000039640912D0B50912E0BFC01EC5DF84FF9
:104E70003081FA012081321791F00AC0E40FF51F4A
:104E8000C401820F911DDC019C918081981771F003
:104E900082E0A885B98519968C9387E03CC120E013
:104EA0008C5D984FBB83AA83392D4C012F5FE22F75
:104EB000F0E0E617F70710F3AA81BB81932E41C0FB
:104EC000805A8230B8F54D2D50E08091DB079091EB
:104ED000DC074817590771F54115510591F1B901E2
:104EE0006D5F7F4F20911C0730911D07FB01EC5D2A
:104EF000F84F9081F9018081981791F00AC0820FD4
:104F0000931FFB01ED0DF11D8080FC01808188164F
:104F100051F082E0A885B98519968C9387E0FBC093
:104F2000D12C6C5D784FD3948D2D90E0841795072C
:104F300030F307C082E0A885B98519968C9387E085
:104F4000EAC0E885F9851582168217821086F981F4
:104F5000FF2351F1A701475D584F872D90E0865DF3
:104F6000984F2F2F2150820F911DBB83AA83FA01E6
:104F7000E884F9842191D70115964D915D916D9149
:104F80007C911897762F652F542F4427422B159626
:104F90004D935D936D937C931897E817F90751F73C
:104FA000AA81BB81F986E886E885F9851186FC81AE
:104FB000FF23E1F0095D184F8A2D90E0885D984F3E
:104FC0002F2F2150820F911D40E050E0BA01F801CF
:104FD00008851985762F652F542F44272191422B60
:104FE000E817F907B9F71987088703C040E050E0D0
:104FF000BA01E885F98541871286138614861586DD
:105000009920E9F0A95DB84F8B2D90E0885D984F0D
:105010002FEF290D820F911D2D91428553856485B7
:105020007585762F652F542F4427422B428753874F
:1050300064877587A817B90779F7F987E887F0E4D7
:10504000F61538F481E0A885B98519968C9383E02C
:1050500062C080E4E885F9853E96DF011D928A955D
:10506000E9F7E885F985E25BFF4F862D90E09183B3
:105070008083662021F1F201E55DF84FA885B985AE
:105080001E968C2D90E0845D984F6A94860D911D3C
:105090004885598521912D93E817F907D9F7598744
:1050A00048870DC021912D93E817F907D9F780E0C3
:1050B00032C086E030C085E02EC080E02CC0E8859C
:1050C000F985EE56FF4FBF81B083E885F985E0573B
:1050D000FF4F2E81822F90E09183808380E4E885CA
:1050E000F985E05BFF4FDF011D928A95E9F72223E6
:1050F00021F3F101E95DF84F48855985405B5F4F29
:10510000BD818B2F90E0885D984F2E812150820FBA
:10511000911DDA01C7CF2B960FB6F894DEBF0FBEF4
:10512000CDBFDF91CF911F910F91FF90EF90DF9056
:10513000CF90BF90AF909F908F907F906F905F9037
:105140004F903F902F900895CF92DF92EF92FF9271
:105150000F931F93CF93DF93DC011092BE07109241
:10516000BD07EC01C25BDF4FFC01E057FF4F288118
:10517000398180819181280F391F2B5D3F4F89E94B
:10518000E4E2F7E0EF0119928A95E9F780914B0983
:10519000833A29F58091110890911208280F391F40
:1051A0003093D6072093D50730E33093240722505D
:1051B0002093250722E02093260721E0209327074C
:1051C00024E02093290727E030E03093BE072093A6
:1051D000BD07BC0180932A07009731F566C0809116
:1051E000DB079091DC07280F391F3093D6072093F7
:1051F000D50730E33093240722502093250722E07F
:105200002093260721E02093270724E020932907F5
:1052100027E030E03093BE072093BD07BC018093A8
:105220002A07009711F541C000912D0B10912E0B0C
:1052300080E090E0C0E02091BD073091BE07A90159
:105240004F5F5F4F5093BE074093BD07800F911F84
:10525000FC0180812C5D384FF9018083CF5F8C2F5A
:1052600090E08617970738F320C000911C07109133
:105270001D0780E090E0C0E02091BD073091BE079F
:10528000A9014F5F5F4F5093BE074093BD07800F4A
:10529000911FFC0180812C5D384FF9018083CF5F25
:1052A0008C2F90E08617970738F38091BD07909177
:1052B000BE079C012F5F3F4F3093BE072093BD0771
:1052C0004C91FC01EC5DF84F4083A9014C5D584FB7
:1052D0007D012EE4E20EF11CE70178819D0120574B
:1052E0003F4FE9016881670F665EEA01688302E06B
:1052F000028314E0138315964C91159716965C91D2
:10530000169717966C91179718967C911897748337
:105310006583568347830087118719964C911997A7
:105320001286138614864587068717871A964C912E
:105330001A971B965C911B971C966C911C971D9657
:105340007C911D97708B618B528B438B40E3448B18
:10535000E7016881E9015881560F5A5F558B468BEA
:10536000E7014881E9012881240F2C5F278B26E083
:10537000208F4A969093BE078093BD07E7018881EE
:10538000818F88819981892B49F18091BD07909106
:10539000BE07FD013E969C012C5D384F69017C01E2
:1053A0003DE0E31AF108EA1AFB0A02EF1FEF0A1BBD
:1053B0001B0BBE01A7014E0F5F1F8191E601899370
:1053C0006E0198012E0F3F1FEB01888199812817EC
:1053D000390780F35093BE074093BD078091BD0706
:1053E0009091BE07FD01EE56FF4F2081EC01CC5D90
:1053F000D84F288302969093BE078093BD073297BB
:105400008081898380819181892B29F10091BD0759
:105410001091BE07E054F109E801CC5DD84F0F545C
:1054200011090A1B1B0B60EB7FEF6A1B7B0BA0575C
:10543000BF4FA8014E0F5F1F819189939B012E0FD3
:105440003F1F8D919C9111972817390790F3509326
:10545000BE074093BD07609143107091441089E4EA
:1054600090E10E94DD186091D5077091D60784E223
:1054700097E00E94FA1880E0DF91CF911F910F9181
:10548000FF90EF90DF90CF9008959F92AF92BF92E0
:10549000CF92DF92EF92FF920F931F93CF93DF9300
:1054A0007C015B0109E012E0C0E0D0E06E01F80190
:1054B00060817181C7010E94DD32892B09F086C0AD
:1054C000F5018081833A91F5F601EE0FFF1FEE0F93
:1054D000FF1FEE0FFF1FEC19FD09E75FFD4F8681EF
:1054E000811107C082EAF501808384E0818781E031
:1054F00078C0F601EE0FFF1FEE0FFF1FEE0FFF1F2C
:10550000EC19FD09E75FFD4F4381548125816281DC
:10551000C501805B9F4FADDB8093E91082EAF50106
:1055200080838091E910818781E05BC0803AE9F453
:10553000F601EE0FFF1FEE0FFF1FEE0FFF1FEC191E
:10554000FD09E75FFD4FA501405B5F4F228165814B
:10555000838194815EDB8093E91082EAF501808388
:105560008091E910818781E03CC0813AB9F5F1E191
:10557000FC1728F18FEFC81AD80AE601CC0FDD1FFF
:10558000CC0FDD1FCC0FDD1FCC19DD09C75FDD4F50
:1055900068817981C5010E9651D8A501405B5F4FA6
:1055A0002A816D818B819C8134DB8093E91082EAB2
:1055B000F50180838091E910818781E012C082EA41
:1055C000F501808382E0818781E00BC02196095F2D
:1055D0001F4FC331D10509F069CF02C081E001C07E
:1055E00080E0DF91CF911F910F91FF90EF90DF90BE
:1055F000CF90BF90AF909F900895CF93DF93CDB79A
:10560000DEB7C459D1090FB6F894DEBF0FBECDBFC7
:10561000CE01019657DB8093EE11998120E6290F88
:10562000223010F0933AC1F59A85911135C081115D
:1056300033C085E099E09F938F938DB79EB78254D6
:1056400091090FB6F8949EBF0FBE8DBFADB7BEB720
:10565000119682E4FE013F9601900D928A95E1F742
:105660000E949B220FB6F894DEBF0FBECDBFBE01D5
:105670006F5F7F4F85E099E008DF813021F082EA9B
:10568000898382E08A87CE0101965EDD8091E00405
:105690008F5F8093E00407C082EA898385E08A8770
:1056A000CE01019651DDCC56DF4F0FB6F894DEBF28
:1056B0000FBECDBFDF91CF910895CF9386E297E0E3
:1056C0000E942003C82F87E297E00E9420032C2F1E
:1056D00030E0322F2227A901480F511DCA01CF9176
:1056E000089560E181E097E00E941A0481E097E06C
:1056F0000E9420038111FACF08951F93CF93DF9367
:10570000162FC42FD52F83E097E00E94200381112C
:1057100001C0E7DF612F80E097E00E941A046D2F3F
:1057200084E097E00E941A046C2F85E097E00E94C5
:105730001A0461E081E097E00E941A0481E097E09A
:105740000E9420038111FACF83E097E00E9420039A
:10575000833119F0C6DF80E001C081E0DF91CF9195
:105760001F91089583E097E00E9420038331A1F404
:1057700062E081E097E00E941A0481E097E00E94D5
:1057800020038111FACF83E097E00E942003843147
:1057900029F0A7DF80E0089580E0089581E0089572
:1057A0008F929F92AF92BF92CF92DF92EF92FF9231
:1057B0000F931F93CF93DF936C017B0161157105EC
:1057C00009F445C0613084E0780748F52EC0219780
:1057D000C401977098580E942003F80181938F01AB
:1057E000FFEF8F1A9F0A209791F7AE0CBF1CF601AE
:1057F000EE0DFF1D10826B2D88E297E00E941A04C7
:105800006A2D89E297E00E941A0460E481E097E043
:105810000E941A048AE18A95F1F700C018C00F2E81
:10582000FEEFEF2EF3E0FF2EF02D88E297E00E94CE
:105830002003A82E89E297E00E942003B12CBA2C05
:10584000AA24A80EB11C4501E7018601C0CF81E062
:1058500090E0DF91CF911F910F91FF90EF90DF903B
:10586000CF90BF90AF909F908F90089568E081E0B7
:1058700097E00E941A0481E097E00E9420038111C2
:10588000FACF0895AF92BF92CF92DF92EF92FF923C
:105890000F931F93CF93DF936C017B01611571050B
:1058A00009F456C080E297E00E942003C82FD0E0A0
:1058B000DC2FCC2781E297E00E942003C80FD11D86
:1058C000CE15DF0508F45BC049C08FE99FE0019762
:1058D000F1F700C0000080E297E00E942003082F4B
:1058E00010E0102F002781E297E00E94200398012A
:1058F000280F311D2197209711F4B8DF58C02E15BD
:105900003F0518F32BC02197C8019770F6016191EC
:105910006F01985A0E941A040F5F1F4F209799F742
:10592000EA0CFB1C6F2D84E297E00E941A046E2D96
:1059300085E297E00E941A0460E281E097E00E940D
:105940001A0481E097E00E9420038111FACF03C07E
:10595000C0E0D0E02CC0C1E0D0E029C084E297E0F4
:105960000E942003A82E85E297E00E942003B12C1C
:10597000BA2CAA24A80EB11C8501E701C4CF8FE977
:105980009FE00197F1F700C0000080E297E00E94DD
:105990002003C82FD0E0DC2FCC2781E297E00E94C3
:1059A00020039E01280F311DC9EED3E0A8CFCE0100
:1059B000DF91CF911F910F91FF90EF90DF90CF90EB
:1059C000BF90AF9008959F92AF92BF92CF92DF9217
:1059D000EF92FF920F931F93CF93DF93813009F0E3
:1059E00072C040913E0C50E0542F442780913F0CF0
:1059F000480F511D8091400C90E0982F88272091EE
:105A0000410C820F911D8C011695079516950795EF
:105A1000169507959801220F331F220F331F220F6F
:105A2000331F2817390710F40F5F1F4F83E0800FD3
:105A300080933B0C00933E0C01151105E1F1EFE35F
:105A4000FCE04B57574FB801615C734FA12CB12C50
:105A500081E090E0A0E0B0E02AC0F990FF2071F072
:105A600090806C017D01022E04C0CC0CDD1CEE1C6C
:105A7000FF1C0A94D2F7C928C0820EC06C017D01B8
:105A8000022E04C0CC0CDD1CEE1CFF1C0A94D2F7C5
:105A9000C094F080CF20C0822F5F3F4F2830310567
:105AA000E1F63196485F5F4FE617F70721F0EA010C
:105AB0002A2D3B2DD2CFB801675F7F4F86E39CE054
:105AC000E1DE80E09CC0833009F04BC0EEE3FCE0F7
:105AD000208130E0322F222780913F0C280F311D8A
