S01A000045746865726E65745F746F5F53657269616C2E73726563CA
S1130000CFC10000EEC10000ECC10000EAC1000055
S1130010E8C10000E6C10000E4C10000E2C1000044
S1130020E0C10000DEC10000DCC10000DAC1000054
S1130030D8C100000C94730BD4C10000D2C10000DD
S1130040D0C100000C945509CCC10000CAC1000005
S1130050C8C100000C94410BC4C10000C2C100001F
S1130060C0C100000C94FC160C944F170C94261776
S1130070B8C10000B6C10000B4C10000B2C10000A4
S1130080B0C10000AEC10000ACC10000AAC10000B4
S11300900C9478170C94CB170C94A217A2C10000EF
S11300A0A0C100009EC100000C94A70B9AC10000DF
S11300B098C1000096C1000094C1000092C10000E4
S11300C090C100008EC100008CC10000B20FB20FBD
S11300D08210821077121611771277127712771224
S11300E077127712771277125E1106128313831335
S11300F0391439143A15BD143A153A153A153A1506
S11301003A153A153A153A1505150515B530C130A5
S113011000310F311A311E31303162317531853180
S1130120AE31AE31AE31A331AE31A83100C0C10120
S1130130C30302C2C60607C705C5C404CC0C0DCD53
S11301400FCFCE0E0ACACB0BC90908C8D81819D9C3
S11301501BDBDA1A1EDEDF1FDD1D1CDC14D4D515F3
S1130160D71716D6D21213D311D1D010F03031F1E3
S113017033F3F23236F6F737F53534F43CFCFD3D13
S1130180FF3F3EFEFA3A3BFB39F9F83828E8E92903
S1130190EB2B2AEAEE2E2FEF2DEDEC2CE42425E5B3
S11301A027E7E62622E2E323E12120E0A06061A123
S11301B063A3A26266A6A767A56564A46CACAD6DD3
S11301C0AF6F6EAEAA6A6BAB69A9A86878B8B97943
S11301D0BB7B7ABABE7E7FBF7DBDBC7CB47475B573
S11301E077B7B67672B2B373B17170B05090915163
S11301F09353529296565797559594549C5C5D9D93
S11302005F9F9E5E5A9A9B5B995958988848498982
S11302104B8B8A4A4E8E8F4F8D4D4C8C4484854532
S113022087474686824243834181804000C18140A2
S113023001C0804101C0804100C1814001C08041B2
S113024000C1814000C1814001C0804101C08041A2
S113025000C1814000C1814001C0804100C1814092
S113026001C0804101C0804100C1814001C0804182
S113027000C1814000C1814001C0804100C1814072
S113028001C0804101C0804100C1814000C1814062
S113029001C0804101C0804100C1814001C0804152
S11302A000C1814000C1814001C0804101C0804142
S11302B000C1814000C1814001C0804100C1814032
S11302C001C0804101C0804100C1814000C1814022
S11302D001C0804101C0804100C1814001C0804112
S11302E000C1814000C1814001C0804100C1814002
S11302F001C0804101C0804100C1814001C08041F2
S113030000C1814000C1814001C0804101C08041E1
S113031000C1814000C1814001C0804100C18140D1
S113032001C0804101C0804100C181402F0301010F
S1130330330302040000190000001001000400004F
S11303400046004700FD01B200B3000702A400A864
S1130350001302C600C000C100C200C500C400F5FD
S113036001FA01FB01FC014203FFA001FBCF007D68
S113037067003F44002A33001F22001B19001B1092
S1130380001B4E0920006310200077103A008F0AEA
S11303905000016364696E6F70737578585B000078
S11303A011241FBECFEFD1E2DEBFCDBF00E00CBFF2
S11303B014E0A0E0B2E0EAEAF0E700E00BBF02C01C
S11303C007900D92A43CB107D9F722E1A4ECB4E064
S11303D001C01D92AB3EB207E1F70E9462330C9458
S11303E053380ECEFC018081089592B184E08927B0
S11303F082B9089508950895089582E084BD85EF33
S113040085BDEEE6F0E0808182608083089582E01D
S11304108093B00087EF8093B100E0E7F0E0808143
S11304208260808308951092A0008DE08093A100E3
S1130430E2E7F0E080818260808308950C9499372C
S11304400895282F30E0F901EE0FFF1FE20FF31F8C
S1130450E45DFC4F25913491E82FF0E0ED51F84F25
S11304608081A90164E0869F400D511D1124CA01B9
S11304700895282F30E044E1849FF0011124EB5AC1
S1130480FC4FA591B4919C91F901E45EF74F408132
S113049051E0540F508354E1529FF001539FF00DEB
S11304A01124ED5AFC4FA591B4915C91F22FEE27E3
S11304B0E40FF11DE251FF4E508393FF0FC0F90189
S11304C0E295F295F07FFE27E07FFE27E15BFF4E89
S11304D0268537852F5F3F4F378726879C7171F0BC
S11304E021E030E0A90102C0440F551F8A95E2F7CC
S11304F0CA019091F804892B8093F80408950F930E
S11305001F93CF93DF93C82FD0E0FE01EB50F84F39
S11305109081923009F1FE01E295F295F07FFE2779
S1130520E07FFE27E657FC4F059114918ADF019680
S1130530FC0185919491C851D84F2881FC0137E082
S1130540239FE00DF11D1124359685919491880F18
S1130550991F800F911F0AC0CC0FDD1FCC0FDD1F28
S1130560CC0FDD1FC051DB4F8E819F81DF91CF9176
S11305701F910F910895E1E4F3E0259134918217DE
S1130580930799F060E06F5F262F30E0F901EE0FDA
S1130590FF1FE20FF31FEE0FFF1FEF5BFC4F4591B0
S11305A054918417950779F703C020E030E060E0A8
S11305B0E62FF0E0EE56FC4FE491EE2319F0E13023
S11305C079F10895F22FEE27E251FF4E9081F9015F
S11305D0E053F84F808198130FC040913E1081E0A2
S11305E090E0BC0102C0660F771F2A95E2F79B01D9
S11305F0242B20933E100895F901E152F94F81E034
S11306008083F901E295F295F07FFE27E07FFE27D3
S1130610E15BFF4E808191810196918380830895EF
S113062040913E1081E090E0BC0102C0660F771F4C
S11306302A95E2F79B01242B20933E1008958EBD4A
S113064000000DB407FEFDCF8EB50895CF93DF9360
S1130650C82FD92F28988FE0F2DF8D2FF0DF8C2F51
S1130660EEDF80E0ECDF289ADF91CF910895CF92FE
S1130670DF92EF92FF920F931F93CF93DF93EC01DE
S11306806A0141155105B1F0062F172F7C01E40EC4
S1130690F51E28988FE0D3DF8D2FD1DF8C2FCFDF8D
S11306A0219680E0CCDFF80181938F01289ACE1542
S11306B0DF0579F7C601DF91CF911F910F91FF906C
S11306C0EF90DF90CF900895CF92DF92EF92FF9258
S11306D00F931F93CF93DF93EC016A0141155105EA
S11306E0A9F0062F172F7C01E40EF51E289880EF41
S11306F0A6DF8D2FA4DF8C2FA2DF2196F801819134
S11307008F019DDF289ACE15DF0581F7C601DF91A1
S1130710CF911F910F91FF90EF90DF90CF900895AC
S1130720EF92FF920F931F93259A2D9A2D982FEFF6
S113073083EC99E0215080409040E1F700C0000034
S11307406C9A74982FEF83EC99E02150804090408C
S1130750E1F700C000006C982FEF83EC99E0215082
S113076080409040E1F700C0000080E090E4909366
S1130770310C8093300C80E090E69093C307809313
S1130780C20780E098E49093330C8093320C80E0AD
S113079098E69093C5078093C40780E090E5909312
S11307A0350C8093340C80E090E79093C7078093D6
S11307B0C60780E098E59093370C8093360C80E070
S11307C098E79093C9078093C80760E880E090E0B9
S11307D037D065E58BE190E033D065E58AE190E0C0
S11307E02FD06894EE24E1F8F12C0EED10E02CECFF
S11307F030E04BEB50E06AEA70E080E090E051D0EA
S11308002CE430E040E050E060E070E08AE090E00A
S11308106FD02EEF30E040E050E060E070E08AE01E
S113082090E081D020E030E04FEF50E06FEF70E0D7
S11308308FEF90E093D01F910F91FF90EF90089568
S11308401F93CF93DF93D82F192FC62F289880EFAB
S1130850F6DE812FF4DE8D2FF2DE8C2FF0DE833076
S113086011F0289A5DDF289A81E0DF91CF911F91E2
S113087008951F93CF93DF93C82FD0E0DC2FCC27AC
S1130880CF5FDB4FCE01DCDF10E001C01F5FCE0184
S1130890DDDE882311F01F3FC9F7DF91CF911F914F
S11308A00895EF920F931F93CF93DF93162FD42FB6
S11308B0C22F682F89E090E0C3DF612F8AE090E0C7
S11308C0BFDF6D2F8BE090E0BBDF6C2F8CE090E0FE
S11308D0B7DF602F8DE090E0B3DF6E2D8EE090E007
S11308E0AFDF81E0DF91CF911F910F91EF900895D9
S11308F01F93CF93DF93162FD42FC22F682F8FE02F
S113090090E09EDF612F80E190E09ADF6D2F81E11E
S113091090E096DF6C2F82E190E092DF81E0DF913E
S1130920CF911F9108951F93CF93DF93162FD42F48
S1130930C22F682F81E090E083DF612F82E090E096
S11309407FDF6D2F83E090E07BDF6C2F84E090E00D
S113095077DF81E0DF91CF911F9108951F93CF93AB
S1130960DF93162FD42FC22F682F85E090E068DF25
S1130970612F86E090E064DF6D2F87E090E060DF18
S11309806C2F88E090E05CDF81E0DF91CF911F91D4
S1130990089590E00496982F8827860F971F56CEC7
S11309A008951F93CF93DF93182F60E270E0F1DF77
S11309B0C82FD0E061E270E0812FEBDFDC2FCC2781
S11309C09E01282BC901DF91CF911F9108951F9398
S11309D0CF93DF93182F66E270E0DBDFC82FD0E0FF
S11309E067E270E0812FD5DFDC2FCC279E01282B16
S11309F0C901DF91CF911F9108959B0190E0049666
S1130A00982F8827642F820F931F1ACF0895882365
S1130A1041F08091DD04813041F018F08230C1F062
S1130A2024C081E08093DD0420C0462F61E070E0A3
S1130A3080E0E3DF61E070E080E0ABDF882321F059
S1130A4082E08093DD0411C08FEF8093DD040DC03C
S1130A5061E070E080E09DDF882321F082E08093F4
S1130A60DD0403C08FEF8093DD048091DD040895DD
S1130A70882341F08091DC04813041F018F0823009
S1130A80C1F024C081E08093DC0420C0462F61E0E3
S1130A9070E081E0B2DF61E070E081E07ADF88231A
S1130AA021F082E08093DC0411C08FEF8093DC049A
S1130AB00DC061E070E081E06CDF882321F082E00A
S1130AC08093DC0403C08FEF8093DC048091DC040A
S1130AD00895882341F08091DB04813041F018F0BF
S1130AE08230C1F024C081E08093DB0420C0462F13
S1130AF061E070E082E081DF61E070E082E049DF84
S1130B00882321F082E08093DB0411C08FEF80936F
S1130B10DB040DC061E070E082E03BDF882321F05C
S1130B2082E08093DB0403C08FEF8093DB04809129
S1130B30DB040895CF93C82F692F80E194E080DE11
S1130B406C2F81E194E07CDECF910895CF93DF9305
S1130B50EC0168818CE094E073DE69818DE094E0BF
S1130B606FDE6A818EE094E06BDE6B818FE094E04F
S1130B7067DEDF91CF910895CF93C82F692F80E16D
S1130B8095E05EDE6C2F81E195E05ADECF91089509
S1130B90CF93DF93EC0168818CE095E051DE6981AD
S1130BA08DE095E04DDE6A818EE095E049DE6B8153
S1130BB08FE095E045DEDF91CF910895CF93C82F64
S1130BC0692F80E196E03CDE6C2F81E196E038DE0F
S1130BD0CF910895CF93DF93EC0168818CE096E088
S1130BE02FDE69818DE096E02BDE6A818EE096E04F
S1130BF027DE6B818FE096E023DEDF91CF910895AD
S1130C009F92AF92BF92CF92DF92EF92FF920F9397
S1130C101F93CF93DF93982E5B017A01E90164E27D
S1130C2070E0B7DEC82ED12C65E270E0892DB1DE0C
S1130C301C2D0027082B0A0D1B1D98013770C92C89
S1130C40D12CF601EE0FFF1FE05DF34F80819181FF
S1130C50820F931FA9014C0F5D1F41305840B8F01B
S1130C6040E058E05A01A21AB30AA501B7012CDDED
S1130C70AE014A195B09B7016A0D7B1DF601EE0F3F
S1130C80FF1FE05DF34F808191811EDD03C0AE0143
S1130C90B7011ADDC00FD11F4D2F64E270E0892D1A
S1130CA0ACDE4C2F65E270E0892DA7DEDF91CF9199
S1130CB01F910F91FF90EF90DF90CF90BF90AF9076
S1130CC09F900895DF92EF92FF920F931F93CF931B
S1130CD0DF93D82E0FEF1FEFE12CF12C8D2D61DE69
S1130CE0EC01009719F08D2D5CDE7C01EC16FD06FD
S1130CF029F0015011090115110581F7C701DF9190
S1130D00CF911F910F91FF90EF90DF900895DF92A4
S1130D10EF92FF920F931F93CF93DF93D82E8B0103
S1130D207A01E901CFDF8C179D0718F48D2DCADFF6
S1130D30EC019E01A701B8018D2D62DFCE01DF9188
S1130D40CF911F910F91FF90EF90DF90089520E3D2
S1130D50FC0120833296862F82958F7090E1899FC3
S1130D60601911246A3010F4605D01C0695C6293FB
S1130D70882311F0682FEFCF08958FB78078809380
S1130D80DC06F8948091DC0608958091DC068823C3
S1130D9009F078948091DC060895A8952FE088E105
S1130DA090E00FB6F894A895809360000FBE20934E
S1130DB0600008958091030391E0980F90930303DA
S1130DC008958091020391E0980F9093020308958F
S1130DD0CF93DF93C82FD62FD0DFEC2FF0E0E45869
S1130DE0F94FD083DD23A9F0EC2FE695E695E6953F
S1130DF0F0E0E25FFA4F4081C77021E030E0C901C2
S1130E0002C0880F991FCA95E2F7809584238083D6
S1130E1013C0EC2FE695E695E695F0E0E25FFA4F15
S1130E204081C77021E030E0C90102C0880F991FDA
S1130E30CA95E2F7842B8083A8DFDF91CF910895D0
S1130E401F93CF93DF93182FEB0197DFE12FF0E08F
S1130E50EE0FFF1FE454FA4FD183C083CD2BA9F0CA
S1130E60E12FE695E695E695F0E0EF5FFA4F4081D5
S1130E70177021E030E0C90102C0880F991F1A954C
S1130E80E2F780958423808313C0E12FE695E695ED
S1130E90E695F0E0EF5FFA4F4081177021E030E013
S1130EA0C90102C0880F991F1A95E2F7842B808329
S1130EB06CDFDF91CF911F910895282F30E0F90165
S1130EC0EE0FFF1FEE0FFF1FE651FB4F1082118242
S1130ED012821382F901EF53F84F608194E6699FFF
S1130EE0B00111249091E9049F5F890FA9CF08955F
S1130EF02F923F924F925F926F927F928F929F9226
S1130F00AF92BF92CF92DF92EF92FF920F931F9313
S1130F10CF93DF93382E90E0FC01EE0FFF1F8E0F6E
S1130F209F1FFC01E25DFC4F4490512CB12C032D1A
S1130F3010E0E801CD51D84FC801880F991F9C01DA
S1130F40255B364F3901FC01E85FF74F6F01C8019B
S1130F50880F991F880F991F9C0126513B4F490107
S1130F60780188818F5F8883841123C01882209040
S1130F70E90423942394230C00DFE22DF0E0EE0F28
S1130F80FF1FE454FA4FA080B180FFDEA094B09418
S1130F90F301B182A082F601808191818A159B05BB
S1130FA010F4B182A0826FEF7FEF822D49DFBB2462
S1130FB0B394F40180819181A281B381088004C03B
S1130FC0B695A795979587950A94D2F780FF03C0A5
S1130FD05394541428F2541012C0832D6EDFF70179
S1130FE0ED51F84F80818F5F581629F0F701ED51CC
S1130FF0F84F808304C0F701ED51F84F1082F701D8
S1131000E851F84F10828B2DDF91CF911F910F91F2
S1131010FF90EF90DF90CF90BF90AF909F908F9014
S11310207F906F905F904F903F902F9008950F9313
S11310301F93CF93DF93E82FF0E0DF01AB50B84F5D
S11310409C91923021F4FD01108280E058C0DF01B0
S1131050A295B295B07FBA27A07FBA27A15BBF4EF5
S113106018962D913C9119972F5F3F4F19963C93F9
S11310702E931897DF01A251BB4F9C919F5F9C93C5
S1131080DF01A95EB74F2C91921338C0DF01AD5137
S1131090B84F41E050E060E070E00C9004C0440FB1
S11310A0551F661F771F0A94D2F7DF01AA0FBB1FD3
S11310B0AA0FBB1FED01C15CDF4E088119812A8193
S11310C03B81042B152B262B372B088319832A836A
S11310D03B83A651BB4F0D911D912D913C911397CC
S11310E0402B512B622B732B4D935D936D937C930B
S11310F01397E251FB4F1082FBDE01C080E0DF91C9
S1131100CF911F910F910895CF92DF92EF92FF92AA
S1131110CF93C82F6A017B0130DEEC2FF0E0EE0F95
S1131120FF1FEE0FFF1FE45EFA4FC082D182E282FE
S1131130F382CD28CE28CF28A9F0EC2FE695E695AA
S1131140E695F0E0E550FB4F4081C77021E030E0C8
S1131150C90102C0880F991FCA95E2F780958423BC
S1131160808313C0EC2FE695E695E695F0E0E55014
S1131170FB4F4081C77021E030E0C90102C0880FF5
S1131180991FCA95E2F7842B8083FFDDCF91FF90EE
S1131190EF90DF90CF900895CF93C82FEEDDEC2F22
S11311A0E695E695E695F0E0EF5FFA4F208130E0B2
S11311B08C2F877002C0359527958A95E2F720FF1A
S11311C00DC0EC2FF0E0EE0FFF1FE454FA4F208126
S11311D03181C1E0232B19F0C0E001C0C0E0D5DDAE
S11311E08C2FCF910895CF93C82FC7DDEC2FE695B0
S11311F0E695E695F0E0E550FB4F208130E08C2F3A
S1131200877002C0359527958A95E2F720FF13C0B1
S1131210EC2FF0E0EE0FFF1FEE0FFF1FE45EFA4F1E
S11312204081518162817381C1E0452B462B472B5C
S113123019F0C0E001C0C0E0A8DD8C2FCF91089563
S1131240ACDD109280008AEE8093810080E29EE4FF
S11312509093890080938800EFE6F0E080818260BB
S1131260808380E090E02FEFFC01E25FFA4F20835F
S113127001968C309105C1F780E090E02FEFFC01DE
S1131280EF5FFA4F208301968D309105C1F78FEF00
S11312908093FB048093FC048093FD048093FE04FC
S11312A08093FF048093000508951F920F920FB658
S11312B00F9211240BB60F922F933F934F935F938A
S11312C06F937F938F939F93AF93BF93EF93FF930A
S11312D08091F9048F5F8093F90480E090E061E0ED
S11312E070E0282F26952695269530E0F901E65ED4
S11312F0FA4F4081A82FA77050E00A2E02C05595DE
S113130047950A94E2F740FD14C0FC01EC52F94FF2
S113131040814150408341110CC0F901E65EFA4F0F
S113132040819B0102C0220F331FAA95E2F7242BB0
S11313302083019688309105A1F68091DE04909176
S1131340DF04A091E004B091E1040196A11DB11D58
S11313508093DE049093DF04A093E004B093E1044F
S1131360FF91EF91BF91AF919F918F917F916F9179
S11313705F914F913F912F910F900BBE0F900FBE35
S11313800F901F901895FF920F931F93CF93DF93A5
S1131390F894F090F9041092F9047894FF2009F479
S11313A0D2C010E040E050E021E030E080915409E8
S11313B090915509A0915609B09157090196A11D24
S11313C0B11D8093540990935509A0935609B09385
S11313D05709CA01F894682F66956695669570E07A
S11313E0FB01E25FFA4FE081A82FA770F0E00A2E1C
S11313F002C0F595E7950A94E2F7E0FD14C0FC01FC
S1131400E458F94FB081B150B083B1110CC0FB0165
S1131410E25FFA4FB081B90102C0660F771FAA9547
S1131420E2F76B2B6083789401968835910591F6E9
S1131430CA01F894682F66956695669570E0FB017D
S1131440EF5FFA4FE081C82FC770F0E00C2E02C0A6
S1131450F595E7950A94E2F7E0FD1AC0DC01AA0FBE
S1131460BB1FA454BA4FED91FC911197319711967B
S1131470FC93EE93EF2B61F4FB01EF5FFA4FA08135
S1131480B90102C0660F771FCA95E2F76A2B608321
S1131490789401968036910561F6BA01F894E62FA6
S11314A0E695E695E695F0E0DF01A550BB4F8C91FB
S11314B0062F077090E0002E02C0959587950A9438
S11314C0E2F780FD21C0EB01CC0FDD1FCC0FDD1F47
S11314D0C45EDA4F88819981AA81BB810197A109F1
S11314E0B10988839983AA83BB83892B8A2B8B2B8D
S11314F059F4E550FB4FA081C90102C0880F991F20
S11315000A95E2F78A2B808378946F5F7F4F683265
S1131510710521F68091DA048F5F843619F0809387
S1131520DA040EC01092DA048091470990914809B8
S113153090935A0980935909509348094093470955
S11315401F5F1F1133CFDF91CF911F910F91FF9038
S11315500895A89580914709909148090196909320
S11315604809809347098091FA04E82FF0E0E45891
S1131570F94F9081909590931D082091F7072917B2
S113158010F49093F7076FEF23CC08954F925F9276
S11315906F927F92AF92BF92CF92DF92EF92FF92BF
S11315A00F931F93CF93DF93EC015B0129013A0161
S11315B02115310541055105F1F0C12CD12C7601DD
S11315C0C5018C0D9D1DFE0119958027282F30E043
S11315D0F901E45DFD4F04910127F901E45DFE4F3B
S11315E01491FFEFCF1ADF0AEF0AFF0AC414D504DF
S11315F0E604F70429F7802F90E0912BDF91CF9137
S11316001F910F91FF90EF90DF90CF90BF90AF901C
S11316107F906F905F904F9008950F931F930FEFFB
S11316201FEFB4DF1F910F9108950F931F932CE0C8
S113163030E040E050E060E070E08EE192E0EDDF09
S11316402BEF3FE02C50304040E050E08C0161E152
S113165070E08EE192E09ADF1F910F9108958091DE
S11316602F0C81FD06C0E1DFBC018EE090E00C94FC
S1131670B43708950E94A637F2CF08950A9A1298B3
S113168008951F920F920FB60F9211240BB60F926A
S11316902F933F934F935F936F937F938F939F9376
S11316A0AF93BF93EF93FF9385B5887F85BDEEE637
S11316B0F0E080818D7F808386E490E00E94BB020D
S11316C0FF91EF91BF91AF919F918F917F916F9116
S11316D05F914F913F912F910F900BBE0F900FBED2
S11316E00F901F9018951F920F920FB60F9211240E
S11316F00BB60F922F933F934F935F936F937F9308
S11317008F939F93AF93BF93EF93FF93E1EBF0E03D
S11317108081887F8083E0E7F0E080818D7F808313
S113172082EB90E00E94BB02FF91EF91BF91AF91D9
S11317309F918F917F916F915F914F913F912F91E5
S11317400F900BBE0F900FBE0F901F9018951F9215
S11317500F920FB60F9211240BB60F922F933F9353
S11317604F935F936F937F938F939F93AF93BF93A5
S1131770EF93FF93E1EAF0E08081887F8083E2E7E2
S1131780F0E080818D7F808384EA90E00E94BB0238
S1131790FF91EF91BF91AF919F918F917F916F9145
S11317A05F914F913F912F910F900BBE0F900FBE01
S11317B00F901F901895FF920F931F93CF93DF9371
S11317C0C82FD0E08E01000F111F0C0F1D1FC80180
S11317D08B5F9F4F0E949937F82E0A5F1F4FC801F5
S11317E00E949937F11004C0813039F09EE808C096
S11317F091E0F91621F096EB03C096E801C096EA51
S113180024E12C9FF0012D9FF00D1124E75AFC4F89
S1131810A591B4919F779C93FF2029F0813019F012
S113182061E0C80127DFDF91CF911F910F91FF90F5
S11318300895CF93DF93C82FD0E0CE01880F991F6E
S11318408C0F9D1F895F9F4F0E949937FE01E85AB4
S1131850F64F808390E09C01220F331F820F931F69
S113186089599C4F24E12C9FF0012D9FF00D1124E8
S1131870E35AFC4FA591B491FC0124912C9324E1EB
S11318802C9FF0012D9FF00D1124E55AFC4FA591DA
S1131890B491FC013196E491EC93FE01EE0FFF1F2D
S11318A0CE0FDF1FFE01EE0FFF1FED5BFC4FA59176
S11318B0B491FC01329684918C93DF91CF91089579
S11318C0CF93DF93C82FD0E0FE01E152F94F83E0BC
S11318D0808384E18C9FF0018D9FF00D1124E15AE7
S11318E0FC4F85919491FC01199584E18C9FF00142
S11318F08D9FF00D1124ED5AFC4FA591B491FC2F4E
S1131900EE27E251FF4E80818C9384E18C9FF0019D
S11319108D9FF00D1124EB5AFC4FA591B4918C913D
S113192080648C9384E18C9FF0018D9FF00D1124D1
S1131930E95AFC4FA591B4918C9180628C93DF910C
S1131940CF910895CF93DF93E3E5F3E025913491AC
S11319508217930791F040E054E14F5FC42FD0E029
S11319605C9FF0015D9FF00D1124ED5AFC4F259111
S113197034918217930789F703C0C0E0D0E040E0B8
S1131980FE01E152F94F2081223009F449C028F4C4
S1131990222339F02130D1F056C0263008F451C04A
S11319A052C0FC018081FC2FEE27E251FF4E808360
S11319B0FE01EE0FFF1FCE0FDF1FFE01EE0FFF1F14
S11319C0EF5BFC4FA591B4911C923DC0FE01E15226
S11319D0F94F82E0808321E030E00C2E02C0220F18
S11319E0331F0A94E2F720958091F804282320936A
S11319F0F804FE01E45EF74F1082842F0E9439023E
S1131A00CE01880F991FC80FD91FCE01880F991FC7
S1131A108B5B9C4FFC0125913491F901199513C0FE
S1131A20842F0E943902FE01EE0FFF1FCE0FDF1F2D
S1131A30FE01EE0FFF1FEF5BFC4FA591B4911C92CA
S1131A4002C0FC018081DF91CF910895EF92FF9253
S1131A501F93CF93DF93C82FD0E0FE01E45EF74FCE
S1131A6020814091F80450E0BA0102C07595679551
S1131A708A95E2F760FD1AC02330D0F022507C2F03
S1131A80662762517F4EFB01E20FF11DE080F18079
S1131A9030E040E050E082EF91E0BFDD11E0E81675
S1131AA0F90609F410E01123F9F003C011E001C0B4
S1131AB011E0FE01E295F295F07FFE27E07FFE271C
S1131AC0E15BFF4E8281938101969383828384E15B
S1131AD08C9FF0018D9FF00D1124ED59FC4F8591E1
S1131AE09491FC0119951BC0FE01E295F295F07FDB
S1131AF0FE27E07FFE27E15BFF4E208131812F5FCF
S1131B003F4F3183208384E18C9FF0018D9FF00D42
S1131B101124EB59FC4F25913491F9011995812F2A
S1131B20DF91CF911F91FF90EF900895CF93DF93B2
S1131B30682F70E0FB01E45EF74F20812250762F7E
S1131B40662762517F4EEB01C20FD11D30E040E0A9
S1131B5050E082EF91E061DD99838883DF91CF913A
S1131B600895282F30E070E0322F2227F901E25146
S1131B70FF4EE60FF71F8181620F731FFB01E251D5
S1131B80FF4E208190E0922B0895CF92DF92EF9246
S1131B90FF920F931F93CF93DF93F82EC82FD0E0BB
S1131BA0FC2FEE27E251FF4E8181863081F020F434
S1131BB08150843038F0E7C08F30D9F0803109F497
S1131BC0B3C0E1C0C45ED74F88E08883DCC0FE01A7
S1131BD0E45EF74F88E080838F2D0E947F02DC2F24
S1131BE0CC27C251DF4EFC0121812C8380818D835F
S1131BF0CAC064E08F2DB5DF8C01969587959695C4
S1131C0087959695879598012770332741E0232B74
S1131C1009F440E0242F280FFC2FEE27E251FF4E59
S1131C202683DE01A45EB74F275F2C93E80FF91FCC
S1131C301782FE01EB50F84F8081823009F1FE01DA
S1131C40E295F295F07FFE27E07FFE27EE57FC4FEA
S1131C50C590D4908F2D0E9421020196FC0185919C
S1131C609491FE01E851F84F2081FC0137E0239F55
S1131C70E00DF11D1124359685919491B82F0CC077
S1131C80FE01EE0FFF1FEE0FFF1FEE0FFF1FE051CF
S1131C90FB4FC680D780B0E00115110509F473C06D
S1131CA0A0E061E070E0DC2FCC278A2F8B0F9A2F05
S1131CB09695969596950F2EF7E0EF2EF02DE90E5A
S1131CC02A2F2770AB0102C0440F551F2A95E2F753
S1131CD09A01982F969596959695F601E90FF11D20
S1131CE0408150E08770FA0102C0F595E7958A9526
S1131CF0E2F7E0FF09C0FE01EE0DF11DE251FF4ED7
S1131D008081282B208309C0FE01EE0DF11DE251D4
S1131D10FF4E2095808128232083AF5F2A2F30E057
S1131D202017310710F22FC01C2F002702511F4E1D
S1131D30F8018581880F8683FE01E45EF74F875F93
S1131D4080838F2D0E947F02F80125812223D9F000
S1131D5040E0E80198012B5F3F4F542F550FA42F0B
S1131D60B0E0AA0FBB1FA80FB91FFE01E50FF11DBC
S1131D7011965C91119757835C9150874F5FF901DD
S1131D805081451750F38F2DD1DEDF91CF911F91F4
S1131D900F91FF90EF90DF90CF900895CF93C82FCD
S1131DA00E942102BC01FC013196459154912C2FD3
S1131DB030E0F901E851F84F808197E0899F400DA8
S1131DC0511D1124FB016491F22FEE27E251FF4EC5
S1131DD06083FA018491F22FEE27E251FF4E818352
S1131DE0FA013296E491B22FAA27A251BF4E12965D
S1131DF0EC93FA013196E491B22FAA27A251BF4E77
S1131E001396EC93FA013496E491B22FAA27A251C7
S1131E10BF4E1496EC93FA0133964491B22FAA273D
S1131E20A251BF4E15964C938C2FAFDECF910895DF
S1131E30282F30E0F22FEE27E251FF4ED901AA0FEE
S1131E40BB1FAA0FBB1FAA0FBB1FA051BB4F9C9166
S1131E50908311969C911197918312969C9112975D
S1131E6013964C9113974283938314969C911497E1
S1131E7015964C9144839583F901EB50F84F92E009
S1131E80908383CE08956F927F928F929F92AF92A8
S1131E90BF92CF92DF92EF92FF920F931F93CF9353
S1131EA0DF93D82EC82FD0E0FE01E152F94F808194
S1131EB0882319F0823031F06FC3C152D94F81E0C9
S1131EC088836AC384E0FE01E152F94F80838D2D3B
S1131ED0BDDD882329F0C152D94F81E088835CC3DA
S1131EE0FC2FEE27E251FF4E8081882359F0FE013A
S1131EF0E053F84F9081891729F0C152D94F81E0FE
S1131F0088834AC384E18C9F80018D9F100D112426
S1131F100F591C4FF80125913491F9011995FE01CF
S1131F20E295F295F07FFE27E07FFE27E15BFF4E0E
S1131F308681978101969783868362E08D2D11DED9
S1131F407C01FC2FEE27E251FF4EC1808C2D90E0E6
S1131F50FC013197E031F10508F0C9C2EA59FF4F9D
S1131F600C949733FC2FEE27E251FF4E8081882397
S1131F7009F4C1C0FE01E45EF74F8081883059F056
S1131F80FC2FEE27E251FF4E83E082830F2EF3E015
S1131F90FF2EF02DB6C264E08D2DE3DDAC018E0D75
S1131FA09F1DF1E0CF120FC0FE01E295F295F07F84
S1131FB0FE27E07FFE27EC57FC4F2591349128172C
S1131FC0390778F018C0FE01E295F295F07FFE27FC
S1131FD0E07FFE27E857FC4F2591349128173907F5
S1131FE0B0F4FC2FEE27E251FF4E82E08283689426
S1131FF0FF24F1F886C2FE01E295F295F07FFE27F8
S1132000E07FFE27EE57FC4FA591B4910BC0FE0173
S1132010E295F295F07FFE27E07FFE27EA57FC4F1A
S1132020A591B49121E0CA0187709927892B09F4FD
S113203020E0CA01969587959695879596958795FC
S1132040820FFC2FEE27E251FF4E8283FE01E45EF5
S1132050F74F8B5F80834115510509F44FC0C12CA4
S113206020E030E081E090E0BC2EAA242E0D3F1D3C
S11320706C2D6695669566950F2EF3E09F2EF02DD8
S1132080960EEC2DE7703C0102C0660C771CEA95B5
S1132090E2F7B90176956795769567957695679594
S11320A06A0F7B1FFB01608170E027703327FB01FF
S11320B002C0F595E7952A95E2F7E0FF0AC095017D
S11320C0290D311D22513F4EF9016081662960833B
S11320D00AC09501290D311D22513F4E6094F9012A
S11320E0608166216083C3942C2D30E0241735076A
S11320F008F4BCCF05C0FF24FA9403C2F12C01C23A
S1132100F12CFFC1FC2FEE27E251FF4E8081882382
S113211009F485C0FE01E45EF74F8081883059F0F0
S1132120FC2FEE27E251FF4E83E082830F2EF3E073
S1132130FF2EF02DE6C1FC2FEE27E251FF4E458124
S1132140C701840F911DF3E0CF120FC0FE01E29589
S1132150F295F07FFE27E07FFE27E457FC4F2591A0
S113216034912817390778F018C0FE01E295F295EA
S1132170F07FFE27E07FFE27E057FC4F2591349146
S113218028173907B0F4FC2FEE27E251FF4E82E006
S113219082836894FF24F1F8B4C1FE01E295F295BC
S11321A0F07FFE27E07FFE27E657FC4F8591949150
S11321B00BC0FE01E295F295F07FFE27E07FFE273B
S11321C0E257FC4F85919491EE0CFF1C8E0D9F1DE0
S11321D0440FBC2FAA27A251BF4E12964C931297BC
S11321E0FE01E45EF74F4B5F408315966C911597A3
S11321F06623C1F0FC0140E09D01542F550F790185
S1132200E50EF11C5181D70113965C9380813296BF
S1132210D70114968C934F5F4613EFCF05C0FF246C
S1132220FA946FC1F12C6DC1F12C6BC1FE01E45E17
S1132230F74F8081883059F0FC2FEE27E251FF4E92
S113224083E082830F2EF3E0FF2EF02D5AC1FE01AE
S1132250E295F295F07FFE27E07FFE27E457FC4FDE
S11322608591949197012F5F3F4F8217930750F404
S1132270FC2FEE27E251FF4E82E082836894FF2414
S1132280F1F83FC188E0FE01E45EF74F8083FE0170
S1132290E295F295F07FFE27E07FFE27E657FC4F9C
S11322A085919491EE0CFF1CE80EF91E64E08D2DCF
S11322B058DCF70191838083F12C23C164E08D2DD8
S11322C050DCFC2FEE27E251FF4EA681FE01E45EB6
S11322D0F74F408150E02A2F30E0275F3F4F4217ED
S11322E05307B9F421E030E0BC0167707727672B0E
S11322F011F420E030E0BC017695679576956795FA
S113230076956795260F371F4A2F50E02417350717
S113231059F0FC2FEE27E251FF4E83E082830F2E0B
S1132320F3E0FF2EF02DEDC0FE01E295F295F07F73
S1132330FE27E07FFE27EC57FC4F25913491AC013A
S11323404E0D5F1D2417350750F4FC2FEE27E25184
S1132350FF4E82E082836894FF24F1F8D2C0FE012C
S1132360E295F295F07FFE27E07FFE27EE57FC4FC3
S11323702591349148E0FE01E45EF74F4083C12C7F
S1132380E1E0F0E07C2F6627AB0142515F4E3A0159
S113239036C0DA01AE0DBF1DAD0156954795569571
S11323A0479556954795A770BB275F0102C0AA0CB5
S11323B0BB1CAA95E2F7AC2DA695A695A695B301EC
S11323C06A0F711DDB011796AC91B0E07C2D77701C
S11323D0072E02C0B595A7950A94E2F7A0FF07C09F
S11323E0D901A40FB51F4C91A42AAC9207C0D901FE
S11323F0A40FB51FA0944C914A214C93C3944C2D27
S113240050E04817590728F2F12C7BC0FC2FEE2727
S1132410E251FF4E868190E0FE01E45EF74F408179
S113242050E09C01275F3F4F4217530761F4FC2F94
S1132430EE27E251FF4E4581242F30E0220F331F57
S11324408217930759F0FC2FEE27E251FF4E83E0E9
S113245082830F2EF3E0FF2EF02D53C0FE01E29590
S1132460F295F07FFE27E07FFE27E457FC4F85912D
S113247094919701240F311D8217930750F4FC2F78
S1132480EE27E251FF4E82E082836894FF24F1F844
S113249038C088E0FE01E45EF74F8083FE01E295D8
S11324A0F295F07FFE27E07FFE27E657FC4F8590EC
S11324B09490C12C9C2F8827DC01AD50BF4E3D0168
S11324C010C05701AC0CB11CAA0CBB1CA80CB91C45
S11324D06C2D660F695F8D2D44DBF501918380833C
S11324E0C394D3018C91C81660F3F12C0AC0FC2F5D
S11324F0EE27E251FF4E81E08283808181110BC07F
S11325001CC0FC2FEE27E251FF4E8081882399F0F6
S1132510FF2079F002C0FF24F394FC2FEE27E25150
S1132520FF4E81818068818385E0FE01E45EF74F80
S113253080838D2DFBDAFF2071F0FE01E295F29588
S1132540F07FFE27E07FFE27E15BFF4E84819581CB
S1132550019695838483FC2FEE27E251FF4E808100
S1132560882319F08D2DACD917C0FE01E295F295A0
S1132570F07FFE27E07FFE27E15BFF4E808591859B
S1132580019691878087C152D94F81E08883F801F1
S113259085919491FC011995DF91CF911F910F9131
S11325A0FF90EF90DF90CF90BF90AF909F908F906F
S11325B07F906F90089524E1829FC0011124FC0153
S11325C0EF59FC4F85919491FC0119950895CF938F
S11325D0DF93C82FD0E0CE01885F9F4F0E949937C8
S11325E0C053D84F8883DF91CF9108956F927F9223
S11325F09F92AF92BF92CF92DF92EF92FF920F938E
S11326001F93CF93DF93D82EC82FD0E0FE01E15261
S1132610F94F8081882319F0823071F097C280913C
S1132620E9048E5F6FEF7FEF8D0D0E9420078D2DE3
S1132630B5DB8D2D45D98AC284E0FE01E152F94F04
S11326408083FE01EB50F84F908181E0923009F0D5
S113265080E08093EF048D2DF9D9882321F08D2D0E
S11326600E94170863C284E18C9FF0018D9FF00DD6
S11326701124EF59FC4F85919491FC011995809197
S1132680EF04882381F0FE01EE0FFF1FEE0FFF1F02
S1132690EE0FFF1FE051FB4F8081418120E030E0CD
S11326A000E010E015C08D2D0E9421028C01FC0178
S11326B0319625913491FE01E851F84F8081F7E07D
S11326C08F9F200D311D1124F8018491F90144914B
S11326D0BC2FAA27A251BF4E9C91981304C0FD01A0
S11326E06181641721F08D2D0E9417081FC2862F67
S11326F090E0FC013197E031F10508F0BBC1EA58E4
S1132700FF4F0C9497338091EF04882359F0FE0116
S1132710EE0FFF1FEE0FFF1FEE0FFF1FE051FB4FE9
S1132720748103C0F90133967491FC2FEE27E251B2
S1132730FF4E828190E0FE01E45EF74FE081F0E01D
S1132740AC014B5F5F4FE417F50709F08AC0E72F30
S1132750E695E695E695F0E041E050E0A72FA770F6
S113276011F440E050E04E0F5F1F8417950709F005
S11327707AC08091EF04882369F0FE01EE0FFF1FF9
S1132780EE0FFF1FEE0FFF1FE051FB4FA681B78135
S1132790C12C1FC0613061F4FE01E295F295F07F17
S11327A0FE27E07FFE27EE57FC4FA591B4910BC0A6
S11327B0FE01E295F295F07FFE27E07FFE27EA57BF
S11327C0FC4FA591B4912B5F3F4FF90185919491F2
S11327D0C82EA72EB12CA114B10409F446C020E0E0
S11327E030E081E090E05C2F4427BA0162517F4ED3
S11327F07B014C2D420F942E969496949694477098
S1132800FC0102C0EE0FFF1F4A95E2F7AF01F90188
S1132810F695E795F695E795F695E795EE0DFF1D88
S1132820E381F0E0B901677077273F0102C0759436
S113283067946A95E2F760FE07C0FD01E90DF11D9A
S11328405081452B408307C0FD01E90DF11D4095E2
S11328505081452340832F5F3F4F2A153B0548F2A3
S113286006C081E008C181E006C180E004C180E0C7
S113287002C1FC2FEE27E251FF4E7281FE01E45E9D
S1132880F74F408150E0872F90E00596481759078D
S113289009F06BC08091EF04882371F0FE01EE0F04
S11328A0FF1FEE0FFF1FEE0FFF1FE051FB4F848150
S11328B09581880F991F06C0F901339685919491EB
S11328C0880F991F472F50E04817590709F04FC048
S11328D08091EF04882361F0FE01EE0FFF1FEE0FDD
S11328E0FF1FEE0FFF1FE051FB4FA680B78023C0F0
S11328F0633061F4FE01E295F295F07FFE27E07FFC
S1132900FE27E657FC4F859194910BC0FE01E2959A
S1132910F295F07FFE27E07FFE27E257FC4F85917A
S113292094912B5F3F4FF90125913491220F331F6E
S11329305C01A20EB31E7695CC24CA94C70ECAF0CD
S1132940770F99249394970EEC2CEE0CFF08EA0C65
S1132950FB1C692D8D2D05D9F70191838083CA94C1
S11329609A949A94CC2084F706C081E084C081E0D4
S113297082C080E080C080E07EC08091EF04882324
S113298071F0FE01EE0FFF1FEE0FFF1FEE0FFF1F92
S1132990E051FB4FE280F380A680B78019C0F901B3
S11329A03196E590F490FE01E295F295F07FFE27D2
S11329B0E07FFE27E657FC4F859194912B5F3F4FB4
S11329C0F90125913491220F331F5C01A20EB31E2D
S11329D0FE01E45EF74F8081883099F462E08D2D2A
S11329E0C0D88E159F0579F464E08D2DBAD841E0E6
S11329F0F501208131818217930709F440E0842F87
S1132A003AC081E038C081E036C08091EF04882369
S1132A1071F0FE01EE0FFF1FEE0FFF1FEE0FFF1F01
S1132A20E051FB4FE280F380A480B58009C0F90136
S1132A303196E590F4902D5F3F4FF901A590B49045
S1132A40FE01E45EF74F8081883081F462E08D2DD1
S1132A5088D88E159F0561F464E08D2D82D821E01D
S1132A608A159B0509F420E0822F05C081E003C08C
S1132A7081E001C080E0882391F0FE01E295F295A7
S1132A80F07FFE27E07FFE27E15BFF4E8481958186
S1132A900196958384838D2D0E94170847C08091E9
S1132AA0EF04882331F0CB50D84F188265E070E0F2
S1132AB048C0FE01EE0FFF1FEE0FFF1FBF01615C58
S1132AC07F4E81E090E0A0E0B0E09E012D51384FB0
S1132AD0F901008004C0880F991FAA1FBB1F0A9424
S1132AE0D2F780959095A095B095FB0140815181D6
S1132AF06281738184239523A623B72380839183E2
S1132B00A283B383FE01E851F84F80818F5F8083F5
S1132B10F8013396E4918E1304C08D2D0E9478073A
S1132B2001C080E0FE01E251FB4F1082882339F09E
S1132B30CC0FDD1FCD50D84F6881798102C065E08C
S1132B4070E08091E9048D0D0E942007DF91CF9100
S1132B501F910F91FF90EF90DF90CF90BF90AF90B7
S1132B609F907F906F900895E82FF0E0E35CFF4E14
S1132B70608170E09091E904890F0C942007089516
S1132B801F93CF93DF93E3E5F3E02591349182170C
S1132B90930791F010E044E11F5FC12FD0E04C9FF8
S1132BA0F0014D9FF00D1124ED5AFC4F2591349105
S1132BB08217930789F703C0C0E0D0E010E0FE015C
S1132BC0E752FB4F6081462F50E0FE01E45EF74F71
S1132BD0208130E0225031094217530709F544E1BE
S1132BE04C9F90014D9F300D1124295A3C4FF901FF
S1132BF0A591B4914C914F7D4C93F901A591B49159
S1132C002C9120642C9324E12C9FF0012D9FF00D36
S1132C101124EB5AFC4FA591B4912C9120642C9370
S1132C206F5FFE01E752FB4F6083FE01E45EF74FE6
S1132C302081621750F4DC2FCC27C60FD11DC2515E
S1132C40DF4E2881FC01208330C084E18C9FF00199
S1132C508D9FF00D1124E95AFC4FA591B4918C91EC
S1132C608F798C9384E18C9FF0018D9FF00D11245A
S1132C70E15AFC4F85919491FC011995FE01E752AC
S1132C80FB4F1082C152D94F81E08883E12FF0E0DD
S1132C90EE56FC4FE491EE2319F0E13021F005C02B
S1132CA0812F89DC02C0812F5FDFDF91CF911F91DB
S1132CB008951F93CF93DF93182FC091E904C80F91
S1132CC081E08C0F0E94CC08882319F0812F0E9488
S1132CD05D078C2F0E94CC08882309F469C0F894FE
S1132CE0C12FD0E0FE01E152F94F8081813029F4F7
S1132CF085E0FE01E152F94F80837894FE01E152B0
S1132D00F94F8081843031F1853009F051C0812F31
S1132D100E941708FE01EB50F84F8081882319F0B8
S1132D20813021F00AC0812F39D807C0C251DB4F4E
S1132D308881811102C0812F7BD88091E9046FEFD3
S1132D407FEF810F0E942007F894812F0E94600C6E
S1132D5078942EC0F89484E18C9FF0018D9FF00D3F
S1132D601124EF59FC4F25913491F9011995789468
S1132D70CB50D84F8881882319F0813021F00CC0C2
S1132D80812F0CD809C08091EF04882319F0812F7A
S1132D9005D802C0812F4CD88091E9046FEF7FEFF2
S1132DA0810F0E942007F894812F0E94600C789470
S1132DB0DF91CF911F91089580913E1080FF14C040
S1132DC0F89480913E108E7F80933E107894E2E9CF
S1132DD0F3E0E491EE2319F0E13021F005C080E046
S1132DE052D802C080E002DCE2E9F3E0E491E13091
S1132DF011F480E05ECF08951F920F920FB60F92E8
S1132E0011240BB60F922F933F934F935F936F93BD
S1132E107F938F939F93AF93BF93EF93FF9386EC2E
S1132E2090E00E94A20CFF91EF91BF91AF919F910E
S1132E308F917F916F915F914F913F912F910F905F
S1132E400BBE0F900FBE0F901F9018951F920F92FC
S1132E500FB60F9211240BB60F922F933F934F93FB
S1132E605F936F937F938F939F93AF93BF93EF93EE
S1132E70FF9386EC90E084DEFF91EF91BF91AF91D8
S1132E809F918F917F916F915F914F913F912F917E
S1132E900F900BBE0F900FBE0F901F9018951F92AE
S1132EA00F920FB60F9211240BB60F922F933F93EC
S1132EB04F935F936F937F938F939F93AF93BF933E
S1132EC0EF93FF9386EC90E05BDEFF91EF91BF916F
S1132ED0AF919F918F917F916F915F914F913F91AE
S1132EE02F910F900BBE0F900FBE0F901F9018954F
S1132EF01F920F920FB60F9211240BB60F922F93BD
S1132F003F934F935F936F937F938F939F93AF936D
S1132F10BF93EF93FF938EEC90E00E94A20CFF917D
S1132F20EF91BF91AF919F918F917F916F915F913D
S1132F304F913F912F910F900BBE0F900FBE0F90AA
S1132F401F9018951F920F920FB60F9211240BB673
S1132F500F922F933F934F935F936F937F938F932E
S1132F609F93AF93BF93EF93FF938EEC90E008DEB3
S1132F70FF91EF91BF91AF919F918F917F916F914D
S1132F805F914F913F912F910F900BBE0F900FBE09
S1132F900F901F9018951F920F920FB60F92112445
S1132FA00BB60F922F933F934F935F936F937F933F
S1132FB08F939F93AF93BF93EF93FF938EEC90E027
S1132FC0DFDDFF91EF91BF91AF919F918F917F9141
S1132FD06F915F914F913F912F910F900BBE0F9086
S1132FE00FBE0F901F9018951F93CF93DF93D62F8A
S1132FF0172FC091D804882331F0C13051F018F054
S1133000C23029F12DC081E08093D804C13089F504
S113301039C060E181E00E9407058F3F09F56FEF39
S113302082E094E00E94200462E080E094E00E9448
S11330302004612F84E094E00E9420046D2F85E039
S113304094E00E94200482E08093D80417C061E0D9
S113305081E00E9407058F3F19F48093D80412C0C1
S11330608091D8048C1771F0813019F0823031F0DE
S113307009C060E080E00E94070504C060E080E0D1
S11330800E9407058091D804DF91CF911F91089584
S11330901F93CF93DF93D62F172FC091D704882384
S11330A031F0C13051F018F0C23029F12DC081E067
S11330B08093D704C13089F539C060E181E00E9472
S11330C038058F3F09F56FEF82E095E00E942004F8
S11330D062E080E095E00E942004612F84E095E0A6
S11330E00E9420046D2F85E095E00E94200482E078
S11330F08093D70417C061E081E00E9438058F3FB8
S113310019F48093D70412C08091D7048C1771F0FE
S1133110813019F0823031F009C060E080E00E9413
S1133120380504C060E080E00E9438058091D7042F
S1133130DF91CF911F910895CF93DF93EA01FB01B3
S11331409081911109C09181911106C092819111D0
S113315003C09381992319F1209721F1811109C0AA
S1133160CB010E94A605CE010E949A0581E090E061
S11331701EC0813049F4CB010E94C805CE010E94D3
S1133180BC0581E090E013C0823079F4CB010E9449
S1133190EA05CE010E94DE0581E090E008C080E0EF
S11331A090E005C080E090E002C081E090E0DF9113
S11331B0CF910895AB011092761010927510BC0156
S11331C080E0BACF0895AB011092CB071092CA07E2
S11331D0BC0181E0B1CF08959B016091751070919D
S11331E07610AC0180E00E94870620917510309122
S11331F07610280F391F3093761020937510089598
S11332009B016091CA077091CB07AC0181E00E94D9
S113321087062091CA073091CB07280F391F3093B6
S1133220CB072093CA070895CF93C091D60488236F
S113323031F0C13051F018F0C23089F02EC081E075
S11332408093D604C13079F532C060E281E00E94F7
S113325038058F3F11F582E08093D60428C062E0E0
S113326070E081E00E94C90484FD0DC062E070E05A
S113327081E00E94C90483FF10C048E162E070E06D
S113328081E00E94FD0440E162E070E081E00E9480
S1133290FD048FEF8093D6040AC08091D6048C1766
S11332A031F0813021F460E280E00E9438058091A1
S11332B0D604CF910895CF93C091D504882331F0DB
S11332C0C13051F018F0C23089F02EC081E08093F3
S11332D0D504C13079F532C060E281E00E9407056F
S11332E08F3F11F582E08093D50428C062E070E03E
S11332F080E00E94C90484FD0DC062E070E080E0BB
S11333000E94C90483FF10C048E162E070E080E0DD
S11333100E94FD0440E162E070E080E00E94FD0450
S11333208FEF8093D5040AC08091D5048C1731F0B7
S1133330813021F460E280E00E9407058091D50489
S1133340CF9108951F93CF93DF93D62F172FC0915A
S1133350D404882331F0C13051F018F0C23029F17F
S11333602DC081E08093D404C13089F539C060E177
S113337081E00E9469058F3F09F56FEF82E096E0D6
S11333800E94200462E080E096E00E942004612F05
S113339084E096E00E9420046D2F85E096E00E9470
S11333A0200482E08093D40417C061E081E00E948D
S11333B069058F3F19F48093D40412C08091D4041A
S11333C08C1771F0813019F0823031F009C060E15E
S11333D080E00E94690504C061E080E00E94690504
S11333E08091D404DF91CF911F910895AB01109285
S11333F04A0910924909BC0182E09ECE08959B01BE
S11334006091490970914A09AC0182E00E948706E3
S11334102091490930914A09280F391F30934A09EC
S1133420209349090895AF92BF92CF92DF92EF9211
S1133430FF920F931F93CF93DF931F921F92CDB7E9
S1133440DEB77A8369837A018901E981FA81F770A9
S1133450C82ED12CD601AA0FBB1FAE53B84F8D91E5
S11334609C918E0F9F1F2E0F3F1F21303840C8F0B4
S113347020E038E05901AE1ABF0AA501B7010E9445
S11334803703A8014A195B09B7016A0D7B1DF601D0
S1133490EE0FFF1FEE53F84F808191810E94370396
S11334A004C0A801B7010E9437030F900F90DF9169
S11334B0CF911F910F91FF90EF90DF90CF90BF902D
S11334C0AF900895DF92EF92FF920F931F93CF93E3
S11334D0DF93D82E7B018A0168E270E00E94C90460
S11334E0C82FD0E069E270E08D2D0E94C904DC2F62
S11334F0CC27C82B9801A701BE018D2D94DFC00FE6
S1133500D11F4D2F68E270E08D2D0E94FD044C2FD9
S113351069E270E08D2D0E94FD04DF91CF911F912F
S11335200F91FF90EF90DF900895DF92EF92FF925A
S11335300F931F93CF93DF93D82E0FEF1FEFE12C40
S1133540F12C8D2D0E94E704EC01009721F08D2DC4
S11335500E94E7047C01EC16FD0629F001501109D4
S11335600115110571F7C701DF91CF911F910F91DB
S1133570FF90EF90DF900895DF92EF92FF920F9308
S11335801F93CF93DF93D82E7B018A01CEDFEC010A
S1133590009799F463E070E08D2D0E94C904843192
S11335A0D9F08823C9F0C1E0D0E08C3111F4C0E037
S11335B0D0E0D195C195D10904C0081719070CF4BE
S11335C0E8011C161D0644F4AE01B7018D2D7ADF07
S11335D060E48D2D0E943904CE01DF91CF911F91BB
S11335E00F91FF90EF90DF9008950F931F93CF9367
S11335F0DF931F92CDB7DEB7082F10E0F801EE0F6E
S1133600FF1FE55FF74F20813181232BB1F041E0AB
S113361050E0BE016F5F7F4FAFDF1816190684F4C8
S1133620F801EE0FFF1FE55FF74F8081918101974D
S113363091838083898190E005C08FEF9FEF02C062
S11336408FEF9FEF0F90DF91CF911F910F9108950E
S1133650DF92EF92FF920F931F93CF93DF93CDB737
S1133660DEB728970FB6F894DEBF0FBECDBFD82EB5
S1133670E82EF12CF701EE0FFF1FE55FF74F2081D5
S11336803181232B41F08F018D2DAFDFF801208193
S11336903181232BC9F78D2D48DF18161906ACF597
S11336A048E050E0BE016F5F7F4F8D2D65DF9C01C8
S11336B0181619063CF5898180934B108A818093F2
S11336C04C108B8180934D108C8180934E10C701D8
S11336D0880F991FFC01ED5BFF4E2D8130E0322FE6
S11336E022274E81240F311D318320832F8130E026
S11336F0322F22274885240F311DFC01E55FF74F47
S113370031832083822F932F02C080E090E028969B
S11337100FB6F894DEBF0FBECDBFDF91CF911F91DE
S11337200F91FF90EF90DF90089580E091CF08957E
S113373081E08ECF089540910B0850910C084115FB
S11337405105D9F06417750728F0BC0180E014DF37
S11337509C0105C0AB01BC0180E00EDF9C01121688
S1133760130674F4EBE0F8E080819181821B930BE3
S113377091838083822F932F08958FEF9FEF089575
S11337808FEF9FEF089540910D0850910E08411559
S11337905105D9F06417750728F0BC0181E0ECDE0F
S11337A09C0105C0AB01BC0181E0E6DE9C01121660
S11337B0130674F4EDE0F8E080819181821B930B91
S11337C091838083822F932F08958FEF9FEF089525
S11337D08FEF9FEF089580E008CF08958091E5046E
S11337E09091E604A091E704B091E8040196A11D2C
S11337F0B11D8093E5049093E604A093E704B0938D
S1133800E80480E0A3C00895CF93C091D30481114C
S113381003C01092D30406C0C13099F018F0C2302E
S113382001F149C08091D204811104C00E94DA06DA
S11338308093D20481E08093D304C13009F041C065
S113384044C060E281E00E9469058F3FA1F568EE03
S113385073E08091D2040E94200782E08093D30415
S113386034C062E070E082E00E94C90484FD19C0A3
S113387062E070E082E00E94C90483FF07C048E16F
S113388062E070E082E00E94FD0415C08091D204E1
S11338900E94CC08882379F0A1DF8FEF8093D304B2
S11338A014C040E162E070E082E00E94FD048FEF0A
S11338B08093D3040AC08091D3048C1731F08130F3
S11338C021F460E280E00E9469058091D304CF91E5
S11338D00895BF92CF92DF92EF92FF920F931F93BE
S11338E0CF93DF937B016A01E901B090D10488236F
S11338F031F0BB2021F081E0B81639F00DC081E031
S11339008093D104B8120EC015C081E07DDF8F3FD3
S113391019F48093D1040EC08091D1048B1551F019
S1133920813041F4B601C70161DDB801CE0167DD24
S113393080E06ADF8091D104DF91CF911F910F91D4
S1133940FF90EF90DF90CF90BF9008950F931F9357
S1133950CF93C091D004811103C01092D00408C049
S1133960C130A9F028F0C23011F1C43051F14BC07C
S11339708091CF04811104C00E94DA068093CF04A1
S113398081E08093D004C13009F047C0E5C069EEFE
S113399077E081E0D7DC8F3FB1F568EE73E080918A
S11339A0CF040E94200782E08093D004D5C0809188
S11339B0CF040E94CC08882331F184E08093D004A2
S11339C031C063E070E082E00E94C904823219F0E1
S11339D01092D004C1C04091FA025091FB020EE350
S11339E010E020EE36E06CEF72E081E072DF8F3F92
S11339F051F468EE73E08091CF040E94200782E0C6
S1133A008093D004A9C08091D0048C1709F4A4C079
S1133A10813019F0843031F09FC069EE77E080E0A6
S1133A2091DC9AC0E0EEF6E085E0808381E080934B
S1133A30E1069091F8022091F9022093E206909316
S1133A40E3068093E40682E08093E50683E18093B5
S1133A50E60686E38093E7068091CC078093E80628
S1133A608091CD078093E9068091CE078093EA0682
S1133A708091CF078093EB0687E58093EC0685E37E
S1133A808093ED0681E38093EE0680E38093EF0656
S1133A908093F00680E28093F10684E58093F20639
S1133AA095E49093F30693E59093F4068093F506DA
S1133AB08BEF96E09093F9078093F80710A2178E86
S1133AC012A211A28091F0029091F10294A383A317
S1133AD08091F4029091F50296A385A38BE790E080
S1133AE090A787A388E097E092A781A788E998E048
S1133AF094A783A78DE097E09093DE068093DD067C
S1133B008091DE049091DF04A091E004B091E1047F
S1133B10880F991FAA1FBB1FAC01BD01440F551F7D
S1133B20661F771F440F551F661F771F840F951F4D
S1133B30A61FB71F85A796A7A7A7B0AB8AE1809356
S1133B401D074091FA025091FB020EE310E09F0121
S1133B506CEF72E080E0BDDE8091D004CF911F91C4
S1133B600F9108958F929F92AF92BF92CF92DF925E
S1133B70EF92FF920F931F93CF93DF93CDB7DEB7EE
S1133B80A4970FB6F894DEBF0FBECDBFE82ED62E95
S1133B90C72E6894FF24F5F88E010F5F1F4FF801BC
S1133BA08F2D11928A95E9F78FEF89A38AA38BA3AE
S1133BB08CA363E470E0CE018196FCDA81E0898312
S1133BC08A8386E08B831C824091EF075091F00733
S1133BD06091F1077091F207872E9924AA24BB24DF
S1133BE0B42FAA279927882788299929AA29BB2984
S1133BF08824942EA52EB62E88249924BB248829A3
S1133C009929AA29BB29452F562F672F772744279F
S1133C1066277727482B592B6A2B7B2B4D835E8392
S1133C206F837887C986DA8680E890E09C878B87E3
S1133C306CE170E0C801D0DAF8018F2D11928A95F9
S1133C40E9F786E0E1EDF7E0D80101900D928A955D
S1133C50E1F760E170E0C801BFDAF8011192FA946B
S1133C60E9F706E010E060E270E0CE010196B4DA14
S1133C700150110901151105B1F783E6898392E812
S1133C809A8393E59B838C8385E38D8381E08E8384
S1133C90EF829DE3988797E099878A8786E0E1ED34
S1133CA0F7E0DE011B9601900D928A95E1F78CE016
S1133CB0898B8A8B87E0E4E0F3E0DE015396019080
S1133CC00D928A95E1F76091D407CE0149960E943E
S1133CD0A7066091D507CE014B960E94A706609176
S1133CE0D607CE014D960E94A7066EE170E0CE0184
S1133CF0019672DAF3E0EF1224C082E3898384E050
S1133D008A839091CC079B839091CD079C8390915B
S1133D10CE079D839091CF079E8396E39F838887E8
S1133D20809122078987809123078A8780912407BD
S1133D308B87809125078C876CE070E0CE0101961B
S1133D404BDA87E3898386E08A8391E09B8393E05F
S1133D509C838D838FE08E838AE38F838BE38887B4
S1133D608FEF898769E070E0CE01019635DAA49679
S1133D700FB6F894DEBF0FBECDBFDF91CF911F9178
S1133D800F91FF90EF90DF90CF90BF90AF909F90F6
S1133D908F9008950F931F93CF93DF93062FEA011B
S1133DA01091CE04882329F0112319F0113039F031
S1133DB00DC081E08093CE04113071F412C081E013
S1133DC07ADA8F3F19F48093CE040BC09091CE041D
S1133DD0911739F0913029F4BE01802FC3DE80E0C1
S1133DE06ADA8091CE04DF91CF911F910F910895EB
S1133DF02F923F924F925F927F928F929F92AF92B7
S1133E00BF92CF92DF92EF92FF920F931F93CF93C3
S1133E10DF93CDB7DEB7A2970FB6F894DEBF0FBE1F
S1133E20CDBF8A0182DC181619060CF0F1C162E2DA
S1133E3070E0CE0101967FDC8981823009F0EAC10D
S1133E4080914310909144108334910509F0E4C1AA
S1133E508D819E81AF81B885CB2EDD24EE24FF2495
S1133E60782F662755274427C42AD52AE62AF72A15
S1133E704427582F692F7A2F442755277727C42A98
S1133E80D52AE62AF72A892F9A2FAB2FBB27882712
S1133E90AA27BB27C82AD92AEA2AFB2AF801C08202
S1133EA0D182E282F38246E050E061ED77E0CE0118
S1133EB04D960E945834892B09F0B0C180912B0C87
S1133EC090912C0CA0912D0CB0912E0CC816D906F3
S1133ED0EA06FB0608F4A4C18091EF079091F0076D
S1133EE0A091F107B091F2078C159D05AE05BF05B1
S1133EF008F498C189899A89AB89BC898093CC07D5
S1133F009093CD07A093CE07B093CF070EEC10E0AB
S1133F1062DC0150110901151105D1F7712C0F2E26
S1133F20FBE0CF2EF8E0DF2EF02D812C912C0F2E0C
S1133F30F2E2AF2EF7E0BF2EF02D0F2EF3E44F2E5A
S1133F40F0E15F2EF02D0F2EF3E22F2EF7E03F2E3F
S1133F50F02D56C140DC8333910509F405C17CF48E
S1133F608130910529F124F4892B09F449C13DC11B
S1133F708330910521F1069709F439C036C18A339B
S1133F80910509F47FC03CF48533910569F0C69727
S1133F9009F445C02AC18B33910509F4ACC08F3FA5
S1133FA0910509F42DC121C116DC15DC782E28C138
S1133FB012DC64E070E089E390E10DDC21C10BDCEC
S1133FC07C0164E070E08FED97E005DCFF24F4E011
S1133FD0EF1AF1081E141F040CF012C1082D192D3C
S1133FE0FADB0F5F1F4F0E151F05D4F309C1F3DB76
S1133FF07C0164E070E087E690E1EDDBFF2484E07F
S1134000E81AF1081E141F040CF0FAC0082D192D2B
S1134010E2DB0F5F1F4F0E151F05D4F3F1C0DBDB8E
S1134020F501908191110EC0F101908191110AC0A6
S1134030E4E2F7E09081911105C0E5E2F7E09081B8
S1134040992399F0F5010081118122813381F201D4
S11340504081518162817381041715072607370750
S113406021F0F82E811106C0CBC064E070E0C501D8
S1134070B2DBC6C0082D192DAEDB0F5F1F4FF01247
S1134080FBCFBEC0A8DB64E070E08AEF97E0A3DB5F
S11340908091FA079091FB07A091FC07B091FD076E
S11340A00B2F112722273327782F662755274427DC
S11340B0042B152B262B372B4427582F692F7A2FA7
S11340C0442755277727042B152B262B372B492FCD
S11340D05A2F6B2F7727442766277727402B512B9E
S11340E0622B732B4093FA075093FB076093FC07F2
S11340F07093FD0785C06FDB64E070E088E198E0B1
S11341006ADB8091180890911908A0911A08B0915F
S11341101B080B2F112722273327782F66275527B3
S11341204427042B152B262B372B4427582F692F74
S11341307A2F442755277727042B152B262B372B2B
S1134140492F5A2F6B2F7727442766277727402B31
S1134150512B622B732B40931808509319086093CA
S11341601A0870931B084CC036DB64E070E084EEE0
S113417097E031DB8091E4079091E507A091E60791
S1134180B091E7070B2F112722273327782F6627B3
S113419055274427042B152B262B372B4427582F20
S11341A0692F7A2F442755277727042B152B262B85
S11341B0372B492F5A2F6B2F7727442766277727CA
S11341C0402B512B622B732B4093E4075093E5074C
S11341D06093E6077093E70740936D1050936E1059
S11341E060936F10709370100BC0F5DAF82E88236B
S11341F039F0082D192DEFDA0F5F1F4FF012FBCFA6
S1134200F60180819181892B09F0A4CE872D0BC002
S11342108FEF09C080E007C080E005C080E003C0E4
S113422080E001C080E0A2960FB6F894DEBF0FBE16
S1134230CDBFDF91CF911F910F91FF90EF90DF9051
S1134240CF90BF90AF909F908F907F905F904F9052
S11342503F902F900895CF92DF92EF92FF926B01DF
S11342607C01611571058105910539F00E940934BD
S1134270A70196010E947B3303C060E070E0CB018C
S1134280FF90EF90DF90CF900895CF93C091CD042D
S1134290811110C08091E40481111EC0809100033B
S11342A08093E40492E0980F909300038F5F8093CF
S11342B0E30412C0C530C9F130F4C13099F060F0A4
S11342C0C330E1F0D9C0C73009F475C008F45CC04C
S11342D0CF3F09F4C7C0D0C081E08093CD048C13D4
S11342E0D9C02BC164E470E081E00E94F4178F3FD1
S11342F009F0C2C083E08093CD0414C14AE050E0C9
S113430061E081E047DD8F3F09F0B6C081E0809332
S11343106C1048EE53E060E070E08091E4040E9489
S1134320840885E08093CD0408C16091D907709119
S1134330DA078091DB079091DC074FE550E158DD07
S11343408230A1F480915F1090916010A09161106F
S1134350B09162108093EF079093F007A093F10758
S1134360B093F20786E08093CD04E2C08091E40428
S11343700E94F308882321F081E08093CD048AC051
S113438085E08093CD04D9C044E650E063E081E049
S113439001DD8F3F09F070C082E080936C1044EF20
S11343A051E060E070E08091E4040E94840887E0BA
S11343B08093CD04C2C06091D9077091DA078091CF
S11343C0DB079091DC074FE550E112DD8530B1F554
S11343D02091CF0730E04091CE0750E06091CD07A7
S11343E070E08091CC0790E00E9478042091E2076D
S11343F030E04091E10750E06091E00770E0809187
S1134400DF0790E00E94930420913C1030E040913B
S11344103B1050E060913A1070E08091391090E0C8
S11344200E94AE0448EB5BE060E070E08091E3043E
S11344300E9484088FEF8093CD047FC0863021F4DE
S113444083E08093CD046EC08091E4040E94F3085D
S1134450882321F081E08093CD041CC087E0809301
S1134460CD046BC08091E3040E94F308882321F0FB
S113447086E08093CD045CC08091CD048C1709F450
S11344805CC0833009F44EC0863009F451C08130D9
S113449009F053C06FEC77E080E090E0DCDEDC01F3
S11344A0CB010196A11DB11D8093EF079093F007F6
S11344B0A093F107B093F20780932B0C90932C0CEC
S11344C0A0932D0CB0932E0C1092CC071092CD0714
S11344D01092CE071092CF071092391010923A1012
S11344E010923B1010923C101092DF071092E007DC
S11344F01092E1071092E20710922207109223070C
S113450010922407109225071092671010926810D9
S11345101092691010926A1064E470E080E00E94C6
S1134520F4170BC04AE050E061E080E033DC05C0E2
S11345304AE050E063E080E02DDC8091CD04CF912F
S11345400895AF92BF92CF92DF92EF92FF920F93B2
S11345501F93CF93DF93CDB7DEB760970FB6F89470
S1134560DEBF0FBECDBFA2960EAD1FADA29781E3F5
S1134570F80180838EE2818383E3828313826F96C2
S1134580DFAC6F97DA9409F44EC021E0A12CB12C72
S11345900F2EFEE2EF2EF12CF02D8A2D9B2DCC2434
S11345A0C394C20EEEE1F0E0EC0FFD1FE20FF11D2B
S11345B020819695982F882797958795322F3F7756
S11345C0830F911DDA9421F02223C4F42C2DE7CF1C
S11345D04AE0BE016F5F7F4F0E949634F80101905C
S11345E00020E9F731978EE290E091838083BE0149
S11345F06F5F7F4FC8010E94653415C04AE0BE0159
S11346006F5F7F4F0E949634F80101900020E9F714
S11346103197F182E082BE016F5F7F4FC8010E9433
S113462065342C2DBACF60960FB6F894DEBF0FBE5A
S1134630CDBFDF91CF911F910F91FF90EF90DF904D
S1134640CF90BF90AF9008953F924F925F926F9238
S11346507F928F929F92AF92BF92CF92DF92EF920E
S1134660FF920F931F93CF93DF9300D01F921F925B
S1134670CDB7DEB78C01DB018C91813309F0E5C045
S113468011968C9111978E3209F0DFC012968C919D
S11346901297833309F0D9C013968C918E3209F0A6
S11346A0D4C080E4F80111928A95E9F78BE2D8012D
S11346B08C93FB0101900020E9F731973F01661AC2
S11346C0770AFE01319685E0DF011D928A95E9F7AC
S11346D0B5E06B1671040CF471C06B01E4E0CE0E0E
S11346E0D11C6894EE24E2F8F12CAA24A394B12CF2
S11346F080E090E09E012F5F3F4F49010F2EF5E0CF
S11347003F2EF02D412C512CD6012D916D012E32CE
S113471009F047C0C4010E943234272F862F922FFC
S11347208038910528F4F801EA0DFB1D60832EC042
S11347308115B0E49B0788F4F801EA0DFB1D880F8E
S1134740991F892F80688083EFEFAE1ABE0AF801A3
S1134750EA0DFB1D6F77608319C0F801EA0DFB1D9C
S11347609C0124E0329F212D3327112423702068DB
S11347702083880F991F892F80688183F2E0AF0E10
S1134780B11CF801EA0DFB1D6F776083D401E32DA2
S11347901D92EA95E9F7FFEFAF1ABF0A842D952D14
S11347A005C0F401E80FF91F208301962FEFE21AE8
S11347B0F20A6E147F0409F0A7CF03C0AA24A394BD
S11347C0B12CCE0101960E941534282F392F2038A0
S11347D0310528F4F801EA0DFB1D80832EC0211554
S11347E090E4390788F4F801EA0DFB1D220F331F0A
S11347F0932F90689083AFEFAA1ABA0AF801EA0DD2
S1134800FB1D8F77808319C0F801EA0DFB1DA901F8
S113481044E0549F412D5527112443704068408340
S1134820220F331F932F90689183B2E0AB0EB11C1B
S1134830F801EA0DFB1D8F778083F801E05CFF4FE0
S11348402FEFA21AB20AB182A0820F900F900F909C
S11348500F900F90DF91CF911F910F91FF90EF90E8
S1134860DF90CF90BF90AF909F908F907F906F908C
S11348705F904F903F90089520E4FC0111922A9597
S1134880E9F7FC01E05CFF4F1182108208958F92DA
S11348909F92AF92BF92CF92DF92EF92FF920F93CB
S11348A01F93CF93DF93CDB7DEB760970FB6F8941D
S11348B0DEBF0FBECDBF8C017B01FC01EE5BFF4F61
S11348C08081843009F47DC0863009F46DC084345D
S11348D009F066C076C081E3D7018C938EE211960D
S11348E08C93119783E312968C93129713961C92D0
S11348F0F801E05CFF4FB080BA9411F181E0812CA3
S1134900912C0F2EFEE2CF2ED12CF02D282D392DF7
S1134910AA24A394A80EF801E80FF11D808136950E
S1134920322F222737952795982F9F77290F311DEE
S1134930BA9409F453C088230CF067C08A2DE8CFD9
S113494080E079C0F801ED5BFF4F1082339720813E
S1134950318121153105D1F080E090E060E033969B
S1134960A801405C5F4FD801A60FB11D2C91D7015F
S1134970A80FB91F2C9360816F5F6083862F90E02E
S1134980DA012D913C918217930768F3F701E20F46
S1134990F31F108280E04FC0C8016EDF81E04BC07E
S11349A0C8016ADF87E047C0FB0101900020E9F7F6
S11349B0CF01861B970B02978417950708F48BCFBA
S11349C0EBCFF70101900020E9F7CF018E199F0981
S11349D002978417950708F4B5CFDECF4AE0BE01ED
S11349E06F5F7F4FC9010E949634F7010190002048
S11349F0E9F731978EE290E091838083BE016F5F87
S1134A007F4FC7010E9465349BCF4AE0BE016F5FB0
S1134A107F4FC9010E949634F70101900020E9F705
S1134A203197D182C082BE016F5F7F4FC7010E9460
S1134A3065348A2D6BCF60960FB6F894DEBF0FBE37
S1134A40CDBFDF91CF911F910F91FF90EF90DF9039
S1134A50CF90BF90AF909F908F9008951F93CF9366
S1134A60DF93FC01EE5BFF4F2081223059F5329732
S1134A70208131812330310540F5FB011182108200
S1134A80FC01E05CFF4F2081318121153105F9F0F3
S1134A90162FE62FF72F40E050E0EC01C05CDF4F0B
S1134AA040955095280F391FD901A40FB51F2C919B
S1134AB021934E2F411B50E028813981421753071F
S1134AC078F307C0D9DE87E005C081E003C080E049
S1134AD001C080E0DF91CF911F910895CF9320E42E
S1134AE0FC0111922A95E9F7262F2F7B2430C9F572
S1134AF0FA0101900020E9F79F01241B350B225095
S1134B0031092034310550F5FC01EE5BFF4F608321
S1134B10FA0101900020E9F73197BF01641B750B7E
S1134B20FC01E05CFF4F7183608333961082611552
S1134B307105D1F020E030E0C0E0DF01FA01E20FBE
S1134B40F31F2081FC01EC0FF11D2083CF5FCC9378
S1134B502C2F30E02617370788F308C08DDE81E05C
S1134B6006C08ADE87E003C080E001C080E0CF9108
S1134B70089520E4FC0111922A95E9F7623011F0BE
S1134B80643471F4FC01E05CFF4F22E030E03183D7
S1134B90208332966083FC015083418380E0089532
S1134BA06BDE87E0089570E4FC0111927A95E9F7D1
S1134BB0623011F0643481F4FC01E05CFF4FA4E046
S1134BC0B0E0B183A08332966083FC0150834183BB
S1134BD03283238380E008954FDE87E00895FC014B
S1134BE080E4DF011D928A95E9F78FEB860F84300C
S1134BF010F0673481F4DF01A05CBF4F84E090E0E3
S1134C0011969C938E9312966C93508341833283B6
S1134C10238380E00895CF012FDE87E00895DC012F
S1134C200D900020E9F7FC019D012150310980E03D
S1134C3090E004C041914E3209F40196E217F30763
S1134C40C9F701960895CF92DF92EF92FF920F93E6
S1134C501F93CF93DF93CDB7DEB728970FB6F894A1
S1134C60DEBF0FBECDBF6C01DB01E12CF12C40E0B7
S1134C7050E020E030E08C010150110916C0041707
S1134C80150761F48E3251F0E1E0F0E0EC0FFD1F06
S1134C90EE0DFF1D80838FEFE81AF80A2F5F3F4F58
S1134CA0EC91EE3211F44F5F5F4F8D918E3219F417
S1134CB04C155D0550F4FB0101900020E9F7319794
S1134CC0E61BF70B2E173F07D0F2FE01EE0DFF1D7A
S1134CD01282CE0107969F938F9382E193E09F9374
S1134CE08F93CE0101969F938F930E94AF340F90C0
S1134CF00F900F900F900F900F908F8198852896AA
S1134D000FB6F894DEBF0FBECDBFDF91CF911F91D8
S1134D100F91FF90EF90DF90CF900895AF92BF92E4
S1134D20CF92DF92EF92FF920F931F93CF93DF9373
S1134D307C018B0174DFEC01C80171DF8C179D07C6
S1134D4038F5C1E0D0E019C0B701CE017CDF6C01B9
S1134D50B801CE0178DF8C159D0508F46CC0B7014D
S1134D608A2D9B2D70DF6C01B8018A2D9B2D6BDF82
S1134D70C816D90608F462C02196AC2EBD2EC8010F
S1134D804EDF0196C817D907F8F281E090E064C0BD
S1134D90C817D90738F5C1E0D0E019C0B701CE0172
S1134DA052DF6C01B801CE014EDF8C159D0508F46D
S1134DB048C0B7018A2D9B2D46DF6C01B8018A2DAE
S1134DC09B2D41DFC816D90608F43EC02196AC2EAF
S1134DD0BD2EC70124DF0196C817D907F8F28FEF5B
S1134DE09FEF3AC0C817D90729F5C1E0D0E017C032
S1134DF0B701CE0128DF6C01B801CE0124DF8C1588
S1134E009D0528F1B7018A2D9B2D1DDF6C01B8018A
S1134E108A2D9B2D18DFC816D906E0F02196AC2EFA
S1134E20BD2EC701FCDE0196C817D90708F38FEF22
S1134E309FEF12C011C081E090E00EC08FEF9FEF92
S1134E400BC081E090E008C08FEF9FEF05C081E0C8
S1134E5090E002C08FEF9FEFDF91CF911F910F91F0
S1134E60FF90EF90DF90CF90BF90AF900895EF92B6
S1134E70FF920F931F93CF93DF937C0109E012E01D
S1134E80C0E0D0E0F80160817181C70147DF01967D
S1134E9039F02196095F1F4FCC30D10599F703C033
S1134EA08C2F9D2F02C08FEF9FEFDF91CF911F9129
S1134EB00F91FF90EF900895FA01223049F4613088
S1134EC0E9F4DC014D915C9162E0CF0152CE08958A
S1134ED0243039F46230F9F4AC0164E0CF01FECD42
S1134EE00895233459F46330B1F4DC012D913D91DC
S1134EF04D915C9163E4CF0172CE0895223059F450
S1134F00643049F4DC012D913D914D915C9162E056
S1134F10CF0149CE08950895223079F4643011F513
S1134F20EAEBF2E001900020E9F73197AF014A5B28
S1134F3052406AEB72E0ABCC0895213029F4623020
S1134F4061F4BA018BCD0895633419F4233029F444
S1134F5005C0623011F4243019F0089580E00895FA
S1134F6080E008956334A9F7F8CF2F923F924F92CF
S1134F705F926F927F928F929F92AF92BF92CF92E5
S1134F80DF92EF92FF920F931F93CF93DF93CDB7EE
S1134F90DEB72B970FB6F894DEBF0FBECDBF99874F
S1134FA0888760910D0870910E087093D8076093FC
S1134FB0D70789E9E6E2F7E0DF011D928A95E9F770
S1134FC06A39710508F0D4C1CF010E94C31B8091D6
S1134FD02607803309F0CEC18091290723E0280FEA
S1134FE030E0F901EA5DF84FD28095E0980F792E10
S1134FF07D0CE72CF12CF701EA5DF84F8180B48138
S1135000B98394E0970DAB2EA90E0A2D10E0F80198
S1135010EA5DF84F92819C836894BB24B1F8BA0C82
S1135020B90EAB2DB0E0FD01EA5DF84F92806894B3
S1135030CC24C1F8CB0CC90C4C2C512CF201EA5DE8
S1135040F84F668096E09C0D960D9D83292E312C99
S1135050A1014A5D584FFA01F181FF83FA01F281FF
S1135060FE83E885F98511821282138214828823D3
S113507031F14BE257E0815090E0845D984F3B83DF
S11350802A83BB87AA87FA012191A885B98511963D
S11350904D915D916D917C911497762F652F542FCE
S11350A04427422B11964D935D936D937C931497F3
S11350B0E817F90749F72A813B81AA85BB85E8856A
S11350C0F985808280924D09F4E1FD1538F481E080
S11350D0A885B98519968C9382E07CC1E885F98509
S11350E08081833A09F03FC06D2D70E080911308F0
S11350F0909114086817790709F06FC0611571055C
S113510009F47EC0C901039640912F0B5091300BD6
S1135110FC01EA5DF84F3081FA012081321791F0E9
S11351200AC0E40FF51FC401820F911DDC019C919C
S11351308081981771F082E0A885B98519968C93BF
S113514087E048C120E08A5D984FBB83AA83392D4C
S11351504C012F5FE22FF0E0E617F70710F3AA8166
S1135160BB81932E4DC0805A8230B8F54D2D50E04E
S11351708091DD079091DE074817590771F54115B5
S11351805105F1F1B9016D5F7F4F20911E073091F8
S11351901F07FB01EA5DF84F9081F90180819817A0
S11351A091F00AC0820F931FFB01ED0DF11D808069
S11351B0FC018081881651F082E0A885B985199692
S11351C08C9387E007C1D12C6A5D784FD3948D2DE1
S11351D090E08417950730F313C0E885F985E0570C
S11351E0FF4F11821082E885F985E25BFF4F11823F
S11351F0108282E0A885B98519968C9387E0EAC06D
S1135200E885F9851582168217821086F981FF23B5
S113521051F1A701455D584F872D90E0845D984F6B
S11352202F2F2150820F911DBB83AA83FA01E8849A
S1135230F9842191D70115964D915D916D917C91E1
S11352401897762F652F542F4427422B15964D938C
S11352505D936D937C931897E817F90751F7AA812A
S1135260BB81F986E886E885F9851186FC81FF23F0
S1135270E1F0075D184F8A2D90E0865D984F2F2F3F
S11352802150820F911D40E050E0BA01F8010885D9
S11352901985762F652F542F44272191422BE81727
S11352A0F907B9F71987088703C040E050E0BA014D
S11352B0E885F98541871286138614861586992018
S11352C0E9F0A75DB84F8B2D90E0865D984F2FEFE6
S11352D0290D820F911D2D91428553856485758515
S11352E0762F652F542F4427422B42875387648798
S11352F07587A817B90779F7F987E887F0E4F615F1
S113530038F481E0A885B98519968C9383E062C04E
S113531080E4E885F9853E96DF011D928A95E9F7D8
S1135320E885F985E25BFF4F862D90E091838083C9
S1135330662021F1F201E35DF84FA885B9851E9638
S11353408C2D90E0825D984F6A94860D911D48855E
S1135350598521912D93E817F907D9F7598748877B
S11353600DC021912D93E817F907D9F780E032C0D9
S113537086E030C085E02EC080E02CC0E885F98549
S1135380EE56FF4FBF81B083E885F985E057FF4FA4
S11353902E81822F90E09183808380E4E885F985D3
S11353A0E05BFF4FDF011D928A95E9F7222321F389
S11353B0F101E75DF84F48855985405B5F4FBD813A
S11353C08B2F90E0865D984F2E812150820F911D86
S11353D0DA01C7CF2B960FB6F894DEBF0FBECDBF50
S11353E0DF91CF911F910F91FF90EF90DF90CF90BD
S11353F0BF90AF909F908F907F906F905F904F90F1
S11354003F902F900895CF92DF92EF92FF920F93E7
S11354101F93CF93DF93DC011092C0071092BF0754
S1135420EC01C25BDF4FFC01E057FF4F288139815B
S113543080819181280F391F2B5D3F4F89E9E6E276
S1135440F7E0EF0119928A95E9F780914D09833AC3
S113545029F58091130890911408280F391F30936F
S1135460D8072093D70730E33093260722502093A0
S1135470270722E02093280721E02093290724E02E
S113548020932B0727E030E03093C0072093BF0719
S1135490BC0180932C07009731F566C08091DD072D
S11354A09091DE07280F391F3093D8072093D70730
S11354B030E33093260722502093270722E02093DD
S11354C0280721E02093290724E020932B0727E0D5
S11354D030E03093C0072093BF07BC0180932C07B2
S11354E0009711F541C000912F0B1091300B80E013
S11354F090E0C0E02091BF073091C007A9014F5F41
S11355005F4F5093C0074093BF07800F911FFC016A
S113551080812A5D384FF9018083CF5F8C2F90E022
S11355208617970738F320C000911E0710911F07B4
S113553080E090E0C0E02091BF073091C007A9014E
S11355404F5F5F4F5093C0074093BF07800F911F79
S1135550FC0180812A5D384FF9018083CF5F8C2F55
S113556090E08617970738F38091BF079091C007A2
S11355709C012F5F3F4F3093C0072093BF074C918E
S1135580FC01EA5DF84F4083A9014A5D584F7D0153
S11355902EE4E20EF11CE70178819D0120573F4F74
S11355A0E9016881670F665EEA01688302E00283AD
S11355B014E0138315964C91159716965C911697E3
S11355C017966C91179718967C9118977483658336
S11355D0568347830087118719964C911997128631
S11355E0138614864587068717871A964C911A974F
S11355F01B965C911B971C966C911C971D967C9135
S11356001D97708B618B528B438B40E3448BE70176
S11356106881E9015881560F5A5F558B468BE70123
S11356204881E9012881240F2C5F278B26E0208FF5
S11356304A969093C0078093BF07E7018881818FC2
S113564088819981892B49F18091BF079091C00786
S1135650FD013E969C012A5D384F69017C013DE0C5
S1135660E31AF108EA1AFB0A02EF1FEF0A1B1B0BED
S1135670BE01A7014E0F5F1F8191E60189936E0160
S113568098012E0F3F1FEB01888199812817390754
S113569080F35093C0074093BF078091BF07909158
S11356A0C007FD01EE56FF4F2081EC01CA5DD84FC3
S11356B0288302969093C0078093BF073297808116
S11356C0898380819181892B29F10091BF071091F1
S11356D0C007E054F109E801CA5DD84F0F5411091D
S11356E00A1B1B0B60EB7FEF6A1B7B0BA057BF4FA2
S11356F0A8014E0F5F1F819189939B012E0F3F1FBD
S11357008D919C9111972817390790F35093C007F6
S11357104093BF0760914510709146108BE490E16F
S11357200E94E3186091D7077091D80786E297E04A
S11357300E94001980E0DF91CF911F910F91FF909B
S1135740EF90DF90CF9008959F92AF92BF92CF9247
S1135750DF92EF92FF920F931F93CF93DF937C011D
S11357605B0109E012E0C0E0D0E06E01F801608165
S11357707181C7010E947034892B09F087C0F5013B
S11357808081833A91F5F601EE0FFF1FEE0FFF1FA4
S1135790EE0FFF1FEC19FD09E75FFD4F86818111B4
S11357A007C082EAF501808384E0818781E079C0C3
S11357B0F601EE0FFF1FEE0FFF1FEE0FFF1FEC1998
S11357C0FD09E75FFD4F4381548125816281C50155
S11357D0805B9F4FA1DB8093EB1082EAF50180830D
S11357E08091EB10818781E05CC0803AE9F4F60196
S11357F0EE0FFF1FEE0FFF1FEE0FFF1FEC19FD0949
S1135800E75FFD4FA501405B5F4F22816581838186
S1135810948152DB8093EB1082EAF50180838091BE
S1135820EB10818781E03DC0813AC1F5F1E1FC17BD
S113583030F18FEFC81AD80AE601CC0FDD1FCC0F68
S1135840DD1FCC0FDD1FCC19DD09C75FDD4F68817B
S11358507981C5010E960E942423A501405B5F4F08
S11358602A816D818B819C8127DB8093EB1082EAF6
S1135870F50180838091EB10818781E012C082EA78
S1135880F501808382E0818781E00BC02196095F66
S11358901F4FC331D10509F068CF02C081E001C0B8
S11358A080E0DF91CF911F910F91FF90EF90DF90F7
S11358B0CF90BF90AF909F9008950F931F93CF9375
S11358C0DF93CDB7DEB7C459D1090FB6F894DEBF64
S11358D00FBECDBFCE01019648DB8093F0119981B4
S11358E020E6290F223018F0933A09F066C09A8511
S11358F0911163C0811161C087E099E09F938F93F8
S11359008DB79EB7825491090FB6F8949EBF0FBE0F
S11359108DBFADB7BEB7119682E4FE013F960190EC
S11359200D928A95E1F70E94A1220FB6F894DEBF8A
S11359300FBECDBFBE016F5F7F4F87E099E004DFEC
S1135940813091F18981813A59F587E099E08FDAC4
S113595099230CF18C01000F111F000F111F000F70
S1135960111F081B190B075F1D4FF801608171811E
S1135970CE010F960E942423F8012281AE014F5AD2
S11359805F4F65818381948197DA8093EB1092EA6B
S113599099838A8709C082EA898382E08A8704C05E
S11359A082EA898382E08A87CE0101962CDD809188
S11359B0E2048F5F8093E20407C082EA898385E072
S11359C08A87CE0101961FDDCC56DF4F0FB6F894BF
S11359D0DEBF0FBECDBFDF91CF911F910F91089510
S11359E0CF9386E297E00E942603C82F87E297E0D0
S11359F00E9426032C2F30E0322F2227A901480FC2
S1135A00511DCA01CF91089560E181E097E00E94A1
S1135A10200481E097E00E9426038111FACF0895C3
S1135A201F93CF93DF93162FC42FD52F83E097E0D6
S1135A300E942603811101C0E7DF612F80E097E017
S1135A400E9420046D2F84E097E00E9420046C2FB4
S1135A5085E097E00E94200461E081E097E00E94E5
S1135A60200481E097E00E9426038111FACF83E0AD
S1135A7097E00E942603833119F0C6DF80E001C05D
S1135A8081E0DF91CF911F91089583E097E00E9418
S1135A9026038331A1F462E081E097E00E942004B0
S1135AA081E097E00E9426038111FACF83E097E01A
S1135AB00E942603843129F0A7DF80E0089580E066
S1135AC0089581E008958F929F92AF92BF92CF92F2
S1135AD0DF92EF92FF920F931F93CF93DF936C01AA
S1135AE07B016115710509F445C0613084E07807D4
S1135AF048F52EC02197C401977098580E94260338
S1135B00F80181938F01FFEF8F1A9F0A209791F775
S1135B10AE0CBF1CF601EE0DFF1D10826B2D88E24A
S1135B2097E00E9420046A2D89E297E00E942004F5
S1135B3060E481E097E00E9420048AE18A95F1F70D
S1135B4000C018C00F2EFEEFEF2EF3E0FF2EF02D55
S1135B5088E297E00E942603A82E89E297E00E943B
S1135B602603B12CBA2CAA24A80EB11C4501E701C6
S1135B708601C0CF81E090E0DF91CF911F910F911A
S1135B80FF90EF90DF90CF90BF90AF909F908F9059
S1135B90089568E081E097E00E94200481E097E0A6
S1135BA00E9426038111FACF0895AF92BF92CF923B
S1135BB0DF92EF92FF920F931F93CF93DF936C01C9
S1135BC07B016115710509F456C080E297E00E94DB
S1135BD02603C82FD0E0DC2FCC2781E297E00E9477
S1135BE02603C80FD11DCE15DF0508F45BC049C0DC
S1135BF08FE99FE00197F1F700C0000080E297E091
S1135C000E942603082F10E0102F002781E297E05E
S1135C100E9426039801280F311D2197209711F423
S1135C20B8DF58C02E153F0518F32BC02197C801C3
S1135C309770F60161916F01985A0E9420040F5FDA
S1135C401F4F209799F7EA0CFB1C6F2D84E297E015
S1135C500E9420046E2D85E297E00E94200460E2F9
S1135C6081E097E00E94200481E097E00E942603EF
S1135C708111FACF03C0C0E0D0E02CC0C1E0D0E075
S1135C8029C084E297E00E942603A82E85E297E0CB
S1135C900E942603B12CBA2CAA24A80EB11C85019B
S1135CA0E701C4CF8FE99FE00197F1F700C000003E
S1135CB080E297E00E942603C82FD0E0DC2FCC2797
S1135CC081E297E00E9426039E01280F311DC9EE50
S1135CD0D3E0A8CFCE01DF91CF911F910F91FF9018
S1135CE0EF90DF90CF90BF90AF9008959F92AF92C6
