S01A000045746865726E65745F746F5F53657269616C2E73726563CA
S1130000D8C10000F7C10000F5C10000F3C1000031
S1130010F1C10000EFC10000EDC10000EBC1000020
S1130020E9C10000E7C10000E5C10000E3C1000030
S1130030E1C100000C947C0BDDC10000DBC10000B9
S1130040D9C100000C945E09D5C10000D3C10000E1
S1130050D1C100000C944A0BCDC10000CBC10000FB
S1130060C9C100000C94BF170C9412180C94E91722
S1130070C1C10000BFC10000BDC10000BBC1000080
S1130080B9C10000B7C10000B5C10000B3C1000090
S11300900C943B180C948E180C946518ABC100009A
S11300A0A9C10000A7C100000C94B00BA3C10000BB
S11300B0A1C100009FC100009DC100009BC10000C0
S11300C099C1000097C1000095C10000BB0FBB0F90
S11300D08B108B1080121F118012801280128012DC
S11300E0801280128012801267110F12F313F3131F
S11300F0A914A914AA152D15AA15AA15AA15AA1585
S1130100AA15AA15AA15AA15751575153A344634F3
S1130110853494349F34A334B534E734FA340A353F
S1130120333533353335283533352D3500C0C101EA
S1130130C30302C2C60607C705C5C404CC0C0DCD53
S11301400FCFCE0E0ACACB0BC90908C8D81819D9C3
S11301501BDBDA1A1EDEDF1FDD1D1CDC14D4D515F3
S1130160D71716D6D21213D311D1D010F03031F1E3
S113017033F3F23236F6F737F53534F43CFCFD3D13
S1130180FF3F3EFEFA3A3BFB39F9F83828E8E92903
S1130190EB2B2AEAEE2E2FEF2DEDEC2CE42425E5B3
S11301A027E7E62622E2E323E12120E0A06061A123
S11301B063A3A26266A6A767A56564A46CACAD6DD3
S11301C0AF6F6EAEAA6A6BAB69A9A86878B8B97943
S11301D0BB7B7ABABE7E7FBF7DBDBC7CB47475B573
S11301E077B7B67672B2B373B17170B05090915163
S11301F09353529296565797559594549C5C5D9D93
S11302005F9F9E5E5A9A9B5B995958988848498982
S11302104B8B8A4A4E8E8F4F8D4D4C8C4484854532
S113022087474686824243834181804000C18140A2
S113023001C0804101C0804100C1814001C08041B2
S113024000C1814000C1814001C0804101C08041A2
S113025000C1814000C1814001C0804100C1814092
S113026001C0804101C0804100C1814001C0804182
S113027000C1814000C1814001C0804100C1814072
S113028001C0804101C0804100C1814000C1814062
S113029001C0804101C0804100C1814001C0804152
S11302A000C1814000C1814001C0804101C0804142
S11302B000C1814000C1814001C0804100C1814032
S11302C001C0804101C0804100C1814000C1814022
S11302D001C0804101C0804100C1814001C0804112
S11302E000C1814000C1814001C0804100C1814002
S11302F001C0804101C0804100C1814001C08041F2
S113030000C1814000C1814001C0804101C08041E1
S113031000C1814000C1814001C0804100C18140D1
S113032001C0804101C0804100C181402F0302010E
S113033045030202370302020000080000000F0810
S11303400008000000040900080000001001000477
S1130350000000460047000602B200B3001002A4E9
S113036000A8001C02C600C000C100C200C500C431
S113037000FE010302040205024203FFA001FBCFB9
S1130380007D67003F44002A33001F22001B190030
S11303901B10001B7B0B200090122000A4123A00BB
S11303A0BC0C5000016364696E6F70737578585BA0
S11303B0000011241FBECFEFD1E2DEBFCDBF00E0AD
S11303C00CBF16E0A0E0B2E0EAE1F8E700E00BBF02
S11303D002C007900D92AC3BB107D9F725E1ACEB15
S11303E0B6E001C01D92A831B207E1F70E941A37A6
S11303F00C940B3C05CEFC018081089592B184E0FD
S1130400892782B9089508950895089582E084BDE6
S113041085EF85BDEEE6F0E08081826080830895FB
S113042082E08093B00087EF8093B100E0E7F0E0D2
S113043080818260808308951092A0008DE0809373
S1130440A100E2E7F0E080818260808308950C944B
S1130450513B0895282F30E0F901EE0FFF1FE20F02
S1130460F31FE45DFC4F25913491E82FF0E0E45153
S1130470F64F8081A90164E0869F400D511D11242F
S1130480CA010895282F30E044E1849FF00111242B
S1130490E959FC4FA591B4919C91F901E75BF54FA3
S11304A0408151E0540F508354E1529FF001539F17
S11304B0F00D1124EB59FC4FA591B4915C91F22FEE
S11304C0EE27E40FF11DE55EFC4E508393FF0FC051
S11304D0F901E295F295F07FFE27E07FFE27E458CC
S11304E0FD4E268537852F5F3F4F378726879C71C2
S11304F071F021E030E0A90102C0440F551F8A9534
S1130500E2F7CA019091F006892B8093F0060895D2
S11305100F931F93CF93DF93C82FD0E0FE01E250D7
S1130520F64F9081923009F1FE01E295F295F07F49
S1130530FE27E07FFE27E456FC4F059114918ADFE5
S11305400196FC0185919491CF50D64F2881FC01EE
S113055037E0239FE00DF11D112435968591949188
S1130560880F991F800F911F0AC0CC0FDD1FCC0F7D
S1130570DD1FCC0FDD1FC851D94F8E819F81DF91C4
S1130580CF911F910F910895E3E5F3E02591349104
S11305908217930799F060E06F5F262F30E0F9012E
S11305A0EE0FFF1FE20FF31FEE0FFF1FED5AFC4F7C
S11305B0459154918417950779F703C020E030E002
S11305C060E0E62FF0E0EC55FC4FE491EE2319F0E7
S11305D0E13079F10895F22FEE27E55EFC4E90812B
S11305E0F901E752F64F808198130FC040916B12C6
S11305F081E090E0BC0102C0660F771F2A95E2F704
S11306009B01242B20936B120895F901E952F74FB3
S113061081E08083F901E295F295F07FFE27E07F87
S1130620FE27E458FD4E8081918101969183808359
S1130630089540916B1281E090E0BC0102C0660F06
S1130640771F2A95E2F79B01242B20936B120895C0
S11306508EBD00000DB407FEFDCF8EB50895CF9377
S1130660DF93C82FD92F28988FE0F2DF8D2FF0DF8A
S11306708C2FEEDF80E0ECDF289ADF91CF91089594
S1130680CF92DF92EF92FF920F931F93CF93DF935A
S1130690EC016A0141155105B1F0062F172F7C01B9
S11306A0E40EF51E28988FE0D3DF8D2FD1DF8C2F39
S11306B0CFDF219680E0CCDFF80181938F01289A67
S11306C0CE15DF0579F7C601DF91CF911F910F9108
S11306D0FF90EF90DF90CF900895CF92DF92EF924A
S11306E0FF920F931F93CF93DF93EC016A0141159F
S11306F05105A9F0062F172F7C01E40EF51E28984A
S113070080EFA6DF8D2FA4DF8C2FA2DF2196F801C6
S113071081918F019DDF289ACE15DF0581F7C601EF
S1130720DF91CF911F910F91FF90EF90DF90CF90C9
S11307300895EF92FF920F931F93259A2D9A2D9867
S11307402FEF83EC99E0215080409040E1F700C006
S113075000006C9A74982FEF83EC99E0215080404C
S11307609040E1F700C000006C982FEF83EC99E013
S1130770215080409040E1F700C0000080E090E408
S113078090935E0E80935D0E80E090E69093CB098B
S11307908093CA0980E098E49093600E80935F0E82
S11307A080E098E69093CD098093CC0980E090E5B1
S11307B09093620E8093610E80E090E79093CF094E
S11307C08093CE0980E098E59093640E8093630E45
S11307D080E098E79093D1098093D00960E880E0A5
S11307E090E037D065E58BE190E033D065E58AE1B0
S11307F090E02FD06894EE24E1F8F12C0EED10E097
S11308002CEC30E04BEB50E06AEA70E080E090E0E2
S113081051D02CE430E040E050E060E070E08AE049
S113082090E06FD02EEF30E040E050E060E070E008
S11308308AE090E081D020E030E04FEF50E06FEFAD
S113084070E08FEF90E093D01F910F91FF90EF90A5
S113085008951F93CF93DF93D82F192FC62F28986D
S113086080EFF6DE812FF4DE8D2FF2DE8C2FF0DEAA
S1130870833011F0289A5DDF289A81E0DF91CF91CF
S11308801F9108951F93CF93DF93C82FD0E0DC2FDF
S1130890CC27CF5FDB4FCE01DCDF10E001C01F5F50
S11308A0CE01DDDE882311F01F3FC9F7DF91CF9120
S11308B01F910895EF920F931F93CF93DF93162FF9
S11308C0D42FC22F682F89E090E0C3DF612F8AE024
S11308D090E0BFDF6D2F8BE090E0BBDF6C2F8CE0EE
S11308E090E0B7DF602F8DE090E0B3DF6E2D8EE0F7
S11308F090E0AFDF81E0DF91CF911F910F91EF90F6
S113090008951F93CF93DF93162FD42FC22F682FF0
S11309108FE090E09EDF612F80E190E09ADF6D2F01
S113092081E190E096DF6C2F82E190E092DF81E03C
S1130930DF91CF911F9108951F93CF93DF93162FCB
S1130940D42FC22F682F81E090E083DF612F82E0F3
S113095090E07FDF6D2F83E090E07BDF6C2F84E0FD
S113096090E077DF81E0DF91CF911F9108951F938D
S1130970CF93DF93162FD42FC22F682F85E090E0FA
S113098068DF612F86E090E064DF6D2F87E090E000
S113099060DF6C2F88E090E05CDF81E0DF91CF9135
S11309A01F91089590E00496982F8827860F971F2B
S11309B056CE08951F93CF93DF93182F60E270E013
S11309C0F1DFC82FD0E061E270E0812FEBDFDC2F94
S11309D0CC279E01282BC901DF91CF911F91089547
S11309E01F93CF93DF93182F66E270E0DBDFC82FED
S11309F0D0E067E270E0812FD5DFDC2FCC279E01A9
S1130A00282BC901DF91CF911F9108959B0190E09C
S1130A100496982F8827642F820F931F1ACF089566
S1130A20882341F08091D506813041F018F082305E
S1130A30C1F024C081E08093D50620C0462F61E038
S1130A4070E080E0E3DF61E070E080E0ABDF88230A
S1130A5021F082E08093D50611C08FEF8093D506F4
S1130A600DC061E070E080E09DDF882321F082E02A
S1130A708093D50603C08FEF8093D5068091D50669
S1130A800895882341F08091D406813041F018F014
S1130A908230C1F024C081E08093D40620C0462F68
S1130AA061E070E081E0B2DF61E070E081E07ADF74
S1130AB0882321F082E08093D40611C08FEF8093C5
S1130AC0D4060DC061E070E081E06CDF882321F082
S1130AD082E08093D40603C08FEF8093D406809184
S1130AE0D4060895882341F08091D306813041F0E3
S1130AF018F08230C1F024C081E08093D30620C076
S1130B00462F61E070E082E081DF61E070E082E026
S1130B1049DF882321F082E08093D30611C08FEF50
S1130B208093D3060DC061E070E082E03BDF882350
S1130B3021F082E08093D30603C08FEF8093D30625
S1130B408091D3060895CF93C82F692F80E194E054
S1130B5080DE6C2F81E194E07CDECF910895CF9309
S1130B60DF93EC0168818CE094E073DE69818DE0B1
S1130B7094E06FDE6A818EE094E06BDE6B818FE03F
S1130B8094E067DEDF91CF910895CF93C82F692F4A
S1130B9080E195E05EDE6C2F81E195E05ADECF9135
S1130BA00895CF93DF93EC0168818CE095E051DEEA
S1130BB069818DE095E04DDE6A818EE095E049DE45
S1130BC06B818FE095E045DEDF91CF910895CF935F
S1130BD0C82F692F80E196E03CDE6C2F81E196E01E
S1130BE038DECF910895CF93DF93EC0168818CE0D8
S1130BF096E02FDE69818DE096E02BDE6A818EE03F
S1130C0096E027DE6B818FE096E023DEDF91CF91C3
S1130C1008959F92AF92BF92CF92DF92EF92FF928C
S1130C200F931F93CF93DF93982E5B017A01E90111
S1130C3064E270E0B7DEC82ED12C65E270E0892D45
S1130C40B1DE1C2D0027082B0A0D1B1D98013770DF
S1130C50C92CD12CF601EE0FFF1FE35AF14F80810E
S1130C609181820F931FA9014C0F5D1F41305840A1
S1130C70B8F040E058E05A01A21AB30AA501B7013E
S1130C802CDDAE014A195B09B7016A0D7B1DF60123
S1130C90EE0FFF1FE35AF14F808191811EDD03C0E7
S1130CA0AE01B7011ADDC00FD11F4D2F64E270E011
S1130CB0892DACDE4C2F65E270E0892DA7DEDF9133
S1130CC0CF911F910F91FF90EF90DF90CF90BF9045
S1130CD0AF909F900895DF92EF92FF920F931F932E
S1130CE0CF93DF93D82E0FEF1FEFE12CF12C8D2D36
S1130CF061DEEC01009719F08D2D5CDE7C01EC16B1
S1130D00FD0629F0015011090115110581F7C701EC
S1130D10DF91CF911F910F91FF90EF90DF90089595
S1130D20DF92EF92FF920F931F93CF93DF93D82E0E
S1130D308B017A01E901CFDF8C179D0718F48D2D03
S1130D40CADFEC019E01A701B8018D2D62DFCE013F
S1130D50DF91CF911F910F91FF90EF90DF90089555
S1130D6020E3FC0120833296862F82958F7090E1D8
S1130D70899F601911246A3010F4605D01C0695CB8
S1130D806293882311F0682FEFCF08958FB780788E
S1130D908093D408F8948091D40808958091D4085D
S1130DA0882309F078948091D4080895A8952FE0B9
S1130DB088E190E00FB6F894A895809360000FBE88
S1130DC02093600008958091730391E0980F9093AD
S1130DD0730308958091720391E0980F90937203C6
S1130DE00895CF93DF93C82FD62FD0DFEC2FF0E0F8
S1130DF0EC58F74FD083DD23A9F0EC2FE695E69568
S1130E00E695F0E0EA5FF84F4081C77021E030E0FA
S1130E10C90102C0880F991FCA95E2F780958423FF
S1130E20808313C0EC2FE695E695E695F0E0EA5F43
S1130E30F84F4081C77021E030E0C90102C0880F3B
S1130E40991FCA95E2F7842B8083A8DFDF91CF91A5
S1130E5008951F93CF93DF93182FEB0197DFE12FB2
S1130E60F0E0EE0FFF1FEC54F84FD183C083CD2B7D
S1130E70A9F0E12FE695E695E695F0E0E750F94F05
S1130E804081177021E030E0C90102C0880F991F2A
S1130E901A95E2F780958423808313C0E12FE695A9
S1130EA0E695E695F0E0E750F94F4081177021E0B0
S1130EB030E0C90102C0880F991F1A95E2F7842B0C
S1130EC080836CDFDF91CF911F910895282F30E04C
S1130ED0F901EE0FFF1FEE0FFF1FEE51F94F1082C5
S1130EE0118212821382F901E753F64F608194E66E
S1130EF0699FB00111249091E1069F5F890FA9CFEA
S1130F0008952F923F924F925F926F927F928F92A9
S1130F109F92AF92BF92CF92DF92EF92FF920F9384
S1130F201F93CF93DF93382E90E0FC01EE0FFF1F49
S1130F308E0F9F1FFC01E25DFC4F4490512CB12C9D
S1130F40032D10E0E801C451D64FC801880F991F42
S1130F509C012858344F3901FC01EF5EF54F6F01B5
S1130F60C801880F991F880F991F9C012E51394F72
S1130F704901780188818F5F8883841123C0188296
S1130F802090E10623942394230C00DFE22DF0E06B
S1130F90EE0FFF1FEC54F84FA080B180FFDEA09449
S1130FA0B094F301B182A082F601808191818A1507
S1130FB09B0510F4B182A0826FEF7FEF822D49DF91
S1130FC0BB24B394F40180819181A281B381088010
S1130FD004C0B695A795979587950A94D2F780FF94
S1130FE003C05394541428F2541012C0832D6EDF9E
S1130FF0F701E451F64F80818F5F581629F0F7010D
S1131000E451F64F808304C0F701E451F64F108297
S1131010F701EF50F64F10828B2DDF91CF911F9186
S11310200F91FF90EF90DF90CF90BF90AF909F9083
S11310308F907F906F905F904F903F902F90089586
S11310400F931F93CF93DF93E82FF0E0DF01A250BB
S1131050B64F9C91923021F4FD01108280E058C07B
S1131060DF01A295B295B07FBA27A07FBA27A45812
S1131070BD4E18962D913C9119972F5F3F4F1996AD
S11310803C932E931897DF01AA51B94F9C919F5F0F
S11310909C93DF01AC5BB54F2C91921338C0DF01F8
S11310A0A451B64F41E050E060E070E00C9004C001
S11310B0440F551F661F771F0A94D2F7DF01AA0F4A
S11310C0BB1FAA0FBB1FED01C459DD4E0881198156
S11310D02A813B81042B152B262B372B088319835C
S11310E02A833B83AE51B94F0D911D912D913C91B3
S11310F01397402B512B622B732B4D935D936D9360
S11311007C931397EA51F94F1082FBDE01C080E013
S1131110DF91CF911F910F910895CF92DF92EF92BB
S1131120FF92CF93C82F6A017B0130DEEC2FF0E0F1
S1131130EE0FFF1FEE0FFF1FEC5EF84FC082D1824F
S1131140E282F382CD28CE28CF28A9F0EC2FE695B1
S1131150E695E695F0E0ED50F94F4081C77021E047
S113116030E0C90102C0880F991FCA95E2F7809543
S11311708423808313C0EC2FE695E695E695F0E092
S1131180ED50F94F4081C77021E030E0C90102C041
S1131190880F991FCA95E2F7842B8083FFDDCF91D6
S11311A0FF90EF90DF90CF900895CF93C82FEEDD9E
S11311B0EC2FE695E695E695F0E0E750F94F2081AF
S11311C030E08C2F877002C0359527958A95E2F719
S11311D020FF0DC0EC2FF0E0EE0FFF1FEC54F84F92
S11311E020813181C1E0232B19F0C0E001C0C0E0AF
S11311F0D5DD8C2FCF910895CF93C82FC7DDEC2F69
S1131200E695E695E695F0E0ED50F94F208130E063
S11312108C2F877002C0359527958A95E2F720FFB9
S113122013C0EC2FF0E0EE0FFF1FEE0FFF1FEC5E7C
S1131230F84F4081518162817381C1E0452B462B77
S1131240472B19F0C0E001C0C0E0A8DD8C2FCF917E
S11312500895ACDD109280008AEE8093810080E2D4
S11312609EE49093890080938800EFE6F0E080810B
S11312708260808380E090E02FEFFC01EA5FF84F0A
S1131280208301968C309105C1F780E090E02FEF28
S1131290FC01E750F94F208301968D309105C1F789
S11312A08FEF8093F3068093F4068093F506809382
S11312B0F6068093F7068093F80608951F920F921E
S11312C00FB60F9211240BB60F922F933F934F93A7
S11312D05F936F937F938F939F93AF93BF93EF939A
S11312E0FF938091F1068F5F8093F10680E090E098
S11312F061E070E0282F26952695269530E0F901C7
S1131300EE5EF84F4081A82FA77050E00A2E02C06D
S1131310559547950A94E2F740FD14C0FC01E45347
S1131320F74F40814150408341110CC0F901EE5EFA
S1131330F84F40819B0102C0220F331FAA95E2F7A8
S1131340242B2083019688309105A1F68091D6063E
S11313509091D706A091D806B091D9060196A11D07
S1131360B11D8093D6069093D706A093D806B09368
S1131370D906FF91EF91BF91AF919F918F917F918A
S11313806F915F914F913F912F910F900BBE0F90F2
S11313900FBE0F901F901895FF920F931F93CF933A
S11313A0DF93F894F090F1061092F1067894FF2000
S11313B009F4D2C010E040E050E021E030E0809138
S11313C0810B9091820BA091830BB091840B0196B9
S11313D0A11DB11D8093810B9093820BA093830B6D
S11313E0B093840BCA01F894682F66956695669548
S11313F070E0FB01EA5FF84FE081A82FA770F0E0EE
S11314000A2E02C0F595E7950A94E2F7E0FD14C0B0
S1131410FC01EC58F74FB081B150B083B1110CC04E
S1131420FB01EA5FF84FB081B90102C0660F771F74
S1131430AA95E2F76B2B6083789401968835910521
S113144091F6CA01F894682F66956695669570E0E2
S1131450FB01E750F94FE081C82FC770F0E00C2E74
S113146002C0F595E7950A94E2F7E0FD1AC0DC01A5
S1131470AA0FBB1FAC54B84FED91FC911197319753
S11314801196FC93EE93EF2B61F4FB01E750F94FB7
S1131490A081B90102C0660F771FCA95E2F76A2BD3
S11314A06083789401968036910561F6BA01F894C8
S11314B0E62FE695E695E695F0E0DF01AD50B94FED
S11314C08C91062F077090E0002E02C095958795A9
S11314D00A94E2F780FD21C0EB01CC0FDD1FCC0F95
S11314E0DD1FCC5ED84F88819981AA81BB81019789
S11314F0A109B10988839983AA83BB83892B8A2B89
S11315008B2B59F4ED50F94FA081C90102C0880F0B
S1131510991F0A95E2F78A2B808378946F5F7F4F37
S11315206832710521F68091D2068F5F843619F0F6
S11315308093D2060EC01092D2068091740B9091C3
S1131540750B9093870B8093860B5093750B409388
S1131550740B1F5F1F1133CFDF91CF911F910F9138
S1131560FF900895A8958091740B9091750B019646
S11315709093750B8093740B8091F206E82FF0E042
S1131580EC58F74F9081909590934A0A2091000A65
S1131590291710F49093000A6FEF23CC08954F920B
S11315A05F926F927F92AF92BF92CF92DF92EF924F
S11315B0FF920F931F93CF93DF93EC015B012901FB
S11315C03A012115310541055105F1F0C12CD12C09
S11315D07601C5018C0D9D1DFE0119958027282FCC
S11315E030E0F901E45DFD4F04910127F901E45D68
S11315F0FE4F1491FFEFCF1ADF0AEF0AFF0AC4145B
S1131600D504E604F70429F7802F90E0912BDF91AD
S1131610CF911F910F91FF90EF90DF90CF90BF90EB
S1131620AF907F906F905F904F9008950F931F93AA
S11316300FEF1FEFB4DF1F910F9108950F931F93C6
S11316402CE030E040E050E060E070E087E292E0BF
S1131650EDDF2BEF3FE02C50304040E050E08C01B8
S113166061E170E087E292E09ADF1F910F910895A3
S113167080915C0E81FD06C0E1DFBC018EE090E04C
S11316800C946C3B08950E945E3BF2CF08950A9A35
S1131690129808951F920F920FB60F9211240BB651
S11316A00F922F933F934F935F936F937F938F93F7
S11316B09F93AF93BF93EF93FF9385B5887F85BDC9
S11316C0EEE6F0E080818D7F808386E490E00E94E6
S11316D0C402FF91EF91BF91AF919F918F917F9140
S11316E06F915F914F913F912F910F900BBE0F908F
S11316F00FBE0F901F9018951F920F920FB60F9266
S113170011240BB60F922F933F934F935F936F93D4
S11317107F938F939F93AF93BF93EF93FF93E1EBEB
S1131720F0E08081887F8083E0E7F0E080818D7F36
S1131730808382EB90E00E94C402FF91EF91BF91FD
S1131740AF919F918F917F916F915F914F913F9155
S11317502F910F900BBE0F900FBE0F901F901895F6
S11317601F920F920FB60F9211240BB60F922F9364
S11317703F934F935F936F937F938F939F93AF9315
S1131780BF93EF93FF93E1EAF0E08081887F808349
S1131790E2E7F0E080818D7F808384EA90E00E941C
S11317A0C402FF91EF91BF91AF919F918F917F916F
S11317B06F915F914F913F912F910F900BBE0F90BE
S11317C00FBE0F901F901895FF920F931F93CF9306
S11317D0DF93C82FD0E08E01000F111F0C0F1D1FC7
S11317E0C8018B5F9F4F0E94513BF82E0A5F1F4F29
S11317F0C8010E94513BF11004C0813039F09EE8C9
S113180008C091E0F91621F096EB03C096E801C0F8
S113181096EA24E12C9FF0012D9FF00D1124E55947
S1131820FC4FA591B4919F779C93FF2029F08130C0
S113183019F061E0C80127DFDF91CF911F910F916B
S1131840FF900895CF93DF93C82FD0E0CE01880F87
S1131850991F8C0F9D1F895F9F4F0E94513BFE0172
S1131860EB57F44F808390E09C01220F331F820FCB
S1131870931F87589C4F24E12C9FF0012D9FF00D5E
S11318801124E159FC4FA591B491FC0124912C93AE
S113189024E12C9FF0012D9FF00D1124E359FC4FFE
S11318A0A591B491FC013196E491EC93FE01EE0F05
S11318B0FF1FCE0FDF1FFE01EE0FFF1FEB5AFC4F81
S11318C0A591B491FC01329684918C93DF91CF91D0
S11318D00895CF93DF93C82FD0E0FE01E952F74F6C
S11318E083E0808384E18C9FF0018D9FF00D1124AF
S11318F0EF58FC4F85919491FC01199584E18C9FDC
S1131900F0018D9FF00D1124EB59FC4FA591B4917A
S1131910FC2FEE27E55EFC4E80818C9384E18C9F46
S1131920F0018D9FF00D1124E959FC4FA591B4915C
S11319308C9180648C9384E18C9FF0018D9FF00DD9
S11319401124E759FC4FA591B4918C9180628C933A
S1131950DF91CF910895CF93DF93E5E6F3E02591EE
S113196034918217930791F040E054E14F5FC42F04
S1131970D0E05C9FF0015D9FF00D1124EB59FC4F0A
S1131980259134918217930789F703C0C0E0D0E012
S113199040E0FE01E952F74F2081223009F449C0AA
S11319A028F4222339F02130D1F056C0263008F42F
S11319B051C052C0FC018081FC2FEE27E55EFC4E35
S11319C08083FE01EE0FFF1FCE0FDF1FFE01EE0F1F
S11319D0FF1FED5AFC4FA591B4911C923DC0FE012E
S11319E0E952F74F82E0808321E030E00C2E02C000
S11319F0220F331F0A94E2F720958091F0062823E2
S1131A002093F006FE01E75BF54F1082842F0E94BD
S1131A104202CE01880F991FC80FD91FCE01880F2B
S1131A20991F895A9C4FFC0125913491F90119950C
S1131A3013C0842F0E944202FE01EE0FFF1FCE0F3F
S1131A40DF1FFE01EE0FFF1FED5AFC4FA591B4916D
S1131A501C9202C0FC018081DF91CF910895EF9226
S1131A60FF921F93CF93DF93C82FD0E0FE01E75B73
S1131A70F54F20814091F00650E0BA0102C07595FF
S1131A8067958A95E2F760FD1AC02330D0F02250A2
S1131A907C2F6627655E7C4EFB01E20FF11DE08022
S1131AA0F18030E040E050E08BEF91E0BFDD11E0E9
S1131AB0E816F90609F410E01123F9F003C011E067
S1131AC001C011E0FE01E295F295F07FFE27E07F70
S1131AD0FE27E458FD4E828193810196938382838D
S1131AE084E18C9FF0018D9FF00D1124EB58FC4F85
S1131AF085919491FC0119951BC0FE01E295F29524
S1131B00F07FFE27E07FFE27E458FD4E20813181DF
S1131B102F5F3F4F3183208384E18C9FF0018D9FA1
S1131B20F00D1124E958FC4F25913491F9011995D0
S1131B30812FDF91CF911F91FF90EF900895CF9364
S1131B40DF93682F70E0FB01E75BF54F20812250A3
S1131B50762F6627655E7C4EEB01C20FD11D30E007
S1131B6040E050E08BEF91E061DD99838883DF9161
S1131B70CF910895282F30E070E0322F2227F90109
S1131B80E55EFC4EE60FF71F8181620F731FFB01B8
S1131B90E55EFC4E208190E0922B0895CF92DF9277
S1131BA0EF92FF920F931F93CF93DF93F82EC82FDA
S1131BB0D0E0FC2FEE27E55EFC4E8181863081F07B
S1131BC020F48150843038F0E7C08F30D9F0803170
S1131BD009F4B3C0E1C0C75BD54F88E08883DCC09B
S1131BE0FE01E75BF54F88E080838F2D0E94880219
S1131BF0DC2FCC27C55EDC4EFC0121812C83808147
S1131C008D83CAC064E08F2DB5DF8C0196958795CE
S1131C10969587959695879598012770332741E087
S1131C20232B09F440E0242F280FFC2FEE27E55E38
S1131C30FC4E2683DE01A75BB54F275F2C93E80F8C
S1131C40F91F1782FE01E250F64F8081823009F1BC
S1131C50FE01E295F295F07FFE27E07FFE27EC5629
S1131C60FC4FC590D4908F2D0E942A020196FC014E
S1131C7085919491FE01EF50F64F2081FC0137E0ED
S1131C80239FE00DF11D1124359685919491B82F71
S1131C900CC0FE01EE0FFF1FEE0FFF1FEE0FFF1F24
S1131CA0E851F94FC680D780B0E00115110509F459
S1131CB073C0A0E061E070E0DC2FCC278A2F8B0F8B
S1131CC09A2F9695969596950F2EF7E0EF2EF02D78
S1131CD0E90E2A2F2770AB0102C0440F551F2A9525
S1131CE0E2F79A01982F969596959695F601E90F45
S1131CF0F11D408150E08770FA0102C0F595E79527
S1131D008A95E2F7E0FF09C0FE01EE0DF11DE55EE4
S1131D10FC4E8081282B208309C0FE01EE0DF11DAD
S1131D20E55EFC4E2095808128232083AF5F2A2F17
S1131D3030E02017310710F22FC01C2F0027055E5A
S1131D401C4EF8018581880F8683FE01E75BF54F01
S1131D50875F80838F2D0E948802F80125812223CA
S1131D60D9F040E0E80198012B5F3F4F542F550F05
S1131D70A42FB0E0AA0FBB1FA80FB91FFE01E50FE7
S1131D80F11D11965C91119757835C9150874F5FB9
S1131D90F9015081451750F38F2DD1DEDF91CF919A
S1131DA01F910F91FF90EF90DF90CF900895CF9304
S1131DB0C82F0E942A02BC01FC013196459154911E
S1131DC02C2F30E0F901EF50F64F808197E0899F86
S1131DD0400D511D1124FB016491F22FEE27E55EA5
S1131DE0FC4E6083FA018491F22FEE27E55EFC4EEF
S1131DF08183FA013296E491B22FAA27A55EBC4EE4
S1131E001296EC93FA013196E491B22FAA27A55EBB
S1131E10BC4E1396EC93FA013496E491B22FAA27A0
S1131E20A55EBC4E1496EC93FA0133964491B22FFE
S1131E30AA27A55EBC4E15964C938C2FAFDECF918E
S1131E400895282F30E0F22FEE27E55EFC4ED901ED
S1131E50AA0FBB1FAA0FBB1FAA0FBB1FA851B94FC4
S1131E609C91908311969C911197918312969C91C9
S1131E70129713964C9113974283938314969C91D3
S1131E80149715964C9144839583F901E250F64FCB
S1131E9092E0908383CE08956F927F928F929F9267
S1131EA0AF92BF92CF92DF92EF92FF920F931F9364
S1131EB0CF93DF93D82EC82FD0E0FE01E952F74F1D
S1131EC08081882319F0823031F06FC3C952D74F13
S1131ED081E088836AC384E0FE01E952F74F80837E
S1131EE08D2DBDDD882329F0C952D74F81E0888329
S1131EF05CC3FC2FEE27E55EFC4E8081882359F0FD
S1131F00FE01E752F64F9081891729F0C952D74F45
S1131F1081E088834AC384E18C9F80018D9F100DEA
S1131F2011240D581C4FF80125913491F90119958C
S1131F30FE01E295F295F07FFE27E07FFE27E4584C
S1131F40FD4E8681978101969783868362E08D2D6D
S1131F5011DE7C01FC2FEE27E55EFC4EC1808C2D4A
S1131F6090E0FC013197E031F10508F0C9C2EA596B
S1131F70FF4F0C944F37FC2FEE27E55EFC4E80811B
S1131F80882309F4C1C0FE01E75BF54F80818830E6
S1131F9059F0FC2FEE27E55EFC4E83E082830F2E82
S1131FA0F3E0FF2EF02DB6C264E08D2DE3DDAC012D
S1131FB08E0D9F1DF1E0CF120FC0FE01E295F29548
S1131FC0F07FFE27E07FFE27EA56FC4F25913491EF
S1131FD02817390778F018C0FE01E295F295F07FD2
S1131FE0FE27E07FFE27E656FC4F25913491281703
S1131FF03907B0F4FC2FEE27E55EFC4E82E08283C5
S11320006894FF24F1F886C2FE01E295F295F07F10
S1132010FE27E07FFE27EC56FC4FA591B4910BC040
S1132020FE01E295F295F07FFE27E07FFE27E85659
S1132030FC4FA591B49121E0CA0187709927892B9F
S113204009F420E0CA01969587959695879596950B
S11320508795820FFC2FEE27E55EFC4E8283FE01FE
S1132060E75BF54F8B5F80834115510509F44FC041
S1132070C12C20E030E081E090E0BC2EAA242E0D9B
S11320803F1D6C2D6695669566950F2EF3E09F2E89
S1132090F02D960EEC2DE7703C0102C0660C771C07
S11320A0EA95E2F7B9017695679576956795769501
S11320B067956A0F7B1FFB01608170E027703327EF
S11320C0FB0102C0F595E7952A95E2F7E0FF0AC007
S11320D09501290D311D255E3C4EF901608166296B
S11320E060830AC09501290D311D255E3C4E609424
S11320F0F901608166216083C3942C2D30E024179C
S1132100350708F4BCCF05C0FF24FA9403C2F12CB0
S113211001C2F12CFFC1FC2FEE27E55EFC4E80814D
S1132120882309F485C0FE01E75BF54F8081883080
S113213059F0FC2FEE27E55EFC4E83E082830F2EE0
S1132140F3E0FF2EF02DE6C1FC2FEE27E55EFC4EFA
S11321504581C701840F911DF3E0CF120FC0FE012A
S1132160E295F295F07FFE27E07FFE27E256FC4FD2
S1132170259134912817390778F018C0FE01E295AB
S1132180F295F07FFE27E07FFE27EE55FC4F259168
S1132190349128173907B0F4FC2FEE27E55EFC4E86
S11321A082E082836894FF24F1F8B4C1FE01E295D1
S11321B0F295F07FFE27E07FFE27E456FC4F8591E1
S11321C094910BC0FE01E295F295F07FFE27E07F2B
S11321D0FE27E056FC4F85919491EE0CFF1C8E0D6A
S11321E09F1D440FBC2FAA27A55EBC4E12964C938C
S11321F01297FE01E75BF54F4B5F408315966C9198
S113220015976623C1F0FC0140E09D01542F550F42
S11322107901E50EF11C5181D70113965C938081FD
S11322203296D70114968C934F5F4613EFCF05C0B7
S1132230FF24FA946FC1F12C6DC1F12C6BC1FE0126
S1132240E75BF54F8081883059F0FC2FEE27E55E7F
S1132250FC4E83E082830F2EF3E0FF2EF02D5AC153
S1132260FE01E295F295F07FFE27E07FFE27E2561D
S1132270FC4F8591949197012F5F3F4F82179307ED
S113228050F4FC2FEE27E55EFC4E82E082836894D6
S1132290FF24F1F83FC188E0FE01E75BF54F80833E
S11322A0FE01E295F295F07FFE27E07FFE27E456DB
S11322B0FC4F85919491EE0CFF1CE80EF91E64E02E
S11322C08D2D58DCF70191838083F12C23C164E0C8
S11322D08D2D50DCFC2FEE27E55EFC4EA681FE0121
S11322E0E75BF54F408150E02A2F30E0275F3F4FF6
S11322F042175307B9F421E030E0BC016770772737
S1132300672B11F420E030E0BC0176956795769553
S1132310679576956795260F371F4A2F50E0241747
S1132320350759F0FC2FEE27E55EFC4E83E08283EF
S11323300F2EF3E0FF2EF02DEDC0FE01E295F29595
S1132340F07FFE27E07FFE27EA56FC4F259134916B
S1132350AC014E0D5F1D2417350750F4FC2FEE27FA
S1132360E55EFC4E82E082836894FF24F1F8D2C0DB
S1132370FE01E295F295F07FFE27E07FFE27EC5602
S1132380FC4F2591349148E0FE01E75BF54F408313
S1132390C12CE1E0F0E07C2F6627AB01455E5C4E8A
S11323A03A0136C0DA01AE0DBF1DAD015695479511
S11323B05695479556954795A770BB275F0102C070
S11323C0AA0CBB1CAA95E2F7AC2DA695A695A695DA
S11323D0B3016A0F711DDB011796AC91B0E07C2D3F
S11323E07770072E02C0B595A7950A94E2F7A0FF6F
S11323F007C0D901A40FB51F4C91A42AAC9207C001
S1132400D901A40FB51FA0944C914A214C93C394B5
S11324104C2D50E04817590728F2F12C7BC0FC2FB3
S1132420EE27E55EFC4E868190E0FE01E75BF54F0A
S1132430408150E09C01275F3F4F4217530761F4EE
S1132440FC2FEE27E55EFC4E4581242F30E0220F61
S1132450331F8217930759F0FC2FEE27E55EFC4EDD
S113246083E082830F2EF3E0FF2EF02D53C0FE0194
S1132470E295F295F07FFE27E07FFE27E256FC4FBF
S1132480859194919701240F311D8217930750F47D
S1132490FC2FEE27E55EFC4E82E082836894FF24E5
S11324A0F1F838C088E0FE01E75BF54F8083FE0158
S11324B0E295F295F07FFE27E07FFE27E456FC4F7D
S11324C085909490C12C9C2F8827DC01A05EBC4E83
S11324D03D0110C05701AC0CB11CAA0CBB1CA80CCC
S11324E0B91C6C2D660F695F8D2D44DBF50191835A
S11324F08083C394D3018C91C81660F3F12C0AC075
S1132500FC2FEE27E55EFC4E81E082838081811101
S11325100BC01CC0FC2FEE27E55EFC4E8081882397
S113252099F0FF2079F002C0FF24F394FC2FEE27EA
S1132530E55EFC4E81818068818385E0FE01E75B76
S1132540F54F80838D2DFBDAFF2071F0FE01E295BB
S1132550F295F07FFE27E07FFE27E458FD4E84814C
S11325609581019695838483FC2FEE27E55EFC4ECE
S11325708081882319F08D2DACD917C0FE01E29516
S1132580F295F07FFE27E07FFE27E458FD4E80851C
S11325909185019691878087C952D74F81E08883BE
S11325A0F80185919491FC011995DF91CF911F91C8
S11325B00F91FF90EF90DF90CF90BF90AF909F90DE
S11325C08F907F906F90089524E1829FC001112421
S11325D0FC01ED58FC4F85919491FC0119950895E7
S11325E0CF93DF93C82FD0E0CE01885F9F4F0E9426
S11325F0513BC752D64F8883DF91CF9108950F93F3
S11326001F93CF93DF93C82FD0E08E01000F111FCB
S1132610000F111F0C0F1D1FC801805090400E9415
S1132620593BFE01EE0FFF1FE450F64F9183808368
S1132630C8018E5F9F4F0E94513BFE01E659FD4E3B
S11326408083C8018D5F9F4F0E94513BFE01EC5B6C
S1132650F54F8083C8018C5F9F4F0E94513BC75345
S1132660D64F88838091710393E0980F9093710300
S11326708093E106DF91CF911F910F91089507D8C0
S11326801092D708E7E6F3E0A591B4918CEF8C9310
S1132690E9E6F3E0A591B49188E98C9380E094D8BD
S11326A080E0D0D8E4EAF3E0E491EE2319F0E130DD
S11326B021F005C080E094DF02C080E0A0DFE7E500
S11326C0F3E025913491F901199508956F927F9261
S11326D09F92AF92BF92CF92DF92EF92FF920F93AD
S11326E01F93CF93DF93D82EC82FD0E0FE01E95279
S11326F0F74F8081882319F0823071F097C280915E
S1132700E1068E5F6FEF7FEF8D0D0E9429078D2DFF
S11327104EDB8D2DDED88AC284E0FE01E952F74FEC
S11327208083FE01E250F64F908181E0923009F0FF
S113273080E08093E7068D2D92D9882321F08D2D9A
S11327400E94200863C284E18C9FF0018D9FF00DEC
S11327501124ED58FC4F85919491FC0119958091B9
S1132760E706882381F0FE01EE0FFF1FEE0FFF1F27
S1132770EE0FFF1FE851F94F8081418120E030E0E6
S113278000E010E015C08D2D0E942A028C01FC018E
S1132790319625913491FE01EF50F64F8081F7E098
S11327A08F9F200D311D1124F8018491F90144916A
S11327B0BC2FAA27A55EBC4E9C91981304C0FD01B2
S11327C06181641721F08D2D0E9420081FC2862F7D
S11327D090E0FC013197E031F10508F0BBC1EA5803
S11327E0FF4F0C944F378091E706882359F0FE0180
S11327F0EE0FFF1FEE0FFF1FEE0FFF1FE851F94F03
S1132800748103C0F90133967491FC2FEE27E55EC1
S1132810FC4E828190E0FE01E75BF54FE081F0E041
S1132820AC014B5F5F4FE417F50709F08AC0E72F4F
S1132830E695E695E695F0E041E050E0A72FA77015
S113284011F440E050E04E0F5F1F8417950709F024
S11328507AC08091E706882369F0FE01EE0FFF1F1E
S1132860EE0FFF1FEE0FFF1FE851F94FA681B7814E
S1132870C12C1FC0613061F4FE01E295F295F07F36
S1132880FE27E07FFE27EC56FC4FA591B4910BC0C8
S1132890FE01E295F295F07FFE27E07FFE27E856E1
S11328A0FC4FA591B4912B5F3F4FF9018591949111
S11328B0C82EA72EB12CA114B10409F446C020E0FF
S11328C030E081E090E05C2F4427BA01655E7C4EE5
S11328D07B014C2D420F942E9694969496944770B7
S11328E0FC0102C0EE0FFF1F4A95E2F7AF01F901A8
S11328F0F695E795F695E795F695E795EE0DFF1DA8
S1132900E381F0E0B901677077273F0102C0759455
S113291067946A95E2F760FE07C0FD01E90DF11DB9
S11329205081452B408307C0FD01E90DF11D409501
S11329305081452340832F5F3F4F2A153B0548F2C2
S113294006C081E008C181E006C180E004C180E0E6
S113295002C1FC2FEE27E55EFC4E7281FE01E75BAF
S1132960F54F408150E0872F90E0059648175907AE
S113297009F06BC08091E706882371F0FE01EE0F29
S1132980FF1FEE0FFF1FEE0FFF1FE851F94F848169
S11329909581880F991F06C0F9013396859194910A
S11329A0880F991F472F50E04817590709F04FC067
S11329B08091E706882361F0FE01EE0FFF1FEE0F02
S11329C0FF1FEE0FFF1FE851F94FA680B78023C009
S11329D0633061F4FE01E295F295F07FFE27E07F1B
S11329E0FE27E456FC4F859194910BC0FE01E295BD
S11329F0F295F07FFE27E07FFE27E056FC4F85919D
S1132A0094912B5F3F4FF90125913491220F331F8D
S1132A105C01A20EB31E7695CC24CA94C70ECAF0EC
S1132A20770F99249394970EEC2CEE0CFF08EA0C84
S1132A30FB1C692D8D2D9ED8F70191838083CA9448
S1132A409A949A94CC2084F706C081E084C081E0F3
S1132A5082C080E080C080E07EC08091E706882349
S1132A6071F0FE01EE0FFF1FEE0FFF1FEE0FFF1FB1
S1132A70E851F94FE280F380A680B78019C0F901CC
S1132A803196E590F490FE01E295F295F07FFE27F1
S1132A90E07FFE27E456FC4F859194912B5F3F4FD6
S1132AA0F90125913491220F331F5C01A20EB31E4C
S1132AB0FE01E75BF54F8081883099F462E08D2D4B
S1132AC059D88E159F0579F464E08D2D53D841E0D3
S1132AD0F501208131818217930709F440E0842FA6
S1132AE03AC081E038C081E036C08091E70688238F
S1132AF071F0FE01EE0FFF1FEE0FFF1FEE0FFF1F21
S1132B00E851F94FE280F380A480B58009C0F9014F
S1132B103196E590F4902D5F3F4FF901A590B49064
S1132B20FE01E75BF54F8081883081F462E08D2DF2
S1132B3021D88E159F0561F464E08D2D1BD821E00A
S1132B408A159B0509F420E0822F05C081E003C0AB
S1132B5081E001C080E0882391F0FE01E295F295C6
S1132B60F07FFE27E07FFE27E458FD4E84819581A7
S1132B700196958384838D2D0E94200847C08091FF
S1132B80E706882331F0C250D64F188265E070E022
S1132B9048C0FE01EE0FFF1FEE0FFF1FBF01645977
S1132BA07D4E81E090E0A0E0B0E09E012451364FDC
S1132BB0F901008004C0880F991FAA1FBB1F0A9443
S1132BC0D2F780959095A095B095FB0140815181F5
S1132BD06281738184239523A623B7238083918301
S1132BE0A283B383FE01EF50F64F80818F5F808311
S1132BF0F8013396E4918E1304C08D2D0E94810751
S1132C0001C080E0FE01EA51F94F1082882339F0B7
S1132C10CC0FDD1FC450D64F6881798102C065E0B6
S1132C2070E08091E1068D0D0E942907DF91CF911C
S1132C301F910F91FF90EF90DF90CF90BF90AF90D6
S1132C409F907F906F900895E82FF0E0E659FD4E35
S1132C50608170E09091E106890F0C942907089532
S1132C601F93CF93DF93E5E6F3E025913491821728
S1132C70930791F010E044E11F5FC12FD0E04C9F17
S1132C80F0014D9FF00D1124EB59FC4F2591349127
S1132C908217930789F703C0C0E0D0E010E0FE017B
S1132CA0EF52F94F6081462F50E0FE01E75BF54F8C
S1132CB0208130E0225031094217530709F544E1DD
S1132CC04C9F90014D9F300D112427593C4FF90121
S1132CD0A591B4914C914F7D4C93F901A591B49178
S1132CE02C9120642C9324E12C9FF0012D9FF00D56
S1132CF01124E959FC4FA591B4912C9120642C9393
S1132D006F5FFE01EF52F94F6083FE01E75BF54F01
S1132D102081621750F4DC2FCC27C60FD11DC55E6D
S1132D20DC4E2881FC01208330C084E18C9FF001BB
S1132D308D9FF00D1124E759FC4FA591B4918C910E
S1132D408F798C9384E18C9FF0018D9FF00D112479
S1132D50EF58FC4F85919491FC011995FE01EF52B7
S1132D60F94F1082C952D74F81E08883E12FF0E0F8
S1132D70EC55FC4FE491EE2319F0E13021F005C04D
S1132D80812F22DC02C0812F5FDFDF91CF911F9161
S1132D9008951F93CF93DF93182FC091E106C80FB6
S1132DA081E08C0F0E94D508882319F0812F0E949E
S1132DB066078C2F0E94D508882309F46DC0F89407
S1132DC0C12FD0E0FE01E952F74F8081813029F410
S1132DD085E0FE01E952F74F80837894FE01E952C1
S1132DE0F74F8081843039F1853009F055C0812F47
S1132DF00E942008FE01E250F64F8081882319F0DA
S1132E00813029F00BC0812F0E94D70E07C0CA5110
S1132E10D94F8881811102C0812F13D88091E10696
S1132E206FEF7FEF810F0E942907F894812F0E9492
S1132E30690C789431C0F89484E18C9FF0018D9FE3
S1132E40F00D1124ED58FC4F25913491F901199599
S1132E507894C250D64F8881882319F0813029F0A4
S1132E600FC0812F0E94D70E0BC08091E7068823E4
S1132E7021F0812F0E94D70E03C0812F0E94210FC1
S1132E808091E1066FEF7FEF810F0E942907F8948C
S1132E90812F0E94690C7894DF91CF911F9108953E
S1132EA080916B1280FF15C0F89480916B128E7F15
S1132EB080936B127894E4EAF3E0E491EE2319F042
S1132EC0E13029F006C080E00E944C0F02C080E08F
S1132ED0FDDBE4EAF3E0E491E13011F480E059CF62
S1132EE0089560917B0BE6E1F9E080E090E041E039
S1132EF050E021913191232B49F09A01082E02C010
S1132F00220F331F0A94E2F7622B09C09A01082E9C
S1132F1002C0220F331F0A94E2F720956223019620
S1132F208830910531F760937B0B0895CF93DF933D
S1132F30A0919012B0E0E4E3FAE080E090E041E098
S1132F4050E0D0E0C0E0BA01082E02C0660F771F3F
S1132F500A94E2F76A237B239A011616170614F0E3
S1132F602D2F3C2F2193319301968830910559F7E9
S1132F70DF91CF910895B5DF93DFD8CF08951F92E5
S1132F800F920FB60F9211240BB60F922F933F930B
S1132F904F935F936F937F938F939F93AF93BF935D
S1132FA0EF93FF9386EC90E00E94AB0CFF91EF91BE
S1132FB0BF91AF919F918F917F916F915F914F914D
S1132FC03F912F910F900BBE0F900FBE0F901F904B
S1132FD018951F920F920FB60F9211240BB60F92F1
S1132FE02F933F934F935F936F937F938F939F930D
S1132FF0AF93BF93EF93FF9386EC90E031DEFF91A4
S1133000EF91BF91AF919F918F917F916F915F915C
S11330104F913F912F910F900BBE0F900FBE0F90C9
S11330201F9018951F920F920FB60F9211240BB692
S11330300F922F933F934F935F936F937F938F934D
S11330409F93AF93BF93EF93FF9386EC90E008DEDA
S1133050FF91EF91BF91AF919F918F917F916F916C
S11330605F914F913F912F910F900BBE0F900FBE28
S11330700F901F9018951F920F920FB60F92112464
S11330800BB60F922F933F934F935F936F937F935E
S11330908F939F93AF93BF93EF93FF938EEC90E046
S11330A00E94AB0CFF91EF91BF91AF919F918F91D3
S11330B07F916F915F914F913F912F910F900BBE34
S11330C00F900FBE0F901F9018951F920F920FB67E
S11330D00F9211240BB60F922F933F934F935F934C
S11330E06F937F938F939F93AF93BF93EF93FF93CC
S11330F08EEC90E0B5DDFF91EF91BF91AF919F9180
S11331008F917F916F915F914F913F912F910F908C
S11331100BBE0F900FBE0F901F9018951F920F9229
S11331200FB60F9211240BB60F922F933F934F9328
S11331305F936F937F938F939F93AF93BF93EF931B
S1133140FF938EEC90E08CDDFF91EF91BF91AF91F6
S11331509F918F917F916F915F914F913F912F91AB
S11331600F900BBE0F900FBE0F901F9018951F93DA
S1133170CF93DF93D62F172FC091D006882331F039
S1133180C13051F018F0C23029F12DC081E0809394
S1133190D006C13089F539C060E181E00E94100594
S11331A08F3F09F56FEF82E094E00E94290462E00A
S11331B080E094E00E942904612F84E094E00E945E
S11331C029046D2F85E094E00E94290482E0809315
S11331D0D00617C061E081E00E9410058F3F19F40A
S11331E08093D00612C08091D0068C1771F0813084
S11331F019F0823031F009C060E080E00E941005CF
S113320004C060E080E00E9410058091D006DF9148
S1133210CF911F9108951F93CF93DF93D62F172F2C
S1133220C091CF06882331F0C13051F018F0C2307C
S113323029F12DC081E08093CF06C13089F539C0D2
S113324060E181E00E9441058F3F09F56FEF82E064
S113325095E00E94290462E080E095E00E94290440
S1133260612F84E095E00E9429046D2F85E095E0AC
S11332700E94290482E08093CF0617C061E081E0B8
S11332800E9441058F3F19F48093CF0612C08091AC
S1133290CF068C1771F0813019F0823031F009C0FB
S11332A060E080E00E94410504C060E080E00E948C
S11332B041058091CF06DF91CF911F910895CF935F
S11332C0DF93EA01FB019081911109C09181911171
S11332D006C09281911103C09381992319F120971B
S11332E021F1811109C0CB010E94AF05CE010E94DA
S11332F0A30581E090E01EC0813049F4CB010E9417
S1133300D105CE010E94C50581E090E013C0823052
S113331079F4CB010E94F305CE010E94E70581E018
S113332090E008C080E090E005C080E090E002C03A
S113333081E090E0DF91CF910895AB011092A31248
S11333401092A212BC0180E0BACF0895AB01109292
S1133350D3091092D209BC0181E0B1CF08959B0139
S11333606091A2127091A312AC0180E00E949006B9
S11333702091A2123091A312280F391F3093A31267
S11333802093A21208959B016091D2097091D309F0
S1133390AC0181E00E9490062091D2093091D309BA
S11333A0280F391F3093D3092093D2090895CF935E
S11333B0C091CE06882331F0C13051F018F0C230EC
S11333C089F02EC081E08093CE06C13079F532C0F9
S11333D060E281E00E9441058F3F11F582E0809315
S11333E0CE0628C062E070E081E00E94D20484FD31
S11333F00DC062E070E081E00E94D20483FF10C03F
S113340048E162E070E081E00E94060540E162E08C
S113341070E081E00E9406058FEF8093CE060AC01B
S11334208091CE068C1731F0813021F460E280E087
S11334300E9441058091CE06CF910895CF93C0910B
S1133440CD06882331F0C13051F018F0C23089F034
S11334502EC081E08093CD06C13079F532C060E2A0
S113346081E00E9410058F3F11F582E08093CD0624
S113347028C062E070E080E00E94D20484FD0DC0A8
S113348062E070E080E00E94D20483FF10C048E153
S113349062E070E080E00E94060540E162E070E0D6
S11334A080E00E9406058FEF8093CD060AC08091CC
S11334B0CD068C1731F0813021F460E280E00E9467
S11334C010058091CD06CF9108951F93CF93DF937C
S11334D0D62F172FC091CC06882331F0C13051F07C
S11334E018F0C23029F12DC081E08093CC06C130A0
S11334F089F539C060E181E00E9472058F3F09F5CA
S11335006FEF82E096E00E94290462E080E096E09A
S11335100E942904612F84E096E00E9429046D2F03
S113352085E096E00E94290482E08093CC0617C0CF
S113353061E081E00E9472058F3F19F48093CC060C
S113354012C08091CC068C1771F0813019F0823052
S113355031F009C060E180E00E94720504C061E0BE
S113356080E00E9472058091CC06DF91CF911F917B
S11335700895AB011092770B1092760BBC0182E098
S11335809ECE08959B016091760B7091770BAC01F0
S113359082E00E9490062091760B3091770B280FE1
S11335A0391F3093770B2093760B0895AF92BF9217
S11335B0CF92DF92EF92FF920F931F93CF93DF93FB
S11335C01F921F92CDB7DEB77A8369837A0189018E
S11335D0E981FA81F770C82ED12CD601AA0FBB1F3E
S11335E0A653B64F8D919C918E0F9F1F2E0F3F1F98
S11335F021303840C8F020E038E05901AE1ABF0A43
S1133600A501B7010E944003A8014A195B09B7014B
S11336106A0D7B1DF601EE0FFF1FE653F64F808106
S113362091810E94400304C0A801B7010E94400395
S11336300F900F90DF91CF911F910F91FF90EF901A
S1133640DF90CF90BF90AF900895DF92EF92FF92FA
S11336500F931F93CF93DF93D82E7B018A0168E2E7
S113366070E00E94D204C82FD0E069E270E08D2D92
S11336700E94D204DC2FCC27C82B9801A701BE01DD
S11336808D2D94DFC00FD11F4D2F68E270E08D2D7A
S11336900E9406054C2F69E270E08D2D0E940605FC
S11336A0DF91CF911F910F91FF90EF90DF900895DC
S11336B0DF92EF92FF920F931F93CF93DF93D82E55
S11336C00FEF1FEFE12CF12C8D2D0E94F004EC0183
S11336D0009721F08D2D0E94F0047C01EC16FD066C
S11336E029F0015011090115110571F7C701DF9186
S11336F0CF911F910F91FF90EF90DF900895DF928B
S1133700EF92FF920F931F93CF93DF93D82E7B01F9
S11337108A01CEDFEC01009799F463E070E08D2D0F
S11337200E94D2048431D9F08823C9F0C1E0D0E0EA
S11337308C3111F4C0E0D0E0D195C195D10904C019
S1133740081719070CF4E8011C161D0644F4AE0111
S1133750B7018D2D7ADF60E48D2D0E944204CE01E5
S1133760DF91CF911F910F91FF90EF90DF9008951B
S11337700F931F93CF93DF931F92CDB7DEB7082F1C
S113378010E0F801EE0FFF1FEC5EF54F2081318150
S1133790232BB1F041E050E0BE016F5F7F4FAFDFFC
S11337A01816190684F4F801EE0FFF1FEC5EF54FAE
S11337B080819181019791838083898190E005C004
S11337C08FEF9FEF02C08FEF9FEF0F90DF91CF91AC
S11337D01F910F910895DF92EF92FF920F931F9321
S11337E0CF93DF93CDB7DEB728970FB6F894DEBF3B
S11337F00FBECDBFD82EE82EF12CF701EE0FFF1F20
S1133800EC5EF54F20813181232B41F08F018D2D0A
S1133810AFDFF80120813181232BC9F78D2D48DFDB
S113382018161906ACF548E050E0BE016F5F7F4FF3
S11338308D2D65DF9C01181619063CF5898180934E
S113384078128A81809379128B8180937A128C8189
S113385080937B12C701880F991FFC01E059FD4E2C
S11338602D8130E0322F22274E81240F311D3183E8
S113387020832F8130E0322F22274885240F311DE9
S1133880FC01EC5EF54F31832083822F932F02C01D
S113389080E090E028960FB6F894DEBF0FBECDBF4F
S11338A0DF91CF911F910F91FF90EF90DF900895DA
S11338B080E091CF089581E08ECF08954091140A5D
S11338C05091150A41155105D9F06417750728F070
S11338D0BC0180E014DF9C0105C0AB01BC0180E0A9
S11338E00EDF9C011216130674F4E4E1FAE0808101
S11338F09181821B930B91838083822F932F089550
S11339008FEF9FEF08958FEF9FEF08954091160A70
S11339105091170A41155105D9F06417750728F01D
S1133920BC0181E0ECDE9C0105C0AB01BC0181E07F
S1133930E6DE9C011216130674F4E6E1FAE08081D7
S11339409181821B930B91838083822F932F0895FF
S11339508FEF9FEF08958FEF9FEF089580E008CFDA
S113396008958091DD069091DE06A091DF06B09166
S1133970E0060196A11DB11D8093DD069093DE063D
S1133980A093DF06B093E00680E0A3C00895CF9330
S1133990C091CB06811103C01092CB0606C0C13082
S11339A099F018F0C23001F149C08091CA06811122
S11339B004C00E94E3068093CA0681E08093CB068C
S11339C0C13009F041C044C060E281E00E94720548
S11339D08F3FA1F568EE73E08091CA060E94290723
S11339E082E08093CB0634C062E070E082E00E9403
S11339F0D20484FD19C062E070E082E00E94D20427
S1133A0083FF07C048E162E070E082E00E9406059F
S1133A1015C08091CA060E94D508882379F0A1DFD9
S1133A208FEF8093CB0614C040E162E070E082E047
S1133A300E9406058FEF8093CB060AC08091CB06C7
S1133A408C1731F0813021F460E280E00E9472052D
S1133A508091CB06CF910895BF92CF92DF92EF92DF
S1133A60FF920F931F93CF93DF937B016A01E901C8
S1133A70B090C906882331F0BB2021F081E0B8164C
S1133A8039F00DC081E08093C906B8120EC015C08C
S1133A9081E07DDF8F3F19F48093C9060EC08091C9
S1133AA0C9068B1551F0813041F4B601C70161DDBF
S1133AB0B801CE0167DD80E06ADF8091C906DF913D
S1133AC0CF911F910F91FF90EF90DF90CF90BF9017
S1133AD008950F931F93CF93C091C806811103C01B
S1133AE01092C80608C0C130A9F028F0C23011F104
S1133AF0C43051F14BC08091C706811104C00E94AB
S1133B00E3068093C70681E08093C806C13009F0BC
S1133B1047C0E5C069EE77E081E0D7DC8F3FB1F5BF
S1133B2068EE73E08091C7060E94290782E08093C3
S1133B30C806D5C08091C7060E94D508882331F1F4
S1133B4084E08093C80631C063E070E082E00E94A4
S1133B50D204823219F01092C806C1C040916A039F
S1133B6050916B030EE310E028ED38E06CE673E04F
S1133B7081E072DF8F3F51F468EE73E08091C706F5
S1133B800E94290782E08093C806A9C08091C806D4
S1133B908C1709F4A4C0813019F0843031F09FC02F
S1133BA069EE77E080E091DC9AC0E8EDF8E085E02A
S1133BB0808381E08093D908909168032091690300
S1133BC02093DA089093DB088093DC0882E08093EA
S1133BD0DD0883E18093DE0886E38093DF0880912B
S1133BE0D4098093E0088091D5098093E1088091FD
S1133BF0D6098093E2088091D7098093E30887E58A
S1133C008093E40885E38093E50881E38093E608E4
S1133C1080E38093E7088093E80880E28093E908D2
S1133C2084E58093EA0895E49093EB0893E59093F8
S1133C30EC088093ED0883EF98E09093020A809358
S1133C40010A10A2178E12A211A280916003909112
S1133C50610394A383A3809164039091650396A365
S1133C6085A38BE790E090A787A388E097E092A7CD
S1133C7081A788E998E094A783A785E099E09093C9
S1133C80D6088093D5088091D6069091D706A09146
S1133C90D806B091D906880F991FAA1FBB1FAC0183
S1133CA0BD01440F551F661F771F440F551F661F24
S1133CB0771F840F951FA61FB71F85A796A7A7A7D1
S1133CC0B0AB8AE18093150940916A0350916B036C
S1133CD00EE310E09F016CE673E080E0BDDE8091AE
S1133CE0C806CF911F910F9108958F929F92AF9222
S1133CF0BF92CF92DF92EF92FF920F931F93CF93D5
S1133D00DF93CDB7DEB7A4970FB6F894DEBF0FBE2E
S1133D10CDBFE82ED62EC72E6894FF24F5F88E0169
S1133D200F5F1F4FF8018F2D11928A95E9F78FEFDE
S1133D3089A38AA38BA38CA363E470E0CE0181964C
S1133D40FCDA81E089838A8386E08B831C8240913C
S1133D50F8095091F9096091FA097091FB09872ECD
S1133D609924AA24BB24B42FAA2799278827882911
S1133D709929AA29BB298824942EA52EB62E8824F5
S1133D809924BB2488299929AA29BB29452F562F70
S1133D90672F7727442766277727482B592B6A2BC9
S1133DA07B2B4D835E836F837887C986DA8680E8B0
S1133DB090E09C878B876CE170E0C801D0DAF80151
S1133DC08F2D11928A95E9F786E0EAEDF9E0D801A2
S1133DD001900D928A95E1F760E170E0C801BFDAC5
S1133DE0F8011192FA94E9F706E010E060E270E05D
S1133DF0CE010196B4DA0150110901151105B1F78C
S1133E0083E6898392E89A8393E59B838C8385E395
S1133E108D8381E08E83EF829DE3988797E0998775
S1133E208A8786E0EAEDF9E0DE011B9601900D92A7
S1133E308A95E1F78CE0898B8A8B87E0E4E7F3E0ED
S1133E40DE01539601900D928A95E1F76091DD09A8
S1133E50CE0149960E94B0066091DE09CE014B96D0
S1133E600E94B0066091DF09CE014D960E94B00613
S1133E706EE170E0CE01019672DAF3E0EF1224C035
S1133E8082E3898384E08A839091D4099B8390910F
S1133E90D5099C839091D6099D839091D7099E83DF
S1133EA096E39F83888780912A09898780912B09CB
S1133EB08A8780912C098B8780912D098C876CE0EF
S1133EC070E0CE0101964BDA87E3898386E08A832A
S1133ED091E09B8393E09C838D838FE08E838AE3C0
S1133EE08F838BE388878FEF898769E070E0CE0149
S1133EF0019635DAA4960FB6F894DEBF0FBECDBF97
S1133F00DF91CF911F910F91FF90EF90DF90CF90B1
S1133F10BF90AF909F908F9008950F931F93CF936E
S1133F20DF93062FEA011091C606882329F0112396
S1133F3019F0113039F00DC081E08093C6061130BC
S1133F4071F412C081E07ADA8F3F19F48093C606C7
S1133F500BC09091C606911739F0913029F4BE0137
S1133F60802FC3DE80E06ADA8091C606DF91CF91AC
S1133F701F910F9108952F923F924F925F927F92DB
S1133F808F929F92AF92BF92CF92DF92EF92FF9265
S1133F900F931F93CF93DF93CDB7DEB7A2970FB6DE
S1133FA0F894DEBF0FBECDBF8A0182DC1816190655
S1133FB00CF0F1C162E270E0CE0101967FDC8981F0
S1133FC0823009F0EAC180917012909171128334A9
S1133FD0910509F0E4C18D819E81AF81B885CB2E16
S1133FE0DD24EE24FF24782F662755274427C42A8E
S1133FF0D52AE62AF72A4427582F692F7A2F4427EF
S113400055277727C42AD52AE62AF72A892F9A2FF3
S1134010AB2FBB278827AA27BB27C82AD92AEA2A75
S1134020FB2AF801C082D182E282F38246E050E0AA
S11340306AED79E0CE014D960E941038892B09F083
S1134040B0C18091580E9091590EA0915A0EB09122
S11340505B0EC816D906EA06FB0608F4A4C18091D3
S1134060F8099091F909A091FA09B091FB098C150E
S11340709D05AE05BF0508F498C189899A89AB8965
S1134080BC898093D4099093D509A093D609B093A1
S1134090D7090EEC10E062DC01501109011511057D
S11340A0D1F7712C0F2EF4E1CF2EFAE0DF2EF02D94
S11340B0812C912C0F2EFAE2AF2EF9E0BF2EF02DB9
S11340C00F2EF0E74F2EF2E15F2EF02D0F2EFBE2C4
S11340D02F2EF9E03F2EF02D56C140DC833391059D
S11340E009F405C17CF48130910529F124F4892B6C
S11340F009F449C13DC18330910521F1069709F4C2
S113410039C036C18A33910509F47FC03CF4853344
S1134110910569F0C69709F445C02AC18B3391050E
S113412009F4ACC08F3F910509F42DC121C116DCFF
S113413015DC782E28C112DC64E070E086E692E19A
S11341400DDC21C10BDC7C0164E070E088EE99E0B9
S113415005DCFF24F4E0EF1AF1081E141F040CF030
S113416012C1082D192DFADB0F5F1F4F0E151F0505
S1134170D4F309C1F3DB7C0164E070E084E992E1EB
S1134180EDDBFF2484E0E81AF1081E141F040CF090
S1134190FAC0082D192DE2DB0F5F1F4F0E151F0506
S11341A0D4F3F1C0DBDBF501908191110EC0F10174
S11341B0908191110AC0ECE2F9E09081911105C05F
S11341C0EDE2F9E09081992399F0F50100811181E4
S11341D022813381F201408151816281738104170C
S11341E015072607370721F0F82E811106C0CBC02A
S11341F064E070E0C501B2DBC6C0082D192DAEDB4A
S11342000F5F1F4FF012FBCFBEC0A8DB64E070E06D
S113421083E09AE0A3DB8091030A9091040AA091C1
S1134220050AB091060A0B2F112722273327782F6E
S1134230662755274427042B152B262B372B442779
S1134240582F692F7A2F442755277727042B152BAE
S1134250262B372B492F5A2F6B2F77274427662776
S11342607727402B512B622B732B4093030A5093D7
S1134270040A6093050A7093060A85C06FDB64E044
S113428070E085E49AE06ADB8091450A9091460AE1
S1134290A091470AB091480A0B2F112722273327F0
S11342A0782F662755274427042B152B262B372BCD
S11342B04427582F692F7A2F442755277727042B13
S11342C0152B262B372B492F5A2F6B2F7727442753
S11342D066277727402B512B622B732B4093450A7B
S11342E05093460A6093470A7093480A4CC036DBE1
S11342F064E070E08DEE99E031DB8091ED099091FE
S1134300EE09A091EF09B091F0090B2F1127222794
S11343103327782F662755274427042B152B262B64
S1134320372B4427582F692F7A2F4427552777276F
S1134330042B152B262B372B492F5A2F6B2F77271E
S1134340442766277727402B512B622B732B4093EE
S1134350ED095093EE096093EF097093F0094093CF
S11343609A1250939B1260939C1270939D120BC0EF
S1134370F5DAF82E882339F0082D192DEFDA0F5FBE
S11343801F4FF012FBCFF60180819181892B09F038
S1134390A4CE872D0BC08FEF09C080E007C080E05A
S11343A005C080E003C080E001C080E0A2960FB6A3
S11343B0F894DEBF0FBECDBFDF91CF911F910F9157
S11343C0FF90EF90DF90CF90BF90AF909F908F9031
S11343D07F905F904F903F902F900895CF92DF92FF
S11343E0EF92FF926B017C016115710581059105C6
S11343F039F00E94C137A70196010E94333703C0E8
S113440060E070E0CB01FF90EF90DF90CF900895D3
S1134410CF93C091C506811110C08091DC06811133
S11344201EC0809170038093DC0692E0980F9093F5
S113443070038F5F8093DB0612C0C530C9F130F47E
S1134440C13099F060F0C330E1F0D9C0C73009F44D
S113445075C008F45CC0CF3F09F4C7C0D0C081E088
S11344608093C5068C13D9C02BC164E470E081E04D
S11344700E94B7188F3F09F0C2C083E08093C5063D
S113448014C14AE050E061E081E047DD8F3F09F06C
S1134490B6C081E08093991248EE53E060E070E08A
S11344A08091DC060E948D0885E08093C50608C1D2
S11344B06091E2097091E3098091E4099091E50922
S11344C04CE852E158DD8230A1F480918C12909135
S11344D08D12A0918E12B0918F128093F80990934F
S11344E0F909A093FA09B093FB0986E08093C50605
S11344F0E2C08091DC060E94FC08882321F081E060
S11345008093C5068AC085E08093C506D9C044E679
S113451050E063E081E001DD8F3F09F070C082E08C
S11345208093991244EF51E060E070E08091DC06E2
S11345300E948D0887E08093C506C2C06091E2099D
S11345407091E3098091E4099091E5094CE852E106
S113455012DD8530B1F52091D70930E04091D609BC
S113456050E06091D50970E08091D40990E00E94F8
S113457081042091EB0930E04091EA0950E0609118
S1134580E90970E08091E80990E00E949C04209180
S1134590691230E04091681250E06091671270E057
S11345A08091661290E00E94B70448EB5BE060E003
S11345B070E08091DB060E948D088FEF8093C50622
S11345C07FC0863021F483E08093C5066EC080915D
S11345D0DC060E94FC08882321F081E08093C50654
S11345E01CC087E08093C5066BC08091DB060E94E7
S11345F0FC08882321F086E08093C5065CC0809186
S1134600C5068C1709F45CC0833009F44EC08630AB
S113461009F451C0813009F053C06FEC77E080E0B9
S113462090E0DCDEDC01CB010196A11DB11D80937D
S1134630F8099093F909A093FA09B093FB098093C0
S1134640580E9093590EA0935A0EB0935B0E10928D
S1134650D4091092D5091092D6091092D709109254
S113466066121092671210926812109269121092D8
S1134670E8091092E9091092EA091092EB091092E4
S11346802A0910922B0910922C0910922D091092CC
S1134690941210929512109296121092971264E44A
S11346A070E080E00E94B7180BC04AE050E061E07F
S11346B080E033DC05C04AE050E063E080E02DDCBC
S11346C08091C506CF910895AF92BF92CF92DF92A9
S11346D0EF92FF920F931F93CF93DF93CDB7DEB783
S11346E060970FB6F894DEBF0FBECDBFA2960EAD95
S11346F01FADA29781E3F80180838EE2818383E377
S1134700828313826F96DFAC6F97DA9409F44EC0FC
S113471021E0A12CB12C0F2EFEE2EF2EF12CF02D76
S11347208A2D9B2DCC24C394C20EEEE1F0E0EC0F55
S1134730FD1FE20FF11D20819695982F88279795EC
S11347408795322F3F77830F911DDA9421F022232E
S1134750C4F42C2DE7CF4AE0BE016F5F7F4F0E9467
S11347604E38F80101900020E9F731978EE290E08D
S113477091838083BE016F5F7F4FC8010E941D3803
S113478015C04AE0BE016F5F7F4F0E944E38F801AA
S113479001900020E9F73197F182E082BE016F5F5A
S11347A07F4FC8010E941D382C2DBACF60960FB6DA
S11347B0F894DEBF0FBECDBFDF91CF911F910F9153
S11347C0FF90EF90DF90CF90BF90AF9008953F920D
S11347D04F925F926F927F928F929F92AF92BF920D
S11347E0CF92DF92EF92FF920F931F93CF93DF93B9
S11347F000D01F921F92CDB7DEB78C01DB018C91E4
S1134800813309F0E5C011968C9111978E3209F02D
S1134810DFC012968C911297833309F0D9C0139696
S11348208C918E3209F0D4C080E4F80111928A95FB
S1134830E9F78BE2D8018C93FB0101900020E9F7A2
S113484031973F01661A770AFE01319685E0DF0150
S11348501D928A95E9F7B5E06B1671040CF471C0EA
S11348606B01E4E0CE0ED11C6894EE24E2F8F12C46
S1134870AA24A394B12C80E090E09E012F5F3F4FC7
S113488049010F2EF5E03F2EF02D412C512CD6017D
S11348902D916D012E3209F047C0C4010E94EA3700
S11348A0272F862F922F8038910528F4F801EA0DDE
S11348B0FB1D60832EC08115B0E49B0788F4F801CA
S11348C0EA0DFB1D880F991F892F80688083EFEF05
S11348D0AE1ABE0AF801EA0DFB1D6F77608319C09A
S11348E0F801EA0DFB1D9C0124E0329F212D3327A2
S11348F01124237020682083880F991F892F8068D2
S11349008183F2E0AF0EB11CF801EA0DFB1D6F7755
S11349106083D401E32D1D92EA95E9F7FFEFAF1A06
S1134920BF0A842D952D05C0F401E80FF91F2083DB
S113493001962FEFE21AF20A6E147F0409F0A7CF52
S113494003C0AA24A394B12CCE0101960E94CD37B2
S1134950282F392F2038310528F4F801EA0DFB1DE2
S113496080832EC0211590E4390788F4F801EA0DFC
S1134970FB1D220F331F932F90689083AFEFAA1A69
S1134980BA0AF801EA0DFB1D8F77808319C0F8017C
S1134990EA0DFB1DA90144E0549F412D5527112424
S11349A0437040684083220F331F932F9068918394
S11349B0B2E0AB0EB11CF801EA0DFB1D8F778083CA
S11349C0F801E05CFF4F2FEFA21AB20AB182A08275
S11349D00F900F900F900F900F90DF91CF911F9138
S11349E00F91FF90EF90DF90CF90BF90AF909F908A
S11349F08F907F906F905F904F903F90089520E448
S1134A00FC0111922A95E9F7FC01E05CFF4F118249
S1134A10108208958F929F92AF92BF92CF92DF92AD
S1134A20EF92FF920F931F93CF93DF93CDB7DEB72F
S1134A3060970FB6F894DEBF0FBECDBF8C017B012B
S1134A40FC01EE5BFF4F8081843009F47DC0863029
S1134A5009F46DC0843409F066C076C081E3D701DF
S1134A608C938EE211968C93119783E312968C9318
S1134A70129713961C92F801E05CFF4FB080BA9431
S1134A8011F181E0812C912C0F2EFEE2CF2ED12C3E
S1134A90F02D282D392DAA24A394A80EF801E80F8F
S1134AA0F11D80813695322F222737952795982F2F
S1134AB09F77290F311DBA9409F453C088230CF051
S1134AC067C08A2DE8CF80E079C0F801ED5BFF4F25
S1134AD0108233972081318121153105D1F080E096
S1134AE090E060E03396A801405C5F4FD801A60FC8
S1134AF0B11D2C91D701A80FB91F2C9360816F5F52
S1134B006083862F90E0DA012D913C918217930700
S1134B1068F3F701E20FF31F108280E04FC0C80171
S1134B206EDF81E04BC0C8016ADF87E047C0FB014C
S1134B3001900020E9F7CF01861B970B0297841799
S1134B40950708F48BCFEBCFF70101900020E9F72C
S1134B50CF018E199F0902978417950708F4B5CFE2
S1134B60DECF4AE0BE016F5F7F4FC9010E944E381D
S1134B70F70101900020E9F731978EE290E09183EC
S1134B808083BE016F5F7F4FC7010E941D389BCF9A
S1134B904AE0BE016F5F7F4FC9010E944E38F701A2
S1134BA001900020E9F73197D182C082BE016F5F86
S1134BB07F4FC7010E941D388A2D6BCF60960FB6B8
S1134BC0F894DEBF0FBECDBFDF91CF911F910F913F
S1134BD0FF90EF90DF90CF90BF90AF909F908F9019
S1134BE008951F93CF93DF93FC01EE5BFF4F208169
S1134BF0223059F53297208131812330310540F537
S1134C00FB0111821082FC01E05CFF4F20813181A5
S1134C1021153105F9F0162FE62FF72F40E050E06B
S1134C20EC01C05CDF4F40955095280F391FD90126
S1134C30A40FB51F2C9121934E2F411B50E02881C6
S1134C4039814217530778F307C0D9DE87E005C0DE
S1134C5081E003C080E001C080E0DF91CF911F912B
S1134C600895CF9320E4FC0111922A95E9F7262FA9
S1134C702F7B2430C9F5FA0101900020E9F79F0148
S1134C80241B350B225031092034310550F5FC0129
S1134C90EE5BFF4F6083FA0101900020E9F7319742
S1134CA0BF01641B750BFC01E05CFF4F71836083E3
S1134CB03396108261157105D1F020E030E0C0E038
S1134CC0DF01FA01E20FF31F2081FC01EC0FF11D5B
S1134CD02083CF5FCC932C2F30E02617370788F33F
S1134CE008C08DDE81E006C08ADE87E003C080E074
S1134CF001C080E0CF91089520E4FC0111922A952F
S1134D00E9F7623011F0643471F4FC01E05CFF4FA8
S1134D1022E030E03183208332966083FC015083AB
S1134D20418380E008956BDE87E0089570E4FC0120
S1134D3011927A95E9F7623011F0643481F4FC0140
S1134D40E05CFF4FA4E0B0E0B183A08332966083BF
S1134D50FC01508341833283238380E008954FDE36
S1134D6087E00895FC0180E4DF011D928A95E9F74C
S1134D708FEB860F843010F0673481F4DF01A05C80
S1134D80BF4F84E090E011969C938E9312966C939F
S1134D90508341833283238380E00895CF012FDE43
S1134DA087E00895DC010D900020E9F7FC019D01E6
S1134DB02150310980E090E004C041914E3209F461
S1134DC00196E217F307C9F701960895CF92DF928F
S1134DD0EF92FF920F931F93CF93DF93CDB7DEB77C
S1134DE028970FB6F894DEBF0FBECDBF6C01DB0170
S1134DF0E12CF12C40E050E020E030E08C01015047
S1134E00110916C00417150761F48E3251F0E1E060
S1134E10F0E0EC0FFD1FEE0DFF1D80838FEFE81A0D
S1134E20F80A2F5F3F4FEC91EE3211F44F5F5F4F62
S1134E308D918E3219F44C155D0550F4FB010190EF
S1134E400020E9F73197E61BF70B2E173F07D0F246
S1134E50FE01EE0DFF1D1282CE0107969F938F93E4
S1134E6082E893E09F938F93CE0101969F938F9353
S1134E700E9467380F900F900F900F900F900F9033
S1134E808F81988528960FB6F894DEBF0FBECDBFEC
S1134E90DF91CF911F910F91FF90EF90DF90CF9012
S1134EA00895AF92BF92CF92DF92EF92FF920F9349
S1134EB01F93CF93DF937C018B0174DFEC01C80156
S1134EC071DF8C179D0738F5C1E0D0E019C0B70138
S1134ED0CE017CDF6C01B801CE0178DF8C159D0515
S1134EE008F46CC0B7018A2D9B2D70DF6C01B801EA
S1134EF08A2D9B2D6BDFC816D90608F462C0219653
S1134F00AC2EBD2EC8014EDF0196C817D907F8F2A2
S1134F1081E090E064C0C817D90738F5C1E0D0E05B
S1134F2019C0B701CE0152DF6C01B801CE014EDFCA
S1134F308C159D0508F448C0B7018A2D9B2D46DFCA
S1134F406C01B8018A2D9B2D41DFC816D90608F4DF
S1134F503EC02196AC2EBD2EC70124DF0196C81792
S1134F60D907F8F28FEF9FEF3AC0C817D90729F590
S1134F70C1E0D0E017C0B701CE0128DF6C01B80151
S1134F80CE0124DF8C159D0528F1B7018A2D9B2DB8
S1134F901DDF6C01B8018A2D9B2D18DFC816D906B8
S1134FA0E0F02196AC2EBD2EC701FCDE0196C81799
S1134FB0D90708F38FEF9FEF12C011C081E090E092
S1134FC00EC08FEF9FEF0BC081E090E008C08FEF21
S1134FD09FEF05C081E090E002C08FEF9FEFDF916B
S1134FE0CF911F910F91FF90EF90DF90CF90BF90E2
S1134FF0AF900895EF92FF920F931F93CF93DF9397
S11350007C0109E012E0C0E0D0E0F8016081718128
S1135010C70147DF019639F02196095F1F4FC3325C
S1135020D10599F703C08C2F9D2F02C08FEF9FEFFE
S1135030DF91CF911F910F91FF90EF900895FA01A6
S1135040223049F46130E9F4DC014D915C9162E075
S1135050CF0152CE0895243039F46230F9F4AC0112
S113506064E0CF01FECD0895233459F46330B1F4E4
S1135070DC012D913D914D915C9163E4CF0172CEA1
S11350800895223059F4643049F4DC012D913D91A6
S11350904D915C9162E0CF0149CE0895089522308C
S11350A079F4643011F5EAE2F3E001900020E9F7C5
S11350B03197AF014A5253406AE273E0ABCC089592
S11350C0213029F4623061F4BA018BCD0895633440
S11350D019F4233029F405C0623011F4243019F096
S11350E0089580E0089580E008956334A9F7F8CF27
S11350F02F923F924F925F926F927F928F929F92E4
S1135100AF92BF92CF92DF92EF92FF920F931F93D1
S1135110CF93DF93CDB7DEB7C257D1090FB6F8945A
S1135120DEBF0FBECDBF8C016091160A7091170AC5
S11351307093E1096093E00989E9EEE2F9E0DF01A7
S11351401D928A95E9F76A39710508F079C2CF0191
S11351500E94861C80912E09803309F073C220902E
S1135160310983E0820DE82FF0E0A896FFAFEEAF9F
S1135170A897E25DF64F2281A2962FAFA29785E011
S1135180820D820FE82FF0E0DF01A25DB64F119689
S11351903C90119714962C9194E0980F920FA3963B
S11351A09FAFA397492F50E0AC965FAF4EAFAC973B
S11351B0DA01A25DB64F12969C91A9969FAFA9976A
S11351C0A3969FADA3979E5FA996AFADA997A90F8C
S11351D0A496AFAFA4974A2F50E0AE965FAF4EAF00
S11351E0AE97DA01A25DB64F12969C91AA969FAF34
S11351F0AA97392FA496AFADA4973A0FB2E0B30F94
S1135200AF96BFAFAF974B2F50E0A6965FAF4EAFB0
S1135210A697DA01A25DB64F1296AC90D801159606
S11352201D921D921D921C9218972223F1F0ED5CA1
S1135230F64F90E08C5C964F2150820F911D219186
S113524015964D915D916D917C911897762F652FF0
S1135250542F4427422B15964D935D936D937C9365
S11352601897E817F90759F78D01F8013082F5EA24
S11352703F16E1F0A696EEADFFADA697E25DF64FC0
S11352802681E0962FAFE097385F230FE1962FAF8A
S1135290E197E22FF0E0E25DF64F3181E3963FAF14
S11352A0E3974281E2964FAFE2976DC01092D8091E
S11352B0B12CA114B10409F466C0E12CF12C3C5FBB
S11352C0632E712C812C512C6E0153E4C50ED11C1C
S11352D00F2EF2E44F2EF02DB701660D771DFB0162
S11352E0E25DF64F9280448150E04115510599F0FA
S11352F0FE013196282D352D882D952D625D764F32
S1135300DB01A20FB31F15962C91219301969C01EA
S113531084179507A8F323965FAF4EAF2397DF92C8
S1135320CF928DB79EB7825491090FB6F8949EBF61
S11353300FBE8DBFADB7BEB71196FE013196842D59
S113534001900D928A95E1F7BFD90FB6F894DEBFAC
S11353500FBECDBFC6014EDEE091D80921E02E0F6D
S11353602093D809F0E0EE0FFF1FE25EF54F992776
S113537091838083892D90E00296E80EF91EEA1449
S1135380FB0408F4A9CFF80111821282138214825B
S11353902220F1F0E3E3F9E08FEF820D90E08C5CE2
S11353A0964FD801219111964D915D916D917C910B
S11353B01497762F652F542F4427422B11964D9323
S11353C05D936D937C931497E817F90759F78D0152
S11353D0D8013C9230927A0BA296BFADA297B53118
S11353E028F081E0F801818782E05AC1D8018C91CC
S11353F0833AD9F5A296BFADA2978B2F90E0209166
S11354001C0A30911D0A8217930709F06AC000979D
S113541009F476C0A8962EAD3FADA8972D5F3F4FF7
S1135420E0915C0DF0915D0DD901A25DB64F5C91E8
S11354304081541781F00AC04E0F5F1FD901A60F97
S1135440B11D7C91DA014C91741741F082E0F801AE
S1135450818787E025C160E0225D364F6F5F462F6C
S113546050E04817590740F34BC0805A8230C8F5C2
S1135470A296FFADA2978F2F90E02091E60930917C
S1135480E7098217930769F50097D1F1A8962EAD25
S11354903FADA8972D5F3F4FE0912609F091270972
S11354A0D901A25DB64F5C914081541781F00AC0C6
S11354B04E0F5F1FD901A60FB11D7C91DA014C91EB
S11354C0741741F082E0F801818787E0E9C060E069
S11354D0225D364F6F5F462F50E04817590740F35F
S11354E00FC0F801E057FF4F11821082E254F10916
S11354F01182108282E0D80119968C9387E0D0C083
S1135500F8011186A996FFADA997FF2301F1AC9686
S1135510EEADFFADAC97EF5CF64FA3962FADA3971E
S1135520822F90E08E5C964FA9962FADA9972150BB
S1135530820F911D40E050E0BA01762F652F542F61
S113554044272191422BE817F907B9F703C040E03B
S113555050E0BA01D80119964C931997F8011286B4
S1135560138614861586AA96FFADAA97FF2349F1E0
S1135570AE96EEADFFADAE97EF5CF64FA4962FADB1
S1135580A497822F90E08E5C964FAA962FADAA978F
S11355902150820F911D21911A964D915D916D912B
S11355A07C911D97762F652F542F4427422B1A96F2
S11355B04D935D936D937C931D97E817F90759F705
S11355C08D01E0963FADE097313430F081E0D801B1
S11355D019968C9383E064C080E4F8013E96DF0161
S11355E01D928A95E9F7E05CFF4FE096BFADE09726
S11355F08B2F90E091838083BB2341F1A696EEAD7F
S1135600FFADA697EB5CF64FD8011E96AF962FAD73
S1135610AF97822F90E08A5C964FE0962FADE0978B
S11356202150820F911D21912D93E817F907D9F785
S11356300DC021912D93E817F907D9F780E030C008
S113564086E02EC085E02CC080E02AC0F801EE562A
S1135650FF4FE3963FADE39730833297E2964FAD29
S1135660E297842F90E09183808380E4E054F109F1
S1135670DF011D928A95E9F7442331F3E196BFAD2A
S1135680E1978B2F90E0FC01EF5CF64FD801A05B13
S1135690BF4F8E5C964F242F2150820F911DC9CF8E
S11356A0CE58DF4F0FB6F894DEBF0FBECDBFDF91EB
S11356B0CF911F910F91FF90EF90DF90CF90BF900B
S11356C0AF909F908F907F906F905F904F903F909E
S11356D02F900895CF92DF92EF92FF920F931F9332
S11356E0CF93DF93DC011092C8091092C709EC0133
S11356F0C25BDF4FFC01E057FF4F28813981808175
S11357009181280F391F2B5D3F4F89E9EEE2F9E0C3
S1135710EF0119928A95E9F780917A0B833A29F57A
S113572080911C0A90911D0A280F391F3093E109BA
S11357302093E00930E330932E09225020932F095F
S113574022E02093300921E02093310924E02093C2
S1135750330927E030E03093C8092093C709BC011E
S113576080933409009731F566C08091E6099091E1
S1135770E709280F391F3093E1092093E00930E34A
S113578030932E09225020932F0922E020933009D0
S113579021E02093310924E02093330927E030E00D
S11357A03093C8092093C709BC018093340900973A
S11357B011F541C000915C0D10915D0D80E090E009
S11357C0C0E02091C7093091C809A9014F5F5F4F1C
S11357D05093C8094093C709800F911FFC01808131
S11357E0225D364FF9018083CF5F8C2F90E08617BE
S11357F0970738F320C0009126091091270980E00B
S113580090E0C0E02091C7093091C809A9014F5F19
S11358105F4F5093C8094093C709800F911FFC0143
S11358208081225D364FF9018083CF5F8C2F90E019
S11358308617970738F38091C7099091C8099C018E
S11358402F5F3F4F3093C8092093C7094C91FC0147
S1135850E25DF64F4083A901425D564F7D012EE47F
S1135860E20EF11CE70178819D0120573F4FE901C9
S11358706881670F665EEA01688302E0028314E0D0
S1135880138315964C91159716965C911697179657
S11358906C91179718967C91189774836583568337
S11358A047830087118719964C911997128613869E
S11358B014864587068717871A964C911A971B9664
S11358C05C911B971C966C911C971D967C911D975F
S11358D0708B618B528B438B40E3448BE70168816F
S11358E0E9015881560F5A5F558B468BE701488171
S11358F0E9012881240F2C5F278B26E0208F4A960C
S11359009093C8098093C709E7018881818F8881B2
S11359109981892B49F18091C7099091C809FD01AA
S11359203E969C01225D364F69017C013DE0E31AFD
S1135930F108EA1AFB0A02EF1FEF0A1B1B0BBE0158
S1135940A7014E0F5F1F8191E60189936E019801B3
S11359502E0F3F1FEB01888199812817390780F3A7
S11359605093C8094093C7098091C7099091C80909
S1135970FD01EE56FF4F2081EC01C25DD64F288316
S113598002969093C8098093C709329780818983CE
S113599080819181892B29F10091C7091091C8094F
S11359A0E054F109E801C25DD64F0F5411090A1BF6
S11359B01B0B60EB7FEF6A1B7B0BA057BF4FA8014B
S11359C04E0F5F1F819189939B012E0F3F1F8D9175
S11359D09C9111972817390790F35093C809409365
S11359E0C709609172127091731288E792E10E9464
S11359F0A6196091E0097091E1098EE299E00E9494
S1135A00C31980E0DF91CF911F910F91FF90EF9028
S1135A10DF90CF900895BF92CF92DF92EF92FF92E2
S1135A200F931F93CF93DF93CDB7DEB7C459D1093A
S1135A300FB6F894DEBF0FBECDBF7C01DC01199612
S1135A401C92FC0112861386148615861092C809CE
S1135A501092C7098FE190E09093E1098093E009E7
S1135A608091D809882309F446C0B12C0B2D10E08D
S1135A70000F111F025E154FD8018D919C91FC01FE
S1135A80EE0FFF1FEE0FFF1FEE0FFF1FE81BF90BBA
S1135A90E75FFD4F2281AE014F5A5F4F65818381DD
S1135AA09481CDDAF80120813181F901EE0FFF1FD5
S1135AB0EE0FFF1FEE0FFF1FE21BF30BE75FFD4F1F
S1135AC060817181CE010F960E94E72360962FAD0D
S1135AD06097CF56DF4F88819981C159D04099276B
S1135AE0820F911D0696C80ED91EB3948091D809D1
S1135AF0B81608F4BBCF8091E0099091E1098C0DB0
S1135B009D1D29E9EEE2F9E0DF011D922A95E9F7EE
S1135B1060917A0B633A59F420911C0A30911D0A62
S1135B20820F931F9093E1098093E0090AC02091AA
S1135B30E6093091E709820F931F9093E10980935E
S1135B40E0098091C7099091C809FC01E25DF64F14
S1135B5020E3208322E821832091E0093091E109A8
S1135B60A9014450510952832450238322E0248301
S1135B7021E0258316829C01285F3F4F44E0478340
S1135B80633A91F509969093C8098093C709609187
S1135B901C0A70911D0AF901E25DF64F60836115DC
S1135BA0710509F451C000915C0D10915D0D80E008
S1135BB090E0A0E02091C7093091C809A9014F5F86
S1135BC05F4F5093C8094093C709800F911FFC0190
S1135BD08081225D364FF9018083AF5F8A2F90E088
S1135BE08617970738F330C009969093C8098093B5
S1135BF0C7096091E6097091E709F901E25DF64F82
S1135C0060836115710501F100912609109127093E
S1135C1080E090E0A0E02091C7093091C809A90173
S1135C204F5F5F4F5093C8094093C709800F911F7E
S1135C30FC018081225D364FF9018083AF5F8A2F9A
S1135C4090E08617970738F382EAD7018C93809106
S1135C50C7099091C8099C012F5F3F4F3093C80931
S1135C602093C7094C91FC01E25DF64F4083D901B2
S1135C70A25DB64F44E14C0D4C9372E0728364E034
S1135C806383D70115962C91159716963C91169718
S1135C9017964C91179718965C91189754834583DF
S1135CA0368327837087618719962C9119971286FA
S1135CB0138614862587768767871A962C911A97F8
S1135CC01B963C911B971C964C911C971D965C91BE
S1135CD0508B418B328B238B20E3248B46969093FD
S1135CE0C8098093C709C58A8091D809882309F413
