:10000000EBC000000AC1000008C1000006C10000EA
:1000100004C1000002C1000000C10000FEC00000D9
:10002000FCC00000FAC00000F8C00000F6C00000EC
:10003000F4C00000F2C00000F0C00000EEC00000FC
:10004000ECC00000FAC50000E8C00000E6C00000F7
:10005000E4C00000E2C00000E0C00000DEC000001C
:10006000DCC00000DAC000006AC70000D6C0000093
:10007000D4C00000D2C00000D0C00000CEC000003C
:10008000CCC00000CAC00000C8C00000C6C000004C
:10009000C4C00000C2C00000C0C00000BEC000005C
:1000A000BCC00000BAC00000B8C00000B6C000006C
:1000B000B4C00000B2C00000B0C00000AEC000007C
:1000C000ACC00000AAC00000A8C00000312E332E32
:1000D000362E312E342E312E323031372E31312E14
:1000E000352E3000312E332E362E312E342E312E39
:1000F000323031372E31312E342E3000312E332E26
:10010000362E312E342E312E323031372E31312EE3
:10011000332E3000312E332E362E312E342E312E0A
:10012000323031372E31312E322E3000312E332EF7
:10013000362E312E342E312E323031372E31312EB3
:10014000312E3000312E332E362E312E332E3230DA
:1001500031372E302E332E3000312E332E362E31C5
:100160002E322E312E312E372E3000312E332E36B8
:100170002E312E322E312E312E362E3000312E33AE
:100180002E362E312E322E312E312E352E3000319C
:100190002E332E362E312E322E312E312E342E305D
:1001A00000312E332E362E312E322E312E312E337B
:1001B0002E3000312E332E362E312E322E312E316E
:1001C0002E322E3000312E332E362E312E322E315D
:1001D0002E312E312E30000011241FBECFEFD1E280
:1001E000DEBFCDBF00E00CBF13E0A0E0B2E0E4ED65
:1001F000FCE300E00BBF02C007900D92A635B107EB
:10020000D9F729E0A6E5B3E001C01D92A23DB207EF
:10021000E1F70E942D1D0C94681EF2CE8EBD0000E9
:100220000DB407FEFDCF8EB50895CF93DF93C82F91
:10023000D92F28988FE0F2DF8D2FF0DF8C2FEEDFA3
:1002400080E0ECDF289ADF91CF910895CF92DF9282
:10025000EF92FF920F931F93CF93DF93EC016A010C
:1002600041155105B1F0062F172F7C01E40EF51E44
:1002700028988FE0D3DF8D2FD1DF8C2FCFDF219611
:1002800080E0CCDFF80181938F01289ACE15DF053D
:1002900079F7C601DF91CF911F910F91FF90EF90F9
:1002A000DF90CF900895CF92DF92EF92FF920F935D
:1002B0001F93CF93DF93EC016A0141155105A9F01B
:1002C000062F172F7C01E40EF51E289880EFA6DF7D
:1002D0008D2FA4DF8C2FA2DF2196F80181918F0151
:1002E0009DDF289ACE15DF0581F7C601DF91CF91FA
:1002F0001F910F91FF90EF90DF90CF900895EF92B4
:10030000FF920F931F93259A2D9A2D982FEF83EC30
:1003100099E0215080409040E1F700C000006C9AC5
:1003200074982FEF83EC99E0215080409040E1F7E2
:1003300000C000006C982FEF83EC99E021508040C2
:100340009040E1F700C0000080E090E49093A7099E
:100350008093A60980E090E690933E0680933D0648
:1003600080E098E49093A9098093A80980E098E63A
:100370009093400680933F0680E090E59093AB0910
:100380008093AA0980E090E790934206809341060B
:1003900080E098E59093AD098093AC0980E098E700
:1003A000909344068093430660E880E090E037D065
:1003B00065E58BE190E033D065E58AE190E02FD0F0
:1003C0006894EE24E1F8F12C0EED10E02CEC30E016
:1003D0004BEB50E06AEA70E080E090E051D02CE412
:1003E00030E040E050E060E070E08AE090E06FD004
:1003F0002EEF30E040E050E060E070E08AE090E016
:1004000081D020E030E04FEF50E06FEF70E08FEFF1
:1004100090E093D01F910F91FF90EF9008951F935C
:10042000CF93DF93D82F192FC62F289880EFF6DEB1
:10043000812FF4DE8D2FF2DE8C2FF0DE833011F071
:10044000289A5DDF289A81E0DF91CF911F9108956E
:100450001F93CF93DF93C82FD0E0DC2FCC27CF5F43
:10046000DB4FCE01DCDF10E001C01F5FCE01DDDE1F
:10047000882311F01F3FC9F7DF91CF911F91089595
:10048000EF920F931F93CF93DF93162FD42FC22F8A
:10049000682F89E090E0C3DF612F8AE090E0BFDF42
:1004A0006D2F8BE090E0BBDF6C2F8CE090E0B7DF2E
:1004B000602F8DE090E0B3DF6E2D8EE090E0AFDF37
:1004C00081E0DF91CF911F910F91EF9008951F93DD
:1004D000CF93DF93162FD42FC22F682F8FE090E099
:1004E0009EDF612F80E190E09ADF6D2F81E190E047
:1004F00096DF6C2F82E190E092DF81E0DF91CF9177
:100500001F9108951F93CF93DF93162FD42FC22FDF
:10051000682F81E090E083DF612F82E090E07FDF51
:100520006D2F83E090E07BDF6C2F84E090E077DF3D
:1005300081E0DF91CF911F9108951F93CF93DF93B7
:10054000162FD42FC22F682F85E090E068DF612F2F
:1005500086E090E064DF6D2F87E090E060DF6C2F35
:1005600088E090E05CDF81E0DF91CF911F910895FA
:1005700090E00496982F8827860F971F56CE0895EF
:100580001F93CF93DF93182F60E270E0F1DFC82F45
:10059000D0E061E270E0812FEBDFDC2FCC279E0101
:1005A000282BC901DF91CF911F9108951F93CF93FD
:1005B000DF93182F66E270E0DBDFC82FD0E067E240
:1005C00070E0812FD5DFDC2FCC279E01282BC901BD
:1005D000DF91CF911F9108959B0190E00496982F91
:1005E0008827642F820F931F1ACF0895882341F024
:1005F00080916803813041F018F08230C1F024C04E
:1006000081E08093680320C0462F61E070E080E0C5
:10061000E3DF61E070E080E0ABDF882321F082E07F
:100620008093680311C08FEF809368030DC061E071
:1006300070E080E09DDF882321F082E080936803F2
:1006400003C08FEF80936803809168030895882327
:1006500041F080916703813041F018F08230C1F0A1
:1006600024C081E08093670320C0462F61E070E0E2
:1006700081E0B2DF61E070E081E07ADF882321F081
:1006800082E08093670311C08FEF809367030DC0F2
:1006900061E070E081E06CDF882321F082E08093EC
:1006A000670303C08FEF809367038091670308950A
:1006B000882341F080916603813041F018F0823048
:1006C000C1F024C081E08093660320C0462F61E022
:1006D00070E082E081DF61E070E082E049DF882342
:1006E00021F082E08093660311C08FEF8093660350
:1006F0000DC061E070E082E03BDF882321F082E002
:100700008093660303C08FEF809366038091660336
:100710000895CF93C82F692F80E194E080DE6C2F7D
:1007200081E194E07CDECF910895CF93DF93EC01DB
:1007300068818CE094E073DE69818DE094E06FDE87
:100740006A818EE094E06BDE6B818FE094E067DE7F
:10075000DF91CF910895CF93C82F692F80E195E065
:100760005EDE6C2F81E195E05ADECF910895CF9344
:10077000DF93EC0168818CE095E051DE69818DE0CA
:1007800095E04DDE6A818EE095E049DE6B818FE079
:1007900095E045DEDF91CF910895CF93C82F692F63
:1007A00080E196E03CDE6C2F81E196E038DECF916F
:1007B0000895CF93DF93EC0168818CE096E02FDE03
:1007C00069818DE096E02BDE6A818EE096E027DE7F
:1007D0006B818FE096E023DEDF91CF9108959F92A9
:1007E000AF92BF92CF92DF92EF92FF920F931F933F
:1007F000CF93DF93982E5B017A01E90164E270E008
:10080000B7DEC82ED12C65E270E0892DB1DE1C2D3B
:100810000027082B0A0D1B1D98013770C92CD12CFD
:10082000F601EE0FFF1FEA55F64F80819181820F8E
:10083000931FA9014C0F5D1F41305840B8F040E0B4
:1008400058E05A01A21AB30AA501B7012CDDAE0186
:100850004A195B09B7016A0D7B1DF601EE0FFF1FF8
:10086000EA55F64F808191811EDD03C0AE01B701CC
:100870001ADDC00FD11F4D2F64E270E0892DACDE70
:100880004C2F65E270E0892DA7DEDF91CF911F919B
:100890000F91FF90EF90DF90CF90BF90AF909F901F
:1008A0000895DF92EF92FF920F931F93CF93DF9300
:1008B000D82E0FEF1FEFE12CF12C8D2D61DEEC0116
:1008C000009719F08D2D5CDE7C01EC16FD0629F0F9
:1008D000015011090115110581F7C701DF91CF9171
:1008E0001F910F91FF90EF90DF900895DF92EF92AC
:1008F000FF920F931F93CF93DF93D82E8B017A0132
:10090000E901CFDF8C179D0718F48D2DCADFEC01AC
:100910009E01A701B8018D2D62DFCE01DF91CF913D
:100920001F910F91FF90EF90DF90089520E3FC015D
:1009300020833296862F82958F7090E1899F60196F
:1009400011246A3010F4605D01C0695C62938823F1
:1009500011F0682FEFCF08958FB7807880935B05F3
:10096000F89480915B05089580915B05882309F0D8
:10097000789480915B050895A8952FE088E190E038
:100980000FB6F894A895809360000FBE2093600086
:1009900008958091810291E0980F909381020895CB
:1009A0008091800291E0980F909380020895CF93F8
:1009B000DF93C82FD62FD0DFEC2FF0E0E550FB4FB0
:1009C000D083DD23A9F0EC2FE695E695E695F0E0DF
:1009D000E357FC4F4081C77021E030E0C90102C0FD
:1009E000880F991FCA95E2F780958423808313C0EE
:1009F000EC2FE695E695E695F0E0E357FC4F408155
:100A0000C77021E030E0C90102C0880F991FCA9564
:100A1000E2F7842B8083A8DFDF91CF9108951F93A5
:100A2000CF93DF93182FEB0197DFE12FF0E0EE0F6C
:100A3000FF1FE55CFB4FD183C083CD2BA9F0E12FD5
:100A4000E695E695E695F0E0E058FC4F408117709A
:100A500021E030E0C90102C0880F991F1A95E2F722
:100A600080958423808313C0E12FE695E695E69573
:100A7000F0E0E058FC4F4081177021E030E0C90100
:100A800002C0880F991F1A95E2F7842B80836CDFD0
:100A9000DF91CF911F910895CF92DF92EF92FF9255
:100AA000CF93C82F6A017B0157DFEC2FF0E0EE0FE8
:100AB000FF1FEE0FFF1FE556FC4FC082D182E2827E
:100AC000F382CD28CE28CF28A9F0EC2FE695E69525
:100AD000E695F0E0E658FC4F4081C77021E030E039
:100AE000C90102C0880F991FCA95E2F78095842337
:100AF000808313C0EC2FE695E695E695F0E0E65886
:100B0000FC4F4081C77021E030E0C90102C0880F6E
:100B1000991FCA95E2F7842B808326DFCF91FF903F
:100B2000EF90DF90CF900895CF93C82F15DFEC2F73
:100B3000E695E695E695F0E0E058FC4F208130E040
:100B40008C2F877002C0359527958A95E2F720FF94
:100B50000DC0EC2FF0E0EE0FFF1FE55CFB4F208196
:100B60003181C1E0232B19F0C0E001C0C0E0FCDE00
:100B70008C2FCF910895CF93C82FEEDEEC2FE69502
:100B8000E695E695F0E0E658FC4F208130E08C2FAA
:100B9000877002C0359527958A95E2F720FF13C02C
:100BA000EC2FF0E0EE0FFF1FEE0FFF1FE556FC4F9E
:100BB0004081518162817381C1E0452B462B472BD7
:100BC00019F0C0E001C0C0E0CFDE8C2FCF910895B6
:100BD000D3DE109280008AEE8093810080E29EE452
:100BE0009093890080938800EFE6F0E08081826036
:100BF000808380E090E02FEFFC01E357FC4F2083DF
:100C000001968C309105C1F780E090E02FEFFC0158
:100C1000E058FC4F208301968D309105C1F78FEF8E
:100C200080937A0380937B0380937C0380937D037E
:100C300080937E0380937F0308951F920F920FB6D7
:100C40000F9211240BB60F922F933F934F935F9304
:100C50006F937F938F939F93AF93BF93EF93FF9384
:100C6000809178038F5F8093780380E090E061E06B
:100C700070E0282F26952695269530E0F901E75655
:100C8000FC4F4081A82FA77050E00A2E02C0559556
:100C900047950A94E2F740FD14C0FC01ED5AFA4F63
:100CA00040814150408341110CC0F901E756FC4F8F
:100CB00040819B0102C0220F331FAA95E2F7242B2B
:100CC0002083019688309105A1F680916903909167
:100CD0006A03A0916B03B0916C030196A11DB11D35
:100CE0008093690390936A03A0936B03B0936C03A2
:100CF000FF91EF91BF91AF919F918F917F916F91F4
:100D00005F914F913F912F910F900BBE0F900FBEAF
:100D10000F901F901895FF920F931F93CF93DF931F
:100D2000F894F0907803109278037894FF2009F4F7
:100D3000D2C010E040E050E021E030E08091670850
:100D400090916808A0916908B0916A080196A11D68
:100D5000B11D8093670890936808A0936908B093C9
:100D60006A08CA01F894682F66956695669570E0E2
:100D7000FB01E357FC4FE081A82FA770F0E00A2E9B
:100D800002C0F595E7950A94E2F7E0FD14C0FC0176
:100D9000E550FB4FB081B150B083B1110CC0FB01E5
:100DA000E357FC4FB081B90102C0660F771FAA95C7
:100DB000E2F76B2B6083789401968835910591F664
:100DC000CA01F894682F66956695669570E0FB01F8
:100DD000E058FC4FE081C82FC770F0E00C2E02C035
:100DE000F595E7950A94E2F7E0FD1AC0DC01AA0F39
:100DF000BB1FA55CBB4FED91FC91119731971196EC
:100E0000FC93EE93EF2B61F4FB01E058FC4FA081C3
:100E1000B90102C0660F771FCA95E2F76A2B60839B
:100E2000789401968036910561F6BA01F894E62F20
:100E3000E695E695E695F0E0DF01A658BC4F8C916B
:100E4000062F077090E0002E02C0959587950A94B2
:100E5000E2F780FD21C0EB01CC0FDD1FCC0FDD1FC1
:100E6000C556DC4F88819981AA81BB810197A10970
:100E7000B10988839983AA83BB83892B8A2B8B2B07
:100E800059F4E658FC4FA081C90102C0880F991F90
:100E90000A95E2F78A2B808378946F5F7F4F6832E0
:100EA000710521F6809165038F5F843619F0809378
:100EB00065030EC0109265038091600890916108EF
:100EC00090936C0880936B0850936108409360087E
:100ED0001F5F1F1133CFDF91CF911F910F91FF90B3
:100EE0000895A8958091600890916108019690936B
:100EF00061088093600880917903E82FF0E0E55065
:100F0000FB4F908190959093190820916B062917BB
:100F100010F490936B066FEF4ACD08953ADD8093FD
:100F20001A08E1ECF0E080818860808387E690E039
:100F30009093C5008093C4000A9A129A08951F9254
:100F40000F920FB60F9211240BB60F922F935F934F
:100F50006F937F938F939F93AF93BF93EF93FF9381
:100F6000E0916506F0E0E658F94F20818091650632
:100F700090E0019660E971E00E94441D809365064F
:100F80002093C600E0ECF0E0808180648083909143
:100F9000990980916506981305C0E1ECF0E0808125
:100FA0008F7D8083FF91EF91BF91AF919F918F9142
:100FB0007F916F915F912F910F900BBE0F900FBE9D
:100FC0000F901F901895482F2091990930E0C90182
:100FD000019660E971E00E94441DE0919909F0E0FA
:100FE000E658F94F408380939909E1ECF0E0808165
:100FF0008062808381E008950F931F93CF93DF93E6
:10100000062F662341F0C82FD92F10E08991DBDF2E
:101010001F5F1013FBCF802FDF91CF911F910F9196
:101020000895CF93DF93CDB7DEB729970FB6F89425
:10103000DEBF0FBECDBF198660E0FE0139964DECD4
:10104000849F212D1124922F969596959695990F10
:10105000392F330F330F930F891B982F822F8695CB
:10106000869586956F5F905D92938111E9CFCF0150
:10107000C3DF29960FB6F894DEBF0FBECDBFDF9158
:10108000CF910895FF920F931F93CF93DF93CDB726
:10109000DEB761970FB6F894DEBF0FBECDBFAC01CF
:1010A000198AF12CFE0171969A01ADECBCEC0E94FC
:1010B000731D9C013695279536952795369527956E
:1010C000C901880F991F220F331F220F331F220FD0
:1010D000331F280F391F8A01021B130B9A010E942C
:1010E000731DAC015695479556954795569547956E
:1010F000F394005D029341155105B1F66F2DCF01B8
:101100007BDF61960FB6F894DEBF0FBECDBFDF91D7
:10111000CF911F910F91FF9008951F93CF93DF936D
:10112000EC0110E006C0FE01E20FF31F80814BDFEF
:101130001F5F212F30E0FE0101900020E9F7319779
:10114000CF018C1B9D0B2817390768F3DF91CF91D6
:101150001F9108951F93CF93DF93EC0110E006C019
:10116000FE01E80FF91F80812EDF1F5F812F90E0C5
:10117000FE0101900020E9F73197EC1BFD0B8E1763
:101180009F0770F38DE01FDF8AE01DDFFE010190F5
:101190000020E9F7CF0101978C1BDF91CF911F91C0
:1011A00008958DE010DF8AE00EDF82E008951F933E
:1011B000CF93DF93D62F172FC0916403882331F08C
:1011C000C13051F018F0C23001F127C081E08093A6
:1011D0006403C13059F531C060E181E007DA8F3F27
:1011E000E1F46FEF82E094E01AD962E080E094E0ED
:1011F00016D9612F84E094E012D96D2F85E094E038
:101200000ED982E08093640315C061E081E0EED9DD
:101210008F3F19F48093640310C0809164038C178E
:1012200061F0813019F0823029F007C060E080E081
:10123000DDD903C060E080E0D9D980916403DF91FB
:10124000CF911F9108951F93CF93DF93D62F172F20
:10125000C0916303882331F0C13051F018F0C230DF
:1012600001F127C081E080936303C13059F531C09B
:1012700060E181E0ECD98F3FE1F46FEF82E095E02F
:10128000CED862E080E095E0CAD8612F84E095E096
:10129000C6D86D2F85E095E0C2D882E080936303C5
:1012A00015C061E081E0D3D98F3F19F480936303C7
:1012B00010C0809163038C1761F0813019F0823087
:1012C00029F007C060E080E0C2D903C060E080E0A0
:1012D000BED980916303DF91CF911F910895CF9381
:1012E000DF93EA01FB019081911109C09181911175
:1012F00006C09281911103C093819923E9F0209750
:10130000F1F0811107C0CB0110DACE0102DA81E0E1
:1013100090E01AC0813039F4CB0129DACE011BDA12
:1013200081E090E011C0823069F4CB0142DACE0155
:1013300034DA81E090E008C080E090E005C080E011
:1013400090E002C081E090E0DF91CF910895AB0181
:101350001092CD091092CC09BC0180E0C0CF089555
:10136000AB011092460610924506BC0181E0B7CF52
:1013700008959B016091CC097091CD09AC0180E08A
:10138000B5DA2091CC093091CD09280F391F30935F
:10139000CD092093CC0908959B0160914506709179
:1013A0004606AC0181E0A2DA20914506309146065E
:1013B000280F391F30934606209345060895CF9392
:1013C000C0916203882331F0C13051F018F0C2306F
:1013D00081F029C081E080936203C13051F52CC0B7
:1013E00060E281E034D98F3FF1F482E080936203C0
:1013F00023C062E070E081E0BBD884FD0BC062E0F6
:1014000070E081E0B5D883FF0EC048E162E070E093
:1014100081E0E2D840E162E070E081E0DDD88FEF6A
:101420008093620309C0809162038C1729F0813098
:1014300019F460E280E00BD980916203CF910895A6
:10144000CF93C0916103882331F0C13051F018F07F
:10145000C23081F029C081E080936103C13051F531
:101460002CC060E281E0C2D88F3FF1F482E080932B
:10147000610323C062E070E080E07AD884FD0BC095
:1014800062E070E080E074D883FF0EC048E162E063
:1014900070E080E0A1D840E162E070E080E09CD89C
:1014A0008FEF8093610309C0809161038C1729F04D
:1014B000813019F460E280E099D880916103CF9186
:1014C00008951F93CF93DF93D62F172FC0916003FA
:1014D000882331F0C13051F018F0C23021F12BC017
:1014E00081E080936003C13079F535C060E181E02F
:1014F000DFD88F3F01F56FEF82E096E00E940F0288
:1015000062E080E096E00E940F02612F84E096E0A6
:101510000E940F026D2F85E096E00E940F0282E08C
:101520008093600315C061E081E0C2D88F3F19F459
:101530008093600310C0809160038C1761F081304C
:1015400019F0823029F007C060E180E0B1D803C013
:1015500061E080E0ADD880916003DF91CF911F9171
:101560000895AB011092630810926208BC0182E0FA
:10157000B6CE08959B016091620870916308AC013A
:1015800082E0B4D92091620830916308280F391F96
:1015900030936308209362080895AF92BF92CF9270
:1015A000DF92EF92FF920F931F93CF93DF931F92DF
:1015B0001F92CDB7DEB77A8369837A018901E98109
:1015C000FA81F770C82ED12CD601AA0FBB1FA35CDD
:1015D000B94F8D919C918E0F9F1F2E0F3F1F213071
:1015E0003840C8F020E038E05901AE1ABF0AA50122
:1015F000B7010E942601A8014A195B09B7016A0DCB
:101600007B1DF601EE0FFF1FE35CF94F8081918196
:101610000E94260104C0A801B7010E9426010F9074
:101620000F90DF91CF911F910F91FF90EF90DF907E
:10163000CF90BF90AF900895DF92EF92FF920F93FB
:101640001F93CF93DF93D82E7B018A0168E270E06D
:101650000E94B802C82FD0E069E270E08D2D0E9490
:10166000B802DC2FCC27C82B9801A701BE018D2D15
:1016700094DFC00FD11F4D2F68E270E08D2D0E94C6
:10168000EC024C2F69E270E08D2D0E94EC02DF919C
:10169000CF911F910F91FF90EF90DF900895DF920F
:1016A000EF92FF920F931F93CF93DF93D82E0FEFFC
:1016B0001FEFE12CF12C8D2D0E94D602EC0100973A
:1016C00021F08D2D0E94D6027C01EC16FD0629F03A
:1016D000015011090115110571F7C701DF91CF9173
:1016E0001F910F91FF90EF90DF900895DF92EF929E
:1016F000FF920F931F93CF93DF93D82E7B018A0124
:10170000CEDFEC01009799F463E070E08D2D0E942C
:10171000B8028431D9F08823C9F0C1E0D0E08C311F
:1017200011F4C0E0D0E0D195C195D10904C00817EB
:1017300019070CF4E8011C161D0644F4AE01B701AC
:101740008D2D7ADF60E48D2D0E942802CE01DF917D
:10175000CF911F910F91FF90EF90DF9008950F931D
:101760001F93CF93DF931F92CDB7DEB7082F10E002
:10177000F801EE0FFF1FE55FF74F20813181232B2A
:10178000B1F041E050E0BE016F5F7F4FAFDF181650
:10179000190684F4F801EE0FFF1FE55FF74F808113
:1017A0009181019791838083898190E005C08FEFBB
:1017B0009FEF02C08FEF9FEF0F90DF91CF911F91AE
:1017C0000F910895DF92EF92FF920F931F93CF93A3
:1017D000DF93CDB7DEB728970FB6F894DEBF0FBE04
:1017E000CDBFD82EE82EF12CF701EE0FFF1FE55FDD
:1017F000F74F20813181232B41F08F018D2DAFDFF9
:10180000F80120813181232BC9F78D2D48DF18166F
:101810001906ACF548E050E0BE016F5F7F4F8D2D9B
:1018200065DF9C01181619063CF589818093BB0978
:101830008A818093BC098B818093BD098C818093C0
:10184000BE09C701880F991FFC01ED54F64F2D8189
:1018500030E0322F22274E81240F311D3183208327
:101860002F8130E0322F22274885240F311DFC01C3
:10187000E55FF74F31832083822F932F02C080E0F2
:1018800090E028960FB6F894DEBF0FBECDBFDF9173
:10189000CF911F910F91FF90EF90DF90089580E01E
:1018A00091CF089581E08ECF089540910B0850911B
:1018B0000C0841155105D9F06417750728F0BC01D3
:1018C00080E014DF9C0105C0AB01BC0180E00EDFAD
:1018D0009C011216130674F4EBE0F8E0808191810C
:1018E000821B930B91838083822F932F08958FEF18
:1018F0009FEF08958FEF9FEF089540910D0850914D
:101900000E0841155105D9F06417750728F0BC0180
:1019100081E0ECDE9C0105C0AB01BC0181E0E6DEAC
:101920009C011216130674F4EDE0F8E080819181B9
:10193000821B930B91838083822F932F08958FEFC7
:101940009FEF08958FEF9FEF089580E008CF0895EF
:101950008091740390917503A0917603B091770301
:101960000196A11DB11D8093740390937503A093FC
:101970007603B093770380E0A1C00895CF93C09120
:101980005F03811103C010925F0306C0C13099F05C
:1019900018F0C230F9F047C080915E03811104C095
:1019A0000E94C90480935E0381E080935F03C1308D
:1019B00009F03FC042C060E281E00E9458038F3FBF
:1019C00091F568EE73E080915E0329D882E0809300
:1019D0005F0333C062E070E082E00E94B80284FDE1
:1019E00018C062E070E082E00E94B80283FF07C086
:1019F00048E162E070E082E00E94EC0214C0809155
:101A00005E0392D8882379F0A3DF8FEF80935F0382
:101A100014C040E162E070E082E00E94EC028FEFCF
:101A200080935F030AC080915F038C1731F081308F
:101A300021F460E280E00E94580380915F03CF911F
:101A40000895BF92CF92DF92EF92FF920F931F9370
:101A5000CF93DF937B016A01E901B0905D03882396
:101A600031F0BB2021F081E0B81639F00DC081E0E3
:101A700080935D03B8120EC015C081E07FDF8F3FF9
:101A800019F480935D030EC080915D038B1551F0B6
:101A9000813041F4B601C70164DDB801CE016ADDD1
:101AA00080E06CDF80915D03DF91CF911F910F91FA
:101AB000FF90EF90DF90CF90BF9008950F931F930A
:101AC000CF93C0915C03811103C010925C0308C0E6
:101AD000C130A9F028F0C23011F1C43049F14AC038
:101AE00080915B03811104C00E94C90480935B0351
:101AF00081E080935C03C13009F046C0ECC069EE20
:101B000077E081E0DEDC8F3FA9F568EE73E080913D
:101B10005B030E940F0582E080935C03DCC0809130
:101B20005B0302D8882331F184E080935C0331C0E9
:101B300063E070E082E00E94B802823219F01092F5
:101B40005C03C9C04091790250917A020EE310E023
:101B50002EE535E06BE772E081E073DF8F3F51F4F3
:101B600068EE73E080915B030E940F0582E0809332
:101B70005C03B1C080915C038C1709F4ACC0813068
:101B800019F0843031F0A7C069EE77E080E099DC8D
:101B9000A2C0EEE5F5E085E0808381E080935F05FB
:101BA00090917702209178022093600590936105CF
:101BB0008093620582E08093630583E180936405EE
:101BC00086E3809365058091470680936605809142
:101BD0004806809367058091490680936805809147
:101BE0004A068093690587E580936A0585E38093BB
:101BF0006B0581E380936C0580E380936D05809392
:101C00006E0580E280936F0584E58093700595E40E
:101C10009093710593E5909372058093730589E71E
:101C200095E090936D0680936C0680916B02909185
:101C30006C0290A3878F80916F029091700292A3A3
:101C400081A3809167029091680294A383A38091FD
:101C500073029091740296A385A38BE790E090A7FE
:101C600087A388E097E092A781A788E998E094A7E6
:101C700083A78BE895E090935D0580935C05809148
:101C8000690390916A03A0916B03B0916C03880F74
:101C9000991FAA1FBB1FAC01BD01440F551F661F32
:101CA000771F440F551F661F771F840F951FA61FB0
:101CB000B71F85A796A7A7A7B0AB8AE180939B051E
:101CC0004091790250917A020EE310E09F016BE798
:101CD00072E080E0B6DE80915C03CF911F910F919E
:101CE00008958F929F92AF92BF92CF92DF92EF9220
:101CF000FF920F931F93CF93DF93CDB7DEB7A497D7
:101D00000FB6F894DEBF0FBECDBFE82ED62EC72E7D
:101D10006894FF24F5F88E010F5F1F4FF8018F2D97
:101D200011928A95E9F78FEF89A38AA38BA38CA3DD
:101D300063E470E0CE0181960ADB81E089838A83C7
:101D400086E08B831C824091660650916706609105
:101D5000680670916906872E9924AA24BB24B42FA3
:101D6000AA279927882788299929AA29BB2988245D
:101D7000942EA52EB62E88249924BB24882999292F
:101D8000AA29BB29452F562F672F77274427662777
:101D90007727482B592B6A2B7B2B4D835E836F83D0
:101DA0007887C986DA8680E890E09C878B876CE12B
:101DB00070E0C801DEDAF8018F2D11928A95E9F7FB
:101DC00086E0EBE4F6E0D80101900D928A95E1F708
:101DD00060E170E0C801CDDAF8011192FA94E9F7F8
:101DE00006E010E060E270E0CE010196C2DA015038
:101DF000110901151105B1F783E6898392E89A83E9
:101E000093E59B838C8385E38D8381E08E83EF82D2
:101E10009DE3988797E099878A8786E0EBE4F6E070
:101E2000DE011B9601900D928A95E1F78CE0898B7B
:101E30008A8B87E0E2E8F2E0DE01539601900D9292
:101E40008A95E1F760914E06CE0149960E9496046C
:101E500060914F06CE014B960E9496046091500609
:101E6000CE014D960E9496046EE170E0CE0101967F
:101E700080DAF3E0EF1224C082E3898384E08A836E
:101E8000909147069B83909148069C8390914906C8
:101E90009D8390914A069E8396E39F8388878091D5
:101EA0009E05898780919F058A878091A0058B87F1
:101EB0008091A1058C876CE070E0CE01019659DA23
:101EC00087E3898386E08A8391E09B8393E09C8308
:101ED0008D838FE08E838AE38F838BE388878FEFF8
:101EE000898769E070E0CE01019643DAA4960FB6C7
:101EF000F894DEBF0FBECDBFDF91CF911F910F9140
:101F0000FF90EF90DF90CF90BF90AF909F908F9019
:101F100008950F931F93CF93DF93062FEA0110913B
:101F20005A03882329F0112319F0113039F00DC01C
:101F300081E080935A03113071F412C081E080DA9D
:101F40008F3F19F480935A030BC090915A03911755
:101F500039F0913029F4BE01802FC3DE80E070DAC1
:101F600080915A03DF91CF911F910F9108952F9285
:101F70003F924F925F927F928F929F92AF92BF92C9
:101F8000CF92DF92EF92FF920F931F93CF93DF9345
:101F9000CDB7DEB7A2970FB6F894DEBF0FBECDBFA8
:101FA0008A017DDC181619060CF0F7C162E270E0B8
:101FB000CE0101967ADC89E892E0CCD8898131D8CB
:101FC000F0D88981823009F0EAC18091B3099091FB
:101FD000B4098334910509F0E4C18D819E81AF81FC
:101FE000B885CB2EDD24EE24FF24782F66275527D5
:101FF0004427C42AD52AE62AF72A4427582F692FCE
:102000007A2F442755277727C42AD52AE62AF72A84
:10201000892F9A2FAB2FBB278827AA27BB27C82A2F
:10202000D92AEA2AFB2AF801C082D182E282F3820D
:1020300046E050E06BE476E0CE014D960E94171E1C
:10204000892B09F0B0C18091A2099091A309A091B8
:10205000A409B091A509C816D906EA06FB0608F43A
:10206000A4C18091660690916706A0916806B09120
:1020700069068C159D05AE05BF0508F498C18989D0
:102080009A89AB89BC898093470690934806A093B0
:102090004906B0934A060EEC10E057DC01501109D6
:1020A00001151105D1F7712C0F2EFBE0CF2EF8E0B2
:1020B000DF2EF02D812C912C0F2EFEE9AF2EF5E0B6
:1020C000BF2EF02D0F2EF3EB4F2EF9E05F2EF02DEB
:1020D0000F2EFFE92F2EF5E03F2EF02D56C135DCF7
:1020E0008333910509F405C17CF48130910529F110
:1020F00024F4892B09F449C13DC18330910521F1B4
:10210000069709F439C036C18A33910509F47FC0B6
:102110003CF48533910569F0C69709F445C02AC19E
:102120008B33910509F4ACC08F3F910509F42DC1A3
:1021300021C10BDC0ADC782E28C107DC64E070E0EA
:102140008FEA99E002DC21C100DC7C0164E070E0F0
:1021500089E596E0FADBFF24F4E0EF1AF1081E149B
:102160001F040CF012C1082D192DEFDB0F5F1F4F5C
:102170000E151F05D4F309C1E8DB7C0164E070E0B3
:1021800083EC99E0E2DBFF2484E0E81AF1081E14F6
:102190001F040CF0FAC0082D192DD7DB0F5F1F4F5D
:1021A0000E151F05D4F3F1C0D0DBF501908191111C
:1021B0000EC0F101908191110AC0E0EAF5E0908132
:1021C000911105C0E1EAF5E09081992399F0F501BC
:1021D0000081118122813381F2014081518162812C
:1021E0007381041715072607370721F0F82E811190
:1021F00006C0CBC064E070E0C501A7DBC6C0082DF7
:10220000192DA3DB0F5F1F4FF012FBCFBEC09DDB6C
:1022100064E070E08EE696E098DB80916E06909127
:102220006F06A0917006B09171060B2F112722271F
:102230003327782F662755274427042B152B262B69
:10224000372B4427582F692F7A2F44275527772774
:10225000042B152B262B372B492F5A2F6B2F772723
:10226000442766277727402B512B622B732B4093F3
:102270006E0650936F06609370067093710685C06A
:1022800064DB64E070E085E198E05FDB8091150835
:1022900090911608A0911708B09118080B2F1127DC
:1022A00022273327782F662755274427042B152B01
:1022B000262B372B4427582F692F7A2F4427552751
:1022C0007727042B152B262B372B492F5A2F6B2FB3
:1022D0007727442766277727402B512B622B732BB8
:1022E00040931508509316086093170870931808C8
:1022F0004CC02BDB64E070E08DE596E026DB80913E
:102300005D0690915E06A0915F06B09160060B2F6E
:10231000112722273327782F662755274427042B98
:10232000152B262B372B4427582F692F7A2F44271C
:1023300055277727042B152B262B372B492F5A2F60
:102340006B2F7727442766277727402B512B622B4B
:10235000732B40935D0650935E0660935F06709307
:1023600060064093C8095093C9096093CA097093E5
:10237000CB090BC0EADAF82E882339F0082D192D85
:10238000E4DA0F5F1F4FF012FBCFF60180819181DD
:10239000892B09F0A4CE872D0BC08FEF09C080E0F8
:1023A00007C080E005C080E003C080E001C080E09D
:1023B000A2960FB6F894DEBF0FBECDBFDF91CF91CE
:1023C0001F910F91FF90EF90DF90CF90BF90AF9053
:1023D0009F908F907F905F904F903F902F900895A7
:1023E000CF92DF92EF92FF926B017C016115710534
:1023F0008105910539F00E94021EA70196010E94F5
:10240000571D03C060E070E0CB01FF90EF90DF90BC
:10241000CF900895CF93C0915903811110C080913E
:10242000730381111EC080917F028093730392E039
:10243000980F90937F028F5F8093720312C0C53014
:10244000C9F130F4C13099F060F0C330E1F0D9C087
:10245000C73009F475C008F45CC0CF3F09F4C7C0A9
:10246000D0C081E0809359038C13D9C02BC164E4A0
:1024700070E081E00E94D7088F3F09F0C2C083E07E
:102480008093590314C14AE050E061E081E041DDEE
:102490008F3F09F0B6C081E08093C70948EE53E052
:1024A00060E070E0809173030E944C0585E08093AA
:1024B000590308C1609153067091540680915506E6
:1024C000909156064FEB59E052DD8230A1F4809195
:1024D000BF099091C009A091C109B091C209809330
:1024E000660690936706A0936806B093690686E037
:1024F00080935903E2C0809173030E94BB05882337
:1025000021F081E0809359038AC085E080935903CC
:10251000D9C044E650E063E081E0FBDC8F3F09F086
:1025200070C082E08093C70944EF51E060E070E042
:10253000809173030E944C0587E080935903C2C0C9
:1025400060915306709154068091550690915606FD
:102550004FEB59E00CDD8530B1F520914A0630E0B3
:102560004091490650E06091480670E0809147062E
:1025700090E00E94670220915C0630E040915B068B
:1025800050E060915A0670E08091590690E00E94F8
:1025900082022091B20930E04091B10950E060918F
:1025A000B00970E08091AF0990E00E949D0240E385
:1025B00055E760E070E0809172030E944C058FEF58
:1025C000809359037FC0863021F483E080935903C0
:1025D0006EC0809173030E94BB05882321F081E0C7
:1025E000809359031CC087E0809359036BC080918E
:1025F00072030E94BB05882321F081E08093590378
:102600000EC0809159038C1709F45CC0833009F423
:102610004EC0863009F451C0813009F053C06FECD0
:1026200077E080E090E0DCDEDC01CB010196A11DCB
:10263000B11D8093660690936706A0936806B093D9
:1026400069068093A2099093A309A093A409B0936B
:10265000A50910924706109248061092490610925A
:102660004A061092AF091092B0091092B109109267
:10267000B2091092590610925A0610925B061092F7
:102680005C0610929E0510929F051092A005109274
:10269000A1051092C3091092C4091092C5091092A5
:1026A000C60964E470E080E00E94D7080BC04AE0ED
:1026B00050E061E080E02DDC05C04AE050E063E0DE
:1026C00080E027DC80915903CF910895AF92BF92AB
:1026D000CF92DF92EF92FF920F931F93CF93DF93EE
:1026E000CDB7DEB760970FB6F894DEBF0FBECDBF93
:1026F000A2960EAD1FADA29781E3F80180838EE212
:10270000818383E3828313826F96DFAC6F97DA94C1
:1027100009F44EC021E0A12CB12C0F2EFEE2EF2EC9
:10272000F12CF02D8A2D9B2DCC24C394C20EEEE10A
:10273000F0E0EC0FFD1FE20FF11D20819695982F20
:10274000882797958795322F3F77830F911DDA94CD
:1027500021F02223C4F42C2DE7CF4AE0BE016F5FA5
:102760007F4F0E942F1EF80101900020E9F731975A
:102770008EE290E091838083BE016F5F7F4FC8013E
:102780000E94241E15C04AE0BE016F5F7F4F0E9469
:102790002F1EF80101900020E9F73197F182E082C5
:1027A000BE016F5F7F4FC8010E94241E2C2DBACF3F
:1027B00060960FB6F894DEBF0FBECDBFDF91CF910C
:1027C0001F910F91FF90EF90DF90CF90BF90AF904F
:1027D000089520E4FC0111922A95E9F7FC01E05CE0
:1027E000FF4F1182108208958F929F92AF92BF92F5
:1027F000CF92DF92EF92FF920F931F93CF93DF93CD
:10280000CDB7DEB760970FB6F894DEBF0FBECDBF71
:102810008C017B01FC01EE5BFF4F8081843009F469
:102820007DC0863009F46DC0843409F066C076C07E
:1028300081E3D7018C938EE211968C93119783E3F9
:1028400012968C93129713961C92F801E05CFF4F3E
:10285000B080BA9411F181E0812C912C0F2EFEE210
:10286000CF2ED12CF02D282D392DAA24A394A80EDB
:10287000F801E80FF11D80813695322F2227379518
:102880002795982F9F77290F311DBA9409F453C0CB
:1028900088230CF067C08A2DE8CF80E079C0F8016A
:1028A000ED5BFF4F10823397208131812115310577
:1028B000D1F080E090E060E03396A801405C5F4F8B
:1028C000D801A60FB11D2C91D701A80FB91F2C93C9
:1028D00060816F5F6083862F90E0DA012D913C91DB
:1028E0008217930768F3F701E20FF31F108280E06D
:1028F0004FC0C8016EDF81E04BC0C8016ADF87E0CE
:1029000047C0FB0101900020E9F7CF01861B970B20
:1029100002978417950708F48BCFEBCFF70101904E
:102920000020E9F7CF018E199F09029784179507B8
:1029300008F4B5CFDECF4AE0BE016F5F7F4FC9011B
:102940000E942F1EF70101900020E9F731978EE2D7
:1029500090E091838083BE016F5F7F4FC7010E942B
:10296000241E9BCF4AE0BE016F5F7F4FC9010E94CA
:102970002F1EF70101900020E9F73197D182C08224
:10298000BE016F5F7F4FC7010E94241E8A2D6BCF4F
:1029900060960FB6F894DEBF0FBECDBFDF91CF912A
:1029A0001F910F91FF90EF90DF90CF90BF90AF906D
:1029B0009F908F9008951F93CF93DF93FC01EE5B60
:1029C000FF4F2081223039F5FB01108211821282E3
:1029D0001382FC01E05CFF4F20813181211531051C
:1029E000E9F0162FE62FF72F40E050E0EC01C05C35
:1029F000DF4F40955095280F391FD901A40FB51FFF
:102A00002C9121934E2F411B50E028813981421790
:102A1000530778F305C0DDDE87E003C080E001C026
:102A200080E0DF91CF911F910895CF9320E4FC01C6
:102A300011922A95E9F7262F2F7B2430C9F5FA0148
:102A400001900020E9F79F01241B350B225031092A
:102A50002034310550F5FC01EE5BFF4F6083FA0135
:102A600001900020E9F73197BF01641B750BFC0151
:102A7000E05CFF4F718360833396108261157105AE
:102A8000D1F020E030E0C0E0DF01FA01E20FF31FF7
:102A90002081FC01EC0FF11D2083CF5FCC932C2F04
:102AA00030E02617370788F308C093DE81E006C0C0
:102AB00090DE87E003C080E001C080E0CF91089500
:102AC00020E4FC0111922A95E9F7623011F0643498
:102AD00071F4FC01E05CFF4F22E030E031832083A1
:102AE00032966083FC015083418380E0089571DE5B
:102AF00087E0089570E4FC0111927A95E9F762305D
:102B000011F0643481F4FC01E05CFF4FA4E0B0E01C
:102B1000B183A08332966083FC015083418332836A
:102B2000238380E0089555DE87E00895FC0180E46A
:102B3000DF011D928A95E9F78FEB860F843010F044
:102B4000673481F4DF01A05CBF4F84E090E0119610
:102B50009C938E9312966C9350834183328323838C
:102B600080E00895CF0135DE87E008952F923F92EF
:102B70004F925F926F927F928F929F92AF92BF928D
:102B8000CF92DF92EF92FF920F931F93CF93DF9339
:102B9000CDB7DEB72B970FB6F894DEBF0FBECDBF13
:102BA0009987888780910D0890910E08909352061E
:102BB000809351068CE992E00E948D088091510625
:102BC000909152060E94420889E9E2EAF5E0DF01AD
:102BD0001D928A95E9F760915106709152066A3903
:102BE000710508F0C7C1CF010E947D0C8091A2053C
:102BF000803309F0C1C18091A50523E0280F30E0A2
:102C0000F901EE55FA4FD28095E0980F792E7D0CA0
:102C1000E72CF12CF701EE55FA4F8180B481B9838E
:102C200094E0970DAB2EA90E0A2D10E0F801EE5599
:102C3000FA4F92819C836894BB24B1F8BA0CB90E08
:102C4000AB2DB0E0FD01EE55FA4F92806894CC2494
:102C5000C1F8CB0CC90C4C2C512CF201EE55FA4F9B
:102C6000668096E09C0D960D9D83292E312CA10146
:102C70004E555A4FFA01F181FF83FA01F281FE832A
:102C8000E885F9851182128213821482882331F13A
:102C900047EA55E0815090E088559A4F3B832A835C
:102CA000BB87AA87FA012191A885B98511964D9114
:102CB0005D916D917C911497762F652F542F442749
:102CC000422B11964D935D936D937C931497E81767
:102CD000F90749F72A813B81AA85BB85E885F985F3
:102CE000808280926408F4E1FD1538F481E0A885C3
:102CF000B98519968C9382E06FC1E885F98580814A
:102D0000833A09F03FC06D2D70E0809113089091D7
:102D100014086817790709F06EC06115710509F488
:102D200071C0C90103964091A0095091A109FC010D
:102D3000EE55FA4F3081FA012081321791F00AC026
:102D4000E40FF51FC401820F911DDC019C9180816D
:102D5000981771F082E0A885B98519968C9387E061
:102D60003BC120E08E559A4FBB83AA83392D4C017D
:102D70002F5FE22FF0E0E617F70710F3AA81BB817F
:102D8000932E40C0803AB9F54D2D50E08091570602
:102D9000909158064817590771F54115510591F161
:102DA000B9016D5F7F4F20919C0530919D05FB011E
:102DB000EE55FA4F9081F9018081981791F00AC081
:102DC000820F931FFB01ED0DF11D8080FC018081BE
:102DD000881651F082E0A885B98519968C9387E012
:102DE000FBC0D12C6E557A4FD3948D2D90E0841773
:102DF000950730F307C082E0A885B98519968C93B2
:102E000087E0EAC0E885F985158216821782108668
:102E1000F981FF2351F1A70149555A4F872D90E0C1
:102E200088559A4F2F2F2150820F911DBB83AA8363
:102E3000FA01E884F9842191D70115964D915D91AD
:102E40006D917C911897762F652F542F4427422B34
:102E500015964D935D936D937C931897E817F9073A
:102E600051F7AA81BB81F986E886E885F985118644
:102E7000FC81FF23E1F00B551A4F8A2D90E08A5513
:102E80009A4F2F2F2150820F911D40E050E0BA0140
:102E9000F80108851985762F652F542F4427219135
:102EA000422BE817F907B9F71987088703C040E0F4
:102EB00050E0BA01E885F9854187128613861486A9
:102EC00015869920E9F0AB55BA4F8B2D90E08A55C5
:102ED0009A4F2FEF290D820F911D2D914285538519
:102EE00064857585762F652F542F4427422B4287A2
:102EF000538764877587A817B90779F7F987E88733
:102F0000F0E4F61538F481E0A885B98519968C931C
:102F100083E062C080E4E885F9853E96DF011D927A
:102F20008A95E9F7E885F985E25BFF4F862D90E009
:102F300091838083662021F1F201E755FA4FA8853D
:102F4000B9851E968C2D90E086559A4F6A94860D11
:102F5000911D4885598521912D93E817F907D9F7D7
:102F6000598748870DC021912D93E817F907D9F7A4
:102F700080E032C086E030C085E02EC080E02CC00A
:102F8000E885F985EE56FF4FBF81B083E885F98566
:102F9000E057FF4F2E81822F90E09183808380E461
:102FA000E885F985E05BFF4FDF011D928A95E9F71F
:102FB000222321F3F101EB55FA4F48855985405BF7
:102FC0005F4FBD818B2F90E08A559A4F2E81215003
:102FD000820F911DDA01C7CF2B960FB6F894DEBF92
:102FE0000FBECDBFDF91CF911F910F91FF90EF905A
:102FF000DF90CF90BF90AF909F908F907F906F9019
:103000005F904F903F902F900895CF92DF92EF9274
:10301000FF920F931F93CF93DF93DC0110923C0636
:1030200010923B06EC01C25BDF4FFC01E057FF4F03
:103030002881398180819181280F391F2B5D3F4F75
:1030400089E9E2EAF5E0EF0119928A95E9F78091C2
:103050006408833A29F58091130890911408280F89
:10306000391F309352062093510630E33093A20566
:1030700022502093A30522E02093A40521E0209371
:10308000A50524E02093A70527E030E030933C0617
:1030900020933B06BC018093A805009731F566C0DC
:1030A0008091570690915806280F391F3093520689
:1030B0002093510630E33093A20522502093A305BC
:1030C00022E02093A40521E02093A50524E020938D
:1030D000A70527E030E030933C0620933B06BC0177
:1030E0008093A805009711F541C00091A0091091A7
:1030F000A10980E090E0C0E020913B0630913C06C1
:10310000A9014F5F5F4F50933C0640933B06800FF1
:10311000911FFC0180812E553A4FF9018083CF5FCA
:103120008C2F90E08617970738F320C000919C05FC
:1031300010919D0580E090E0C0E020913B06309129
:103140003C06A9014F5F5F4F50933C0640933B06FE
:10315000800F911FFC0180812E553A4FF901808329
:10316000CF5F8C2F90E08617970738F380913B064E
:1031700090913C069C012F5F3F4F30933C0620937B
:103180003B064C91FC01EE55FA4F4083A9014E5588
:103190005A4F7D012EE4E20EF11CE70178819D017A
:1031A00020573F4FE9016881670F665EEA01688337
:1031B00002E0028314E0138315964C91159716963E
:1031C0005C91169717966C91179718967C911897A3
:1031D00074836583568347830087118719964C91C2
:1031E00019971286138614864587068717871A96BD
:1031F0004C911A971B965C911B971C966C911C978F
:103200001D967C911D97708B618B528B438B40E395
:10321000448BE7016881E9015881560F5A5F558B4D
:10322000468BE7014881E9012881240F2C5F278B19
:1032300026E0208F4A9690933C0680933B06E70158
:103240008881818F88819981892B49F180913B0602
:1032500090913C06FD013E969C012E553A4F690126
:103260007C013DE0E31AF108EA1AFB0A02EF1FEFC6
:103270000A1B1B0BBE01A7014E0F5F1F8191E601C8
:1032800089936E0198012E0F3F1FEB018881998170
:103290002817390780F350933C0640933B068091F2
:1032A0003B0690913C06FD01EE56FF4F2081EC015C
:1032B000CE55DA4F2883029690933C0680933B06C6
:1032C00032978081898380819181892B29F10091B6
:1032D0003B0610913C06E054F109E801CE55DA4F67
:1032E0000F5411090A1B1B0B60EB7FEF6A1B7B0B52
:1032F000A057BF4FA8014E0F5F1F819189939B017B
:103300002E0F3F1F8D919C9111972817390790F32D
:1033100050933C0640933B066091B5097091B60905
:103320008BEB99E00E94B0096091510670915206B2
:1033300082EA95E00E94CC0980E0DF91CF911F9155
:103340000F91FF90EF90DF90CF900895CF93DF9390
:10335000CDB7DEB7C459D1090FB6F894DEBF0FBEA2
:10336000CDBFCE01019602DC8093D109998120E680
:10337000290F223018F0933A09F02AC29A85911148
:1033800027C2811125C280E298E09F938F938DB769
:103390009EB7825491090FB6F8949EBF0FBE8DBFA1
:1033A000ADB7BEB7119682E4FE013F9601900D9233
:1033B0008A95E1F78BD90FB6F894DEBF0FBECDBF6B
:1033C00065EC71E080E298E029D4892B29F58981A8
:1033D000833AA9F4CE018F5A9F4FFBD9CF56DF4FC6
:1033E00019821882C159D04085E0CD56DF4F8883BD
:1033F000C359D04082EA898384E08A87DDC146E5EB
:1034000052E064E0CE018F5A9F4F0FDB8093CE09CC
:1034100092EA99838A87D0C163EB71E080E298E0F9
:10342000FDD3892BA9F48981833A29F482EA89831F
:1034300084E08A87C1C145E452E064E0CE018F5A3E
:103440009F4FF3DA8093CE0992EA99838A87B4C1B9
:1034500061EA71E080E298E0E1D3892BD9F48981B7
:10346000833A29F482EA898384E08A87A5C120917E
:10347000690330916A0340916B0350916C0363E4DC
:10348000CE018F5A9F4F52DB8093CE0992EA9983E7
:103490008A8792C16DE771E080E298E0BFD3892B03
:1034A00029F58981833AA9F4EDE1F2E00190002049
:1034B000E9F73197AF014D5152406DE172E0CE0115
:1034C0008F5A9F4F91D98093CE0992EA99838A8728
:1034D00073C14DE152E064E0CE018F5A9F4FA5DAEF
:1034E0008093CE0992EA99838A8766C16FE871E07A
:1034F00080E298E093D3892B29F58981833AA9F456
:10350000E1E3F2E001900020E9F73197AF01415388
:10351000524061E372E0CE018F5A9F4F65D980938C
:10352000CE0992EA99838A8747C141E352E064E079
:10353000CE018F5A9F4F79DA8093CE0992EA998310
:103540008A873AC16BE671E080E298E067D3892B05
:1035500029F58981833AA9F4E9E0F2E0019000209D
:10356000E9F73197AF014950524069E072E0CE016E
:103570008F5A9F4F39D98093CE0992EA99838A87CF
:103580001BC149E052E064E0CE018F5A9F4F4DDAF3
:103590008093CE0992EA99838A870EC169E571E02A
:1035A00080E298E03BD3892BA9F48981833A29F4FE
:1035B00082EA898384E08A87FFC047E050E062E0C6
:1035C000CE018F5A9F4F7CDA8093CE0992EA99837D
:1035D0008A87F2C064E471E080E298E01FD3892B0F
:1035E000B9F48981833A29F482EA898384E08A875D
:1035F000E3C029E033E040E050E062E0CE018F5AC2
:103600009F4F78DA8093CE0992EA99838A87D4C053
:103610006CE271E080E298E001D3892B31F58AEA0F
:1036200092E00E94AA088981833A61F46DE673E012
:10363000CE018F5A9F4FBFD98093CE0992EA9983CA
:103640008A87BAC020916D0330916E0340916F0359
:103650005091700362E0CE018F5A9F4F4BDA8093F6
:10366000CE0992EA99838A87A7C064E171E080E27B
:1036700098E0D4D2892B31F582EB92E00E94AA081F
:103680008981833A61F463E772E0CE018F5A9F4FDC
:1036900092D98093CE0992EA99838A878DC020912E
:1036A000730230917402409175025091760262E08B
:1036B000CE018F5A9F4F1EDA8093CE0992EA9983EA
:1036C0008A877AC064EE70E080E298E0A7D2892B06
:1036D000F9F48DEB92E00E94AA088981833A29F4DB
:1036E00082EA898384E08A8767C020916B023091E7
:1036F0006C0240916D0250916E0262E0CE018F5AD1
:103700009F4FF8D98093CE0992EA99838A8754C053
:103710006CEF70E080E298E081D2892BF9F483ECC1
:1037200092E00E94AA088981833A29F482EA898377
:1037300084E08A8741C020916F02309170024091ED
:1037400071025091720262E0CE018F5A9F4FD2D91E
:103750008093CE0992EA99838A872EC06CEC70E040
:1037600080E298E05BD2892BF9F488EC92E00E9429
:10377000AA088981833A29F482EA898384E08A87C6
:103780001BC020916F0230917002409171025091E4
:10379000720262E0CE018F5A9F4FACD98093CE095E
:1037A00092EA99838A8708C082EA898382E08A87BD
:1037B0008EEC92E00E94AA088AED92E00E94AA088C
:1037C000CE01019622DC809171038F5F809371039B
:1037D000CC56DF4F0FB6F894DEBF0FBECDBFDF91E2
:1037E000CF910895EF92FF920F931F93CF93C091C3
:1037F0005703882339F0C13049F020F0C23009F472
:1038000047C04EC081E08093570358C06894EE24AF
:10381000E1F8F12C0EED10E02CEC30E04BEB50E039
:103820006AEA70E080E090E00E94400210924B064D
:103830008AEA80934C068BEB80934D068CEC809348
:103840004E068EED80934F0682E080935006809165
:10385000080281110FC02091070230E0409106025A
:1038600050E06091050270E08091040290E00E94B7
:1038700067020AC020E030E040E050E060E070E025
:1038800080E090E00E94670282E0809357030EC0C0
:1038900081E00E940A1281E020D081E00E945E0D4A
:1038A000809157038C1751F0823041F480E00E94E0
:1038B0000A1280E012D080E00E945E0D80915703D2
:1038C000CF911F910F91FF90EF90089580E08ADFD4
:1038D0008EEE92E00C94AA080895CF93DF93D82F30
:1038E000C091580380E093E00E948D088C2F0E94C5
:1038F00011080E94D108DD2351F0809158038130D6
:1039000061F028F08230A1F0833079F137C081E096
:1039100080935803C130D9F557C061EA70E081E067
:103920000E9423098F3F51F582E0809358034CC0D9
:1039300063E070E081E00E94B802823229F08CE1FD
:1039400093E00E94AA08C2DF0E94520C892BB1F0BA
:1039500020910D0830910E08232B81F0F7DC83E0D5
:1039600080935803C33069F52FC081E00E94DF09BE
:103970008F3F21F482E08093580326C09091580332
:103980009C1711F1913019F09330D9F01DC061EA04
:1039900070E080E00E94230985E992E090939D0504
:1039A00080939C059093A1098093A00986E090E004
:1039B00090931408809313089093580680935706A9
:1039C00003C080E00E94DF098DE293E00E948D0831
:1039D000C09158038C2F0E9411080E94D1088C2F8F
:1039E000DF91CF91089580911F080E94940588234C
:1039F00091F064E670E080911F080E940F058091AD
:103A00005603811105C02F9A81E0809356030895D3
:103A10002F98109256030895279A9B9A8CB580652B
:103A20008CBD1DBC219A229A2398209A289A0E9424
:103A3000E8050E94D00480930A0840E452E46FE055
:103A400070E00E944C050E948B060C948E0708952E
:103A50000E948B060C9471070895DEDF0E947107A7
:103A60000E947F010E94710780E0BCDE2FEF81EE93
:103A700094E0215080409040E1F700C00000E8DF72
:103A8000B2DF81E0AFDEF2CF97FB072E16F4009491
:103A900006D077FD08D036D007FC05D03EF49095CF
:103AA00081959F4F0895709561957F4F0895052EDC
:103AB00097FB16F400940FD057FD05D037D007FCC4
:103AC00002D046F408C050954095309521953F4F5F
:103AD0004F4F5F4F089590958095709561957F4FFA
:103AE0008F4F9F4F0895A29FB001B39FC001A39F26
:103AF000700D811D1124911DB29F700D811D112427
:103B0000911D0895AA1BBB1B51E107C0AA1FBB1F33
:103B1000A617B70710F0A61BB70B881F991F5A9559
:103B2000A9F780959095BC01CD010895A1E21A2EC8
:103B3000AA1BBB1BFD010DC0AA1FBB1FEE1FFF1F51
:103B4000A217B307E407F50720F0A21BB30BE40BA1
:103B5000F50B661F771F881F991F1A9469F76095E8
:103B60007095809590959B01AC01BD01CF010895A2
:103B70008F929F92AF92BF92CF92DF92EF92FF927D
:103B8000CF93DF93EC01688179818A819B816115F4
:103B900071058105910521F464E279ED8BE597E0EB
:103BA0002DE133EF41E050E082DF49015A019B01F2
:103BB000AC01A7EAB1E47CD06B017C01ACEEB4EFC0
:103BC000A501940181D0C60ED71EE81EF91EF7FE8E
:103BD00006C081E0C81AD108E10880E8F80AC88266
:103BE000D982EA82FB82C701B6019F77DF91CF912C
:103BF000FF90EF90DF90CF90BF90AF909F908F900D
:103C00000895B6CF80E092E0B3CF60930002709346
:103C1000010280930202909303020895FB01DC01EC
:103C20008D91059080190110D9F3990B0895FB012E
:103C3000DC0104C08D910190801921F44150504065
:103C4000C8F7881B990B0895FB01DC010D9000203B
:103C5000E9F7119701900D920020E1F70895BB2735
:103C6000FB015527AA27880F991FAA1FA41710F038
:103C7000A41B83955051B9F7A05DAA3308F0A95D44
:103C8000A193009779F7B111B1931192CB0100C0C4
:103C9000DC01FC01672F71917723E1F7329704C0B3
:103CA0007C916D9370836291AE17BF07C8F308953E
:103CB0001ADFA59F900DB49F900DA49F800D911DBC
:103CC00011240895B7FFF4CFF3DF821B930B0895FF
:043CD000F894FFCF96
:103CD400010000000A00004C014661737469762CEF
:103CE40020554B52000000000000000000454C41EC
:103CF40053204F46464943450000000000000000A1
:103D0400007777772E656C61732E636F6D2E756106
:103D14000000000000312E332E362E312E332E3289
:103D24003030392E3000454C4153204652454543EE
:103D34004F4F4C494E4700C8000000DE0000006AA7
:103D4400000000CC00000054C3EA07C2B061762032
:103D5400103057495A6E6574004D455353414745D9
:103D6400204F503A007075626C6963005061636B58
:103D740065745F53697A653A20004C454446554E54
:103D84004300546672656532636F6E640054726FEB
:103D94006F6D00546169720054636F6E6400556EF8
:103DA4006B6E6F776E204F49440053656E64696E85
:103DB4006720726573706F6E73652E2E2E005245E8
:103DC4005345542045544845524E45542121210021
:103DD4002020534E4D505F4175746F6D61745F7355
:103DE400746172745F73746174653A00524553452B
:103DF400542046524F4D20534E4D50210020205305
:103E04004E4D505F4175746F6D61745F456E645FB4
:103E140073746174653A00524553455420534E4DB2
:063E2400502121210000E5
:00000001FF
