S01A000045746865726E65745F746F5F53657269616C2E73726563CA
S113000095C20000B4C20000B2C20000B0C2000039
S1130010AEC20000ACC20000AAC20000A8C2000028
S1130020A6C20000A4C20000A2C20000A0C2000038
S11300309EC200000C94390C9AC2000098C20000C1
S113004096C200000C941B0A92C2000090C20000E9
S11300508EC200000C94070C8AC2000088C2000003
S113006086C200000C94C2170C9415180C94EC175B
S11300707EC200007CC200007AC2000078C2000088
S113008076C2000074C2000072C2000070C2000098
S11300900C943E180C9491180C94681868C20000D3
S11300A066C2000064C200000C946D0C60C20000C3
S11300B05EC200005CC200005AC2000058C20000C8
S11300C056C2000054C2000052C2000078107810DA
S11300D0481148113D13DC113D133D133D133D13ED
S11300E03D133D133D133D132412CC1249144914FE
S11300F0FF14FF14001683150016001600160016D0
S11301000016001600160016CB15CB154D2D462CE7
S11301108A2DFD2B8A2D8A2D8A2D8A2D8A2D8A2DB2
S11301208A2D8A2D8A2D8A2D8A2D8A2D8A2D8A2D13
S11301308A2D8A2D8A2D8A2D8A2D8A2D8A2D8A2D03
S11301408A2D8A2D8A2D8A2D8A2D8A2D8A2D8A2DF3
S11301508A2D8A2D8A2D8A2D8A2D8A2D8A2D8A2DE3
S11301608A2D8A2D8A2D8A2D8A2D8A2D8A2D8A2DD3
S11301708A2D8A2D8A2D8A2D8A2D8A2D8A2D8A2DC3
S11301808A2D8A2D8A2D8A2D8A2D0F2DCF2CCF2CA6
S1130190CF2CFD2B0F2D8A2DCF2C9635A235E13592
S11301A0F035FB35FF3511364336563666368F3615
S11301B08F368F3684368F36893600C0C101C3032B
S11301C002C2C60607C705C5C404CC0C0DCD0FCFAB
S11301D0CE0E0ACACB0BC90908C8D81819D91BDB1B
S11301E0DA1A1EDEDF1FDD1D1CDC14D4D515D7176B
S11301F016D6D21213D311D1D010F03031F133F31B
S1130200F23236F6F737F53534F43CFCFD3DFF3F6A
S11302103EFEFA3A3BFB39F9F83828E8E929EB2B9A
S11302202AEAEE2E2FEF2DEDEC2CE42425E527E72A
S1130230E62622E2E323E12120E0A06061A163A39A
S1130240A26266A6A767A56564A46CACAD6DAF6F2A
S11302506EAEAA6A6BAB69A9A86878B8B979BB7B9A
S11302607ABABE7E7FBF7DBDBC7CB47475B577B7EA
S1130270B67672B2B373B17170B05090915193531A
S1130280529296565797559594549C5C5D9D5F9FEA
S11302909E5E5A9A9B5B99595898884849894B8B1A
S11302A08A4A4E8E8F4F8D4D4C8C448485458747AA
S11302B04686824243834181804000C1814001C01F
S11302C0804101C0804100C1814001C0804100C122
S11302D0814000C1814001C0804101C0804100C112
S11302E0814000C1814001C0804100C1814001C002
S11302F0804101C0804100C1814001C0804100C1F2
S1130300814000C1814001C0804100C1814001C0E1
S1130310804101C0804100C1814000C1814001C0D1
S1130320804101C0804100C1814001C0804100C1C1
S1130330814000C1814001C0804101C0804100C1B1
S1130340814000C1814001C0804100C1814001C0A1
S1130350804101C0804100C1814000C1814001C091
S1130360804101C0804100C1814001C0804100C181
S1130370814000C1814001C0804100C1814001C071
S1130380804101C0804100C1814001C0804100C161
S1130390814000C1814001C0804101C0804100C151
S11303A0814000C1814001C0804100C1814001C041
S11303B0804101C0804100C18140312E332E362E50
S11303C0312E342E312E323031372E31312E352E1E
S11303D03000312E332E362E312E342E312E323043
S11303E031372E31312E342E3000312E332E362E2D
S11303F0312E342E312E323031372E31312E332EF0
S11304003000312E332E362E312E342E312E323012
S113041031372E31312E322E3000312E332E362EFE
S1130420312E342E312E323031372E31312E312EC1
S11304303000312E332E362E312E332E32303137DA
S11304402E302E332E3000312E332E362E312E32D6
S11304502E312E312E372E3000312E332E362E31C2
S11304602E322E312E312E362E3000312E332E36B2
S11304702E312E322E312E312E352E3000312E33A8
S11304802E362E312E322E312E312E342E30003196
S11304902E332E362E312E322E312E312E332E3057
S11304A000312E332E362E312E322E312E312E3275
S11304B02E3000312E332E362E312E322E312E3167
S11304C02E312E3000C8040101CC040204000019AE
S11304D00000001001000400000046004700C302B1
S11304E0B200B300CD02A400A800D902C600C00027
S11304F0C100C200C500C400BB02C002C102C202E6
S11305004203FFA001FBCF007D67003F44002A3374
S1130510001F22001B19001B10001BA4082000B997
S11305200F2000CD0F3A00E50950000111241FBE31
S1130530CFEFD1E2DEBFCDBF00E00CBF14E0A0E0FE
S1130540B2E0E0E0F4E700E00BBF02C007900D92D8
S1130550A631B107D9F722E1A6E1B4E001C01D92AA
S1130560A134B207E1F70E9444380C94FE3948CD17
S1130570FC018081089592B184E0892782B90895AD
S113058008950895089582E084BD85EF85BDEEE663
S1130590F0E0808182608083089582E08093B000DF
S11305A087EF8093B100E0E7F0E080818260808390
S11305B008951092A0008DE08093A100E2E7F0E09E
S11305C080818260808308950C94B1390895282F26
S11305D030E0F901EE0FFF1FE20FF31FEB53FB4F67
S11305E025913491E82FF0E0E75CF84F8081A90170
S11305F064E0869F400D511D1124CA010895282FDF
S113060030E044E1849FF0011124E251FB4FA591B5
S1130610B4919C91F901EE58F84F408151E0540F88
S1130620508354E1529FF001539FF00D1124E45183
S1130630FB4FA591B4915C91F22FEE27E40FF11DCD
S1130640EC5BFF4E508393FF0FC0F901E295F295E6
S1130650F07FFE27E07FFE27EB55F04F2685378598
S11306602F5F3F4F378726879C7171F021E030E080
S1130670A90102C0440F551F8A95E2F7CA0190915F
S11306804E04892B80934E0408950F931F93CF93A8
S1130690DF93C82FD0E0FE01E55BF84F90819230E4
S11306A009F1FE01E295F295F07FFE27E07FFE2737
S11306B0ED5DFA4F059114918ADF0196FC01859155
S11306C09491C25CD84F2881FC0137E0239FE00D50
S11306D0F11D1124359685919491880F991F800FEF
S11306E0911F0AC0CC0FDD1FCC0FDD1FCC0FDD1F07
S11306F0CA5BDB4F8E819F81DF91CF911F910F9158
S11307000895EAEDF4E0259134918217930799F066
S113071060E06F5F262F30E0F901EE0FFF1FE20F5C
S1130720F31FEE0FFF1FE652FB4F459154918417C0
S1130730950779F703C020E030E060E0E62FF0E0B1
S1130740E55DFA4FE491EE2319F0E13079F1089573
S1130750F22FEE27EC5BFF4E9081F901EA5DF84F32
S1130760808198130FC04091940F81E090E0BC0108
S113077002C0660F771F2A95E2F79B01242B209372
S1130780940F0895F901EB5CF94F81E08083F9013E
S1130790E295F295F07FFE27E07FFE27EB55F04FC0
S11307A08081918101969183808308954091940F73
S11307B081E090E0BC0102C0660F771F2A95E2F742
S11307C09B01242B2093940F08958EBD00000DB43B
S11307D007FEFDCF8EB50895CF93DF93C82FD92F91
S11307E028988FE0F2DF8D2FF0DF8C2FEEDF80E092
S11307F0ECDF289ADF91CF910895CF92DF92EF92A8
S1130800FF920F931F93CF93DF93EC016A0141157D
S11308105105B1F0062F172F7C01E40EF51E289820
S11308208FE0D3DF8D2FD1DF8C2FCFDF219680E0B7
S1130830CCDFF80181938F01289ACE15DF0579F773
S1130840C601DF91CF911F910F91FF90EF90DF9040
S1130850CF900895CF92DF92EF92FF920F931F9360
S1130860CF93DF93EC016A0141155105A9F0062FDE
S1130870172F7C01E40EF51E289880EFA6DF8D2F3C
S1130880A4DF8C2FA2DF2196F80181918F019DDFD7
S1130890289ACE15DF0581F7C601DF91CF911F910C
S11308A00F91FF90EF90DF90CF900895EF92FF9219
S11308B00F931F93259A2D9A2D982FEF83EC99E08F
S11308C0215080409040E1F700C000006C9A749879
S11308D02FEF83EC99E0215080409040E1F700C075
S11308E000006C982FEF83EC99E0215080409040F9
S11308F0E1F700C0000080E090E49093870B8093C0
S1130900860B80E090E6909319078093180780E0A7
S113091098E49093890B8093880B80E098E69093F9
S11309201B0780931A0780E090E590938B0B8093CC
S11309308A0B80E090E790931D0780931C0780E06A
S113094098E590938D0B80938C0B80E098E79093BF
S11309501F0780931E0760E880E090E037D065E5CC
S11309608BE190E033D065E58AE190E02FD0689484
S1130970EE24E1F8F12C0EED10E02CEC30E04BEB22
S113098050E06AEA70E080E090E051D02CE430E07E
S113099040E050E060E070E08AE090E06FD02EEF3D
S11309A030E040E050E060E070E08AE090E081D028
S11309B020E030E04FEF50E06FEF70E08FEF90E019
S11309C093D01F910F91FF90EF9008951F93CF93B1
S11309D0DF93D82F192FC62F289880EFF6DE812FAA
S11309E0F4DE8D2FF2DE8C2FF0DE833011F0289AA6
S11309F05DDF289A81E0DF91CF911F9108951F93C5
S1130A00CF93DF93C82FD0E0DC2FCC27CF5FDB4F11
S1130A10CE01DCDF10E001C01F5FCE01DDDE8823E4
S1130A2011F01F3FC9F7DF91CF911F910895EF9205
S1130A300F931F93CF93DF93162FD42FC22F682FBA
S1130A4089E090E0C3DF612F8AE090E0BFDF6D2F83
S1130A508BE090E0BBDF6C2F8CE090E0B7DF602F81
S1130A608DE090E0B3DF6E2D8EE090E0AFDF81E0AB
S1130A70DF91CF911F910F91EF9008951F93CF9322
S1130A80DF93162FD42FC22F682F8FE090E09EDFC4
S1130A90612F80E190E09ADF6D2F81E190E096DF95
S1130AA06C2F82E190E092DF81E0DF91CF911F9182
S1130AB008951F93CF93DF93162FD42FC22F682F3F
S1130AC081E090E083DF612F82E090E07FDF6D2F93
S1130AD083E090E07BDF6C2F84E090E077DF81E0BF
S1130AE0DF91CF911F9108951F93CF93DF93162F1A
S1130AF0D42FC22F682F85E090E068DF612F86E055
S1130B0090E064DF6D2F87E090E060DF6C2F88E079
S1130B1090E05CDF81E0DF91CF911F91089590E038
S1130B200496982F8827860F971F56CE08951F93F3
S1130B30CF93DF93182F60E270E0F1DFC82FD0E08D
S1130B4061E270E0812FEBDFDC2FCC279E01282BA4
S1130B50C901DF91CF911F9108951F93CF93DF9324
S1130B60182F66E270E0DBDFC82FD0E067E270E0A8
S1130B70812FD5DFDC2FCC279E01282BC901DF91E3
S1130B80CF911F9108959B0190E00496982F882798
S1130B90642F820F931F1ACF0895882341F0809108
S1130BA02F04813041F018F08230C1F024C081E07C
S1130BB080932F0420C0462F61E070E080E0E3DFE3
S1130BC061E070E080E0ABDF882321F082E0809375
S1130BD02F0411C08FEF80932F040DC061E070E0EB
S1130BE080E09DDF882321F082E080932F0403C0FE
S1130BF08FEF80932F0480912F040895882341F070
S1130C0080912E04813041F018F08230C1F024C06C
S1130C1081E080932E0420C0462F61E070E081E0E3
S1130C20B2DF61E070E081E07ADF882321F082E0C6
S1130C3080932E0411C08FEF80932E040DC061E0C9
S1130C4070E081E06CDF882321F082E080932E0441
S1130C5003C08FEF80932E0480912E04089588237F
S1130C6041F080912D04813041F018F08230C1F0C0
S1130C7024C081E080932D0420C0462F61E070E001
S1130C8082E081DF61E070E082E049DF882321F0C7
S1130C9082E080932D0411C08FEF80932D040DC04A
S1130CA061E070E082E03BDF882321F082E0809302
S1130CB02D0403C08FEF80932D0480912D0408959B
S1130CC0CF93C82F692F80E194E080DE6C2F81E1FF
S1130CD094E07CDECF910895CF93DF93EC0168819B
S1130CE08CE094E073DE69818DE094E06FDE6A81CC
S1130CF08EE094E06BDE6B818FE094E067DEDF9141
S1130D00CF910895CF93C82F692F80E195E05EDEDF
S1130D106C2F81E195E05ADECF910895CF93DF9354
S1130D20EC0168818CE095E051DE69818DE095E00D
S1130D304DDE6A818EE095E049DE6B818FE095E0BF
S1130D4045DEDF91CF910895CF93C82F692F80E1BD
S1130D5096E03CDE6C2F81E196E038DECF91089579
S1130D60CF93DF93EC0168818CE096E02FDE6981FC
S1130D708DE096E02BDE6A818EE096E027DE6B81C3
S1130D808FE096E023DEDF91CF9108959F92AF929A
S1130D90BF92CF92DF92EF92FF920F931F93CF9364
S1130DA0DF93982E5B017A01E90164E270E0B7DE1B
S1130DB0C82ED12C65E270E0892DB1DE1C2D0027F0
S1130DC0082B0A0D1B1D98013770C92CD12CF60174
S1130DD0EE0FFF1FEA57F44F80819181820F931F1A
S1130DE0A9014C0F5D1F41305840B8F040E058E075
S1130DF05A01A21AB30AA501B7012CDDAE014A19A2
S1130E005B09B7016A0D7B1DF601EE0FFF1FEA5760
S1130E10F44F808191811EDD03C0AE01B7011ADD5C
S1130E20C00FD11F4D2F64E270E0892DACDE4C2F32
S1130E3065E270E0892DA7DEDF91CF911F910F91BC
S1130E40FF90EF90DF90CF90BF90AF909F90089568
S1130E50DF92EF92FF920F931F93CF93DF93D82EDD
S1130E600FEF1FEFE12CF12C8D2D61DEEC010097CB
S1130E7019F08D2D5CDE7C01EC16FD0629F0015085
S1130E8011090115110581F7C701DF91CF911F9158
S1130E900F91FF90EF90DF900895DF92EF92FF9211
S1130EA00F931F93CF93DF93D82E8B017A01E9011F
S1130EB0CFDF8C179D0718F48D2DCADFEC019E013E
S1130EC0A701B8018D2D62DFCE01DF91CF911F9173
S1130ED00F91FF90EF90DF90089520E3FC012083B1
S1130EE03296862F82958F7090E1899F6019112424
S1130EF06A3010F4605D01C0695C6293882311F06C
S1130F00682FEFCF08958FB7807880933206F894D6
S1130F1080913206089580913206882309F07894EE
S1130F20809132060895A8952FE088E190E00FB6ED
S1130F30F894A895809360000FBE209360000895F4
S1130F408091D60291E0980F9093D60208958091F3
S1130F50D50291E0980F9093D5020895CF93DF9333
S1130F60C82FD62FD0DFEC2FF0E0EE52FA4FD0830B
S1130F70DD23A9F0EC2FE695E695E695F0E0EC5933
S1130F80FB4F4081C77021E030E0C90102C0880FE7
S1130F90991FCA95E2F780958423808313C0EC2FB0
S1130FA0E695E695E695F0E0EC59FB4F4081C77075
S1130FB021E030E0C90102C0880F991FCA95E2F709
S1130FC0842B8083A8DFDF91CF9108951F93CF9363
S1130FD0DF93182FEB0197DFE12FF0E0EE0FFF1FF7
S1130FE0EE5EFA4FD183C083CD2BA9F0E12FE695B5
S1130FF0E695E695F0E0E95AFB4F4081177021E051
S113100030E0C90102C0880F991F1A95E2F7809554
S11310108423808313C0E12FE695E695E695F0E0FE
S1131020E95AFB4F4081177021E030E0C90102C04A
S1131030880F991F1A95E2F7842B80836CDFDF9168
S1131040CF911F910895282F30E0F901EE0FFF1F73
S1131050EE0FFF1FE05CFB4F10821182128213829D
S1131060F901E95EF84F608194E6699FB0011124AB
S113107090913F049F5F890FA9CF08952F923F92CB
S11310804F925F926F927F928F929F92AF92BF9294
S1131090CF92DF92EF92FF920F931F93CF93DF9340
S11310A0382E90E0FC01EE0FFF1F8E0F9F1FFC01F6
S11310B0E953FB4F4490512CB12C032D10E0E8016F
S11310C0C75CD84FC801880F991F9C012F55374F13
S11310D03901FC01E25AF84F6F01C801880F991FCA
S11310E0880F991F9C01205C3B4F4901780188813E
S11310F08F5F8883841123C0188220903F04239437
S11311002394230C00DFE22DF0E0EE0FFF1FEE5ED0
S1131110FA4FA080B180FFDEA094B094F301B182B5
S1131120A082F601808191818A159B0510F4B18219
S1131130A0826FEF7FEF822D49DFBB24B394F401CB
S113114080819181A281B381088004C0B695A7955E
S1131150979587950A94D2F780FF03C0539454144B
S113116028F2541012C0832D6EDFF701E75CF84FAC
S113117080818F5F581629F0F701E75CF84F808370
S113118004C0F701E75CF84F1082F701E25CF84F06
S113119010828B2DDF91CF911F910F91FF90EF90D3
S11311A0DF90CF90BF90AF909F908F907F906F9083
S11311B05F904F903F902F9008950F931F93CF937C
S11311C0DF93E82FF0E0DF01A55BB84F9C919230EC
S11311D021F4FD01108280E058C0DF01A295B29590
S11311E0B07FBA27A07FBA27AB55B04F18962D9180
S11311F03C9119972F5F3F4F19963C932E93189764
S1131200DF01AC5BBB4F9C919F5F9C93DF01A359B3
S1131210B84F2C91921338C0DF01A75CB84F41E05E
S113122050E060E070E00C9004C0440F551F661F4E
S1131230771F0A94D2F7DF01AA0FBB1FAA0FBB1FA7
S1131240ED01CB56D04F088119812A813B81042BB3
S1131250152B262B372B088319832A833B83A05C09
S1131260BB4F0D911D912D913C911397402B512B08
S1131270622B732B4D935D936D937C931397EC5B6F
S1131280FB4F1082FBDE01C080E0DF91CF911F9104
S11312900F910895CF92DF92EF92FF92CF93C82FD0
S11312A06A017B0130DEEC2FF0E0EE0FFF1FEE0F42
S11312B0FF1FEE58FB4FC082D182E282F382CD2819
S11312C0CE28CF28A9F0EC2FE695E695E695F0E038
S11312D0EF5AFB4F4081C77021E030E0C90102C0E2
S11312E0880F991FCA95E2F780958423808313C0E1
S11312F0EC2FE695E695E695F0E0EF5AFB4F40813A
S1131300C77021E030E0C90102C0880F991FCA9557
S1131310E2F7842B8083FFDDCF91FF90EF90DF9085
S1131320CF900895CF93C82FEEDDEC2FE695E69588
S1131330E695F0E0E95AFB4F208130E08C2F87706E
S113134002C0359527958A95E2F720FF0DC0EC2F52
S1131350F0E0EE0FFF1FEE5EFA4F20813181C1E015
S1131360232B19F0C0E001C0C0E0D5DD8C2FCF9154
S11313700895CF93C82FC7DDEC2FE695E695E69543
S1131380F0E0EF5AFB4F208130E08C2F877002C0D1
S1131390359527958A95E2F720FF13C0EC2FF0E0EE
S11313A0EE0FFF1FEE0FFF1FEE58FB4F40815181E0
S11313B062817381C1E0452B462B472B19F0C0E0B5
S11313C001C0C0E0A8DD8C2FCF910895ACDD109250
S11313D080008AEE8093810080E29EE490938900ED
S11313E080938800EFE6F0E080818260808380E073
S11313F090E02FEFFC01EC59FB4F208301968C30D9
S11314009105C1F780E090E02FEFFC01E95AFB4F12
S1131410208301968D309105C1F78FEF809351049D
S1131420809352048093530480935404809355040E
S11314308093560408951F920F920FB60F921124B1
S11314400BB60F922F933F934F935F936F937F93BA
S11314508F939F93AF93BF93EF93FF9380914F0428
S11314608F5F80934F0480E090E061E070E0282F6C
S113147026952695269530E0F901E059FB4F4081E9
S1131480A82FA77050E00A2E02C0559547950A94DC
S1131490E2F740FD14C0FC01E65DF94F4081415084
S11314A0408341110CC0F901E059FB4F40819B017D
S11314B002C0220F331FAA95E2F7242B2083019642
S11314C088309105A1F68091300490913104A09167
S11314D03204B09133040196A11DB11D80933004F0
S11314E090933104A0933204B0933304FF91EF91AD
S11314F0BF91AF919F918F917F916F915F914F9128
S11315003F912F910F900BBE0F900FBE0F901F9025
S11315101895FF920F931F93CF93DF93F894F09055
S11315204F0410924F047894FF2009F4D2C010E0C5
S113153040E050E021E030E08091AA089091AB08AF
S1131540A091AC08B091AD080196A11DB11D809386
S1131550AA089093AB08A093AC08B093AD08CA0155
S1131560F894682F66956695669570E0FB01EC59D2
S1131570FB4FE081A82FA770F0E00A2E02C0F5957A
S1131580E7950A94E2F7E0FD14C0FC01EE52FA4F2D
S1131590B081B150B083B1110CC0FB01EC59FB4FC9
S11315A0B081B90102C0660F771FAA95E2F76B2BD1
S11315B06083789401968835910591F6CA01F89470
S11315C0682F66956695669570E0FB01E95AFB4FB6
S11315D0E081C82FC770F0E00C2E02C0F595E795A6
S11315E00A94E2F7E0FD1AC0DC01AA0FBB1FAE5E4D
S11315F0BA4FED91FC91119731971196FC93EE93AC
S1131600EF2B61F4FB01E95AFB4FA081B90102C041
S1131610660F771FCA95E2F76A2B60837894019668
S11316208036910561F6BA01F894E62FE695E695C1
S1131630E695F0E0DF01AF5ABB4F8C91062F07709F
S113164090E0002E02C0959587950A94E2F780FDFC
S113165021C0EB01CC0FDD1FCC0FDD1FCE58DB4FBB
S113166088819981AA81BB810197A109B1098883E5
S11316709983AA83BB83892B8A2B8B2B59F4EF5A2A
S1131680FB4FA081C90102C0880F991F0A95E2F798
S11316908A2B808378946F5F7F4F6832710521F6BF
S11316A080912C048F5F843619F080932C040EC033
S11316B010922C0480919D0890919E089093B008FC
S11316C08093AF0850939E0840939D081F5F1F119D
S11316D033CFDF91CF911F910F91FF900895A8957B
S11316E080919D0890919E08019690939E08809306
S11316F09D0880915004E82FF0E0EE52FA4F90815B
S113170090959093730720914D07291710F49093A7
S11317104D076FEF23CC08954F925F926F927F92A3
S1131720AF92BF92CF92DF92EF92FF920F931F93EB
S1131730CF93DF93EC015B0129013A0121153105B7
S113174041055105F1F0C12CD12C7601C5018C0D58
S11317509D1DFE0119958027282F30E0F901E654DC
S1131760FD4F04910127F901E654FE4F1491FFEF58
S1131770CF1ADF0AEF0AFF0AC414D504E604F704FB
S113178029F7802F90E0912BDF91CF911F910F913A
S1131790FF90EF90DF90CF90BF90AF907F906F90CD
S11317A05F904F9008950F931F930FEF1FEFB4DFD7
S11317B01F910F9108950F931F932CE030E040E0A8
S11317C050E060E070E084EE92E0EDDF2BEF3FE06C
S11317D02C50304040E050E08C0161E170E084EE38
S11317E092E09ADF1F910F9108958091850B81FDFE
S11317F006C0E1DFBC018EE090E00C94CC39089582
S11318000E94BE39F2CF08950A9A129808951F9241
S11318100F920FB60F9211240BB60F922F933F9392
S11318204F935F936F937F938F939F93AF93BF93E4
S1131830EF93FF9385B5887F85BDEEE6F0E0808168
S11318408D7F808386E490E00E948103FF91EF9175
S1131850BF91AF919F918F917F916F915F914F91C4
S11318603F912F910F900BBE0F900FBE0F901F90C2
S113187018951F920F920FB60F9211240BB60F9268
S11318802F933F934F935F936F937F938F939F9384
S1131890AF93BF93EF93FF93E1EBF0E08081887FF8
S11318A08083E0E7F0E080818D7F808382EB90E0AD
S11318B00E948103FF91EF91BF91AF919F918F910E
S11318C07F916F915F914F913F912F910F900BBE3C
S11318D00F900FBE0F901F9018951F920F920FB686
S11318E00F9211240BB60F922F933F934F935F9354
S11318F06F937F938F939F93AF93BF93EF93FF93D4
S1131900E1EAF0E08081887F8083E2E7F0E0808193
S11319108D7F808384EA90E00E948103FF91EF91A0
S1131920BF91AF919F918F917F916F915F914F91F3
S11319303F912F910F900BBE0F900FBE0F901F90F1
S11319401895FF920F931F93CF93DF93C82FD0E086
S11319508E01000F111F0C0F1D1FC8018B5F9F4FBD
S11319600E94B139F82E0A5F1F4FC8010E94B13995
S1131970F11004C0813039F09EE808C091E0F916F6
S113198021F096EB03C096E801C096EA24E12C9F6F
S1131990F0012D9FF00D1124EE50FB4FA591B49151
S11319A09F779C93FF2029F0813019F061E0C801F2
S11319B027DFDF91CF911F910F91FF900895CF936F
S11319C0DF93C82FD0E0CE01880F991F8C0F9D1F85
S11319D0895F9F4F0E94B139FE01E255F74F808322
S11319E090E09C01220F331F820F931F80509B4F66
S11319F024E12C9FF0012D9FF00D1124EA50FB4FA0
S1131A00A591B491FC0124912C9324E12C9FF00125
S1131A102D9FF00D1124EC50FB4FA591B491FC01C6
S1131A203196E491EC93FE01EE0FFF1FCE0FDF1F02
S1131A30FE01EE0FFF1FE452FB4FA591B491FC0190
S1131A40329684918C93DF91CF910895CF93DF9355
S1131A50C82FD0E0FE01EB5CF94F83E0808384E182
S1131A608C9FF0018D9FF00D1124E850FB4F859160
S1131A709491FC01199584E18C9FF0018D9FF00DE8
S1131A801124E451FB4FA591B491FC2FEE27EC5B9C
S1131A90FF4E80818C9384E18C9FF0018D9FF00D2B
S1131AA01124E251FB4FA591B4918C9180648C93E5
S1131AB084E18C9FF0018D9FF00D1124E051FB4FC8
S1131AC0A591B4918C9180628C93DF91CF9108950C
S1131AD0CF93DF93ECEEF4E02591349182179307D2
S1131AE091F040E054E14F5FC42FD0E05C9FF001DF
S1131AF05D9FF00D1124E451FB4F25913491821721
S1131B00930789F703C0C0E0D0E040E0FE01EB5C3E
S1131B10F94F2081223009F449C028F4222339F0F6
S1131B202130D1F056C0263008F451C052C0FC0117
S1131B308081FC2FEE27EC5BFF4E8083FE01EE0FCD
S1131B40FF1FCE0FDF1FFE01EE0FFF1FE652FB4FFC
S1131B50A591B4911C923DC0FE01EB5CF94F82E06B
S1131B60808321E030E00C2E02C0220F331F0A9440
S1131B70E2F7209580914E04282320934E04FE0121
S1131B80EE58F84F1082842F0E94FF02CE01880F76
S1131B90991FC80FD91FCE01880F991F82529B4FDE
S1131BA0FC0125913491F901199513C0842F0E94E9
S1131BB0FF02FE01EE0FFF1FCE0FDF1FFE01EE0F2F
S1131BC0FF1FE652FB4FA591B4911C9202C0FC0189
S1131BD08081DF91CF910895EF92FF921F93CF936D
S1131BE0DF93C82FD0E0FE01EE58F84F20814091DA
S1131BF04E0450E0BA0102C0759567958A95E2F7E4
S1131C0060FD1AC02330D0F022507C2F66276C5B15
S1131C107F4EFB01E20FF11DE080F18030E040E0F7
S1131C2050E088EB92E0BFDD11E0E816F90609F414
S1131C3010E01123F9F003C011E001C011E0FE012E
S1131C40E295F295F07FFE27E07FFE27EB55F04FFB
S1131C508281938101969383828384E18C9FF00136
S1131C608D9FF00D1124E450FB4F85919491FC015C
S1131C7019951BC0FE01E295F295F07FFE27E07FE7
S1131C80FE27EB55F04F208131812F5F3F4F318389
S1131C90208384E18C9FF0018D9FF00D1124E2508C
S1131CA0FB4F25913491F9011995812FDF91CF9143
S1131CB01F91FF90EF900895CF93DF93682F70E00A
S1131CC0FB01EE58F84F20812250762F66276C5B7B
S1131CD07F4EEB01C20FD11D30E040E050E088EBB5
S1131CE092E061DD99838883DF91CF910895282F55
S1131CF030E070E0322F2227F901EC5BFF4EE60F53
S1131D00F71F8181620F731FFB01EC5BFF4E208183
S1131D1090E0922B0895CF92DF92EF92FF920F936F
S1131D201F93CF93DF93F82EC82FD0E0FC2FEE271C
S1131D30EC5BFF4E8181863081F020F48150843049
S1131D4038F0E7C08F30D9F0803109F4B3C0E1C076
S1131D50CE58D84F88E08883DCC0FE01EE58F84F97
S1131D6088E080838F2D0E944503DC2FCC27CC5B39
S1131D70DF4EFC0121812C8380818D83CAC064E005
S1131D808F2DB5DF8C0196958795969587959695B9
S1131D90879598012770332741E0232B09F440E00D
S1131DA0242F280FFC2FEE27EC5BFF4E2683DE0149
S1131DB0AE58B84F275F2C93E80FF91F1782FE0126
S1131DC0E55BF84F8081823009F1FE01E295F295DE
S1131DD0F07FFE27E07FFE27E55EFA4FC590D490A2
S1131DE08F2D0E94E7020196FC0185919491FE01DA
S1131DF0E25CF84F2081FC0137E0239FE00DF11DE8
S1131E001124359685919491B82F0CC0FE01EE0FE4
S1131E10FF1FEE0FFF1FEE0FFF1FEA5BFB4FC68095
S1131E20D780B0E00115110509F473C0A0E061E0AA
S1131E3070E0DC2FCC278A2F8B0F9A2F96959695DE
S1131E4096950F2EF7E0EF2EF02DE90E2A2F27702E
S1131E50AB0102C0440F551F2A95E2F79A01982F4F
S1131E60969596959695F601E90FF11D408150E0FF
S1131E708770FA0102C0F595E7958A95E2F7E0FFCD
S1131E8009C0FE01EE0DF11DEC5BFF4E8081282B95
S1131E90208309C0FE01EE0DF11DEC5BFF4E209581
S1131EA0808128232083AF5F2A2F30E02017310759
S1131EB010F22FC01C2F00270C5B1F4EF8018581E8
S1131EC0880F8683FE01EE58F84F875F80838F2D3D
S1131ED00E944503F80125812223D9F040E0E8015E
S1131EE098012B5F3F4F542F550FA42FB0E0AA0F3A
S1131EF0BB1FA80FB91FFE01E50FF11D11965C91E0
S1131F00119757835C9150874F5FF90150814517B2
S1131F1050F38F2DD1DEDF91CF911F910F91FF9060
S1131F20EF90DF90CF900895CF93C82F0E94E702DF
S1131F30BC01FC013196459154912C2F30E0F901FC
S1131F40E25CF84F808197E0899F400D511D112478
S1131F50FB016491F22FEE27EC5BFF4E6083FA01E4
S1131F608491F22FEE27EC5BFF4E8183FA013296C7
S1131F70E491B22FAA27AC5BBF4E1296EC93FA0100
S1131F803196E491B22FAA27AC5BBF4E1396EC9323
S1131F90FA013496E491B22FAA27AC5BBF4E149693
S1131FA0EC93FA0133964491B22FAA27AC5BBF4E4F
S1131FB015964C938C2FAFDECF910895282F30E0E7
S1131FC0F22FEE27EC5BFF4ED901AA0FBB1FAA0F1D
S1131FD0BB1FAA0FBB1FAA5BBB4F9C91908311969A
S1131FE09C911197918312969C91129713964C9100
S1131FF013974283938314969C91149715964C914E
S113200044839583F901E55BF84F92E0908383CE96
S113201008956F927F928F929F92AF92BF92CF92C8
S1132020DF92EF92FF920F931F93CF93DF93D82EFB
S1132030C82FD0E0FE01EB5CF94F8081882319F0B2
S1132040823031F06FC3CB5CD94F81E088836AC39F
S113205084E0FE01EB5CF94F80838D2DBDDD882388
S113206029F0CB5CD94F81E088835CC3FC2FEE2739
S1132070EC5BFF4E8081882359F0FE01EA5DF84F46
S11320809081891729F0CB5CD94F81E088834AC3BA
S113209084E18C9F80018D9F100D112406501B4FED
S11320A0F80125913491F9011995FE01E295F29513
S11320B0F07FFE27E07FFE27EB55F04F8681978166
S11320C001969783868362E08D2D11DE7C01FC2FBF
S11320D0EE27EC5BFF4EC1808C2D90E0FC01319724
S11320E0E031F10508F0C9C2EA59FF4F0C94793880
S11320F0FC2FEE27EC5BFF4E8081882309F4C1C0DE
S1132100FE01EE58F84F8081883059F0FC2FEE27FD
S1132110EC5BFF4E83E082830F2EF3E0FF2EF02D65
S1132120B6C264E08D2DE3DDAC018E0D9F1DF1E0A0
S1132130CF120FC0FE01E295F295F07FFE27E07FFB
S1132140FE27E35EFA4F259134912817390778F07A
S113215018C0FE01E295F295F07FFE27E07FFE278E
S1132160EF5DFA4F2591349128173907B0F4FC2F0D
S1132170EE27EC5BFF4E82E082836894FF24F1F843
S113218086C2FE01E295F295F07FFE27E07FFE27EE
S1132190E55EFA4FA591B4910BC0FE01E295F2956C
S11321A0F07FFE27E07FFE27E15EFA4FA591B49110
S11321B021E0CA0187709927892B09F420E0CA011C
S11321C0969587959695879596958795820FFC2F7A
S11321D0EE27EC5BFF4E8283FE01EE58F84F8B5FD7
S11321E080834115510509F44FC0C12C20E030E033
S11321F081E090E0BC2EAA242E0D3F1D6C2D669527
S1132200669566950F2EF3E09F2EF02D960EEC2D1D
S1132210E7703C0102C0660C771CEA95E2F7B9014D
S11322207695679576956795769567956A0F7B1F82
S1132230FB01608170E027703327FB0102C0F59534
S1132240E7952A95E2F7E0FF0AC09501290D311DB3
S11322502C5B3F4EF9016081662960830AC09501B9
S1132260290D311D2C5B3F4E6094F901608166217C
S11322706083C3942C2D30E02417350708F4BCCFB9
S113228005C0FF24FA9403C2F12C01C2F12CFFC152
S1132290FC2FEE27EC5BFF4E8081882309F485C078
S11322A0FE01EE58F84F8081883059F0FC2FEE275C
S11322B0EC5BFF4E83E082830F2EF3E0FF2EF02DC4
S11322C0E6C1FC2FEE27EC5BFF4E4581C701840F6E
S11322D0911DF3E0CF120FC0FE01E295F295F07F5D
S11322E0FE27E07FFE27EB5DFA4F259134912817F6
S11322F0390778F018C0FE01E295F295F07FFE27C9
S1132300E07FFE27E75DFA4F2591349128173907BE
S1132310B0F4FC2FEE27EC5BFF4E82E082836894DE
S1132320FF24F1F8B4C1FE01E295F295F07FFE2797
S1132330E07FFE27ED5DFA4F859194910BC0FE017D
S1132340E295F295F07FFE27E07FFE27E95DFA4FE4
S113235085919491EE0CFF1C8E0D9F1D440FBC2F94
S1132360AA27AC5BBF4E12964C931297FE01EE580F
S1132370F84F4B5F408315966C9115976623C1F017
S1132380FC0140E09D01542F550F7901E50EF11C2D
S11323905181D70113965C9380813296D7011496AC
S11323A08C934F5F4613EFCF05C0FF24FA946FC19F
S11323B0F12C6DC1F12C6BC1FE01EE58F84F8081F8
S11323C0883059F0FC2FEE27EC5BFF4E83E08283CC
S11323D00F2EF3E0FF2EF02D5AC1FE01E295F29587
S11323E0F07FFE27E07FFE27EB5DFA4F8591949105
S11323F097012F5F3F4F8217930750F4FC2FEE276E
S1132400EC5BFF4E82E082836894FF24F1F83FC1C5
S113241088E0FE01EE58F84F8083FE01E295F295C4
S1132420F07FFE27E07FFE27ED5DFA4F85919491C2
S1132430EE0CFF1CE80EF91E64E08D2D58DCF7014C
S113244091838083F12C23C164E08D2D50DCFC2F1B
S1132450EE27EC5BFF4EA681FE01EE58F84F40815B
S113246050E02A2F30E0275F3F4F42175307B9F45B
S113247021E030E0BC0167707727672B11F420E07E
S113248030E0BC0176956795769567957695679566
S1132490260F371F4A2F50E02417350759F0FC2F19
S11324A0EE27EC5BFF4E83E082830F2EF3E0FF2EDA
S11324B0F02DEDC0FE01E295F295F07FFE27E07F5E
S11324C0FE27E35EFA4F25913491AC014E0D5F1D5A
S11324D02417350750F4FC2FEE27EC5BFF4E82E007
S11324E082836894FF24F1F8D2C0FE01E295F2954C
S11324F0F07FFE27E07FFE27E55EFA4F25913491B9
S113250048E0FE01EE58F84F4083C12CE1E0F0E0D2
S11325107C2F6627AB014C5B5F4E3A0136C0DA0173
S1132520AE0DBF1DAD0156954795569547955695E9
S11325304795A770BB275F0102C0AA0CBB1CAA95D4
S1132540E2F7AC2DA695A695A695B3016A0F711D69
S1132550DB011796AC91B0E07C2D7770072E02C09A
S1132560B595A7950A94E2F7A0FF07C0D901A40F77
S1132570B51F4C91A42AAC9207C0D901A40FB51F72
S1132580A0944C914A214C93C3944C2D50E048178D
S1132590590728F2F12C7BC0FC2FEE27EC5BFF4E91
S11325A0868190E0FE01EE58F84F408150E09C0196
S11325B0275F3F4F4217530761F4FC2FEE27EC5B74
S11325C0FF4E4581242F30E0220F331F82179307DB
S11325D059F0FC2FEE27EC5BFF4E83E082830F2E35
S11325E0F3E0FF2EF02D53C0FE01E295F295F07F4B
S11325F0FE27E07FFE27EB5DFA4F859194919701CA
S1132600240F311D8217930750F4FC2FEE27EC5B47
S1132610FF4E82E082836894FF24F1F838C088E09A
S1132620FE01EE58F84F8083FE01E295F295F07FAB
S1132630FE27E07FFE27ED5DFA4F85909490C12C34
S11326409C2F8827DC01A75BBF4E3D0110C05701BA
S1132650AC0CB11CAA0CBB1CA80CB91C6C2D660FCD
S1132660695F8D2D44DBF50191838083C394D3018D
S11326708C91C81660F3F12C0AC0FC2FEE27EC5B9A
S1132680FF4E81E08283808181110BC01CC0FC2F2E
S1132690EE27EC5BFF4E8081882399F0FF2079F0D0
S11326A002C0FF24F394FC2FEE27EC5BFF4E8181E4
S11326B08068818385E0FE01EE58F84F80838D2D7C
S11326C0FBDAFF2071F0FE01E295F295F07FFE2720
S11326D0E07FFE27EB55F04F848195810196958329
S11326E08483FC2FEE27EC5BFF4E8081882319F056
S11326F08D2DACD917C0FE01E295F295F07FFE272F
S1132700E07FFE27EB55F04F8085918501969187F8
S11327108087CB5CD94F81E08883F80185919491BF
S1132720FC011995DF91CF911F910F91FF90EF90CC
S1132730DF90CF90BF90AF909F908F907F906F90DD
S1132740089524E1829FC0011124FC01E650FB4F4F
S113275085919491FC0119950895CF93DF93C82F27
S1132760D0E0CE01885F9F4F0E94B139CA5DD84F37
S11327708883DF91CF9108956F927F929F92AF9259
S1132780BF92CF92DF92EF92FF920F931F93CF935A
S1132790DF93D82EC82FD0E0FE01EB5CF94F808187
S11327A0882319F0823071F097C280913F048E5FC4
S11327B06FEF7FEF8D0D0E94E6078D2DB5DB8D2D1C
S11327C045D98AC284E0FE01EB5CF94F8083FE01A7
S11327D0E55BF84F908181E0923009F080E08093CE
S11327E045048D2DF9D9882321F08D2D0E94DD0813
S11327F063C284E18C9FF0018D9FF00D1124E6509B
S1132800FB4F85919491FC0119958091450488238F
S113281081F0FE01EE0FFF1FEE0FFF1FEE0FFF1FF3
S1132820EA5BFB4F8081418120E030E000E010E072
S113283015C08D2D0E94E7028C01FC013196259173
S11328403491FE01E25CF84F8081F7E08F9F200D08
S1132850311D1124F8018491F9014491BC2FAA2758
S1132860AC5BBF4E9C91981304C0FD016181641759
S113287021F08D2D0E94DD081FC2862F90E0FC01FF
S11328803197E031F10508F0BBC1EA58FF4F0C94D1
S1132890793880914504882359F0FE01EE0FFF1F1B
S11328A0EE0FFF1FEE0FFF1FEA5BFB4F748103C0A7
S11328B0F90133967491FC2FEE27EC5BFF4E828175
S11328C090E0FE01EE58F84FE081F0E0AC014B5F80
S11328D05F4FE417F50709F08AC0E72FE695E69500
S11328E0E695F0E041E050E0A72FA77011F440E036
S11328F050E04E0F5F1F8417950709F07AC080914E
S11329004504882369F0FE01EE0FFF1FEE0FFF1F41
S1132910EE0FFF1FEA5BFB4FA681B781C12C1FC0DE
S1132920613061F4FE01E295F295F07FFE27E07FCD
S1132930FE27E55EFA4FA591B4910BC0FE01E29526
S1132940F295F07FFE27E07FFE27E15EFA4FA59126
S1132950B4912B5F3F4FF90185919491C82EA72E16
S1132960B12CA114B10409F446C020E030E081E0A8
S113297090E05C2F4427BA016C5B7F4E7B014C2DA9
S1132980420F942E9694969496944770FC0102C03C
S1132990EE0FFF1F4A95E2F7AF01F901F695E795AF
S11329A0F695E795F695E795EE0DFF1DE381F0E0CA
S11329B0B901677077273F0102C0759467946A95DF
S11329C0E2F760FE07C0FD01E90DF11D5081452BC2
S11329D0408307C0FD01E90DF11D40955081452359
S11329E040832F5F3F4F2A153B0548F206C081E024
S11329F008C181E006C180E004C180E002C1FC2F6F
S1132A00EE27EC5BFF4E7281FE01EE58F84F4081D9
S1132A1050E0872F90E005964817590709F06BC0DE
S1132A2080914504882371F0FE01EE0FFF1FEE0F25
S1132A30FF1FEE0FFF1FEA5BFB4F84819581880F18
S1132A40991F06C0F901339685919491880F991FB7
S1132A50472F50E04817590709F04FC080914504AB
S1132A60882361F0FE01EE0FFF1FEE0FFF1FEE0F34
S1132A70FF1FEA5BFB4FA680B78023C0633061F47D
S1132A80FE01E295F295F07FFE27E07FFE27ED5DE3
S1132A90FA4F859194910BC0FE01E295F295F07F77
S1132AA0FE27E07FFE27E95DFA4F859194912B5F25
S1132AB03F4FF90125913491220F331F5C01A20E7F
S1132AC0B31E7695CC24CA94C70ECAF0770F992406
S1132AD09394970EEC2CEE0CFF08EA0CFB1C692D6A
S1132AE08D2D05D9F70191838083CA949A949A9481
S1132AF0CC2084F706C081E084C081E082C080E0FD
S1132B0080C080E07EC080914504882371F0FE017E
S1132B10EE0FFF1FEE0FFF1FEE0FFF1FEA5BFB4FD1
S1132B20E280F380A680B78019C0F9013196E59060
S1132B30F490FE01E295F295F07FFE27E07FFE27F8
S1132B40ED5DFA4F859194912B5F3F4FF9012591EB
S1132B503491220F331F5C01A20EB31EFE01EE5806
S1132B60F84F8081883099F462E08D2DC0D88E159D
S1132B709F0579F464E08D2DBAD841E0F5012081F8
S1132B8031818217930709F440E0842F3AC081E031
S1132B9038C081E036C080914504882371F0FE017D
S1132BA0EE0FFF1FEE0FFF1FEE0FFF1FEA5BFB4F41
S1132BB0E280F380A480B58009C0F9013196E590E4
S1132BC0F4902D5F3F4FF901A590B490FE01EE58AB
S1132BD0F84F8081883081F462E08D2D88D88E157D
S1132BE09F0561F464E08D2D82D821E08A159B0550
S1132BF009F420E0822F05C081E003C081E001C018
S1132C0080E0882391F0FE01E295F295F07FFE27A3
S1132C10E07FFE27EB55F04F8481958101969583E3
S1132C2084838D2D0E94DD0847C08091450488234C
S1132C3031F0C55BD84F188265E070E048C0FE01F2
S1132C40EE0FFF1FEE0FFF1FBF016B56704F81E0A9
S1132C5090E0A0E0B0E09E01275C384FF9010080CD
S1132C6004C0880F991FAA1FBB1F0A94D2F780952E
S1132C709095A095B095FB0140815181628173814B
S1132C8084239523A623B72380839183A283B383CC
S1132C90FE01E25CF84F80818F5F8083F8013396F8
S1132CA0E4918E1304C08D2D0E943E0801C080E083
S1132CB0FE01EC5BFB4F1082882339F0CC0FDD1F43
S1132CC0C75BD84F6881798102C065E070E080916C
S1132CD03F048D0D0E94E607DF91CF911F910F9164
S1132CE0FF90EF90DF90CF90BF90AF909F907F9038
S1132CF06F900895E82FF0E0ED56F04F608170E09A
S1132D0090913F04890F0C94E60708951F93CF9385
S1132D10DF93ECEEF4E0259134918217930791F060
S1132D2010E044E11F5FC12FD0E04C9FF0014D9FA4
S1132D30F00D1124E451FB4F259134918217930730
S1132D4089F703C0C0E0D0E010E0FE01E55DFB4F71
S1132D506081462F50E0FE01EE58F84F208130E0AC
S1132D60225031094217530709F544E14C9F900161
S1132D704D9F300D112420513B4FF901A591B49181
S1132D804C914F7D4C93F901A591B4912C91206401
S1132D902C9324E12C9FF0012D9FF00D1124E2517E
S1132DA0FB4FA591B4912C9120642C936F5FFE018D
S1132DB0E55DFB4F6083FE01EE58F84F20816217FA
S1132DC050F4DC2FCC27C60FD11DCC5BDF4E2881FD
S1132DD0FC01208330C084E18C9FF0018D9FF00DB5
S1132DE01124E051FB4FA591B4918C918F798C9370
S1132DF084E18C9FF0018D9FF00D1124E850FB4F6E
S1132E0085919491FC011995FE01E55DFB4F1082BB
S1132E10CB5CD94F81E08883E12FF0E0E55DFA4F88
S1132E20E491EE2319F0E13021F005C0812F89DC13
S1132E3002C0812F5FDFDF91CF911F9108951F930F
S1132E40CF93DF93182FC0913F04C80F81E08C0FFC
S1132E500E949209882319F0812F0E9423088C2F45
S1132E600E949209882309F469C0F894C12FD0E024
S1132E70FE01EB5CF94F8081813029F485E0FE018D
S1132E80EB5CF94F80837894FE01EB5CF94F808111
S1132E90843031F1853009F051C0812F0E94DD0862
S1132EA0FE01E55BF84F8081882319F0813021F021
S1132EB00AC0812F39D807C0CC5BDB4F88818111D0
S1132EC002C0812F7BD880913F046FEF7FEF810F89
S1132ED00E94E607F894812F0E94260D78942EC054
S1132EE0F89484E18C9FF0018D9FF00D1124E6503D
S1132EF0FB4F25913491F90119957894C55BD84F0E
S1132F008881882319F0813021F00CC0812F0CD8DE
S1132F1009C080914504882319F0812F05D802C087
S1132F20812F4CD880913F046FEF7FEF810F0E9477
S1132F30E607F894812F0E94260D7894DF91CF91B3
S1132F401F9108958091940F80FF14C0F89480918C
S1132F50940F8E7F8093940F7894EBE2F5E0E491E4
S1132F60EE2319F0E13021F005C080E052D802C010
S1132F7080E002DCEBE2F5E0E491E13011F480E082
S1132F805ECF08951F920F920FB60F9211240BB6C5
S1132F900F922F933F934F935F936F937F938F93EE
S1132FA09F93AF93BF93EF93FF9386EC90E00E94BF
S1132FB0680DFF91EF91BF91AF919F918F917F9198
S1132FC06F915F914F913F912F910F900BBE0F9096
S1132FD00FBE0F901F9018951F920F920FB60F926D
S1132FE011240BB60F922F933F934F935F936F93DC
S1132FF07F938F939F93AF93BF93EF93FF9386EC4D
S113300090E084DEFF91EF91BF91AF919F918F91FA
S11330107F916F915F914F913F912F910F900BBED4
S11330200F900FBE0F901F9018951F920F920FB61E
S11330300F9211240BB60F922F933F934F935F93EC
S11330406F937F938F939F93AF93BF93EF93FF936C
S113305086EC90E05BDEFF91EF91BF91AF919F9181
S11330608F917F916F915F914F913F912F910F902D
S11330700BBE0F900FBE0F901F9018951F920F92CA
S11330800FB60F9211240BB60F922F933F934F93C9
S11330905F936F937F938F939F93AF93BF93EF93BC
S11330A0FF938EEC90E00E94680DFF91EF91BF9129
S11330B0AF919F918F917F916F915F914F913F91CC
S11330C02F910F900BBE0F900FBE0F901F9018956D
S11330D01F920F920FB60F9211240BB60F922F93DB
S11330E03F934F935F936F937F938F939F93AF938C
S11330F0BF93EF93FF938EEC90E008DEFF91EF9186
S1133100BF91AF919F918F917F916F915F914F91FB
S11331103F912F910F900BBE0F900FBE0F901F90F9
S113312018951F920F920FB60F9211240BB60F929F
S11331302F933F934F935F936F937F938F939F93BB
S1133140AF93BF93EF93FF938EEC90E0DFDDFF919D
S1133150EF91BF91AF919F918F917F916F915F910B
S11331604F913F912F910F900BBE0F900FBE0F9078
S11331701F9018951F93CF93DF93D62F172FC091CD
S11331802A04882331F0C13051F018F0C23029F1FB
S11331902DC081E080932A04C13089F539C060E1F3
S11331A081E00E94CD058F3F09F56FEF82E094E046
S11331B00E94E60462E080E094E00E94E604612F4D
S11331C084E094E00E94E6046D2F85E094E00E9480
S11331D0E60482E080932A0417C061E081E00E9443
S11331E0CD058F3F19F480932A0412C080912A04DC
S11331F08C1771F0813019F0823031F009C060E031
S113320080E00E94CD0504C060E080E00E94CD050E
S113321080912A04DF91CF911F9108951F93CF933A
S1133220DF93D62F172FC0912904882331F0C130A2
S113323051F018F0C23029F12DC081E080932904A7
S1133240C13089F539C060E181E00E94FE058F3FFD
S113325009F56FEF82E095E00E94E60462E080E009
S113326095E00E94E604612F84E095E00E94E60464
S11332706D2F85E095E00E94E60482E080932904A6
S113328017C061E081E00E94FE058F3F19F480932E
S1133290290412C0809129048C1771F0813019F02F
S11332A0823031F009C060E080E00E94FE0504C075
S11332B060E080E00E94FE0580912904DF91CF91B7
S11332C01F910895CF93DF93EA01FB01908191113F
S11332D009C09181911106C09281911103C093811B
S11332E0992319F1209721F1811109C0CB010E9482
S11332F06C06CE010E94600681E090E01EC0813021
S113330049F4CB010E948E06CE010E94820681E020
S113331090E013C0823079F4CB010E94B006CE0154
S11333200E94A40681E090E008C080E090E005C01F
S113333080E090E002C081E090E0DF91CF910895B9
S1133340AB011092CC0F1092CB0FBC0180E0BACF2E
S11333500895AB011092210710922007BC0181E06F
S1133360B1CF08959B016091CB0F7091CC0FAC014C
S113337080E00E944D072091CB0F3091CC0F280F95
S1133380391F3093CC0F2093CB0F08959B0160918C
S1133390200770912107AC0181E00E944D07209124
S11333A0200730912107280F391F309321072093DC
S11333B020070895CF93C0912804882331F0C130A9
S11333C051F018F0C23089F02EC081E080932804B7
S11333D0C13079F532C060E281E00E94FE058F3F82
S11333E011F582E08093280428C062E070E081E057
S11333F00E948F0584FD0DC062E070E081E00E94B0
S11334008F0583FF10C048E162E070E081E00E9414
S1133410C30540E162E070E081E00E94C3058FEFE4
S1133420809328040AC0809128048C1731F08130DD
S113343021F460E280E00E94FE0580912804CF918F
S11334400895CF93C0912704882331F0C13051F0FF
S113345018F0C23089F02EC081E080932704C13077
S113346079F532C060E281E00E94CD058F3F11F50D
S113347082E08093270428C062E070E080E00E942C
S11334808F0584FD0DC062E070E080E00E948F052E
S113349083FF10C048E162E070E080E00E94C30551
S11334A040E162E070E080E00E94C3058FEF80930A
S11334B027040AC0809127048C1731F0813021F44D
S11334C060E280E00E94CD0580912704CF910895A9
S11334D01F93CF93DF93D62F172FC09126048823F1
S11334E031F0C13051F018F0C23029F12DC081E023
S11334F080932604C13089F539C060E181E00E94DF
S11335002F068F3F09F56FEF82E096E00E94E604F4
S113351062E080E096E00E94E604612F84E096E099
S11335200E94E6046D2F85E096E00E94E60482E0A6
S11335308093260417C061E081E00E942F068F3F2C
S113354019F48093260412C0809126048C1771F01C
S1133550813019F0823031F009C060E180E00E94CE
S11335602F0604C061E080E00E942F0680912604AB
S1133570DF91CF911F910895AB011092A008109292
S11335809F08BC0182E09ECE08959B0160919F0834
S11335907091A008AC0182E00E944D0720919F0821
S11335A03091A008280F391F3093A00820939F085A
S11335B00895AF92BF92CF92DF92EF92FF920F9352
S11335C01F93CF93DF931F921F92CDB7DEB77A83F9
S11335D069837A018901E981FA81F770C82ED12CB7
S11335E0D601AA0FBB1FA85EB84F8D919C918E0F78
S11335F09F1F2E0F3F1F21303840C8F020E038E0D5
S11336005901AE1ABF0AA501B7010E94FD03A80122
S11336104A195B09B7016A0D7B1DF601EE0FFF1F06
S1133620E85EF84F808191810E94FD0304C0A801E7
S1133630B7010E94FD030F900F90DF91CF911F916E
S11336400F91FF90EF90DF90CF90BF90AF900895CF
S1133650DF92EF92FF920F931F93CF93DF93D82EB5
S11336607B018A0168E270E00E948F05C82FD0E0D8
S113367069E270E08D2D0E948F05DC2FCC27C82BCA
S11336809801A701BE018D2D94DFC00FD11F4D2FCE
S113369068E270E08D2D0E94C3054C2F69E270E052
S11336A08D2D0E94C305DF91CF911F910F91FF9043
S11336B0EF90DF900895DF92EF92FF920F931F93A4
S11336C0CF93DF93D82E0FEF1FEFE12CF12C8D2D2C
S11336D00E94AD05EC01009721F08D2D0E94AD05EF
S11336E07C01EC16FD0629F00150110901151105A4
S11336F071F7C701DF91CF911F910F91FF90EF9068
S1133700DF900895DF92EF92FF920F931F93CF9370
S1133710DF93D82E7B018A01CEDFEC01009799F468
S113372063E070E08D2D0E948F058431D9F08823E9
S1133730C9F0C1E0D0E08C3111F4C0E0D0E0D19503
S1133740C195D10904C0081719070CF4E8011C1627
S11337501D0644F4AE01B7018D2D7ADF60E48D2D92
S11337600E94FF04CE01DF91CF911F910F91FF9032
S1133770EF90DF9008950F931F93CF93DF931F92E1
S1133780CDB7DEB7082F10E0F801EE0FFF1FEF5999
S1133790F84F20813181232BB1F041E050E0BE018C
S11337A06F5F7F4FAFDF1816190684F4F801EE0F30
S11337B0FF1FEF59F84F8081918101979183808396
S11337C0898190E005C08FEF9FEF02C08FEF9FEFDC
S11337D00F90DF91CF911F910F910895DF92EF9297
S11337E0FF920F931F93CF93DF93CDB7DEB7289744
S11337F00FB6F894DEBF0FBECDBFD82EE82EF12C45
S1133800F701EE0FFF1FEF59F84F20813181232B71
S113381041F08F018D2DAFDFF80120813181232B01
S1133820C9F78D2D48DF18161906ACF548E050E0AD
S1133830BE016F5F7F4F8D2D65DF9C011816190641
S11338403CF589818093A10F8A818093A20F8B819B
S11338508093A30F8C818093A40FC701880F991FB5
S1133860FC01E756F04F2D8130E0322F22274E81A4
S1133870240F311D318320832F8130E0322F222702
S11338804885240F311DFC01EF59F84F3183208303
S1133890822F932F02C080E090E028960FB6F89410
S11338A0DEBF0FBECDBFDF91CF911F910F91FF906F
S11338B0EF90DF90089580E091CF089581E08ECF5E
S11338C00895409161075091620741155105D9F05F
S11338D06417750728F0BC0180E014DF9C0105C063
S11338E0AB01BC0180E00EDF9C011216130674F4D8
S11338F0E1E6F7E080819181821B930B91838083C1
S1133900822F932F08958FEF9FEF08958FEF9FEFEE
S11339100895409163075091640741155105D9F00A
S11339206417750728F0BC0181E0ECDE9C0105C03A
S1133930AB01BC0181E0E6DE9C011216130674F4AF
S1133940E3E6F7E080819181821B930B918380836E
S1133950822F932F08958FEF9FEF08958FEF9FEF9E
S1133960089580E008CF089580913B0490913C0431
S1133970A0913D04B0913E040196A11DB11D809318
S11339803B0490933C04A0933D04B0933E0480E038
S1133990A3C00895CF93C0912504811103C0109250
S11339A0250406C0C13099F018F0C23001F149C0B5
S11339B080912404811104C00E94A00780932404F0
S11339C081E080932504C13009F041C044C060E225
S11339D081E00E942F068F3FA1F568EE73E080918D
S11339E024040E94E60782E08093250434C062E048
S11339F070E082E00E948F0584FD19C062E070E0EF
S1133A0082E00E948F0583FF07C048E162E070E016
S1133A1082E00E94C30515C0809124040E9492098B
S1133A20882379F0A1DF8FEF8093250414C040E14F
S1133A3062E070E082E00E94C3058FEF809325046A
S1133A400AC0809125048C1731F0813021F460E2A2
S1133A5080E00E942F0680912504CF910895BF92A3
S1133A60CF92DF92EF92FF920F931F93CF93DF9346
S1133A707B016A01E901B0902304882331F0BB2063
S1133A8021F081E0B81639F00DC081E08093230461
S1133A90B8120EC015C081E07DDF8F3F19F480930A
S1133AA023040EC0809123048B1551F0813041F41E
S1133AB0B601C70161DDB801CE0167DD80E06ADFD0
S1133AC080912304DF91CF911F910F91FF90EF908C
S1133AD0DF90CF90BF9008950F931F93CF93C09121
S1133AE02204811103C01092220408C0C130A9F03D
S1133AF028F0C23011F1C43051F14BC0809121043F
S1133B00811104C00E94A0078093210481E0809366
S1133B102204C13009F047C0E5C069EE77E081E0D6
S1133B20D7DC8F3FB1F568EE73E0809121040E94E9
S1133B30E60782E080932204D5C0809121040E948C
S1133B409209882331F184E08093220431C063E038
S1133B5070E082E00E948F05823219F010922204F4
S1133B60C1C04091CD025091CE020EE310E026E395
S1133B7036E06FEC72E081E072DF8F3F51F468EE63
S1133B8073E0809121040E94E60782E0809322047E
S1133B90A9C0809122048C1709F4A4C0813019F0C3
S1133BA0843031F09FC069EE77E080E091DC9AC008
S1133BB0E6E3F6E085E0808381E080933706909128
S1133BC0CB022091CC02209338069093390680933F
S1133BD03A0682E080933B0683E180933C0686E3C9
S1133BE080933D068091220780933E0680912307AF
S1133BF080933F0680912407809340068091250797
S1133C008093410687E58093420685E380934306CB
S1133C1081E38093440680E38093450680934606BF
S1133C2080E28093470684E58093480695E4909368
S1133C30490693E590934A0680934B0681E596E006
S1133C4090934F0780934E0710A2178E12A211A2D1
S1133C508091BB029091BC0294A383A38091C7027C
S1133C609091C80296A385A38BE790E090A787A3C1
S1133C7088E097E092A781A788E998E094A783A7B2
S1133C8083E696E090933406809333068091300463
S1133C9090913104A0913204B0913304880F991F9C
S1133CA0AA1FBB1FAC01BD01440F551F661F771F20
S1133CB0440F551F661F771F840F951FA61FB71F3C
S1133CC085A796A7A7A7B0AB8AE180937306409116
S1133CD0CD025091CE020EE310E09F016FEC72E032
S1133CE080E0BDDE80912204CF911F910F91089551
S1133CF08F929F92AF92BF92CF92DF92EF92FF92F8
S1133D000F931F93CF93DF93CDB7DEB7A4970FB66E
S1133D10F894DEBF0FBECDBFE82ED62EC72E689412
S1133D20FF24F5F88E010F5F1F4FF8018F2D1192BC
S1133D308A95E9F78FEF89A38AA38BA38CA363E405
S1133D4070E0CE018196FCDA81E089838A8386E083
S1133D508B831C8240914507509146076091470729
S1133D6070914807872E9924AA24BB24B42FAA272C
S1133D709927882788299929AA29BB298824942E38
S1133D80A52EB62E88249924BB2488299929AA29EA
S1133D90BB29452F562F672F772744276627772778
S1133DA0482B592B6A2B7B2B4D835E836F8378873B
S1133DB0C986DA8680E890E09C878B876CE170E0A6
S1133DC0C801D0DAF8018F2D11928A95E9F786E0BF
S1133DD0E7E2F7E0D80101900D928A95E1F760E1FE
S1133DE070E0C801BFDAF8011192FA94E9F706E02D
S1133DF010E060E270E0CE010196B4DA01501109DE
S1133E0001151105B1F783E6898392E89A8393E556
S1133E109B838C8385E38D8381E08E83EF829DE396
S1133E20988797E099878A8786E0E7E2F7E0DE01E2
S1133E301B9601900D928A95E1F78CE0898B8A8B11
S1133E4087E0E7EDF2E0DE01539601900D928A954A
S1133E50E1F760912A07CE0149960E946D076091AF
S1133E602B07CE014B960E946D0760912C07CE0163
S1133E704D960E946D076EE170E0CE01019672DAF4
S1133E80F3E0EF1224C082E3898384E08A83909173
S1133E9022079B83909123079C83909124079D8301
S1133EA0909125079E8396E39F8388878091780667
S1133EB08987809179068A8780917A068B87809199
S1133EC07B068C876CE070E0CE0101964BDA87E3C9
S1133ED0898386E08A8391E09B8393E09C838D832E
S1133EE08FE08E838AE38F838BE388878FEF8987C4
S1133EF069E070E0CE01019635DAA4960FB6F89425
S1133F00DEBF0FBECDBFDF91CF911F910F91FF9008
S1133F10EF90DF90CF90BF90AF909F908F900895D7
S1133F200F931F93CF93DF93062FEA011091200480
S1133F30882329F0112319F0113039F00DC081E0E4
S1133F4080932004113071F412C081E07ADA8F3F3B
S1133F5019F4809320040BC090912004911739F038
S1133F60913029F4BE01802FC3DE80E06ADA8091AB
S1133F702004DF91CF911F910F9108952F923F92CA
S1133F804F925F927F928F929F92AF92BF92CF9205
S1133F90DF92EF92FF920F931F93CF93DF93CDB7EE
S1133FA0DEB7A2970FB6F894DEBF0FBECDBF8A016D
S1133FB082DC181619060CF0F1C162E270E0CE0141
S1133FC001967FDC8981823009F0EAC18091990FE2
S1133FD090919A0F8334910509F0E4C18D819E81FB
S1133FE0AF81B885CB2EDD24EE24FF24782F6627FD
S1133FF055274427C42AD52AE62AF72A4427582FC6
S1134000692F7A2F442755277727C42AD52AE62AE9
S1134010F72A892F9A2FAB2FBB278827AA27BB27DC
S1134020C82AD92AEA2AFB2AF801C082D182E2826C
S1134030F38246E050E067E277E0CE014D960E94BD
S11340404A39892B09F0B0C18091810B9091820B80
S1134050A091830BB091840BC816D906EA06FB061F
S113406008F4A4C18091450790914607A0914707A1
S1134070B09148078C159D05AE05BF0508F498C19D
S113408089899A89AB89BC898093220790932307F5
S1134090A0932407B09325070EEC10E062DC0150D6
S11340A0110901151105D1F7712C0F2EF1E6CF2E50
S11340B0F7E0DF2EF02D812C912C0F2EF8E7AF2E98
S11340C0F6E0BF2EF02D0F2EF9E94F2EFFE05F2E04
S11340D0F02D0F2EF9E72F2EF6E03F2EF02D56C1CE
S11340E040DC8333910509F405C17CF481309105EA
S11340F029F124F4892B09F449C13DC18330910588
S113410021F1069709F439C036C18A33910509F4BF
S11341107FC03CF48533910569F0C69709F445C026
S11341202AC18B33910509F4ACC08F3F910509F482
S11341302DC121C116DC15DC782E28C112DC64E007
S113414070E08FE89FE00DDC21C10BDC7C0164E0B2
S113415070E085E397E005DCFF24F4E0EF1AF10852
S11341601E141F040CF012C1082D192DFADB0F5F69
S11341701F4F0E151F05D4F309C1F3DB7C0164E066
S113418070E08DEB9FE0EDDBFF2484E0E81AF1089A
S11341901E141F040CF0FAC0082D192DE2DB0F5F6A
S11341A01F4F0E151F05D4F3F1C0DBDBF501908121
S11341B091110EC0F101908191110AC0EAE7F6E075
S11341C09081911105C0EBE7F6E09081992399F075
S11341D0F5010081118122813381F20140815181F5
S11341E062817381041715072607370721F0F82E1B
S11341F0811106C0CBC064E070E0C501B2DBC6C06B
S1134200082D192DAEDB0F5F1F4FF012FBCFBEC080
S1134210A8DB64E070E080E597E0A3DB80915007C1
S113422090915107A0915207B09153070B2F11277A
S113423022273327782F662755274427042B152B4D
S1134240262B372B4427582F692F7A2F442755279D
S11342507727042B152B262B372B492F5A2F6B2FFF
S11342607727442766277727402B512B622B732B04
S1134270409350075093510760935207709353072C
S113428085C06FDB64E070E08EE697E06ADB8091C6
S11342906E0790916F07A0917007B09171070B2F73
S11342A0112722273327782F662755274427042BE5
S11342B0152B262B372B4427582F692F7A2F442769
S11342C055277727042B152B262B372B492F5A2FAD
S11342D06B2F7727442766277727402B512B622B98
S11342E0732B40936E0750936F076093700770931E
S11342F071074CC036DB64E070E08AE397E031DBA1
S113430080913A0790913B07A0913C07B0913D07FB
S11343100B2F112722273327782F66275527442769
S1134320042B152B262B372B4427582F692F7A2F34
S1134330442755277727042B152B262B372B492F5A
S11343405A2F6B2F7727442766277727402B512B2B
S1134350622B732B40933A0750933B0760933C07BF
S113436070933D074093C30F5093C40F6093C50FE0
S11343707093C60F0BC0F5DAF82E882339F0082D98
S1134380192DEFDA0F5F1F4FF012FBCFF60180817A
S11343909181892B09F0A4CE872D0BC08FEF09C022
S11343A080E007C080E005C080E003C080E001C079
S11343B080E0A2960FB6F894DEBF0FBECDBFDF91AA
S11343C0CF911F910F91FF90EF90DF90CF90BF900E
S11343D0AF909F908F907F905F904F903F902F90E1
S11343E00895CF92DF92EF92FF926B017C016115E9
S11343F071058105910539F00E94EB38A7019601FA
S11344000E945D3803C060E070E0CB01FF90EF9044
S1134410DF90CF900895CF93C0911F04811110C0F5
S113442080913A0481111EC08091D30280933A0492
S113443092E0980F9093D3028F5F8093390412C057
S1134440C530C9F130F4C13099F060F0C330E1F007
S1134450D9C0C73009F475C008F45CC0CF3F09F473
S1134460C7C0D0C081E080931F048C13D9C02BC176
S113447064E470E081E00E94BA188F3F09F0C2C082
S113448083E080931F0414C14AE050E061E081E0BE
S113449047DD8F3F09F0B6C081E08093C20F48EE3C
S11344A053E060E070E080913A040E944A0985E09C
S11344B080931F0408C160912F0770913007809189
S11344C031079091320745EB5FE058DD8230A1F46B
S11344D08091B50F9091B60FA091B70FB091B80F1E
S11344E08093450790934607A0934707B0934807E6
S11344F086E080931F04E2C080913A040E94B909C7
S1134500882321F081E080931F048AC085E0809392
S11345101F04D9C044E650E063E081E001DD8F3F31
S113452009F070C082E08093C20F44EF51E060E074
S113453070E080913A040E944A0987E080931F0446
S1134540C2C060912F07709130078091310790911C
S1134550320745EB5FE012DD8530B1F52091250788
S113456030E04091240750E06091230770E080918F
S1134570220790E00E943E052091380730E04091E8
S1134580370750E06091360770E08091350790E07E
S11345900E9459052091920F30E04091910F50E014
S11345A06091900F70E080918F0F90E00E947405ED
S11345B048EB5BE060E070E0809139040E944A09B6
S11345C08FEF80931F047FC0863021F483E08093B3
S11345D01F046EC080913A040E94B909882321F017
S11345E081E080931F041CC087E080931F046BC08C
S11345F0809139040E94B909882321F086E08093D0
S11346001F045CC080911F048C1709F45CC08330C4
S113461009F44EC0863009F451C0813009F053C00A
S11346206FEC77E080E090E0DCDEDC01CB0101960A
S1134630A11DB11D8093450790934607A09347079A
S1134640B09348078093810B9093820BA093830BC4
S1134650B093840B10922207109223071092240720
S11346601092250710928F0F1092900F1092910FB5
S11346701092920F10923507109236071092370756
S113468010923807109278061092790610927A06E2
S113469010927B061092BD0F1092BE0F1092BF0FA6
S11346A01092C00F64E470E080E00E94BA180BC05E
S11346B04AE050E061E080E033DC05C04AE050E0CD
S11346C063E080E02DDC80911F04CF910895AF92C8
S11346D0BF92CF92DF92EF92FF920F931F93CF93EB
S11346E0DF93CDB7DEB760970FB6F894DEBF0FBE89
S11346F0CDBFA2960EAD1FADA29781E3F8018083D2
S11347008EE2818383E3828313826F96DFAC6F979B
S1134710DA9409F44EC021E0A12CB12C0F2EFEE254
S1134720EF2EF12CF02D8A2D9B2DCC24C394C20E98
S1134730EEE1F0E0EC0FFD1FE20FF11D20819695F4
S1134740982F882797958795322F3F77830F911D50
S1134750DA9421F02223C4F42C2DE7CF4AE0BE01E1
S11347606F5F7F4F0E948839F80101900020E9F7BC
S113477031978EE290E091838083BE016F5F7F4F1B
S1134780C8010E94573915C04AE0BE016F5F7F4FD0
S11347900E948839F80101900020E9F73197F182ED
S11347A0E082BE016F5F7F4FC8010E9457392C2DF4
S11347B0BACF60960FB6F894DEBF0FBECDBFDF91BF
S11347C0CF911F910F91FF90EF90DF90CF90BF900A
S11347D0AF9008953F924F925F926F927F928F9223
S11347E09F92AF92BF92CF92DF92EF92FF920F937C
S11347F01F93CF93DF9300D01F921F92CDB7DEB7E4
S11348008C01DB018C91813309F0E5C011968C9108
S113481011978E3209F0DFC012968C911297833370
S113482009F0D9C013968C918E3209F0D4C080E47B
S1134830F80111928A95E9F78BE2D8018C93FB0178
S113484001900020E9F731973F01661A770AFE01CB
S1134850319685E0DF011D928A95E9F7B5E06B1684
S113486071040CF471C06B01E4E0CE0ED11C6894A9
S1134870EE24E2F8F12CAA24A394B12C80E090E079
S11348809E012F5F3F4F49010F2EF5E03F2EF02D83
S1134890412C512CD6012D916D012E3209F047C0C7
S11348A0C4010E941439272F862F922F8038910536
S11348B028F4F801EA0DFB1D60832EC08115B0E4D5
S11348C09B0788F4F801EA0DFB1D880F991F892FB7
S11348D080688083EFEFAE1ABE0AF801EA0DFB1D73
S11348E06F77608319C0F801EA0DFB1D9C0124E079
S11348F0329F212D33271124237020682083880FB1
S1134900991F892F80688183F2E0AF0EB11CF801F2
S1134910EA0DFB1D6F776083D401E32D1D92EA95A8
S1134920E9F7FFEFAF1ABF0A842D952D05C0F401F6
S1134930E80FF91F208301962FEFE21AF20A6E1492
S11349407F0409F0A7CF03C0AA24A394B12CCE01FD
S113495001960E94F738282F392F2038310528F482
S1134960F801EA0DFB1D80832EC0211590E4390760
S113497088F4F801EA0DFB1D220F331F932F906872
S11349809083AFEFAA1ABA0AF801EA0DFB1D8F77DC
S1134990808319C0F801EA0DFB1DA90144E0549F6E
S11349A0412D55271124437040684083220F331F43
S11349B0932F90689183B2E0AB0EB11CF801EA0D1D
S11349C0FB1D8F778083F801E05CFF4F2FEFA21A65
S11349D0B20AB182A0820F900F900F900F900F90A7
S11349E0DF91CF911F910F91FF90EF90DF90CF90C7
S11349F0BF90AF909F908F907F906F905F904F90FB
S1134A003F90089520E4FC0111922A95E9F7FC01F6
S1134A10E05CFF4F1182108208958F929F92AF92B3
S1134A20BF92CF92DF92EF92FF920F931F93CF9397
S1134A30DF93CDB7DEB760970FB6F894DEBF0FBE35
S1134A40CDBF8C017B01FC01EE5BFF4F8081843084
S1134A5009F47DC0863009F46DC0843409F066C061
S1134A6076C081E3D7018C938EE211968C931197D3
S1134A7083E312968C93129713961C92F801E05CD0
S1134A80FF4FB080BA9411F181E0812C912C0F2E4C
S1134A90FEE2CF2ED12CF02D282D392DAA24A3945B
S1134AA0A80EF801E80FF11D80813695322F2227D8
S1134AB037952795982F9F77290F311DBA9409F4BC
S1134AC053C088230CF067C08A2DE8CF80E079C0FA
S1134AD0F801ED5BFF4F108233972081318121155E
S1134AE03105D1F080E090E060E03396A801405CAD
S1134AF05F4FD801A60FB11D2C91D701A80FB91F84
S1134B002C9360816F5F6083862F90E0DA012D9192
S1134B103C918217930768F3F701E20FF31F1082A9
S1134B2080E04FC0C8016EDF81E04BC0C8016ADF7E
S1134B3087E047C0FB0101900020E9F7CF01861B05
S1134B40970B02978417950708F48BCFEBCFF701E7
S1134B5001900020E9F7CF018E199F09029784176D
S1134B60950708F4B5CFDECF4AE0BE016F5F7F4FF3
S1134B70C9010E948839F70101900020E9F73197B3
S1134B808EE290E091838083BE016F5F7F4FC70107
S1134B900E9457399BCF4AE0BE016F5F7F4FC90126
S1134BA00E948839F70101900020E9F73197D182FA
S1134BB0C082BE016F5F7F4FC7010E9457398A2DA3
S1134BC06BCF60960FB6F894DEBF0FBECDBFDF91FA
S1134BD0CF911F910F91FF90EF90DF90CF90BF90F6
S1134BE0AF909F908F9008951F93CF93DF93FC0114
S1134BF0EE5BFF4F2081223059F5329720813181BD
S1134C002330310540F5FB0111821082FC01E05C88
S1134C10FF4F2081318121153105F9F0162FE62F40
S1134C20F72F40E050E0EC01C05CDF4F4095509519
S1134C30280F391FD901A40FB51F2C9121934E2F92
S1134C40411B50E0288139814217530778F307C08C
S1134C50D9DE87E005C081E003C080E001C080E0C8
S1134C60DF91CF911F9108951F93CF93DF93FC01A0
S1134C70EE5BFF4F2081223039F5FB011082118257
S1134C8012821382FC01E05CFF4F208131812115E7
S1134C903105E9F0162FE62FF72F40E050E0EC0144
S1134CA0C05CDF4F40955095280F391FD901A40FE0
S1134CB0B51F2C9121934E2F411B50E0288139813F
S1134CC04217530778F305C09DDE87E003C080E0F8
S1134CD001C080E0DF91CF911F9108951F93CF937E
S1134CE0DF93FC01EE5BFF4F20813FEB320F33304B
S1134CF010F0273439F5FB011082118212821382DD
S1134D00FC01E05CFF4F2081318121153105E9F080
S1134D10162FE62FF72F40E050E0EC01C05CDF4F88
S1134D2040955095280F391FD901A40FB51F2C9118
S1134D3021934E2F411B50E028813981421753079C
S1134D4078F305C05FDE87E003C080E001C080E047
S1134D50DF91CF911F9108951F93CF93DF9320E4A8
S1134D60DC011D922A95E9F7FC01EE5BFF4F2081DF
S1134D70203411F0253459F5FB011082118212827E
S1134D801382FC01E05CFF4F208131812115310544
S1134D9009F1162FE62FF72F40E050E06CEF7FEF7C
S1134DA0EC01C05CDF4FDB01A41BB50BAD01280F88
S1134DB0391FD901A40FB51F2C9121934E2F411BEC
S1134DC050E0288139814217530768F305C01ADE81
S1134DD087E003C080E001C080E0DF91CF911F91A4
S1134DE00895FC01EE5BFF4F2081213049F4FC0162
S1134DF08081811101C020E0FB01208380E00895BF
S1134E0001DE87E00895CF9320E4FC0111922A95F6
S1134E10E9F7262F2F7B2430C9F5FA0101900020F1
S1134E20E9F79F01241B350B225031092034310549
S1134E3050F5FC01EE5BFF4F6083FA010190002006
S1134E40E9F73197BF01641B750BFC01E05CFF4F70
S1134E50718360833396108261157105D1F020E06F
S1134E6030E0C0E0DF01FA01E20FF31F2081FC0112
S1134E70EC0FF11D2083CF5FCC932C2F30E026174D
S1134E80370788F308C0BEDD81E006C0BBDD87E0DC
S1134E9003C080E001C080E0CF91089520E4FC01CC
S1134EA011922A95E9F7623011F0643471F4FC012F
S1134EB0E05CFF4F22E030E0318320833296608350
S1134EC0FC015083418380E008959CDD87E00895D0
S1134ED070E4FC0111927A95E9F7623011F06434C0
S1134EE081F4FC01E05CFF4FA4E0B0E0B183A08357
S1134EF032966083FC01508341833283238380E0B4
S1134F00089580DD87E00895FC0180E4DF011D92AF
S1134F108A95E9F78FEB860F843010F0673481F4BB
S1134F20DF01A05CBF4F84E090E011969C938E93C8
S1134F3012966C93508341833283238380E00895D7
S1134F40CF0160DD87E00895CF93DF93FC01DA01A0
S1134F5080E4EF0119928A95E9F7603421F08CEB33
S1134F60860F8230C8F4EF01C05CDF4F84E090E02C
S1134F70998388832296688313968C9113978083F0
S1134F8012968C911297818311968C91119782833A
S1134F908C91838380E003C0CF0134DD87E0DF910F
S1134FA0CF91089520E4FC0111922A95E9F761302C
S1134FB011F0643499F421E030E0FC01E05CFF4F2F
S1134FC03183208332966083442321F0FC012083C3
S1134FD080E00895FC01108280E0089513DD87E0ED
S1134FE008952F923F924F925F926F927F928F9289
S1134FF09F92AF92BF92CF92DF92EF92FF920F9364
S11350001F93CF93DF93CDB7DEB72B970FB6F894EA
S1135010DEBF0FBECDBF998788876091630770910B
S1135020640770932E0760932D0789E9ECE7F6E097
S1135030DF011D928A95E9F76A39710508F0C8C144
S1135040CF010E94891C80917C06803309F0C2C183
S113505080917F0623E0280F30E0F901E458F94FEE
S1135060D28095E0980F792E7D0CE72CF12CF70176
S1135070E458F94F8180B481B98394E0970DAB2E45
S1135080A90E0A2D10E0F801E458F94F92819C838F
S11350906894BB24B1F8BA0CB90EAB2DB0E0FD0195
S11350A0E458F94F92806894CC24C1F8CB0CC90C15
S11350B04C2C512CF201E458F94F668096E09C0D7B
S11350C0960D9D83292E312CA1014458594FFA0184
S11350D0F181FF83FA01F281FE83E885F98511826B
S11350E0128213821482882331F141E856E0815000
S11350F090E08E57994F3B832A83BB87AA87FA0196
S11351002191A885B98511964D915D916D917C9100
S11351101497762F652F542F4427422B11964D93C5
S11351205D936D937C931497E817F90749F72A81E7
S11351303B81AA85BB85E885F98580828092A30896
S1135140F4E1FD1538F481E0A885B98519968C93AE
S113515082E070C1E885F9858081833A09F03FC017
S11351606D2D70E08091690790916A07681779073F
S113517009F06FC06115710509F472C0C901039685
S11351804091850A5091860AFC01E458F94F308118
S1135190FA012081321791F00AC0E40FF51FC4010F
S11351A0820F911DDC019C918081981771F082E03F
S11351B0A885B98519968C9387E03CC120E0845872
S11351C0994FBB83AA83392D4C012F5FE22FF0E066
S11351D0E617F70710F3AA81BB81932E41C0805ACA
S11351E08230B8F54D2D50E080913307909134070B
S11351F04817590771F54115510591F1B9016D5FD2
S11352007F4F2091740630917506FB01E458F94FE5
S11352109081F9018081981791F00AC0820F931F41
S1135220FB01ED0DF11D8080FC018081881651F099
S113523082E0A885B98519968C9387E0FBC0D12CB0
S11352406458794FD3948D2D90E08417950730F3EB
S113525007C082E0A885B98519968C9387E0EAC0D7
S1135260E885F9851582168217821086F981FF2355
S113527051F1A7014F57594F872D90E08E57994F01
S11352802F2F2150820F911DBB83AA83FA01E8843A
S1135290F9842191D70115964D915D916D917C9181
S11352A01897762F652F542F4427422B15964D932C
S11352B05D936D937C931897E817F90751F7AA81CA
S11352C0BB81F986E886E885F9851186FC81FF2390
S11352D0E1F00158194F8A2D90E08058994F2F2FF3
S11352E02150820F911D40E050E0BA01F801088579
S11352F01985762F652F542F44272191422BE817C7
S1135300F907B9F71987088703C040E050E0BA01EC
S1135310E885F985418712861386148615869920B7
S1135320E9F0A158B94F8B2D90E08058994F2FEF99
S1135330290D820F911D2D914285538564857585B4
S1135340762F652F542F4427422B42875387648737
S11353507587A817B90779F7F987E887F0E4F61590
S113536038F481E0A885B98519968C9383E062C0EE
S113537080E4E885F9853E96DF011D928A95E9F778
S1135380E885F985E25BFF4F862D90E09183808369
S1135390662021F1F201ED57F94FA885B9851E96D3
S11353A08C2D90E08C57994F6A94860D911D4885F9
S11353B0598521912D93E817F907D9F7598748871B
S11353C00DC021912D93E817F907D9F780E032C079
S11353D086E030C085E02EC080E02CC0E885F985E9
S11353E0EE56FF4FBF81B083E885F985E057FF4F44
S11353F02E81822F90E09183808380E4E885F98573
S1135400E05BFF4FDF011D928A95E9F7222321F328
S1135410F101E158F94F48855985405B5F4FBD81E3
S11354208B2F90E08058994F2E812150820F911D2F
S1135430DA01C7CF2B960FB6F894DEBF0FBECDBFEF
S1135440DF91CF911F910F91FF90EF90DF90CF905C
S1135450BF90AF909F908F907F906F905F904F9090
S11354603F902F900895CF92DF92EF92FF920F9387
S11354701F93CF93DF93DC01109216071092150748
S1135480EC01C25BDF4FFC01E057FF4F28813981FB
S113549080819181280F391F2B5D3F4F89E9ECE70B
S11354A0F6E0EF0119928A95E9F78091A308833A0F
S11354B029F58091690790916A07280F391F309365
S11354C02E0720932D0730E330937C06225020933F
S11354D07D0622E020937E0621E020937F0624E0CF
S11354E02093810627E030E03093160720931507B8
S11354F0BC0180938206009731F566C08091330722
S113550090913407280F391F30932E0720932D07CD
S113551030E330937C06225020937D0622E02093D2
S11355207E0621E020937F0624E02093810627E075
S113553030E03093160720931507BC018093820650
S1135540009711F541C00091850A1091860A80E008
S113555090E0C0E02091150730911607A9014F5F34
S11355605F4F5093160740931507800F911FFC015E
S113557080812458394FF9018083CF5F8C2F90E0CC
S11355808617970738F320C00091740610917506AA
S113559080E090E0C0E02091150730911607A90142
S11355A04F5F5F4F5093160740931507800F911F6D
S11355B0FC0180812458394FF9018083CF5F8C2FFF
S11355C090E08617970738F3809115079091160796
S11355D09C012F5F3F4F30931607209315074C9182
S11355E0FC01E458F94F4083A9014458594F7D0107
S11355F02EE4E20EF11CE70178819D0120573F4F14
S1135600E9016881670F665EEA01688302E002834C
S113561014E0138315964C91159716965C91169782
S113562017966C91179718967C91189774836583D5
S1135630568347830087118719964C9119971286D0
S1135640138614864587068717871A964C911A97EE
S11356501B965C911B971C966C911C971D967C91D4
S11356601D97708B618B528B438B40E3448BE70116
S11356706881E9015881560F5A5F558B468BE701C3
S11356804881E9012881240F2C5F278B26E0208F95
S11356904A969093160780931507E7018881818FB6
S11356A088819981892B49F180911507909116077A
S11356B0FD013E969C012458394F69017C013DE06F
S11356C0E31AF108EA1AFB0A02EF1FEF0A1B1B0B8D
S11356D0BE01A7014E0F5F1F8191E60189936E0100
S11356E098012E0F3F1FEB018881998128173907F4
S11356F080F35093160740931507809115079091F6
S11357001607FD01EE56FF4F2081EC01C458D94F16
S11357102883029690931607809315073297808109
S1135720898380819181892B29F10091150710913A
S11357301607E054F109E801C458D94F0F54110970
S11357400A1B1B0B60EB7FEF6A1B7B0BA057BF4F41
S1135750A8014E0F5F1F819189939B012E0F3F1F5C
S11357608D919C9111972817390790F35093160740
S11357704093150760919B0F70919C0F81EA9FE005
S11357800E94A91960912D0770912E078CE796E06D
S11357900E94C61980E0DF91CF911F910F91FF9075
S11357A0EF90DF90CF9008959F92AF92BF92CF92E7
S11357B0DF92EF92FF920F931F93CF93DF935C01DD
S11357C07B0109E612E0C0E0D0E06E01F8013297F7
S11357D060817181C5010E946239892B09F09AC1E7
S11357E0F801808190E0FC013197E734F10508F07D
S11357F091C1EA57FF4F0C947938F7018081833ABD
S113580031F5F601EE0FFF1FEE0FFF1FEE0FFF1F26
S1135810EC19FD09E959FD4F0380F481E02DDF0106
S11358200D900020E9F71197AD014E1B5F0B6081CD
S113583070E0C701805B9F4FF0D88093411082EAEB
S1135840F701808380914110818781E06EC1F60168
S1135850EE0FFF1FEE0FFF1FEE0FFF1FEC19FD09E8
S1135860E959FD4F0380F481E02D408150E064E06C
S1135870C701805B9F4FC7DA8093411082EAF7012A
S1135880808380914110818781E04FC1F70180813D
S1135890833A81F5F601EE0FFF1FEE0FFF1FEE0FA7
S11358A0FF1FEC19FD09E959FD4F86818130D9F4B8
S11358B0F601EE0FFF1FEE0FFF1FEE0FFF1FEC1997
S11358C0FD09E959FD4F63817481C701805B9F4FD6
S11358D08BD98093411082EAF70180838091411033
S11358E0818781E022C182EAF701808384E0818795
S11358F081E01BC1803AF9F4F601EE0FFF1FEE0FB1
S1135900FF1FEE0FFF1FEC19FD09E959FD4F03803E
S1135910F481E02D4081518162E0C701805B9F4F9B
S1135920BDDA8093411082EAF701808380914110AF
S1135930818781E0FAC0813A09F0F4C0FAE0FC17EB
S113594038F18FEFC81AD80AE601CC0FDD1FCC0F4F
S1135950DD1FCC0FDD1FCC19DD09C959DD4F68816E
S11359607981C7010E960E94EA23EB81FC81408174
S1135970518162E0C701805B9F4F90DA80934110B0
S113598082EAF701808380914110818781E0CDC054
S113599082EAF701808382E0818781E0C6C0F70153
S11359A08081833AD9F4F601EE0FFF1FEE0FFF1F3B
S11359B0EE0FFF1FEC19FD09E959FD4F6381748156
S11359C0C701805B9F4F8AD98093411082EAF70117
S11359D0808380914110818781E0A7C0F601EE0F9A
S11359E0FF1FEE0FFF1FEE0FFF1FEC19FD09E95912
S11359F0FD4F0380F481E02D208131814281538168
S1135A0067E4C701805B9F4F7FDA8093411082EA8D
S1135A10F701808380914110818781E086C0F7017E
S1135A208081833AD9F4F601EE0FFF1FEE0FFF1FBA
S1135A30EE0FFF1FEC19FD09E959FD4F63817481D5
S1135A40C701805B9F4F88D98093411082EAF70198
S1135A50808380914110818781E067C0F601EE0F59
S1135A60FF1FEE0FFF1FEE0FFF1FEC19FD09E95991
S1135A70FD4F0380F481E02D408150E060E4C701D4
S1135A80805B9F4F61DA8093411082EAF701808343
S1135A9080914110818781E048C0F7018081833A79
S1135AA0D9F4F601EE0FFF1FEE0FFF1FEE0FFF1FDD
S1135AB0EC19FD09E959FD4F63817481C701805BCD
S1135AC09F4F8FD98093411082EAF70180838091A0
S1135AD04110818781E029C0F601EE0FFF1FEE0F10
S1135AE0FF1FEE0FFF1FEC19FD09E959FD4F03805D
S1135AF0F481E02D408160E4C701805B9F4F52DA5E
S1135B008093411082EAF70180838091411081875C
S1135B1081E00BC02196095F1F4FCC30D10509F0FD
S1135B2054CE02C081E001C080E0DF91CF911F918B
S1135B300F91FF90EF90DF90CF90BF90AF909F9028
S1135B400895CF93DF93CDB7DEB7C45DD1090FB607
S1135B50F894DEBF0FBECDBFCE01019642DA80932A
S1135B604611998120E6290F223018F0933A09F062
S1135B7007C49A85911104C4811102C48DE598E08B
S1135B809F938F938DB79EB7825491090FB6F89463
S1135B909EBF0FBE8DBFADB7BEB7119682E4FE01A6
S1135BA03F9601900D928A95E1F70E9467230FB604
S1135BB0F894DEBF0FBECDBF63EB74E08DE598E0D3
S1135BC00E943A39892B09F046C08981833AB1F49D
S1135BD0CE018F5A9F4F0E940225CF56DF4F198264
S1135BE01882C159D04085E0CD56DF4F8883C35910
S1135BF0D04082EA898384E08A87B9C3803A69F411
S1135C0046E552E064E0CE018F5A9F4FFCD8809362
S1135C10411092EA99838A87AAC3813A09F0A7C3FB
S1135C2061EA74E0CE018B569F4F0E944339BE0156
S1135C306B567F4FCE010F960E94EA2345E452E053
S1135C4064E0CE018F5A9F4FDED88093411092EAD0
S1135C5099838A878CC361EA74E08DE598E00E9499
S1135C603A39892BD9F58981833A29F482EA8983DF
S1135C7084E08A877CC3803A69F445E452E064E0B6
S1135C80CE018F5A9F4FBFD88093411092EA9983D7
S1135C908A876DC3813A09F06AC36FE874E0CE0164
S1135CA08B569F4F0E944339BE016B567F4FCE01E6
S1135CB00F960E94EA2320913004309131044091E0
S1135CC032045091330463E4CE018F5A9F4F1CD9A0
S1135CD08093411092EA99838A8749C36FE874E0FC
S1135CE08DE598E00E943A39892BD9F58981833A68
